{
	"contracts/Pot.sol": {
		"Pot": {
			"abi": [
				{
					"inputs": [],
					"stateMutability": "nonpayable",
					"type": "constructor"
				},
				{
					"inputs": [
						{
							"internalType": "address",
							"name": "addr",
							"type": "address"
						}
					],
					"name": "addVerified",
					"outputs": [],
					"stateMutability": "nonpayable",
					"type": "function"
				},
				{
					"inputs": [
						{
							"internalType": "address",
							"name": "addr",
							"type": "address"
						}
					],
					"name": "addVerifier",
					"outputs": [],
					"stateMutability": "nonpayable",
					"type": "function"
				},
				{
					"inputs": [
						{
							"internalType": "address",
							"name": "",
							"type": "address"
						}
					],
					"name": "balances",
					"outputs": [
						{
							"internalType": "uint256",
							"name": "",
							"type": "uint256"
						}
					],
					"stateMutability": "view",
					"type": "function"
				},
				{
					"inputs": [
						{
							"internalType": "uint256",
							"name": "shares",
							"type": "uint256"
						}
					],
					"name": "buyTokens",
					"outputs": [],
					"stateMutability": "payable",
					"type": "function"
				},
				{
					"inputs": [
						{
							"internalType": "address",
							"name": "addr",
							"type": "address"
						}
					],
					"name": "isVerified",
					"outputs": [
						{
							"internalType": "bool",
							"name": "",
							"type": "bool"
						}
					],
					"stateMutability": "view",
					"type": "function"
				},
				{
					"inputs": [
						{
							"internalType": "address",
							"name": "addr",
							"type": "address"
						}
					],
					"name": "isVerifier",
					"outputs": [
						{
							"internalType": "bool",
							"name": "",
							"type": "bool"
						}
					],
					"stateMutability": "view",
					"type": "function"
				},
				{
					"inputs": [],
					"name": "price",
					"outputs": [
						{
							"internalType": "uint256",
							"name": "",
							"type": "uint256"
						}
					],
					"stateMutability": "view",
					"type": "function"
				},
				{
					"inputs": [
						{
							"internalType": "address",
							"name": "addr",
							"type": "address"
						}
					],
					"name": "removeVerified",
					"outputs": [],
					"stateMutability": "nonpayable",
					"type": "function"
				},
				{
					"inputs": [
						{
							"internalType": "address",
							"name": "addr",
							"type": "address"
						}
					],
					"name": "removeVerifier",
					"outputs": [],
					"stateMutability": "nonpayable",
					"type": "function"
				},
				{
					"inputs": [],
					"name": "totalShares",
					"outputs": [
						{
							"internalType": "uint256",
							"name": "",
							"type": "uint256"
						}
					],
					"stateMutability": "view",
					"type": "function"
				},
				{
					"inputs": [
						{
							"internalType": "address",
							"name": "addr",
							"type": "address"
						}
					],
					"name": "voteToAdd",
					"outputs": [],
					"stateMutability": "nonpayable",
					"type": "function"
				},
				{
					"inputs": [
						{
							"internalType": "address",
							"name": "addr",
							"type": "address"
						}
					],
					"name": "voteToRemove",
					"outputs": [],
					"stateMutability": "nonpayable",
					"type": "function"
				},
				{
					"inputs": [
						{
							"internalType": "uint256",
							"name": "shares",
							"type": "uint256"
						}
					],
					"name": "withdrawFromPot",
					"outputs": [],
					"stateMutability": "nonpayable",
					"type": "function"
				}
			],
			"devdoc": {
				"kind": "dev",
				"methods": {
					"addVerified(address)": {
						"details": "Adds verified address to the contract."
					},
					"addVerifier(address)": {
						"details": "Add verifier to the contract."
					},
					"isVerified(address)": {
						"details": "Checks if a address is verified"
					},
					"isVerifier(address)": {
						"details": "Checks if an address is a verifier"
					},
					"removeVerified(address)": {
						"details": "Removes verified address from the contract."
					},
					"removeVerifier(address)": {
						"details": "Remove verifier from the contract."
					}
				},
				"version": 1
			},
			"evm": {
				"assembly": "    /* \"contracts/Pot.sol\":108:1182  contract Pot is ComplexVerify(msg.sender) {... */\n  mstore(0x40, 0x80)\n    /* \"contracts/Pot.sol\":255:296  constructor() {... */\n  callvalue\n  dup1\n  iszero\n  tag_1\n  jumpi\n  0x00\n  dup1\n  revert\ntag_1:\n  pop\n    /* \"contracts/Pot.sol\":138:148  msg.sender */\n  caller\n    /* \"contracts/ComplexVerify.sol\":520:524  true */\n  0x01\n    /* \"contracts/ComplexVerify.sol\":499:505  admins */\n  0x03\n    /* \"contracts/ComplexVerify.sol\":499:517  admins[firstAdmin] */\n  0x00\n    /* \"contracts/ComplexVerify.sol\":506:516  firstAdmin */\n  dup4\n    /* \"contracts/ComplexVerify.sol\":499:517  admins[firstAdmin] */\n  0xffffffffffffffffffffffffffffffffffffffff\n  and\n  0xffffffffffffffffffffffffffffffffffffffff\n  and\n  dup2\n  mstore\n  0x20\n  add\n  swap1\n  dup2\n  mstore\n  0x20\n  add\n  0x00\n  keccak256\n  0x00\n    /* \"contracts/ComplexVerify.sol\":499:524  admins[firstAdmin] = true */\n  0x0100\n  exp\n  dup2\n  sload\n  dup2\n  0xff\n  mul\n  not\n  and\n  swap1\n  dup4\n  iszero\n  iszero\n  mul\n  or\n  swap1\n  sstore\n  pop\n    /* \"contracts/ComplexVerify.sol\":548:549  1 */\n  0x01\n    /* \"contracts/ComplexVerify.sol\":534:545  totalAdmins */\n  0x02\n    /* \"contracts/ComplexVerify.sol\":534:549  totalAdmins = 1 */\n  dup2\n  swap1\n  sstore\n  pop\n    /* \"contracts/ComplexVerify.sol\":457:556  constructor(address firstAdmin) {... */\n  pop\n    /* \"contracts/Pot.sol\":287:289  10 */\n  0x0a\n    /* \"contracts/Pot.sol\":279:284  price */\n  0x07\n    /* \"contracts/Pot.sol\":279:289  price = 10 */\n  dup2\n  swap1\n  sstore\n  pop\n    /* \"contracts/Pot.sol\":108:1182  contract Pot is ComplexVerify(msg.sender) {... */\n  dataSize(sub_0)\n  dup1\n  dataOffset(sub_0)\n  0x00\n  codecopy\n  0x00\n  return\nstop\n\nsub_0: assembly {\n        /* \"contracts/Pot.sol\":108:1182  contract Pot is ComplexVerify(msg.sender) {... */\n      mstore(0x40, 0x80)\n      jumpi(tag_1, lt(calldatasize, 0x04))\n      shr(0xe0, calldataload(0x00))\n      dup1\n      0x5dc84e32\n      gt\n      tag_15\n      jumpi\n      dup1\n      0x9000b3d6\n      gt\n      tag_16\n      jumpi\n      dup1\n      0x9000b3d6\n      eq\n      tag_11\n      jumpi\n      dup1\n      0xa035b1fe\n      eq\n      tag_12\n      jumpi\n      dup1\n      0xb9209e33\n      eq\n      tag_13\n      jumpi\n      dup1\n      0xca2dfd0a\n      eq\n      tag_14\n      jumpi\n      jump(tag_1)\n    tag_16:\n      dup1\n      0x5dc84e32\n      eq\n      tag_8\n      jumpi\n      dup1\n      0x69596d70\n      eq\n      tag_9\n      jumpi\n      dup1\n      0x7727d3aa\n      eq\n      tag_10\n      jumpi\n      jump(tag_1)\n    tag_15:\n      dup1\n      0x128e1af0\n      eq\n      tag_2\n      jumpi\n      dup1\n      0x27e235e3\n      eq\n      tag_3\n      jumpi\n      dup1\n      0x33105218\n      eq\n      tag_4\n      jumpi\n      dup1\n      0x3610724e\n      eq\n      tag_5\n      jumpi\n      dup1\n      0x3a98ef39\n      eq\n      tag_6\n      jumpi\n      dup1\n      0x4487b392\n      eq\n      tag_7\n      jumpi\n    tag_1:\n      0x00\n      dup1\n      revert\n        /* \"contracts/Pot.sol\":797:1180  function withdrawFromPot(uint shares) sharesNotZero(shares) public {... */\n    tag_2:\n      callvalue\n      dup1\n      iszero\n      tag_17\n      jumpi\n      0x00\n      dup1\n      revert\n    tag_17:\n      pop\n      tag_18\n      0x04\n      dup1\n      calldatasize\n      sub\n      dup2\n      add\n      swap1\n      tag_19\n      swap2\n      swap1\n      tag_20\n      jump\t// in\n    tag_19:\n      tag_21\n      jump\t// in\n    tag_18:\n      stop\n        /* \"contracts/Pot.sol\":156:196  mapping(address => uint) public balances */\n    tag_3:\n      callvalue\n      dup1\n      iszero\n      tag_22\n      jumpi\n      0x00\n      dup1\n      revert\n    tag_22:\n      pop\n      tag_23\n      0x04\n      dup1\n      calldatasize\n      sub\n      dup2\n      add\n      swap1\n      tag_24\n      swap2\n      swap1\n      tag_25\n      jump\t// in\n    tag_24:\n      tag_26\n      jump\t// in\n    tag_23:\n      mload(0x40)\n      tag_27\n      swap2\n      swap1\n      tag_28\n      jump\t// in\n    tag_27:\n      mload(0x40)\n      dup1\n      swap2\n      sub\n      swap1\n      return\n        /* \"contracts/Verify.sol\":2383:2548  function isVerifier(address addr) public view returns (bool) {... */\n    tag_4:\n      callvalue\n      dup1\n      iszero\n      tag_29\n      jumpi\n      0x00\n      dup1\n      revert\n    tag_29:\n      pop\n      tag_30\n      0x04\n      dup1\n      calldatasize\n      sub\n      dup2\n      add\n      swap1\n      tag_31\n      swap2\n      swap1\n      tag_25\n      jump\t// in\n    tag_31:\n      tag_32\n      jump\t// in\n    tag_30:\n      mload(0x40)\n      tag_33\n      swap2\n      swap1\n      tag_34\n      jump\t// in\n    tag_33:\n      mload(0x40)\n      dup1\n      swap2\n      sub\n      swap1\n      return\n        /* \"contracts/Pot.sol\":466:736  function buyTokens(uint shares) senderIsVerified sharesNotZero(shares) public payable {... */\n    tag_5:\n      tag_35\n      0x04\n      dup1\n      calldatasize\n      sub\n      dup2\n      add\n      swap1\n      tag_36\n      swap2\n      swap1\n      tag_20\n      jump\t// in\n    tag_36:\n      tag_37\n      jump\t// in\n    tag_35:\n      stop\n        /* \"contracts/Pot.sol\":225:248  uint public totalShares */\n    tag_6:\n      callvalue\n      dup1\n      iszero\n      tag_38\n      jumpi\n      0x00\n      dup1\n      revert\n    tag_38:\n      pop\n      tag_39\n      tag_40\n      jump\t// in\n    tag_39:\n      mload(0x40)\n      tag_41\n      swap2\n      swap1\n      tag_28\n      jump\t// in\n    tag_41:\n      mload(0x40)\n      dup1\n      swap2\n      sub\n      swap1\n      return\n        /* \"contracts/Verify.sol\":1955:2071  function removeVerified(address addr) senderIsVerifier public {      ... */\n    tag_7:\n      callvalue\n      dup1\n      iszero\n      tag_42\n      jumpi\n      0x00\n      dup1\n      revert\n    tag_42:\n      pop\n      tag_43\n      0x04\n      dup1\n      calldatasize\n      sub\n      dup2\n      add\n      swap1\n      tag_44\n      swap2\n      swap1\n      tag_25\n      jump\t// in\n    tag_44:\n      tag_45\n      jump\t// in\n    tag_43:\n      stop\n        /* \"contracts/Verify.sol\":1537:1877  function addVerified(address addr) senderIsVerifier public {... */\n    tag_8:\n      callvalue\n      dup1\n      iszero\n      tag_46\n      jumpi\n      0x00\n      dup1\n      revert\n    tag_46:\n      pop\n      tag_47\n      0x04\n      dup1\n      calldatasize\n      sub\n      dup2\n      add\n      swap1\n      tag_48\n      swap2\n      swap1\n      tag_25\n      jump\t// in\n    tag_48:\n      tag_49\n      jump\t// in\n    tag_47:\n      stop\n        /* \"contracts/ComplexVerify.sol\":725:1589  function voteToAdd(address addr) senderIsAdmin public {... */\n    tag_9:\n      callvalue\n      dup1\n      iszero\n      tag_50\n      jumpi\n      0x00\n      dup1\n      revert\n    tag_50:\n      pop\n      tag_51\n      0x04\n      dup1\n      calldatasize\n      sub\n      dup2\n      add\n      swap1\n      tag_52\n      swap2\n      swap1\n      tag_25\n      jump\t// in\n    tag_52:\n      tag_53\n      jump\t// in\n    tag_51:\n      stop\n        /* \"contracts/ComplexVerify.sol\":1595:2395  function voteToRemove(address addr) senderIsAdmin public {... */\n    tag_10:\n      callvalue\n      dup1\n      iszero\n      tag_54\n      jumpi\n      0x00\n      dup1\n      revert\n    tag_54:\n      pop\n      tag_55\n      0x04\n      dup1\n      calldatasize\n      sub\n      dup2\n      add\n      swap1\n      tag_56\n      swap2\n      swap1\n      tag_25\n      jump\t// in\n    tag_56:\n      tag_57\n      jump\t// in\n    tag_55:\n      stop\n        /* \"contracts/Verify.sol\":830:1160  function addVerifier(address addr) senderIsAdmin public {       ... */\n    tag_11:\n      callvalue\n      dup1\n      iszero\n      tag_58\n      jumpi\n      0x00\n      dup1\n      revert\n    tag_58:\n      pop\n      tag_59\n      0x04\n      dup1\n      calldatasize\n      sub\n      dup2\n      add\n      swap1\n      tag_60\n      swap2\n      swap1\n      tag_25\n      jump\t// in\n    tag_60:\n      tag_61\n      jump\t// in\n    tag_59:\n      stop\n        /* \"contracts/Pot.sol\":202:219  uint public price */\n    tag_12:\n      callvalue\n      dup1\n      iszero\n      tag_62\n      jumpi\n      0x00\n      dup1\n      revert\n    tag_62:\n      pop\n      tag_63\n      tag_64\n      jump\t// in\n    tag_63:\n      mload(0x40)\n      tag_65\n      swap2\n      swap1\n      tag_28\n      jump\t// in\n    tag_65:\n      mload(0x40)\n      dup1\n      swap2\n      sub\n      swap1\n      return\n        /* \"contracts/Verify.sol\":2141:2314  function isVerified(address addr) public view returns (bool) {... */\n    tag_13:\n      callvalue\n      dup1\n      iszero\n      tag_66\n      jumpi\n      0x00\n      dup1\n      revert\n    tag_66:\n      pop\n      tag_67\n      0x04\n      dup1\n      calldatasize\n      sub\n      dup2\n      add\n      swap1\n      tag_68\n      swap2\n      swap1\n      tag_25\n      jump\t// in\n    tag_68:\n      tag_69\n      jump\t// in\n    tag_67:\n      mload(0x40)\n      tag_70\n      swap2\n      swap1\n      tag_34\n      jump\t// in\n    tag_70:\n      mload(0x40)\n      dup1\n      swap2\n      sub\n      swap1\n      return\n        /* \"contracts/Verify.sol\":1229:1464  function removeVerifier(address addr) senderIsAdmin public {... */\n    tag_14:\n      callvalue\n      dup1\n      iszero\n      tag_71\n      jumpi\n      0x00\n      dup1\n      revert\n    tag_71:\n      pop\n      tag_72\n      0x04\n      dup1\n      calldatasize\n      sub\n      dup2\n      add\n      swap1\n      tag_73\n      swap2\n      swap1\n      tag_25\n      jump\t// in\n    tag_73:\n      tag_74\n      jump\t// in\n    tag_72:\n      stop\n        /* \"contracts/Pot.sol\":797:1180  function withdrawFromPot(uint shares) sharesNotZero(shares) public {... */\n    tag_21:\n        /* \"contracts/Pot.sol\":849:855  shares */\n      dup1\n        /* \"contracts/Pot.sol\":379:380  0 */\n      0x00\n        /* \"contracts/Pot.sol\":369:375  shares */\n      dup2\n        /* \"contracts/Pot.sol\":369:380  shares != 0 */\n      eq\n      iszero\n        /* \"contracts/Pot.sol\":348:442  require(... */\n      tag_76\n      jumpi\n      mload(0x40)\n      0x08c379a000000000000000000000000000000000000000000000000000000000\n      dup2\n      mstore\n      0x04\n      add\n      tag_77\n      swap1\n      tag_78\n      jump\t// in\n    tag_77:\n      mload(0x40)\n      dup1\n      swap2\n      sub\n      swap1\n      revert\n    tag_76:\n        /* \"contracts/Pot.sol\":916:926  uint total */\n      0x00\n        /* \"contracts/Pot.sol\":929:950  address(this).balance */\n      selfbalance\n        /* \"contracts/Pot.sol\":916:950  uint total = address(this).balance */\n      swap1\n      pop\n        /* \"contracts/Pot.sol\":1020:1035  uint redeemable */\n      0x00\n        /* \"contracts/Pot.sol\":1057:1065  balances */\n      0x06\n        /* \"contracts/Pot.sol\":1057:1077  balances[msg.sender] */\n      0x00\n        /* \"contracts/Pot.sol\":1066:1076  msg.sender */\n      caller\n        /* \"contracts/Pot.sol\":1057:1077  balances[msg.sender] */\n      0xffffffffffffffffffffffffffffffffffffffff\n      and\n      0xffffffffffffffffffffffffffffffffffffffff\n      and\n      dup2\n      mstore\n      0x20\n      add\n      swap1\n      dup2\n      mstore\n      0x20\n      add\n      0x00\n      keccak256\n      sload\n        /* \"contracts/Pot.sol\":1047:1053  shares */\n      dup5\n        /* \"contracts/Pot.sol\":1039:1044  total */\n      dup4\n        /* \"contracts/Pot.sol\":1039:1053  total / shares */\n      tag_80\n      swap2\n      swap1\n      tag_81\n      jump\t// in\n    tag_80:\n        /* \"contracts/Pot.sol\":1038:1077  (total / shares) * balances[msg.sender] */\n      tag_82\n      swap2\n      swap1\n      tag_83\n      jump\t// in\n    tag_82:\n        /* \"contracts/Pot.sol\":1020:1077  uint redeemable = (total / shares) * balances[msg.sender] */\n      swap1\n      pop\n        /* \"contracts/Pot.sol\":1141:1151  msg.sender */\n      caller\n        /* \"contracts/Pot.sol\":1133:1161  payable(msg.sender).transfer */\n      0xffffffffffffffffffffffffffffffffffffffff\n      and\n        /* \"contracts/Pot.sol\":1133:1173  payable(msg.sender).transfer(redeemable) */\n      0x08fc\n        /* \"contracts/Pot.sol\":1162:1172  redeemable */\n      dup3\n        /* \"contracts/Pot.sol\":1133:1173  payable(msg.sender).transfer(redeemable) */\n      swap1\n      dup2\n      iszero\n      mul\n      swap1\n      mload(0x40)\n      0x00\n      mload(0x40)\n      dup1\n      dup4\n      sub\n      dup2\n      dup6\n      dup9\n      dup9\n      call\n      swap4\n      pop\n      pop\n      pop\n      pop\n      iszero\n      dup1\n      iszero\n      tag_85\n      jumpi\n      returndatasize\n      0x00\n      dup1\n      returndatacopy\n      revert(0x00, returndatasize)\n    tag_85:\n      pop\n        /* \"contracts/Pot.sol\":864:1180  {... */\n      pop\n      pop\n        /* \"contracts/Pot.sol\":797:1180  function withdrawFromPot(uint shares) sharesNotZero(shares) public {... */\n      pop\n      pop\n      jump\t// out\n        /* \"contracts/Pot.sol\":156:196  mapping(address => uint) public balances */\n    tag_26:\n      mstore(0x20, 0x06)\n      dup1\n      0x00\n      mstore\n      keccak256(0x00, 0x40)\n      0x00\n      swap2\n      pop\n      swap1\n      pop\n      sload\n      dup2\n      jump\t// out\n        /* \"contracts/Verify.sol\":2383:2548  function isVerifier(address addr) public view returns (bool) {... */\n    tag_32:\n        /* \"contracts/Verify.sol\":2438:2442  bool */\n      0x00\n        /* \"contracts/Verify.sol\":2477:2481  true */\n      0x01\n        /* \"contracts/Verify.sol\":2458:2481  verifiers[addr] == true */\n      iszero\n      iszero\n        /* \"contracts/Verify.sol\":2458:2467  verifiers */\n      0x01\n        /* \"contracts/Verify.sol\":2458:2473  verifiers[addr] */\n      0x00\n        /* \"contracts/Verify.sol\":2468:2472  addr */\n      dup5\n        /* \"contracts/Verify.sol\":2458:2473  verifiers[addr] */\n      0xffffffffffffffffffffffffffffffffffffffff\n      and\n      0xffffffffffffffffffffffffffffffffffffffff\n      and\n      dup2\n      mstore\n      0x20\n      add\n      swap1\n      dup2\n      mstore\n      0x20\n      add\n      0x00\n      keccak256\n      0x00\n      swap1\n      sload\n      swap1\n      0x0100\n      exp\n      swap1\n      div\n      0xff\n      and\n        /* \"contracts/Verify.sol\":2458:2481  verifiers[addr] == true */\n      iszero\n      iszero\n      eq\n        /* \"contracts/Verify.sol\":2454:2519  if (verifiers[addr] == true) {... */\n      iszero\n      tag_87\n      jumpi\n        /* \"contracts/Verify.sol\":2504:2508  true */\n      0x01\n        /* \"contracts/Verify.sol\":2497:2508  return true */\n      swap1\n      pop\n      jump(tag_86)\n        /* \"contracts/Verify.sol\":2454:2519  if (verifiers[addr] == true) {... */\n    tag_87:\n        /* \"contracts/Verify.sol\":2536:2541  false */\n      0x00\n        /* \"contracts/Verify.sol\":2529:2541  return false */\n      swap1\n      pop\n        /* \"contracts/Verify.sol\":2383:2548  function isVerifier(address addr) public view returns (bool) {... */\n    tag_86:\n      swap2\n      swap1\n      pop\n      jump\t// out\n        /* \"contracts/Pot.sol\":466:736  function buyTokens(uint shares) senderIsVerified sharesNotZero(shares) public payable {... */\n    tag_37:\n        /* \"contracts/Verify.sol\":698:702  true */\n      0x01\n        /* \"contracts/Verify.sol\":665:702  verifiedAddresses[msg.sender] == true */\n      iszero\n      iszero\n        /* \"contracts/Verify.sol\":665:682  verifiedAddresses */\n      0x00\n        /* \"contracts/Verify.sol\":665:694  verifiedAddresses[msg.sender] */\n      dup1\n        /* \"contracts/Verify.sol\":683:693  msg.sender */\n      caller\n        /* \"contracts/Verify.sol\":665:694  verifiedAddresses[msg.sender] */\n      0xffffffffffffffffffffffffffffffffffffffff\n      and\n      0xffffffffffffffffffffffffffffffffffffffff\n      and\n      dup2\n      mstore\n      0x20\n      add\n      swap1\n      dup2\n      mstore\n      0x20\n      add\n      0x00\n      keccak256\n      0x00\n      swap1\n      sload\n      swap1\n      0x0100\n      exp\n      swap1\n      div\n      0xff\n      and\n        /* \"contracts/Verify.sol\":665:702  verifiedAddresses[msg.sender] == true */\n      iszero\n      iszero\n      eq\n        /* \"contracts/Verify.sol\":644:748  require(... */\n      tag_89\n      jumpi\n      mload(0x40)\n      0x08c379a000000000000000000000000000000000000000000000000000000000\n      dup2\n      mstore\n      0x04\n      add\n      tag_90\n      swap1\n      tag_91\n      jump\t// in\n    tag_90:\n      mload(0x40)\n      dup1\n      swap2\n      sub\n      swap1\n      revert\n    tag_89:\n        /* \"contracts/Pot.sol\":529:535  shares */\n      dup1\n        /* \"contracts/Pot.sol\":379:380  0 */\n      0x00\n        /* \"contracts/Pot.sol\":369:375  shares */\n      dup2\n        /* \"contracts/Pot.sol\":369:380  shares != 0 */\n      eq\n      iszero\n        /* \"contracts/Pot.sol\":348:442  require(... */\n      tag_93\n      jumpi\n      mload(0x40)\n      0x08c379a000000000000000000000000000000000000000000000000000000000\n      dup2\n      mstore\n      0x04\n      add\n      tag_94\n      swap1\n      tag_78\n      jump\t// in\n    tag_94:\n      mload(0x40)\n      dup1\n      swap2\n      sub\n      swap1\n      revert\n    tag_93:\n        /* \"contracts/Pot.sol\":604:609  price */\n      sload(0x07)\n        /* \"contracts/Pot.sol\":597:603  shares */\n      dup3\n        /* \"contracts/Pot.sol\":597:609  shares*price */\n      tag_96\n      swap2\n      swap1\n      tag_83\n      jump\t// in\n    tag_96:\n        /* \"contracts/Pot.sol\":583:592  msg.value */\n      callvalue\n        /* \"contracts/Pot.sol\":583:610  msg.value == (shares*price) */\n      eq\n        /* \"contracts/Pot.sol\":562:685  require(... */\n      tag_97\n      jumpi\n      mload(0x40)\n      0x08c379a000000000000000000000000000000000000000000000000000000000\n      dup2\n      mstore\n      0x04\n      add\n      tag_98\n      swap1\n      tag_99\n      jump\t// in\n    tag_98:\n      mload(0x40)\n      dup1\n      swap2\n      sub\n      swap1\n      revert\n    tag_97:\n        /* \"contracts/Pot.sol\":719:725  shares */\n      dup2\n        /* \"contracts/Pot.sol\":695:703  balances */\n      0x06\n        /* \"contracts/Pot.sol\":695:715  balances[msg.sender] */\n      0x00\n        /* \"contracts/Pot.sol\":704:714  msg.sender */\n      caller\n        /* \"contracts/Pot.sol\":695:715  balances[msg.sender] */\n      0xffffffffffffffffffffffffffffffffffffffff\n      and\n      0xffffffffffffffffffffffffffffffffffffffff\n      and\n      dup2\n      mstore\n      0x20\n      add\n      swap1\n      dup2\n      mstore\n      0x20\n      add\n      0x00\n      keccak256\n      0x00\n        /* \"contracts/Pot.sol\":695:725  balances[msg.sender] += shares */\n      dup3\n      dup3\n      sload\n      tag_100\n      swap2\n      swap1\n      tag_101\n      jump\t// in\n    tag_100:\n      swap3\n      pop\n      pop\n      dup2\n      swap1\n      sstore\n      pop\n        /* \"contracts/Verify.sol\":758:759  _ */\n      pop\n        /* \"contracts/Pot.sol\":466:736  function buyTokens(uint shares) senderIsVerified sharesNotZero(shares) public payable {... */\n      pop\n      jump\t// out\n        /* \"contracts/Pot.sol\":225:248  uint public totalShares */\n    tag_40:\n      sload(0x08)\n      dup2\n      jump\t// out\n        /* \"contracts/Verify.sol\":1955:2071  function removeVerified(address addr) senderIsVerifier public {      ... */\n    tag_45:\n        /* \"contracts/Verify.sol\":532:536  true */\n      0x01\n        /* \"contracts/Verify.sol\":507:536  verifiers[msg.sender] == true */\n      iszero\n      iszero\n        /* \"contracts/Verify.sol\":507:516  verifiers */\n      0x01\n        /* \"contracts/Verify.sol\":507:528  verifiers[msg.sender] */\n      0x00\n        /* \"contracts/Verify.sol\":517:527  msg.sender */\n      caller\n        /* \"contracts/Verify.sol\":507:528  verifiers[msg.sender] */\n      0xffffffffffffffffffffffffffffffffffffffff\n      and\n      0xffffffffffffffffffffffffffffffffffffffff\n      and\n      dup2\n      mstore\n      0x20\n      add\n      swap1\n      dup2\n      mstore\n      0x20\n      add\n      0x00\n      keccak256\n      0x00\n      swap1\n      sload\n      swap1\n      0x0100\n      exp\n      swap1\n      div\n      0xff\n      and\n        /* \"contracts/Verify.sol\":507:536  verifiers[msg.sender] == true */\n      iszero\n      iszero\n      eq\n        /* \"contracts/Verify.sol\":486:584  require(... */\n      tag_103\n      jumpi\n      mload(0x40)\n      0x08c379a000000000000000000000000000000000000000000000000000000000\n      dup2\n      mstore\n      0x04\n      add\n      tag_104\n      swap1\n      tag_105\n      jump\t// in\n    tag_104:\n      mload(0x40)\n      dup1\n      swap2\n      sub\n      swap1\n      revert\n    tag_103:\n        /* \"contracts/Verify.sol\":2059:2064  false */\n      0x00\n        /* \"contracts/Verify.sol\":2033:2050  verifiedAddresses */\n      dup1\n        /* \"contracts/Verify.sol\":2033:2056  verifiedAddresses[addr] */\n      0x00\n        /* \"contracts/Verify.sol\":2051:2055  addr */\n      dup4\n        /* \"contracts/Verify.sol\":2033:2056  verifiedAddresses[addr] */\n      0xffffffffffffffffffffffffffffffffffffffff\n      and\n      0xffffffffffffffffffffffffffffffffffffffff\n      and\n      dup2\n      mstore\n      0x20\n      add\n      swap1\n      dup2\n      mstore\n      0x20\n      add\n      0x00\n      keccak256\n      0x00\n        /* \"contracts/Verify.sol\":2033:2064  verifiedAddresses[addr] = false */\n      0x0100\n      exp\n      dup2\n      sload\n      dup2\n      0xff\n      mul\n      not\n      and\n      swap1\n      dup4\n      iszero\n      iszero\n      mul\n      or\n      swap1\n      sstore\n      pop\n        /* \"contracts/Verify.sol\":1955:2071  function removeVerified(address addr) senderIsVerifier public {      ... */\n      pop\n      jump\t// out\n        /* \"contracts/Verify.sol\":1537:1877  function addVerified(address addr) senderIsVerifier public {... */\n    tag_49:\n        /* \"contracts/Verify.sol\":532:536  true */\n      0x01\n        /* \"contracts/Verify.sol\":507:536  verifiers[msg.sender] == true */\n      iszero\n      iszero\n        /* \"contracts/Verify.sol\":507:516  verifiers */\n      0x01\n        /* \"contracts/Verify.sol\":507:528  verifiers[msg.sender] */\n      0x00\n        /* \"contracts/Verify.sol\":517:527  msg.sender */\n      caller\n        /* \"contracts/Verify.sol\":507:528  verifiers[msg.sender] */\n      0xffffffffffffffffffffffffffffffffffffffff\n      and\n      0xffffffffffffffffffffffffffffffffffffffff\n      and\n      dup2\n      mstore\n      0x20\n      add\n      swap1\n      dup2\n      mstore\n      0x20\n      add\n      0x00\n      keccak256\n      0x00\n      swap1\n      sload\n      swap1\n      0x0100\n      exp\n      swap1\n      div\n      0xff\n      and\n        /* \"contracts/Verify.sol\":507:536  verifiers[msg.sender] == true */\n      iszero\n      iszero\n      eq\n        /* \"contracts/Verify.sol\":486:584  require(... */\n      tag_108\n      jumpi\n      mload(0x40)\n      0x08c379a000000000000000000000000000000000000000000000000000000000\n      dup2\n      mstore\n      0x04\n      add\n      tag_109\n      swap1\n      tag_105\n      jump\t// in\n    tag_109:\n      mload(0x40)\n      dup1\n      swap2\n      sub\n      swap1\n      revert\n    tag_108:\n        /* \"contracts/Verify.sol\":1643:1644  0 */\n      0x00\n        /* \"contracts/Verify.sol\":1627:1645  addr != address(0) */\n      0xffffffffffffffffffffffffffffffffffffffff\n      and\n        /* \"contracts/Verify.sol\":1627:1631  addr */\n      dup2\n        /* \"contracts/Verify.sol\":1627:1645  addr != address(0) */\n      0xffffffffffffffffffffffffffffffffffffffff\n      and\n      eq\n      iszero\n        /* \"contracts/Verify.sol\":1606:1701  require(... */\n      tag_111\n      jumpi\n      mload(0x40)\n      0x08c379a000000000000000000000000000000000000000000000000000000000\n      dup2\n      mstore\n      0x04\n      add\n      tag_112\n      swap1\n      tag_113\n      jump\t// in\n    tag_112:\n      mload(0x40)\n      dup1\n      swap2\n      sub\n      swap1\n      revert\n    tag_111:\n        /* \"contracts/Verify.sol\":1760:1764  true */\n      0x01\n        /* \"contracts/Verify.sol\":1733:1764  verifiedAddresses[addr] != true */\n      iszero\n      iszero\n        /* \"contracts/Verify.sol\":1733:1750  verifiedAddresses */\n      0x00\n        /* \"contracts/Verify.sol\":1733:1756  verifiedAddresses[addr] */\n      dup1\n        /* \"contracts/Verify.sol\":1751:1755  addr */\n      dup4\n        /* \"contracts/Verify.sol\":1733:1756  verifiedAddresses[addr] */\n      0xffffffffffffffffffffffffffffffffffffffff\n      and\n      0xffffffffffffffffffffffffffffffffffffffff\n      and\n      dup2\n      mstore\n      0x20\n      add\n      swap1\n      dup2\n      mstore\n      0x20\n      add\n      0x00\n      keccak256\n      0x00\n      swap1\n      sload\n      swap1\n      0x0100\n      exp\n      swap1\n      div\n      0xff\n      and\n        /* \"contracts/Verify.sol\":1733:1764  verifiedAddresses[addr] != true */\n      iszero\n      iszero\n      eq\n      iszero\n        /* \"contracts/Verify.sol\":1712:1817  require(... */\n      tag_114\n      jumpi\n      mload(0x40)\n      0x08c379a000000000000000000000000000000000000000000000000000000000\n      dup2\n      mstore\n      0x04\n      add\n      tag_115\n      swap1\n      tag_116\n      jump\t// in\n    tag_115:\n      mload(0x40)\n      dup1\n      swap2\n      sub\n      swap1\n      revert\n    tag_114:\n        /* \"contracts/Verify.sol\":1866:1870  true */\n      0x01\n        /* \"contracts/Verify.sol\":1840:1857  verifiedAddresses */\n      0x00\n        /* \"contracts/Verify.sol\":1840:1863  verifiedAddresses[addr] */\n      dup1\n        /* \"contracts/Verify.sol\":1858:1862  addr */\n      dup4\n        /* \"contracts/Verify.sol\":1840:1863  verifiedAddresses[addr] */\n      0xffffffffffffffffffffffffffffffffffffffff\n      and\n      0xffffffffffffffffffffffffffffffffffffffff\n      and\n      dup2\n      mstore\n      0x20\n      add\n      swap1\n      dup2\n      mstore\n      0x20\n      add\n      0x00\n      keccak256\n      0x00\n        /* \"contracts/Verify.sol\":1840:1870  verifiedAddresses[addr] = true */\n      0x0100\n      exp\n      dup2\n      sload\n      dup2\n      0xff\n      mul\n      not\n      and\n      swap1\n      dup4\n      iszero\n      iszero\n      mul\n      or\n      swap1\n      sstore\n      pop\n        /* \"contracts/Verify.sol\":1537:1877  function addVerified(address addr) senderIsVerifier public {... */\n      pop\n      jump\t// out\n        /* \"contracts/ComplexVerify.sol\":725:1589  function voteToAdd(address addr) senderIsAdmin public {... */\n    tag_53:\n        /* \"contracts/ComplexVerify.sol\":651:655  true */\n      0x01\n        /* \"contracts/ComplexVerify.sol\":629:655  admins[msg.sender] == true */\n      iszero\n      iszero\n        /* \"contracts/ComplexVerify.sol\":629:635  admins */\n      0x03\n        /* \"contracts/ComplexVerify.sol\":629:647  admins[msg.sender] */\n      0x00\n        /* \"contracts/ComplexVerify.sol\":636:646  msg.sender */\n      caller\n        /* \"contracts/ComplexVerify.sol\":629:647  admins[msg.sender] */\n      0xffffffffffffffffffffffffffffffffffffffff\n      and\n      0xffffffffffffffffffffffffffffffffffffffff\n      and\n      dup2\n      mstore\n      0x20\n      add\n      swap1\n      dup2\n      mstore\n      0x20\n      add\n      0x00\n      keccak256\n      0x00\n      swap1\n      sload\n      swap1\n      0x0100\n      exp\n      swap1\n      div\n      0xff\n      and\n        /* \"contracts/ComplexVerify.sol\":629:655  admins[msg.sender] == true */\n      iszero\n      iszero\n      eq\n        /* \"contracts/ComplexVerify.sol\":608:701  require(... */\n      tag_118\n      jumpi\n      mload(0x40)\n      0x08c379a000000000000000000000000000000000000000000000000000000000\n      dup2\n      mstore\n      0x04\n      add\n      tag_119\n      swap1\n      tag_120\n      jump\t// in\n    tag_119:\n      mload(0x40)\n      dup1\n      swap2\n      sub\n      swap1\n      revert\n    tag_118:\n        /* \"contracts/ComplexVerify.sol\":826:830  true */\n      0x01\n        /* \"contracts/ComplexVerify.sol\":810:830  admins[addr] != true */\n      iszero\n      iszero\n        /* \"contracts/ComplexVerify.sol\":810:816  admins */\n      0x03\n        /* \"contracts/ComplexVerify.sol\":810:822  admins[addr] */\n      0x00\n        /* \"contracts/ComplexVerify.sol\":817:821  addr */\n      dup4\n        /* \"contracts/ComplexVerify.sol\":810:822  admins[addr] */\n      0xffffffffffffffffffffffffffffffffffffffff\n      and\n      0xffffffffffffffffffffffffffffffffffffffff\n      and\n      dup2\n      mstore\n      0x20\n      add\n      swap1\n      dup2\n      mstore\n      0x20\n      add\n      0x00\n      keccak256\n      0x00\n      swap1\n      sload\n      swap1\n      0x0100\n      exp\n      swap1\n      div\n      0xff\n      and\n        /* \"contracts/ComplexVerify.sol\":810:830  admins[addr] != true */\n      iszero\n      iszero\n      eq\n      iszero\n        /* \"contracts/ComplexVerify.sol\":789:903  require(... */\n      tag_122\n      jumpi\n      mload(0x40)\n      0x08c379a000000000000000000000000000000000000000000000000000000000\n      dup2\n      mstore\n      0x04\n      add\n      tag_123\n      swap1\n      tag_124\n      jump\t// in\n    tag_123:\n      mload(0x40)\n      dup1\n      swap2\n      sub\n      swap1\n      revert\n    tag_122:\n        /* \"contracts/ComplexVerify.sol\":947:952  false */\n      0x00\n        /* \"contracts/ComplexVerify.sol\":926:952  hasElection[addr] == false */\n      iszero\n      iszero\n        /* \"contracts/ComplexVerify.sol\":926:937  hasElection */\n      0x04\n        /* \"contracts/ComplexVerify.sol\":926:943  hasElection[addr] */\n      0x00\n        /* \"contracts/ComplexVerify.sol\":938:942  addr */\n      dup4\n        /* \"contracts/ComplexVerify.sol\":926:943  hasElection[addr] */\n      0xffffffffffffffffffffffffffffffffffffffff\n      and\n      0xffffffffffffffffffffffffffffffffffffffff\n      and\n      dup2\n      mstore\n      0x20\n      add\n      swap1\n      dup2\n      mstore\n      0x20\n      add\n      0x00\n      keccak256\n      0x00\n      swap1\n      sload\n      swap1\n      0x0100\n      exp\n      swap1\n      div\n      0xff\n      and\n        /* \"contracts/ComplexVerify.sol\":926:952  hasElection[addr] == false */\n      iszero\n      iszero\n      eq\n        /* \"contracts/ComplexVerify.sol\":922:1177  if (hasElection[addr] == false) {... */\n      iszero\n      tag_125\n      jumpi\n        /* \"contracts/ComplexVerify.sol\":986:1000  new Election() */\n      mload(0x40)\n      tag_126\n      swap1\n      tag_127\n      jump\t// in\n    tag_126:\n      mload(0x40)\n      dup1\n      swap2\n      sub\n      swap1\n      0x00\n      create\n      dup1\n      iszero\n      dup1\n      iszero\n      tag_128\n      jumpi\n      returndatasize\n      0x00\n      dup1\n      returndatacopy\n      revert(0x00, returndatasize)\n    tag_128:\n      pop\n        /* \"contracts/ComplexVerify.sol\":968:977  elections */\n      0x05\n        /* \"contracts/ComplexVerify.sol\":968:983  elections[addr] */\n      0x00\n        /* \"contracts/ComplexVerify.sol\":978:982  addr */\n      dup4\n        /* \"contracts/ComplexVerify.sol\":968:983  elections[addr] */\n      0xffffffffffffffffffffffffffffffffffffffff\n      and\n      0xffffffffffffffffffffffffffffffffffffffff\n      and\n      dup2\n      mstore\n      0x20\n      add\n      swap1\n      dup2\n      mstore\n      0x20\n      add\n      0x00\n      keccak256\n      0x00\n        /* \"contracts/ComplexVerify.sol\":968:1000  elections[addr] = new Election() */\n      0x0100\n      exp\n      dup2\n      sload\n      dup2\n      0xffffffffffffffffffffffffffffffffffffffff\n      mul\n      not\n      and\n      swap1\n      dup4\n      0xffffffffffffffffffffffffffffffffffffffff\n      and\n      mul\n      or\n      swap1\n      sstore\n      pop\n        /* \"contracts/ComplexVerify.sol\":1034:1038  true */\n      0x01\n        /* \"contracts/ComplexVerify.sol\":1014:1025  hasElection */\n      0x04\n        /* \"contracts/ComplexVerify.sol\":1014:1031  hasElection[addr] */\n      0x00\n        /* \"contracts/ComplexVerify.sol\":1026:1030  addr */\n      dup4\n        /* \"contracts/ComplexVerify.sol\":1014:1031  hasElection[addr] */\n      0xffffffffffffffffffffffffffffffffffffffff\n      and\n      0xffffffffffffffffffffffffffffffffffffffff\n      and\n      dup2\n      mstore\n      0x20\n      add\n      swap1\n      dup2\n      mstore\n      0x20\n      add\n      0x00\n      keccak256\n      0x00\n        /* \"contracts/ComplexVerify.sol\":1014:1038  hasElection[addr] = true */\n      0x0100\n      exp\n      dup2\n      sload\n      dup2\n      0xff\n      mul\n      not\n      and\n      swap1\n      dup4\n      iszero\n      iszero\n      mul\n      or\n      swap1\n      sstore\n      pop\n        /* \"contracts/ComplexVerify.sol\":1052:1061  elections */\n      0x05\n        /* \"contracts/ComplexVerify.sol\":1052:1067  elections[addr] */\n      0x00\n        /* \"contracts/ComplexVerify.sol\":1062:1066  addr */\n      dup3\n        /* \"contracts/ComplexVerify.sol\":1052:1067  elections[addr] */\n      0xffffffffffffffffffffffffffffffffffffffff\n      and\n      0xffffffffffffffffffffffffffffffffffffffff\n      and\n      dup2\n      mstore\n      0x20\n      add\n      swap1\n      dup2\n      mstore\n      0x20\n      add\n      0x00\n      keccak256\n      0x00\n      swap1\n      sload\n      swap1\n      0x0100\n      exp\n      swap1\n      div\n      0xffffffffffffffffffffffffffffffffffffffff\n      and\n        /* \"contracts/ComplexVerify.sol\":1052:1077  elections[addr].voteToAdd */\n      0xffffffffffffffffffffffffffffffffffffffff\n      and\n      0x69596d70\n        /* \"contracts/ComplexVerify.sol\":1078:1088  msg.sender */\n      caller\n        /* \"contracts/ComplexVerify.sol\":1052:1089  elections[addr].voteToAdd(msg.sender) */\n      mload(0x40)\n      dup3\n      0xffffffff\n      and\n      0xe0\n      shl\n      dup2\n      mstore\n      0x04\n      add\n      tag_129\n      swap2\n      swap1\n      tag_130\n      jump\t// in\n    tag_129:\n      0x00\n      mload(0x40)\n      dup1\n      dup4\n      sub\n      dup2\n      0x00\n      dup8\n      dup1\n      extcodesize\n      iszero\n      dup1\n      iszero\n      tag_131\n      jumpi\n      0x00\n      dup1\n      revert\n    tag_131:\n      pop\n      gas\n      call\n      iszero\n      dup1\n      iszero\n      tag_133\n      jumpi\n      returndatasize\n      0x00\n      dup1\n      returndatacopy\n      revert(0x00, returndatasize)\n    tag_133:\n      pop\n      pop\n      pop\n      pop\n        /* \"contracts/ComplexVerify.sol\":922:1177  if (hasElection[addr] == false) {... */\n      jump(tag_134)\n    tag_125:\n        /* \"contracts/ComplexVerify.sol\":1129:1138  elections */\n      0x05\n        /* \"contracts/ComplexVerify.sol\":1129:1144  elections[addr] */\n      0x00\n        /* \"contracts/ComplexVerify.sol\":1139:1143  addr */\n      dup3\n        /* \"contracts/ComplexVerify.sol\":1129:1144  elections[addr] */\n      0xffffffffffffffffffffffffffffffffffffffff\n      and\n      0xffffffffffffffffffffffffffffffffffffffff\n      and\n      dup2\n      mstore\n      0x20\n      add\n      swap1\n      dup2\n      mstore\n      0x20\n      add\n      0x00\n      keccak256\n      0x00\n      swap1\n      sload\n      swap1\n      0x0100\n      exp\n      swap1\n      div\n      0xffffffffffffffffffffffffffffffffffffffff\n      and\n        /* \"contracts/ComplexVerify.sol\":1129:1154  elections[addr].voteToAdd */\n      0xffffffffffffffffffffffffffffffffffffffff\n      and\n      0x69596d70\n        /* \"contracts/ComplexVerify.sol\":1155:1165  msg.sender */\n      caller\n        /* \"contracts/ComplexVerify.sol\":1129:1166  elections[addr].voteToAdd(msg.sender) */\n      mload(0x40)\n      dup3\n      0xffffffff\n      and\n      0xe0\n      shl\n      dup2\n      mstore\n      0x04\n      add\n      tag_135\n      swap2\n      swap1\n      tag_130\n      jump\t// in\n    tag_135:\n      0x00\n      mload(0x40)\n      dup1\n      dup4\n      sub\n      dup2\n      0x00\n      dup8\n      dup1\n      extcodesize\n      iszero\n      dup1\n      iszero\n      tag_136\n      jumpi\n      0x00\n      dup1\n      revert\n    tag_136:\n      pop\n      gas\n      call\n      iszero\n      dup1\n      iszero\n      tag_138\n      jumpi\n      returndatasize\n      0x00\n      dup1\n      returndatacopy\n      revert(0x00, returndatasize)\n    tag_138:\n      pop\n      pop\n      pop\n      pop\n        /* \"contracts/ComplexVerify.sol\":922:1177  if (hasElection[addr] == false) {... */\n    tag_134:\n        /* \"contracts/ComplexVerify.sol\":1295:1296  2 */\n      0x02\n        /* \"contracts/ComplexVerify.sol\":1281:1292  totalAdmins */\n      dup1\n      sload\n        /* \"contracts/ComplexVerify.sol\":1281:1296  totalAdmins / 2 */\n      tag_139\n      swap2\n      swap1\n      tag_81\n      jump\t// in\n    tag_139:\n        /* \"contracts/ComplexVerify.sol\":1249:1258  elections */\n      0x05\n        /* \"contracts/ComplexVerify.sol\":1249:1264  elections[addr] */\n      0x00\n        /* \"contracts/ComplexVerify.sol\":1259:1263  addr */\n      dup4\n        /* \"contracts/ComplexVerify.sol\":1249:1264  elections[addr] */\n      0xffffffffffffffffffffffffffffffffffffffff\n      and\n      0xffffffffffffffffffffffffffffffffffffffff\n      and\n      dup2\n      mstore\n      0x20\n      add\n      swap1\n      dup2\n      mstore\n      0x20\n      add\n      0x00\n      keccak256\n      0x00\n      swap1\n      sload\n      swap1\n      0x0100\n      exp\n      swap1\n      div\n      0xffffffffffffffffffffffffffffffffffffffff\n      and\n        /* \"contracts/ComplexVerify.sol\":1249:1275  elections[addr].votesToAdd */\n      0xffffffffffffffffffffffffffffffffffffffff\n      and\n      0x929155bf\n        /* \"contracts/ComplexVerify.sol\":1249:1277  elections[addr].votesToAdd() */\n      mload(0x40)\n      dup2\n      0xffffffff\n      and\n      0xe0\n      shl\n      dup2\n      mstore\n      0x04\n      add\n      0x20\n      mload(0x40)\n      dup1\n      dup4\n      sub\n      dup2\n      dup7\n      dup1\n      extcodesize\n      iszero\n      dup1\n      iszero\n      tag_140\n      jumpi\n      0x00\n      dup1\n      revert\n    tag_140:\n      pop\n      gas\n      staticcall\n      iszero\n      dup1\n      iszero\n      tag_142\n      jumpi\n      returndatasize\n      0x00\n      dup1\n      returndatacopy\n      revert(0x00, returndatasize)\n    tag_142:\n      pop\n      pop\n      pop\n      pop\n      mload(0x40)\n      returndatasize\n      not(0x1f)\n      0x1f\n      dup3\n      add\n      and\n      dup3\n      add\n      dup1\n      0x40\n      mstore\n      pop\n      dup2\n      add\n      swap1\n      tag_143\n      swap2\n      swap1\n      tag_144\n      jump\t// in\n    tag_143:\n        /* \"contracts/ComplexVerify.sol\":1249:1297  elections[addr].votesToAdd() > (totalAdmins / 2) */\n      gt\n        /* \"contracts/ComplexVerify.sol\":1245:1583  if (elections[addr].votesToAdd() > (totalAdmins / 2)) {... */\n      iszero\n      tag_145\n      jumpi\n        /* \"contracts/ComplexVerify.sol\":1416:1420  true */\n      0x01\n        /* \"contracts/ComplexVerify.sol\":1401:1407  admins */\n      0x03\n        /* \"contracts/ComplexVerify.sol\":1401:1413  admins[addr] */\n      0x00\n        /* \"contracts/ComplexVerify.sol\":1408:1412  addr */\n      dup4\n        /* \"contracts/ComplexVerify.sol\":1401:1413  admins[addr] */\n      0xffffffffffffffffffffffffffffffffffffffff\n      and\n      0xffffffffffffffffffffffffffffffffffffffff\n      and\n      dup2\n      mstore\n      0x20\n      add\n      swap1\n      dup2\n      mstore\n      0x20\n      add\n      0x00\n      keccak256\n      0x00\n        /* \"contracts/ComplexVerify.sol\":1401:1420  admins[addr] = true */\n      0x0100\n      exp\n      dup2\n      sload\n      dup2\n      0xff\n      mul\n      not\n      and\n      swap1\n      dup4\n      iszero\n      iszero\n      mul\n      or\n      swap1\n      sstore\n      pop\n        /* \"contracts/ComplexVerify.sol\":1449:1450  1 */\n      0x01\n        /* \"contracts/ComplexVerify.sol\":1434:1445  totalAdmins */\n      0x02\n      0x00\n        /* \"contracts/ComplexVerify.sol\":1434:1450  totalAdmins += 1 */\n      dup3\n      dup3\n      sload\n      tag_146\n      swap2\n      swap1\n      tag_101\n      jump\t// in\n    tag_146:\n      swap3\n      pop\n      pop\n      dup2\n      swap1\n      sstore\n      pop\n        /* \"contracts/ComplexVerify.sol\":1518:1527  elections */\n      0x05\n        /* \"contracts/ComplexVerify.sol\":1518:1533  elections[addr] */\n      0x00\n        /* \"contracts/ComplexVerify.sol\":1528:1532  addr */\n      dup3\n        /* \"contracts/ComplexVerify.sol\":1518:1533  elections[addr] */\n      0xffffffffffffffffffffffffffffffffffffffff\n      and\n      0xffffffffffffffffffffffffffffffffffffffff\n      and\n      dup2\n      mstore\n      0x20\n      add\n      swap1\n      dup2\n      mstore\n      0x20\n      add\n      0x00\n      keccak256\n      0x00\n        /* \"contracts/ComplexVerify.sol\":1511:1533  delete elections[addr] */\n      0x0100\n      exp\n      dup2\n      sload\n      swap1\n      0xffffffffffffffffffffffffffffffffffffffff\n      mul\n      not\n      and\n      swap1\n      sstore\n        /* \"contracts/ComplexVerify.sol\":1567:1572  false */\n      0x00\n        /* \"contracts/ComplexVerify.sol\":1547:1558  hasElection */\n      0x04\n        /* \"contracts/ComplexVerify.sol\":1547:1564  hasElection[addr] */\n      0x00\n        /* \"contracts/ComplexVerify.sol\":1559:1563  addr */\n      dup4\n        /* \"contracts/ComplexVerify.sol\":1547:1564  hasElection[addr] */\n      0xffffffffffffffffffffffffffffffffffffffff\n      and\n      0xffffffffffffffffffffffffffffffffffffffff\n      and\n      dup2\n      mstore\n      0x20\n      add\n      swap1\n      dup2\n      mstore\n      0x20\n      add\n      0x00\n      keccak256\n      0x00\n        /* \"contracts/ComplexVerify.sol\":1547:1572  hasElection[addr] = false */\n      0x0100\n      exp\n      dup2\n      sload\n      dup2\n      0xff\n      mul\n      not\n      and\n      swap1\n      dup4\n      iszero\n      iszero\n      mul\n      or\n      swap1\n      sstore\n      pop\n        /* \"contracts/ComplexVerify.sol\":1245:1583  if (elections[addr].votesToAdd() > (totalAdmins / 2)) {... */\n    tag_145:\n        /* \"contracts/ComplexVerify.sol\":725:1589  function voteToAdd(address addr) senderIsAdmin public {... */\n      pop\n      jump\t// out\n        /* \"contracts/ComplexVerify.sol\":1595:2395  function voteToRemove(address addr) senderIsAdmin public {... */\n    tag_57:\n        /* \"contracts/ComplexVerify.sol\":651:655  true */\n      0x01\n        /* \"contracts/ComplexVerify.sol\":629:655  admins[msg.sender] == true */\n      iszero\n      iszero\n        /* \"contracts/ComplexVerify.sol\":629:635  admins */\n      0x03\n        /* \"contracts/ComplexVerify.sol\":629:647  admins[msg.sender] */\n      0x00\n        /* \"contracts/ComplexVerify.sol\":636:646  msg.sender */\n      caller\n        /* \"contracts/ComplexVerify.sol\":629:647  admins[msg.sender] */\n      0xffffffffffffffffffffffffffffffffffffffff\n      and\n      0xffffffffffffffffffffffffffffffffffffffff\n      and\n      dup2\n      mstore\n      0x20\n      add\n      swap1\n      dup2\n      mstore\n      0x20\n      add\n      0x00\n      keccak256\n      0x00\n      swap1\n      sload\n      swap1\n      0x0100\n      exp\n      swap1\n      div\n      0xff\n      and\n        /* \"contracts/ComplexVerify.sol\":629:655  admins[msg.sender] == true */\n      iszero\n      iszero\n      eq\n        /* \"contracts/ComplexVerify.sol\":608:701  require(... */\n      tag_148\n      jumpi\n      mload(0x40)\n      0x08c379a000000000000000000000000000000000000000000000000000000000\n      dup2\n      mstore\n      0x04\n      add\n      tag_149\n      swap1\n      tag_120\n      jump\t// in\n    tag_149:\n      mload(0x40)\n      dup1\n      swap2\n      sub\n      swap1\n      revert\n    tag_148:\n        /* \"contracts/ComplexVerify.sol\":1699:1703  true */\n      0x01\n        /* \"contracts/ComplexVerify.sol\":1683:1703  admins[addr] == true */\n      iszero\n      iszero\n        /* \"contracts/ComplexVerify.sol\":1683:1689  admins */\n      0x03\n        /* \"contracts/ComplexVerify.sol\":1683:1695  admins[addr] */\n      0x00\n        /* \"contracts/ComplexVerify.sol\":1690:1694  addr */\n      dup4\n        /* \"contracts/ComplexVerify.sol\":1683:1695  admins[addr] */\n      0xffffffffffffffffffffffffffffffffffffffff\n      and\n      0xffffffffffffffffffffffffffffffffffffffff\n      and\n      dup2\n      mstore\n      0x20\n      add\n      swap1\n      dup2\n      mstore\n      0x20\n      add\n      0x00\n      keccak256\n      0x00\n      swap1\n      sload\n      swap1\n      0x0100\n      exp\n      swap1\n      div\n      0xff\n      and\n        /* \"contracts/ComplexVerify.sol\":1683:1703  admins[addr] == true */\n      iszero\n      iszero\n      eq\n        /* \"contracts/ComplexVerify.sol\":1662:1774  require(... */\n      tag_151\n      jumpi\n      mload(0x40)\n      0x08c379a000000000000000000000000000000000000000000000000000000000\n      dup2\n      mstore\n      0x04\n      add\n      tag_152\n      swap1\n      tag_153\n      jump\t// in\n    tag_152:\n      mload(0x40)\n      dup1\n      swap2\n      sub\n      swap1\n      revert\n    tag_151:\n        /* \"contracts/ComplexVerify.sol\":1810:1815  false */\n      0x00\n        /* \"contracts/ComplexVerify.sol\":1789:1815  hasElection[addr] == false */\n      iszero\n      iszero\n        /* \"contracts/ComplexVerify.sol\":1789:1800  hasElection */\n      0x04\n        /* \"contracts/ComplexVerify.sol\":1789:1806  hasElection[addr] */\n      0x00\n        /* \"contracts/ComplexVerify.sol\":1801:1805  addr */\n      dup4\n        /* \"contracts/ComplexVerify.sol\":1789:1806  hasElection[addr] */\n      0xffffffffffffffffffffffffffffffffffffffff\n      and\n      0xffffffffffffffffffffffffffffffffffffffff\n      and\n      dup2\n      mstore\n      0x20\n      add\n      swap1\n      dup2\n      mstore\n      0x20\n      add\n      0x00\n      keccak256\n      0x00\n      swap1\n      sload\n      swap1\n      0x0100\n      exp\n      swap1\n      div\n      0xff\n      and\n        /* \"contracts/ComplexVerify.sol\":1789:1815  hasElection[addr] == false */\n      iszero\n      iszero\n      eq\n        /* \"contracts/ComplexVerify.sol\":1785:2046  if (hasElection[addr] == false) {... */\n      iszero\n      tag_154\n      jumpi\n        /* \"contracts/ComplexVerify.sol\":1849:1863  new Election() */\n      mload(0x40)\n      tag_155\n      swap1\n      tag_127\n      jump\t// in\n    tag_155:\n      mload(0x40)\n      dup1\n      swap2\n      sub\n      swap1\n      0x00\n      create\n      dup1\n      iszero\n      dup1\n      iszero\n      tag_156\n      jumpi\n      returndatasize\n      0x00\n      dup1\n      returndatacopy\n      revert(0x00, returndatasize)\n    tag_156:\n      pop\n        /* \"contracts/ComplexVerify.sol\":1831:1840  elections */\n      0x05\n        /* \"contracts/ComplexVerify.sol\":1831:1846  elections[addr] */\n      0x00\n        /* \"contracts/ComplexVerify.sol\":1841:1845  addr */\n      dup4\n        /* \"contracts/ComplexVerify.sol\":1831:1846  elections[addr] */\n      0xffffffffffffffffffffffffffffffffffffffff\n      and\n      0xffffffffffffffffffffffffffffffffffffffff\n      and\n      dup2\n      mstore\n      0x20\n      add\n      swap1\n      dup2\n      mstore\n      0x20\n      add\n      0x00\n      keccak256\n      0x00\n        /* \"contracts/ComplexVerify.sol\":1831:1863  elections[addr] = new Election() */\n      0x0100\n      exp\n      dup2\n      sload\n      dup2\n      0xffffffffffffffffffffffffffffffffffffffff\n      mul\n      not\n      and\n      swap1\n      dup4\n      0xffffffffffffffffffffffffffffffffffffffff\n      and\n      mul\n      or\n      swap1\n      sstore\n      pop\n        /* \"contracts/ComplexVerify.sol\":1897:1901  true */\n      0x01\n        /* \"contracts/ComplexVerify.sol\":1877:1888  hasElection */\n      0x04\n        /* \"contracts/ComplexVerify.sol\":1877:1894  hasElection[addr] */\n      0x00\n        /* \"contracts/ComplexVerify.sol\":1889:1893  addr */\n      dup4\n        /* \"contracts/ComplexVerify.sol\":1877:1894  hasElection[addr] */\n      0xffffffffffffffffffffffffffffffffffffffff\n      and\n      0xffffffffffffffffffffffffffffffffffffffff\n      and\n      dup2\n      mstore\n      0x20\n      add\n      swap1\n      dup2\n      mstore\n      0x20\n      add\n      0x00\n      keccak256\n      0x00\n        /* \"contracts/ComplexVerify.sol\":1877:1901  hasElection[addr] = true */\n      0x0100\n      exp\n      dup2\n      sload\n      dup2\n      0xff\n      mul\n      not\n      and\n      swap1\n      dup4\n      iszero\n      iszero\n      mul\n      or\n      swap1\n      sstore\n      pop\n        /* \"contracts/ComplexVerify.sol\":1915:1924  elections */\n      0x05\n        /* \"contracts/ComplexVerify.sol\":1915:1930  elections[addr] */\n      0x00\n        /* \"contracts/ComplexVerify.sol\":1925:1929  addr */\n      dup3\n        /* \"contracts/ComplexVerify.sol\":1915:1930  elections[addr] */\n      0xffffffffffffffffffffffffffffffffffffffff\n      and\n      0xffffffffffffffffffffffffffffffffffffffff\n      and\n      dup2\n      mstore\n      0x20\n      add\n      swap1\n      dup2\n      mstore\n      0x20\n      add\n      0x00\n      keccak256\n      0x00\n      swap1\n      sload\n      swap1\n      0x0100\n      exp\n      swap1\n      div\n      0xffffffffffffffffffffffffffffffffffffffff\n      and\n        /* \"contracts/ComplexVerify.sol\":1915:1943  elections[addr].voteToRemove */\n      0xffffffffffffffffffffffffffffffffffffffff\n      and\n      0x7727d3aa\n        /* \"contracts/ComplexVerify.sol\":1944:1954  msg.sender */\n      caller\n        /* \"contracts/ComplexVerify.sol\":1915:1955  elections[addr].voteToRemove(msg.sender) */\n      mload(0x40)\n      dup3\n      0xffffffff\n      and\n      0xe0\n      shl\n      dup2\n      mstore\n      0x04\n      add\n      tag_157\n      swap2\n      swap1\n      tag_130\n      jump\t// in\n    tag_157:\n      0x00\n      mload(0x40)\n      dup1\n      dup4\n      sub\n      dup2\n      0x00\n      dup8\n      dup1\n      extcodesize\n      iszero\n      dup1\n      iszero\n      tag_158\n      jumpi\n      0x00\n      dup1\n      revert\n    tag_158:\n      pop\n      gas\n      call\n      iszero\n      dup1\n      iszero\n      tag_160\n      jumpi\n      returndatasize\n      0x00\n      dup1\n      returndatacopy\n      revert(0x00, returndatasize)\n    tag_160:\n      pop\n      pop\n      pop\n      pop\n        /* \"contracts/ComplexVerify.sol\":1785:2046  if (hasElection[addr] == false) {... */\n      jump(tag_161)\n    tag_154:\n        /* \"contracts/ComplexVerify.sol\":1995:2004  elections */\n      0x05\n        /* \"contracts/ComplexVerify.sol\":1995:2010  elections[addr] */\n      0x00\n        /* \"contracts/ComplexVerify.sol\":2005:2009  addr */\n      dup3\n        /* \"contracts/ComplexVerify.sol\":1995:2010  elections[addr] */\n      0xffffffffffffffffffffffffffffffffffffffff\n      and\n      0xffffffffffffffffffffffffffffffffffffffff\n      and\n      dup2\n      mstore\n      0x20\n      add\n      swap1\n      dup2\n      mstore\n      0x20\n      add\n      0x00\n      keccak256\n      0x00\n      swap1\n      sload\n      swap1\n      0x0100\n      exp\n      swap1\n      div\n      0xffffffffffffffffffffffffffffffffffffffff\n      and\n        /* \"contracts/ComplexVerify.sol\":1995:2023  elections[addr].voteToRemove */\n      0xffffffffffffffffffffffffffffffffffffffff\n      and\n      0x7727d3aa\n        /* \"contracts/ComplexVerify.sol\":2024:2034  msg.sender */\n      caller\n        /* \"contracts/ComplexVerify.sol\":1995:2035  elections[addr].voteToRemove(msg.sender) */\n      mload(0x40)\n      dup3\n      0xffffffff\n      and\n      0xe0\n      shl\n      dup2\n      mstore\n      0x04\n      add\n      tag_162\n      swap2\n      swap1\n      tag_130\n      jump\t// in\n    tag_162:\n      0x00\n      mload(0x40)\n      dup1\n      dup4\n      sub\n      dup2\n      0x00\n      dup8\n      dup1\n      extcodesize\n      iszero\n      dup1\n      iszero\n      tag_163\n      jumpi\n      0x00\n      dup1\n      revert\n    tag_163:\n      pop\n      gas\n      call\n      iszero\n      dup1\n      iszero\n      tag_165\n      jumpi\n      returndatasize\n      0x00\n      dup1\n      returndatacopy\n      revert(0x00, returndatasize)\n    tag_165:\n      pop\n      pop\n      pop\n      pop\n        /* \"contracts/ComplexVerify.sol\":1785:2046  if (hasElection[addr] == false) {... */\n    tag_161:\n        /* \"contracts/ComplexVerify.sol\":2164:2165  2 */\n      0x02\n        /* \"contracts/ComplexVerify.sol\":2150:2161  totalAdmins */\n      dup1\n      sload\n        /* \"contracts/ComplexVerify.sol\":2150:2165  totalAdmins / 2 */\n      tag_166\n      swap2\n      swap1\n      tag_81\n      jump\t// in\n    tag_166:\n        /* \"contracts/ComplexVerify.sol\":2115:2124  elections */\n      0x05\n        /* \"contracts/ComplexVerify.sol\":2115:2130  elections[addr] */\n      0x00\n        /* \"contracts/ComplexVerify.sol\":2125:2129  addr */\n      dup4\n        /* \"contracts/ComplexVerify.sol\":2115:2130  elections[addr] */\n      0xffffffffffffffffffffffffffffffffffffffff\n      and\n      0xffffffffffffffffffffffffffffffffffffffff\n      and\n      dup2\n      mstore\n      0x20\n      add\n      swap1\n      dup2\n      mstore\n      0x20\n      add\n      0x00\n      keccak256\n      0x00\n      swap1\n      sload\n      swap1\n      0x0100\n      exp\n      swap1\n      div\n      0xffffffffffffffffffffffffffffffffffffffff\n      and\n        /* \"contracts/ComplexVerify.sol\":2115:2144  elections[addr].votesToRemove */\n      0xffffffffffffffffffffffffffffffffffffffff\n      and\n      0x5cb7e8af\n        /* \"contracts/ComplexVerify.sol\":2115:2146  elections[addr].votesToRemove() */\n      mload(0x40)\n      dup2\n      0xffffffff\n      and\n      0xe0\n      shl\n      dup2\n      mstore\n      0x04\n      add\n      0x20\n      mload(0x40)\n      dup1\n      dup4\n      sub\n      dup2\n      dup7\n      dup1\n      extcodesize\n      iszero\n      dup1\n      iszero\n      tag_167\n      jumpi\n      0x00\n      dup1\n      revert\n    tag_167:\n      pop\n      gas\n      staticcall\n      iszero\n      dup1\n      iszero\n      tag_169\n      jumpi\n      returndatasize\n      0x00\n      dup1\n      returndatacopy\n      revert(0x00, returndatasize)\n    tag_169:\n      pop\n      pop\n      pop\n      pop\n      mload(0x40)\n      returndatasize\n      not(0x1f)\n      0x1f\n      dup3\n      add\n      and\n      dup3\n      add\n      dup1\n      0x40\n      mstore\n      pop\n      dup2\n      add\n      swap1\n      tag_170\n      swap2\n      swap1\n      tag_144\n      jump\t// in\n    tag_170:\n        /* \"contracts/ComplexVerify.sol\":2115:2166  elections[addr].votesToRemove() > (totalAdmins / 2) */\n      gt\n        /* \"contracts/ComplexVerify.sol\":2111:2389  if (elections[addr].votesToRemove() > (totalAdmins / 2)) {... */\n      iszero\n      tag_171\n      jumpi\n        /* \"contracts/ComplexVerify.sol\":2197:2201  true */\n      0x01\n        /* \"contracts/ComplexVerify.sol\":2182:2188  admins */\n      0x03\n        /* \"contracts/ComplexVerify.sol\":2182:2194  admins[addr] */\n      0x00\n        /* \"contracts/ComplexVerify.sol\":2189:2193  addr */\n      dup4\n        /* \"contracts/ComplexVerify.sol\":2182:2194  admins[addr] */\n      0xffffffffffffffffffffffffffffffffffffffff\n      and\n      0xffffffffffffffffffffffffffffffffffffffff\n      and\n      dup2\n      mstore\n      0x20\n      add\n      swap1\n      dup2\n      mstore\n      0x20\n      add\n      0x00\n      keccak256\n      0x00\n        /* \"contracts/ComplexVerify.sol\":2182:2201  admins[addr] = true */\n      0x0100\n      exp\n      dup2\n      sload\n      dup2\n      0xff\n      mul\n      not\n      and\n      swap1\n      dup4\n      iszero\n      iszero\n      mul\n      or\n      swap1\n      sstore\n      pop\n        /* \"contracts/ComplexVerify.sol\":2230:2231  1 */\n      0x01\n        /* \"contracts/ComplexVerify.sol\":2215:2226  totalAdmins */\n      0x02\n      0x00\n        /* \"contracts/ComplexVerify.sol\":2215:2231  totalAdmins -= 1 */\n      dup3\n      dup3\n      sload\n      tag_172\n      swap2\n      swap1\n      tag_173\n      jump\t// in\n    tag_172:\n      swap3\n      pop\n      pop\n      dup2\n      swap1\n      sstore\n      pop\n        /* \"contracts/ComplexVerify.sol\":2324:2333  elections */\n      0x05\n        /* \"contracts/ComplexVerify.sol\":2324:2339  elections[addr] */\n      0x00\n        /* \"contracts/ComplexVerify.sol\":2334:2338  addr */\n      dup3\n        /* \"contracts/ComplexVerify.sol\":2324:2339  elections[addr] */\n      0xffffffffffffffffffffffffffffffffffffffff\n      and\n      0xffffffffffffffffffffffffffffffffffffffff\n      and\n      dup2\n      mstore\n      0x20\n      add\n      swap1\n      dup2\n      mstore\n      0x20\n      add\n      0x00\n      keccak256\n      0x00\n        /* \"contracts/ComplexVerify.sol\":2317:2339  delete elections[addr] */\n      0x0100\n      exp\n      dup2\n      sload\n      swap1\n      0xffffffffffffffffffffffffffffffffffffffff\n      mul\n      not\n      and\n      swap1\n      sstore\n        /* \"contracts/ComplexVerify.sol\":2373:2378  false */\n      0x00\n        /* \"contracts/ComplexVerify.sol\":2353:2364  hasElection */\n      0x04\n        /* \"contracts/ComplexVerify.sol\":2353:2370  hasElection[addr] */\n      0x00\n        /* \"contracts/ComplexVerify.sol\":2365:2369  addr */\n      dup4\n        /* \"contracts/ComplexVerify.sol\":2353:2370  hasElection[addr] */\n      0xffffffffffffffffffffffffffffffffffffffff\n      and\n      0xffffffffffffffffffffffffffffffffffffffff\n      and\n      dup2\n      mstore\n      0x20\n      add\n      swap1\n      dup2\n      mstore\n      0x20\n      add\n      0x00\n      keccak256\n      0x00\n        /* \"contracts/ComplexVerify.sol\":2353:2378  hasElection[addr] = false */\n      0x0100\n      exp\n      dup2\n      sload\n      dup2\n      0xff\n      mul\n      not\n      and\n      swap1\n      dup4\n      iszero\n      iszero\n      mul\n      or\n      swap1\n      sstore\n      pop\n        /* \"contracts/ComplexVerify.sol\":2111:2389  if (elections[addr].votesToRemove() > (totalAdmins / 2)) {... */\n    tag_171:\n        /* \"contracts/ComplexVerify.sol\":1595:2395  function voteToRemove(address addr) senderIsAdmin public {... */\n      pop\n      jump\t// out\n        /* \"contracts/Verify.sol\":830:1160  function addVerifier(address addr) senderIsAdmin public {       ... */\n    tag_61:\n        /* \"contracts/ComplexVerify.sol\":651:655  true */\n      0x01\n        /* \"contracts/ComplexVerify.sol\":629:655  admins[msg.sender] == true */\n      iszero\n      iszero\n        /* \"contracts/ComplexVerify.sol\":629:635  admins */\n      0x03\n        /* \"contracts/ComplexVerify.sol\":629:647  admins[msg.sender] */\n      0x00\n        /* \"contracts/ComplexVerify.sol\":636:646  msg.sender */\n      caller\n        /* \"contracts/ComplexVerify.sol\":629:647  admins[msg.sender] */\n      0xffffffffffffffffffffffffffffffffffffffff\n      and\n      0xffffffffffffffffffffffffffffffffffffffff\n      and\n      dup2\n      mstore\n      0x20\n      add\n      swap1\n      dup2\n      mstore\n      0x20\n      add\n      0x00\n      keccak256\n      0x00\n      swap1\n      sload\n      swap1\n      0x0100\n      exp\n      swap1\n      div\n      0xff\n      and\n        /* \"contracts/ComplexVerify.sol\":629:655  admins[msg.sender] == true */\n      iszero\n      iszero\n      eq\n        /* \"contracts/ComplexVerify.sol\":608:701  require(... */\n      tag_175\n      jumpi\n      mload(0x40)\n      0x08c379a000000000000000000000000000000000000000000000000000000000\n      dup2\n      mstore\n      0x04\n      add\n      tag_176\n      swap1\n      tag_120\n      jump\t// in\n    tag_176:\n      mload(0x40)\n      dup1\n      swap2\n      sub\n      swap1\n      revert\n    tag_175:\n        /* \"contracts/Verify.sol\":940:941  0 */\n      0x00\n        /* \"contracts/Verify.sol\":924:942  addr != address(0) */\n      0xffffffffffffffffffffffffffffffffffffffff\n      and\n        /* \"contracts/Verify.sol\":924:928  addr */\n      dup2\n        /* \"contracts/Verify.sol\":924:942  addr != address(0) */\n      0xffffffffffffffffffffffffffffffffffffffff\n      and\n      eq\n      iszero\n        /* \"contracts/Verify.sol\":903:1001  require(... */\n      tag_178\n      jumpi\n      mload(0x40)\n      0x08c379a000000000000000000000000000000000000000000000000000000000\n      dup2\n      mstore\n      0x04\n      add\n      tag_179\n      swap1\n      tag_180\n      jump\t// in\n    tag_179:\n      mload(0x40)\n      dup1\n      swap2\n      sub\n      swap1\n      revert\n    tag_178:\n        /* \"contracts/Verify.sol\":1060:1064  true */\n      0x01\n        /* \"contracts/Verify.sol\":1041:1064  verifiers[addr] != true */\n      iszero\n      iszero\n        /* \"contracts/Verify.sol\":1041:1050  verifiers */\n      0x01\n        /* \"contracts/Verify.sol\":1041:1056  verifiers[addr] */\n      0x00\n        /* \"contracts/Verify.sol\":1051:1055  addr */\n      dup4\n        /* \"contracts/Verify.sol\":1041:1056  verifiers[addr] */\n      0xffffffffffffffffffffffffffffffffffffffff\n      and\n      0xffffffffffffffffffffffffffffffffffffffff\n      and\n      dup2\n      mstore\n      0x20\n      add\n      swap1\n      dup2\n      mstore\n      0x20\n      add\n      0x00\n      keccak256\n      0x00\n      swap1\n      sload\n      swap1\n      0x0100\n      exp\n      swap1\n      div\n      0xff\n      and\n        /* \"contracts/Verify.sol\":1041:1064  verifiers[addr] != true */\n      iszero\n      iszero\n      eq\n      iszero\n        /* \"contracts/Verify.sol\":1020:1120  require(... */\n      tag_181\n      jumpi\n      mload(0x40)\n      0x08c379a000000000000000000000000000000000000000000000000000000000\n      dup2\n      mstore\n      0x04\n      add\n      tag_182\n      swap1\n      tag_183\n      jump\t// in\n    tag_182:\n      mload(0x40)\n      dup1\n      swap2\n      sub\n      swap1\n      revert\n    tag_181:\n        /* \"contracts/Verify.sol\":1149:1153  true */\n      0x01\n        /* \"contracts/Verify.sol\":1131:1140  verifiers */\n      dup1\n        /* \"contracts/Verify.sol\":1131:1146  verifiers[addr] */\n      0x00\n        /* \"contracts/Verify.sol\":1141:1145  addr */\n      dup4\n        /* \"contracts/Verify.sol\":1131:1146  verifiers[addr] */\n      0xffffffffffffffffffffffffffffffffffffffff\n      and\n      0xffffffffffffffffffffffffffffffffffffffff\n      and\n      dup2\n      mstore\n      0x20\n      add\n      swap1\n      dup2\n      mstore\n      0x20\n      add\n      0x00\n      keccak256\n      0x00\n        /* \"contracts/Verify.sol\":1131:1153  verifiers[addr] = true */\n      0x0100\n      exp\n      dup2\n      sload\n      dup2\n      0xff\n      mul\n      not\n      and\n      swap1\n      dup4\n      iszero\n      iszero\n      mul\n      or\n      swap1\n      sstore\n      pop\n        /* \"contracts/Verify.sol\":830:1160  function addVerifier(address addr) senderIsAdmin public {       ... */\n      pop\n      jump\t// out\n        /* \"contracts/Pot.sol\":202:219  uint public price */\n    tag_64:\n      sload(0x07)\n      dup2\n      jump\t// out\n        /* \"contracts/Verify.sol\":2141:2314  function isVerified(address addr) public view returns (bool) {... */\n    tag_69:\n        /* \"contracts/Verify.sol\":2196:2200  bool */\n      0x00\n        /* \"contracts/Verify.sol\":2243:2247  true */\n      0x01\n        /* \"contracts/Verify.sol\":2216:2247  verifiedAddresses[addr] == true */\n      iszero\n      iszero\n        /* \"contracts/Verify.sol\":2216:2233  verifiedAddresses */\n      0x00\n        /* \"contracts/Verify.sol\":2216:2239  verifiedAddresses[addr] */\n      dup1\n        /* \"contracts/Verify.sol\":2234:2238  addr */\n      dup5\n        /* \"contracts/Verify.sol\":2216:2239  verifiedAddresses[addr] */\n      0xffffffffffffffffffffffffffffffffffffffff\n      and\n      0xffffffffffffffffffffffffffffffffffffffff\n      and\n      dup2\n      mstore\n      0x20\n      add\n      swap1\n      dup2\n      mstore\n      0x20\n      add\n      0x00\n      keccak256\n      0x00\n      swap1\n      sload\n      swap1\n      0x0100\n      exp\n      swap1\n      div\n      0xff\n      and\n        /* \"contracts/Verify.sol\":2216:2247  verifiedAddresses[addr] == true */\n      iszero\n      iszero\n      eq\n        /* \"contracts/Verify.sol\":2212:2285  if (verifiedAddresses[addr] == true) {... */\n      iszero\n      tag_185\n      jumpi\n        /* \"contracts/Verify.sol\":2270:2274  true */\n      0x01\n        /* \"contracts/Verify.sol\":2263:2274  return true */\n      swap1\n      pop\n      jump(tag_184)\n        /* \"contracts/Verify.sol\":2212:2285  if (verifiedAddresses[addr] == true) {... */\n    tag_185:\n        /* \"contracts/Verify.sol\":2302:2307  false */\n      0x00\n        /* \"contracts/Verify.sol\":2295:2307  return false */\n      swap1\n      pop\n        /* \"contracts/Verify.sol\":2141:2314  function isVerified(address addr) public view returns (bool) {... */\n    tag_184:\n      swap2\n      swap1\n      pop\n      jump\t// out\n        /* \"contracts/Verify.sol\":1229:1464  function removeVerifier(address addr) senderIsAdmin public {... */\n    tag_74:\n        /* \"contracts/ComplexVerify.sol\":651:655  true */\n      0x01\n        /* \"contracts/ComplexVerify.sol\":629:655  admins[msg.sender] == true */\n      iszero\n      iszero\n        /* \"contracts/ComplexVerify.sol\":629:635  admins */\n      0x03\n        /* \"contracts/ComplexVerify.sol\":629:647  admins[msg.sender] */\n      0x00\n        /* \"contracts/ComplexVerify.sol\":636:646  msg.sender */\n      caller\n        /* \"contracts/ComplexVerify.sol\":629:647  admins[msg.sender] */\n      0xffffffffffffffffffffffffffffffffffffffff\n      and\n      0xffffffffffffffffffffffffffffffffffffffff\n      and\n      dup2\n      mstore\n      0x20\n      add\n      swap1\n      dup2\n      mstore\n      0x20\n      add\n      0x00\n      keccak256\n      0x00\n      swap1\n      sload\n      swap1\n      0x0100\n      exp\n      swap1\n      div\n      0xff\n      and\n        /* \"contracts/ComplexVerify.sol\":629:655  admins[msg.sender] == true */\n      iszero\n      iszero\n      eq\n        /* \"contracts/ComplexVerify.sol\":608:701  require(... */\n      tag_187\n      jumpi\n      mload(0x40)\n      0x08c379a000000000000000000000000000000000000000000000000000000000\n      dup2\n      mstore\n      0x04\n      add\n      tag_188\n      swap1\n      tag_120\n      jump\t// in\n    tag_188:\n      mload(0x40)\n      dup1\n      swap2\n      sub\n      swap1\n      revert\n    tag_187:\n        /* \"contracts/Verify.sol\":1338:1342  true */\n      0x01\n        /* \"contracts/Verify.sol\":1319:1342  verifiers[addr] == true */\n      iszero\n      iszero\n        /* \"contracts/Verify.sol\":1319:1328  verifiers */\n      0x01\n        /* \"contracts/Verify.sol\":1319:1334  verifiers[addr] */\n      0x00\n        /* \"contracts/Verify.sol\":1329:1333  addr */\n      dup4\n        /* \"contracts/Verify.sol\":1319:1334  verifiers[addr] */\n      0xffffffffffffffffffffffffffffffffffffffff\n      and\n      0xffffffffffffffffffffffffffffffffffffffff\n      and\n      dup2\n      mstore\n      0x20\n      add\n      swap1\n      dup2\n      mstore\n      0x20\n      add\n      0x00\n      keccak256\n      0x00\n      swap1\n      sload\n      swap1\n      0x0100\n      exp\n      swap1\n      div\n      0xff\n      and\n        /* \"contracts/Verify.sol\":1319:1342  verifiers[addr] == true */\n      iszero\n      iszero\n      eq\n        /* \"contracts/Verify.sol\":1298:1423  require(... */\n      tag_190\n      jumpi\n      mload(0x40)\n      0x08c379a000000000000000000000000000000000000000000000000000000000\n      dup2\n      mstore\n      0x04\n      add\n      tag_191\n      swap1\n      tag_192\n      jump\t// in\n    tag_191:\n      mload(0x40)\n      dup1\n      swap2\n      sub\n      swap1\n      revert\n    tag_190:\n        /* \"contracts/Verify.sol\":1452:1457  false */\n      0x00\n        /* \"contracts/Verify.sol\":1434:1443  verifiers */\n      0x01\n        /* \"contracts/Verify.sol\":1434:1449  verifiers[addr] */\n      0x00\n        /* \"contracts/Verify.sol\":1444:1448  addr */\n      dup4\n        /* \"contracts/Verify.sol\":1434:1449  verifiers[addr] */\n      0xffffffffffffffffffffffffffffffffffffffff\n      and\n      0xffffffffffffffffffffffffffffffffffffffff\n      and\n      dup2\n      mstore\n      0x20\n      add\n      swap1\n      dup2\n      mstore\n      0x20\n      add\n      0x00\n      keccak256\n      0x00\n        /* \"contracts/Verify.sol\":1434:1457  verifiers[addr] = false */\n      0x0100\n      exp\n      dup2\n      sload\n      dup2\n      0xff\n      mul\n      not\n      and\n      swap1\n      dup4\n      iszero\n      iszero\n      mul\n      or\n      swap1\n      sstore\n      pop\n        /* \"contracts/Verify.sol\":1229:1464  function removeVerifier(address addr) senderIsAdmin public {... */\n      pop\n      jump\t// out\n    tag_127:\n      dataSize(sub_0)\n      dup1\n      dataOffset(sub_0)\n      dup4\n      codecopy\n      add\n      swap1\n      jump\t// out\n        /* \"#utility.yul\":7:146   */\n    tag_194:\n        /* \"#utility.yul\":53:58   */\n      0x00\n        /* \"#utility.yul\":91:97   */\n      dup2\n        /* \"#utility.yul\":78:98   */\n      calldataload\n        /* \"#utility.yul\":69:98   */\n      swap1\n      pop\n        /* \"#utility.yul\":107:140   */\n      tag_196\n        /* \"#utility.yul\":134:139   */\n      dup2\n        /* \"#utility.yul\":107:140   */\n      tag_197\n      jump\t// in\n    tag_196:\n        /* \"#utility.yul\":7:146   */\n      swap3\n      swap2\n      pop\n      pop\n      jump\t// out\n        /* \"#utility.yul\":152:291   */\n    tag_198:\n        /* \"#utility.yul\":198:203   */\n      0x00\n        /* \"#utility.yul\":236:242   */\n      dup2\n        /* \"#utility.yul\":223:243   */\n      calldataload\n        /* \"#utility.yul\":214:243   */\n      swap1\n      pop\n        /* \"#utility.yul\":252:285   */\n      tag_200\n        /* \"#utility.yul\":279:284   */\n      dup2\n        /* \"#utility.yul\":252:285   */\n      tag_201\n      jump\t// in\n    tag_200:\n        /* \"#utility.yul\":152:291   */\n      swap3\n      swap2\n      pop\n      pop\n      jump\t// out\n        /* \"#utility.yul\":297:440   */\n    tag_202:\n        /* \"#utility.yul\":354:359   */\n      0x00\n        /* \"#utility.yul\":385:391   */\n      dup2\n        /* \"#utility.yul\":379:392   */\n      mload\n        /* \"#utility.yul\":370:392   */\n      swap1\n      pop\n        /* \"#utility.yul\":401:434   */\n      tag_204\n        /* \"#utility.yul\":428:433   */\n      dup2\n        /* \"#utility.yul\":401:434   */\n      tag_201\n      jump\t// in\n    tag_204:\n        /* \"#utility.yul\":297:440   */\n      swap3\n      swap2\n      pop\n      pop\n      jump\t// out\n        /* \"#utility.yul\":446:775   */\n    tag_25:\n        /* \"#utility.yul\":505:511   */\n      0x00\n        /* \"#utility.yul\":554:556   */\n      0x20\n        /* \"#utility.yul\":542:551   */\n      dup3\n        /* \"#utility.yul\":533:540   */\n      dup5\n        /* \"#utility.yul\":529:552   */\n      sub\n        /* \"#utility.yul\":525:557   */\n      slt\n        /* \"#utility.yul\":522:641   */\n      iszero\n      tag_206\n      jumpi\n        /* \"#utility.yul\":560:639   */\n      tag_207\n      tag_208\n      jump\t// in\n    tag_207:\n        /* \"#utility.yul\":522:641   */\n    tag_206:\n        /* \"#utility.yul\":680:681   */\n      0x00\n        /* \"#utility.yul\":705:758   */\n      tag_209\n        /* \"#utility.yul\":750:757   */\n      dup5\n        /* \"#utility.yul\":741:747   */\n      dup3\n        /* \"#utility.yul\":730:739   */\n      dup6\n        /* \"#utility.yul\":726:748   */\n      add\n        /* \"#utility.yul\":705:758   */\n      tag_194\n      jump\t// in\n    tag_209:\n        /* \"#utility.yul\":695:758   */\n      swap2\n      pop\n        /* \"#utility.yul\":651:768   */\n      pop\n        /* \"#utility.yul\":446:775   */\n      swap3\n      swap2\n      pop\n      pop\n      jump\t// out\n        /* \"#utility.yul\":781:1110   */\n    tag_20:\n        /* \"#utility.yul\":840:846   */\n      0x00\n        /* \"#utility.yul\":889:891   */\n      0x20\n        /* \"#utility.yul\":877:886   */\n      dup3\n        /* \"#utility.yul\":868:875   */\n      dup5\n        /* \"#utility.yul\":864:887   */\n      sub\n        /* \"#utility.yul\":860:892   */\n      slt\n        /* \"#utility.yul\":857:976   */\n      iszero\n      tag_211\n      jumpi\n        /* \"#utility.yul\":895:974   */\n      tag_212\n      tag_208\n      jump\t// in\n    tag_212:\n        /* \"#utility.yul\":857:976   */\n    tag_211:\n        /* \"#utility.yul\":1015:1016   */\n      0x00\n        /* \"#utility.yul\":1040:1093   */\n      tag_213\n        /* \"#utility.yul\":1085:1092   */\n      dup5\n        /* \"#utility.yul\":1076:1082   */\n      dup3\n        /* \"#utility.yul\":1065:1074   */\n      dup6\n        /* \"#utility.yul\":1061:1083   */\n      add\n        /* \"#utility.yul\":1040:1093   */\n      tag_198\n      jump\t// in\n    tag_213:\n        /* \"#utility.yul\":1030:1093   */\n      swap2\n      pop\n        /* \"#utility.yul\":986:1103   */\n      pop\n        /* \"#utility.yul\":781:1110   */\n      swap3\n      swap2\n      pop\n      pop\n      jump\t// out\n        /* \"#utility.yul\":1116:1467   */\n    tag_144:\n        /* \"#utility.yul\":1186:1192   */\n      0x00\n        /* \"#utility.yul\":1235:1237   */\n      0x20\n        /* \"#utility.yul\":1223:1232   */\n      dup3\n        /* \"#utility.yul\":1214:1221   */\n      dup5\n        /* \"#utility.yul\":1210:1233   */\n      sub\n        /* \"#utility.yul\":1206:1238   */\n      slt\n        /* \"#utility.yul\":1203:1322   */\n      iszero\n      tag_215\n      jumpi\n        /* \"#utility.yul\":1241:1320   */\n      tag_216\n      tag_208\n      jump\t// in\n    tag_216:\n        /* \"#utility.yul\":1203:1322   */\n    tag_215:\n        /* \"#utility.yul\":1361:1362   */\n      0x00\n        /* \"#utility.yul\":1386:1450   */\n      tag_217\n        /* \"#utility.yul\":1442:1449   */\n      dup5\n        /* \"#utility.yul\":1433:1439   */\n      dup3\n        /* \"#utility.yul\":1422:1431   */\n      dup6\n        /* \"#utility.yul\":1418:1440   */\n      add\n        /* \"#utility.yul\":1386:1450   */\n      tag_202\n      jump\t// in\n    tag_217:\n        /* \"#utility.yul\":1376:1450   */\n      swap2\n      pop\n        /* \"#utility.yul\":1332:1460   */\n      pop\n        /* \"#utility.yul\":1116:1467   */\n      swap3\n      swap2\n      pop\n      pop\n      jump\t// out\n        /* \"#utility.yul\":1473:1591   */\n    tag_218:\n        /* \"#utility.yul\":1560:1584   */\n      tag_220\n        /* \"#utility.yul\":1578:1583   */\n      dup2\n        /* \"#utility.yul\":1560:1584   */\n      tag_221\n      jump\t// in\n    tag_220:\n        /* \"#utility.yul\":1555:1558   */\n      dup3\n        /* \"#utility.yul\":1548:1585   */\n      mstore\n        /* \"#utility.yul\":1473:1591   */\n      pop\n      pop\n      jump\t// out\n        /* \"#utility.yul\":1597:1706   */\n    tag_222:\n        /* \"#utility.yul\":1678:1699   */\n      tag_224\n        /* \"#utility.yul\":1693:1698   */\n      dup2\n        /* \"#utility.yul\":1678:1699   */\n      tag_225\n      jump\t// in\n    tag_224:\n        /* \"#utility.yul\":1673:1676   */\n      dup3\n        /* \"#utility.yul\":1666:1700   */\n      mstore\n        /* \"#utility.yul\":1597:1706   */\n      pop\n      pop\n      jump\t// out\n        /* \"#utility.yul\":1712:2078   */\n    tag_226:\n        /* \"#utility.yul\":1854:1857   */\n      0x00\n        /* \"#utility.yul\":1875:1942   */\n      tag_228\n        /* \"#utility.yul\":1939:1941   */\n      0x31\n        /* \"#utility.yul\":1934:1937   */\n      dup4\n        /* \"#utility.yul\":1875:1942   */\n      tag_229\n      jump\t// in\n    tag_228:\n        /* \"#utility.yul\":1868:1942   */\n      swap2\n      pop\n        /* \"#utility.yul\":1951:2044   */\n      tag_230\n        /* \"#utility.yul\":2040:2043   */\n      dup3\n        /* \"#utility.yul\":1951:2044   */\n      tag_231\n      jump\t// in\n    tag_230:\n        /* \"#utility.yul\":2069:2071   */\n      0x40\n        /* \"#utility.yul\":2064:2067   */\n      dup3\n        /* \"#utility.yul\":2060:2072   */\n      add\n        /* \"#utility.yul\":2053:2072   */\n      swap1\n      pop\n        /* \"#utility.yul\":1712:2078   */\n      swap2\n      swap1\n      pop\n      jump\t// out\n        /* \"#utility.yul\":2084:2450   */\n    tag_232:\n        /* \"#utility.yul\":2226:2229   */\n      0x00\n        /* \"#utility.yul\":2247:2314   */\n      tag_234\n        /* \"#utility.yul\":2311:2313   */\n      0x14\n        /* \"#utility.yul\":2306:2309   */\n      dup4\n        /* \"#utility.yul\":2247:2314   */\n      tag_229\n      jump\t// in\n    tag_234:\n        /* \"#utility.yul\":2240:2314   */\n      swap2\n      pop\n        /* \"#utility.yul\":2323:2416   */\n      tag_235\n        /* \"#utility.yul\":2412:2415   */\n      dup3\n        /* \"#utility.yul\":2323:2416   */\n      tag_236\n      jump\t// in\n    tag_235:\n        /* \"#utility.yul\":2441:2443   */\n      0x20\n        /* \"#utility.yul\":2436:2439   */\n      dup3\n        /* \"#utility.yul\":2432:2444   */\n      add\n        /* \"#utility.yul\":2425:2444   */\n      swap1\n      pop\n        /* \"#utility.yul\":2084:2450   */\n      swap2\n      swap1\n      pop\n      jump\t// out\n        /* \"#utility.yul\":2456:2822   */\n    tag_237:\n        /* \"#utility.yul\":2598:2601   */\n      0x00\n        /* \"#utility.yul\":2619:2686   */\n      tag_239\n        /* \"#utility.yul\":2683:2685   */\n      0x37\n        /* \"#utility.yul\":2678:2681   */\n      dup4\n        /* \"#utility.yul\":2619:2686   */\n      tag_229\n      jump\t// in\n    tag_239:\n        /* \"#utility.yul\":2612:2686   */\n      swap2\n      pop\n        /* \"#utility.yul\":2695:2788   */\n      tag_240\n        /* \"#utility.yul\":2784:2787   */\n      dup3\n        /* \"#utility.yul\":2695:2788   */\n      tag_241\n      jump\t// in\n    tag_240:\n        /* \"#utility.yul\":2813:2815   */\n      0x40\n        /* \"#utility.yul\":2808:2811   */\n      dup3\n        /* \"#utility.yul\":2804:2816   */\n      add\n        /* \"#utility.yul\":2797:2816   */\n      swap1\n      pop\n        /* \"#utility.yul\":2456:2822   */\n      swap2\n      swap1\n      pop\n      jump\t// out\n        /* \"#utility.yul\":2828:3194   */\n    tag_242:\n        /* \"#utility.yul\":2970:2973   */\n      0x00\n        /* \"#utility.yul\":2991:3058   */\n      tag_244\n        /* \"#utility.yul\":3055:3057   */\n      0x14\n        /* \"#utility.yul\":3050:3053   */\n      dup4\n        /* \"#utility.yul\":2991:3058   */\n      tag_229\n      jump\t// in\n    tag_244:\n        /* \"#utility.yul\":2984:3058   */\n      swap2\n      pop\n        /* \"#utility.yul\":3067:3160   */\n      tag_245\n        /* \"#utility.yul\":3156:3159   */\n      dup3\n        /* \"#utility.yul\":3067:3160   */\n      tag_246\n      jump\t// in\n    tag_245:\n        /* \"#utility.yul\":3185:3187   */\n      0x20\n        /* \"#utility.yul\":3180:3183   */\n      dup3\n        /* \"#utility.yul\":3176:3188   */\n      add\n        /* \"#utility.yul\":3169:3188   */\n      swap1\n      pop\n        /* \"#utility.yul\":2828:3194   */\n      swap2\n      swap1\n      pop\n      jump\t// out\n        /* \"#utility.yul\":3200:3566   */\n    tag_247:\n        /* \"#utility.yul\":3342:3345   */\n      0x00\n        /* \"#utility.yul\":3363:3430   */\n      tag_249\n        /* \"#utility.yul\":3427:3429   */\n      0x1e\n        /* \"#utility.yul\":3422:3425   */\n      dup4\n        /* \"#utility.yul\":3363:3430   */\n      tag_229\n      jump\t// in\n    tag_249:\n        /* \"#utility.yul\":3356:3430   */\n      swap2\n      pop\n        /* \"#utility.yul\":3439:3532   */\n      tag_250\n        /* \"#utility.yul\":3528:3531   */\n      dup3\n        /* \"#utility.yul\":3439:3532   */\n      tag_251\n      jump\t// in\n    tag_250:\n        /* \"#utility.yul\":3557:3559   */\n      0x20\n        /* \"#utility.yul\":3552:3555   */\n      dup3\n        /* \"#utility.yul\":3548:3560   */\n      add\n        /* \"#utility.yul\":3541:3560   */\n      swap1\n      pop\n        /* \"#utility.yul\":3200:3566   */\n      swap2\n      swap1\n      pop\n      jump\t// out\n        /* \"#utility.yul\":3572:3938   */\n    tag_252:\n        /* \"#utility.yul\":3714:3717   */\n      0x00\n        /* \"#utility.yul\":3735:3802   */\n      tag_254\n        /* \"#utility.yul\":3799:3801   */\n      0x24\n        /* \"#utility.yul\":3794:3797   */\n      dup4\n        /* \"#utility.yul\":3735:3802   */\n      tag_229\n      jump\t// in\n    tag_254:\n        /* \"#utility.yul\":3728:3802   */\n      swap2\n      pop\n        /* \"#utility.yul\":3811:3904   */\n      tag_255\n        /* \"#utility.yul\":3900:3903   */\n      dup3\n        /* \"#utility.yul\":3811:3904   */\n      tag_256\n      jump\t// in\n    tag_255:\n        /* \"#utility.yul\":3929:3931   */\n      0x40\n        /* \"#utility.yul\":3924:3927   */\n      dup3\n        /* \"#utility.yul\":3920:3932   */\n      add\n        /* \"#utility.yul\":3913:3932   */\n      swap1\n      pop\n        /* \"#utility.yul\":3572:3938   */\n      swap2\n      swap1\n      pop\n      jump\t// out\n        /* \"#utility.yul\":3944:4310   */\n    tag_257:\n        /* \"#utility.yul\":4086:4089   */\n      0x00\n        /* \"#utility.yul\":4107:4174   */\n      tag_259\n        /* \"#utility.yul\":4171:4173   */\n      0x2f\n        /* \"#utility.yul\":4166:4169   */\n      dup4\n        /* \"#utility.yul\":4107:4174   */\n      tag_229\n      jump\t// in\n    tag_259:\n        /* \"#utility.yul\":4100:4174   */\n      swap2\n      pop\n        /* \"#utility.yul\":4183:4276   */\n      tag_260\n        /* \"#utility.yul\":4272:4275   */\n      dup3\n        /* \"#utility.yul\":4183:4276   */\n      tag_261\n      jump\t// in\n    tag_260:\n        /* \"#utility.yul\":4301:4303   */\n      0x40\n        /* \"#utility.yul\":4296:4299   */\n      dup3\n        /* \"#utility.yul\":4292:4304   */\n      add\n        /* \"#utility.yul\":4285:4304   */\n      swap1\n      pop\n        /* \"#utility.yul\":3944:4310   */\n      swap2\n      swap1\n      pop\n      jump\t// out\n        /* \"#utility.yul\":4316:4682   */\n    tag_262:\n        /* \"#utility.yul\":4458:4461   */\n      0x00\n        /* \"#utility.yul\":4479:4546   */\n      tag_264\n        /* \"#utility.yul\":4543:4545   */\n      0x1e\n        /* \"#utility.yul\":4538:4541   */\n      dup4\n        /* \"#utility.yul\":4479:4546   */\n      tag_229\n      jump\t// in\n    tag_264:\n        /* \"#utility.yul\":4472:4546   */\n      swap2\n      pop\n        /* \"#utility.yul\":4555:4648   */\n      tag_265\n        /* \"#utility.yul\":4644:4647   */\n      dup3\n        /* \"#utility.yul\":4555:4648   */\n      tag_266\n      jump\t// in\n    tag_265:\n        /* \"#utility.yul\":4673:4675   */\n      0x20\n        /* \"#utility.yul\":4668:4671   */\n      dup3\n        /* \"#utility.yul\":4664:4676   */\n      add\n        /* \"#utility.yul\":4657:4676   */\n      swap1\n      pop\n        /* \"#utility.yul\":4316:4682   */\n      swap2\n      swap1\n      pop\n      jump\t// out\n        /* \"#utility.yul\":4688:5054   */\n    tag_267:\n        /* \"#utility.yul\":4830:4833   */\n      0x00\n        /* \"#utility.yul\":4851:4918   */\n      tag_269\n        /* \"#utility.yul\":4915:4917   */\n      0x1b\n        /* \"#utility.yul\":4910:4913   */\n      dup4\n        /* \"#utility.yul\":4851:4918   */\n      tag_229\n      jump\t// in\n    tag_269:\n        /* \"#utility.yul\":4844:4918   */\n      swap2\n      pop\n        /* \"#utility.yul\":4927:5020   */\n      tag_270\n        /* \"#utility.yul\":5016:5019   */\n      dup3\n        /* \"#utility.yul\":4927:5020   */\n      tag_271\n      jump\t// in\n    tag_270:\n        /* \"#utility.yul\":5045:5047   */\n      0x20\n        /* \"#utility.yul\":5040:5043   */\n      dup3\n        /* \"#utility.yul\":5036:5048   */\n      add\n        /* \"#utility.yul\":5029:5048   */\n      swap1\n      pop\n        /* \"#utility.yul\":4688:5054   */\n      swap2\n      swap1\n      pop\n      jump\t// out\n        /* \"#utility.yul\":5060:5426   */\n    tag_272:\n        /* \"#utility.yul\":5202:5205   */\n      0x00\n        /* \"#utility.yul\":5223:5290   */\n      tag_274\n        /* \"#utility.yul\":5287:5289   */\n      0x21\n        /* \"#utility.yul\":5282:5285   */\n      dup4\n        /* \"#utility.yul\":5223:5290   */\n      tag_229\n      jump\t// in\n    tag_274:\n        /* \"#utility.yul\":5216:5290   */\n      swap2\n      pop\n        /* \"#utility.yul\":5299:5392   */\n      tag_275\n        /* \"#utility.yul\":5388:5391   */\n      dup3\n        /* \"#utility.yul\":5299:5392   */\n      tag_276\n      jump\t// in\n    tag_275:\n        /* \"#utility.yul\":5417:5419   */\n      0x40\n        /* \"#utility.yul\":5412:5415   */\n      dup3\n        /* \"#utility.yul\":5408:5420   */\n      add\n        /* \"#utility.yul\":5401:5420   */\n      swap1\n      pop\n        /* \"#utility.yul\":5060:5426   */\n      swap2\n      swap1\n      pop\n      jump\t// out\n        /* \"#utility.yul\":5432:5798   */\n    tag_277:\n        /* \"#utility.yul\":5574:5577   */\n      0x00\n        /* \"#utility.yul\":5595:5662   */\n      tag_279\n        /* \"#utility.yul\":5659:5661   */\n      0x16\n        /* \"#utility.yul\":5654:5657   */\n      dup4\n        /* \"#utility.yul\":5595:5662   */\n      tag_229\n      jump\t// in\n    tag_279:\n        /* \"#utility.yul\":5588:5662   */\n      swap2\n      pop\n        /* \"#utility.yul\":5671:5764   */\n      tag_280\n        /* \"#utility.yul\":5760:5763   */\n      dup3\n        /* \"#utility.yul\":5671:5764   */\n      tag_281\n      jump\t// in\n    tag_280:\n        /* \"#utility.yul\":5789:5791   */\n      0x20\n        /* \"#utility.yul\":5784:5787   */\n      dup3\n        /* \"#utility.yul\":5780:5792   */\n      add\n        /* \"#utility.yul\":5773:5792   */\n      swap1\n      pop\n        /* \"#utility.yul\":5432:5798   */\n      swap2\n      swap1\n      pop\n      jump\t// out\n        /* \"#utility.yul\":5804:6170   */\n    tag_282:\n        /* \"#utility.yul\":5946:5949   */\n      0x00\n        /* \"#utility.yul\":5967:6034   */\n      tag_284\n        /* \"#utility.yul\":6031:6033   */\n      0x2d\n        /* \"#utility.yul\":6026:6029   */\n      dup4\n        /* \"#utility.yul\":5967:6034   */\n      tag_229\n      jump\t// in\n    tag_284:\n        /* \"#utility.yul\":5960:6034   */\n      swap2\n      pop\n        /* \"#utility.yul\":6043:6136   */\n      tag_285\n        /* \"#utility.yul\":6132:6135   */\n      dup3\n        /* \"#utility.yul\":6043:6136   */\n      tag_286\n      jump\t// in\n    tag_285:\n        /* \"#utility.yul\":6161:6163   */\n      0x40\n        /* \"#utility.yul\":6156:6159   */\n      dup3\n        /* \"#utility.yul\":6152:6164   */\n      add\n        /* \"#utility.yul\":6145:6164   */\n      swap1\n      pop\n        /* \"#utility.yul\":5804:6170   */\n      swap2\n      swap1\n      pop\n      jump\t// out\n        /* \"#utility.yul\":6176:6294   */\n    tag_287:\n        /* \"#utility.yul\":6263:6287   */\n      tag_289\n        /* \"#utility.yul\":6281:6286   */\n      dup2\n        /* \"#utility.yul\":6263:6287   */\n      tag_290\n      jump\t// in\n    tag_289:\n        /* \"#utility.yul\":6258:6261   */\n      dup3\n        /* \"#utility.yul\":6251:6288   */\n      mstore\n        /* \"#utility.yul\":6176:6294   */\n      pop\n      pop\n      jump\t// out\n        /* \"#utility.yul\":6300:6522   */\n    tag_130:\n        /* \"#utility.yul\":6393:6397   */\n      0x00\n        /* \"#utility.yul\":6431:6433   */\n      0x20\n        /* \"#utility.yul\":6420:6429   */\n      dup3\n        /* \"#utility.yul\":6416:6434   */\n      add\n        /* \"#utility.yul\":6408:6434   */\n      swap1\n      pop\n        /* \"#utility.yul\":6444:6515   */\n      tag_292\n        /* \"#utility.yul\":6512:6513   */\n      0x00\n        /* \"#utility.yul\":6501:6510   */\n      dup4\n        /* \"#utility.yul\":6497:6514   */\n      add\n        /* \"#utility.yul\":6488:6494   */\n      dup5\n        /* \"#utility.yul\":6444:6515   */\n      tag_218\n      jump\t// in\n    tag_292:\n        /* \"#utility.yul\":6300:6522   */\n      swap3\n      swap2\n      pop\n      pop\n      jump\t// out\n        /* \"#utility.yul\":6528:6738   */\n    tag_34:\n        /* \"#utility.yul\":6615:6619   */\n      0x00\n        /* \"#utility.yul\":6653:6655   */\n      0x20\n        /* \"#utility.yul\":6642:6651   */\n      dup3\n        /* \"#utility.yul\":6638:6656   */\n      add\n        /* \"#utility.yul\":6630:6656   */\n      swap1\n      pop\n        /* \"#utility.yul\":6666:6731   */\n      tag_294\n        /* \"#utility.yul\":6728:6729   */\n      0x00\n        /* \"#utility.yul\":6717:6726   */\n      dup4\n        /* \"#utility.yul\":6713:6730   */\n      add\n        /* \"#utility.yul\":6704:6710   */\n      dup5\n        /* \"#utility.yul\":6666:6731   */\n      tag_222\n      jump\t// in\n    tag_294:\n        /* \"#utility.yul\":6528:6738   */\n      swap3\n      swap2\n      pop\n      pop\n      jump\t// out\n        /* \"#utility.yul\":6744:7163   */\n    tag_99:\n        /* \"#utility.yul\":6910:6914   */\n      0x00\n        /* \"#utility.yul\":6948:6950   */\n      0x20\n        /* \"#utility.yul\":6937:6946   */\n      dup3\n        /* \"#utility.yul\":6933:6951   */\n      add\n        /* \"#utility.yul\":6925:6951   */\n      swap1\n      pop\n        /* \"#utility.yul\":6997:7006   */\n      dup2\n        /* \"#utility.yul\":6991:6995   */\n      dup2\n        /* \"#utility.yul\":6987:7007   */\n      sub\n        /* \"#utility.yul\":6983:6984   */\n      0x00\n        /* \"#utility.yul\":6972:6981   */\n      dup4\n        /* \"#utility.yul\":6968:6985   */\n      add\n        /* \"#utility.yul\":6961:7008   */\n      mstore\n        /* \"#utility.yul\":7025:7156   */\n      tag_296\n        /* \"#utility.yul\":7151:7155   */\n      dup2\n        /* \"#utility.yul\":7025:7156   */\n      tag_226\n      jump\t// in\n    tag_296:\n        /* \"#utility.yul\":7017:7156   */\n      swap1\n      pop\n        /* \"#utility.yul\":6744:7163   */\n      swap2\n      swap1\n      pop\n      jump\t// out\n        /* \"#utility.yul\":7169:7588   */\n    tag_91:\n        /* \"#utility.yul\":7335:7339   */\n      0x00\n        /* \"#utility.yul\":7373:7375   */\n      0x20\n        /* \"#utility.yul\":7362:7371   */\n      dup3\n        /* \"#utility.yul\":7358:7376   */\n      add\n        /* \"#utility.yul\":7350:7376   */\n      swap1\n      pop\n        /* \"#utility.yul\":7422:7431   */\n      dup2\n        /* \"#utility.yul\":7416:7420   */\n      dup2\n        /* \"#utility.yul\":7412:7432   */\n      sub\n        /* \"#utility.yul\":7408:7409   */\n      0x00\n        /* \"#utility.yul\":7397:7406   */\n      dup4\n        /* \"#utility.yul\":7393:7410   */\n      add\n        /* \"#utility.yul\":7386:7433   */\n      mstore\n        /* \"#utility.yul\":7450:7581   */\n      tag_298\n        /* \"#utility.yul\":7576:7580   */\n      dup2\n        /* \"#utility.yul\":7450:7581   */\n      tag_232\n      jump\t// in\n    tag_298:\n        /* \"#utility.yul\":7442:7581   */\n      swap1\n      pop\n        /* \"#utility.yul\":7169:7588   */\n      swap2\n      swap1\n      pop\n      jump\t// out\n        /* \"#utility.yul\":7594:8013   */\n    tag_192:\n        /* \"#utility.yul\":7760:7764   */\n      0x00\n        /* \"#utility.yul\":7798:7800   */\n      0x20\n        /* \"#utility.yul\":7787:7796   */\n      dup3\n        /* \"#utility.yul\":7783:7801   */\n      add\n        /* \"#utility.yul\":7775:7801   */\n      swap1\n      pop\n        /* \"#utility.yul\":7847:7856   */\n      dup2\n        /* \"#utility.yul\":7841:7845   */\n      dup2\n        /* \"#utility.yul\":7837:7857   */\n      sub\n        /* \"#utility.yul\":7833:7834   */\n      0x00\n        /* \"#utility.yul\":7822:7831   */\n      dup4\n        /* \"#utility.yul\":7818:7835   */\n      add\n        /* \"#utility.yul\":7811:7858   */\n      mstore\n        /* \"#utility.yul\":7875:8006   */\n      tag_300\n        /* \"#utility.yul\":8001:8005   */\n      dup2\n        /* \"#utility.yul\":7875:8006   */\n      tag_237\n      jump\t// in\n    tag_300:\n        /* \"#utility.yul\":7867:8006   */\n      swap1\n      pop\n        /* \"#utility.yul\":7594:8013   */\n      swap2\n      swap1\n      pop\n      jump\t// out\n        /* \"#utility.yul\":8019:8438   */\n    tag_120:\n        /* \"#utility.yul\":8185:8189   */\n      0x00\n        /* \"#utility.yul\":8223:8225   */\n      0x20\n        /* \"#utility.yul\":8212:8221   */\n      dup3\n        /* \"#utility.yul\":8208:8226   */\n      add\n        /* \"#utility.yul\":8200:8226   */\n      swap1\n      pop\n        /* \"#utility.yul\":8272:8281   */\n      dup2\n        /* \"#utility.yul\":8266:8270   */\n      dup2\n        /* \"#utility.yul\":8262:8282   */\n      sub\n        /* \"#utility.yul\":8258:8259   */\n      0x00\n        /* \"#utility.yul\":8247:8256   */\n      dup4\n        /* \"#utility.yul\":8243:8260   */\n      add\n        /* \"#utility.yul\":8236:8283   */\n      mstore\n        /* \"#utility.yul\":8300:8431   */\n      tag_302\n        /* \"#utility.yul\":8426:8430   */\n      dup2\n        /* \"#utility.yul\":8300:8431   */\n      tag_242\n      jump\t// in\n    tag_302:\n        /* \"#utility.yul\":8292:8431   */\n      swap1\n      pop\n        /* \"#utility.yul\":8019:8438   */\n      swap2\n      swap1\n      pop\n      jump\t// out\n        /* \"#utility.yul\":8444:8863   */\n    tag_113:\n        /* \"#utility.yul\":8610:8614   */\n      0x00\n        /* \"#utility.yul\":8648:8650   */\n      0x20\n        /* \"#utility.yul\":8637:8646   */\n      dup3\n        /* \"#utility.yul\":8633:8651   */\n      add\n        /* \"#utility.yul\":8625:8651   */\n      swap1\n      pop\n        /* \"#utility.yul\":8697:8706   */\n      dup2\n        /* \"#utility.yul\":8691:8695   */\n      dup2\n        /* \"#utility.yul\":8687:8707   */\n      sub\n        /* \"#utility.yul\":8683:8684   */\n      0x00\n        /* \"#utility.yul\":8672:8681   */\n      dup4\n        /* \"#utility.yul\":8668:8685   */\n      add\n        /* \"#utility.yul\":8661:8708   */\n      mstore\n        /* \"#utility.yul\":8725:8856   */\n      tag_304\n        /* \"#utility.yul\":8851:8855   */\n      dup2\n        /* \"#utility.yul\":8725:8856   */\n      tag_247\n      jump\t// in\n    tag_304:\n        /* \"#utility.yul\":8717:8856   */\n      swap1\n      pop\n        /* \"#utility.yul\":8444:8863   */\n      swap2\n      swap1\n      pop\n      jump\t// out\n        /* \"#utility.yul\":8869:9288   */\n    tag_78:\n        /* \"#utility.yul\":9035:9039   */\n      0x00\n        /* \"#utility.yul\":9073:9075   */\n      0x20\n        /* \"#utility.yul\":9062:9071   */\n      dup3\n        /* \"#utility.yul\":9058:9076   */\n      add\n        /* \"#utility.yul\":9050:9076   */\n      swap1\n      pop\n        /* \"#utility.yul\":9122:9131   */\n      dup2\n        /* \"#utility.yul\":9116:9120   */\n      dup2\n        /* \"#utility.yul\":9112:9132   */\n      sub\n        /* \"#utility.yul\":9108:9109   */\n      0x00\n        /* \"#utility.yul\":9097:9106   */\n      dup4\n        /* \"#utility.yul\":9093:9110   */\n      add\n        /* \"#utility.yul\":9086:9133   */\n      mstore\n        /* \"#utility.yul\":9150:9281   */\n      tag_306\n        /* \"#utility.yul\":9276:9280   */\n      dup2\n        /* \"#utility.yul\":9150:9281   */\n      tag_252\n      jump\t// in\n    tag_306:\n        /* \"#utility.yul\":9142:9281   */\n      swap1\n      pop\n        /* \"#utility.yul\":8869:9288   */\n      swap2\n      swap1\n      pop\n      jump\t// out\n        /* \"#utility.yul\":9294:9713   */\n    tag_124:\n        /* \"#utility.yul\":9460:9464   */\n      0x00\n        /* \"#utility.yul\":9498:9500   */\n      0x20\n        /* \"#utility.yul\":9487:9496   */\n      dup3\n        /* \"#utility.yul\":9483:9501   */\n      add\n        /* \"#utility.yul\":9475:9501   */\n      swap1\n      pop\n        /* \"#utility.yul\":9547:9556   */\n      dup2\n        /* \"#utility.yul\":9541:9545   */\n      dup2\n        /* \"#utility.yul\":9537:9557   */\n      sub\n        /* \"#utility.yul\":9533:9534   */\n      0x00\n        /* \"#utility.yul\":9522:9531   */\n      dup4\n        /* \"#utility.yul\":9518:9535   */\n      add\n        /* \"#utility.yul\":9511:9558   */\n      mstore\n        /* \"#utility.yul\":9575:9706   */\n      tag_308\n        /* \"#utility.yul\":9701:9705   */\n      dup2\n        /* \"#utility.yul\":9575:9706   */\n      tag_257\n      jump\t// in\n    tag_308:\n        /* \"#utility.yul\":9567:9706   */\n      swap1\n      pop\n        /* \"#utility.yul\":9294:9713   */\n      swap2\n      swap1\n      pop\n      jump\t// out\n        /* \"#utility.yul\":9719:10138   */\n    tag_183:\n        /* \"#utility.yul\":9885:9889   */\n      0x00\n        /* \"#utility.yul\":9923:9925   */\n      0x20\n        /* \"#utility.yul\":9912:9921   */\n      dup3\n        /* \"#utility.yul\":9908:9926   */\n      add\n        /* \"#utility.yul\":9900:9926   */\n      swap1\n      pop\n        /* \"#utility.yul\":9972:9981   */\n      dup2\n        /* \"#utility.yul\":9966:9970   */\n      dup2\n        /* \"#utility.yul\":9962:9982   */\n      sub\n        /* \"#utility.yul\":9958:9959   */\n      0x00\n        /* \"#utility.yul\":9947:9956   */\n      dup4\n        /* \"#utility.yul\":9943:9960   */\n      add\n        /* \"#utility.yul\":9936:9983   */\n      mstore\n        /* \"#utility.yul\":10000:10131   */\n      tag_310\n        /* \"#utility.yul\":10126:10130   */\n      dup2\n        /* \"#utility.yul\":10000:10131   */\n      tag_262\n      jump\t// in\n    tag_310:\n        /* \"#utility.yul\":9992:10131   */\n      swap1\n      pop\n        /* \"#utility.yul\":9719:10138   */\n      swap2\n      swap1\n      pop\n      jump\t// out\n        /* \"#utility.yul\":10144:10563   */\n    tag_116:\n        /* \"#utility.yul\":10310:10314   */\n      0x00\n        /* \"#utility.yul\":10348:10350   */\n      0x20\n        /* \"#utility.yul\":10337:10346   */\n      dup3\n        /* \"#utility.yul\":10333:10351   */\n      add\n        /* \"#utility.yul\":10325:10351   */\n      swap1\n      pop\n        /* \"#utility.yul\":10397:10406   */\n      dup2\n        /* \"#utility.yul\":10391:10395   */\n      dup2\n        /* \"#utility.yul\":10387:10407   */\n      sub\n        /* \"#utility.yul\":10383:10384   */\n      0x00\n        /* \"#utility.yul\":10372:10381   */\n      dup4\n        /* \"#utility.yul\":10368:10385   */\n      add\n        /* \"#utility.yul\":10361:10408   */\n      mstore\n        /* \"#utility.yul\":10425:10556   */\n      tag_312\n        /* \"#utility.yul\":10551:10555   */\n      dup2\n        /* \"#utility.yul\":10425:10556   */\n      tag_267\n      jump\t// in\n    tag_312:\n        /* \"#utility.yul\":10417:10556   */\n      swap1\n      pop\n        /* \"#utility.yul\":10144:10563   */\n      swap2\n      swap1\n      pop\n      jump\t// out\n        /* \"#utility.yul\":10569:10988   */\n    tag_180:\n        /* \"#utility.yul\":10735:10739   */\n      0x00\n        /* \"#utility.yul\":10773:10775   */\n      0x20\n        /* \"#utility.yul\":10762:10771   */\n      dup3\n        /* \"#utility.yul\":10758:10776   */\n      add\n        /* \"#utility.yul\":10750:10776   */\n      swap1\n      pop\n        /* \"#utility.yul\":10822:10831   */\n      dup2\n        /* \"#utility.yul\":10816:10820   */\n      dup2\n        /* \"#utility.yul\":10812:10832   */\n      sub\n        /* \"#utility.yul\":10808:10809   */\n      0x00\n        /* \"#utility.yul\":10797:10806   */\n      dup4\n        /* \"#utility.yul\":10793:10810   */\n      add\n        /* \"#utility.yul\":10786:10833   */\n      mstore\n        /* \"#utility.yul\":10850:10981   */\n      tag_314\n        /* \"#utility.yul\":10976:10980   */\n      dup2\n        /* \"#utility.yul\":10850:10981   */\n      tag_272\n      jump\t// in\n    tag_314:\n        /* \"#utility.yul\":10842:10981   */\n      swap1\n      pop\n        /* \"#utility.yul\":10569:10988   */\n      swap2\n      swap1\n      pop\n      jump\t// out\n        /* \"#utility.yul\":10994:11413   */\n    tag_105:\n        /* \"#utility.yul\":11160:11164   */\n      0x00\n        /* \"#utility.yul\":11198:11200   */\n      0x20\n        /* \"#utility.yul\":11187:11196   */\n      dup3\n        /* \"#utility.yul\":11183:11201   */\n      add\n        /* \"#utility.yul\":11175:11201   */\n      swap1\n      pop\n        /* \"#utility.yul\":11247:11256   */\n      dup2\n        /* \"#utility.yul\":11241:11245   */\n      dup2\n        /* \"#utility.yul\":11237:11257   */\n      sub\n        /* \"#utility.yul\":11233:11234   */\n      0x00\n        /* \"#utility.yul\":11222:11231   */\n      dup4\n        /* \"#utility.yul\":11218:11235   */\n      add\n        /* \"#utility.yul\":11211:11258   */\n      mstore\n        /* \"#utility.yul\":11275:11406   */\n      tag_316\n        /* \"#utility.yul\":11401:11405   */\n      dup2\n        /* \"#utility.yul\":11275:11406   */\n      tag_277\n      jump\t// in\n    tag_316:\n        /* \"#utility.yul\":11267:11406   */\n      swap1\n      pop\n        /* \"#utility.yul\":10994:11413   */\n      swap2\n      swap1\n      pop\n      jump\t// out\n        /* \"#utility.yul\":11419:11838   */\n    tag_153:\n        /* \"#utility.yul\":11585:11589   */\n      0x00\n        /* \"#utility.yul\":11623:11625   */\n      0x20\n        /* \"#utility.yul\":11612:11621   */\n      dup3\n        /* \"#utility.yul\":11608:11626   */\n      add\n        /* \"#utility.yul\":11600:11626   */\n      swap1\n      pop\n        /* \"#utility.yul\":11672:11681   */\n      dup2\n        /* \"#utility.yul\":11666:11670   */\n      dup2\n        /* \"#utility.yul\":11662:11682   */\n      sub\n        /* \"#utility.yul\":11658:11659   */\n      0x00\n        /* \"#utility.yul\":11647:11656   */\n      dup4\n        /* \"#utility.yul\":11643:11660   */\n      add\n        /* \"#utility.yul\":11636:11683   */\n      mstore\n        /* \"#utility.yul\":11700:11831   */\n      tag_318\n        /* \"#utility.yul\":11826:11830   */\n      dup2\n        /* \"#utility.yul\":11700:11831   */\n      tag_282\n      jump\t// in\n    tag_318:\n        /* \"#utility.yul\":11692:11831   */\n      swap1\n      pop\n        /* \"#utility.yul\":11419:11838   */\n      swap2\n      swap1\n      pop\n      jump\t// out\n        /* \"#utility.yul\":11844:12066   */\n    tag_28:\n        /* \"#utility.yul\":11937:11941   */\n      0x00\n        /* \"#utility.yul\":11975:11977   */\n      0x20\n        /* \"#utility.yul\":11964:11973   */\n      dup3\n        /* \"#utility.yul\":11960:11978   */\n      add\n        /* \"#utility.yul\":11952:11978   */\n      swap1\n      pop\n        /* \"#utility.yul\":11988:12059   */\n      tag_320\n        /* \"#utility.yul\":12056:12057   */\n      0x00\n        /* \"#utility.yul\":12045:12054   */\n      dup4\n        /* \"#utility.yul\":12041:12058   */\n      add\n        /* \"#utility.yul\":12032:12038   */\n      dup5\n        /* \"#utility.yul\":11988:12059   */\n      tag_287\n      jump\t// in\n    tag_320:\n        /* \"#utility.yul\":11844:12066   */\n      swap3\n      swap2\n      pop\n      pop\n      jump\t// out\n        /* \"#utility.yul\":12153:12322   */\n    tag_229:\n        /* \"#utility.yul\":12237:12248   */\n      0x00\n        /* \"#utility.yul\":12271:12277   */\n      dup3\n        /* \"#utility.yul\":12266:12269   */\n      dup3\n        /* \"#utility.yul\":12259:12278   */\n      mstore\n        /* \"#utility.yul\":12311:12315   */\n      0x20\n        /* \"#utility.yul\":12306:12309   */\n      dup3\n        /* \"#utility.yul\":12302:12316   */\n      add\n        /* \"#utility.yul\":12287:12316   */\n      swap1\n      pop\n        /* \"#utility.yul\":12153:12322   */\n      swap3\n      swap2\n      pop\n      pop\n      jump\t// out\n        /* \"#utility.yul\":12328:12633   */\n    tag_101:\n        /* \"#utility.yul\":12368:12371   */\n      0x00\n        /* \"#utility.yul\":12387:12407   */\n      tag_325\n        /* \"#utility.yul\":12405:12406   */\n      dup3\n        /* \"#utility.yul\":12387:12407   */\n      tag_290\n      jump\t// in\n    tag_325:\n        /* \"#utility.yul\":12382:12407   */\n      swap2\n      pop\n        /* \"#utility.yul\":12421:12441   */\n      tag_326\n        /* \"#utility.yul\":12439:12440   */\n      dup4\n        /* \"#utility.yul\":12421:12441   */\n      tag_290\n      jump\t// in\n    tag_326:\n        /* \"#utility.yul\":12416:12441   */\n      swap3\n      pop\n        /* \"#utility.yul\":12575:12576   */\n      dup3\n        /* \"#utility.yul\":12507:12573   */\n      0xffffffffffffffffffffffffffffffffffffffffffffffffffffffffffffffff\n        /* \"#utility.yul\":12503:12577   */\n      sub\n        /* \"#utility.yul\":12500:12501   */\n      dup3\n        /* \"#utility.yul\":12497:12578   */\n      gt\n        /* \"#utility.yul\":12494:12601   */\n      iszero\n      tag_327\n      jumpi\n        /* \"#utility.yul\":12581:12599   */\n      tag_328\n      tag_329\n      jump\t// in\n    tag_328:\n        /* \"#utility.yul\":12494:12601   */\n    tag_327:\n        /* \"#utility.yul\":12625:12626   */\n      dup3\n        /* \"#utility.yul\":12622:12623   */\n      dup3\n        /* \"#utility.yul\":12618:12627   */\n      add\n        /* \"#utility.yul\":12611:12627   */\n      swap1\n      pop\n        /* \"#utility.yul\":12328:12633   */\n      swap3\n      swap2\n      pop\n      pop\n      jump\t// out\n        /* \"#utility.yul\":12639:12824   */\n    tag_81:\n        /* \"#utility.yul\":12679:12680   */\n      0x00\n        /* \"#utility.yul\":12696:12716   */\n      tag_331\n        /* \"#utility.yul\":12714:12715   */\n      dup3\n        /* \"#utility.yul\":12696:12716   */\n      tag_290\n      jump\t// in\n    tag_331:\n        /* \"#utility.yul\":12691:12716   */\n      swap2\n      pop\n        /* \"#utility.yul\":12730:12750   */\n      tag_332\n        /* \"#utility.yul\":12748:12749   */\n      dup4\n        /* \"#utility.yul\":12730:12750   */\n      tag_290\n      jump\t// in\n    tag_332:\n        /* \"#utility.yul\":12725:12750   */\n      swap3\n      pop\n        /* \"#utility.yul\":12769:12770   */\n      dup3\n        /* \"#utility.yul\":12759:12794   */\n      tag_333\n      jumpi\n        /* \"#utility.yul\":12774:12792   */\n      tag_334\n      tag_335\n      jump\t// in\n    tag_334:\n        /* \"#utility.yul\":12759:12794   */\n    tag_333:\n        /* \"#utility.yul\":12816:12817   */\n      dup3\n        /* \"#utility.yul\":12813:12814   */\n      dup3\n        /* \"#utility.yul\":12809:12818   */\n      div\n        /* \"#utility.yul\":12804:12818   */\n      swap1\n      pop\n        /* \"#utility.yul\":12639:12824   */\n      swap3\n      swap2\n      pop\n      pop\n      jump\t// out\n        /* \"#utility.yul\":12830:13178   */\n    tag_83:\n        /* \"#utility.yul\":12870:12877   */\n      0x00\n        /* \"#utility.yul\":12893:12913   */\n      tag_337\n        /* \"#utility.yul\":12911:12912   */\n      dup3\n        /* \"#utility.yul\":12893:12913   */\n      tag_290\n      jump\t// in\n    tag_337:\n        /* \"#utility.yul\":12888:12913   */\n      swap2\n      pop\n        /* \"#utility.yul\":12927:12947   */\n      tag_338\n        /* \"#utility.yul\":12945:12946   */\n      dup4\n        /* \"#utility.yul\":12927:12947   */\n      tag_290\n      jump\t// in\n    tag_338:\n        /* \"#utility.yul\":12922:12947   */\n      swap3\n      pop\n        /* \"#utility.yul\":13115:13116   */\n      dup2\n        /* \"#utility.yul\":13047:13113   */\n      0xffffffffffffffffffffffffffffffffffffffffffffffffffffffffffffffff\n        /* \"#utility.yul\":13043:13117   */\n      div\n        /* \"#utility.yul\":13040:13041   */\n      dup4\n        /* \"#utility.yul\":13037:13118   */\n      gt\n        /* \"#utility.yul\":13032:13033   */\n      dup3\n        /* \"#utility.yul\":13025:13034   */\n      iszero\n        /* \"#utility.yul\":13018:13035   */\n      iszero\n        /* \"#utility.yul\":13014:13119   */\n      and\n        /* \"#utility.yul\":13011:13142   */\n      iszero\n      tag_339\n      jumpi\n        /* \"#utility.yul\":13122:13140   */\n      tag_340\n      tag_329\n      jump\t// in\n    tag_340:\n        /* \"#utility.yul\":13011:13142   */\n    tag_339:\n        /* \"#utility.yul\":13170:13171   */\n      dup3\n        /* \"#utility.yul\":13167:13168   */\n      dup3\n        /* \"#utility.yul\":13163:13172   */\n      mul\n        /* \"#utility.yul\":13152:13172   */\n      swap1\n      pop\n        /* \"#utility.yul\":12830:13178   */\n      swap3\n      swap2\n      pop\n      pop\n      jump\t// out\n        /* \"#utility.yul\":13184:13375   */\n    tag_173:\n        /* \"#utility.yul\":13224:13228   */\n      0x00\n        /* \"#utility.yul\":13244:13264   */\n      tag_342\n        /* \"#utility.yul\":13262:13263   */\n      dup3\n        /* \"#utility.yul\":13244:13264   */\n      tag_290\n      jump\t// in\n    tag_342:\n        /* \"#utility.yul\":13239:13264   */\n      swap2\n      pop\n        /* \"#utility.yul\":13278:13298   */\n      tag_343\n        /* \"#utility.yul\":13296:13297   */\n      dup4\n        /* \"#utility.yul\":13278:13298   */\n      tag_290\n      jump\t// in\n    tag_343:\n        /* \"#utility.yul\":13273:13298   */\n      swap3\n      pop\n        /* \"#utility.yul\":13317:13318   */\n      dup3\n        /* \"#utility.yul\":13314:13315   */\n      dup3\n        /* \"#utility.yul\":13311:13319   */\n      lt\n        /* \"#utility.yul\":13308:13342   */\n      iszero\n      tag_344\n      jumpi\n        /* \"#utility.yul\":13322:13340   */\n      tag_345\n      tag_329\n      jump\t// in\n    tag_345:\n        /* \"#utility.yul\":13308:13342   */\n    tag_344:\n        /* \"#utility.yul\":13367:13368   */\n      dup3\n        /* \"#utility.yul\":13364:13365   */\n      dup3\n        /* \"#utility.yul\":13360:13369   */\n      sub\n        /* \"#utility.yul\":13352:13369   */\n      swap1\n      pop\n        /* \"#utility.yul\":13184:13375   */\n      swap3\n      swap2\n      pop\n      pop\n      jump\t// out\n        /* \"#utility.yul\":13381:13477   */\n    tag_221:\n        /* \"#utility.yul\":13418:13425   */\n      0x00\n        /* \"#utility.yul\":13447:13471   */\n      tag_347\n        /* \"#utility.yul\":13465:13470   */\n      dup3\n        /* \"#utility.yul\":13447:13471   */\n      tag_348\n      jump\t// in\n    tag_347:\n        /* \"#utility.yul\":13436:13471   */\n      swap1\n      pop\n        /* \"#utility.yul\":13381:13477   */\n      swap2\n      swap1\n      pop\n      jump\t// out\n        /* \"#utility.yul\":13483:13573   */\n    tag_225:\n        /* \"#utility.yul\":13517:13524   */\n      0x00\n        /* \"#utility.yul\":13560:13565   */\n      dup2\n        /* \"#utility.yul\":13553:13566   */\n      iszero\n        /* \"#utility.yul\":13546:13567   */\n      iszero\n        /* \"#utility.yul\":13535:13567   */\n      swap1\n      pop\n        /* \"#utility.yul\":13483:13573   */\n      swap2\n      swap1\n      pop\n      jump\t// out\n        /* \"#utility.yul\":13579:13705   */\n    tag_348:\n        /* \"#utility.yul\":13616:13623   */\n      0x00\n        /* \"#utility.yul\":13656:13698   */\n      0xffffffffffffffffffffffffffffffffffffffff\n        /* \"#utility.yul\":13649:13654   */\n      dup3\n        /* \"#utility.yul\":13645:13699   */\n      and\n        /* \"#utility.yul\":13634:13699   */\n      swap1\n      pop\n        /* \"#utility.yul\":13579:13705   */\n      swap2\n      swap1\n      pop\n      jump\t// out\n        /* \"#utility.yul\":13711:13788   */\n    tag_290:\n        /* \"#utility.yul\":13748:13755   */\n      0x00\n        /* \"#utility.yul\":13777:13782   */\n      dup2\n        /* \"#utility.yul\":13766:13782   */\n      swap1\n      pop\n        /* \"#utility.yul\":13711:13788   */\n      swap2\n      swap1\n      pop\n      jump\t// out\n        /* \"#utility.yul\":13794:13974   */\n    tag_329:\n        /* \"#utility.yul\":13842:13919   */\n      0x4e487b7100000000000000000000000000000000000000000000000000000000\n        /* \"#utility.yul\":13839:13840   */\n      0x00\n        /* \"#utility.yul\":13832:13920   */\n      mstore\n        /* \"#utility.yul\":13939:13943   */\n      0x11\n        /* \"#utility.yul\":13936:13937   */\n      0x04\n        /* \"#utility.yul\":13929:13944   */\n      mstore\n        /* \"#utility.yul\":13963:13967   */\n      0x24\n        /* \"#utility.yul\":13960:13961   */\n      0x00\n        /* \"#utility.yul\":13953:13968   */\n      revert\n        /* \"#utility.yul\":13980:14160   */\n    tag_335:\n        /* \"#utility.yul\":14028:14105   */\n      0x4e487b7100000000000000000000000000000000000000000000000000000000\n        /* \"#utility.yul\":14025:14026   */\n      0x00\n        /* \"#utility.yul\":14018:14106   */\n      mstore\n        /* \"#utility.yul\":14125:14129   */\n      0x12\n        /* \"#utility.yul\":14122:14123   */\n      0x04\n        /* \"#utility.yul\":14115:14130   */\n      mstore\n        /* \"#utility.yul\":14149:14153   */\n      0x24\n        /* \"#utility.yul\":14146:14147   */\n      0x00\n        /* \"#utility.yul\":14139:14154   */\n      revert\n        /* \"#utility.yul\":14289:14406   */\n    tag_208:\n        /* \"#utility.yul\":14398:14399   */\n      0x00\n        /* \"#utility.yul\":14395:14396   */\n      dup1\n        /* \"#utility.yul\":14388:14400   */\n      revert\n        /* \"#utility.yul\":14412:14648   */\n    tag_231:\n        /* \"#utility.yul\":14552:14586   */\n      0x596f75206861766520696e73756666696369656e742066756e64732c20747261\n        /* \"#utility.yul\":14548:14549   */\n      0x00\n        /* \"#utility.yul\":14540:14546   */\n      dup3\n        /* \"#utility.yul\":14536:14550   */\n      add\n        /* \"#utility.yul\":14529:14587   */\n      mstore\n        /* \"#utility.yul\":14621:14640   */\n      0x6e73616374696f6e2072656a6563746564000000000000000000000000000000\n        /* \"#utility.yul\":14616:14618   */\n      0x20\n        /* \"#utility.yul\":14608:14614   */\n      dup3\n        /* \"#utility.yul\":14604:14619   */\n      add\n        /* \"#utility.yul\":14597:14641   */\n      mstore\n        /* \"#utility.yul\":14412:14648   */\n      pop\n      jump\t// out\n        /* \"#utility.yul\":14654:14824   */\n    tag_236:\n        /* \"#utility.yul\":14794:14816   */\n      0x596f7520617265206e6f74207665726966696564000000000000000000000000\n        /* \"#utility.yul\":14790:14791   */\n      0x00\n        /* \"#utility.yul\":14782:14788   */\n      dup3\n        /* \"#utility.yul\":14778:14792   */\n      add\n        /* \"#utility.yul\":14771:14817   */\n      mstore\n        /* \"#utility.yul\":14654:14824   */\n      pop\n      jump\t// out\n        /* \"#utility.yul\":14830:15072   */\n    tag_241:\n        /* \"#utility.yul\":14970:15004   */\n      0x43616e6e6f742072656d6f766520616e20616464726573732074686174206973\n        /* \"#utility.yul\":14966:14967   */\n      0x00\n        /* \"#utility.yul\":14958:14964   */\n      dup3\n        /* \"#utility.yul\":14954:14968   */\n      add\n        /* \"#utility.yul\":14947:15005   */\n      mstore\n        /* \"#utility.yul\":15039:15064   */\n      0x206e6f7420616c72656164792061207665726966696572000000000000000000\n        /* \"#utility.yul\":15034:15036   */\n      0x20\n        /* \"#utility.yul\":15026:15032   */\n      dup3\n        /* \"#utility.yul\":15022:15037   */\n      add\n        /* \"#utility.yul\":15015:15065   */\n      mstore\n        /* \"#utility.yul\":14830:15072   */\n      pop\n      jump\t// out\n        /* \"#utility.yul\":15078:15248   */\n    tag_246:\n        /* \"#utility.yul\":15218:15240   */\n      0x596f7520617265206e6f7420616e2061646d696e000000000000000000000000\n        /* \"#utility.yul\":15214:15215   */\n      0x00\n        /* \"#utility.yul\":15206:15212   */\n      dup3\n        /* \"#utility.yul\":15202:15216   */\n      add\n        /* \"#utility.yul\":15195:15241   */\n      mstore\n        /* \"#utility.yul\":15078:15248   */\n      pop\n      jump\t// out\n        /* \"#utility.yul\":15254:15434   */\n    tag_251:\n        /* \"#utility.yul\":15394:15426   */\n      0x43616e6e6f742076657269667920746865207a65726f20616464726573730000\n        /* \"#utility.yul\":15390:15391   */\n      0x00\n        /* \"#utility.yul\":15382:15388   */\n      dup3\n        /* \"#utility.yul\":15378:15392   */\n      add\n        /* \"#utility.yul\":15371:15427   */\n      mstore\n        /* \"#utility.yul\":15254:15434   */\n      pop\n      jump\t// out\n        /* \"#utility.yul\":15440:15663   */\n    tag_256:\n        /* \"#utility.yul\":15580:15614   */\n      0x43616e6e6f7420706572666f726d207a65726f207368617265206f7065726174\n        /* \"#utility.yul\":15576:15577   */\n      0x00\n        /* \"#utility.yul\":15568:15574   */\n      dup3\n        /* \"#utility.yul\":15564:15578   */\n      add\n        /* \"#utility.yul\":15557:15615   */\n      mstore\n        /* \"#utility.yul\":15649:15655   */\n      0x696f6e7300000000000000000000000000000000000000000000000000000000\n        /* \"#utility.yul\":15644:15646   */\n      0x20\n        /* \"#utility.yul\":15636:15642   */\n      dup3\n        /* \"#utility.yul\":15632:15647   */\n      add\n        /* \"#utility.yul\":15625:15656   */\n      mstore\n        /* \"#utility.yul\":15440:15663   */\n      pop\n      jump\t// out\n        /* \"#utility.yul\":15669:15903   */\n    tag_261:\n        /* \"#utility.yul\":15809:15843   */\n      0x5468697320616464726573732068617320616c7265616479206265656e206164\n        /* \"#utility.yul\":15805:15806   */\n      0x00\n        /* \"#utility.yul\":15797:15803   */\n      dup3\n        /* \"#utility.yul\":15793:15807   */\n      add\n        /* \"#utility.yul\":15786:15844   */\n      mstore\n        /* \"#utility.yul\":15878:15895   */\n      0x64656420617320616e2061646d696e0000000000000000000000000000000000\n        /* \"#utility.yul\":15873:15875   */\n      0x20\n        /* \"#utility.yul\":15865:15871   */\n      dup3\n        /* \"#utility.yul\":15861:15876   */\n      add\n        /* \"#utility.yul\":15854:15896   */\n      mstore\n        /* \"#utility.yul\":15669:15903   */\n      pop\n      jump\t// out\n        /* \"#utility.yul\":15909:16089   */\n    tag_266:\n        /* \"#utility.yul\":16049:16081   */\n      0x4164647265737320697320616c72656164792061207665726966696665720000\n        /* \"#utility.yul\":16045:16046   */\n      0x00\n        /* \"#utility.yul\":16037:16043   */\n      dup3\n        /* \"#utility.yul\":16033:16047   */\n      add\n        /* \"#utility.yul\":16026:16082   */\n      mstore\n        /* \"#utility.yul\":15909:16089   */\n      pop\n      jump\t// out\n        /* \"#utility.yul\":16095:16272   */\n    tag_271:\n        /* \"#utility.yul\":16235:16264   */\n      0x4164647265737320697320616c72656164792076657269666965640000000000\n        /* \"#utility.yul\":16231:16232   */\n      0x00\n        /* \"#utility.yul\":16223:16229   */\n      dup3\n        /* \"#utility.yul\":16219:16233   */\n      add\n        /* \"#utility.yul\":16212:16265   */\n      mstore\n        /* \"#utility.yul\":16095:16272   */\n      pop\n      jump\t// out\n        /* \"#utility.yul\":16278:16498   */\n    tag_276:\n        /* \"#utility.yul\":16418:16452   */\n      0x5a65726f20616464726573732063616e6e6f7420626520612076657269666965\n        /* \"#utility.yul\":16414:16415   */\n      0x00\n        /* \"#utility.yul\":16406:16412   */\n      dup3\n        /* \"#utility.yul\":16402:16416   */\n      add\n        /* \"#utility.yul\":16395:16453   */\n      mstore\n        /* \"#utility.yul\":16487:16490   */\n      0x7200000000000000000000000000000000000000000000000000000000000000\n        /* \"#utility.yul\":16482:16484   */\n      0x20\n        /* \"#utility.yul\":16474:16480   */\n      dup3\n        /* \"#utility.yul\":16470:16485   */\n      add\n        /* \"#utility.yul\":16463:16491   */\n      mstore\n        /* \"#utility.yul\":16278:16498   */\n      pop\n      jump\t// out\n        /* \"#utility.yul\":16504:16676   */\n    tag_281:\n        /* \"#utility.yul\":16644:16668   */\n      0x596f7520617265206e6f74206120766572696669657200000000000000000000\n        /* \"#utility.yul\":16640:16641   */\n      0x00\n        /* \"#utility.yul\":16632:16638   */\n      dup3\n        /* \"#utility.yul\":16628:16642   */\n      add\n        /* \"#utility.yul\":16621:16669   */\n      mstore\n        /* \"#utility.yul\":16504:16676   */\n      pop\n      jump\t// out\n        /* \"#utility.yul\":16682:16914   */\n    tag_286:\n        /* \"#utility.yul\":16822:16856   */\n      0x43616e27742072656d6f766520616e2061646472657373207768696368206973\n        /* \"#utility.yul\":16818:16819   */\n      0x00\n        /* \"#utility.yul\":16810:16816   */\n      dup3\n        /* \"#utility.yul\":16806:16820   */\n      add\n        /* \"#utility.yul\":16799:16857   */\n      mstore\n        /* \"#utility.yul\":16891:16906   */\n      0x206e6f7420616e2061646d696e00000000000000000000000000000000000000\n        /* \"#utility.yul\":16886:16888   */\n      0x20\n        /* \"#utility.yul\":16878:16884   */\n      dup3\n        /* \"#utility.yul\":16874:16889   */\n      add\n        /* \"#utility.yul\":16867:16907   */\n      mstore\n        /* \"#utility.yul\":16682:16914   */\n      pop\n      jump\t// out\n        /* \"#utility.yul\":16920:17042   */\n    tag_197:\n        /* \"#utility.yul\":16993:17017   */\n      tag_370\n        /* \"#utility.yul\":17011:17016   */\n      dup2\n        /* \"#utility.yul\":16993:17017   */\n      tag_221\n      jump\t// in\n    tag_370:\n        /* \"#utility.yul\":16986:16991   */\n      dup2\n        /* \"#utility.yul\":16983:17018   */\n      eq\n        /* \"#utility.yul\":16973:17036   */\n      tag_371\n      jumpi\n        /* \"#utility.yul\":17032:17033   */\n      0x00\n        /* \"#utility.yul\":17029:17030   */\n      dup1\n        /* \"#utility.yul\":17022:17034   */\n      revert\n        /* \"#utility.yul\":16973:17036   */\n    tag_371:\n        /* \"#utility.yul\":16920:17042   */\n      pop\n      jump\t// out\n        /* \"#utility.yul\":17048:17170   */\n    tag_201:\n        /* \"#utility.yul\":17121:17145   */\n      tag_373\n        /* \"#utility.yul\":17139:17144   */\n      dup2\n        /* \"#utility.yul\":17121:17145   */\n      tag_290\n      jump\t// in\n    tag_373:\n        /* \"#utility.yul\":17114:17119   */\n      dup2\n        /* \"#utility.yul\":17111:17146   */\n      eq\n        /* \"#utility.yul\":17101:17164   */\n      tag_374\n      jumpi\n        /* \"#utility.yul\":17160:17161   */\n      0x00\n        /* \"#utility.yul\":17157:17158   */\n      dup1\n        /* \"#utility.yul\":17150:17162   */\n      revert\n        /* \"#utility.yul\":17101:17164   */\n    tag_374:\n        /* \"#utility.yul\":17048:17170   */\n      pop\n      jump\t// out\n    stop\n\n    sub_0: assembly {\n            /* \"contracts/Election.sol\":69:649  contract Election {... */\n          mstore(0x40, 0x80)\n          callvalue\n          dup1\n          iszero\n          tag_1\n          jumpi\n          0x00\n          dup1\n          revert\n        tag_1:\n          pop\n          dataSize(sub_0)\n          dup1\n          dataOffset(sub_0)\n          0x00\n          codecopy\n          0x00\n          return\n        stop\n\n        sub_0: assembly {\n                /* \"contracts/Election.sol\":69:649  contract Election {... */\n              mstore(0x40, 0x80)\n              callvalue\n              dup1\n              iszero\n              tag_1\n              jumpi\n              0x00\n              dup1\n              revert\n            tag_1:\n              pop\n              jumpi(tag_2, lt(calldatasize, 0x04))\n              shr(0xe0, calldataload(0x00))\n              dup1\n              0x09eef43e\n              eq\n              tag_3\n              jumpi\n              dup1\n              0x5cb7e8af\n              eq\n              tag_4\n              jumpi\n              dup1\n              0x69596d70\n              eq\n              tag_5\n              jumpi\n              dup1\n              0x7727d3aa\n              eq\n              tag_6\n              jumpi\n              dup1\n              0x929155bf\n              eq\n              tag_7\n              jumpi\n            tag_2:\n              0x00\n              dup1\n              revert\n                /* \"contracts/Election.sol\":152:192  mapping(address => bool) public hasVoted */\n            tag_3:\n              tag_8\n              0x04\n              dup1\n              calldatasize\n              sub\n              dup2\n              add\n              swap1\n              tag_9\n              swap2\n              swap1\n              tag_10\n              jump\t// in\n            tag_9:\n              tag_11\n              jump\t// in\n            tag_8:\n              mload(0x40)\n              tag_12\n              swap2\n              swap1\n              tag_13\n              jump\t// in\n            tag_12:\n              mload(0x40)\n              dup1\n              swap2\n              sub\n              swap1\n              return\n                /* \"contracts/Election.sol\":121:146  uint public votesToRemove */\n            tag_4:\n              tag_14\n              tag_15\n              jump\t// in\n            tag_14:\n              mload(0x40)\n              tag_16\n              swap2\n              swap1\n              tag_17\n              jump\t// in\n            tag_16:\n              mload(0x40)\n              dup1\n              swap2\n              sub\n              swap1\n              return\n                /* \"contracts/Election.sol\":368:501  function voteToAdd(address voterAddr) notVoted(voterAddr) public {... */\n            tag_5:\n              tag_18\n              0x04\n              dup1\n              calldatasize\n              sub\n              dup2\n              add\n              swap1\n              tag_19\n              swap2\n              swap1\n              tag_10\n              jump\t// in\n            tag_19:\n              tag_20\n              jump\t// in\n            tag_18:\n              stop\n                /* \"contracts/Election.sol\":507:646  function voteToRemove(address voterAddr) notVoted(voterAddr) public {... */\n            tag_6:\n              tag_21\n              0x04\n              dup1\n              calldatasize\n              sub\n              dup2\n              add\n              swap1\n              tag_22\n              swap2\n              swap1\n              tag_10\n              jump\t// in\n            tag_22:\n              tag_23\n              jump\t// in\n            tag_21:\n              stop\n                /* \"contracts/Election.sol\":93:115  uint public votesToAdd */\n            tag_7:\n              tag_24\n              tag_25\n              jump\t// in\n            tag_24:\n              mload(0x40)\n              tag_26\n              swap2\n              swap1\n              tag_17\n              jump\t// in\n            tag_26:\n              mload(0x40)\n              dup1\n              swap2\n              sub\n              swap1\n              return\n                /* \"contracts/Election.sol\":152:192  mapping(address => bool) public hasVoted */\n            tag_11:\n              mstore(0x20, 0x02)\n              dup1\n              0x00\n              mstore\n              keccak256(0x00, 0x40)\n              0x00\n              swap2\n              pop\n              sload\n              swap1\n              0x0100\n              exp\n              swap1\n              div\n              0xff\n              and\n              dup2\n              jump\t// out\n                /* \"contracts/Election.sol\":121:146  uint public votesToRemove */\n            tag_15:\n              sload(0x01)\n              dup2\n              jump\t// out\n                /* \"contracts/Election.sol\":368:501  function voteToAdd(address voterAddr) notVoted(voterAddr) public {... */\n            tag_20:\n                /* \"contracts/Election.sol\":415:424  voterAddr */\n              dup1\n                /* \"contracts/Election.sol\":290:295  false */\n              0x00\n                /* \"contracts/Election.sol\":267:295  hasVoted[voterAddr] == false */\n              iszero\n              iszero\n                /* \"contracts/Election.sol\":267:275  hasVoted */\n              0x02\n                /* \"contracts/Election.sol\":267:286  hasVoted[voterAddr] */\n              0x00\n                /* \"contracts/Election.sol\":276:285  voterAddr */\n              dup4\n                /* \"contracts/Election.sol\":267:286  hasVoted[voterAddr] */\n              0xffffffffffffffffffffffffffffffffffffffff\n              and\n              0xffffffffffffffffffffffffffffffffffffffff\n              and\n              dup2\n              mstore\n              0x20\n              add\n              swap1\n              dup2\n              mstore\n              0x20\n              add\n              0x00\n              keccak256\n              0x00\n              swap1\n              sload\n              swap1\n              0x0100\n              exp\n              swap1\n              div\n              0xff\n              and\n                /* \"contracts/Election.sol\":267:295  hasVoted[voterAddr] == false */\n              iszero\n              iszero\n              eq\n                /* \"contracts/Election.sol\":246:344  require(... */\n              tag_28\n              jumpi\n              mload(0x40)\n              0x08c379a000000000000000000000000000000000000000000000000000000000\n              dup2\n              mstore\n              0x04\n              add\n              tag_29\n              swap1\n              tag_30\n              jump\t// in\n            tag_29:\n              mload(0x40)\n              dup1\n              swap2\n              sub\n              swap1\n              revert\n            tag_28:\n                /* \"contracts/Election.sol\":457:458  1 */\n              0x01\n                /* \"contracts/Election.sol\":443:453  votesToAdd */\n              0x00\n              dup1\n                /* \"contracts/Election.sol\":443:458  votesToAdd += 1 */\n              dup3\n              dup3\n              sload\n              tag_32\n              swap2\n              swap1\n              tag_33\n              jump\t// in\n            tag_32:\n              swap3\n              pop\n              pop\n              dup2\n              swap1\n              sstore\n              pop\n                /* \"contracts/Election.sol\":490:494  true */\n              0x01\n                /* \"contracts/Election.sol\":468:476  hasVoted */\n              0x02\n                /* \"contracts/Election.sol\":468:487  hasVoted[voterAddr] */\n              0x00\n                /* \"contracts/Election.sol\":477:486  voterAddr */\n              dup5\n                /* \"contracts/Election.sol\":468:487  hasVoted[voterAddr] */\n              0xffffffffffffffffffffffffffffffffffffffff\n              and\n              0xffffffffffffffffffffffffffffffffffffffff\n              and\n              dup2\n              mstore\n              0x20\n              add\n              swap1\n              dup2\n              mstore\n              0x20\n              add\n              0x00\n              keccak256\n              0x00\n                /* \"contracts/Election.sol\":468:494  hasVoted[voterAddr] = true */\n              0x0100\n              exp\n              dup2\n              sload\n              dup2\n              0xff\n              mul\n              not\n              and\n              swap1\n              dup4\n              iszero\n              iszero\n              mul\n              or\n              swap1\n              sstore\n              pop\n                /* \"contracts/Election.sol\":368:501  function voteToAdd(address voterAddr) notVoted(voterAddr) public {... */\n              pop\n              pop\n              jump\t// out\n                /* \"contracts/Election.sol\":507:646  function voteToRemove(address voterAddr) notVoted(voterAddr) public {... */\n            tag_23:\n                /* \"contracts/Election.sol\":557:566  voterAddr */\n              dup1\n                /* \"contracts/Election.sol\":290:295  false */\n              0x00\n                /* \"contracts/Election.sol\":267:295  hasVoted[voterAddr] == false */\n              iszero\n              iszero\n                /* \"contracts/Election.sol\":267:275  hasVoted */\n              0x02\n                /* \"contracts/Election.sol\":267:286  hasVoted[voterAddr] */\n              0x00\n                /* \"contracts/Election.sol\":276:285  voterAddr */\n              dup4\n                /* \"contracts/Election.sol\":267:286  hasVoted[voterAddr] */\n              0xffffffffffffffffffffffffffffffffffffffff\n              and\n              0xffffffffffffffffffffffffffffffffffffffff\n              and\n              dup2\n              mstore\n              0x20\n              add\n              swap1\n              dup2\n              mstore\n              0x20\n              add\n              0x00\n              keccak256\n              0x00\n              swap1\n              sload\n              swap1\n              0x0100\n              exp\n              swap1\n              div\n              0xff\n              and\n                /* \"contracts/Election.sol\":267:295  hasVoted[voterAddr] == false */\n              iszero\n              iszero\n              eq\n                /* \"contracts/Election.sol\":246:344  require(... */\n              tag_35\n              jumpi\n              mload(0x40)\n              0x08c379a000000000000000000000000000000000000000000000000000000000\n              dup2\n              mstore\n              0x04\n              add\n              tag_36\n              swap1\n              tag_30\n              jump\t// in\n            tag_36:\n              mload(0x40)\n              dup1\n              swap2\n              sub\n              swap1\n              revert\n            tag_35:\n                /* \"contracts/Election.sol\":602:603  1 */\n              0x01\n                /* \"contracts/Election.sol\":585:598  votesToRemove */\n              dup1\n              0x00\n                /* \"contracts/Election.sol\":585:603  votesToRemove += 1 */\n              dup3\n              dup3\n              sload\n              tag_38\n              swap2\n              swap1\n              tag_33\n              jump\t// in\n            tag_38:\n              swap3\n              pop\n              pop\n              dup2\n              swap1\n              sstore\n              pop\n                /* \"contracts/Election.sol\":635:639  true */\n              0x01\n                /* \"contracts/Election.sol\":613:621  hasVoted */\n              0x02\n                /* \"contracts/Election.sol\":613:632  hasVoted[voterAddr] */\n              0x00\n                /* \"contracts/Election.sol\":622:631  voterAddr */\n              dup5\n                /* \"contracts/Election.sol\":613:632  hasVoted[voterAddr] */\n              0xffffffffffffffffffffffffffffffffffffffff\n              and\n              0xffffffffffffffffffffffffffffffffffffffff\n              and\n              dup2\n              mstore\n              0x20\n              add\n              swap1\n              dup2\n              mstore\n              0x20\n              add\n              0x00\n              keccak256\n              0x00\n                /* \"contracts/Election.sol\":613:639  hasVoted[voterAddr] = true */\n              0x0100\n              exp\n              dup2\n              sload\n              dup2\n              0xff\n              mul\n              not\n              and\n              swap1\n              dup4\n              iszero\n              iszero\n              mul\n              or\n              swap1\n              sstore\n              pop\n                /* \"contracts/Election.sol\":507:646  function voteToRemove(address voterAddr) notVoted(voterAddr) public {... */\n              pop\n              pop\n              jump\t// out\n                /* \"contracts/Election.sol\":93:115  uint public votesToAdd */\n            tag_25:\n              sload(0x00)\n              dup2\n              jump\t// out\n                /* \"#utility.yul\":7:146   */\n            tag_40:\n                /* \"#utility.yul\":53:58   */\n              0x00\n                /* \"#utility.yul\":91:97   */\n              dup2\n                /* \"#utility.yul\":78:98   */\n              calldataload\n                /* \"#utility.yul\":69:98   */\n              swap1\n              pop\n                /* \"#utility.yul\":107:140   */\n              tag_42\n                /* \"#utility.yul\":134:139   */\n              dup2\n                /* \"#utility.yul\":107:140   */\n              tag_43\n              jump\t// in\n            tag_42:\n                /* \"#utility.yul\":7:146   */\n              swap3\n              swap2\n              pop\n              pop\n              jump\t// out\n                /* \"#utility.yul\":152:481   */\n            tag_10:\n                /* \"#utility.yul\":211:217   */\n              0x00\n                /* \"#utility.yul\":260:262   */\n              0x20\n                /* \"#utility.yul\":248:257   */\n              dup3\n                /* \"#utility.yul\":239:246   */\n              dup5\n                /* \"#utility.yul\":235:258   */\n              sub\n                /* \"#utility.yul\":231:263   */\n              slt\n                /* \"#utility.yul\":228:347   */\n              iszero\n              tag_45\n              jumpi\n                /* \"#utility.yul\":266:345   */\n              tag_46\n              tag_47\n              jump\t// in\n            tag_46:\n                /* \"#utility.yul\":228:347   */\n            tag_45:\n                /* \"#utility.yul\":386:387   */\n              0x00\n                /* \"#utility.yul\":411:464   */\n              tag_48\n                /* \"#utility.yul\":456:463   */\n              dup5\n                /* \"#utility.yul\":447:453   */\n              dup3\n                /* \"#utility.yul\":436:445   */\n              dup6\n                /* \"#utility.yul\":432:454   */\n              add\n                /* \"#utility.yul\":411:464   */\n              tag_40\n              jump\t// in\n            tag_48:\n                /* \"#utility.yul\":401:464   */\n              swap2\n              pop\n                /* \"#utility.yul\":357:474   */\n              pop\n                /* \"#utility.yul\":152:481   */\n              swap3\n              swap2\n              pop\n              pop\n              jump\t// out\n                /* \"#utility.yul\":487:596   */\n            tag_49:\n                /* \"#utility.yul\":568:589   */\n              tag_51\n                /* \"#utility.yul\":583:588   */\n              dup2\n                /* \"#utility.yul\":568:589   */\n              tag_52\n              jump\t// in\n            tag_51:\n                /* \"#utility.yul\":563:566   */\n              dup3\n                /* \"#utility.yul\":556:590   */\n              mstore\n                /* \"#utility.yul\":487:596   */\n              pop\n              pop\n              jump\t// out\n                /* \"#utility.yul\":602:968   */\n            tag_53:\n                /* \"#utility.yul\":744:747   */\n              0x00\n                /* \"#utility.yul\":765:832   */\n              tag_55\n                /* \"#utility.yul\":829:831   */\n              0x17\n                /* \"#utility.yul\":824:827   */\n              dup4\n                /* \"#utility.yul\":765:832   */\n              tag_56\n              jump\t// in\n            tag_55:\n                /* \"#utility.yul\":758:832   */\n              swap2\n              pop\n                /* \"#utility.yul\":841:934   */\n              tag_57\n                /* \"#utility.yul\":930:933   */\n              dup3\n                /* \"#utility.yul\":841:934   */\n              tag_58\n              jump\t// in\n            tag_57:\n                /* \"#utility.yul\":959:961   */\n              0x20\n                /* \"#utility.yul\":954:957   */\n              dup3\n                /* \"#utility.yul\":950:962   */\n              add\n                /* \"#utility.yul\":943:962   */\n              swap1\n              pop\n                /* \"#utility.yul\":602:968   */\n              swap2\n              swap1\n              pop\n              jump\t// out\n                /* \"#utility.yul\":974:1092   */\n            tag_59:\n                /* \"#utility.yul\":1061:1085   */\n              tag_61\n                /* \"#utility.yul\":1079:1084   */\n              dup2\n                /* \"#utility.yul\":1061:1085   */\n              tag_62\n              jump\t// in\n            tag_61:\n                /* \"#utility.yul\":1056:1059   */\n              dup3\n                /* \"#utility.yul\":1049:1086   */\n              mstore\n                /* \"#utility.yul\":974:1092   */\n              pop\n              pop\n              jump\t// out\n                /* \"#utility.yul\":1098:1308   */\n            tag_13:\n                /* \"#utility.yul\":1185:1189   */\n              0x00\n                /* \"#utility.yul\":1223:1225   */\n              0x20\n                /* \"#utility.yul\":1212:1221   */\n              dup3\n                /* \"#utility.yul\":1208:1226   */\n              add\n                /* \"#utility.yul\":1200:1226   */\n              swap1\n              pop\n                /* \"#utility.yul\":1236:1301   */\n              tag_64\n                /* \"#utility.yul\":1298:1299   */\n              0x00\n                /* \"#utility.yul\":1287:1296   */\n              dup4\n                /* \"#utility.yul\":1283:1300   */\n              add\n                /* \"#utility.yul\":1274:1280   */\n              dup5\n                /* \"#utility.yul\":1236:1301   */\n              tag_49\n              jump\t// in\n            tag_64:\n                /* \"#utility.yul\":1098:1308   */\n              swap3\n              swap2\n              pop\n              pop\n              jump\t// out\n                /* \"#utility.yul\":1314:1733   */\n            tag_30:\n                /* \"#utility.yul\":1480:1484   */\n              0x00\n                /* \"#utility.yul\":1518:1520   */\n              0x20\n                /* \"#utility.yul\":1507:1516   */\n              dup3\n                /* \"#utility.yul\":1503:1521   */\n              add\n                /* \"#utility.yul\":1495:1521   */\n              swap1\n              pop\n                /* \"#utility.yul\":1567:1576   */\n              dup2\n                /* \"#utility.yul\":1561:1565   */\n              dup2\n                /* \"#utility.yul\":1557:1577   */\n              sub\n                /* \"#utility.yul\":1553:1554   */\n              0x00\n                /* \"#utility.yul\":1542:1551   */\n              dup4\n                /* \"#utility.yul\":1538:1555   */\n              add\n                /* \"#utility.yul\":1531:1578   */\n              mstore\n                /* \"#utility.yul\":1595:1726   */\n              tag_66\n                /* \"#utility.yul\":1721:1725   */\n              dup2\n                /* \"#utility.yul\":1595:1726   */\n              tag_53\n              jump\t// in\n            tag_66:\n                /* \"#utility.yul\":1587:1726   */\n              swap1\n              pop\n                /* \"#utility.yul\":1314:1733   */\n              swap2\n              swap1\n              pop\n              jump\t// out\n                /* \"#utility.yul\":1739:1961   */\n            tag_17:\n                /* \"#utility.yul\":1832:1836   */\n              0x00\n                /* \"#utility.yul\":1870:1872   */\n              0x20\n                /* \"#utility.yul\":1859:1868   */\n              dup3\n                /* \"#utility.yul\":1855:1873   */\n              add\n                /* \"#utility.yul\":1847:1873   */\n              swap1\n              pop\n                /* \"#utility.yul\":1883:1954   */\n              tag_68\n                /* \"#utility.yul\":1951:1952   */\n              0x00\n                /* \"#utility.yul\":1940:1949   */\n              dup4\n                /* \"#utility.yul\":1936:1953   */\n              add\n                /* \"#utility.yul\":1927:1933   */\n              dup5\n                /* \"#utility.yul\":1883:1954   */\n              tag_59\n              jump\t// in\n            tag_68:\n                /* \"#utility.yul\":1739:1961   */\n              swap3\n              swap2\n              pop\n              pop\n              jump\t// out\n                /* \"#utility.yul\":2048:2217   */\n            tag_56:\n                /* \"#utility.yul\":2132:2143   */\n              0x00\n                /* \"#utility.yul\":2166:2172   */\n              dup3\n                /* \"#utility.yul\":2161:2164   */\n              dup3\n                /* \"#utility.yul\":2154:2173   */\n              mstore\n                /* \"#utility.yul\":2206:2210   */\n              0x20\n                /* \"#utility.yul\":2201:2204   */\n              dup3\n                /* \"#utility.yul\":2197:2211   */\n              add\n                /* \"#utility.yul\":2182:2211   */\n              swap1\n              pop\n                /* \"#utility.yul\":2048:2217   */\n              swap3\n              swap2\n              pop\n              pop\n              jump\t// out\n                /* \"#utility.yul\":2223:2528   */\n            tag_33:\n                /* \"#utility.yul\":2263:2266   */\n              0x00\n                /* \"#utility.yul\":2282:2302   */\n              tag_73\n                /* \"#utility.yul\":2300:2301   */\n              dup3\n                /* \"#utility.yul\":2282:2302   */\n              tag_62\n              jump\t// in\n            tag_73:\n                /* \"#utility.yul\":2277:2302   */\n              swap2\n              pop\n                /* \"#utility.yul\":2316:2336   */\n              tag_74\n                /* \"#utility.yul\":2334:2335   */\n              dup4\n                /* \"#utility.yul\":2316:2336   */\n              tag_62\n              jump\t// in\n            tag_74:\n                /* \"#utility.yul\":2311:2336   */\n              swap3\n              pop\n                /* \"#utility.yul\":2470:2471   */\n              dup3\n                /* \"#utility.yul\":2402:2468   */\n              0xffffffffffffffffffffffffffffffffffffffffffffffffffffffffffffffff\n                /* \"#utility.yul\":2398:2472   */\n              sub\n                /* \"#utility.yul\":2395:2396   */\n              dup3\n                /* \"#utility.yul\":2392:2473   */\n              gt\n                /* \"#utility.yul\":2389:2496   */\n              iszero\n              tag_75\n              jumpi\n                /* \"#utility.yul\":2476:2494   */\n              tag_76\n              tag_77\n              jump\t// in\n            tag_76:\n                /* \"#utility.yul\":2389:2496   */\n            tag_75:\n                /* \"#utility.yul\":2520:2521   */\n              dup3\n                /* \"#utility.yul\":2517:2518   */\n              dup3\n                /* \"#utility.yul\":2513:2522   */\n              add\n                /* \"#utility.yul\":2506:2522   */\n              swap1\n              pop\n                /* \"#utility.yul\":2223:2528   */\n              swap3\n              swap2\n              pop\n              pop\n              jump\t// out\n                /* \"#utility.yul\":2534:2630   */\n            tag_78:\n                /* \"#utility.yul\":2571:2578   */\n              0x00\n                /* \"#utility.yul\":2600:2624   */\n              tag_80\n                /* \"#utility.yul\":2618:2623   */\n              dup3\n                /* \"#utility.yul\":2600:2624   */\n              tag_81\n              jump\t// in\n            tag_80:\n                /* \"#utility.yul\":2589:2624   */\n              swap1\n              pop\n                /* \"#utility.yul\":2534:2630   */\n              swap2\n              swap1\n              pop\n              jump\t// out\n                /* \"#utility.yul\":2636:2726   */\n            tag_52:\n                /* \"#utility.yul\":2670:2677   */\n              0x00\n                /* \"#utility.yul\":2713:2718   */\n              dup2\n                /* \"#utility.yul\":2706:2719   */\n              iszero\n                /* \"#utility.yul\":2699:2720   */\n              iszero\n                /* \"#utility.yul\":2688:2720   */\n              swap1\n              pop\n                /* \"#utility.yul\":2636:2726   */\n              swap2\n              swap1\n              pop\n              jump\t// out\n                /* \"#utility.yul\":2732:2858   */\n            tag_81:\n                /* \"#utility.yul\":2769:2776   */\n              0x00\n                /* \"#utility.yul\":2809:2851   */\n              0xffffffffffffffffffffffffffffffffffffffff\n                /* \"#utility.yul\":2802:2807   */\n              dup3\n                /* \"#utility.yul\":2798:2852   */\n              and\n                /* \"#utility.yul\":2787:2852   */\n              swap1\n              pop\n                /* \"#utility.yul\":2732:2858   */\n              swap2\n              swap1\n              pop\n              jump\t// out\n                /* \"#utility.yul\":2864:2941   */\n            tag_62:\n                /* \"#utility.yul\":2901:2908   */\n              0x00\n                /* \"#utility.yul\":2930:2935   */\n              dup2\n                /* \"#utility.yul\":2919:2935   */\n              swap1\n              pop\n                /* \"#utility.yul\":2864:2941   */\n              swap2\n              swap1\n              pop\n              jump\t// out\n                /* \"#utility.yul\":2947:3127   */\n            tag_77:\n                /* \"#utility.yul\":2995:3072   */\n              0x4e487b7100000000000000000000000000000000000000000000000000000000\n                /* \"#utility.yul\":2992:2993   */\n              0x00\n                /* \"#utility.yul\":2985:3073   */\n              mstore\n                /* \"#utility.yul\":3092:3096   */\n              0x11\n                /* \"#utility.yul\":3089:3090   */\n              0x04\n                /* \"#utility.yul\":3082:3097   */\n              mstore\n                /* \"#utility.yul\":3116:3120   */\n              0x24\n                /* \"#utility.yul\":3113:3114   */\n              0x00\n                /* \"#utility.yul\":3106:3121   */\n              revert\n                /* \"#utility.yul\":3256:3373   */\n            tag_47:\n                /* \"#utility.yul\":3365:3366   */\n              0x00\n                /* \"#utility.yul\":3362:3363   */\n              dup1\n                /* \"#utility.yul\":3355:3367   */\n              revert\n                /* \"#utility.yul\":3379:3552   */\n            tag_58:\n                /* \"#utility.yul\":3519:3544   */\n              0x41646d696e2068617320616c726561647920766f746564000000000000000000\n                /* \"#utility.yul\":3515:3516   */\n              0x00\n                /* \"#utility.yul\":3507:3513   */\n              dup3\n                /* \"#utility.yul\":3503:3517   */\n              add\n                /* \"#utility.yul\":3496:3545   */\n              mstore\n                /* \"#utility.yul\":3379:3552   */\n              pop\n              jump\t// out\n                /* \"#utility.yul\":3558:3680   */\n            tag_43:\n                /* \"#utility.yul\":3631:3655   */\n              tag_91\n                /* \"#utility.yul\":3649:3654   */\n              dup2\n                /* \"#utility.yul\":3631:3655   */\n              tag_78\n              jump\t// in\n            tag_91:\n                /* \"#utility.yul\":3624:3629   */\n              dup2\n                /* \"#utility.yul\":3621:3656   */\n              eq\n                /* \"#utility.yul\":3611:3674   */\n              tag_92\n              jumpi\n                /* \"#utility.yul\":3670:3671   */\n              0x00\n                /* \"#utility.yul\":3667:3668   */\n              dup1\n                /* \"#utility.yul\":3660:3672   */\n              revert\n                /* \"#utility.yul\":3611:3674   */\n            tag_92:\n                /* \"#utility.yul\":3558:3680   */\n              pop\n              jump\t// out\n\n            auxdata: 0xa264697066735822122029d56764cc4a574dfe5ea5a0e9310886a2fa19e6a513c85ac56e400b16cabde364736f6c63430008070033\n        }\n    }\n\n    auxdata: 0xa26469706673582212207333b5fdc7b49cf32b05df7e38aadc60358e9091c91d75d2dcbb6391909f5b4b64736f6c63430008070033\n}\n",
				"bytecode": {
					"linkReferences": {},
					"object": "608060405234801561001057600080fd5b50336001600360008373ffffffffffffffffffffffffffffffffffffffff1673ffffffffffffffffffffffffffffffffffffffff16815260200190815260200160002060006101000a81548160ff021916908315150217905550600160028190555050600a6007819055506128498061008a6000396000f3fe6080604052600436106100c25760003560e01c80635dc84e321161007f5780639000b3d6116100595780639000b3d614610255578063a035b1fe1461027e578063b9209e33146102a9578063ca2dfd0a146102e6576100c2565b80635dc84e32146101da57806369596d70146102035780637727d3aa1461022c576100c2565b8063128e1af0146100c757806327e235e3146100f0578063331052181461012d5780633610724e1461016a5780633a98ef39146101865780634487b392146101b1575b600080fd5b3480156100d357600080fd5b506100ee60048036038101906100e991906119b8565b61030f565b005b3480156100fc57600080fd5b506101176004803603810190610112919061198b565b610400565b6040516101249190611d99565b60405180910390f35b34801561013957600080fd5b50610154600480360381019061014f919061198b565b610418565b6040516101619190611bfe565b60405180910390f35b610184600480360381019061017f91906119b8565b610486565b005b34801561019257600080fd5b5061019b610606565b6040516101a89190611d99565b60405180910390f35b3480156101bd57600080fd5b506101d860048036038101906101d3919061198b565b61060c565b005b3480156101e657600080fd5b5061020160048036038101906101fc919061198b565b6106f9565b005b34801561020f57600080fd5b5061022a6004803603810190610225919061198b565b6108e9565b005b34801561023857600080fd5b50610253600480360381019061024e919061198b565b610f22565b005b34801561026157600080fd5b5061027c6004803603810190610277919061198b565b61155a565b005b34801561028a57600080fd5b5061029361174b565b6040516102a09190611d99565b60405180910390f35b3480156102b557600080fd5b506102d060048036038101906102cb919061198b565b611751565b6040516102dd9190611bfe565b60405180910390f35b3480156102f257600080fd5b5061030d6004803603810190610308919061198b565b6117be565b005b806000811415610354576040517f08c379a000000000000000000000000000000000000000000000000000000000815260040161034b90611cb9565b60405180910390fd5b60004790506000600660003373ffffffffffffffffffffffffffffffffffffffff1673ffffffffffffffffffffffffffffffffffffffff1681526020019081526020016000205484836103a79190611e1b565b6103b19190611e4c565b90503373ffffffffffffffffffffffffffffffffffffffff166108fc829081150290604051600060405180830381858888f193505050501580156103f9573d6000803e3d6000fd5b5050505050565b60066020528060005260406000206000915090505481565b600060011515600160008473ffffffffffffffffffffffffffffffffffffffff1673ffffffffffffffffffffffffffffffffffffffff16815260200190815260200160002060009054906101000a900460ff161515141561047c5760019050610481565b600090505b919050565b600115156000803373ffffffffffffffffffffffffffffffffffffffff1673ffffffffffffffffffffffffffffffffffffffff16815260200190815260200160002060009054906101000a900460ff16151514610518576040517f08c379a000000000000000000000000000000000000000000000000000000000815260040161050f90611c39565b60405180910390fd5b80600081141561055d576040517f08c379a000000000000000000000000000000000000000000000000000000000815260040161055490611cb9565b60405180910390fd5b6007548261056b9190611e4c565b34146105ac576040517f08c379a00000000000000000000000000000000000000000000000000000000081526004016105a390611c19565b60405180910390fd5b81600660003373ffffffffffffffffffffffffffffffffffffffff1673ffffffffffffffffffffffffffffffffffffffff16815260200190815260200160002060008282546105fb9190611dc5565b925050819055505050565b60085481565b60011515600160003373ffffffffffffffffffffffffffffffffffffffff1673ffffffffffffffffffffffffffffffffffffffff16815260200190815260200160002060009054906101000a900460ff1615151461069f576040517f08c379a000000000000000000000000000000000000000000000000000000000815260040161069690611d59565b60405180910390fd5b60008060008373ffffffffffffffffffffffffffffffffffffffff1673ffffffffffffffffffffffffffffffffffffffff16815260200190815260200160002060006101000a81548160ff02191690831515021790555050565b60011515600160003373ffffffffffffffffffffffffffffffffffffffff1673ffffffffffffffffffffffffffffffffffffffff16815260200190815260200160002060009054906101000a900460ff1615151461078c576040517f08c379a000000000000000000000000000000000000000000000000000000000815260040161078390611d59565b60405180910390fd5b600073ffffffffffffffffffffffffffffffffffffffff168173ffffffffffffffffffffffffffffffffffffffff1614156107fc576040517f08c379a00000000000000000000000000000000000000000000000000000000081526004016107f390611c99565b60405180910390fd5b600115156000808373ffffffffffffffffffffffffffffffffffffffff1673ffffffffffffffffffffffffffffffffffffffff16815260200190815260200160002060009054906101000a900460ff161515141561088f576040517f08c379a000000000000000000000000000000000000000000000000000000000815260040161088690611d19565b60405180910390fd5b60016000808373ffffffffffffffffffffffffffffffffffffffff1673ffffffffffffffffffffffffffffffffffffffff16815260200190815260200160002060006101000a81548160ff02191690831515021790555050565b60011515600360003373ffffffffffffffffffffffffffffffffffffffff1673ffffffffffffffffffffffffffffffffffffffff16815260200190815260200160002060009054906101000a900460ff1615151461097c576040517f08c379a000000000000000000000000000000000000000000000000000000000815260040161097390611c79565b60405180910390fd5b60011515600360008373ffffffffffffffffffffffffffffffffffffffff1673ffffffffffffffffffffffffffffffffffffffff16815260200190815260200160002060009054906101000a900460ff1615151415610a10576040517f08c379a0000000000000000000000000000000000000000000000000000000008152600401610a0790611cd9565b60405180910390fd5b60001515600460008373ffffffffffffffffffffffffffffffffffffffff1673ffffffffffffffffffffffffffffffffffffffff16815260200190815260200160002060009054906101000a900460ff1615151415610c3657604051610a759061193f565b604051809103906000f080158015610a91573d6000803e3d6000fd5b50600560008373ffffffffffffffffffffffffffffffffffffffff1673ffffffffffffffffffffffffffffffffffffffff16815260200190815260200160002060006101000a81548173ffffffffffffffffffffffffffffffffffffffff021916908373ffffffffffffffffffffffffffffffffffffffff1602179055506001600460008373ffffffffffffffffffffffffffffffffffffffff1673ffffffffffffffffffffffffffffffffffffffff16815260200190815260200160002060006101000a81548160ff021916908315150217905550600560008273ffffffffffffffffffffffffffffffffffffffff1673ffffffffffffffffffffffffffffffffffffffff16815260200190815260200160002060009054906101000a900473ffffffffffffffffffffffffffffffffffffffff1673ffffffffffffffffffffffffffffffffffffffff166369596d70336040518263ffffffff1660e01b8152600401610bff9190611be3565b600060405180830381600087803b158015610c1957600080fd5b505af1158015610c2d573d6000803e3d6000fd5b50505050610d01565b600560008273ffffffffffffffffffffffffffffffffffffffff1673ffffffffffffffffffffffffffffffffffffffff16815260200190815260200160002060009054906101000a900473ffffffffffffffffffffffffffffffffffffffff1673ffffffffffffffffffffffffffffffffffffffff166369596d70336040518263ffffffff1660e01b8152600401610cce9190611be3565b600060405180830381600087803b158015610ce857600080fd5b505af1158015610cfc573d6000803e3d6000fd5b505050505b60028054610d0f9190611e1b565b600560008373ffffffffffffffffffffffffffffffffffffffff1673ffffffffffffffffffffffffffffffffffffffff16815260200190815260200160002060009054906101000a900473ffffffffffffffffffffffffffffffffffffffff1673ffffffffffffffffffffffffffffffffffffffff1663929155bf6040518163ffffffff1660e01b815260040160206040518083038186803b158015610db457600080fd5b505afa158015610dc8573d6000803e3d6000fd5b505050506040513d601f19601f82011682018060405250810190610dec91906119e5565b1115610f1f576001600360008373ffffffffffffffffffffffffffffffffffffffff1673ffffffffffffffffffffffffffffffffffffffff16815260200190815260200160002060006101000a81548160ff021916908315150217905550600160026000828254610e5d9190611dc5565b92505081905550600560008273ffffffffffffffffffffffffffffffffffffffff1673ffffffffffffffffffffffffffffffffffffffff16815260200190815260200160002060006101000a81549073ffffffffffffffffffffffffffffffffffffffff02191690556000600460008373ffffffffffffffffffffffffffffffffffffffff1673ffffffffffffffffffffffffffffffffffffffff16815260200190815260200160002060006101000a81548160ff0219169083151502179055505b50565b60011515600360003373ffffffffffffffffffffffffffffffffffffffff1673ffffffffffffffffffffffffffffffffffffffff16815260200190815260200160002060009054906101000a900460ff16151514610fb5576040517f08c379a0000000000000000000000000000000000000000000000000000000008152600401610fac90611c79565b60405180910390fd5b60011515600360008373ffffffffffffffffffffffffffffffffffffffff1673ffffffffffffffffffffffffffffffffffffffff16815260200190815260200160002060009054906101000a900460ff16151514611048576040517f08c379a000000000000000000000000000000000000000000000000000000000815260040161103f90611d79565b60405180910390fd5b60001515600460008373ffffffffffffffffffffffffffffffffffffffff1673ffffffffffffffffffffffffffffffffffffffff16815260200190815260200160002060009054906101000a900460ff161515141561126e576040516110ad9061193f565b604051809103906000f0801580156110c9573d6000803e3d6000fd5b50600560008373ffffffffffffffffffffffffffffffffffffffff1673ffffffffffffffffffffffffffffffffffffffff16815260200190815260200160002060006101000a81548173ffffffffffffffffffffffffffffffffffffffff021916908373ffffffffffffffffffffffffffffffffffffffff1602179055506001600460008373ffffffffffffffffffffffffffffffffffffffff1673ffffffffffffffffffffffffffffffffffffffff16815260200190815260200160002060006101000a81548160ff021916908315150217905550600560008273ffffffffffffffffffffffffffffffffffffffff1673ffffffffffffffffffffffffffffffffffffffff16815260200190815260200160002060009054906101000a900473ffffffffffffffffffffffffffffffffffffffff1673ffffffffffffffffffffffffffffffffffffffff16637727d3aa336040518263ffffffff1660e01b81526004016112379190611be3565b600060405180830381600087803b15801561125157600080fd5b505af1158015611265573d6000803e3d6000fd5b50505050611339565b600560008273ffffffffffffffffffffffffffffffffffffffff1673ffffffffffffffffffffffffffffffffffffffff16815260200190815260200160002060009054906101000a900473ffffffffffffffffffffffffffffffffffffffff1673ffffffffffffffffffffffffffffffffffffffff16637727d3aa336040518263ffffffff1660e01b81526004016113069190611be3565b600060405180830381600087803b15801561132057600080fd5b505af1158015611334573d6000803e3d6000fd5b505050505b600280546113479190611e1b565b600560008373ffffffffffffffffffffffffffffffffffffffff1673ffffffffffffffffffffffffffffffffffffffff16815260200190815260200160002060009054906101000a900473ffffffffffffffffffffffffffffffffffffffff1673ffffffffffffffffffffffffffffffffffffffff16635cb7e8af6040518163ffffffff1660e01b815260040160206040518083038186803b1580156113ec57600080fd5b505afa158015611400573d6000803e3d6000fd5b505050506040513d601f19601f8201168201806040525081019061142491906119e5565b1115611557576001600360008373ffffffffffffffffffffffffffffffffffffffff1673ffffffffffffffffffffffffffffffffffffffff16815260200190815260200160002060006101000a81548160ff0219169083151502179055506001600260008282546114959190611ea6565b92505081905550600560008273ffffffffffffffffffffffffffffffffffffffff1673ffffffffffffffffffffffffffffffffffffffff16815260200190815260200160002060006101000a81549073ffffffffffffffffffffffffffffffffffffffff02191690556000600460008373ffffffffffffffffffffffffffffffffffffffff1673ffffffffffffffffffffffffffffffffffffffff16815260200190815260200160002060006101000a81548160ff0219169083151502179055505b50565b60011515600360003373ffffffffffffffffffffffffffffffffffffffff1673ffffffffffffffffffffffffffffffffffffffff16815260200190815260200160002060009054906101000a900460ff161515146115ed576040517f08c379a00000000000000000000000000000000000000000000000000000000081526004016115e490611c79565b60405180910390fd5b600073ffffffffffffffffffffffffffffffffffffffff168173ffffffffffffffffffffffffffffffffffffffff16141561165d576040517f08c379a000000000000000000000000000000000000000000000000000000000815260040161165490611d39565b60405180910390fd5b60011515600160008373ffffffffffffffffffffffffffffffffffffffff1673ffffffffffffffffffffffffffffffffffffffff16815260200190815260200160002060009054906101000a900460ff16151514156116f1576040517f08c379a00000000000000000000000000000000000000000000000000000000081526004016116e890611cf9565b60405180910390fd5b60018060008373ffffffffffffffffffffffffffffffffffffffff1673ffffffffffffffffffffffffffffffffffffffff16815260200190815260200160002060006101000a81548160ff02191690831515021790555050565b60075481565b6000600115156000808473ffffffffffffffffffffffffffffffffffffffff1673ffffffffffffffffffffffffffffffffffffffff16815260200190815260200160002060009054906101000a900460ff16151514156117b457600190506117b9565b600090505b919050565b60011515600360003373ffffffffffffffffffffffffffffffffffffffff1673ffffffffffffffffffffffffffffffffffffffff16815260200190815260200160002060009054906101000a900460ff16151514611851576040517f08c379a000000000000000000000000000000000000000000000000000000000815260040161184890611c79565b60405180910390fd5b60011515600160008373ffffffffffffffffffffffffffffffffffffffff1673ffffffffffffffffffffffffffffffffffffffff16815260200190815260200160002060009054906101000a900460ff161515146118e4576040517f08c379a00000000000000000000000000000000000000000000000000000000081526004016118db90611c59565b60405180910390fd5b6000600160008373ffffffffffffffffffffffffffffffffffffffff1673ffffffffffffffffffffffffffffffffffffffff16815260200190815260200160002060006101000a81548160ff02191690831515021790555050565b6105908061228483390190565b60008135905061195b81612255565b92915050565b6000813590506119708161226c565b92915050565b6000815190506119858161226c565b92915050565b6000602082840312156119a1576119a0611f80565b5b60006119af8482850161194c565b91505092915050565b6000602082840312156119ce576119cd611f80565b5b60006119dc84828501611961565b91505092915050565b6000602082840312156119fb576119fa611f80565b5b6000611a0984828501611976565b91505092915050565b611a1b81611eda565b82525050565b611a2a81611eec565b82525050565b6000611a3d603183611db4565b9150611a4882611f85565b604082019050919050565b6000611a60601483611db4565b9150611a6b82611fd4565b602082019050919050565b6000611a83603783611db4565b9150611a8e82611ffd565b604082019050919050565b6000611aa6601483611db4565b9150611ab18261204c565b602082019050919050565b6000611ac9601e83611db4565b9150611ad482612075565b602082019050919050565b6000611aec602483611db4565b9150611af78261209e565b604082019050919050565b6000611b0f602f83611db4565b9150611b1a826120ed565b604082019050919050565b6000611b32601e83611db4565b9150611b3d8261213c565b602082019050919050565b6000611b55601b83611db4565b9150611b6082612165565b602082019050919050565b6000611b78602183611db4565b9150611b838261218e565b604082019050919050565b6000611b9b601683611db4565b9150611ba6826121dd565b602082019050919050565b6000611bbe602d83611db4565b9150611bc982612206565b604082019050919050565b611bdd81611f18565b82525050565b6000602082019050611bf86000830184611a12565b92915050565b6000602082019050611c136000830184611a21565b92915050565b60006020820190508181036000830152611c3281611a30565b9050919050565b60006020820190508181036000830152611c5281611a53565b9050919050565b60006020820190508181036000830152611c7281611a76565b9050919050565b60006020820190508181036000830152611c9281611a99565b9050919050565b60006020820190508181036000830152611cb281611abc565b9050919050565b60006020820190508181036000830152611cd281611adf565b9050919050565b60006020820190508181036000830152611cf281611b02565b9050919050565b60006020820190508181036000830152611d1281611b25565b9050919050565b60006020820190508181036000830152611d3281611b48565b9050919050565b60006020820190508181036000830152611d5281611b6b565b9050919050565b60006020820190508181036000830152611d7281611b8e565b9050919050565b60006020820190508181036000830152611d9281611bb1565b9050919050565b6000602082019050611dae6000830184611bd4565b92915050565b600082825260208201905092915050565b6000611dd082611f18565b9150611ddb83611f18565b9250827fffffffffffffffffffffffffffffffffffffffffffffffffffffffffffffffff03821115611e1057611e0f611f22565b5b828201905092915050565b6000611e2682611f18565b9150611e3183611f18565b925082611e4157611e40611f51565b5b828204905092915050565b6000611e5782611f18565b9150611e6283611f18565b9250817fffffffffffffffffffffffffffffffffffffffffffffffffffffffffffffffff0483118215151615611e9b57611e9a611f22565b5b828202905092915050565b6000611eb182611f18565b9150611ebc83611f18565b925082821015611ecf57611ece611f22565b5b828203905092915050565b6000611ee582611ef8565b9050919050565b60008115159050919050565b600073ffffffffffffffffffffffffffffffffffffffff82169050919050565b6000819050919050565b7f4e487b7100000000000000000000000000000000000000000000000000000000600052601160045260246000fd5b7f4e487b7100000000000000000000000000000000000000000000000000000000600052601260045260246000fd5b600080fd5b7f596f75206861766520696e73756666696369656e742066756e64732c2074726160008201527f6e73616374696f6e2072656a6563746564000000000000000000000000000000602082015250565b7f596f7520617265206e6f74207665726966696564000000000000000000000000600082015250565b7f43616e6e6f742072656d6f766520616e2061646472657373207468617420697360008201527f206e6f7420616c72656164792061207665726966696572000000000000000000602082015250565b7f596f7520617265206e6f7420616e2061646d696e000000000000000000000000600082015250565b7f43616e6e6f742076657269667920746865207a65726f20616464726573730000600082015250565b7f43616e6e6f7420706572666f726d207a65726f207368617265206f706572617460008201527f696f6e7300000000000000000000000000000000000000000000000000000000602082015250565b7f5468697320616464726573732068617320616c7265616479206265656e20616460008201527f64656420617320616e2061646d696e0000000000000000000000000000000000602082015250565b7f4164647265737320697320616c72656164792061207665726966696665720000600082015250565b7f4164647265737320697320616c72656164792076657269666965640000000000600082015250565b7f5a65726f20616464726573732063616e6e6f742062652061207665726966696560008201527f7200000000000000000000000000000000000000000000000000000000000000602082015250565b7f596f7520617265206e6f74206120766572696669657200000000000000000000600082015250565b7f43616e27742072656d6f766520616e206164647265737320776869636820697360008201527f206e6f7420616e2061646d696e00000000000000000000000000000000000000602082015250565b61225e81611eda565b811461226957600080fd5b50565b61227581611f18565b811461228057600080fd5b5056fe608060405234801561001057600080fd5b50610570806100206000396000f3fe608060405234801561001057600080fd5b50600436106100575760003560e01c806309eef43e1461005c5780635cb7e8af1461008c57806369596d70146100aa5780637727d3aa146100c6578063929155bf146100e2575b600080fd5b61007660048036038101906100719190610353565b610100565b60405161008391906103c1565b60405180910390f35b610094610120565b6040516100a191906103fc565b60405180910390f35b6100c460048036038101906100bf9190610353565b610126565b005b6100e060048036038101906100db9190610353565b61022f565b005b6100ea610338565b6040516100f791906103fc565b60405180910390f35b60026020528060005260406000206000915054906101000a900460ff1681565b60015481565b8060001515600260008373ffffffffffffffffffffffffffffffffffffffff1673ffffffffffffffffffffffffffffffffffffffff16815260200190815260200160002060009054906101000a900460ff161515146101ba576040517f08c379a00000000000000000000000000000000000000000000000000000000081526004016101b1906103dc565b60405180910390fd5b60016000808282546101cc9190610428565b925050819055506001600260008473ffffffffffffffffffffffffffffffffffffffff1673ffffffffffffffffffffffffffffffffffffffff16815260200190815260200160002060006101000a81548160ff0219169083151502179055505050565b8060001515600260008373ffffffffffffffffffffffffffffffffffffffff1673ffffffffffffffffffffffffffffffffffffffff16815260200190815260200160002060009054906101000a900460ff161515146102c3576040517f08c379a00000000000000000000000000000000000000000000000000000000081526004016102ba906103dc565b60405180910390fd5b60018060008282546102d59190610428565b925050819055506001600260008473ffffffffffffffffffffffffffffffffffffffff1673ffffffffffffffffffffffffffffffffffffffff16815260200190815260200160002060006101000a81548160ff0219169083151502179055505050565b60005481565b60008135905061034d81610523565b92915050565b600060208284031215610369576103686104f5565b5b60006103778482850161033e565b91505092915050565b61038981610490565b82525050565b600061039c601783610417565b91506103a7826104fa565b602082019050919050565b6103bb816104bc565b82525050565b60006020820190506103d66000830184610380565b92915050565b600060208201905081810360008301526103f58161038f565b9050919050565b600060208201905061041160008301846103b2565b92915050565b600082825260208201905092915050565b6000610433826104bc565b915061043e836104bc565b9250827fffffffffffffffffffffffffffffffffffffffffffffffffffffffffffffffff03821115610473576104726104c6565b5b828201905092915050565b60006104898261049c565b9050919050565b60008115159050919050565b600073ffffffffffffffffffffffffffffffffffffffff82169050919050565b6000819050919050565b7f4e487b7100000000000000000000000000000000000000000000000000000000600052601160045260246000fd5b600080fd5b7f41646d696e2068617320616c726561647920766f746564000000000000000000600082015250565b61052c8161047e565b811461053757600080fd5b5056fea264697066735822122029d56764cc4a574dfe5ea5a0e9310886a2fa19e6a513c85ac56e400b16cabde364736f6c63430008070033a26469706673582212207333b5fdc7b49cf32b05df7e38aadc60358e9091c91d75d2dcbb6391909f5b4b64736f6c63430008070033",
					"opcodes": "PUSH1 0x80 PUSH1 0x40 MSTORE CALLVALUE DUP1 ISZERO PUSH2 0x10 JUMPI PUSH1 0x0 DUP1 REVERT JUMPDEST POP CALLER PUSH1 0x1 PUSH1 0x3 PUSH1 0x0 DUP4 PUSH20 0xFFFFFFFFFFFFFFFFFFFFFFFFFFFFFFFFFFFFFFFF AND PUSH20 0xFFFFFFFFFFFFFFFFFFFFFFFFFFFFFFFFFFFFFFFF AND DUP2 MSTORE PUSH1 0x20 ADD SWAP1 DUP2 MSTORE PUSH1 0x20 ADD PUSH1 0x0 KECCAK256 PUSH1 0x0 PUSH2 0x100 EXP DUP2 SLOAD DUP2 PUSH1 0xFF MUL NOT AND SWAP1 DUP4 ISZERO ISZERO MUL OR SWAP1 SSTORE POP PUSH1 0x1 PUSH1 0x2 DUP2 SWAP1 SSTORE POP POP PUSH1 0xA PUSH1 0x7 DUP2 SWAP1 SSTORE POP PUSH2 0x2849 DUP1 PUSH2 0x8A PUSH1 0x0 CODECOPY PUSH1 0x0 RETURN INVALID PUSH1 0x80 PUSH1 0x40 MSTORE PUSH1 0x4 CALLDATASIZE LT PUSH2 0xC2 JUMPI PUSH1 0x0 CALLDATALOAD PUSH1 0xE0 SHR DUP1 PUSH4 0x5DC84E32 GT PUSH2 0x7F JUMPI DUP1 PUSH4 0x9000B3D6 GT PUSH2 0x59 JUMPI DUP1 PUSH4 0x9000B3D6 EQ PUSH2 0x255 JUMPI DUP1 PUSH4 0xA035B1FE EQ PUSH2 0x27E JUMPI DUP1 PUSH4 0xB9209E33 EQ PUSH2 0x2A9 JUMPI DUP1 PUSH4 0xCA2DFD0A EQ PUSH2 0x2E6 JUMPI PUSH2 0xC2 JUMP JUMPDEST DUP1 PUSH4 0x5DC84E32 EQ PUSH2 0x1DA JUMPI DUP1 PUSH4 0x69596D70 EQ PUSH2 0x203 JUMPI DUP1 PUSH4 0x7727D3AA EQ PUSH2 0x22C JUMPI PUSH2 0xC2 JUMP JUMPDEST DUP1 PUSH4 0x128E1AF0 EQ PUSH2 0xC7 JUMPI DUP1 PUSH4 0x27E235E3 EQ PUSH2 0xF0 JUMPI DUP1 PUSH4 0x33105218 EQ PUSH2 0x12D JUMPI DUP1 PUSH4 0x3610724E EQ PUSH2 0x16A JUMPI DUP1 PUSH4 0x3A98EF39 EQ PUSH2 0x186 JUMPI DUP1 PUSH4 0x4487B392 EQ PUSH2 0x1B1 JUMPI JUMPDEST PUSH1 0x0 DUP1 REVERT JUMPDEST CALLVALUE DUP1 ISZERO PUSH2 0xD3 JUMPI PUSH1 0x0 DUP1 REVERT JUMPDEST POP PUSH2 0xEE PUSH1 0x4 DUP1 CALLDATASIZE SUB DUP2 ADD SWAP1 PUSH2 0xE9 SWAP2 SWAP1 PUSH2 0x19B8 JUMP JUMPDEST PUSH2 0x30F JUMP JUMPDEST STOP JUMPDEST CALLVALUE DUP1 ISZERO PUSH2 0xFC JUMPI PUSH1 0x0 DUP1 REVERT JUMPDEST POP PUSH2 0x117 PUSH1 0x4 DUP1 CALLDATASIZE SUB DUP2 ADD SWAP1 PUSH2 0x112 SWAP2 SWAP1 PUSH2 0x198B JUMP JUMPDEST PUSH2 0x400 JUMP JUMPDEST PUSH1 0x40 MLOAD PUSH2 0x124 SWAP2 SWAP1 PUSH2 0x1D99 JUMP JUMPDEST PUSH1 0x40 MLOAD DUP1 SWAP2 SUB SWAP1 RETURN JUMPDEST CALLVALUE DUP1 ISZERO PUSH2 0x139 JUMPI PUSH1 0x0 DUP1 REVERT JUMPDEST POP PUSH2 0x154 PUSH1 0x4 DUP1 CALLDATASIZE SUB DUP2 ADD SWAP1 PUSH2 0x14F SWAP2 SWAP1 PUSH2 0x198B JUMP JUMPDEST PUSH2 0x418 JUMP JUMPDEST PUSH1 0x40 MLOAD PUSH2 0x161 SWAP2 SWAP1 PUSH2 0x1BFE JUMP JUMPDEST PUSH1 0x40 MLOAD DUP1 SWAP2 SUB SWAP1 RETURN JUMPDEST PUSH2 0x184 PUSH1 0x4 DUP1 CALLDATASIZE SUB DUP2 ADD SWAP1 PUSH2 0x17F SWAP2 SWAP1 PUSH2 0x19B8 JUMP JUMPDEST PUSH2 0x486 JUMP JUMPDEST STOP JUMPDEST CALLVALUE DUP1 ISZERO PUSH2 0x192 JUMPI PUSH1 0x0 DUP1 REVERT JUMPDEST POP PUSH2 0x19B PUSH2 0x606 JUMP JUMPDEST PUSH1 0x40 MLOAD PUSH2 0x1A8 SWAP2 SWAP1 PUSH2 0x1D99 JUMP JUMPDEST PUSH1 0x40 MLOAD DUP1 SWAP2 SUB SWAP1 RETURN JUMPDEST CALLVALUE DUP1 ISZERO PUSH2 0x1BD JUMPI PUSH1 0x0 DUP1 REVERT JUMPDEST POP PUSH2 0x1D8 PUSH1 0x4 DUP1 CALLDATASIZE SUB DUP2 ADD SWAP1 PUSH2 0x1D3 SWAP2 SWAP1 PUSH2 0x198B JUMP JUMPDEST PUSH2 0x60C JUMP JUMPDEST STOP JUMPDEST CALLVALUE DUP1 ISZERO PUSH2 0x1E6 JUMPI PUSH1 0x0 DUP1 REVERT JUMPDEST POP PUSH2 0x201 PUSH1 0x4 DUP1 CALLDATASIZE SUB DUP2 ADD SWAP1 PUSH2 0x1FC SWAP2 SWAP1 PUSH2 0x198B JUMP JUMPDEST PUSH2 0x6F9 JUMP JUMPDEST STOP JUMPDEST CALLVALUE DUP1 ISZERO PUSH2 0x20F JUMPI PUSH1 0x0 DUP1 REVERT JUMPDEST POP PUSH2 0x22A PUSH1 0x4 DUP1 CALLDATASIZE SUB DUP2 ADD SWAP1 PUSH2 0x225 SWAP2 SWAP1 PUSH2 0x198B JUMP JUMPDEST PUSH2 0x8E9 JUMP JUMPDEST STOP JUMPDEST CALLVALUE DUP1 ISZERO PUSH2 0x238 JUMPI PUSH1 0x0 DUP1 REVERT JUMPDEST POP PUSH2 0x253 PUSH1 0x4 DUP1 CALLDATASIZE SUB DUP2 ADD SWAP1 PUSH2 0x24E SWAP2 SWAP1 PUSH2 0x198B JUMP JUMPDEST PUSH2 0xF22 JUMP JUMPDEST STOP JUMPDEST CALLVALUE DUP1 ISZERO PUSH2 0x261 JUMPI PUSH1 0x0 DUP1 REVERT JUMPDEST POP PUSH2 0x27C PUSH1 0x4 DUP1 CALLDATASIZE SUB DUP2 ADD SWAP1 PUSH2 0x277 SWAP2 SWAP1 PUSH2 0x198B JUMP JUMPDEST PUSH2 0x155A JUMP JUMPDEST STOP JUMPDEST CALLVALUE DUP1 ISZERO PUSH2 0x28A JUMPI PUSH1 0x0 DUP1 REVERT JUMPDEST POP PUSH2 0x293 PUSH2 0x174B JUMP JUMPDEST PUSH1 0x40 MLOAD PUSH2 0x2A0 SWAP2 SWAP1 PUSH2 0x1D99 JUMP JUMPDEST PUSH1 0x40 MLOAD DUP1 SWAP2 SUB SWAP1 RETURN JUMPDEST CALLVALUE DUP1 ISZERO PUSH2 0x2B5 JUMPI PUSH1 0x0 DUP1 REVERT JUMPDEST POP PUSH2 0x2D0 PUSH1 0x4 DUP1 CALLDATASIZE SUB DUP2 ADD SWAP1 PUSH2 0x2CB SWAP2 SWAP1 PUSH2 0x198B JUMP JUMPDEST PUSH2 0x1751 JUMP JUMPDEST PUSH1 0x40 MLOAD PUSH2 0x2DD SWAP2 SWAP1 PUSH2 0x1BFE JUMP JUMPDEST PUSH1 0x40 MLOAD DUP1 SWAP2 SUB SWAP1 RETURN JUMPDEST CALLVALUE DUP1 ISZERO PUSH2 0x2F2 JUMPI PUSH1 0x0 DUP1 REVERT JUMPDEST POP PUSH2 0x30D PUSH1 0x4 DUP1 CALLDATASIZE SUB DUP2 ADD SWAP1 PUSH2 0x308 SWAP2 SWAP1 PUSH2 0x198B JUMP JUMPDEST PUSH2 0x17BE JUMP JUMPDEST STOP JUMPDEST DUP1 PUSH1 0x0 DUP2 EQ ISZERO PUSH2 0x354 JUMPI PUSH1 0x40 MLOAD PUSH32 0x8C379A000000000000000000000000000000000000000000000000000000000 DUP2 MSTORE PUSH1 0x4 ADD PUSH2 0x34B SWAP1 PUSH2 0x1CB9 JUMP JUMPDEST PUSH1 0x40 MLOAD DUP1 SWAP2 SUB SWAP1 REVERT JUMPDEST PUSH1 0x0 SELFBALANCE SWAP1 POP PUSH1 0x0 PUSH1 0x6 PUSH1 0x0 CALLER PUSH20 0xFFFFFFFFFFFFFFFFFFFFFFFFFFFFFFFFFFFFFFFF AND PUSH20 0xFFFFFFFFFFFFFFFFFFFFFFFFFFFFFFFFFFFFFFFF AND DUP2 MSTORE PUSH1 0x20 ADD SWAP1 DUP2 MSTORE PUSH1 0x20 ADD PUSH1 0x0 KECCAK256 SLOAD DUP5 DUP4 PUSH2 0x3A7 SWAP2 SWAP1 PUSH2 0x1E1B JUMP JUMPDEST PUSH2 0x3B1 SWAP2 SWAP1 PUSH2 0x1E4C JUMP JUMPDEST SWAP1 POP CALLER PUSH20 0xFFFFFFFFFFFFFFFFFFFFFFFFFFFFFFFFFFFFFFFF AND PUSH2 0x8FC DUP3 SWAP1 DUP2 ISZERO MUL SWAP1 PUSH1 0x40 MLOAD PUSH1 0x0 PUSH1 0x40 MLOAD DUP1 DUP4 SUB DUP2 DUP6 DUP9 DUP9 CALL SWAP4 POP POP POP POP ISZERO DUP1 ISZERO PUSH2 0x3F9 JUMPI RETURNDATASIZE PUSH1 0x0 DUP1 RETURNDATACOPY RETURNDATASIZE PUSH1 0x0 REVERT JUMPDEST POP POP POP POP POP JUMP JUMPDEST PUSH1 0x6 PUSH1 0x20 MSTORE DUP1 PUSH1 0x0 MSTORE PUSH1 0x40 PUSH1 0x0 KECCAK256 PUSH1 0x0 SWAP2 POP SWAP1 POP SLOAD DUP2 JUMP JUMPDEST PUSH1 0x0 PUSH1 0x1 ISZERO ISZERO PUSH1 0x1 PUSH1 0x0 DUP5 PUSH20 0xFFFFFFFFFFFFFFFFFFFFFFFFFFFFFFFFFFFFFFFF AND PUSH20 0xFFFFFFFFFFFFFFFFFFFFFFFFFFFFFFFFFFFFFFFF AND DUP2 MSTORE PUSH1 0x20 ADD SWAP1 DUP2 MSTORE PUSH1 0x20 ADD PUSH1 0x0 KECCAK256 PUSH1 0x0 SWAP1 SLOAD SWAP1 PUSH2 0x100 EXP SWAP1 DIV PUSH1 0xFF AND ISZERO ISZERO EQ ISZERO PUSH2 0x47C JUMPI PUSH1 0x1 SWAP1 POP PUSH2 0x481 JUMP JUMPDEST PUSH1 0x0 SWAP1 POP JUMPDEST SWAP2 SWAP1 POP JUMP JUMPDEST PUSH1 0x1 ISZERO ISZERO PUSH1 0x0 DUP1 CALLER PUSH20 0xFFFFFFFFFFFFFFFFFFFFFFFFFFFFFFFFFFFFFFFF AND PUSH20 0xFFFFFFFFFFFFFFFFFFFFFFFFFFFFFFFFFFFFFFFF AND DUP2 MSTORE PUSH1 0x20 ADD SWAP1 DUP2 MSTORE PUSH1 0x20 ADD PUSH1 0x0 KECCAK256 PUSH1 0x0 SWAP1 SLOAD SWAP1 PUSH2 0x100 EXP SWAP1 DIV PUSH1 0xFF AND ISZERO ISZERO EQ PUSH2 0x518 JUMPI PUSH1 0x40 MLOAD PUSH32 0x8C379A000000000000000000000000000000000000000000000000000000000 DUP2 MSTORE PUSH1 0x4 ADD PUSH2 0x50F SWAP1 PUSH2 0x1C39 JUMP JUMPDEST PUSH1 0x40 MLOAD DUP1 SWAP2 SUB SWAP1 REVERT JUMPDEST DUP1 PUSH1 0x0 DUP2 EQ ISZERO PUSH2 0x55D JUMPI PUSH1 0x40 MLOAD PUSH32 0x8C379A000000000000000000000000000000000000000000000000000000000 DUP2 MSTORE PUSH1 0x4 ADD PUSH2 0x554 SWAP1 PUSH2 0x1CB9 JUMP JUMPDEST PUSH1 0x40 MLOAD DUP1 SWAP2 SUB SWAP1 REVERT JUMPDEST PUSH1 0x7 SLOAD DUP3 PUSH2 0x56B SWAP2 SWAP1 PUSH2 0x1E4C JUMP JUMPDEST CALLVALUE EQ PUSH2 0x5AC JUMPI PUSH1 0x40 MLOAD PUSH32 0x8C379A000000000000000000000000000000000000000000000000000000000 DUP2 MSTORE PUSH1 0x4 ADD PUSH2 0x5A3 SWAP1 PUSH2 0x1C19 JUMP JUMPDEST PUSH1 0x40 MLOAD DUP1 SWAP2 SUB SWAP1 REVERT JUMPDEST DUP2 PUSH1 0x6 PUSH1 0x0 CALLER PUSH20 0xFFFFFFFFFFFFFFFFFFFFFFFFFFFFFFFFFFFFFFFF AND PUSH20 0xFFFFFFFFFFFFFFFFFFFFFFFFFFFFFFFFFFFFFFFF AND DUP2 MSTORE PUSH1 0x20 ADD SWAP1 DUP2 MSTORE PUSH1 0x20 ADD PUSH1 0x0 KECCAK256 PUSH1 0x0 DUP3 DUP3 SLOAD PUSH2 0x5FB SWAP2 SWAP1 PUSH2 0x1DC5 JUMP JUMPDEST SWAP3 POP POP DUP2 SWAP1 SSTORE POP POP POP JUMP JUMPDEST PUSH1 0x8 SLOAD DUP2 JUMP JUMPDEST PUSH1 0x1 ISZERO ISZERO PUSH1 0x1 PUSH1 0x0 CALLER PUSH20 0xFFFFFFFFFFFFFFFFFFFFFFFFFFFFFFFFFFFFFFFF AND PUSH20 0xFFFFFFFFFFFFFFFFFFFFFFFFFFFFFFFFFFFFFFFF AND DUP2 MSTORE PUSH1 0x20 ADD SWAP1 DUP2 MSTORE PUSH1 0x20 ADD PUSH1 0x0 KECCAK256 PUSH1 0x0 SWAP1 SLOAD SWAP1 PUSH2 0x100 EXP SWAP1 DIV PUSH1 0xFF AND ISZERO ISZERO EQ PUSH2 0x69F JUMPI PUSH1 0x40 MLOAD PUSH32 0x8C379A000000000000000000000000000000000000000000000000000000000 DUP2 MSTORE PUSH1 0x4 ADD PUSH2 0x696 SWAP1 PUSH2 0x1D59 JUMP JUMPDEST PUSH1 0x40 MLOAD DUP1 SWAP2 SUB SWAP1 REVERT JUMPDEST PUSH1 0x0 DUP1 PUSH1 0x0 DUP4 PUSH20 0xFFFFFFFFFFFFFFFFFFFFFFFFFFFFFFFFFFFFFFFF AND PUSH20 0xFFFFFFFFFFFFFFFFFFFFFFFFFFFFFFFFFFFFFFFF AND DUP2 MSTORE PUSH1 0x20 ADD SWAP1 DUP2 MSTORE PUSH1 0x20 ADD PUSH1 0x0 KECCAK256 PUSH1 0x0 PUSH2 0x100 EXP DUP2 SLOAD DUP2 PUSH1 0xFF MUL NOT AND SWAP1 DUP4 ISZERO ISZERO MUL OR SWAP1 SSTORE POP POP JUMP JUMPDEST PUSH1 0x1 ISZERO ISZERO PUSH1 0x1 PUSH1 0x0 CALLER PUSH20 0xFFFFFFFFFFFFFFFFFFFFFFFFFFFFFFFFFFFFFFFF AND PUSH20 0xFFFFFFFFFFFFFFFFFFFFFFFFFFFFFFFFFFFFFFFF AND DUP2 MSTORE PUSH1 0x20 ADD SWAP1 DUP2 MSTORE PUSH1 0x20 ADD PUSH1 0x0 KECCAK256 PUSH1 0x0 SWAP1 SLOAD SWAP1 PUSH2 0x100 EXP SWAP1 DIV PUSH1 0xFF AND ISZERO ISZERO EQ PUSH2 0x78C JUMPI PUSH1 0x40 MLOAD PUSH32 0x8C379A000000000000000000000000000000000000000000000000000000000 DUP2 MSTORE PUSH1 0x4 ADD PUSH2 0x783 SWAP1 PUSH2 0x1D59 JUMP JUMPDEST PUSH1 0x40 MLOAD DUP1 SWAP2 SUB SWAP1 REVERT JUMPDEST PUSH1 0x0 PUSH20 0xFFFFFFFFFFFFFFFFFFFFFFFFFFFFFFFFFFFFFFFF AND DUP2 PUSH20 0xFFFFFFFFFFFFFFFFFFFFFFFFFFFFFFFFFFFFFFFF AND EQ ISZERO PUSH2 0x7FC JUMPI PUSH1 0x40 MLOAD PUSH32 0x8C379A000000000000000000000000000000000000000000000000000000000 DUP2 MSTORE PUSH1 0x4 ADD PUSH2 0x7F3 SWAP1 PUSH2 0x1C99 JUMP JUMPDEST PUSH1 0x40 MLOAD DUP1 SWAP2 SUB SWAP1 REVERT JUMPDEST PUSH1 0x1 ISZERO ISZERO PUSH1 0x0 DUP1 DUP4 PUSH20 0xFFFFFFFFFFFFFFFFFFFFFFFFFFFFFFFFFFFFFFFF AND PUSH20 0xFFFFFFFFFFFFFFFFFFFFFFFFFFFFFFFFFFFFFFFF AND DUP2 MSTORE PUSH1 0x20 ADD SWAP1 DUP2 MSTORE PUSH1 0x20 ADD PUSH1 0x0 KECCAK256 PUSH1 0x0 SWAP1 SLOAD SWAP1 PUSH2 0x100 EXP SWAP1 DIV PUSH1 0xFF AND ISZERO ISZERO EQ ISZERO PUSH2 0x88F JUMPI PUSH1 0x40 MLOAD PUSH32 0x8C379A000000000000000000000000000000000000000000000000000000000 DUP2 MSTORE PUSH1 0x4 ADD PUSH2 0x886 SWAP1 PUSH2 0x1D19 JUMP JUMPDEST PUSH1 0x40 MLOAD DUP1 SWAP2 SUB SWAP1 REVERT JUMPDEST PUSH1 0x1 PUSH1 0x0 DUP1 DUP4 PUSH20 0xFFFFFFFFFFFFFFFFFFFFFFFFFFFFFFFFFFFFFFFF AND PUSH20 0xFFFFFFFFFFFFFFFFFFFFFFFFFFFFFFFFFFFFFFFF AND DUP2 MSTORE PUSH1 0x20 ADD SWAP1 DUP2 MSTORE PUSH1 0x20 ADD PUSH1 0x0 KECCAK256 PUSH1 0x0 PUSH2 0x100 EXP DUP2 SLOAD DUP2 PUSH1 0xFF MUL NOT AND SWAP1 DUP4 ISZERO ISZERO MUL OR SWAP1 SSTORE POP POP JUMP JUMPDEST PUSH1 0x1 ISZERO ISZERO PUSH1 0x3 PUSH1 0x0 CALLER PUSH20 0xFFFFFFFFFFFFFFFFFFFFFFFFFFFFFFFFFFFFFFFF AND PUSH20 0xFFFFFFFFFFFFFFFFFFFFFFFFFFFFFFFFFFFFFFFF AND DUP2 MSTORE PUSH1 0x20 ADD SWAP1 DUP2 MSTORE PUSH1 0x20 ADD PUSH1 0x0 KECCAK256 PUSH1 0x0 SWAP1 SLOAD SWAP1 PUSH2 0x100 EXP SWAP1 DIV PUSH1 0xFF AND ISZERO ISZERO EQ PUSH2 0x97C JUMPI PUSH1 0x40 MLOAD PUSH32 0x8C379A000000000000000000000000000000000000000000000000000000000 DUP2 MSTORE PUSH1 0x4 ADD PUSH2 0x973 SWAP1 PUSH2 0x1C79 JUMP JUMPDEST PUSH1 0x40 MLOAD DUP1 SWAP2 SUB SWAP1 REVERT JUMPDEST PUSH1 0x1 ISZERO ISZERO PUSH1 0x3 PUSH1 0x0 DUP4 PUSH20 0xFFFFFFFFFFFFFFFFFFFFFFFFFFFFFFFFFFFFFFFF AND PUSH20 0xFFFFFFFFFFFFFFFFFFFFFFFFFFFFFFFFFFFFFFFF AND DUP2 MSTORE PUSH1 0x20 ADD SWAP1 DUP2 MSTORE PUSH1 0x20 ADD PUSH1 0x0 KECCAK256 PUSH1 0x0 SWAP1 SLOAD SWAP1 PUSH2 0x100 EXP SWAP1 DIV PUSH1 0xFF AND ISZERO ISZERO EQ ISZERO PUSH2 0xA10 JUMPI PUSH1 0x40 MLOAD PUSH32 0x8C379A000000000000000000000000000000000000000000000000000000000 DUP2 MSTORE PUSH1 0x4 ADD PUSH2 0xA07 SWAP1 PUSH2 0x1CD9 JUMP JUMPDEST PUSH1 0x40 MLOAD DUP1 SWAP2 SUB SWAP1 REVERT JUMPDEST PUSH1 0x0 ISZERO ISZERO PUSH1 0x4 PUSH1 0x0 DUP4 PUSH20 0xFFFFFFFFFFFFFFFFFFFFFFFFFFFFFFFFFFFFFFFF AND PUSH20 0xFFFFFFFFFFFFFFFFFFFFFFFFFFFFFFFFFFFFFFFF AND DUP2 MSTORE PUSH1 0x20 ADD SWAP1 DUP2 MSTORE PUSH1 0x20 ADD PUSH1 0x0 KECCAK256 PUSH1 0x0 SWAP1 SLOAD SWAP1 PUSH2 0x100 EXP SWAP1 DIV PUSH1 0xFF AND ISZERO ISZERO EQ ISZERO PUSH2 0xC36 JUMPI PUSH1 0x40 MLOAD PUSH2 0xA75 SWAP1 PUSH2 0x193F JUMP JUMPDEST PUSH1 0x40 MLOAD DUP1 SWAP2 SUB SWAP1 PUSH1 0x0 CREATE DUP1 ISZERO DUP1 ISZERO PUSH2 0xA91 JUMPI RETURNDATASIZE PUSH1 0x0 DUP1 RETURNDATACOPY RETURNDATASIZE PUSH1 0x0 REVERT JUMPDEST POP PUSH1 0x5 PUSH1 0x0 DUP4 PUSH20 0xFFFFFFFFFFFFFFFFFFFFFFFFFFFFFFFFFFFFFFFF AND PUSH20 0xFFFFFFFFFFFFFFFFFFFFFFFFFFFFFFFFFFFFFFFF AND DUP2 MSTORE PUSH1 0x20 ADD SWAP1 DUP2 MSTORE PUSH1 0x20 ADD PUSH1 0x0 KECCAK256 PUSH1 0x0 PUSH2 0x100 EXP DUP2 SLOAD DUP2 PUSH20 0xFFFFFFFFFFFFFFFFFFFFFFFFFFFFFFFFFFFFFFFF MUL NOT AND SWAP1 DUP4 PUSH20 0xFFFFFFFFFFFFFFFFFFFFFFFFFFFFFFFFFFFFFFFF AND MUL OR SWAP1 SSTORE POP PUSH1 0x1 PUSH1 0x4 PUSH1 0x0 DUP4 PUSH20 0xFFFFFFFFFFFFFFFFFFFFFFFFFFFFFFFFFFFFFFFF AND PUSH20 0xFFFFFFFFFFFFFFFFFFFFFFFFFFFFFFFFFFFFFFFF AND DUP2 MSTORE PUSH1 0x20 ADD SWAP1 DUP2 MSTORE PUSH1 0x20 ADD PUSH1 0x0 KECCAK256 PUSH1 0x0 PUSH2 0x100 EXP DUP2 SLOAD DUP2 PUSH1 0xFF MUL NOT AND SWAP1 DUP4 ISZERO ISZERO MUL OR SWAP1 SSTORE POP PUSH1 0x5 PUSH1 0x0 DUP3 PUSH20 0xFFFFFFFFFFFFFFFFFFFFFFFFFFFFFFFFFFFFFFFF AND PUSH20 0xFFFFFFFFFFFFFFFFFFFFFFFFFFFFFFFFFFFFFFFF AND DUP2 MSTORE PUSH1 0x20 ADD SWAP1 DUP2 MSTORE PUSH1 0x20 ADD PUSH1 0x0 KECCAK256 PUSH1 0x0 SWAP1 SLOAD SWAP1 PUSH2 0x100 EXP SWAP1 DIV PUSH20 0xFFFFFFFFFFFFFFFFFFFFFFFFFFFFFFFFFFFFFFFF AND PUSH20 0xFFFFFFFFFFFFFFFFFFFFFFFFFFFFFFFFFFFFFFFF AND PUSH4 0x69596D70 CALLER PUSH1 0x40 MLOAD DUP3 PUSH4 0xFFFFFFFF AND PUSH1 0xE0 SHL DUP2 MSTORE PUSH1 0x4 ADD PUSH2 0xBFF SWAP2 SWAP1 PUSH2 0x1BE3 JUMP JUMPDEST PUSH1 0x0 PUSH1 0x40 MLOAD DUP1 DUP4 SUB DUP2 PUSH1 0x0 DUP8 DUP1 EXTCODESIZE ISZERO DUP1 ISZERO PUSH2 0xC19 JUMPI PUSH1 0x0 DUP1 REVERT JUMPDEST POP GAS CALL ISZERO DUP1 ISZERO PUSH2 0xC2D JUMPI RETURNDATASIZE PUSH1 0x0 DUP1 RETURNDATACOPY RETURNDATASIZE PUSH1 0x0 REVERT JUMPDEST POP POP POP POP PUSH2 0xD01 JUMP JUMPDEST PUSH1 0x5 PUSH1 0x0 DUP3 PUSH20 0xFFFFFFFFFFFFFFFFFFFFFFFFFFFFFFFFFFFFFFFF AND PUSH20 0xFFFFFFFFFFFFFFFFFFFFFFFFFFFFFFFFFFFFFFFF AND DUP2 MSTORE PUSH1 0x20 ADD SWAP1 DUP2 MSTORE PUSH1 0x20 ADD PUSH1 0x0 KECCAK256 PUSH1 0x0 SWAP1 SLOAD SWAP1 PUSH2 0x100 EXP SWAP1 DIV PUSH20 0xFFFFFFFFFFFFFFFFFFFFFFFFFFFFFFFFFFFFFFFF AND PUSH20 0xFFFFFFFFFFFFFFFFFFFFFFFFFFFFFFFFFFFFFFFF AND PUSH4 0x69596D70 CALLER PUSH1 0x40 MLOAD DUP3 PUSH4 0xFFFFFFFF AND PUSH1 0xE0 SHL DUP2 MSTORE PUSH1 0x4 ADD PUSH2 0xCCE SWAP2 SWAP1 PUSH2 0x1BE3 JUMP JUMPDEST PUSH1 0x0 PUSH1 0x40 MLOAD DUP1 DUP4 SUB DUP2 PUSH1 0x0 DUP8 DUP1 EXTCODESIZE ISZERO DUP1 ISZERO PUSH2 0xCE8 JUMPI PUSH1 0x0 DUP1 REVERT JUMPDEST POP GAS CALL ISZERO DUP1 ISZERO PUSH2 0xCFC JUMPI RETURNDATASIZE PUSH1 0x0 DUP1 RETURNDATACOPY RETURNDATASIZE PUSH1 0x0 REVERT JUMPDEST POP POP POP POP JUMPDEST PUSH1 0x2 DUP1 SLOAD PUSH2 0xD0F SWAP2 SWAP1 PUSH2 0x1E1B JUMP JUMPDEST PUSH1 0x5 PUSH1 0x0 DUP4 PUSH20 0xFFFFFFFFFFFFFFFFFFFFFFFFFFFFFFFFFFFFFFFF AND PUSH20 0xFFFFFFFFFFFFFFFFFFFFFFFFFFFFFFFFFFFFFFFF AND DUP2 MSTORE PUSH1 0x20 ADD SWAP1 DUP2 MSTORE PUSH1 0x20 ADD PUSH1 0x0 KECCAK256 PUSH1 0x0 SWAP1 SLOAD SWAP1 PUSH2 0x100 EXP SWAP1 DIV PUSH20 0xFFFFFFFFFFFFFFFFFFFFFFFFFFFFFFFFFFFFFFFF AND PUSH20 0xFFFFFFFFFFFFFFFFFFFFFFFFFFFFFFFFFFFFFFFF AND PUSH4 0x929155BF PUSH1 0x40 MLOAD DUP2 PUSH4 0xFFFFFFFF AND PUSH1 0xE0 SHL DUP2 MSTORE PUSH1 0x4 ADD PUSH1 0x20 PUSH1 0x40 MLOAD DUP1 DUP4 SUB DUP2 DUP7 DUP1 EXTCODESIZE ISZERO DUP1 ISZERO PUSH2 0xDB4 JUMPI PUSH1 0x0 DUP1 REVERT JUMPDEST POP GAS STATICCALL ISZERO DUP1 ISZERO PUSH2 0xDC8 JUMPI RETURNDATASIZE PUSH1 0x0 DUP1 RETURNDATACOPY RETURNDATASIZE PUSH1 0x0 REVERT JUMPDEST POP POP POP POP PUSH1 0x40 MLOAD RETURNDATASIZE PUSH1 0x1F NOT PUSH1 0x1F DUP3 ADD AND DUP3 ADD DUP1 PUSH1 0x40 MSTORE POP DUP2 ADD SWAP1 PUSH2 0xDEC SWAP2 SWAP1 PUSH2 0x19E5 JUMP JUMPDEST GT ISZERO PUSH2 0xF1F JUMPI PUSH1 0x1 PUSH1 0x3 PUSH1 0x0 DUP4 PUSH20 0xFFFFFFFFFFFFFFFFFFFFFFFFFFFFFFFFFFFFFFFF AND PUSH20 0xFFFFFFFFFFFFFFFFFFFFFFFFFFFFFFFFFFFFFFFF AND DUP2 MSTORE PUSH1 0x20 ADD SWAP1 DUP2 MSTORE PUSH1 0x20 ADD PUSH1 0x0 KECCAK256 PUSH1 0x0 PUSH2 0x100 EXP DUP2 SLOAD DUP2 PUSH1 0xFF MUL NOT AND SWAP1 DUP4 ISZERO ISZERO MUL OR SWAP1 SSTORE POP PUSH1 0x1 PUSH1 0x2 PUSH1 0x0 DUP3 DUP3 SLOAD PUSH2 0xE5D SWAP2 SWAP1 PUSH2 0x1DC5 JUMP JUMPDEST SWAP3 POP POP DUP2 SWAP1 SSTORE POP PUSH1 0x5 PUSH1 0x0 DUP3 PUSH20 0xFFFFFFFFFFFFFFFFFFFFFFFFFFFFFFFFFFFFFFFF AND PUSH20 0xFFFFFFFFFFFFFFFFFFFFFFFFFFFFFFFFFFFFFFFF AND DUP2 MSTORE PUSH1 0x20 ADD SWAP1 DUP2 MSTORE PUSH1 0x20 ADD PUSH1 0x0 KECCAK256 PUSH1 0x0 PUSH2 0x100 EXP DUP2 SLOAD SWAP1 PUSH20 0xFFFFFFFFFFFFFFFFFFFFFFFFFFFFFFFFFFFFFFFF MUL NOT AND SWAP1 SSTORE PUSH1 0x0 PUSH1 0x4 PUSH1 0x0 DUP4 PUSH20 0xFFFFFFFFFFFFFFFFFFFFFFFFFFFFFFFFFFFFFFFF AND PUSH20 0xFFFFFFFFFFFFFFFFFFFFFFFFFFFFFFFFFFFFFFFF AND DUP2 MSTORE PUSH1 0x20 ADD SWAP1 DUP2 MSTORE PUSH1 0x20 ADD PUSH1 0x0 KECCAK256 PUSH1 0x0 PUSH2 0x100 EXP DUP2 SLOAD DUP2 PUSH1 0xFF MUL NOT AND SWAP1 DUP4 ISZERO ISZERO MUL OR SWAP1 SSTORE POP JUMPDEST POP JUMP JUMPDEST PUSH1 0x1 ISZERO ISZERO PUSH1 0x3 PUSH1 0x0 CALLER PUSH20 0xFFFFFFFFFFFFFFFFFFFFFFFFFFFFFFFFFFFFFFFF AND PUSH20 0xFFFFFFFFFFFFFFFFFFFFFFFFFFFFFFFFFFFFFFFF AND DUP2 MSTORE PUSH1 0x20 ADD SWAP1 DUP2 MSTORE PUSH1 0x20 ADD PUSH1 0x0 KECCAK256 PUSH1 0x0 SWAP1 SLOAD SWAP1 PUSH2 0x100 EXP SWAP1 DIV PUSH1 0xFF AND ISZERO ISZERO EQ PUSH2 0xFB5 JUMPI PUSH1 0x40 MLOAD PUSH32 0x8C379A000000000000000000000000000000000000000000000000000000000 DUP2 MSTORE PUSH1 0x4 ADD PUSH2 0xFAC SWAP1 PUSH2 0x1C79 JUMP JUMPDEST PUSH1 0x40 MLOAD DUP1 SWAP2 SUB SWAP1 REVERT JUMPDEST PUSH1 0x1 ISZERO ISZERO PUSH1 0x3 PUSH1 0x0 DUP4 PUSH20 0xFFFFFFFFFFFFFFFFFFFFFFFFFFFFFFFFFFFFFFFF AND PUSH20 0xFFFFFFFFFFFFFFFFFFFFFFFFFFFFFFFFFFFFFFFF AND DUP2 MSTORE PUSH1 0x20 ADD SWAP1 DUP2 MSTORE PUSH1 0x20 ADD PUSH1 0x0 KECCAK256 PUSH1 0x0 SWAP1 SLOAD SWAP1 PUSH2 0x100 EXP SWAP1 DIV PUSH1 0xFF AND ISZERO ISZERO EQ PUSH2 0x1048 JUMPI PUSH1 0x40 MLOAD PUSH32 0x8C379A000000000000000000000000000000000000000000000000000000000 DUP2 MSTORE PUSH1 0x4 ADD PUSH2 0x103F SWAP1 PUSH2 0x1D79 JUMP JUMPDEST PUSH1 0x40 MLOAD DUP1 SWAP2 SUB SWAP1 REVERT JUMPDEST PUSH1 0x0 ISZERO ISZERO PUSH1 0x4 PUSH1 0x0 DUP4 PUSH20 0xFFFFFFFFFFFFFFFFFFFFFFFFFFFFFFFFFFFFFFFF AND PUSH20 0xFFFFFFFFFFFFFFFFFFFFFFFFFFFFFFFFFFFFFFFF AND DUP2 MSTORE PUSH1 0x20 ADD SWAP1 DUP2 MSTORE PUSH1 0x20 ADD PUSH1 0x0 KECCAK256 PUSH1 0x0 SWAP1 SLOAD SWAP1 PUSH2 0x100 EXP SWAP1 DIV PUSH1 0xFF AND ISZERO ISZERO EQ ISZERO PUSH2 0x126E JUMPI PUSH1 0x40 MLOAD PUSH2 0x10AD SWAP1 PUSH2 0x193F JUMP JUMPDEST PUSH1 0x40 MLOAD DUP1 SWAP2 SUB SWAP1 PUSH1 0x0 CREATE DUP1 ISZERO DUP1 ISZERO PUSH2 0x10C9 JUMPI RETURNDATASIZE PUSH1 0x0 DUP1 RETURNDATACOPY RETURNDATASIZE PUSH1 0x0 REVERT JUMPDEST POP PUSH1 0x5 PUSH1 0x0 DUP4 PUSH20 0xFFFFFFFFFFFFFFFFFFFFFFFFFFFFFFFFFFFFFFFF AND PUSH20 0xFFFFFFFFFFFFFFFFFFFFFFFFFFFFFFFFFFFFFFFF AND DUP2 MSTORE PUSH1 0x20 ADD SWAP1 DUP2 MSTORE PUSH1 0x20 ADD PUSH1 0x0 KECCAK256 PUSH1 0x0 PUSH2 0x100 EXP DUP2 SLOAD DUP2 PUSH20 0xFFFFFFFFFFFFFFFFFFFFFFFFFFFFFFFFFFFFFFFF MUL NOT AND SWAP1 DUP4 PUSH20 0xFFFFFFFFFFFFFFFFFFFFFFFFFFFFFFFFFFFFFFFF AND MUL OR SWAP1 SSTORE POP PUSH1 0x1 PUSH1 0x4 PUSH1 0x0 DUP4 PUSH20 0xFFFFFFFFFFFFFFFFFFFFFFFFFFFFFFFFFFFFFFFF AND PUSH20 0xFFFFFFFFFFFFFFFFFFFFFFFFFFFFFFFFFFFFFFFF AND DUP2 MSTORE PUSH1 0x20 ADD SWAP1 DUP2 MSTORE PUSH1 0x20 ADD PUSH1 0x0 KECCAK256 PUSH1 0x0 PUSH2 0x100 EXP DUP2 SLOAD DUP2 PUSH1 0xFF MUL NOT AND SWAP1 DUP4 ISZERO ISZERO MUL OR SWAP1 SSTORE POP PUSH1 0x5 PUSH1 0x0 DUP3 PUSH20 0xFFFFFFFFFFFFFFFFFFFFFFFFFFFFFFFFFFFFFFFF AND PUSH20 0xFFFFFFFFFFFFFFFFFFFFFFFFFFFFFFFFFFFFFFFF AND DUP2 MSTORE PUSH1 0x20 ADD SWAP1 DUP2 MSTORE PUSH1 0x20 ADD PUSH1 0x0 KECCAK256 PUSH1 0x0 SWAP1 SLOAD SWAP1 PUSH2 0x100 EXP SWAP1 DIV PUSH20 0xFFFFFFFFFFFFFFFFFFFFFFFFFFFFFFFFFFFFFFFF AND PUSH20 0xFFFFFFFFFFFFFFFFFFFFFFFFFFFFFFFFFFFFFFFF AND PUSH4 0x7727D3AA CALLER PUSH1 0x40 MLOAD DUP3 PUSH4 0xFFFFFFFF AND PUSH1 0xE0 SHL DUP2 MSTORE PUSH1 0x4 ADD PUSH2 0x1237 SWAP2 SWAP1 PUSH2 0x1BE3 JUMP JUMPDEST PUSH1 0x0 PUSH1 0x40 MLOAD DUP1 DUP4 SUB DUP2 PUSH1 0x0 DUP8 DUP1 EXTCODESIZE ISZERO DUP1 ISZERO PUSH2 0x1251 JUMPI PUSH1 0x0 DUP1 REVERT JUMPDEST POP GAS CALL ISZERO DUP1 ISZERO PUSH2 0x1265 JUMPI RETURNDATASIZE PUSH1 0x0 DUP1 RETURNDATACOPY RETURNDATASIZE PUSH1 0x0 REVERT JUMPDEST POP POP POP POP PUSH2 0x1339 JUMP JUMPDEST PUSH1 0x5 PUSH1 0x0 DUP3 PUSH20 0xFFFFFFFFFFFFFFFFFFFFFFFFFFFFFFFFFFFFFFFF AND PUSH20 0xFFFFFFFFFFFFFFFFFFFFFFFFFFFFFFFFFFFFFFFF AND DUP2 MSTORE PUSH1 0x20 ADD SWAP1 DUP2 MSTORE PUSH1 0x20 ADD PUSH1 0x0 KECCAK256 PUSH1 0x0 SWAP1 SLOAD SWAP1 PUSH2 0x100 EXP SWAP1 DIV PUSH20 0xFFFFFFFFFFFFFFFFFFFFFFFFFFFFFFFFFFFFFFFF AND PUSH20 0xFFFFFFFFFFFFFFFFFFFFFFFFFFFFFFFFFFFFFFFF AND PUSH4 0x7727D3AA CALLER PUSH1 0x40 MLOAD DUP3 PUSH4 0xFFFFFFFF AND PUSH1 0xE0 SHL DUP2 MSTORE PUSH1 0x4 ADD PUSH2 0x1306 SWAP2 SWAP1 PUSH2 0x1BE3 JUMP JUMPDEST PUSH1 0x0 PUSH1 0x40 MLOAD DUP1 DUP4 SUB DUP2 PUSH1 0x0 DUP8 DUP1 EXTCODESIZE ISZERO DUP1 ISZERO PUSH2 0x1320 JUMPI PUSH1 0x0 DUP1 REVERT JUMPDEST POP GAS CALL ISZERO DUP1 ISZERO PUSH2 0x1334 JUMPI RETURNDATASIZE PUSH1 0x0 DUP1 RETURNDATACOPY RETURNDATASIZE PUSH1 0x0 REVERT JUMPDEST POP POP POP POP JUMPDEST PUSH1 0x2 DUP1 SLOAD PUSH2 0x1347 SWAP2 SWAP1 PUSH2 0x1E1B JUMP JUMPDEST PUSH1 0x5 PUSH1 0x0 DUP4 PUSH20 0xFFFFFFFFFFFFFFFFFFFFFFFFFFFFFFFFFFFFFFFF AND PUSH20 0xFFFFFFFFFFFFFFFFFFFFFFFFFFFFFFFFFFFFFFFF AND DUP2 MSTORE PUSH1 0x20 ADD SWAP1 DUP2 MSTORE PUSH1 0x20 ADD PUSH1 0x0 KECCAK256 PUSH1 0x0 SWAP1 SLOAD SWAP1 PUSH2 0x100 EXP SWAP1 DIV PUSH20 0xFFFFFFFFFFFFFFFFFFFFFFFFFFFFFFFFFFFFFFFF AND PUSH20 0xFFFFFFFFFFFFFFFFFFFFFFFFFFFFFFFFFFFFFFFF AND PUSH4 0x5CB7E8AF PUSH1 0x40 MLOAD DUP2 PUSH4 0xFFFFFFFF AND PUSH1 0xE0 SHL DUP2 MSTORE PUSH1 0x4 ADD PUSH1 0x20 PUSH1 0x40 MLOAD DUP1 DUP4 SUB DUP2 DUP7 DUP1 EXTCODESIZE ISZERO DUP1 ISZERO PUSH2 0x13EC JUMPI PUSH1 0x0 DUP1 REVERT JUMPDEST POP GAS STATICCALL ISZERO DUP1 ISZERO PUSH2 0x1400 JUMPI RETURNDATASIZE PUSH1 0x0 DUP1 RETURNDATACOPY RETURNDATASIZE PUSH1 0x0 REVERT JUMPDEST POP POP POP POP PUSH1 0x40 MLOAD RETURNDATASIZE PUSH1 0x1F NOT PUSH1 0x1F DUP3 ADD AND DUP3 ADD DUP1 PUSH1 0x40 MSTORE POP DUP2 ADD SWAP1 PUSH2 0x1424 SWAP2 SWAP1 PUSH2 0x19E5 JUMP JUMPDEST GT ISZERO PUSH2 0x1557 JUMPI PUSH1 0x1 PUSH1 0x3 PUSH1 0x0 DUP4 PUSH20 0xFFFFFFFFFFFFFFFFFFFFFFFFFFFFFFFFFFFFFFFF AND PUSH20 0xFFFFFFFFFFFFFFFFFFFFFFFFFFFFFFFFFFFFFFFF AND DUP2 MSTORE PUSH1 0x20 ADD SWAP1 DUP2 MSTORE PUSH1 0x20 ADD PUSH1 0x0 KECCAK256 PUSH1 0x0 PUSH2 0x100 EXP DUP2 SLOAD DUP2 PUSH1 0xFF MUL NOT AND SWAP1 DUP4 ISZERO ISZERO MUL OR SWAP1 SSTORE POP PUSH1 0x1 PUSH1 0x2 PUSH1 0x0 DUP3 DUP3 SLOAD PUSH2 0x1495 SWAP2 SWAP1 PUSH2 0x1EA6 JUMP JUMPDEST SWAP3 POP POP DUP2 SWAP1 SSTORE POP PUSH1 0x5 PUSH1 0x0 DUP3 PUSH20 0xFFFFFFFFFFFFFFFFFFFFFFFFFFFFFFFFFFFFFFFF AND PUSH20 0xFFFFFFFFFFFFFFFFFFFFFFFFFFFFFFFFFFFFFFFF AND DUP2 MSTORE PUSH1 0x20 ADD SWAP1 DUP2 MSTORE PUSH1 0x20 ADD PUSH1 0x0 KECCAK256 PUSH1 0x0 PUSH2 0x100 EXP DUP2 SLOAD SWAP1 PUSH20 0xFFFFFFFFFFFFFFFFFFFFFFFFFFFFFFFFFFFFFFFF MUL NOT AND SWAP1 SSTORE PUSH1 0x0 PUSH1 0x4 PUSH1 0x0 DUP4 PUSH20 0xFFFFFFFFFFFFFFFFFFFFFFFFFFFFFFFFFFFFFFFF AND PUSH20 0xFFFFFFFFFFFFFFFFFFFFFFFFFFFFFFFFFFFFFFFF AND DUP2 MSTORE PUSH1 0x20 ADD SWAP1 DUP2 MSTORE PUSH1 0x20 ADD PUSH1 0x0 KECCAK256 PUSH1 0x0 PUSH2 0x100 EXP DUP2 SLOAD DUP2 PUSH1 0xFF MUL NOT AND SWAP1 DUP4 ISZERO ISZERO MUL OR SWAP1 SSTORE POP JUMPDEST POP JUMP JUMPDEST PUSH1 0x1 ISZERO ISZERO PUSH1 0x3 PUSH1 0x0 CALLER PUSH20 0xFFFFFFFFFFFFFFFFFFFFFFFFFFFFFFFFFFFFFFFF AND PUSH20 0xFFFFFFFFFFFFFFFFFFFFFFFFFFFFFFFFFFFFFFFF AND DUP2 MSTORE PUSH1 0x20 ADD SWAP1 DUP2 MSTORE PUSH1 0x20 ADD PUSH1 0x0 KECCAK256 PUSH1 0x0 SWAP1 SLOAD SWAP1 PUSH2 0x100 EXP SWAP1 DIV PUSH1 0xFF AND ISZERO ISZERO EQ PUSH2 0x15ED JUMPI PUSH1 0x40 MLOAD PUSH32 0x8C379A000000000000000000000000000000000000000000000000000000000 DUP2 MSTORE PUSH1 0x4 ADD PUSH2 0x15E4 SWAP1 PUSH2 0x1C79 JUMP JUMPDEST PUSH1 0x40 MLOAD DUP1 SWAP2 SUB SWAP1 REVERT JUMPDEST PUSH1 0x0 PUSH20 0xFFFFFFFFFFFFFFFFFFFFFFFFFFFFFFFFFFFFFFFF AND DUP2 PUSH20 0xFFFFFFFFFFFFFFFFFFFFFFFFFFFFFFFFFFFFFFFF AND EQ ISZERO PUSH2 0x165D JUMPI PUSH1 0x40 MLOAD PUSH32 0x8C379A000000000000000000000000000000000000000000000000000000000 DUP2 MSTORE PUSH1 0x4 ADD PUSH2 0x1654 SWAP1 PUSH2 0x1D39 JUMP JUMPDEST PUSH1 0x40 MLOAD DUP1 SWAP2 SUB SWAP1 REVERT JUMPDEST PUSH1 0x1 ISZERO ISZERO PUSH1 0x1 PUSH1 0x0 DUP4 PUSH20 0xFFFFFFFFFFFFFFFFFFFFFFFFFFFFFFFFFFFFFFFF AND PUSH20 0xFFFFFFFFFFFFFFFFFFFFFFFFFFFFFFFFFFFFFFFF AND DUP2 MSTORE PUSH1 0x20 ADD SWAP1 DUP2 MSTORE PUSH1 0x20 ADD PUSH1 0x0 KECCAK256 PUSH1 0x0 SWAP1 SLOAD SWAP1 PUSH2 0x100 EXP SWAP1 DIV PUSH1 0xFF AND ISZERO ISZERO EQ ISZERO PUSH2 0x16F1 JUMPI PUSH1 0x40 MLOAD PUSH32 0x8C379A000000000000000000000000000000000000000000000000000000000 DUP2 MSTORE PUSH1 0x4 ADD PUSH2 0x16E8 SWAP1 PUSH2 0x1CF9 JUMP JUMPDEST PUSH1 0x40 MLOAD DUP1 SWAP2 SUB SWAP1 REVERT JUMPDEST PUSH1 0x1 DUP1 PUSH1 0x0 DUP4 PUSH20 0xFFFFFFFFFFFFFFFFFFFFFFFFFFFFFFFFFFFFFFFF AND PUSH20 0xFFFFFFFFFFFFFFFFFFFFFFFFFFFFFFFFFFFFFFFF AND DUP2 MSTORE PUSH1 0x20 ADD SWAP1 DUP2 MSTORE PUSH1 0x20 ADD PUSH1 0x0 KECCAK256 PUSH1 0x0 PUSH2 0x100 EXP DUP2 SLOAD DUP2 PUSH1 0xFF MUL NOT AND SWAP1 DUP4 ISZERO ISZERO MUL OR SWAP1 SSTORE POP POP JUMP JUMPDEST PUSH1 0x7 SLOAD DUP2 JUMP JUMPDEST PUSH1 0x0 PUSH1 0x1 ISZERO ISZERO PUSH1 0x0 DUP1 DUP5 PUSH20 0xFFFFFFFFFFFFFFFFFFFFFFFFFFFFFFFFFFFFFFFF AND PUSH20 0xFFFFFFFFFFFFFFFFFFFFFFFFFFFFFFFFFFFFFFFF AND DUP2 MSTORE PUSH1 0x20 ADD SWAP1 DUP2 MSTORE PUSH1 0x20 ADD PUSH1 0x0 KECCAK256 PUSH1 0x0 SWAP1 SLOAD SWAP1 PUSH2 0x100 EXP SWAP1 DIV PUSH1 0xFF AND ISZERO ISZERO EQ ISZERO PUSH2 0x17B4 JUMPI PUSH1 0x1 SWAP1 POP PUSH2 0x17B9 JUMP JUMPDEST PUSH1 0x0 SWAP1 POP JUMPDEST SWAP2 SWAP1 POP JUMP JUMPDEST PUSH1 0x1 ISZERO ISZERO PUSH1 0x3 PUSH1 0x0 CALLER PUSH20 0xFFFFFFFFFFFFFFFFFFFFFFFFFFFFFFFFFFFFFFFF AND PUSH20 0xFFFFFFFFFFFFFFFFFFFFFFFFFFFFFFFFFFFFFFFF AND DUP2 MSTORE PUSH1 0x20 ADD SWAP1 DUP2 MSTORE PUSH1 0x20 ADD PUSH1 0x0 KECCAK256 PUSH1 0x0 SWAP1 SLOAD SWAP1 PUSH2 0x100 EXP SWAP1 DIV PUSH1 0xFF AND ISZERO ISZERO EQ PUSH2 0x1851 JUMPI PUSH1 0x40 MLOAD PUSH32 0x8C379A000000000000000000000000000000000000000000000000000000000 DUP2 MSTORE PUSH1 0x4 ADD PUSH2 0x1848 SWAP1 PUSH2 0x1C79 JUMP JUMPDEST PUSH1 0x40 MLOAD DUP1 SWAP2 SUB SWAP1 REVERT JUMPDEST PUSH1 0x1 ISZERO ISZERO PUSH1 0x1 PUSH1 0x0 DUP4 PUSH20 0xFFFFFFFFFFFFFFFFFFFFFFFFFFFFFFFFFFFFFFFF AND PUSH20 0xFFFFFFFFFFFFFFFFFFFFFFFFFFFFFFFFFFFFFFFF AND DUP2 MSTORE PUSH1 0x20 ADD SWAP1 DUP2 MSTORE PUSH1 0x20 ADD PUSH1 0x0 KECCAK256 PUSH1 0x0 SWAP1 SLOAD SWAP1 PUSH2 0x100 EXP SWAP1 DIV PUSH1 0xFF AND ISZERO ISZERO EQ PUSH2 0x18E4 JUMPI PUSH1 0x40 MLOAD PUSH32 0x8C379A000000000000000000000000000000000000000000000000000000000 DUP2 MSTORE PUSH1 0x4 ADD PUSH2 0x18DB SWAP1 PUSH2 0x1C59 JUMP JUMPDEST PUSH1 0x40 MLOAD DUP1 SWAP2 SUB SWAP1 REVERT JUMPDEST PUSH1 0x0 PUSH1 0x1 PUSH1 0x0 DUP4 PUSH20 0xFFFFFFFFFFFFFFFFFFFFFFFFFFFFFFFFFFFFFFFF AND PUSH20 0xFFFFFFFFFFFFFFFFFFFFFFFFFFFFFFFFFFFFFFFF AND DUP2 MSTORE PUSH1 0x20 ADD SWAP1 DUP2 MSTORE PUSH1 0x20 ADD PUSH1 0x0 KECCAK256 PUSH1 0x0 PUSH2 0x100 EXP DUP2 SLOAD DUP2 PUSH1 0xFF MUL NOT AND SWAP1 DUP4 ISZERO ISZERO MUL OR SWAP1 SSTORE POP POP JUMP JUMPDEST PUSH2 0x590 DUP1 PUSH2 0x2284 DUP4 CODECOPY ADD SWAP1 JUMP JUMPDEST PUSH1 0x0 DUP2 CALLDATALOAD SWAP1 POP PUSH2 0x195B DUP2 PUSH2 0x2255 JUMP JUMPDEST SWAP3 SWAP2 POP POP JUMP JUMPDEST PUSH1 0x0 DUP2 CALLDATALOAD SWAP1 POP PUSH2 0x1970 DUP2 PUSH2 0x226C JUMP JUMPDEST SWAP3 SWAP2 POP POP JUMP JUMPDEST PUSH1 0x0 DUP2 MLOAD SWAP1 POP PUSH2 0x1985 DUP2 PUSH2 0x226C JUMP JUMPDEST SWAP3 SWAP2 POP POP JUMP JUMPDEST PUSH1 0x0 PUSH1 0x20 DUP3 DUP5 SUB SLT ISZERO PUSH2 0x19A1 JUMPI PUSH2 0x19A0 PUSH2 0x1F80 JUMP JUMPDEST JUMPDEST PUSH1 0x0 PUSH2 0x19AF DUP5 DUP3 DUP6 ADD PUSH2 0x194C JUMP JUMPDEST SWAP2 POP POP SWAP3 SWAP2 POP POP JUMP JUMPDEST PUSH1 0x0 PUSH1 0x20 DUP3 DUP5 SUB SLT ISZERO PUSH2 0x19CE JUMPI PUSH2 0x19CD PUSH2 0x1F80 JUMP JUMPDEST JUMPDEST PUSH1 0x0 PUSH2 0x19DC DUP5 DUP3 DUP6 ADD PUSH2 0x1961 JUMP JUMPDEST SWAP2 POP POP SWAP3 SWAP2 POP POP JUMP JUMPDEST PUSH1 0x0 PUSH1 0x20 DUP3 DUP5 SUB SLT ISZERO PUSH2 0x19FB JUMPI PUSH2 0x19FA PUSH2 0x1F80 JUMP JUMPDEST JUMPDEST PUSH1 0x0 PUSH2 0x1A09 DUP5 DUP3 DUP6 ADD PUSH2 0x1976 JUMP JUMPDEST SWAP2 POP POP SWAP3 SWAP2 POP POP JUMP JUMPDEST PUSH2 0x1A1B DUP2 PUSH2 0x1EDA JUMP JUMPDEST DUP3 MSTORE POP POP JUMP JUMPDEST PUSH2 0x1A2A DUP2 PUSH2 0x1EEC JUMP JUMPDEST DUP3 MSTORE POP POP JUMP JUMPDEST PUSH1 0x0 PUSH2 0x1A3D PUSH1 0x31 DUP4 PUSH2 0x1DB4 JUMP JUMPDEST SWAP2 POP PUSH2 0x1A48 DUP3 PUSH2 0x1F85 JUMP JUMPDEST PUSH1 0x40 DUP3 ADD SWAP1 POP SWAP2 SWAP1 POP JUMP JUMPDEST PUSH1 0x0 PUSH2 0x1A60 PUSH1 0x14 DUP4 PUSH2 0x1DB4 JUMP JUMPDEST SWAP2 POP PUSH2 0x1A6B DUP3 PUSH2 0x1FD4 JUMP JUMPDEST PUSH1 0x20 DUP3 ADD SWAP1 POP SWAP2 SWAP1 POP JUMP JUMPDEST PUSH1 0x0 PUSH2 0x1A83 PUSH1 0x37 DUP4 PUSH2 0x1DB4 JUMP JUMPDEST SWAP2 POP PUSH2 0x1A8E DUP3 PUSH2 0x1FFD JUMP JUMPDEST PUSH1 0x40 DUP3 ADD SWAP1 POP SWAP2 SWAP1 POP JUMP JUMPDEST PUSH1 0x0 PUSH2 0x1AA6 PUSH1 0x14 DUP4 PUSH2 0x1DB4 JUMP JUMPDEST SWAP2 POP PUSH2 0x1AB1 DUP3 PUSH2 0x204C JUMP JUMPDEST PUSH1 0x20 DUP3 ADD SWAP1 POP SWAP2 SWAP1 POP JUMP JUMPDEST PUSH1 0x0 PUSH2 0x1AC9 PUSH1 0x1E DUP4 PUSH2 0x1DB4 JUMP JUMPDEST SWAP2 POP PUSH2 0x1AD4 DUP3 PUSH2 0x2075 JUMP JUMPDEST PUSH1 0x20 DUP3 ADD SWAP1 POP SWAP2 SWAP1 POP JUMP JUMPDEST PUSH1 0x0 PUSH2 0x1AEC PUSH1 0x24 DUP4 PUSH2 0x1DB4 JUMP JUMPDEST SWAP2 POP PUSH2 0x1AF7 DUP3 PUSH2 0x209E JUMP JUMPDEST PUSH1 0x40 DUP3 ADD SWAP1 POP SWAP2 SWAP1 POP JUMP JUMPDEST PUSH1 0x0 PUSH2 0x1B0F PUSH1 0x2F DUP4 PUSH2 0x1DB4 JUMP JUMPDEST SWAP2 POP PUSH2 0x1B1A DUP3 PUSH2 0x20ED JUMP JUMPDEST PUSH1 0x40 DUP3 ADD SWAP1 POP SWAP2 SWAP1 POP JUMP JUMPDEST PUSH1 0x0 PUSH2 0x1B32 PUSH1 0x1E DUP4 PUSH2 0x1DB4 JUMP JUMPDEST SWAP2 POP PUSH2 0x1B3D DUP3 PUSH2 0x213C JUMP JUMPDEST PUSH1 0x20 DUP3 ADD SWAP1 POP SWAP2 SWAP1 POP JUMP JUMPDEST PUSH1 0x0 PUSH2 0x1B55 PUSH1 0x1B DUP4 PUSH2 0x1DB4 JUMP JUMPDEST SWAP2 POP PUSH2 0x1B60 DUP3 PUSH2 0x2165 JUMP JUMPDEST PUSH1 0x20 DUP3 ADD SWAP1 POP SWAP2 SWAP1 POP JUMP JUMPDEST PUSH1 0x0 PUSH2 0x1B78 PUSH1 0x21 DUP4 PUSH2 0x1DB4 JUMP JUMPDEST SWAP2 POP PUSH2 0x1B83 DUP3 PUSH2 0x218E JUMP JUMPDEST PUSH1 0x40 DUP3 ADD SWAP1 POP SWAP2 SWAP1 POP JUMP JUMPDEST PUSH1 0x0 PUSH2 0x1B9B PUSH1 0x16 DUP4 PUSH2 0x1DB4 JUMP JUMPDEST SWAP2 POP PUSH2 0x1BA6 DUP3 PUSH2 0x21DD JUMP JUMPDEST PUSH1 0x20 DUP3 ADD SWAP1 POP SWAP2 SWAP1 POP JUMP JUMPDEST PUSH1 0x0 PUSH2 0x1BBE PUSH1 0x2D DUP4 PUSH2 0x1DB4 JUMP JUMPDEST SWAP2 POP PUSH2 0x1BC9 DUP3 PUSH2 0x2206 JUMP JUMPDEST PUSH1 0x40 DUP3 ADD SWAP1 POP SWAP2 SWAP1 POP JUMP JUMPDEST PUSH2 0x1BDD DUP2 PUSH2 0x1F18 JUMP JUMPDEST DUP3 MSTORE POP POP JUMP JUMPDEST PUSH1 0x0 PUSH1 0x20 DUP3 ADD SWAP1 POP PUSH2 0x1BF8 PUSH1 0x0 DUP4 ADD DUP5 PUSH2 0x1A12 JUMP JUMPDEST SWAP3 SWAP2 POP POP JUMP JUMPDEST PUSH1 0x0 PUSH1 0x20 DUP3 ADD SWAP1 POP PUSH2 0x1C13 PUSH1 0x0 DUP4 ADD DUP5 PUSH2 0x1A21 JUMP JUMPDEST SWAP3 SWAP2 POP POP JUMP JUMPDEST PUSH1 0x0 PUSH1 0x20 DUP3 ADD SWAP1 POP DUP2 DUP2 SUB PUSH1 0x0 DUP4 ADD MSTORE PUSH2 0x1C32 DUP2 PUSH2 0x1A30 JUMP JUMPDEST SWAP1 POP SWAP2 SWAP1 POP JUMP JUMPDEST PUSH1 0x0 PUSH1 0x20 DUP3 ADD SWAP1 POP DUP2 DUP2 SUB PUSH1 0x0 DUP4 ADD MSTORE PUSH2 0x1C52 DUP2 PUSH2 0x1A53 JUMP JUMPDEST SWAP1 POP SWAP2 SWAP1 POP JUMP JUMPDEST PUSH1 0x0 PUSH1 0x20 DUP3 ADD SWAP1 POP DUP2 DUP2 SUB PUSH1 0x0 DUP4 ADD MSTORE PUSH2 0x1C72 DUP2 PUSH2 0x1A76 JUMP JUMPDEST SWAP1 POP SWAP2 SWAP1 POP JUMP JUMPDEST PUSH1 0x0 PUSH1 0x20 DUP3 ADD SWAP1 POP DUP2 DUP2 SUB PUSH1 0x0 DUP4 ADD MSTORE PUSH2 0x1C92 DUP2 PUSH2 0x1A99 JUMP JUMPDEST SWAP1 POP SWAP2 SWAP1 POP JUMP JUMPDEST PUSH1 0x0 PUSH1 0x20 DUP3 ADD SWAP1 POP DUP2 DUP2 SUB PUSH1 0x0 DUP4 ADD MSTORE PUSH2 0x1CB2 DUP2 PUSH2 0x1ABC JUMP JUMPDEST SWAP1 POP SWAP2 SWAP1 POP JUMP JUMPDEST PUSH1 0x0 PUSH1 0x20 DUP3 ADD SWAP1 POP DUP2 DUP2 SUB PUSH1 0x0 DUP4 ADD MSTORE PUSH2 0x1CD2 DUP2 PUSH2 0x1ADF JUMP JUMPDEST SWAP1 POP SWAP2 SWAP1 POP JUMP JUMPDEST PUSH1 0x0 PUSH1 0x20 DUP3 ADD SWAP1 POP DUP2 DUP2 SUB PUSH1 0x0 DUP4 ADD MSTORE PUSH2 0x1CF2 DUP2 PUSH2 0x1B02 JUMP JUMPDEST SWAP1 POP SWAP2 SWAP1 POP JUMP JUMPDEST PUSH1 0x0 PUSH1 0x20 DUP3 ADD SWAP1 POP DUP2 DUP2 SUB PUSH1 0x0 DUP4 ADD MSTORE PUSH2 0x1D12 DUP2 PUSH2 0x1B25 JUMP JUMPDEST SWAP1 POP SWAP2 SWAP1 POP JUMP JUMPDEST PUSH1 0x0 PUSH1 0x20 DUP3 ADD SWAP1 POP DUP2 DUP2 SUB PUSH1 0x0 DUP4 ADD MSTORE PUSH2 0x1D32 DUP2 PUSH2 0x1B48 JUMP JUMPDEST SWAP1 POP SWAP2 SWAP1 POP JUMP JUMPDEST PUSH1 0x0 PUSH1 0x20 DUP3 ADD SWAP1 POP DUP2 DUP2 SUB PUSH1 0x0 DUP4 ADD MSTORE PUSH2 0x1D52 DUP2 PUSH2 0x1B6B JUMP JUMPDEST SWAP1 POP SWAP2 SWAP1 POP JUMP JUMPDEST PUSH1 0x0 PUSH1 0x20 DUP3 ADD SWAP1 POP DUP2 DUP2 SUB PUSH1 0x0 DUP4 ADD MSTORE PUSH2 0x1D72 DUP2 PUSH2 0x1B8E JUMP JUMPDEST SWAP1 POP SWAP2 SWAP1 POP JUMP JUMPDEST PUSH1 0x0 PUSH1 0x20 DUP3 ADD SWAP1 POP DUP2 DUP2 SUB PUSH1 0x0 DUP4 ADD MSTORE PUSH2 0x1D92 DUP2 PUSH2 0x1BB1 JUMP JUMPDEST SWAP1 POP SWAP2 SWAP1 POP JUMP JUMPDEST PUSH1 0x0 PUSH1 0x20 DUP3 ADD SWAP1 POP PUSH2 0x1DAE PUSH1 0x0 DUP4 ADD DUP5 PUSH2 0x1BD4 JUMP JUMPDEST SWAP3 SWAP2 POP POP JUMP JUMPDEST PUSH1 0x0 DUP3 DUP3 MSTORE PUSH1 0x20 DUP3 ADD SWAP1 POP SWAP3 SWAP2 POP POP JUMP JUMPDEST PUSH1 0x0 PUSH2 0x1DD0 DUP3 PUSH2 0x1F18 JUMP JUMPDEST SWAP2 POP PUSH2 0x1DDB DUP4 PUSH2 0x1F18 JUMP JUMPDEST SWAP3 POP DUP3 PUSH32 0xFFFFFFFFFFFFFFFFFFFFFFFFFFFFFFFFFFFFFFFFFFFFFFFFFFFFFFFFFFFFFFFF SUB DUP3 GT ISZERO PUSH2 0x1E10 JUMPI PUSH2 0x1E0F PUSH2 0x1F22 JUMP JUMPDEST JUMPDEST DUP3 DUP3 ADD SWAP1 POP SWAP3 SWAP2 POP POP JUMP JUMPDEST PUSH1 0x0 PUSH2 0x1E26 DUP3 PUSH2 0x1F18 JUMP JUMPDEST SWAP2 POP PUSH2 0x1E31 DUP4 PUSH2 0x1F18 JUMP JUMPDEST SWAP3 POP DUP3 PUSH2 0x1E41 JUMPI PUSH2 0x1E40 PUSH2 0x1F51 JUMP JUMPDEST JUMPDEST DUP3 DUP3 DIV SWAP1 POP SWAP3 SWAP2 POP POP JUMP JUMPDEST PUSH1 0x0 PUSH2 0x1E57 DUP3 PUSH2 0x1F18 JUMP JUMPDEST SWAP2 POP PUSH2 0x1E62 DUP4 PUSH2 0x1F18 JUMP JUMPDEST SWAP3 POP DUP2 PUSH32 0xFFFFFFFFFFFFFFFFFFFFFFFFFFFFFFFFFFFFFFFFFFFFFFFFFFFFFFFFFFFFFFFF DIV DUP4 GT DUP3 ISZERO ISZERO AND ISZERO PUSH2 0x1E9B JUMPI PUSH2 0x1E9A PUSH2 0x1F22 JUMP JUMPDEST JUMPDEST DUP3 DUP3 MUL SWAP1 POP SWAP3 SWAP2 POP POP JUMP JUMPDEST PUSH1 0x0 PUSH2 0x1EB1 DUP3 PUSH2 0x1F18 JUMP JUMPDEST SWAP2 POP PUSH2 0x1EBC DUP4 PUSH2 0x1F18 JUMP JUMPDEST SWAP3 POP DUP3 DUP3 LT ISZERO PUSH2 0x1ECF JUMPI PUSH2 0x1ECE PUSH2 0x1F22 JUMP JUMPDEST JUMPDEST DUP3 DUP3 SUB SWAP1 POP SWAP3 SWAP2 POP POP JUMP JUMPDEST PUSH1 0x0 PUSH2 0x1EE5 DUP3 PUSH2 0x1EF8 JUMP JUMPDEST SWAP1 POP SWAP2 SWAP1 POP JUMP JUMPDEST PUSH1 0x0 DUP2 ISZERO ISZERO SWAP1 POP SWAP2 SWAP1 POP JUMP JUMPDEST PUSH1 0x0 PUSH20 0xFFFFFFFFFFFFFFFFFFFFFFFFFFFFFFFFFFFFFFFF DUP3 AND SWAP1 POP SWAP2 SWAP1 POP JUMP JUMPDEST PUSH1 0x0 DUP2 SWAP1 POP SWAP2 SWAP1 POP JUMP JUMPDEST PUSH32 0x4E487B7100000000000000000000000000000000000000000000000000000000 PUSH1 0x0 MSTORE PUSH1 0x11 PUSH1 0x4 MSTORE PUSH1 0x24 PUSH1 0x0 REVERT JUMPDEST PUSH32 0x4E487B7100000000000000000000000000000000000000000000000000000000 PUSH1 0x0 MSTORE PUSH1 0x12 PUSH1 0x4 MSTORE PUSH1 0x24 PUSH1 0x0 REVERT JUMPDEST PUSH1 0x0 DUP1 REVERT JUMPDEST PUSH32 0x596F75206861766520696E73756666696369656E742066756E64732C20747261 PUSH1 0x0 DUP3 ADD MSTORE PUSH32 0x6E73616374696F6E2072656A6563746564000000000000000000000000000000 PUSH1 0x20 DUP3 ADD MSTORE POP JUMP JUMPDEST PUSH32 0x596F7520617265206E6F74207665726966696564000000000000000000000000 PUSH1 0x0 DUP3 ADD MSTORE POP JUMP JUMPDEST PUSH32 0x43616E6E6F742072656D6F766520616E20616464726573732074686174206973 PUSH1 0x0 DUP3 ADD MSTORE PUSH32 0x206E6F7420616C72656164792061207665726966696572000000000000000000 PUSH1 0x20 DUP3 ADD MSTORE POP JUMP JUMPDEST PUSH32 0x596F7520617265206E6F7420616E2061646D696E000000000000000000000000 PUSH1 0x0 DUP3 ADD MSTORE POP JUMP JUMPDEST PUSH32 0x43616E6E6F742076657269667920746865207A65726F20616464726573730000 PUSH1 0x0 DUP3 ADD MSTORE POP JUMP JUMPDEST PUSH32 0x43616E6E6F7420706572666F726D207A65726F207368617265206F7065726174 PUSH1 0x0 DUP3 ADD MSTORE PUSH32 0x696F6E7300000000000000000000000000000000000000000000000000000000 PUSH1 0x20 DUP3 ADD MSTORE POP JUMP JUMPDEST PUSH32 0x5468697320616464726573732068617320616C7265616479206265656E206164 PUSH1 0x0 DUP3 ADD MSTORE PUSH32 0x64656420617320616E2061646D696E0000000000000000000000000000000000 PUSH1 0x20 DUP3 ADD MSTORE POP JUMP JUMPDEST PUSH32 0x4164647265737320697320616C72656164792061207665726966696665720000 PUSH1 0x0 DUP3 ADD MSTORE POP JUMP JUMPDEST PUSH32 0x4164647265737320697320616C72656164792076657269666965640000000000 PUSH1 0x0 DUP3 ADD MSTORE POP JUMP JUMPDEST PUSH32 0x5A65726F20616464726573732063616E6E6F7420626520612076657269666965 PUSH1 0x0 DUP3 ADD MSTORE PUSH32 0x7200000000000000000000000000000000000000000000000000000000000000 PUSH1 0x20 DUP3 ADD MSTORE POP JUMP JUMPDEST PUSH32 0x596F7520617265206E6F74206120766572696669657200000000000000000000 PUSH1 0x0 DUP3 ADD MSTORE POP JUMP JUMPDEST PUSH32 0x43616E27742072656D6F766520616E2061646472657373207768696368206973 PUSH1 0x0 DUP3 ADD MSTORE PUSH32 0x206E6F7420616E2061646D696E00000000000000000000000000000000000000 PUSH1 0x20 DUP3 ADD MSTORE POP JUMP JUMPDEST PUSH2 0x225E DUP2 PUSH2 0x1EDA JUMP JUMPDEST DUP2 EQ PUSH2 0x2269 JUMPI PUSH1 0x0 DUP1 REVERT JUMPDEST POP JUMP JUMPDEST PUSH2 0x2275 DUP2 PUSH2 0x1F18 JUMP JUMPDEST DUP2 EQ PUSH2 0x2280 JUMPI PUSH1 0x0 DUP1 REVERT JUMPDEST POP JUMP INVALID PUSH1 0x80 PUSH1 0x40 MSTORE CALLVALUE DUP1 ISZERO PUSH2 0x10 JUMPI PUSH1 0x0 DUP1 REVERT JUMPDEST POP PUSH2 0x570 DUP1 PUSH2 0x20 PUSH1 0x0 CODECOPY PUSH1 0x0 RETURN INVALID PUSH1 0x80 PUSH1 0x40 MSTORE CALLVALUE DUP1 ISZERO PUSH2 0x10 JUMPI PUSH1 0x0 DUP1 REVERT JUMPDEST POP PUSH1 0x4 CALLDATASIZE LT PUSH2 0x57 JUMPI PUSH1 0x0 CALLDATALOAD PUSH1 0xE0 SHR DUP1 PUSH4 0x9EEF43E EQ PUSH2 0x5C JUMPI DUP1 PUSH4 0x5CB7E8AF EQ PUSH2 0x8C JUMPI DUP1 PUSH4 0x69596D70 EQ PUSH2 0xAA JUMPI DUP1 PUSH4 0x7727D3AA EQ PUSH2 0xC6 JUMPI DUP1 PUSH4 0x929155BF EQ PUSH2 0xE2 JUMPI JUMPDEST PUSH1 0x0 DUP1 REVERT JUMPDEST PUSH2 0x76 PUSH1 0x4 DUP1 CALLDATASIZE SUB DUP2 ADD SWAP1 PUSH2 0x71 SWAP2 SWAP1 PUSH2 0x353 JUMP JUMPDEST PUSH2 0x100 JUMP JUMPDEST PUSH1 0x40 MLOAD PUSH2 0x83 SWAP2 SWAP1 PUSH2 0x3C1 JUMP JUMPDEST PUSH1 0x40 MLOAD DUP1 SWAP2 SUB SWAP1 RETURN JUMPDEST PUSH2 0x94 PUSH2 0x120 JUMP JUMPDEST PUSH1 0x40 MLOAD PUSH2 0xA1 SWAP2 SWAP1 PUSH2 0x3FC JUMP JUMPDEST PUSH1 0x40 MLOAD DUP1 SWAP2 SUB SWAP1 RETURN JUMPDEST PUSH2 0xC4 PUSH1 0x4 DUP1 CALLDATASIZE SUB DUP2 ADD SWAP1 PUSH2 0xBF SWAP2 SWAP1 PUSH2 0x353 JUMP JUMPDEST PUSH2 0x126 JUMP JUMPDEST STOP JUMPDEST PUSH2 0xE0 PUSH1 0x4 DUP1 CALLDATASIZE SUB DUP2 ADD SWAP1 PUSH2 0xDB SWAP2 SWAP1 PUSH2 0x353 JUMP JUMPDEST PUSH2 0x22F JUMP JUMPDEST STOP JUMPDEST PUSH2 0xEA PUSH2 0x338 JUMP JUMPDEST PUSH1 0x40 MLOAD PUSH2 0xF7 SWAP2 SWAP1 PUSH2 0x3FC JUMP JUMPDEST PUSH1 0x40 MLOAD DUP1 SWAP2 SUB SWAP1 RETURN JUMPDEST PUSH1 0x2 PUSH1 0x20 MSTORE DUP1 PUSH1 0x0 MSTORE PUSH1 0x40 PUSH1 0x0 KECCAK256 PUSH1 0x0 SWAP2 POP SLOAD SWAP1 PUSH2 0x100 EXP SWAP1 DIV PUSH1 0xFF AND DUP2 JUMP JUMPDEST PUSH1 0x1 SLOAD DUP2 JUMP JUMPDEST DUP1 PUSH1 0x0 ISZERO ISZERO PUSH1 0x2 PUSH1 0x0 DUP4 PUSH20 0xFFFFFFFFFFFFFFFFFFFFFFFFFFFFFFFFFFFFFFFF AND PUSH20 0xFFFFFFFFFFFFFFFFFFFFFFFFFFFFFFFFFFFFFFFF AND DUP2 MSTORE PUSH1 0x20 ADD SWAP1 DUP2 MSTORE PUSH1 0x20 ADD PUSH1 0x0 KECCAK256 PUSH1 0x0 SWAP1 SLOAD SWAP1 PUSH2 0x100 EXP SWAP1 DIV PUSH1 0xFF AND ISZERO ISZERO EQ PUSH2 0x1BA JUMPI PUSH1 0x40 MLOAD PUSH32 0x8C379A000000000000000000000000000000000000000000000000000000000 DUP2 MSTORE PUSH1 0x4 ADD PUSH2 0x1B1 SWAP1 PUSH2 0x3DC JUMP JUMPDEST PUSH1 0x40 MLOAD DUP1 SWAP2 SUB SWAP1 REVERT JUMPDEST PUSH1 0x1 PUSH1 0x0 DUP1 DUP3 DUP3 SLOAD PUSH2 0x1CC SWAP2 SWAP1 PUSH2 0x428 JUMP JUMPDEST SWAP3 POP POP DUP2 SWAP1 SSTORE POP PUSH1 0x1 PUSH1 0x2 PUSH1 0x0 DUP5 PUSH20 0xFFFFFFFFFFFFFFFFFFFFFFFFFFFFFFFFFFFFFFFF AND PUSH20 0xFFFFFFFFFFFFFFFFFFFFFFFFFFFFFFFFFFFFFFFF AND DUP2 MSTORE PUSH1 0x20 ADD SWAP1 DUP2 MSTORE PUSH1 0x20 ADD PUSH1 0x0 KECCAK256 PUSH1 0x0 PUSH2 0x100 EXP DUP2 SLOAD DUP2 PUSH1 0xFF MUL NOT AND SWAP1 DUP4 ISZERO ISZERO MUL OR SWAP1 SSTORE POP POP POP JUMP JUMPDEST DUP1 PUSH1 0x0 ISZERO ISZERO PUSH1 0x2 PUSH1 0x0 DUP4 PUSH20 0xFFFFFFFFFFFFFFFFFFFFFFFFFFFFFFFFFFFFFFFF AND PUSH20 0xFFFFFFFFFFFFFFFFFFFFFFFFFFFFFFFFFFFFFFFF AND DUP2 MSTORE PUSH1 0x20 ADD SWAP1 DUP2 MSTORE PUSH1 0x20 ADD PUSH1 0x0 KECCAK256 PUSH1 0x0 SWAP1 SLOAD SWAP1 PUSH2 0x100 EXP SWAP1 DIV PUSH1 0xFF AND ISZERO ISZERO EQ PUSH2 0x2C3 JUMPI PUSH1 0x40 MLOAD PUSH32 0x8C379A000000000000000000000000000000000000000000000000000000000 DUP2 MSTORE PUSH1 0x4 ADD PUSH2 0x2BA SWAP1 PUSH2 0x3DC JUMP JUMPDEST PUSH1 0x40 MLOAD DUP1 SWAP2 SUB SWAP1 REVERT JUMPDEST PUSH1 0x1 DUP1 PUSH1 0x0 DUP3 DUP3 SLOAD PUSH2 0x2D5 SWAP2 SWAP1 PUSH2 0x428 JUMP JUMPDEST SWAP3 POP POP DUP2 SWAP1 SSTORE POP PUSH1 0x1 PUSH1 0x2 PUSH1 0x0 DUP5 PUSH20 0xFFFFFFFFFFFFFFFFFFFFFFFFFFFFFFFFFFFFFFFF AND PUSH20 0xFFFFFFFFFFFFFFFFFFFFFFFFFFFFFFFFFFFFFFFF AND DUP2 MSTORE PUSH1 0x20 ADD SWAP1 DUP2 MSTORE PUSH1 0x20 ADD PUSH1 0x0 KECCAK256 PUSH1 0x0 PUSH2 0x100 EXP DUP2 SLOAD DUP2 PUSH1 0xFF MUL NOT AND SWAP1 DUP4 ISZERO ISZERO MUL OR SWAP1 SSTORE POP POP POP JUMP JUMPDEST PUSH1 0x0 SLOAD DUP2 JUMP JUMPDEST PUSH1 0x0 DUP2 CALLDATALOAD SWAP1 POP PUSH2 0x34D DUP2 PUSH2 0x523 JUMP JUMPDEST SWAP3 SWAP2 POP POP JUMP JUMPDEST PUSH1 0x0 PUSH1 0x20 DUP3 DUP5 SUB SLT ISZERO PUSH2 0x369 JUMPI PUSH2 0x368 PUSH2 0x4F5 JUMP JUMPDEST JUMPDEST PUSH1 0x0 PUSH2 0x377 DUP5 DUP3 DUP6 ADD PUSH2 0x33E JUMP JUMPDEST SWAP2 POP POP SWAP3 SWAP2 POP POP JUMP JUMPDEST PUSH2 0x389 DUP2 PUSH2 0x490 JUMP JUMPDEST DUP3 MSTORE POP POP JUMP JUMPDEST PUSH1 0x0 PUSH2 0x39C PUSH1 0x17 DUP4 PUSH2 0x417 JUMP JUMPDEST SWAP2 POP PUSH2 0x3A7 DUP3 PUSH2 0x4FA JUMP JUMPDEST PUSH1 0x20 DUP3 ADD SWAP1 POP SWAP2 SWAP1 POP JUMP JUMPDEST PUSH2 0x3BB DUP2 PUSH2 0x4BC JUMP JUMPDEST DUP3 MSTORE POP POP JUMP JUMPDEST PUSH1 0x0 PUSH1 0x20 DUP3 ADD SWAP1 POP PUSH2 0x3D6 PUSH1 0x0 DUP4 ADD DUP5 PUSH2 0x380 JUMP JUMPDEST SWAP3 SWAP2 POP POP JUMP JUMPDEST PUSH1 0x0 PUSH1 0x20 DUP3 ADD SWAP1 POP DUP2 DUP2 SUB PUSH1 0x0 DUP4 ADD MSTORE PUSH2 0x3F5 DUP2 PUSH2 0x38F JUMP JUMPDEST SWAP1 POP SWAP2 SWAP1 POP JUMP JUMPDEST PUSH1 0x0 PUSH1 0x20 DUP3 ADD SWAP1 POP PUSH2 0x411 PUSH1 0x0 DUP4 ADD DUP5 PUSH2 0x3B2 JUMP JUMPDEST SWAP3 SWAP2 POP POP JUMP JUMPDEST PUSH1 0x0 DUP3 DUP3 MSTORE PUSH1 0x20 DUP3 ADD SWAP1 POP SWAP3 SWAP2 POP POP JUMP JUMPDEST PUSH1 0x0 PUSH2 0x433 DUP3 PUSH2 0x4BC JUMP JUMPDEST SWAP2 POP PUSH2 0x43E DUP4 PUSH2 0x4BC JUMP JUMPDEST SWAP3 POP DUP3 PUSH32 0xFFFFFFFFFFFFFFFFFFFFFFFFFFFFFFFFFFFFFFFFFFFFFFFFFFFFFFFFFFFFFFFF SUB DUP3 GT ISZERO PUSH2 0x473 JUMPI PUSH2 0x472 PUSH2 0x4C6 JUMP JUMPDEST JUMPDEST DUP3 DUP3 ADD SWAP1 POP SWAP3 SWAP2 POP POP JUMP JUMPDEST PUSH1 0x0 PUSH2 0x489 DUP3 PUSH2 0x49C JUMP JUMPDEST SWAP1 POP SWAP2 SWAP1 POP JUMP JUMPDEST PUSH1 0x0 DUP2 ISZERO ISZERO SWAP1 POP SWAP2 SWAP1 POP JUMP JUMPDEST PUSH1 0x0 PUSH20 0xFFFFFFFFFFFFFFFFFFFFFFFFFFFFFFFFFFFFFFFF DUP3 AND SWAP1 POP SWAP2 SWAP1 POP JUMP JUMPDEST PUSH1 0x0 DUP2 SWAP1 POP SWAP2 SWAP1 POP JUMP JUMPDEST PUSH32 0x4E487B7100000000000000000000000000000000000000000000000000000000 PUSH1 0x0 MSTORE PUSH1 0x11 PUSH1 0x4 MSTORE PUSH1 0x24 PUSH1 0x0 REVERT JUMPDEST PUSH1 0x0 DUP1 REVERT JUMPDEST PUSH32 0x41646D696E2068617320616C726561647920766F746564000000000000000000 PUSH1 0x0 DUP3 ADD MSTORE POP JUMP JUMPDEST PUSH2 0x52C DUP2 PUSH2 0x47E JUMP JUMPDEST DUP2 EQ PUSH2 0x537 JUMPI PUSH1 0x0 DUP1 REVERT JUMPDEST POP JUMP INVALID LOG2 PUSH5 0x6970667358 0x22 SLT KECCAK256 0x29 0xD5 PUSH8 0x64CC4A574DFE5EA5 LOG0 0xE9 BALANCE ADDMOD DUP7 LOG2 STATICCALL NOT 0xE6 0xA5 SGT 0xC8 GAS 0xC5 PUSH15 0x400B16CABDE364736F6C6343000807 STOP CALLER LOG2 PUSH5 0x6970667358 0x22 SLT KECCAK256 PUSH20 0x33B5FDC7B49CF32B05DF7E38AADC60358E9091C9 SAR PUSH22 0xD2DCBB6391909F5B4B64736F6C634300080700330000 "
				},
				"gasEstimates": {
					"creation": {
						"codeDepositCost": "2062600",
						"executionCost": "70781",
						"totalCost": "2133381"
					},
					"external": {
						"addVerified(address)": "29397",
						"addVerifier(address)": "29396",
						"balances(address)": "2837",
						"buyTokens(uint256)": "infinite",
						"isVerified(address)": "2998",
						"isVerifier(address)": "2977",
						"price()": "2473",
						"removeVerified(address)": "27183",
						"removeVerifier(address)": "29421",
						"totalShares()": "2518",
						"voteToAdd(address)": "infinite",
						"voteToRemove(address)": "infinite",
						"withdrawFromPot(uint256)": "infinite"
					}
				},
				"methodIdentifiers": {
					"addVerified(address)": "5dc84e32",
					"addVerifier(address)": "9000b3d6",
					"balances(address)": "27e235e3",
					"buyTokens(uint256)": "3610724e",
					"isVerified(address)": "b9209e33",
					"isVerifier(address)": "33105218",
					"price()": "a035b1fe",
					"removeVerified(address)": "4487b392",
					"removeVerifier(address)": "ca2dfd0a",
					"totalShares()": "3a98ef39",
					"voteToAdd(address)": "69596d70",
					"voteToRemove(address)": "7727d3aa",
					"withdrawFromPot(uint256)": "128e1af0"
				}
			},
			"storageLayout": {
				"storage": [
					{
						"astId": 404,
						"contract": "contracts/Pot.sol:Pot",
						"label": "verifiedAddresses",
						"offset": 0,
						"slot": "0",
						"type": "t_mapping(t_address,t_bool)"
					},
					{
						"astId": 408,
						"contract": "contracts/Pot.sol:Pot",
						"label": "verifiers",
						"offset": 0,
						"slot": "1",
						"type": "t_mapping(t_address,t_bool)"
					},
					{
						"astId": 7,
						"contract": "contracts/Pot.sol:Pot",
						"label": "totalAdmins",
						"offset": 0,
						"slot": "2",
						"type": "t_uint256"
					},
					{
						"astId": 11,
						"contract": "contracts/Pot.sol:Pot",
						"label": "admins",
						"offset": 0,
						"slot": "3",
						"type": "t_mapping(t_address,t_bool)"
					},
					{
						"astId": 15,
						"contract": "contracts/Pot.sol:Pot",
						"label": "hasElection",
						"offset": 0,
						"slot": "4",
						"type": "t_mapping(t_address,t_bool)"
					},
					{
						"astId": 20,
						"contract": "contracts/Pot.sol:Pot",
						"label": "elections",
						"offset": 0,
						"slot": "5",
						"type": "t_mapping(t_address,t_contract(Election)294)"
					},
					{
						"astId": 305,
						"contract": "contracts/Pot.sol:Pot",
						"label": "balances",
						"offset": 0,
						"slot": "6",
						"type": "t_mapping(t_address,t_uint256)"
					},
					{
						"astId": 307,
						"contract": "contracts/Pot.sol:Pot",
						"label": "price",
						"offset": 0,
						"slot": "7",
						"type": "t_uint256"
					},
					{
						"astId": 309,
						"contract": "contracts/Pot.sol:Pot",
						"label": "totalShares",
						"offset": 0,
						"slot": "8",
						"type": "t_uint256"
					}
				],
				"types": {
					"t_address": {
						"encoding": "inplace",
						"label": "address",
						"numberOfBytes": "20"
					},
					"t_bool": {
						"encoding": "inplace",
						"label": "bool",
						"numberOfBytes": "1"
					},
					"t_contract(Election)294": {
						"encoding": "inplace",
						"label": "contract Election",
						"numberOfBytes": "20"
					},
					"t_mapping(t_address,t_bool)": {
						"encoding": "mapping",
						"key": "t_address",
						"label": "mapping(address => bool)",
						"numberOfBytes": "32",
						"value": "t_bool"
					},
					"t_mapping(t_address,t_contract(Election)294)": {
						"encoding": "mapping",
						"key": "t_address",
						"label": "mapping(address => contract Election)",
						"numberOfBytes": "32",
						"value": "t_contract(Election)294"
					},
					"t_mapping(t_address,t_uint256)": {
						"encoding": "mapping",
						"key": "t_address",
						"label": "mapping(address => uint256)",
						"numberOfBytes": "32",
						"value": "t_uint256"
					},
					"t_uint256": {
						"encoding": "inplace",
						"label": "uint256",
						"numberOfBytes": "32"
					}
				}
			},
			"userdoc": {
				"kind": "user",
				"methods": {},
				"version": 1
			}
		}
	}
}