{
	"contracts/complex_verify.sol": {
		"ComplexVerifty": {
			"abi": [
				{
					"inputs": [
						{
							"internalType": "address",
							"name": "first_admin",
							"type": "address"
						}
					],
					"stateMutability": "nonpayable",
					"type": "constructor"
				},
				{
					"anonymous": false,
					"inputs": [
						{
							"indexed": true,
							"internalType": "address",
							"name": "addr",
							"type": "address"
						},
						{
							"indexed": true,
							"internalType": "address",
							"name": "sender",
							"type": "address"
						}
					],
					"name": "VerifiedAddressAdded",
					"type": "event"
				},
				{
					"anonymous": false,
					"inputs": [
						{
							"indexed": true,
							"internalType": "address",
							"name": "addr",
							"type": "address"
						},
						{
							"indexed": true,
							"internalType": "address",
							"name": "sender",
							"type": "address"
						}
					],
					"name": "VerifiedAddressRemoved",
					"type": "event"
				},
				{
					"anonymous": false,
					"inputs": [
						{
							"indexed": true,
							"internalType": "address",
							"name": "original",
							"type": "address"
						},
						{
							"indexed": true,
							"internalType": "address",
							"name": "replacement",
							"type": "address"
						},
						{
							"indexed": true,
							"internalType": "address",
							"name": "sender",
							"type": "address"
						}
					],
					"name": "VerifiedAddressSuperseded",
					"type": "event"
				},
				{
					"inputs": [
						{
							"internalType": "address",
							"name": "addr",
							"type": "address"
						}
					],
					"name": "addVerified",
					"outputs": [],
					"stateMutability": "nonpayable",
					"type": "function"
				},
				{
					"inputs": [
						{
							"internalType": "address",
							"name": "addr",
							"type": "address"
						}
					],
					"name": "addVerifier",
					"outputs": [],
					"stateMutability": "nonpayable",
					"type": "function"
				},
				{
					"inputs": [
						{
							"internalType": "address",
							"name": "addr",
							"type": "address"
						}
					],
					"name": "isVerified",
					"outputs": [
						{
							"internalType": "bool",
							"name": "",
							"type": "bool"
						}
					],
					"stateMutability": "view",
					"type": "function"
				},
				{
					"inputs": [
						{
							"internalType": "address",
							"name": "addr",
							"type": "address"
						}
					],
					"name": "isVerifier",
					"outputs": [
						{
							"internalType": "bool",
							"name": "",
							"type": "bool"
						}
					],
					"stateMutability": "view",
					"type": "function"
				},
				{
					"inputs": [
						{
							"internalType": "address",
							"name": "addr",
							"type": "address"
						}
					],
					"name": "removeVerified",
					"outputs": [],
					"stateMutability": "nonpayable",
					"type": "function"
				},
				{
					"inputs": [
						{
							"internalType": "address",
							"name": "addr",
							"type": "address"
						}
					],
					"name": "removeVerifier",
					"outputs": [],
					"stateMutability": "nonpayable",
					"type": "function"
				},
				{
					"inputs": [
						{
							"internalType": "address",
							"name": "addr",
							"type": "address"
						}
					],
					"name": "voteToAdd",
					"outputs": [],
					"stateMutability": "nonpayable",
					"type": "function"
				},
				{
					"inputs": [
						{
							"internalType": "address",
							"name": "addr",
							"type": "address"
						}
					],
					"name": "voteToRemove",
					"outputs": [],
					"stateMutability": "nonpayable",
					"type": "function"
				}
			],
			"devdoc": {
				"kind": "dev",
				"methods": {
					"addVerified(address)": {
						"details": "Adds verified address to the contract."
					},
					"addVerifier(address)": {
						"details": "Add verifier to the contract."
					},
					"isVerified(address)": {
						"details": "Checks if a address is verified"
					},
					"isVerifier(address)": {
						"details": "Checks if an address is a verifier"
					},
					"removeVerified(address)": {
						"details": "Removes verified address from the contract."
					},
					"removeVerifier(address)": {
						"details": "Remove verifier from the contract."
					}
				},
				"version": 1
			},
			"evm": {
				"assembly": "    /* \"contracts/complex_verify.sol\":751:2651  contract ComplexVerifty is Verify(address(0)) {... */\n  mstore(0x40, 0x80)\n    /* \"contracts/complex_verify.sol\":933:1034  constructor(address first_admin) {... */\n  callvalue\n  dup1\n  iszero\n  tag_1\n  jumpi\n  0x00\n  dup1\n  revert\ntag_1:\n  pop\n  mload(0x40)\n  sub(codesize, bytecodeSize)\n  dup1\n  bytecodeSize\n  dup4\n  codecopy\n  dup2\n  dup2\n  add\n  0x40\n  mstore\n  dup2\n  add\n  swap1\n  tag_2\n  swap2\n  swap1\n  tag_3\n  jump\t// in\ntag_2:\n    /* \"contracts/complex_verify.sol\":793:794  0 */\n  0x00\n    /* \"contracts/simple_verify.sol\":278:289  first_admin */\n  dup1\n    /* \"contracts/simple_verify.sol\":270:275  admin */\n  0x00\n  dup1\n    /* \"contracts/simple_verify.sol\":270:289  admin = first_admin */\n  0x0100\n  exp\n  dup2\n  sload\n  dup2\n  0xffffffffffffffffffffffffffffffffffffffff\n  mul\n  not\n  and\n  swap1\n  dup4\n  0xffffffffffffffffffffffffffffffffffffffff\n  and\n  mul\n  or\n  swap1\n  sstore\n  pop\n    /* \"contracts/simple_verify.sol\":227:296  constructor(address first_admin) {... */\n  pop\n    /* \"contracts/complex_verify.sol\":998:1002  true */\n  0x01\n    /* \"contracts/complex_verify.sol\":976:982  admins */\n  0x04\n    /* \"contracts/complex_verify.sol\":976:995  admins[first_admin] */\n  0x00\n    /* \"contracts/complex_verify.sol\":983:994  first_admin */\n  dup4\n    /* \"contracts/complex_verify.sol\":976:995  admins[first_admin] */\n  0xffffffffffffffffffffffffffffffffffffffff\n  and\n  0xffffffffffffffffffffffffffffffffffffffff\n  and\n  dup2\n  mstore\n  0x20\n  add\n  swap1\n  dup2\n  mstore\n  0x20\n  add\n  0x00\n  keccak256\n  0x00\n    /* \"contracts/complex_verify.sol\":976:1002  admins[first_admin] = true */\n  0x0100\n  exp\n  dup2\n  sload\n  dup2\n  0xff\n  mul\n  not\n  and\n  swap1\n  dup4\n  iszero\n  iszero\n  mul\n  or\n  swap1\n  sstore\n  pop\n    /* \"contracts/complex_verify.sol\":1026:1027  1 */\n  0x01\n    /* \"contracts/complex_verify.sol\":1012:1023  totalAdmins */\n  0x03\n    /* \"contracts/complex_verify.sol\":1012:1027  totalAdmins = 1 */\n  dup2\n  swap1\n  sstore\n  pop\n    /* \"contracts/complex_verify.sol\":933:1034  constructor(address first_admin) {... */\n  pop\n    /* \"contracts/complex_verify.sol\":751:2651  contract ComplexVerifty is Verify(address(0)) {... */\n  jump(tag_8)\n    /* \"#utility.yul\":7:150   */\ntag_10:\n    /* \"#utility.yul\":64:69   */\n  0x00\n    /* \"#utility.yul\":95:101   */\n  dup2\n    /* \"#utility.yul\":89:102   */\n  mload\n    /* \"#utility.yul\":80:102   */\n  swap1\n  pop\n    /* \"#utility.yul\":111:144   */\n  tag_12\n    /* \"#utility.yul\":138:143   */\n  dup2\n    /* \"#utility.yul\":111:144   */\n  tag_13\n  jump\t// in\ntag_12:\n    /* \"#utility.yul\":7:150   */\n  swap3\n  swap2\n  pop\n  pop\n  jump\t// out\n    /* \"#utility.yul\":156:507   */\ntag_3:\n    /* \"#utility.yul\":226:232   */\n  0x00\n    /* \"#utility.yul\":275:277   */\n  0x20\n    /* \"#utility.yul\":263:272   */\n  dup3\n    /* \"#utility.yul\":254:261   */\n  dup5\n    /* \"#utility.yul\":250:273   */\n  sub\n    /* \"#utility.yul\":246:278   */\n  slt\n    /* \"#utility.yul\":243:362   */\n  iszero\n  tag_15\n  jumpi\n    /* \"#utility.yul\":281:360   */\n  tag_16\n  tag_17\n  jump\t// in\ntag_16:\n    /* \"#utility.yul\":243:362   */\ntag_15:\n    /* \"#utility.yul\":401:402   */\n  0x00\n    /* \"#utility.yul\":426:490   */\n  tag_18\n    /* \"#utility.yul\":482:489   */\n  dup5\n    /* \"#utility.yul\":473:479   */\n  dup3\n    /* \"#utility.yul\":462:471   */\n  dup6\n    /* \"#utility.yul\":458:480   */\n  add\n    /* \"#utility.yul\":426:490   */\n  tag_10\n  jump\t// in\ntag_18:\n    /* \"#utility.yul\":416:490   */\n  swap2\n  pop\n    /* \"#utility.yul\":372:500   */\n  pop\n    /* \"#utility.yul\":156:507   */\n  swap3\n  swap2\n  pop\n  pop\n  jump\t// out\n    /* \"#utility.yul\":594:690   */\ntag_21:\n    /* \"#utility.yul\":631:638   */\n  0x00\n    /* \"#utility.yul\":660:684   */\n  tag_23\n    /* \"#utility.yul\":678:683   */\n  dup3\n    /* \"#utility.yul\":660:684   */\n  tag_24\n  jump\t// in\ntag_23:\n    /* \"#utility.yul\":649:684   */\n  swap1\n  pop\n    /* \"#utility.yul\":594:690   */\n  swap2\n  swap1\n  pop\n  jump\t// out\n    /* \"#utility.yul\":696:822   */\ntag_24:\n    /* \"#utility.yul\":733:740   */\n  0x00\n    /* \"#utility.yul\":773:815   */\n  0xffffffffffffffffffffffffffffffffffffffff\n    /* \"#utility.yul\":766:771   */\n  dup3\n    /* \"#utility.yul\":762:816   */\n  and\n    /* \"#utility.yul\":751:816   */\n  swap1\n  pop\n    /* \"#utility.yul\":696:822   */\n  swap2\n  swap1\n  pop\n  jump\t// out\n    /* \"#utility.yul\":951:1068   */\ntag_17:\n    /* \"#utility.yul\":1060:1061   */\n  0x00\n    /* \"#utility.yul\":1057:1058   */\n  dup1\n    /* \"#utility.yul\":1050:1062   */\n  revert\n    /* \"#utility.yul\":1074:1196   */\ntag_13:\n    /* \"#utility.yul\":1147:1171   */\n  tag_30\n    /* \"#utility.yul\":1165:1170   */\n  dup2\n    /* \"#utility.yul\":1147:1171   */\n  tag_21\n  jump\t// in\ntag_30:\n    /* \"#utility.yul\":1140:1145   */\n  dup2\n    /* \"#utility.yul\":1137:1172   */\n  eq\n    /* \"#utility.yul\":1127:1190   */\n  tag_31\n  jumpi\n    /* \"#utility.yul\":1186:1187   */\n  0x00\n    /* \"#utility.yul\":1183:1184   */\n  dup1\n    /* \"#utility.yul\":1176:1188   */\n  revert\n    /* \"#utility.yul\":1127:1190   */\ntag_31:\n    /* \"#utility.yul\":1074:1196   */\n  pop\n  jump\t// out\n    /* \"contracts/complex_verify.sol\":751:2651  contract ComplexVerifty is Verify(address(0)) {... */\ntag_8:\n  dataSize(sub_0)\n  dup1\n  dataOffset(sub_0)\n  0x00\n  codecopy\n  0x00\n  return\nstop\n\nsub_0: assembly {\n        /* \"contracts/complex_verify.sol\":751:2651  contract ComplexVerifty is Verify(address(0)) {... */\n      mstore(0x40, 0x80)\n      callvalue\n      dup1\n      iszero\n      tag_1\n      jumpi\n      0x00\n      dup1\n      revert\n    tag_1:\n      pop\n      jumpi(tag_2, lt(calldatasize, 0x04))\n      shr(0xe0, calldataload(0x00))\n      dup1\n      0x7727d3aa\n      gt\n      tag_11\n      jumpi\n      dup1\n      0x7727d3aa\n      eq\n      tag_7\n      jumpi\n      dup1\n      0x9000b3d6\n      eq\n      tag_8\n      jumpi\n      dup1\n      0xb9209e33\n      eq\n      tag_9\n      jumpi\n      dup1\n      0xca2dfd0a\n      eq\n      tag_10\n      jumpi\n      jump(tag_2)\n    tag_11:\n      dup1\n      0x33105218\n      eq\n      tag_3\n      jumpi\n      dup1\n      0x4487b392\n      eq\n      tag_4\n      jumpi\n      dup1\n      0x5dc84e32\n      eq\n      tag_5\n      jumpi\n      dup1\n      0x69596d70\n      eq\n      tag_6\n      jumpi\n    tag_2:\n      0x00\n      dup1\n      revert\n        /* \"contracts/simple_verify.sol\":2734:2899  function isVerifier(address addr) public view returns (bool) {... */\n    tag_3:\n      tag_12\n      0x04\n      dup1\n      calldatasize\n      sub\n      dup2\n      add\n      swap1\n      tag_13\n      swap2\n      swap1\n      tag_14\n      jump\t// in\n    tag_13:\n      tag_15\n      jump\t// in\n    tag_12:\n      mload(0x40)\n      tag_16\n      swap2\n      swap1\n      tag_17\n      jump\t// in\n    tag_16:\n      mload(0x40)\n      dup1\n      swap2\n      sub\n      swap1\n      return\n        /* \"contracts/simple_verify.sol\":2252:2422  function removeVerified(address addr) senderIsVerifier public {      ... */\n    tag_4:\n      tag_18\n      0x04\n      dup1\n      calldatasize\n      sub\n      dup2\n      add\n      swap1\n      tag_19\n      swap2\n      swap1\n      tag_14\n      jump\t// in\n    tag_19:\n      tag_20\n      jump\t// in\n    tag_18:\n      stop\n        /* \"contracts/simple_verify.sol\":1781:2174  function addVerified(address addr) senderIsVerifier public {... */\n    tag_5:\n      tag_21\n      0x04\n      dup1\n      calldatasize\n      sub\n      dup2\n      add\n      swap1\n      tag_22\n      swap2\n      swap1\n      tag_14\n      jump\t// in\n    tag_22:\n      tag_23\n      jump\t// in\n    tag_21:\n      stop\n        /* \"contracts/complex_verify.sol\":1203:1915  function voteToAdd(address addr) senderIsAdmin public {... */\n    tag_6:\n      tag_24\n      0x04\n      dup1\n      calldatasize\n      sub\n      dup2\n      add\n      swap1\n      tag_25\n      swap2\n      swap1\n      tag_14\n      jump\t// in\n    tag_25:\n      tag_26\n      jump\t// in\n    tag_24:\n      stop\n        /* \"contracts/complex_verify.sol\":1921:2649  function voteToRemove(address addr) senderIsAdmin public {... */\n    tag_7:\n      tag_27\n      0x04\n      dup1\n      calldatasize\n      sub\n      dup2\n      add\n      swap1\n      tag_28\n      swap2\n      swap1\n      tag_14\n      jump\t// in\n    tag_28:\n      tag_29\n      jump\t// in\n    tag_27:\n      stop\n        /* \"contracts/simple_verify.sol\":1074:1404  function addVerifier(address addr) senderIsAdmin public {       ... */\n    tag_8:\n      tag_30\n      0x04\n      dup1\n      calldatasize\n      sub\n      dup2\n      add\n      swap1\n      tag_31\n      swap2\n      swap1\n      tag_14\n      jump\t// in\n    tag_31:\n      tag_32\n      jump\t// in\n    tag_30:\n      stop\n        /* \"contracts/simple_verify.sol\":2492:2665  function isVerified(address addr) public view returns (bool) {... */\n    tag_9:\n      tag_33\n      0x04\n      dup1\n      calldatasize\n      sub\n      dup2\n      add\n      swap1\n      tag_34\n      swap2\n      swap1\n      tag_14\n      jump\t// in\n    tag_34:\n      tag_35\n      jump\t// in\n    tag_33:\n      mload(0x40)\n      tag_36\n      swap2\n      swap1\n      tag_17\n      jump\t// in\n    tag_36:\n      mload(0x40)\n      dup1\n      swap2\n      sub\n      swap1\n      return\n        /* \"contracts/simple_verify.sol\":1473:1708  function removeVerifier(address addr) senderIsAdmin public {... */\n    tag_10:\n      tag_37\n      0x04\n      dup1\n      calldatasize\n      sub\n      dup2\n      add\n      swap1\n      tag_38\n      swap2\n      swap1\n      tag_14\n      jump\t// in\n    tag_38:\n      tag_39\n      jump\t// in\n    tag_37:\n      stop\n        /* \"contracts/simple_verify.sol\":2734:2899  function isVerifier(address addr) public view returns (bool) {... */\n    tag_15:\n        /* \"contracts/simple_verify.sol\":2789:2793  bool */\n      0x00\n        /* \"contracts/simple_verify.sol\":2828:2832  true */\n      0x01\n        /* \"contracts/simple_verify.sol\":2809:2832  verifiers[addr] == true */\n      iszero\n      iszero\n        /* \"contracts/simple_verify.sol\":2809:2818  verifiers */\n      0x02\n        /* \"contracts/simple_verify.sol\":2809:2824  verifiers[addr] */\n      0x00\n        /* \"contracts/simple_verify.sol\":2819:2823  addr */\n      dup5\n        /* \"contracts/simple_verify.sol\":2809:2824  verifiers[addr] */\n      0xffffffffffffffffffffffffffffffffffffffff\n      and\n      0xffffffffffffffffffffffffffffffffffffffff\n      and\n      dup2\n      mstore\n      0x20\n      add\n      swap1\n      dup2\n      mstore\n      0x20\n      add\n      0x00\n      keccak256\n      0x00\n      swap1\n      sload\n      swap1\n      0x0100\n      exp\n      swap1\n      div\n      0xff\n      and\n        /* \"contracts/simple_verify.sol\":2809:2832  verifiers[addr] == true */\n      iszero\n      iszero\n      eq\n        /* \"contracts/simple_verify.sol\":2805:2870  if (verifiers[addr] == true) {... */\n      iszero\n      tag_41\n      jumpi\n        /* \"contracts/simple_verify.sol\":2855:2859  true */\n      0x01\n        /* \"contracts/simple_verify.sol\":2848:2859  return true */\n      swap1\n      pop\n      jump(tag_40)\n        /* \"contracts/simple_verify.sol\":2805:2870  if (verifiers[addr] == true) {... */\n    tag_41:\n        /* \"contracts/simple_verify.sol\":2887:2892  false */\n      0x00\n        /* \"contracts/simple_verify.sol\":2880:2892  return false */\n      swap1\n      pop\n        /* \"contracts/simple_verify.sol\":2734:2899  function isVerifier(address addr) public view returns (bool) {... */\n    tag_40:\n      swap2\n      swap1\n      pop\n      jump\t// out\n        /* \"contracts/simple_verify.sol\":2252:2422  function removeVerified(address addr) senderIsVerifier public {      ... */\n    tag_20:\n        /* \"contracts/simple_verify.sol\":789:793  true */\n      0x01\n        /* \"contracts/simple_verify.sol\":764:793  verifiers[msg.sender] == true */\n      iszero\n      iszero\n        /* \"contracts/simple_verify.sol\":764:773  verifiers */\n      0x02\n        /* \"contracts/simple_verify.sol\":764:785  verifiers[msg.sender] */\n      0x00\n        /* \"contracts/simple_verify.sol\":774:784  msg.sender */\n      caller\n        /* \"contracts/simple_verify.sol\":764:785  verifiers[msg.sender] */\n      0xffffffffffffffffffffffffffffffffffffffff\n      and\n      0xffffffffffffffffffffffffffffffffffffffff\n      and\n      dup2\n      mstore\n      0x20\n      add\n      swap1\n      dup2\n      mstore\n      0x20\n      add\n      0x00\n      keccak256\n      0x00\n      swap1\n      sload\n      swap1\n      0x0100\n      exp\n      swap1\n      div\n      0xff\n      and\n        /* \"contracts/simple_verify.sol\":764:793  verifiers[msg.sender] == true */\n      iszero\n      iszero\n      eq\n        /* \"contracts/simple_verify.sol\":743:841  require(... */\n      tag_43\n      jumpi\n      mload(0x40)\n      0x08c379a000000000000000000000000000000000000000000000000000000000\n      dup2\n      mstore\n      0x04\n      add\n      tag_44\n      swap1\n      tag_45\n      jump\t// in\n    tag_44:\n      mload(0x40)\n      dup1\n      swap2\n      sub\n      swap1\n      revert\n    tag_43:\n        /* \"contracts/simple_verify.sol\":2357:2362  false */\n      0x00\n        /* \"contracts/simple_verify.sol\":2330:2362  verifiedAddresses[addr] == false */\n      iszero\n      iszero\n        /* \"contracts/simple_verify.sol\":2330:2347  verifiedAddresses */\n      0x01\n        /* \"contracts/simple_verify.sol\":2330:2353  verifiedAddresses[addr] */\n      0x00\n        /* \"contracts/simple_verify.sol\":2348:2352  addr */\n      dup4\n        /* \"contracts/simple_verify.sol\":2330:2353  verifiedAddresses[addr] */\n      0xffffffffffffffffffffffffffffffffffffffff\n      and\n      0xffffffffffffffffffffffffffffffffffffffff\n      and\n      dup2\n      mstore\n      0x20\n      add\n      swap1\n      dup2\n      mstore\n      0x20\n      add\n      0x00\n      keccak256\n      0x00\n      swap1\n      sload\n      swap1\n      0x0100\n      exp\n      swap1\n      pop\n      pop\n        /* \"contracts/simple_verify.sol\":2330:2362  verifiedAddresses[addr] == false */\n      pop\n        /* \"contracts/simple_verify.sol\":2404:2414  msg.sender */\n      caller\n        /* \"contracts/simple_verify.sol\":2377:2415  VerifiedAddressAdded(addr, msg.sender) */\n      0xffffffffffffffffffffffffffffffffffffffff\n      and\n        /* \"contracts/simple_verify.sol\":2398:2402  addr */\n      dup2\n        /* \"contracts/simple_verify.sol\":2377:2415  VerifiedAddressAdded(addr, msg.sender) */\n      0xffffffffffffffffffffffffffffffffffffffff\n      and\n      0x2679e492f4112eee8e3f6dfd8463065d662332a578753f77ce4c3d76c98271fb\n      mload(0x40)\n      mload(0x40)\n      dup1\n      swap2\n      sub\n      swap1\n      log3\n        /* \"contracts/simple_verify.sol\":2252:2422  function removeVerified(address addr) senderIsVerifier public {      ... */\n      pop\n      jump\t// out\n        /* \"contracts/simple_verify.sol\":1781:2174  function addVerified(address addr) senderIsVerifier public {... */\n    tag_23:\n        /* \"contracts/simple_verify.sol\":789:793  true */\n      0x01\n        /* \"contracts/simple_verify.sol\":764:793  verifiers[msg.sender] == true */\n      iszero\n      iszero\n        /* \"contracts/simple_verify.sol\":764:773  verifiers */\n      0x02\n        /* \"contracts/simple_verify.sol\":764:785  verifiers[msg.sender] */\n      0x00\n        /* \"contracts/simple_verify.sol\":774:784  msg.sender */\n      caller\n        /* \"contracts/simple_verify.sol\":764:785  verifiers[msg.sender] */\n      0xffffffffffffffffffffffffffffffffffffffff\n      and\n      0xffffffffffffffffffffffffffffffffffffffff\n      and\n      dup2\n      mstore\n      0x20\n      add\n      swap1\n      dup2\n      mstore\n      0x20\n      add\n      0x00\n      keccak256\n      0x00\n      swap1\n      sload\n      swap1\n      0x0100\n      exp\n      swap1\n      div\n      0xff\n      and\n        /* \"contracts/simple_verify.sol\":764:793  verifiers[msg.sender] == true */\n      iszero\n      iszero\n      eq\n        /* \"contracts/simple_verify.sol\":743:841  require(... */\n      tag_48\n      jumpi\n      mload(0x40)\n      0x08c379a000000000000000000000000000000000000000000000000000000000\n      dup2\n      mstore\n      0x04\n      add\n      tag_49\n      swap1\n      tag_45\n      jump\t// in\n    tag_49:\n      mload(0x40)\n      dup1\n      swap2\n      sub\n      swap1\n      revert\n    tag_48:\n        /* \"contracts/simple_verify.sol\":1887:1888  0 */\n      0x00\n        /* \"contracts/simple_verify.sol\":1871:1889  addr != address(0) */\n      0xffffffffffffffffffffffffffffffffffffffff\n      and\n        /* \"contracts/simple_verify.sol\":1871:1875  addr */\n      dup2\n        /* \"contracts/simple_verify.sol\":1871:1889  addr != address(0) */\n      0xffffffffffffffffffffffffffffffffffffffff\n      and\n      eq\n      iszero\n        /* \"contracts/simple_verify.sol\":1850:1945  require(... */\n      tag_51\n      jumpi\n      mload(0x40)\n      0x08c379a000000000000000000000000000000000000000000000000000000000\n      dup2\n      mstore\n      0x04\n      add\n      tag_52\n      swap1\n      tag_53\n      jump\t// in\n    tag_52:\n      mload(0x40)\n      dup1\n      swap2\n      sub\n      swap1\n      revert\n    tag_51:\n        /* \"contracts/simple_verify.sol\":2004:2008  true */\n      0x01\n        /* \"contracts/simple_verify.sol\":1977:2008  verifiedAddresses[addr] != true */\n      iszero\n      iszero\n        /* \"contracts/simple_verify.sol\":1977:1994  verifiedAddresses */\n      0x01\n        /* \"contracts/simple_verify.sol\":1977:2000  verifiedAddresses[addr] */\n      0x00\n        /* \"contracts/simple_verify.sol\":1995:1999  addr */\n      dup4\n        /* \"contracts/simple_verify.sol\":1977:2000  verifiedAddresses[addr] */\n      0xffffffffffffffffffffffffffffffffffffffff\n      and\n      0xffffffffffffffffffffffffffffffffffffffff\n      and\n      dup2\n      mstore\n      0x20\n      add\n      swap1\n      dup2\n      mstore\n      0x20\n      add\n      0x00\n      keccak256\n      0x00\n      swap1\n      sload\n      swap1\n      0x0100\n      exp\n      swap1\n      div\n      0xff\n      and\n        /* \"contracts/simple_verify.sol\":1977:2008  verifiedAddresses[addr] != true */\n      iszero\n      iszero\n      eq\n      iszero\n        /* \"contracts/simple_verify.sol\":1956:2061  require(... */\n      tag_54\n      jumpi\n      mload(0x40)\n      0x08c379a000000000000000000000000000000000000000000000000000000000\n      dup2\n      mstore\n      0x04\n      add\n      tag_55\n      swap1\n      tag_56\n      jump\t// in\n    tag_55:\n      mload(0x40)\n      dup1\n      swap2\n      sub\n      swap1\n      revert\n    tag_54:\n        /* \"contracts/simple_verify.sol\":2110:2114  true */\n      0x01\n        /* \"contracts/simple_verify.sol\":2084:2101  verifiedAddresses */\n      dup1\n        /* \"contracts/simple_verify.sol\":2084:2107  verifiedAddresses[addr] */\n      0x00\n        /* \"contracts/simple_verify.sol\":2102:2106  addr */\n      dup4\n        /* \"contracts/simple_verify.sol\":2084:2107  verifiedAddresses[addr] */\n      0xffffffffffffffffffffffffffffffffffffffff\n      and\n      0xffffffffffffffffffffffffffffffffffffffff\n      and\n      dup2\n      mstore\n      0x20\n      add\n      swap1\n      dup2\n      mstore\n      0x20\n      add\n      0x00\n      keccak256\n      0x00\n        /* \"contracts/simple_verify.sol\":2084:2114  verifiedAddresses[addr] = true */\n      0x0100\n      exp\n      dup2\n      sload\n      dup2\n      0xff\n      mul\n      not\n      and\n      swap1\n      dup4\n      iszero\n      iszero\n      mul\n      or\n      swap1\n      sstore\n      pop\n        /* \"contracts/simple_verify.sol\":2156:2166  msg.sender */\n      caller\n        /* \"contracts/simple_verify.sol\":2129:2167  VerifiedAddressAdded(addr, msg.sender) */\n      0xffffffffffffffffffffffffffffffffffffffff\n      and\n        /* \"contracts/simple_verify.sol\":2150:2154  addr */\n      dup2\n        /* \"contracts/simple_verify.sol\":2129:2167  VerifiedAddressAdded(addr, msg.sender) */\n      0xffffffffffffffffffffffffffffffffffffffff\n      and\n      0x2679e492f4112eee8e3f6dfd8463065d662332a578753f77ce4c3d76c98271fb\n      mload(0x40)\n      mload(0x40)\n      dup1\n      swap2\n      sub\n      swap1\n      log3\n        /* \"contracts/simple_verify.sol\":1781:2174  function addVerified(address addr) senderIsVerifier public {... */\n      pop\n      jump\t// out\n        /* \"contracts/complex_verify.sol\":1203:1915  function voteToAdd(address addr) senderIsAdmin public {... */\n    tag_26:\n        /* \"contracts/complex_verify.sol\":1129:1133  true */\n      0x01\n        /* \"contracts/complex_verify.sol\":1107:1133  admins[msg.sender] == true */\n      iszero\n      iszero\n        /* \"contracts/complex_verify.sol\":1107:1113  admins */\n      0x04\n        /* \"contracts/complex_verify.sol\":1107:1125  admins[msg.sender] */\n      0x00\n        /* \"contracts/complex_verify.sol\":1114:1124  msg.sender */\n      caller\n        /* \"contracts/complex_verify.sol\":1107:1125  admins[msg.sender] */\n      0xffffffffffffffffffffffffffffffffffffffff\n      and\n      0xffffffffffffffffffffffffffffffffffffffff\n      and\n      dup2\n      mstore\n      0x20\n      add\n      swap1\n      dup2\n      mstore\n      0x20\n      add\n      0x00\n      keccak256\n      0x00\n      swap1\n      sload\n      swap1\n      0x0100\n      exp\n      swap1\n      div\n      0xff\n      and\n        /* \"contracts/complex_verify.sol\":1107:1133  admins[msg.sender] == true */\n      iszero\n      iszero\n      eq\n        /* \"contracts/complex_verify.sol\":1086:1179  require(... */\n      tag_58\n      jumpi\n      mload(0x40)\n      0x08c379a000000000000000000000000000000000000000000000000000000000\n      dup2\n      mstore\n      0x04\n      add\n      tag_59\n      swap1\n      tag_60\n      jump\t// in\n    tag_59:\n      mload(0x40)\n      dup1\n      swap2\n      sub\n      swap1\n      revert\n    tag_58:\n        /* \"contracts/complex_verify.sol\":1304:1308  true */\n      0x01\n        /* \"contracts/complex_verify.sol\":1288:1308  admins[addr] != true */\n      iszero\n      iszero\n        /* \"contracts/complex_verify.sol\":1288:1294  admins */\n      0x04\n        /* \"contracts/complex_verify.sol\":1288:1300  admins[addr] */\n      0x00\n        /* \"contracts/complex_verify.sol\":1295:1299  addr */\n      dup4\n        /* \"contracts/complex_verify.sol\":1288:1300  admins[addr] */\n      0xffffffffffffffffffffffffffffffffffffffff\n      and\n      0xffffffffffffffffffffffffffffffffffffffff\n      and\n      dup2\n      mstore\n      0x20\n      add\n      swap1\n      dup2\n      mstore\n      0x20\n      add\n      0x00\n      keccak256\n      0x00\n      swap1\n      sload\n      swap1\n      0x0100\n      exp\n      swap1\n      div\n      0xff\n      and\n        /* \"contracts/complex_verify.sol\":1288:1308  admins[addr] != true */\n      iszero\n      iszero\n      eq\n      iszero\n        /* \"contracts/complex_verify.sol\":1267:1367  require(... */\n      tag_62\n      jumpi\n      mload(0x40)\n      0x08c379a000000000000000000000000000000000000000000000000000000000\n      dup2\n      mstore\n      0x04\n      add\n      tag_63\n      swap1\n      tag_64\n      jump\t// in\n    tag_63:\n      mload(0x40)\n      dup1\n      swap2\n      sub\n      swap1\n      revert\n    tag_62:\n        /* \"contracts/complex_verify.sol\":1416:1421  false */\n      0x00\n        /* \"contracts/complex_verify.sol\":1390:1421  elections[addr].live() == false */\n      iszero\n      iszero\n        /* \"contracts/complex_verify.sol\":1390:1399  elections */\n      0x05\n        /* \"contracts/complex_verify.sol\":1390:1405  elections[addr] */\n      0x00\n        /* \"contracts/complex_verify.sol\":1400:1404  addr */\n      dup4\n        /* \"contracts/complex_verify.sol\":1390:1405  elections[addr] */\n      0xffffffffffffffffffffffffffffffffffffffff\n      and\n      0xffffffffffffffffffffffffffffffffffffffff\n      and\n      dup2\n      mstore\n      0x20\n      add\n      swap1\n      dup2\n      mstore\n      0x20\n      add\n      0x00\n      keccak256\n      0x00\n      swap1\n      sload\n      swap1\n      0x0100\n      exp\n      swap1\n      div\n      0xffffffffffffffffffffffffffffffffffffffff\n      and\n        /* \"contracts/complex_verify.sol\":1390:1410  elections[addr].live */\n      0xffffffffffffffffffffffffffffffffffffffff\n      and\n      0x957aa58c\n        /* \"contracts/complex_verify.sol\":1390:1412  elections[addr].live() */\n      mload(0x40)\n      dup2\n      0xffffffff\n      and\n      0xe0\n      shl\n      dup2\n      mstore\n      0x04\n      add\n      0x20\n      mload(0x40)\n      dup1\n      dup4\n      sub\n      dup2\n      dup7\n      dup1\n      extcodesize\n      iszero\n      dup1\n      iszero\n      tag_65\n      jumpi\n      0x00\n      dup1\n      revert\n    tag_65:\n      pop\n      gas\n      staticcall\n      iszero\n      dup1\n      iszero\n      tag_67\n      jumpi\n      returndatasize\n      0x00\n      dup1\n      returndatacopy\n      revert(0x00, returndatasize)\n    tag_67:\n      pop\n      pop\n      pop\n      pop\n      mload(0x40)\n      returndatasize\n      not(0x1f)\n      0x1f\n      dup3\n      add\n      and\n      dup3\n      add\n      dup1\n      0x40\n      mstore\n      pop\n      dup2\n      add\n      swap1\n      tag_68\n      swap2\n      swap1\n      tag_69\n      jump\t// in\n    tag_68:\n        /* \"contracts/complex_verify.sol\":1390:1421  elections[addr].live() == false */\n      iszero\n      iszero\n      eq\n        /* \"contracts/complex_verify.sol\":1386:1608  if (elections[addr].live() == false) {... */\n      iszero\n      tag_70\n      jumpi\n        /* \"contracts/complex_verify.sol\":1455:1469  new Election() */\n      mload(0x40)\n      tag_71\n      swap1\n      tag_72\n      jump\t// in\n    tag_71:\n      mload(0x40)\n      dup1\n      swap2\n      sub\n      swap1\n      0x00\n      create\n      dup1\n      iszero\n      dup1\n      iszero\n      tag_73\n      jumpi\n      returndatasize\n      0x00\n      dup1\n      returndatacopy\n      revert(0x00, returndatasize)\n    tag_73:\n      pop\n        /* \"contracts/complex_verify.sol\":1437:1446  elections */\n      0x05\n        /* \"contracts/complex_verify.sol\":1437:1452  elections[addr] */\n      0x00\n        /* \"contracts/complex_verify.sol\":1447:1451  addr */\n      dup4\n        /* \"contracts/complex_verify.sol\":1437:1452  elections[addr] */\n      0xffffffffffffffffffffffffffffffffffffffff\n      and\n      0xffffffffffffffffffffffffffffffffffffffff\n      and\n      dup2\n      mstore\n      0x20\n      add\n      swap1\n      dup2\n      mstore\n      0x20\n      add\n      0x00\n      keccak256\n      0x00\n        /* \"contracts/complex_verify.sol\":1437:1469  elections[addr] = new Election() */\n      0x0100\n      exp\n      dup2\n      sload\n      dup2\n      0xffffffffffffffffffffffffffffffffffffffff\n      mul\n      not\n      and\n      swap1\n      dup4\n      0xffffffffffffffffffffffffffffffffffffffff\n      and\n      mul\n      or\n      swap1\n      sstore\n      pop\n        /* \"contracts/complex_verify.sol\":1483:1492  elections */\n      0x05\n        /* \"contracts/complex_verify.sol\":1483:1498  elections[addr] */\n      0x00\n        /* \"contracts/complex_verify.sol\":1493:1497  addr */\n      dup3\n        /* \"contracts/complex_verify.sol\":1483:1498  elections[addr] */\n      0xffffffffffffffffffffffffffffffffffffffff\n      and\n      0xffffffffffffffffffffffffffffffffffffffff\n      and\n      dup2\n      mstore\n      0x20\n      add\n      swap1\n      dup2\n      mstore\n      0x20\n      add\n      0x00\n      keccak256\n      0x00\n      swap1\n      sload\n      swap1\n      0x0100\n      exp\n      swap1\n      div\n      0xffffffffffffffffffffffffffffffffffffffff\n      and\n        /* \"contracts/complex_verify.sol\":1483:1508  elections[addr].voteToAdd */\n      0xffffffffffffffffffffffffffffffffffffffff\n      and\n      0x69596d70\n        /* \"contracts/complex_verify.sol\":1509:1519  msg.sender */\n      caller\n        /* \"contracts/complex_verify.sol\":1483:1520  elections[addr].voteToAdd(msg.sender) */\n      mload(0x40)\n      dup3\n      0xffffffff\n      and\n      0xe0\n      shl\n      dup2\n      mstore\n      0x04\n      add\n      tag_74\n      swap2\n      swap1\n      tag_75\n      jump\t// in\n    tag_74:\n      0x00\n      mload(0x40)\n      dup1\n      dup4\n      sub\n      dup2\n      0x00\n      dup8\n      dup1\n      extcodesize\n      iszero\n      dup1\n      iszero\n      tag_76\n      jumpi\n      0x00\n      dup1\n      revert\n    tag_76:\n      pop\n      gas\n      call\n      iszero\n      dup1\n      iszero\n      tag_78\n      jumpi\n      returndatasize\n      0x00\n      dup1\n      returndatacopy\n      revert(0x00, returndatasize)\n    tag_78:\n      pop\n      pop\n      pop\n      pop\n        /* \"contracts/complex_verify.sol\":1386:1608  if (elections[addr].live() == false) {... */\n      jump(tag_79)\n    tag_70:\n        /* \"contracts/complex_verify.sol\":1560:1569  elections */\n      0x05\n        /* \"contracts/complex_verify.sol\":1560:1575  elections[addr] */\n      0x00\n        /* \"contracts/complex_verify.sol\":1570:1574  addr */\n      dup3\n        /* \"contracts/complex_verify.sol\":1560:1575  elections[addr] */\n      0xffffffffffffffffffffffffffffffffffffffff\n      and\n      0xffffffffffffffffffffffffffffffffffffffff\n      and\n      dup2\n      mstore\n      0x20\n      add\n      swap1\n      dup2\n      mstore\n      0x20\n      add\n      0x00\n      keccak256\n      0x00\n      swap1\n      sload\n      swap1\n      0x0100\n      exp\n      swap1\n      div\n      0xffffffffffffffffffffffffffffffffffffffff\n      and\n        /* \"contracts/complex_verify.sol\":1560:1585  elections[addr].voteToAdd */\n      0xffffffffffffffffffffffffffffffffffffffff\n      and\n      0x69596d70\n        /* \"contracts/complex_verify.sol\":1586:1596  msg.sender */\n      caller\n        /* \"contracts/complex_verify.sol\":1560:1597  elections[addr].voteToAdd(msg.sender) */\n      mload(0x40)\n      dup3\n      0xffffffff\n      and\n      0xe0\n      shl\n      dup2\n      mstore\n      0x04\n      add\n      tag_80\n      swap2\n      swap1\n      tag_75\n      jump\t// in\n    tag_80:\n      0x00\n      mload(0x40)\n      dup1\n      dup4\n      sub\n      dup2\n      0x00\n      dup8\n      dup1\n      extcodesize\n      iszero\n      dup1\n      iszero\n      tag_81\n      jumpi\n      0x00\n      dup1\n      revert\n    tag_81:\n      pop\n      gas\n      call\n      iszero\n      dup1\n      iszero\n      tag_83\n      jumpi\n      returndatasize\n      0x00\n      dup1\n      returndatacopy\n      revert(0x00, returndatasize)\n    tag_83:\n      pop\n      pop\n      pop\n      pop\n        /* \"contracts/complex_verify.sol\":1386:1608  if (elections[addr].live() == false) {... */\n    tag_79:\n        /* \"contracts/complex_verify.sol\":1723:1724  2 */\n      0x02\n        /* \"contracts/complex_verify.sol\":1709:1720  totalAdmins */\n      sload(0x03)\n        /* \"contracts/complex_verify.sol\":1709:1724  totalAdmins / 2 */\n      tag_84\n      swap2\n      swap1\n      tag_85\n      jump\t// in\n    tag_84:\n        /* \"contracts/complex_verify.sol\":1677:1686  elections */\n      0x05\n        /* \"contracts/complex_verify.sol\":1677:1692  elections[addr] */\n      0x00\n        /* \"contracts/complex_verify.sol\":1687:1691  addr */\n      dup4\n        /* \"contracts/complex_verify.sol\":1677:1692  elections[addr] */\n      0xffffffffffffffffffffffffffffffffffffffff\n      and\n      0xffffffffffffffffffffffffffffffffffffffff\n      and\n      dup2\n      mstore\n      0x20\n      add\n      swap1\n      dup2\n      mstore\n      0x20\n      add\n      0x00\n      keccak256\n      0x00\n      swap1\n      sload\n      swap1\n      0x0100\n      exp\n      swap1\n      div\n      0xffffffffffffffffffffffffffffffffffffffff\n      and\n        /* \"contracts/complex_verify.sol\":1677:1703  elections[addr].votesToAdd */\n      0xffffffffffffffffffffffffffffffffffffffff\n      and\n      0x929155bf\n        /* \"contracts/complex_verify.sol\":1677:1705  elections[addr].votesToAdd() */\n      mload(0x40)\n      dup2\n      0xffffffff\n      and\n      0xe0\n      shl\n      dup2\n      mstore\n      0x04\n      add\n      0x20\n      mload(0x40)\n      dup1\n      dup4\n      sub\n      dup2\n      dup7\n      dup1\n      extcodesize\n      iszero\n      dup1\n      iszero\n      tag_86\n      jumpi\n      0x00\n      dup1\n      revert\n    tag_86:\n      pop\n      gas\n      staticcall\n      iszero\n      dup1\n      iszero\n      tag_88\n      jumpi\n      returndatasize\n      0x00\n      dup1\n      returndatacopy\n      revert(0x00, returndatasize)\n    tag_88:\n      pop\n      pop\n      pop\n      pop\n      mload(0x40)\n      returndatasize\n      not(0x1f)\n      0x1f\n      dup3\n      add\n      and\n      dup3\n      add\n      dup1\n      0x40\n      mstore\n      pop\n      dup2\n      add\n      swap1\n      tag_89\n      swap2\n      swap1\n      tag_90\n      jump\t// in\n    tag_89:\n        /* \"contracts/complex_verify.sol\":1677:1725  elections[addr].votesToAdd() > (totalAdmins / 2) */\n      sgt\n        /* \"contracts/complex_verify.sol\":1673:1909  if (elections[addr].votesToAdd() > (totalAdmins / 2)) {... */\n      iszero\n      tag_91\n      jumpi\n        /* \"contracts/complex_verify.sol\":1756:1760  true */\n      0x01\n        /* \"contracts/complex_verify.sol\":1741:1747  admins */\n      0x04\n        /* \"contracts/complex_verify.sol\":1741:1753  admins[addr] */\n      0x00\n        /* \"contracts/complex_verify.sol\":1748:1752  addr */\n      dup4\n        /* \"contracts/complex_verify.sol\":1741:1753  admins[addr] */\n      0xffffffffffffffffffffffffffffffffffffffff\n      and\n      0xffffffffffffffffffffffffffffffffffffffff\n      and\n      dup2\n      mstore\n      0x20\n      add\n      swap1\n      dup2\n      mstore\n      0x20\n      add\n      0x00\n      keccak256\n      0x00\n        /* \"contracts/complex_verify.sol\":1741:1760  admins[addr] = true */\n      0x0100\n      exp\n      dup2\n      sload\n      dup2\n      0xff\n      mul\n      not\n      and\n      swap1\n      dup4\n      iszero\n      iszero\n      mul\n      or\n      swap1\n      sstore\n      pop\n        /* \"contracts/complex_verify.sol\":1789:1790  1 */\n      0x01\n        /* \"contracts/complex_verify.sol\":1774:1785  totalAdmins */\n      0x03\n      0x00\n        /* \"contracts/complex_verify.sol\":1774:1790  totalAdmins += 1 */\n      dup3\n      dup3\n      sload\n      tag_92\n      swap2\n      swap1\n      tag_93\n      jump\t// in\n    tag_92:\n      swap3\n      pop\n      pop\n      dup2\n      swap1\n      sstore\n      pop\n        /* \"contracts/complex_verify.sol\":1883:1892  elections */\n      0x05\n        /* \"contracts/complex_verify.sol\":1883:1898  elections[addr] */\n      0x00\n        /* \"contracts/complex_verify.sol\":1893:1897  addr */\n      dup3\n        /* \"contracts/complex_verify.sol\":1883:1898  elections[addr] */\n      0xffffffffffffffffffffffffffffffffffffffff\n      and\n      0xffffffffffffffffffffffffffffffffffffffff\n      and\n      dup2\n      mstore\n      0x20\n      add\n      swap1\n      dup2\n      mstore\n      0x20\n      add\n      0x00\n      keccak256\n      0x00\n        /* \"contracts/complex_verify.sol\":1876:1898  delete elections[addr] */\n      0x0100\n      exp\n      dup2\n      sload\n      swap1\n      0xffffffffffffffffffffffffffffffffffffffff\n      mul\n      not\n      and\n      swap1\n      sstore\n        /* \"contracts/complex_verify.sol\":1673:1909  if (elections[addr].votesToAdd() > (totalAdmins / 2)) {... */\n    tag_91:\n        /* \"contracts/complex_verify.sol\":1203:1915  function voteToAdd(address addr) senderIsAdmin public {... */\n      pop\n      jump\t// out\n        /* \"contracts/complex_verify.sol\":1921:2649  function voteToRemove(address addr) senderIsAdmin public {... */\n    tag_29:\n        /* \"contracts/complex_verify.sol\":1129:1133  true */\n      0x01\n        /* \"contracts/complex_verify.sol\":1107:1133  admins[msg.sender] == true */\n      iszero\n      iszero\n        /* \"contracts/complex_verify.sol\":1107:1113  admins */\n      0x04\n        /* \"contracts/complex_verify.sol\":1107:1125  admins[msg.sender] */\n      0x00\n        /* \"contracts/complex_verify.sol\":1114:1124  msg.sender */\n      caller\n        /* \"contracts/complex_verify.sol\":1107:1125  admins[msg.sender] */\n      0xffffffffffffffffffffffffffffffffffffffff\n      and\n      0xffffffffffffffffffffffffffffffffffffffff\n      and\n      dup2\n      mstore\n      0x20\n      add\n      swap1\n      dup2\n      mstore\n      0x20\n      add\n      0x00\n      keccak256\n      0x00\n      swap1\n      sload\n      swap1\n      0x0100\n      exp\n      swap1\n      div\n      0xff\n      and\n        /* \"contracts/complex_verify.sol\":1107:1133  admins[msg.sender] == true */\n      iszero\n      iszero\n      eq\n        /* \"contracts/complex_verify.sol\":1086:1179  require(... */\n      tag_95\n      jumpi\n      mload(0x40)\n      0x08c379a000000000000000000000000000000000000000000000000000000000\n      dup2\n      mstore\n      0x04\n      add\n      tag_96\n      swap1\n      tag_60\n      jump\t// in\n    tag_96:\n      mload(0x40)\n      dup1\n      swap2\n      sub\n      swap1\n      revert\n    tag_95:\n        /* \"contracts/complex_verify.sol\":2025:2029  true */\n      0x01\n        /* \"contracts/complex_verify.sol\":2009:2029  admins[addr] == true */\n      iszero\n      iszero\n        /* \"contracts/complex_verify.sol\":2009:2015  admins */\n      0x04\n        /* \"contracts/complex_verify.sol\":2009:2021  admins[addr] */\n      0x00\n        /* \"contracts/complex_verify.sol\":2016:2020  addr */\n      dup4\n        /* \"contracts/complex_verify.sol\":2009:2021  admins[addr] */\n      0xffffffffffffffffffffffffffffffffffffffff\n      and\n      0xffffffffffffffffffffffffffffffffffffffff\n      and\n      dup2\n      mstore\n      0x20\n      add\n      swap1\n      dup2\n      mstore\n      0x20\n      add\n      0x00\n      keccak256\n      0x00\n      swap1\n      sload\n      swap1\n      0x0100\n      exp\n      swap1\n      div\n      0xff\n      and\n        /* \"contracts/complex_verify.sol\":2009:2029  admins[addr] == true */\n      iszero\n      iszero\n      eq\n        /* \"contracts/complex_verify.sol\":1988:2100  require(... */\n      tag_98\n      jumpi\n      mload(0x40)\n      0x08c379a000000000000000000000000000000000000000000000000000000000\n      dup2\n      mstore\n      0x04\n      add\n      tag_99\n      swap1\n      tag_100\n      jump\t// in\n    tag_99:\n      mload(0x40)\n      dup1\n      swap2\n      sub\n      swap1\n      revert\n    tag_98:\n        /* \"contracts/complex_verify.sol\":2141:2146  false */\n      0x00\n        /* \"contracts/complex_verify.sol\":2115:2146  elections[addr].live() == false */\n      iszero\n      iszero\n        /* \"contracts/complex_verify.sol\":2115:2124  elections */\n      0x05\n        /* \"contracts/complex_verify.sol\":2115:2130  elections[addr] */\n      0x00\n        /* \"contracts/complex_verify.sol\":2125:2129  addr */\n      dup4\n        /* \"contracts/complex_verify.sol\":2115:2130  elections[addr] */\n      0xffffffffffffffffffffffffffffffffffffffff\n      and\n      0xffffffffffffffffffffffffffffffffffffffff\n      and\n      dup2\n      mstore\n      0x20\n      add\n      swap1\n      dup2\n      mstore\n      0x20\n      add\n      0x00\n      keccak256\n      0x00\n      swap1\n      sload\n      swap1\n      0x0100\n      exp\n      swap1\n      div\n      0xffffffffffffffffffffffffffffffffffffffff\n      and\n        /* \"contracts/complex_verify.sol\":2115:2135  elections[addr].live */\n      0xffffffffffffffffffffffffffffffffffffffff\n      and\n      0x957aa58c\n        /* \"contracts/complex_verify.sol\":2115:2137  elections[addr].live() */\n      mload(0x40)\n      dup2\n      0xffffffff\n      and\n      0xe0\n      shl\n      dup2\n      mstore\n      0x04\n      add\n      0x20\n      mload(0x40)\n      dup1\n      dup4\n      sub\n      dup2\n      dup7\n      dup1\n      extcodesize\n      iszero\n      dup1\n      iszero\n      tag_101\n      jumpi\n      0x00\n      dup1\n      revert\n    tag_101:\n      pop\n      gas\n      staticcall\n      iszero\n      dup1\n      iszero\n      tag_103\n      jumpi\n      returndatasize\n      0x00\n      dup1\n      returndatacopy\n      revert(0x00, returndatasize)\n    tag_103:\n      pop\n      pop\n      pop\n      pop\n      mload(0x40)\n      returndatasize\n      not(0x1f)\n      0x1f\n      dup3\n      add\n      and\n      dup3\n      add\n      dup1\n      0x40\n      mstore\n      pop\n      dup2\n      add\n      swap1\n      tag_104\n      swap2\n      swap1\n      tag_69\n      jump\t// in\n    tag_104:\n        /* \"contracts/complex_verify.sol\":2115:2146  elections[addr].live() == false */\n      iszero\n      iszero\n      eq\n        /* \"contracts/complex_verify.sol\":2111:2339  if (elections[addr].live() == false) {... */\n      iszero\n      tag_105\n      jumpi\n        /* \"contracts/complex_verify.sol\":2180:2194  new Election() */\n      mload(0x40)\n      tag_106\n      swap1\n      tag_72\n      jump\t// in\n    tag_106:\n      mload(0x40)\n      dup1\n      swap2\n      sub\n      swap1\n      0x00\n      create\n      dup1\n      iszero\n      dup1\n      iszero\n      tag_107\n      jumpi\n      returndatasize\n      0x00\n      dup1\n      returndatacopy\n      revert(0x00, returndatasize)\n    tag_107:\n      pop\n        /* \"contracts/complex_verify.sol\":2162:2171  elections */\n      0x05\n        /* \"contracts/complex_verify.sol\":2162:2177  elections[addr] */\n      0x00\n        /* \"contracts/complex_verify.sol\":2172:2176  addr */\n      dup4\n        /* \"contracts/complex_verify.sol\":2162:2177  elections[addr] */\n      0xffffffffffffffffffffffffffffffffffffffff\n      and\n      0xffffffffffffffffffffffffffffffffffffffff\n      and\n      dup2\n      mstore\n      0x20\n      add\n      swap1\n      dup2\n      mstore\n      0x20\n      add\n      0x00\n      keccak256\n      0x00\n        /* \"contracts/complex_verify.sol\":2162:2194  elections[addr] = new Election() */\n      0x0100\n      exp\n      dup2\n      sload\n      dup2\n      0xffffffffffffffffffffffffffffffffffffffff\n      mul\n      not\n      and\n      swap1\n      dup4\n      0xffffffffffffffffffffffffffffffffffffffff\n      and\n      mul\n      or\n      swap1\n      sstore\n      pop\n        /* \"contracts/complex_verify.sol\":2208:2217  elections */\n      0x05\n        /* \"contracts/complex_verify.sol\":2208:2223  elections[addr] */\n      0x00\n        /* \"contracts/complex_verify.sol\":2218:2222  addr */\n      dup3\n        /* \"contracts/complex_verify.sol\":2208:2223  elections[addr] */\n      0xffffffffffffffffffffffffffffffffffffffff\n      and\n      0xffffffffffffffffffffffffffffffffffffffff\n      and\n      dup2\n      mstore\n      0x20\n      add\n      swap1\n      dup2\n      mstore\n      0x20\n      add\n      0x00\n      keccak256\n      0x00\n      swap1\n      sload\n      swap1\n      0x0100\n      exp\n      swap1\n      div\n      0xffffffffffffffffffffffffffffffffffffffff\n      and\n        /* \"contracts/complex_verify.sol\":2208:2236  elections[addr].voteToRemove */\n      0xffffffffffffffffffffffffffffffffffffffff\n      and\n      0x7727d3aa\n        /* \"contracts/complex_verify.sol\":2237:2247  msg.sender */\n      caller\n        /* \"contracts/complex_verify.sol\":2208:2248  elections[addr].voteToRemove(msg.sender) */\n      mload(0x40)\n      dup3\n      0xffffffff\n      and\n      0xe0\n      shl\n      dup2\n      mstore\n      0x04\n      add\n      tag_108\n      swap2\n      swap1\n      tag_75\n      jump\t// in\n    tag_108:\n      0x00\n      mload(0x40)\n      dup1\n      dup4\n      sub\n      dup2\n      0x00\n      dup8\n      dup1\n      extcodesize\n      iszero\n      dup1\n      iszero\n      tag_109\n      jumpi\n      0x00\n      dup1\n      revert\n    tag_109:\n      pop\n      gas\n      call\n      iszero\n      dup1\n      iszero\n      tag_111\n      jumpi\n      returndatasize\n      0x00\n      dup1\n      returndatacopy\n      revert(0x00, returndatasize)\n    tag_111:\n      pop\n      pop\n      pop\n      pop\n        /* \"contracts/complex_verify.sol\":2111:2339  if (elections[addr].live() == false) {... */\n      jump(tag_112)\n    tag_105:\n        /* \"contracts/complex_verify.sol\":2288:2297  elections */\n      0x05\n        /* \"contracts/complex_verify.sol\":2288:2303  elections[addr] */\n      0x00\n        /* \"contracts/complex_verify.sol\":2298:2302  addr */\n      dup3\n        /* \"contracts/complex_verify.sol\":2288:2303  elections[addr] */\n      0xffffffffffffffffffffffffffffffffffffffff\n      and\n      0xffffffffffffffffffffffffffffffffffffffff\n      and\n      dup2\n      mstore\n      0x20\n      add\n      swap1\n      dup2\n      mstore\n      0x20\n      add\n      0x00\n      keccak256\n      0x00\n      swap1\n      sload\n      swap1\n      0x0100\n      exp\n      swap1\n      div\n      0xffffffffffffffffffffffffffffffffffffffff\n      and\n        /* \"contracts/complex_verify.sol\":2288:2316  elections[addr].voteToRemove */\n      0xffffffffffffffffffffffffffffffffffffffff\n      and\n      0x7727d3aa\n        /* \"contracts/complex_verify.sol\":2317:2327  msg.sender */\n      caller\n        /* \"contracts/complex_verify.sol\":2288:2328  elections[addr].voteToRemove(msg.sender) */\n      mload(0x40)\n      dup3\n      0xffffffff\n      and\n      0xe0\n      shl\n      dup2\n      mstore\n      0x04\n      add\n      tag_113\n      swap2\n      swap1\n      tag_75\n      jump\t// in\n    tag_113:\n      0x00\n      mload(0x40)\n      dup1\n      dup4\n      sub\n      dup2\n      0x00\n      dup8\n      dup1\n      extcodesize\n      iszero\n      dup1\n      iszero\n      tag_114\n      jumpi\n      0x00\n      dup1\n      revert\n    tag_114:\n      pop\n      gas\n      call\n      iszero\n      dup1\n      iszero\n      tag_116\n      jumpi\n      returndatasize\n      0x00\n      dup1\n      returndatacopy\n      revert(0x00, returndatasize)\n    tag_116:\n      pop\n      pop\n      pop\n      pop\n        /* \"contracts/complex_verify.sol\":2111:2339  if (elections[addr].live() == false) {... */\n    tag_112:\n        /* \"contracts/complex_verify.sol\":2457:2458  2 */\n      0x02\n        /* \"contracts/complex_verify.sol\":2443:2454  totalAdmins */\n      sload(0x03)\n        /* \"contracts/complex_verify.sol\":2443:2458  totalAdmins / 2 */\n      tag_117\n      swap2\n      swap1\n      tag_85\n      jump\t// in\n    tag_117:\n        /* \"contracts/complex_verify.sol\":2408:2417  elections */\n      0x05\n        /* \"contracts/complex_verify.sol\":2408:2423  elections[addr] */\n      0x00\n        /* \"contracts/complex_verify.sol\":2418:2422  addr */\n      dup4\n        /* \"contracts/complex_verify.sol\":2408:2423  elections[addr] */\n      0xffffffffffffffffffffffffffffffffffffffff\n      and\n      0xffffffffffffffffffffffffffffffffffffffff\n      and\n      dup2\n      mstore\n      0x20\n      add\n      swap1\n      dup2\n      mstore\n      0x20\n      add\n      0x00\n      keccak256\n      0x00\n      swap1\n      sload\n      swap1\n      0x0100\n      exp\n      swap1\n      div\n      0xffffffffffffffffffffffffffffffffffffffff\n      and\n        /* \"contracts/complex_verify.sol\":2408:2437  elections[addr].votesToRemove */\n      0xffffffffffffffffffffffffffffffffffffffff\n      and\n      0x5cb7e8af\n        /* \"contracts/complex_verify.sol\":2408:2439  elections[addr].votesToRemove() */\n      mload(0x40)\n      dup2\n      0xffffffff\n      and\n      0xe0\n      shl\n      dup2\n      mstore\n      0x04\n      add\n      0x20\n      mload(0x40)\n      dup1\n      dup4\n      sub\n      dup2\n      dup7\n      dup1\n      extcodesize\n      iszero\n      dup1\n      iszero\n      tag_118\n      jumpi\n      0x00\n      dup1\n      revert\n    tag_118:\n      pop\n      gas\n      staticcall\n      iszero\n      dup1\n      iszero\n      tag_120\n      jumpi\n      returndatasize\n      0x00\n      dup1\n      returndatacopy\n      revert(0x00, returndatasize)\n    tag_120:\n      pop\n      pop\n      pop\n      pop\n      mload(0x40)\n      returndatasize\n      not(0x1f)\n      0x1f\n      dup3\n      add\n      and\n      dup3\n      add\n      dup1\n      0x40\n      mstore\n      pop\n      dup2\n      add\n      swap1\n      tag_121\n      swap2\n      swap1\n      tag_90\n      jump\t// in\n    tag_121:\n        /* \"contracts/complex_verify.sol\":2408:2459  elections[addr].votesToRemove() > (totalAdmins / 2) */\n      sgt\n        /* \"contracts/complex_verify.sol\":2404:2643  if (elections[addr].votesToRemove() > (totalAdmins / 2)) {... */\n      iszero\n      tag_122\n      jumpi\n        /* \"contracts/complex_verify.sol\":2490:2494  true */\n      0x01\n        /* \"contracts/complex_verify.sol\":2475:2481  admins */\n      0x04\n        /* \"contracts/complex_verify.sol\":2475:2487  admins[addr] */\n      0x00\n        /* \"contracts/complex_verify.sol\":2482:2486  addr */\n      dup4\n        /* \"contracts/complex_verify.sol\":2475:2487  admins[addr] */\n      0xffffffffffffffffffffffffffffffffffffffff\n      and\n      0xffffffffffffffffffffffffffffffffffffffff\n      and\n      dup2\n      mstore\n      0x20\n      add\n      swap1\n      dup2\n      mstore\n      0x20\n      add\n      0x00\n      keccak256\n      0x00\n        /* \"contracts/complex_verify.sol\":2475:2494  admins[addr] = true */\n      0x0100\n      exp\n      dup2\n      sload\n      dup2\n      0xff\n      mul\n      not\n      and\n      swap1\n      dup4\n      iszero\n      iszero\n      mul\n      or\n      swap1\n      sstore\n      pop\n        /* \"contracts/complex_verify.sol\":2523:2524  1 */\n      0x01\n        /* \"contracts/complex_verify.sol\":2508:2519  totalAdmins */\n      0x03\n      0x00\n        /* \"contracts/complex_verify.sol\":2508:2524  totalAdmins -= 1 */\n      dup3\n      dup3\n      sload\n      tag_123\n      swap2\n      swap1\n      tag_124\n      jump\t// in\n    tag_123:\n      swap3\n      pop\n      pop\n      dup2\n      swap1\n      sstore\n      pop\n        /* \"contracts/complex_verify.sol\":2617:2626  elections */\n      0x05\n        /* \"contracts/complex_verify.sol\":2617:2632  elections[addr] */\n      0x00\n        /* \"contracts/complex_verify.sol\":2627:2631  addr */\n      dup3\n        /* \"contracts/complex_verify.sol\":2617:2632  elections[addr] */\n      0xffffffffffffffffffffffffffffffffffffffff\n      and\n      0xffffffffffffffffffffffffffffffffffffffff\n      and\n      dup2\n      mstore\n      0x20\n      add\n      swap1\n      dup2\n      mstore\n      0x20\n      add\n      0x00\n      keccak256\n      0x00\n        /* \"contracts/complex_verify.sol\":2610:2632  delete elections[addr] */\n      0x0100\n      exp\n      dup2\n      sload\n      swap1\n      0xffffffffffffffffffffffffffffffffffffffff\n      mul\n      not\n      and\n      swap1\n      sstore\n        /* \"contracts/complex_verify.sol\":2404:2643  if (elections[addr].votesToRemove() > (totalAdmins / 2)) {... */\n    tag_122:\n        /* \"contracts/complex_verify.sol\":1921:2649  function voteToRemove(address addr) senderIsAdmin public {... */\n      pop\n      jump\t// out\n        /* \"contracts/simple_verify.sol\":1074:1404  function addVerifier(address addr) senderIsAdmin public {       ... */\n    tag_32:\n        /* \"contracts/complex_verify.sol\":1129:1133  true */\n      0x01\n        /* \"contracts/complex_verify.sol\":1107:1133  admins[msg.sender] == true */\n      iszero\n      iszero\n        /* \"contracts/complex_verify.sol\":1107:1113  admins */\n      0x04\n        /* \"contracts/complex_verify.sol\":1107:1125  admins[msg.sender] */\n      0x00\n        /* \"contracts/complex_verify.sol\":1114:1124  msg.sender */\n      caller\n        /* \"contracts/complex_verify.sol\":1107:1125  admins[msg.sender] */\n      0xffffffffffffffffffffffffffffffffffffffff\n      and\n      0xffffffffffffffffffffffffffffffffffffffff\n      and\n      dup2\n      mstore\n      0x20\n      add\n      swap1\n      dup2\n      mstore\n      0x20\n      add\n      0x00\n      keccak256\n      0x00\n      swap1\n      sload\n      swap1\n      0x0100\n      exp\n      swap1\n      div\n      0xff\n      and\n        /* \"contracts/complex_verify.sol\":1107:1133  admins[msg.sender] == true */\n      iszero\n      iszero\n      eq\n        /* \"contracts/complex_verify.sol\":1086:1179  require(... */\n      tag_126\n      jumpi\n      mload(0x40)\n      0x08c379a000000000000000000000000000000000000000000000000000000000\n      dup2\n      mstore\n      0x04\n      add\n      tag_127\n      swap1\n      tag_60\n      jump\t// in\n    tag_127:\n      mload(0x40)\n      dup1\n      swap2\n      sub\n      swap1\n      revert\n    tag_126:\n        /* \"contracts/simple_verify.sol\":1184:1185  0 */\n      0x00\n        /* \"contracts/simple_verify.sol\":1168:1186  addr != address(0) */\n      0xffffffffffffffffffffffffffffffffffffffff\n      and\n        /* \"contracts/simple_verify.sol\":1168:1172  addr */\n      dup2\n        /* \"contracts/simple_verify.sol\":1168:1186  addr != address(0) */\n      0xffffffffffffffffffffffffffffffffffffffff\n      and\n      eq\n      iszero\n        /* \"contracts/simple_verify.sol\":1147:1245  require(... */\n      tag_129\n      jumpi\n      mload(0x40)\n      0x08c379a000000000000000000000000000000000000000000000000000000000\n      dup2\n      mstore\n      0x04\n      add\n      tag_130\n      swap1\n      tag_131\n      jump\t// in\n    tag_130:\n      mload(0x40)\n      dup1\n      swap2\n      sub\n      swap1\n      revert\n    tag_129:\n        /* \"contracts/simple_verify.sol\":1304:1308  true */\n      0x01\n        /* \"contracts/simple_verify.sol\":1285:1308  verifiers[addr] != true */\n      iszero\n      iszero\n        /* \"contracts/simple_verify.sol\":1285:1294  verifiers */\n      0x02\n        /* \"contracts/simple_verify.sol\":1285:1300  verifiers[addr] */\n      0x00\n        /* \"contracts/simple_verify.sol\":1295:1299  addr */\n      dup4\n        /* \"contracts/simple_verify.sol\":1285:1300  verifiers[addr] */\n      0xffffffffffffffffffffffffffffffffffffffff\n      and\n      0xffffffffffffffffffffffffffffffffffffffff\n      and\n      dup2\n      mstore\n      0x20\n      add\n      swap1\n      dup2\n      mstore\n      0x20\n      add\n      0x00\n      keccak256\n      0x00\n      swap1\n      sload\n      swap1\n      0x0100\n      exp\n      swap1\n      div\n      0xff\n      and\n        /* \"contracts/simple_verify.sol\":1285:1308  verifiers[addr] != true */\n      iszero\n      iszero\n      eq\n      iszero\n        /* \"contracts/simple_verify.sol\":1264:1364  require(... */\n      tag_132\n      jumpi\n      mload(0x40)\n      0x08c379a000000000000000000000000000000000000000000000000000000000\n      dup2\n      mstore\n      0x04\n      add\n      tag_133\n      swap1\n      tag_134\n      jump\t// in\n    tag_133:\n      mload(0x40)\n      dup1\n      swap2\n      sub\n      swap1\n      revert\n    tag_132:\n        /* \"contracts/simple_verify.sol\":1393:1397  true */\n      0x01\n        /* \"contracts/simple_verify.sol\":1375:1384  verifiers */\n      0x02\n        /* \"contracts/simple_verify.sol\":1375:1390  verifiers[addr] */\n      0x00\n        /* \"contracts/simple_verify.sol\":1385:1389  addr */\n      dup4\n        /* \"contracts/simple_verify.sol\":1375:1390  verifiers[addr] */\n      0xffffffffffffffffffffffffffffffffffffffff\n      and\n      0xffffffffffffffffffffffffffffffffffffffff\n      and\n      dup2\n      mstore\n      0x20\n      add\n      swap1\n      dup2\n      mstore\n      0x20\n      add\n      0x00\n      keccak256\n      0x00\n        /* \"contracts/simple_verify.sol\":1375:1397  verifiers[addr] = true */\n      0x0100\n      exp\n      dup2\n      sload\n      dup2\n      0xff\n      mul\n      not\n      and\n      swap1\n      dup4\n      iszero\n      iszero\n      mul\n      or\n      swap1\n      sstore\n      pop\n        /* \"contracts/simple_verify.sol\":1074:1404  function addVerifier(address addr) senderIsAdmin public {       ... */\n      pop\n      jump\t// out\n        /* \"contracts/simple_verify.sol\":2492:2665  function isVerified(address addr) public view returns (bool) {... */\n    tag_35:\n        /* \"contracts/simple_verify.sol\":2547:2551  bool */\n      0x00\n        /* \"contracts/simple_verify.sol\":2594:2598  true */\n      0x01\n        /* \"contracts/simple_verify.sol\":2567:2598  verifiedAddresses[addr] == true */\n      iszero\n      iszero\n        /* \"contracts/simple_verify.sol\":2567:2584  verifiedAddresses */\n      0x01\n        /* \"contracts/simple_verify.sol\":2567:2590  verifiedAddresses[addr] */\n      0x00\n        /* \"contracts/simple_verify.sol\":2585:2589  addr */\n      dup5\n        /* \"contracts/simple_verify.sol\":2567:2590  verifiedAddresses[addr] */\n      0xffffffffffffffffffffffffffffffffffffffff\n      and\n      0xffffffffffffffffffffffffffffffffffffffff\n      and\n      dup2\n      mstore\n      0x20\n      add\n      swap1\n      dup2\n      mstore\n      0x20\n      add\n      0x00\n      keccak256\n      0x00\n      swap1\n      sload\n      swap1\n      0x0100\n      exp\n      swap1\n      div\n      0xff\n      and\n        /* \"contracts/simple_verify.sol\":2567:2598  verifiedAddresses[addr] == true */\n      iszero\n      iszero\n      eq\n        /* \"contracts/simple_verify.sol\":2563:2636  if (verifiedAddresses[addr] == true) {... */\n      iszero\n      tag_136\n      jumpi\n        /* \"contracts/simple_verify.sol\":2621:2625  true */\n      0x01\n        /* \"contracts/simple_verify.sol\":2614:2625  return true */\n      swap1\n      pop\n      jump(tag_135)\n        /* \"contracts/simple_verify.sol\":2563:2636  if (verifiedAddresses[addr] == true) {... */\n    tag_136:\n        /* \"contracts/simple_verify.sol\":2653:2658  false */\n      0x00\n        /* \"contracts/simple_verify.sol\":2646:2658  return false */\n      swap1\n      pop\n        /* \"contracts/simple_verify.sol\":2492:2665  function isVerified(address addr) public view returns (bool) {... */\n    tag_135:\n      swap2\n      swap1\n      pop\n      jump\t// out\n        /* \"contracts/simple_verify.sol\":1473:1708  function removeVerifier(address addr) senderIsAdmin public {... */\n    tag_39:\n        /* \"contracts/complex_verify.sol\":1129:1133  true */\n      0x01\n        /* \"contracts/complex_verify.sol\":1107:1133  admins[msg.sender] == true */\n      iszero\n      iszero\n        /* \"contracts/complex_verify.sol\":1107:1113  admins */\n      0x04\n        /* \"contracts/complex_verify.sol\":1107:1125  admins[msg.sender] */\n      0x00\n        /* \"contracts/complex_verify.sol\":1114:1124  msg.sender */\n      caller\n        /* \"contracts/complex_verify.sol\":1107:1125  admins[msg.sender] */\n      0xffffffffffffffffffffffffffffffffffffffff\n      and\n      0xffffffffffffffffffffffffffffffffffffffff\n      and\n      dup2\n      mstore\n      0x20\n      add\n      swap1\n      dup2\n      mstore\n      0x20\n      add\n      0x00\n      keccak256\n      0x00\n      swap1\n      sload\n      swap1\n      0x0100\n      exp\n      swap1\n      div\n      0xff\n      and\n        /* \"contracts/complex_verify.sol\":1107:1133  admins[msg.sender] == true */\n      iszero\n      iszero\n      eq\n        /* \"contracts/complex_verify.sol\":1086:1179  require(... */\n      tag_138\n      jumpi\n      mload(0x40)\n      0x08c379a000000000000000000000000000000000000000000000000000000000\n      dup2\n      mstore\n      0x04\n      add\n      tag_139\n      swap1\n      tag_60\n      jump\t// in\n    tag_139:\n      mload(0x40)\n      dup1\n      swap2\n      sub\n      swap1\n      revert\n    tag_138:\n        /* \"contracts/simple_verify.sol\":1582:1586  true */\n      0x01\n        /* \"contracts/simple_verify.sol\":1563:1586  verifiers[addr] == true */\n      iszero\n      iszero\n        /* \"contracts/simple_verify.sol\":1563:1572  verifiers */\n      0x02\n        /* \"contracts/simple_verify.sol\":1563:1578  verifiers[addr] */\n      0x00\n        /* \"contracts/simple_verify.sol\":1573:1577  addr */\n      dup4\n        /* \"contracts/simple_verify.sol\":1563:1578  verifiers[addr] */\n      0xffffffffffffffffffffffffffffffffffffffff\n      and\n      0xffffffffffffffffffffffffffffffffffffffff\n      and\n      dup2\n      mstore\n      0x20\n      add\n      swap1\n      dup2\n      mstore\n      0x20\n      add\n      0x00\n      keccak256\n      0x00\n      swap1\n      sload\n      swap1\n      0x0100\n      exp\n      swap1\n      div\n      0xff\n      and\n        /* \"contracts/simple_verify.sol\":1563:1586  verifiers[addr] == true */\n      iszero\n      iszero\n      eq\n        /* \"contracts/simple_verify.sol\":1542:1667  require(... */\n      tag_141\n      jumpi\n      mload(0x40)\n      0x08c379a000000000000000000000000000000000000000000000000000000000\n      dup2\n      mstore\n      0x04\n      add\n      tag_142\n      swap1\n      tag_143\n      jump\t// in\n    tag_142:\n      mload(0x40)\n      dup1\n      swap2\n      sub\n      swap1\n      revert\n    tag_141:\n        /* \"contracts/simple_verify.sol\":1696:1701  false */\n      0x00\n        /* \"contracts/simple_verify.sol\":1678:1687  verifiers */\n      0x02\n        /* \"contracts/simple_verify.sol\":1678:1693  verifiers[addr] */\n      0x00\n        /* \"contracts/simple_verify.sol\":1688:1692  addr */\n      dup4\n        /* \"contracts/simple_verify.sol\":1678:1693  verifiers[addr] */\n      0xffffffffffffffffffffffffffffffffffffffff\n      and\n      0xffffffffffffffffffffffffffffffffffffffff\n      and\n      dup2\n      mstore\n      0x20\n      add\n      swap1\n      dup2\n      mstore\n      0x20\n      add\n      0x00\n      keccak256\n      0x00\n        /* \"contracts/simple_verify.sol\":1678:1701  verifiers[addr] = false */\n      0x0100\n      exp\n      dup2\n      sload\n      dup2\n      0xff\n      mul\n      not\n      and\n      swap1\n      dup4\n      iszero\n      iszero\n      mul\n      or\n      swap1\n      sstore\n      pop\n        /* \"contracts/simple_verify.sol\":1473:1708  function removeVerifier(address addr) senderIsAdmin public {... */\n      pop\n      jump\t// out\n    tag_72:\n      dataSize(sub_0)\n      dup1\n      dataOffset(sub_0)\n      dup4\n      codecopy\n      add\n      swap1\n      jump\t// out\n        /* \"#utility.yul\":7:146   */\n    tag_145:\n        /* \"#utility.yul\":53:58   */\n      0x00\n        /* \"#utility.yul\":91:97   */\n      dup2\n        /* \"#utility.yul\":78:98   */\n      calldataload\n        /* \"#utility.yul\":69:98   */\n      swap1\n      pop\n        /* \"#utility.yul\":107:140   */\n      tag_147\n        /* \"#utility.yul\":134:139   */\n      dup2\n        /* \"#utility.yul\":107:140   */\n      tag_148\n      jump\t// in\n    tag_147:\n        /* \"#utility.yul\":7:146   */\n      swap3\n      swap2\n      pop\n      pop\n      jump\t// out\n        /* \"#utility.yul\":152:289   */\n    tag_149:\n        /* \"#utility.yul\":206:211   */\n      0x00\n        /* \"#utility.yul\":237:243   */\n      dup2\n        /* \"#utility.yul\":231:244   */\n      mload\n        /* \"#utility.yul\":222:244   */\n      swap1\n      pop\n        /* \"#utility.yul\":253:283   */\n      tag_151\n        /* \"#utility.yul\":277:282   */\n      dup2\n        /* \"#utility.yul\":253:283   */\n      tag_152\n      jump\t// in\n    tag_151:\n        /* \"#utility.yul\":152:289   */\n      swap3\n      swap2\n      pop\n      pop\n      jump\t// out\n        /* \"#utility.yul\":295:436   */\n    tag_153:\n        /* \"#utility.yul\":351:356   */\n      0x00\n        /* \"#utility.yul\":382:388   */\n      dup2\n        /* \"#utility.yul\":376:389   */\n      mload\n        /* \"#utility.yul\":367:389   */\n      swap1\n      pop\n        /* \"#utility.yul\":398:430   */\n      tag_155\n        /* \"#utility.yul\":424:429   */\n      dup2\n        /* \"#utility.yul\":398:430   */\n      tag_156\n      jump\t// in\n    tag_155:\n        /* \"#utility.yul\":295:436   */\n      swap3\n      swap2\n      pop\n      pop\n      jump\t// out\n        /* \"#utility.yul\":442:771   */\n    tag_14:\n        /* \"#utility.yul\":501:507   */\n      0x00\n        /* \"#utility.yul\":550:552   */\n      0x20\n        /* \"#utility.yul\":538:547   */\n      dup3\n        /* \"#utility.yul\":529:536   */\n      dup5\n        /* \"#utility.yul\":525:548   */\n      sub\n        /* \"#utility.yul\":521:553   */\n      slt\n        /* \"#utility.yul\":518:637   */\n      iszero\n      tag_158\n      jumpi\n        /* \"#utility.yul\":556:635   */\n      tag_159\n      tag_160\n      jump\t// in\n    tag_159:\n        /* \"#utility.yul\":518:637   */\n    tag_158:\n        /* \"#utility.yul\":676:677   */\n      0x00\n        /* \"#utility.yul\":701:754   */\n      tag_161\n        /* \"#utility.yul\":746:753   */\n      dup5\n        /* \"#utility.yul\":737:743   */\n      dup3\n        /* \"#utility.yul\":726:735   */\n      dup6\n        /* \"#utility.yul\":722:744   */\n      add\n        /* \"#utility.yul\":701:754   */\n      tag_145\n      jump\t// in\n    tag_161:\n        /* \"#utility.yul\":691:754   */\n      swap2\n      pop\n        /* \"#utility.yul\":647:764   */\n      pop\n        /* \"#utility.yul\":442:771   */\n      swap3\n      swap2\n      pop\n      pop\n      jump\t// out\n        /* \"#utility.yul\":777:1122   */\n    tag_69:\n        /* \"#utility.yul\":844:850   */\n      0x00\n        /* \"#utility.yul\":893:895   */\n      0x20\n        /* \"#utility.yul\":881:890   */\n      dup3\n        /* \"#utility.yul\":872:879   */\n      dup5\n        /* \"#utility.yul\":868:891   */\n      sub\n        /* \"#utility.yul\":864:896   */\n      slt\n        /* \"#utility.yul\":861:980   */\n      iszero\n      tag_163\n      jumpi\n        /* \"#utility.yul\":899:978   */\n      tag_164\n      tag_160\n      jump\t// in\n    tag_164:\n        /* \"#utility.yul\":861:980   */\n    tag_163:\n        /* \"#utility.yul\":1019:1020   */\n      0x00\n        /* \"#utility.yul\":1044:1105   */\n      tag_165\n        /* \"#utility.yul\":1097:1104   */\n      dup5\n        /* \"#utility.yul\":1088:1094   */\n      dup3\n        /* \"#utility.yul\":1077:1086   */\n      dup6\n        /* \"#utility.yul\":1073:1095   */\n      add\n        /* \"#utility.yul\":1044:1105   */\n      tag_149\n      jump\t// in\n    tag_165:\n        /* \"#utility.yul\":1034:1105   */\n      swap2\n      pop\n        /* \"#utility.yul\":990:1115   */\n      pop\n        /* \"#utility.yul\":777:1122   */\n      swap3\n      swap2\n      pop\n      pop\n      jump\t// out\n        /* \"#utility.yul\":1128:1477   */\n    tag_90:\n        /* \"#utility.yul\":1197:1203   */\n      0x00\n        /* \"#utility.yul\":1246:1248   */\n      0x20\n        /* \"#utility.yul\":1234:1243   */\n      dup3\n        /* \"#utility.yul\":1225:1232   */\n      dup5\n        /* \"#utility.yul\":1221:1244   */\n      sub\n        /* \"#utility.yul\":1217:1249   */\n      slt\n        /* \"#utility.yul\":1214:1333   */\n      iszero\n      tag_167\n      jumpi\n        /* \"#utility.yul\":1252:1331   */\n      tag_168\n      tag_160\n      jump\t// in\n    tag_168:\n        /* \"#utility.yul\":1214:1333   */\n    tag_167:\n        /* \"#utility.yul\":1372:1373   */\n      0x00\n        /* \"#utility.yul\":1397:1460   */\n      tag_169\n        /* \"#utility.yul\":1452:1459   */\n      dup5\n        /* \"#utility.yul\":1443:1449   */\n      dup3\n        /* \"#utility.yul\":1432:1441   */\n      dup6\n        /* \"#utility.yul\":1428:1450   */\n      add\n        /* \"#utility.yul\":1397:1460   */\n      tag_153\n      jump\t// in\n    tag_169:\n        /* \"#utility.yul\":1387:1460   */\n      swap2\n      pop\n        /* \"#utility.yul\":1343:1470   */\n      pop\n        /* \"#utility.yul\":1128:1477   */\n      swap3\n      swap2\n      pop\n      pop\n      jump\t// out\n        /* \"#utility.yul\":1483:1601   */\n    tag_170:\n        /* \"#utility.yul\":1570:1594   */\n      tag_172\n        /* \"#utility.yul\":1588:1593   */\n      dup2\n        /* \"#utility.yul\":1570:1594   */\n      tag_173\n      jump\t// in\n    tag_172:\n        /* \"#utility.yul\":1565:1568   */\n      dup3\n        /* \"#utility.yul\":1558:1595   */\n      mstore\n        /* \"#utility.yul\":1483:1601   */\n      pop\n      pop\n      jump\t// out\n        /* \"#utility.yul\":1607:1716   */\n    tag_174:\n        /* \"#utility.yul\":1688:1709   */\n      tag_176\n        /* \"#utility.yul\":1703:1708   */\n      dup2\n        /* \"#utility.yul\":1688:1709   */\n      tag_177\n      jump\t// in\n    tag_176:\n        /* \"#utility.yul\":1683:1686   */\n      dup3\n        /* \"#utility.yul\":1676:1710   */\n      mstore\n        /* \"#utility.yul\":1607:1716   */\n      pop\n      pop\n      jump\t// out\n        /* \"#utility.yul\":1722:2088   */\n    tag_178:\n        /* \"#utility.yul\":1864:1867   */\n      0x00\n        /* \"#utility.yul\":1885:1952   */\n      tag_180\n        /* \"#utility.yul\":1949:1951   */\n      0x37\n        /* \"#utility.yul\":1944:1947   */\n      dup4\n        /* \"#utility.yul\":1885:1952   */\n      tag_181\n      jump\t// in\n    tag_180:\n        /* \"#utility.yul\":1878:1952   */\n      swap2\n      pop\n        /* \"#utility.yul\":1961:2054   */\n      tag_182\n        /* \"#utility.yul\":2050:2053   */\n      dup3\n        /* \"#utility.yul\":1961:2054   */\n      tag_183\n      jump\t// in\n    tag_182:\n        /* \"#utility.yul\":2079:2081   */\n      0x40\n        /* \"#utility.yul\":2074:2077   */\n      dup3\n        /* \"#utility.yul\":2070:2082   */\n      add\n        /* \"#utility.yul\":2063:2082   */\n      swap1\n      pop\n        /* \"#utility.yul\":1722:2088   */\n      swap2\n      swap1\n      pop\n      jump\t// out\n        /* \"#utility.yul\":2094:2460   */\n    tag_184:\n        /* \"#utility.yul\":2236:2239   */\n      0x00\n        /* \"#utility.yul\":2257:2324   */\n      tag_186\n        /* \"#utility.yul\":2321:2323   */\n      0x14\n        /* \"#utility.yul\":2316:2319   */\n      dup4\n        /* \"#utility.yul\":2257:2324   */\n      tag_181\n      jump\t// in\n    tag_186:\n        /* \"#utility.yul\":2250:2324   */\n      swap2\n      pop\n        /* \"#utility.yul\":2333:2426   */\n      tag_187\n        /* \"#utility.yul\":2422:2425   */\n      dup3\n        /* \"#utility.yul\":2333:2426   */\n      tag_188\n      jump\t// in\n    tag_187:\n        /* \"#utility.yul\":2451:2453   */\n      0x20\n        /* \"#utility.yul\":2446:2449   */\n      dup3\n        /* \"#utility.yul\":2442:2454   */\n      add\n        /* \"#utility.yul\":2435:2454   */\n      swap1\n      pop\n        /* \"#utility.yul\":2094:2460   */\n      swap2\n      swap1\n      pop\n      jump\t// out\n        /* \"#utility.yul\":2466:2832   */\n    tag_189:\n        /* \"#utility.yul\":2608:2611   */\n      0x00\n        /* \"#utility.yul\":2629:2696   */\n      tag_191\n        /* \"#utility.yul\":2693:2695   */\n      0x21\n        /* \"#utility.yul\":2688:2691   */\n      dup4\n        /* \"#utility.yul\":2629:2696   */\n      tag_181\n      jump\t// in\n    tag_191:\n        /* \"#utility.yul\":2622:2696   */\n      swap2\n      pop\n        /* \"#utility.yul\":2705:2798   */\n      tag_192\n        /* \"#utility.yul\":2794:2797   */\n      dup3\n        /* \"#utility.yul\":2705:2798   */\n      tag_193\n      jump\t// in\n    tag_192:\n        /* \"#utility.yul\":2823:2825   */\n      0x40\n        /* \"#utility.yul\":2818:2821   */\n      dup3\n        /* \"#utility.yul\":2814:2826   */\n      add\n        /* \"#utility.yul\":2807:2826   */\n      swap1\n      pop\n        /* \"#utility.yul\":2466:2832   */\n      swap2\n      swap1\n      pop\n      jump\t// out\n        /* \"#utility.yul\":2838:3204   */\n    tag_194:\n        /* \"#utility.yul\":2980:2983   */\n      0x00\n        /* \"#utility.yul\":3001:3068   */\n      tag_196\n        /* \"#utility.yul\":3065:3067   */\n      0x1e\n        /* \"#utility.yul\":3060:3063   */\n      dup4\n        /* \"#utility.yul\":3001:3068   */\n      tag_181\n      jump\t// in\n    tag_196:\n        /* \"#utility.yul\":2994:3068   */\n      swap2\n      pop\n        /* \"#utility.yul\":3077:3170   */\n      tag_197\n        /* \"#utility.yul\":3166:3169   */\n      dup3\n        /* \"#utility.yul\":3077:3170   */\n      tag_198\n      jump\t// in\n    tag_197:\n        /* \"#utility.yul\":3195:3197   */\n      0x20\n        /* \"#utility.yul\":3190:3193   */\n      dup3\n        /* \"#utility.yul\":3186:3198   */\n      add\n        /* \"#utility.yul\":3179:3198   */\n      swap1\n      pop\n        /* \"#utility.yul\":2838:3204   */\n      swap2\n      swap1\n      pop\n      jump\t// out\n        /* \"#utility.yul\":3210:3576   */\n    tag_199:\n        /* \"#utility.yul\":3352:3355   */\n      0x00\n        /* \"#utility.yul\":3373:3440   */\n      tag_201\n        /* \"#utility.yul\":3437:3439   */\n      0x1e\n        /* \"#utility.yul\":3432:3435   */\n      dup4\n        /* \"#utility.yul\":3373:3440   */\n      tag_181\n      jump\t// in\n    tag_201:\n        /* \"#utility.yul\":3366:3440   */\n      swap2\n      pop\n        /* \"#utility.yul\":3449:3542   */\n      tag_202\n        /* \"#utility.yul\":3538:3541   */\n      dup3\n        /* \"#utility.yul\":3449:3542   */\n      tag_203\n      jump\t// in\n    tag_202:\n        /* \"#utility.yul\":3567:3569   */\n      0x20\n        /* \"#utility.yul\":3562:3565   */\n      dup3\n        /* \"#utility.yul\":3558:3570   */\n      add\n        /* \"#utility.yul\":3551:3570   */\n      swap1\n      pop\n        /* \"#utility.yul\":3210:3576   */\n      swap2\n      swap1\n      pop\n      jump\t// out\n        /* \"#utility.yul\":3582:3948   */\n    tag_204:\n        /* \"#utility.yul\":3724:3727   */\n      0x00\n        /* \"#utility.yul\":3745:3812   */\n      tag_206\n        /* \"#utility.yul\":3809:3811   */\n      0x1b\n        /* \"#utility.yul\":3804:3807   */\n      dup4\n        /* \"#utility.yul\":3745:3812   */\n      tag_181\n      jump\t// in\n    tag_206:\n        /* \"#utility.yul\":3738:3812   */\n      swap2\n      pop\n        /* \"#utility.yul\":3821:3914   */\n      tag_207\n        /* \"#utility.yul\":3910:3913   */\n      dup3\n        /* \"#utility.yul\":3821:3914   */\n      tag_208\n      jump\t// in\n    tag_207:\n        /* \"#utility.yul\":3939:3941   */\n      0x20\n        /* \"#utility.yul\":3934:3937   */\n      dup3\n        /* \"#utility.yul\":3930:3942   */\n      add\n        /* \"#utility.yul\":3923:3942   */\n      swap1\n      pop\n        /* \"#utility.yul\":3582:3948   */\n      swap2\n      swap1\n      pop\n      jump\t// out\n        /* \"#utility.yul\":3954:4320   */\n    tag_209:\n        /* \"#utility.yul\":4096:4099   */\n      0x00\n        /* \"#utility.yul\":4117:4184   */\n      tag_211\n        /* \"#utility.yul\":4181:4183   */\n      0x21\n        /* \"#utility.yul\":4176:4179   */\n      dup4\n        /* \"#utility.yul\":4117:4184   */\n      tag_181\n      jump\t// in\n    tag_211:\n        /* \"#utility.yul\":4110:4184   */\n      swap2\n      pop\n        /* \"#utility.yul\":4193:4286   */\n      tag_212\n        /* \"#utility.yul\":4282:4285   */\n      dup3\n        /* \"#utility.yul\":4193:4286   */\n      tag_213\n      jump\t// in\n    tag_212:\n        /* \"#utility.yul\":4311:4313   */\n      0x40\n        /* \"#utility.yul\":4306:4309   */\n      dup3\n        /* \"#utility.yul\":4302:4314   */\n      add\n        /* \"#utility.yul\":4295:4314   */\n      swap1\n      pop\n        /* \"#utility.yul\":3954:4320   */\n      swap2\n      swap1\n      pop\n      jump\t// out\n        /* \"#utility.yul\":4326:4692   */\n    tag_214:\n        /* \"#utility.yul\":4468:4471   */\n      0x00\n        /* \"#utility.yul\":4489:4556   */\n      tag_216\n        /* \"#utility.yul\":4553:4555   */\n      0x16\n        /* \"#utility.yul\":4548:4551   */\n      dup4\n        /* \"#utility.yul\":4489:4556   */\n      tag_181\n      jump\t// in\n    tag_216:\n        /* \"#utility.yul\":4482:4556   */\n      swap2\n      pop\n        /* \"#utility.yul\":4565:4658   */\n      tag_217\n        /* \"#utility.yul\":4654:4657   */\n      dup3\n        /* \"#utility.yul\":4565:4658   */\n      tag_218\n      jump\t// in\n    tag_217:\n        /* \"#utility.yul\":4683:4685   */\n      0x20\n        /* \"#utility.yul\":4678:4681   */\n      dup3\n        /* \"#utility.yul\":4674:4686   */\n      add\n        /* \"#utility.yul\":4667:4686   */\n      swap1\n      pop\n        /* \"#utility.yul\":4326:4692   */\n      swap2\n      swap1\n      pop\n      jump\t// out\n        /* \"#utility.yul\":4698:5064   */\n    tag_219:\n        /* \"#utility.yul\":4840:4843   */\n      0x00\n        /* \"#utility.yul\":4861:4928   */\n      tag_221\n        /* \"#utility.yul\":4925:4927   */\n      0x2d\n        /* \"#utility.yul\":4920:4923   */\n      dup4\n        /* \"#utility.yul\":4861:4928   */\n      tag_181\n      jump\t// in\n    tag_221:\n        /* \"#utility.yul\":4854:4928   */\n      swap2\n      pop\n        /* \"#utility.yul\":4937:5030   */\n      tag_222\n        /* \"#utility.yul\":5026:5029   */\n      dup3\n        /* \"#utility.yul\":4937:5030   */\n      tag_223\n      jump\t// in\n    tag_222:\n        /* \"#utility.yul\":5055:5057   */\n      0x40\n        /* \"#utility.yul\":5050:5053   */\n      dup3\n        /* \"#utility.yul\":5046:5058   */\n      add\n        /* \"#utility.yul\":5039:5058   */\n      swap1\n      pop\n        /* \"#utility.yul\":4698:5064   */\n      swap2\n      swap1\n      pop\n      jump\t// out\n        /* \"#utility.yul\":5070:5292   */\n    tag_75:\n        /* \"#utility.yul\":5163:5167   */\n      0x00\n        /* \"#utility.yul\":5201:5203   */\n      0x20\n        /* \"#utility.yul\":5190:5199   */\n      dup3\n        /* \"#utility.yul\":5186:5204   */\n      add\n        /* \"#utility.yul\":5178:5204   */\n      swap1\n      pop\n        /* \"#utility.yul\":5214:5285   */\n      tag_225\n        /* \"#utility.yul\":5282:5283   */\n      0x00\n        /* \"#utility.yul\":5271:5280   */\n      dup4\n        /* \"#utility.yul\":5267:5284   */\n      add\n        /* \"#utility.yul\":5258:5264   */\n      dup5\n        /* \"#utility.yul\":5214:5285   */\n      tag_170\n      jump\t// in\n    tag_225:\n        /* \"#utility.yul\":5070:5292   */\n      swap3\n      swap2\n      pop\n      pop\n      jump\t// out\n        /* \"#utility.yul\":5298:5508   */\n    tag_17:\n        /* \"#utility.yul\":5385:5389   */\n      0x00\n        /* \"#utility.yul\":5423:5425   */\n      0x20\n        /* \"#utility.yul\":5412:5421   */\n      dup3\n        /* \"#utility.yul\":5408:5426   */\n      add\n        /* \"#utility.yul\":5400:5426   */\n      swap1\n      pop\n        /* \"#utility.yul\":5436:5501   */\n      tag_227\n        /* \"#utility.yul\":5498:5499   */\n      0x00\n        /* \"#utility.yul\":5487:5496   */\n      dup4\n        /* \"#utility.yul\":5483:5500   */\n      add\n        /* \"#utility.yul\":5474:5480   */\n      dup5\n        /* \"#utility.yul\":5436:5501   */\n      tag_174\n      jump\t// in\n    tag_227:\n        /* \"#utility.yul\":5298:5508   */\n      swap3\n      swap2\n      pop\n      pop\n      jump\t// out\n        /* \"#utility.yul\":5514:5933   */\n    tag_143:\n        /* \"#utility.yul\":5680:5684   */\n      0x00\n        /* \"#utility.yul\":5718:5720   */\n      0x20\n        /* \"#utility.yul\":5707:5716   */\n      dup3\n        /* \"#utility.yul\":5703:5721   */\n      add\n        /* \"#utility.yul\":5695:5721   */\n      swap1\n      pop\n        /* \"#utility.yul\":5767:5776   */\n      dup2\n        /* \"#utility.yul\":5761:5765   */\n      dup2\n        /* \"#utility.yul\":5757:5777   */\n      sub\n        /* \"#utility.yul\":5753:5754   */\n      0x00\n        /* \"#utility.yul\":5742:5751   */\n      dup4\n        /* \"#utility.yul\":5738:5755   */\n      add\n        /* \"#utility.yul\":5731:5778   */\n      mstore\n        /* \"#utility.yul\":5795:5926   */\n      tag_229\n        /* \"#utility.yul\":5921:5925   */\n      dup2\n        /* \"#utility.yul\":5795:5926   */\n      tag_178\n      jump\t// in\n    tag_229:\n        /* \"#utility.yul\":5787:5926   */\n      swap1\n      pop\n        /* \"#utility.yul\":5514:5933   */\n      swap2\n      swap1\n      pop\n      jump\t// out\n        /* \"#utility.yul\":5939:6358   */\n    tag_60:\n        /* \"#utility.yul\":6105:6109   */\n      0x00\n        /* \"#utility.yul\":6143:6145   */\n      0x20\n        /* \"#utility.yul\":6132:6141   */\n      dup3\n        /* \"#utility.yul\":6128:6146   */\n      add\n        /* \"#utility.yul\":6120:6146   */\n      swap1\n      pop\n        /* \"#utility.yul\":6192:6201   */\n      dup2\n        /* \"#utility.yul\":6186:6190   */\n      dup2\n        /* \"#utility.yul\":6182:6202   */\n      sub\n        /* \"#utility.yul\":6178:6179   */\n      0x00\n        /* \"#utility.yul\":6167:6176   */\n      dup4\n        /* \"#utility.yul\":6163:6180   */\n      add\n        /* \"#utility.yul\":6156:6203   */\n      mstore\n        /* \"#utility.yul\":6220:6351   */\n      tag_231\n        /* \"#utility.yul\":6346:6350   */\n      dup2\n        /* \"#utility.yul\":6220:6351   */\n      tag_184\n      jump\t// in\n    tag_231:\n        /* \"#utility.yul\":6212:6351   */\n      swap1\n      pop\n        /* \"#utility.yul\":5939:6358   */\n      swap2\n      swap1\n      pop\n      jump\t// out\n        /* \"#utility.yul\":6364:6783   */\n    tag_64:\n        /* \"#utility.yul\":6530:6534   */\n      0x00\n        /* \"#utility.yul\":6568:6570   */\n      0x20\n        /* \"#utility.yul\":6557:6566   */\n      dup3\n        /* \"#utility.yul\":6553:6571   */\n      add\n        /* \"#utility.yul\":6545:6571   */\n      swap1\n      pop\n        /* \"#utility.yul\":6617:6626   */\n      dup2\n        /* \"#utility.yul\":6611:6615   */\n      dup2\n        /* \"#utility.yul\":6607:6627   */\n      sub\n        /* \"#utility.yul\":6603:6604   */\n      0x00\n        /* \"#utility.yul\":6592:6601   */\n      dup4\n        /* \"#utility.yul\":6588:6605   */\n      add\n        /* \"#utility.yul\":6581:6628   */\n      mstore\n        /* \"#utility.yul\":6645:6776   */\n      tag_233\n        /* \"#utility.yul\":6771:6775   */\n      dup2\n        /* \"#utility.yul\":6645:6776   */\n      tag_189\n      jump\t// in\n    tag_233:\n        /* \"#utility.yul\":6637:6776   */\n      swap1\n      pop\n        /* \"#utility.yul\":6364:6783   */\n      swap2\n      swap1\n      pop\n      jump\t// out\n        /* \"#utility.yul\":6789:7208   */\n    tag_53:\n        /* \"#utility.yul\":6955:6959   */\n      0x00\n        /* \"#utility.yul\":6993:6995   */\n      0x20\n        /* \"#utility.yul\":6982:6991   */\n      dup3\n        /* \"#utility.yul\":6978:6996   */\n      add\n        /* \"#utility.yul\":6970:6996   */\n      swap1\n      pop\n        /* \"#utility.yul\":7042:7051   */\n      dup2\n        /* \"#utility.yul\":7036:7040   */\n      dup2\n        /* \"#utility.yul\":7032:7052   */\n      sub\n        /* \"#utility.yul\":7028:7029   */\n      0x00\n        /* \"#utility.yul\":7017:7026   */\n      dup4\n        /* \"#utility.yul\":7013:7030   */\n      add\n        /* \"#utility.yul\":7006:7053   */\n      mstore\n        /* \"#utility.yul\":7070:7201   */\n      tag_235\n        /* \"#utility.yul\":7196:7200   */\n      dup2\n        /* \"#utility.yul\":7070:7201   */\n      tag_194\n      jump\t// in\n    tag_235:\n        /* \"#utility.yul\":7062:7201   */\n      swap1\n      pop\n        /* \"#utility.yul\":6789:7208   */\n      swap2\n      swap1\n      pop\n      jump\t// out\n        /* \"#utility.yul\":7214:7633   */\n    tag_134:\n        /* \"#utility.yul\":7380:7384   */\n      0x00\n        /* \"#utility.yul\":7418:7420   */\n      0x20\n        /* \"#utility.yul\":7407:7416   */\n      dup3\n        /* \"#utility.yul\":7403:7421   */\n      add\n        /* \"#utility.yul\":7395:7421   */\n      swap1\n      pop\n        /* \"#utility.yul\":7467:7476   */\n      dup2\n        /* \"#utility.yul\":7461:7465   */\n      dup2\n        /* \"#utility.yul\":7457:7477   */\n      sub\n        /* \"#utility.yul\":7453:7454   */\n      0x00\n        /* \"#utility.yul\":7442:7451   */\n      dup4\n        /* \"#utility.yul\":7438:7455   */\n      add\n        /* \"#utility.yul\":7431:7478   */\n      mstore\n        /* \"#utility.yul\":7495:7626   */\n      tag_237\n        /* \"#utility.yul\":7621:7625   */\n      dup2\n        /* \"#utility.yul\":7495:7626   */\n      tag_199\n      jump\t// in\n    tag_237:\n        /* \"#utility.yul\":7487:7626   */\n      swap1\n      pop\n        /* \"#utility.yul\":7214:7633   */\n      swap2\n      swap1\n      pop\n      jump\t// out\n        /* \"#utility.yul\":7639:8058   */\n    tag_56:\n        /* \"#utility.yul\":7805:7809   */\n      0x00\n        /* \"#utility.yul\":7843:7845   */\n      0x20\n        /* \"#utility.yul\":7832:7841   */\n      dup3\n        /* \"#utility.yul\":7828:7846   */\n      add\n        /* \"#utility.yul\":7820:7846   */\n      swap1\n      pop\n        /* \"#utility.yul\":7892:7901   */\n      dup2\n        /* \"#utility.yul\":7886:7890   */\n      dup2\n        /* \"#utility.yul\":7882:7902   */\n      sub\n        /* \"#utility.yul\":7878:7879   */\n      0x00\n        /* \"#utility.yul\":7867:7876   */\n      dup4\n        /* \"#utility.yul\":7863:7880   */\n      add\n        /* \"#utility.yul\":7856:7903   */\n      mstore\n        /* \"#utility.yul\":7920:8051   */\n      tag_239\n        /* \"#utility.yul\":8046:8050   */\n      dup2\n        /* \"#utility.yul\":7920:8051   */\n      tag_204\n      jump\t// in\n    tag_239:\n        /* \"#utility.yul\":7912:8051   */\n      swap1\n      pop\n        /* \"#utility.yul\":7639:8058   */\n      swap2\n      swap1\n      pop\n      jump\t// out\n        /* \"#utility.yul\":8064:8483   */\n    tag_131:\n        /* \"#utility.yul\":8230:8234   */\n      0x00\n        /* \"#utility.yul\":8268:8270   */\n      0x20\n        /* \"#utility.yul\":8257:8266   */\n      dup3\n        /* \"#utility.yul\":8253:8271   */\n      add\n        /* \"#utility.yul\":8245:8271   */\n      swap1\n      pop\n        /* \"#utility.yul\":8317:8326   */\n      dup2\n        /* \"#utility.yul\":8311:8315   */\n      dup2\n        /* \"#utility.yul\":8307:8327   */\n      sub\n        /* \"#utility.yul\":8303:8304   */\n      0x00\n        /* \"#utility.yul\":8292:8301   */\n      dup4\n        /* \"#utility.yul\":8288:8305   */\n      add\n        /* \"#utility.yul\":8281:8328   */\n      mstore\n        /* \"#utility.yul\":8345:8476   */\n      tag_241\n        /* \"#utility.yul\":8471:8475   */\n      dup2\n        /* \"#utility.yul\":8345:8476   */\n      tag_209\n      jump\t// in\n    tag_241:\n        /* \"#utility.yul\":8337:8476   */\n      swap1\n      pop\n        /* \"#utility.yul\":8064:8483   */\n      swap2\n      swap1\n      pop\n      jump\t// out\n        /* \"#utility.yul\":8489:8908   */\n    tag_45:\n        /* \"#utility.yul\":8655:8659   */\n      0x00\n        /* \"#utility.yul\":8693:8695   */\n      0x20\n        /* \"#utility.yul\":8682:8691   */\n      dup3\n        /* \"#utility.yul\":8678:8696   */\n      add\n        /* \"#utility.yul\":8670:8696   */\n      swap1\n      pop\n        /* \"#utility.yul\":8742:8751   */\n      dup2\n        /* \"#utility.yul\":8736:8740   */\n      dup2\n        /* \"#utility.yul\":8732:8752   */\n      sub\n        /* \"#utility.yul\":8728:8729   */\n      0x00\n        /* \"#utility.yul\":8717:8726   */\n      dup4\n        /* \"#utility.yul\":8713:8730   */\n      add\n        /* \"#utility.yul\":8706:8753   */\n      mstore\n        /* \"#utility.yul\":8770:8901   */\n      tag_243\n        /* \"#utility.yul\":8896:8900   */\n      dup2\n        /* \"#utility.yul\":8770:8901   */\n      tag_214\n      jump\t// in\n    tag_243:\n        /* \"#utility.yul\":8762:8901   */\n      swap1\n      pop\n        /* \"#utility.yul\":8489:8908   */\n      swap2\n      swap1\n      pop\n      jump\t// out\n        /* \"#utility.yul\":8914:9333   */\n    tag_100:\n        /* \"#utility.yul\":9080:9084   */\n      0x00\n        /* \"#utility.yul\":9118:9120   */\n      0x20\n        /* \"#utility.yul\":9107:9116   */\n      dup3\n        /* \"#utility.yul\":9103:9121   */\n      add\n        /* \"#utility.yul\":9095:9121   */\n      swap1\n      pop\n        /* \"#utility.yul\":9167:9176   */\n      dup2\n        /* \"#utility.yul\":9161:9165   */\n      dup2\n        /* \"#utility.yul\":9157:9177   */\n      sub\n        /* \"#utility.yul\":9153:9154   */\n      0x00\n        /* \"#utility.yul\":9142:9151   */\n      dup4\n        /* \"#utility.yul\":9138:9155   */\n      add\n        /* \"#utility.yul\":9131:9178   */\n      mstore\n        /* \"#utility.yul\":9195:9326   */\n      tag_245\n        /* \"#utility.yul\":9321:9325   */\n      dup2\n        /* \"#utility.yul\":9195:9326   */\n      tag_219\n      jump\t// in\n    tag_245:\n        /* \"#utility.yul\":9187:9326   */\n      swap1\n      pop\n        /* \"#utility.yul\":8914:9333   */\n      swap2\n      swap1\n      pop\n      jump\t// out\n        /* \"#utility.yul\":9420:9589   */\n    tag_181:\n        /* \"#utility.yul\":9504:9515   */\n      0x00\n        /* \"#utility.yul\":9538:9544   */\n      dup3\n        /* \"#utility.yul\":9533:9536   */\n      dup3\n        /* \"#utility.yul\":9526:9545   */\n      mstore\n        /* \"#utility.yul\":9578:9582   */\n      0x20\n        /* \"#utility.yul\":9573:9576   */\n      dup3\n        /* \"#utility.yul\":9569:9583   */\n      add\n        /* \"#utility.yul\":9554:9583   */\n      swap1\n      pop\n        /* \"#utility.yul\":9420:9589   */\n      swap3\n      swap2\n      pop\n      pop\n      jump\t// out\n        /* \"#utility.yul\":9595:10120   */\n    tag_93:\n        /* \"#utility.yul\":9634:9637   */\n      0x00\n        /* \"#utility.yul\":9653:9672   */\n      tag_250\n        /* \"#utility.yul\":9670:9671   */\n      dup3\n        /* \"#utility.yul\":9653:9672   */\n      tag_251\n      jump\t// in\n    tag_250:\n        /* \"#utility.yul\":9648:9672   */\n      swap2\n      pop\n        /* \"#utility.yul\":9686:9705   */\n      tag_252\n        /* \"#utility.yul\":9703:9704   */\n      dup4\n        /* \"#utility.yul\":9686:9705   */\n      tag_251\n      jump\t// in\n    tag_252:\n        /* \"#utility.yul\":9681:9705   */\n      swap3\n      pop\n        /* \"#utility.yul\":9874:9875   */\n      dup2\n        /* \"#utility.yul\":9806:9872   */\n      0x7fffffffffffffffffffffffffffffffffffffffffffffffffffffffffffffff\n        /* \"#utility.yul\":9802:9876   */\n      sub\n        /* \"#utility.yul\":9799:9800   */\n      dup4\n        /* \"#utility.yul\":9795:9877   */\n      sgt\n        /* \"#utility.yul\":9790:9791   */\n      0x00\n        /* \"#utility.yul\":9787:9788   */\n      dup4\n        /* \"#utility.yul\":9783:9792   */\n      slt\n        /* \"#utility.yul\":9776:9793   */\n      iszero\n        /* \"#utility.yul\":9772:9878   */\n      and\n        /* \"#utility.yul\":9769:9901   */\n      iszero\n      tag_253\n      jumpi\n        /* \"#utility.yul\":9881:9899   */\n      tag_254\n      tag_255\n      jump\t// in\n    tag_254:\n        /* \"#utility.yul\":9769:9901   */\n    tag_253:\n        /* \"#utility.yul\":10061:10062   */\n      dup2\n        /* \"#utility.yul\":9993:10059   */\n      0x8000000000000000000000000000000000000000000000000000000000000000\n        /* \"#utility.yul\":9989:10063   */\n      sub\n        /* \"#utility.yul\":9986:9987   */\n      dup4\n        /* \"#utility.yul\":9982:10064   */\n      slt\n        /* \"#utility.yul\":9978:9979   */\n      0x00\n        /* \"#utility.yul\":9975:9976   */\n      dup4\n        /* \"#utility.yul\":9971:9980   */\n      slt\n        /* \"#utility.yul\":9967:10065   */\n      and\n        /* \"#utility.yul\":9964:10088   */\n      iszero\n      tag_256\n      jumpi\n        /* \"#utility.yul\":10068:10086   */\n      tag_257\n      tag_255\n      jump\t// in\n    tag_257:\n        /* \"#utility.yul\":9964:10088   */\n    tag_256:\n        /* \"#utility.yul\":10112:10113   */\n      dup3\n        /* \"#utility.yul\":10109:10110   */\n      dup3\n        /* \"#utility.yul\":10105:10114   */\n      add\n        /* \"#utility.yul\":10098:10114   */\n      swap1\n      pop\n        /* \"#utility.yul\":9595:10120   */\n      swap3\n      swap2\n      pop\n      pop\n      jump\t// out\n        /* \"#utility.yul\":10126:10511   */\n    tag_85:\n        /* \"#utility.yul\":10165:10166   */\n      0x00\n        /* \"#utility.yul\":10182:10201   */\n      tag_259\n        /* \"#utility.yul\":10199:10200   */\n      dup3\n        /* \"#utility.yul\":10182:10201   */\n      tag_251\n      jump\t// in\n    tag_259:\n        /* \"#utility.yul\":10177:10201   */\n      swap2\n      pop\n        /* \"#utility.yul\":10215:10234   */\n      tag_260\n        /* \"#utility.yul\":10232:10233   */\n      dup4\n        /* \"#utility.yul\":10215:10234   */\n      tag_251\n      jump\t// in\n    tag_260:\n        /* \"#utility.yul\":10210:10234   */\n      swap3\n      pop\n        /* \"#utility.yul\":10253:10254   */\n      dup3\n        /* \"#utility.yul\":10243:10278   */\n      tag_261\n      jumpi\n        /* \"#utility.yul\":10258:10276   */\n      tag_262\n      tag_263\n      jump\t// in\n    tag_262:\n        /* \"#utility.yul\":10243:10278   */\n    tag_261:\n        /* \"#utility.yul\":10444:10445   */\n      0x01\n        /* \"#utility.yul\":10441:10442   */\n      0x00\n        /* \"#utility.yul\":10437:10446   */\n      sub\n        /* \"#utility.yul\":10434:10435   */\n      dup4\n        /* \"#utility.yul\":10431:10447   */\n      eq\n        /* \"#utility.yul\":10350:10416   */\n      0x8000000000000000000000000000000000000000000000000000000000000000\n        /* \"#utility.yul\":10347:10348   */\n      dup4\n        /* \"#utility.yul\":10344:10417   */\n      eq\n        /* \"#utility.yul\":10327:10457   */\n      and\n        /* \"#utility.yul\":10324:10480   */\n      iszero\n      tag_264\n      jumpi\n        /* \"#utility.yul\":10460:10478   */\n      tag_265\n      tag_255\n      jump\t// in\n    tag_265:\n        /* \"#utility.yul\":10324:10480   */\n    tag_264:\n        /* \"#utility.yul\":10503:10504   */\n      dup3\n        /* \"#utility.yul\":10500:10501   */\n      dup3\n        /* \"#utility.yul\":10495:10505   */\n      sdiv\n        /* \"#utility.yul\":10490:10505   */\n      swap1\n      pop\n        /* \"#utility.yul\":10126:10511   */\n      swap3\n      swap2\n      pop\n      pop\n      jump\t// out\n        /* \"#utility.yul\":10517:11044   */\n    tag_124:\n        /* \"#utility.yul\":10556:10560   */\n      0x00\n        /* \"#utility.yul\":10576:10595   */\n      tag_267\n        /* \"#utility.yul\":10593:10594   */\n      dup3\n        /* \"#utility.yul\":10576:10595   */\n      tag_251\n      jump\t// in\n    tag_267:\n        /* \"#utility.yul\":10571:10595   */\n      swap2\n      pop\n        /* \"#utility.yul\":10609:10628   */\n      tag_268\n        /* \"#utility.yul\":10626:10627   */\n      dup4\n        /* \"#utility.yul\":10609:10628   */\n      tag_251\n      jump\t// in\n    tag_268:\n        /* \"#utility.yul\":10604:10628   */\n      swap3\n      pop\n        /* \"#utility.yul\":10798:10799   */\n      dup3\n        /* \"#utility.yul\":10730:10796   */\n      0x8000000000000000000000000000000000000000000000000000000000000000\n        /* \"#utility.yul\":10726:10800   */\n      add\n        /* \"#utility.yul\":10723:10724   */\n      dup3\n        /* \"#utility.yul\":10719:10801   */\n      slt\n        /* \"#utility.yul\":10714:10715   */\n      0x00\n        /* \"#utility.yul\":10711:10712   */\n      dup5\n        /* \"#utility.yul\":10707:10716   */\n      slt\n        /* \"#utility.yul\":10700:10717   */\n      iszero\n        /* \"#utility.yul\":10696:10802   */\n      and\n        /* \"#utility.yul\":10693:10825   */\n      iszero\n      tag_269\n      jumpi\n        /* \"#utility.yul\":10805:10823   */\n      tag_270\n      tag_255\n      jump\t// in\n    tag_270:\n        /* \"#utility.yul\":10693:10825   */\n    tag_269:\n        /* \"#utility.yul\":10984:10985   */\n      dup3\n        /* \"#utility.yul\":10916:10982   */\n      0x7fffffffffffffffffffffffffffffffffffffffffffffffffffffffffffffff\n        /* \"#utility.yul\":10912:10986   */\n      add\n        /* \"#utility.yul\":10909:10910   */\n      dup3\n        /* \"#utility.yul\":10905:10987   */\n      sgt\n        /* \"#utility.yul\":10901:10902   */\n      0x00\n        /* \"#utility.yul\":10898:10899   */\n      dup5\n        /* \"#utility.yul\":10894:10903   */\n      slt\n        /* \"#utility.yul\":10890:10988   */\n      and\n        /* \"#utility.yul\":10887:11011   */\n      iszero\n      tag_271\n      jumpi\n        /* \"#utility.yul\":10991:11009   */\n      tag_272\n      tag_255\n      jump\t// in\n    tag_272:\n        /* \"#utility.yul\":10887:11011   */\n    tag_271:\n        /* \"#utility.yul\":11036:11037   */\n      dup3\n        /* \"#utility.yul\":11033:11034   */\n      dup3\n        /* \"#utility.yul\":11029:11038   */\n      sub\n        /* \"#utility.yul\":11021:11038   */\n      swap1\n      pop\n        /* \"#utility.yul\":10517:11044   */\n      swap3\n      swap2\n      pop\n      pop\n      jump\t// out\n        /* \"#utility.yul\":11050:11146   */\n    tag_173:\n        /* \"#utility.yul\":11087:11094   */\n      0x00\n        /* \"#utility.yul\":11116:11140   */\n      tag_274\n        /* \"#utility.yul\":11134:11139   */\n      dup3\n        /* \"#utility.yul\":11116:11140   */\n      tag_275\n      jump\t// in\n    tag_274:\n        /* \"#utility.yul\":11105:11140   */\n      swap1\n      pop\n        /* \"#utility.yul\":11050:11146   */\n      swap2\n      swap1\n      pop\n      jump\t// out\n        /* \"#utility.yul\":11152:11242   */\n    tag_177:\n        /* \"#utility.yul\":11186:11193   */\n      0x00\n        /* \"#utility.yul\":11229:11234   */\n      dup2\n        /* \"#utility.yul\":11222:11235   */\n      iszero\n        /* \"#utility.yul\":11215:11236   */\n      iszero\n        /* \"#utility.yul\":11204:11236   */\n      swap1\n      pop\n        /* \"#utility.yul\":11152:11242   */\n      swap2\n      swap1\n      pop\n      jump\t// out\n        /* \"#utility.yul\":11248:11324   */\n    tag_251:\n        /* \"#utility.yul\":11284:11291   */\n      0x00\n        /* \"#utility.yul\":11313:11318   */\n      dup2\n        /* \"#utility.yul\":11302:11318   */\n      swap1\n      pop\n        /* \"#utility.yul\":11248:11324   */\n      swap2\n      swap1\n      pop\n      jump\t// out\n        /* \"#utility.yul\":11330:11456   */\n    tag_275:\n        /* \"#utility.yul\":11367:11374   */\n      0x00\n        /* \"#utility.yul\":11407:11449   */\n      0xffffffffffffffffffffffffffffffffffffffff\n        /* \"#utility.yul\":11400:11405   */\n      dup3\n        /* \"#utility.yul\":11396:11450   */\n      and\n        /* \"#utility.yul\":11385:11450   */\n      swap1\n      pop\n        /* \"#utility.yul\":11330:11456   */\n      swap2\n      swap1\n      pop\n      jump\t// out\n        /* \"#utility.yul\":11462:11642   */\n    tag_255:\n        /* \"#utility.yul\":11510:11587   */\n      0x4e487b7100000000000000000000000000000000000000000000000000000000\n        /* \"#utility.yul\":11507:11508   */\n      0x00\n        /* \"#utility.yul\":11500:11588   */\n      mstore\n        /* \"#utility.yul\":11607:11611   */\n      0x11\n        /* \"#utility.yul\":11604:11605   */\n      0x04\n        /* \"#utility.yul\":11597:11612   */\n      mstore\n        /* \"#utility.yul\":11631:11635   */\n      0x24\n        /* \"#utility.yul\":11628:11629   */\n      0x00\n        /* \"#utility.yul\":11621:11636   */\n      revert\n        /* \"#utility.yul\":11648:11828   */\n    tag_263:\n        /* \"#utility.yul\":11696:11773   */\n      0x4e487b7100000000000000000000000000000000000000000000000000000000\n        /* \"#utility.yul\":11693:11694   */\n      0x00\n        /* \"#utility.yul\":11686:11774   */\n      mstore\n        /* \"#utility.yul\":11793:11797   */\n      0x12\n        /* \"#utility.yul\":11790:11791   */\n      0x04\n        /* \"#utility.yul\":11783:11798   */\n      mstore\n        /* \"#utility.yul\":11817:11821   */\n      0x24\n        /* \"#utility.yul\":11814:11815   */\n      0x00\n        /* \"#utility.yul\":11807:11822   */\n      revert\n        /* \"#utility.yul\":11957:12074   */\n    tag_160:\n        /* \"#utility.yul\":12066:12067   */\n      0x00\n        /* \"#utility.yul\":12063:12064   */\n      dup1\n        /* \"#utility.yul\":12056:12068   */\n      revert\n        /* \"#utility.yul\":12080:12322   */\n    tag_183:\n        /* \"#utility.yul\":12220:12254   */\n      0x43616e6e6f742072656d6f766520616e20616464726573732074686174206973\n        /* \"#utility.yul\":12216:12217   */\n      0x00\n        /* \"#utility.yul\":12208:12214   */\n      dup3\n        /* \"#utility.yul\":12204:12218   */\n      add\n        /* \"#utility.yul\":12197:12255   */\n      mstore\n        /* \"#utility.yul\":12289:12314   */\n      0x206e6f7420616c72656164792061207665726966696572000000000000000000\n        /* \"#utility.yul\":12284:12286   */\n      0x20\n        /* \"#utility.yul\":12276:12282   */\n      dup3\n        /* \"#utility.yul\":12272:12287   */\n      add\n        /* \"#utility.yul\":12265:12315   */\n      mstore\n        /* \"#utility.yul\":12080:12322   */\n      pop\n      jump\t// out\n        /* \"#utility.yul\":12328:12498   */\n    tag_188:\n        /* \"#utility.yul\":12468:12490   */\n      0x596f7520617265206e6f7420616e2061646d696e000000000000000000000000\n        /* \"#utility.yul\":12464:12465   */\n      0x00\n        /* \"#utility.yul\":12456:12462   */\n      dup3\n        /* \"#utility.yul\":12452:12466   */\n      add\n        /* \"#utility.yul\":12445:12491   */\n      mstore\n        /* \"#utility.yul\":12328:12498   */\n      pop\n      jump\t// out\n        /* \"#utility.yul\":12504:12724   */\n    tag_193:\n        /* \"#utility.yul\":12644:12678   */\n      0x546869732061646d696e2068617320616c7265616479206265656e2061646465\n        /* \"#utility.yul\":12640:12641   */\n      0x00\n        /* \"#utility.yul\":12632:12638   */\n      dup3\n        /* \"#utility.yul\":12628:12642   */\n      add\n        /* \"#utility.yul\":12621:12679   */\n      mstore\n        /* \"#utility.yul\":12713:12716   */\n      0x6400000000000000000000000000000000000000000000000000000000000000\n        /* \"#utility.yul\":12708:12710   */\n      0x20\n        /* \"#utility.yul\":12700:12706   */\n      dup3\n        /* \"#utility.yul\":12696:12711   */\n      add\n        /* \"#utility.yul\":12689:12717   */\n      mstore\n        /* \"#utility.yul\":12504:12724   */\n      pop\n      jump\t// out\n        /* \"#utility.yul\":12730:12910   */\n    tag_198:\n        /* \"#utility.yul\":12870:12902   */\n      0x43616e6e6f742076657269667920746865207a65726f20616464726573730000\n        /* \"#utility.yul\":12866:12867   */\n      0x00\n        /* \"#utility.yul\":12858:12864   */\n      dup3\n        /* \"#utility.yul\":12854:12868   */\n      add\n        /* \"#utility.yul\":12847:12903   */\n      mstore\n        /* \"#utility.yul\":12730:12910   */\n      pop\n      jump\t// out\n        /* \"#utility.yul\":12916:13096   */\n    tag_203:\n        /* \"#utility.yul\":13056:13088   */\n      0x4164647265737320697320616c72656164792061207665726966696665720000\n        /* \"#utility.yul\":13052:13053   */\n      0x00\n        /* \"#utility.yul\":13044:13050   */\n      dup3\n        /* \"#utility.yul\":13040:13054   */\n      add\n        /* \"#utility.yul\":13033:13089   */\n      mstore\n        /* \"#utility.yul\":12916:13096   */\n      pop\n      jump\t// out\n        /* \"#utility.yul\":13102:13279   */\n    tag_208:\n        /* \"#utility.yul\":13242:13271   */\n      0x4164647265737320697320616c72656164792076657269666965640000000000\n        /* \"#utility.yul\":13238:13239   */\n      0x00\n        /* \"#utility.yul\":13230:13236   */\n      dup3\n        /* \"#utility.yul\":13226:13240   */\n      add\n        /* \"#utility.yul\":13219:13272   */\n      mstore\n        /* \"#utility.yul\":13102:13279   */\n      pop\n      jump\t// out\n        /* \"#utility.yul\":13285:13505   */\n    tag_213:\n        /* \"#utility.yul\":13425:13459   */\n      0x5a65726f20616464726573732063616e6e6f7420626520612076657269666965\n        /* \"#utility.yul\":13421:13422   */\n      0x00\n        /* \"#utility.yul\":13413:13419   */\n      dup3\n        /* \"#utility.yul\":13409:13423   */\n      add\n        /* \"#utility.yul\":13402:13460   */\n      mstore\n        /* \"#utility.yul\":13494:13497   */\n      0x7200000000000000000000000000000000000000000000000000000000000000\n        /* \"#utility.yul\":13489:13491   */\n      0x20\n        /* \"#utility.yul\":13481:13487   */\n      dup3\n        /* \"#utility.yul\":13477:13492   */\n      add\n        /* \"#utility.yul\":13470:13498   */\n      mstore\n        /* \"#utility.yul\":13285:13505   */\n      pop\n      jump\t// out\n        /* \"#utility.yul\":13511:13683   */\n    tag_218:\n        /* \"#utility.yul\":13651:13675   */\n      0x596f7520617265206e6f74206120766572696669657200000000000000000000\n        /* \"#utility.yul\":13647:13648   */\n      0x00\n        /* \"#utility.yul\":13639:13645   */\n      dup3\n        /* \"#utility.yul\":13635:13649   */\n      add\n        /* \"#utility.yul\":13628:13676   */\n      mstore\n        /* \"#utility.yul\":13511:13683   */\n      pop\n      jump\t// out\n        /* \"#utility.yul\":13689:13921   */\n    tag_223:\n        /* \"#utility.yul\":13829:13863   */\n      0x43616e27742072656d6f766520616e2061646472657373207768696368206973\n        /* \"#utility.yul\":13825:13826   */\n      0x00\n        /* \"#utility.yul\":13817:13823   */\n      dup3\n        /* \"#utility.yul\":13813:13827   */\n      add\n        /* \"#utility.yul\":13806:13864   */\n      mstore\n        /* \"#utility.yul\":13898:13913   */\n      0x206e6f7420616e2061646d696e00000000000000000000000000000000000000\n        /* \"#utility.yul\":13893:13895   */\n      0x20\n        /* \"#utility.yul\":13885:13891   */\n      dup3\n        /* \"#utility.yul\":13881:13896   */\n      add\n        /* \"#utility.yul\":13874:13914   */\n      mstore\n        /* \"#utility.yul\":13689:13921   */\n      pop\n      jump\t// out\n        /* \"#utility.yul\":13927:14049   */\n    tag_148:\n        /* \"#utility.yul\":14000:14024   */\n      tag_294\n        /* \"#utility.yul\":14018:14023   */\n      dup2\n        /* \"#utility.yul\":14000:14024   */\n      tag_173\n      jump\t// in\n    tag_294:\n        /* \"#utility.yul\":13993:13998   */\n      dup2\n        /* \"#utility.yul\":13990:14025   */\n      eq\n        /* \"#utility.yul\":13980:14043   */\n      tag_295\n      jumpi\n        /* \"#utility.yul\":14039:14040   */\n      0x00\n        /* \"#utility.yul\":14036:14037   */\n      dup1\n        /* \"#utility.yul\":14029:14041   */\n      revert\n        /* \"#utility.yul\":13980:14043   */\n    tag_295:\n        /* \"#utility.yul\":13927:14049   */\n      pop\n      jump\t// out\n        /* \"#utility.yul\":14055:14171   */\n    tag_152:\n        /* \"#utility.yul\":14125:14146   */\n      tag_297\n        /* \"#utility.yul\":14140:14145   */\n      dup2\n        /* \"#utility.yul\":14125:14146   */\n      tag_177\n      jump\t// in\n    tag_297:\n        /* \"#utility.yul\":14118:14123   */\n      dup2\n        /* \"#utility.yul\":14115:14147   */\n      eq\n        /* \"#utility.yul\":14105:14165   */\n      tag_298\n      jumpi\n        /* \"#utility.yul\":14161:14162   */\n      0x00\n        /* \"#utility.yul\":14158:14159   */\n      dup1\n        /* \"#utility.yul\":14151:14163   */\n      revert\n        /* \"#utility.yul\":14105:14165   */\n    tag_298:\n        /* \"#utility.yul\":14055:14171   */\n      pop\n      jump\t// out\n        /* \"#utility.yul\":14177:14297   */\n    tag_156:\n        /* \"#utility.yul\":14249:14272   */\n      tag_300\n        /* \"#utility.yul\":14266:14271   */\n      dup2\n        /* \"#utility.yul\":14249:14272   */\n      tag_251\n      jump\t// in\n    tag_300:\n        /* \"#utility.yul\":14242:14247   */\n      dup2\n        /* \"#utility.yul\":14239:14273   */\n      eq\n        /* \"#utility.yul\":14229:14291   */\n      tag_301\n      jumpi\n        /* \"#utility.yul\":14287:14288   */\n      0x00\n        /* \"#utility.yul\":14284:14285   */\n      dup1\n        /* \"#utility.yul\":14277:14289   */\n      revert\n        /* \"#utility.yul\":14229:14291   */\n    tag_301:\n        /* \"#utility.yul\":14177:14297   */\n      pop\n      jump\t// out\n    stop\n\n    sub_0: assembly {\n            /* \"contracts/complex_verify.sol\":109:749  contract Election {... */\n          mstore(0x40, 0x80)\n            /* \"contracts/complex_verify.sol\":259:301  constructor() {... */\n          callvalue\n          dup1\n          iszero\n          tag_1\n          jumpi\n          0x00\n          dup1\n          revert\n        tag_1:\n          pop\n            /* \"contracts/complex_verify.sol\":290:294  true */\n          0x01\n            /* \"contracts/complex_verify.sol\":283:287  live */\n          0x00\n          dup1\n            /* \"contracts/complex_verify.sol\":283:294  live = true */\n          0x0100\n          exp\n          dup2\n          sload\n          dup2\n          0xff\n          mul\n          not\n          and\n          swap1\n          dup4\n          iszero\n          iszero\n          mul\n          or\n          swap1\n          sstore\n          pop\n            /* \"contracts/complex_verify.sol\":109:749  contract Election {... */\n          dataSize(sub_0)\n          dup1\n          dataOffset(sub_0)\n          0x00\n          codecopy\n          0x00\n          return\n        stop\n\n        sub_0: assembly {\n                /* \"contracts/complex_verify.sol\":109:749  contract Election {... */\n              mstore(0x40, 0x80)\n              callvalue\n              dup1\n              iszero\n              tag_1\n              jumpi\n              0x00\n              dup1\n              revert\n            tag_1:\n              pop\n              jumpi(tag_2, lt(calldatasize, 0x04))\n              shr(0xe0, calldataload(0x00))\n              dup1\n              0x09eef43e\n              eq\n              tag_3\n              jumpi\n              dup1\n              0x5cb7e8af\n              eq\n              tag_4\n              jumpi\n              dup1\n              0x69596d70\n              eq\n              tag_5\n              jumpi\n              dup1\n              0x7727d3aa\n              eq\n              tag_6\n              jumpi\n              dup1\n              0x929155bf\n              eq\n              tag_7\n              jumpi\n              dup1\n              0x957aa58c\n              eq\n              tag_8\n              jumpi\n            tag_2:\n              0x00\n              dup1\n              revert\n                /* \"contracts/complex_verify.sol\":212:252  mapping(address => bool) public hasVoted */\n            tag_3:\n              tag_9\n              0x04\n              dup1\n              calldatasize\n              sub\n              dup2\n              add\n              swap1\n              tag_10\n              swap2\n              swap1\n              tag_11\n              jump\t// in\n            tag_10:\n              tag_12\n              jump\t// in\n            tag_9:\n              mload(0x40)\n              tag_13\n              swap2\n              swap1\n              tag_14\n              jump\t// in\n            tag_13:\n              mload(0x40)\n              dup1\n              swap2\n              sub\n              swap1\n              return\n                /* \"contracts/complex_verify.sol\":182:206  int public votesToRemove */\n            tag_4:\n              tag_15\n              tag_16\n              jump\t// in\n            tag_15:\n              mload(0x40)\n              tag_17\n              swap2\n              swap1\n              tag_18\n              jump\t// in\n            tag_17:\n              mload(0x40)\n              dup1\n              swap2\n              sub\n              swap1\n              return\n                /* \"contracts/complex_verify.sol\":468:601  function voteToAdd(address adminAddr) notVoted(adminAddr) public {... */\n            tag_5:\n              tag_19\n              0x04\n              dup1\n              calldatasize\n              sub\n              dup2\n              add\n              swap1\n              tag_20\n              swap2\n              swap1\n              tag_11\n              jump\t// in\n            tag_20:\n              tag_21\n              jump\t// in\n            tag_19:\n              stop\n                /* \"contracts/complex_verify.sol\":607:746  function voteToRemove(address adminAddr) notVoted(adminAddr) public {... */\n            tag_6:\n              tag_22\n              0x04\n              dup1\n              calldatasize\n              sub\n              dup2\n              add\n              swap1\n              tag_23\n              swap2\n              swap1\n              tag_11\n              jump\t// in\n            tag_23:\n              tag_24\n              jump\t// in\n            tag_22:\n              stop\n                /* \"contracts/complex_verify.sol\":155:176  int public votesToAdd */\n            tag_7:\n              tag_25\n              tag_26\n              jump\t// in\n            tag_25:\n              mload(0x40)\n              tag_27\n              swap2\n              swap1\n              tag_18\n              jump\t// in\n            tag_27:\n              mload(0x40)\n              dup1\n              swap2\n              sub\n              swap1\n              return\n                /* \"contracts/complex_verify.sol\":133:149  bool public live */\n            tag_8:\n              tag_28\n              tag_29\n              jump\t// in\n            tag_28:\n              mload(0x40)\n              tag_30\n              swap2\n              swap1\n              tag_14\n              jump\t// in\n            tag_30:\n              mload(0x40)\n              dup1\n              swap2\n              sub\n              swap1\n              return\n                /* \"contracts/complex_verify.sol\":212:252  mapping(address => bool) public hasVoted */\n            tag_12:\n              mstore(0x20, 0x03)\n              dup1\n              0x00\n              mstore\n              keccak256(0x00, 0x40)\n              0x00\n              swap2\n              pop\n              sload\n              swap1\n              0x0100\n              exp\n              swap1\n              div\n              0xff\n              and\n              dup2\n              jump\t// out\n                /* \"contracts/complex_verify.sol\":182:206  int public votesToRemove */\n            tag_16:\n              sload(0x02)\n              dup2\n              jump\t// out\n                /* \"contracts/complex_verify.sol\":468:601  function voteToAdd(address adminAddr) notVoted(adminAddr) public {... */\n            tag_21:\n                /* \"contracts/complex_verify.sol\":515:524  adminAddr */\n              dup1\n                /* \"contracts/complex_verify.sol\":388:393  false */\n              0x00\n                /* \"contracts/complex_verify.sol\":370:393  hasVoted[addr] == false */\n              iszero\n              iszero\n                /* \"contracts/complex_verify.sol\":370:378  hasVoted */\n              0x03\n                /* \"contracts/complex_verify.sol\":370:384  hasVoted[addr] */\n              0x00\n                /* \"contracts/complex_verify.sol\":379:383  addr */\n              dup4\n                /* \"contracts/complex_verify.sol\":370:384  hasVoted[addr] */\n              0xffffffffffffffffffffffffffffffffffffffff\n              and\n              0xffffffffffffffffffffffffffffffffffffffff\n              and\n              dup2\n              mstore\n              0x20\n              add\n              swap1\n              dup2\n              mstore\n              0x20\n              add\n              0x00\n              keccak256\n              0x00\n              swap1\n              sload\n              swap1\n              0x0100\n              exp\n              swap1\n              div\n              0xff\n              and\n                /* \"contracts/complex_verify.sol\":370:393  hasVoted[addr] == false */\n              iszero\n              iszero\n              eq\n                /* \"contracts/complex_verify.sol\":349:444  require(... */\n              tag_32\n              jumpi\n              mload(0x40)\n              0x08c379a000000000000000000000000000000000000000000000000000000000\n              dup2\n              mstore\n              0x04\n              add\n              tag_33\n              swap1\n              tag_34\n              jump\t// in\n            tag_33:\n              mload(0x40)\n              dup1\n              swap2\n              sub\n              swap1\n              revert\n            tag_32:\n                /* \"contracts/complex_verify.sol\":557:558  1 */\n              0x01\n                /* \"contracts/complex_verify.sol\":543:553  votesToAdd */\n              dup1\n              0x00\n                /* \"contracts/complex_verify.sol\":543:558  votesToAdd += 1 */\n              dup3\n              dup3\n              sload\n              tag_36\n              swap2\n              swap1\n              tag_37\n              jump\t// in\n            tag_36:\n              swap3\n              pop\n              pop\n              dup2\n              swap1\n              sstore\n              pop\n                /* \"contracts/complex_verify.sol\":590:594  true */\n              0x01\n                /* \"contracts/complex_verify.sol\":568:576  hasVoted */\n              0x03\n                /* \"contracts/complex_verify.sol\":568:587  hasVoted[adminAddr] */\n              0x00\n                /* \"contracts/complex_verify.sol\":577:586  adminAddr */\n              dup5\n                /* \"contracts/complex_verify.sol\":568:587  hasVoted[adminAddr] */\n              0xffffffffffffffffffffffffffffffffffffffff\n              and\n              0xffffffffffffffffffffffffffffffffffffffff\n              and\n              dup2\n              mstore\n              0x20\n              add\n              swap1\n              dup2\n              mstore\n              0x20\n              add\n              0x00\n              keccak256\n              0x00\n                /* \"contracts/complex_verify.sol\":568:594  hasVoted[adminAddr] = true */\n              0x0100\n              exp\n              dup2\n              sload\n              dup2\n              0xff\n              mul\n              not\n              and\n              swap1\n              dup4\n              iszero\n              iszero\n              mul\n              or\n              swap1\n              sstore\n              pop\n                /* \"contracts/complex_verify.sol\":468:601  function voteToAdd(address adminAddr) notVoted(adminAddr) public {... */\n              pop\n              pop\n              jump\t// out\n                /* \"contracts/complex_verify.sol\":607:746  function voteToRemove(address adminAddr) notVoted(adminAddr) public {... */\n            tag_24:\n                /* \"contracts/complex_verify.sol\":657:666  adminAddr */\n              dup1\n                /* \"contracts/complex_verify.sol\":388:393  false */\n              0x00\n                /* \"contracts/complex_verify.sol\":370:393  hasVoted[addr] == false */\n              iszero\n              iszero\n                /* \"contracts/complex_verify.sol\":370:378  hasVoted */\n              0x03\n                /* \"contracts/complex_verify.sol\":370:384  hasVoted[addr] */\n              0x00\n                /* \"contracts/complex_verify.sol\":379:383  addr */\n              dup4\n                /* \"contracts/complex_verify.sol\":370:384  hasVoted[addr] */\n              0xffffffffffffffffffffffffffffffffffffffff\n              and\n              0xffffffffffffffffffffffffffffffffffffffff\n              and\n              dup2\n              mstore\n              0x20\n              add\n              swap1\n              dup2\n              mstore\n              0x20\n              add\n              0x00\n              keccak256\n              0x00\n              swap1\n              sload\n              swap1\n              0x0100\n              exp\n              swap1\n              div\n              0xff\n              and\n                /* \"contracts/complex_verify.sol\":370:393  hasVoted[addr] == false */\n              iszero\n              iszero\n              eq\n                /* \"contracts/complex_verify.sol\":349:444  require(... */\n              tag_39\n              jumpi\n              mload(0x40)\n              0x08c379a000000000000000000000000000000000000000000000000000000000\n              dup2\n              mstore\n              0x04\n              add\n              tag_40\n              swap1\n              tag_34\n              jump\t// in\n            tag_40:\n              mload(0x40)\n              dup1\n              swap2\n              sub\n              swap1\n              revert\n            tag_39:\n                /* \"contracts/complex_verify.sol\":702:703  1 */\n              0x01\n                /* \"contracts/complex_verify.sol\":685:698  votesToRemove */\n              0x02\n              0x00\n                /* \"contracts/complex_verify.sol\":685:703  votesToRemove += 1 */\n              dup3\n              dup3\n              sload\n              tag_42\n              swap2\n              swap1\n              tag_37\n              jump\t// in\n            tag_42:\n              swap3\n              pop\n              pop\n              dup2\n              swap1\n              sstore\n              pop\n                /* \"contracts/complex_verify.sol\":735:739  true */\n              0x01\n                /* \"contracts/complex_verify.sol\":713:721  hasVoted */\n              0x03\n                /* \"contracts/complex_verify.sol\":713:732  hasVoted[adminAddr] */\n              0x00\n                /* \"contracts/complex_verify.sol\":722:731  adminAddr */\n              dup5\n                /* \"contracts/complex_verify.sol\":713:732  hasVoted[adminAddr] */\n              0xffffffffffffffffffffffffffffffffffffffff\n              and\n              0xffffffffffffffffffffffffffffffffffffffff\n              and\n              dup2\n              mstore\n              0x20\n              add\n              swap1\n              dup2\n              mstore\n              0x20\n              add\n              0x00\n              keccak256\n              0x00\n                /* \"contracts/complex_verify.sol\":713:739  hasVoted[adminAddr] = true */\n              0x0100\n              exp\n              dup2\n              sload\n              dup2\n              0xff\n              mul\n              not\n              and\n              swap1\n              dup4\n              iszero\n              iszero\n              mul\n              or\n              swap1\n              sstore\n              pop\n                /* \"contracts/complex_verify.sol\":607:746  function voteToRemove(address adminAddr) notVoted(adminAddr) public {... */\n              pop\n              pop\n              jump\t// out\n                /* \"contracts/complex_verify.sol\":155:176  int public votesToAdd */\n            tag_26:\n              sload(0x01)\n              dup2\n              jump\t// out\n                /* \"contracts/complex_verify.sol\":133:149  bool public live */\n            tag_29:\n              0x00\n              dup1\n              sload\n              swap1\n              0x0100\n              exp\n              swap1\n              div\n              0xff\n              and\n              dup2\n              jump\t// out\n                /* \"#utility.yul\":7:146   */\n            tag_44:\n                /* \"#utility.yul\":53:58   */\n              0x00\n                /* \"#utility.yul\":91:97   */\n              dup2\n                /* \"#utility.yul\":78:98   */\n              calldataload\n                /* \"#utility.yul\":69:98   */\n              swap1\n              pop\n                /* \"#utility.yul\":107:140   */\n              tag_46\n                /* \"#utility.yul\":134:139   */\n              dup2\n                /* \"#utility.yul\":107:140   */\n              tag_47\n              jump\t// in\n            tag_46:\n                /* \"#utility.yul\":7:146   */\n              swap3\n              swap2\n              pop\n              pop\n              jump\t// out\n                /* \"#utility.yul\":152:481   */\n            tag_11:\n                /* \"#utility.yul\":211:217   */\n              0x00\n                /* \"#utility.yul\":260:262   */\n              0x20\n                /* \"#utility.yul\":248:257   */\n              dup3\n                /* \"#utility.yul\":239:246   */\n              dup5\n                /* \"#utility.yul\":235:258   */\n              sub\n                /* \"#utility.yul\":231:263   */\n              slt\n                /* \"#utility.yul\":228:347   */\n              iszero\n              tag_49\n              jumpi\n                /* \"#utility.yul\":266:345   */\n              tag_50\n              tag_51\n              jump\t// in\n            tag_50:\n                /* \"#utility.yul\":228:347   */\n            tag_49:\n                /* \"#utility.yul\":386:387   */\n              0x00\n                /* \"#utility.yul\":411:464   */\n              tag_52\n                /* \"#utility.yul\":456:463   */\n              dup5\n                /* \"#utility.yul\":447:453   */\n              dup3\n                /* \"#utility.yul\":436:445   */\n              dup6\n                /* \"#utility.yul\":432:454   */\n              add\n                /* \"#utility.yul\":411:464   */\n              tag_44\n              jump\t// in\n            tag_52:\n                /* \"#utility.yul\":401:464   */\n              swap2\n              pop\n                /* \"#utility.yul\":357:474   */\n              pop\n                /* \"#utility.yul\":152:481   */\n              swap3\n              swap2\n              pop\n              pop\n              jump\t// out\n                /* \"#utility.yul\":487:596   */\n            tag_53:\n                /* \"#utility.yul\":568:589   */\n              tag_55\n                /* \"#utility.yul\":583:588   */\n              dup2\n                /* \"#utility.yul\":568:589   */\n              tag_56\n              jump\t// in\n            tag_55:\n                /* \"#utility.yul\":563:566   */\n              dup3\n                /* \"#utility.yul\":556:590   */\n              mstore\n                /* \"#utility.yul\":487:596   */\n              pop\n              pop\n              jump\t// out\n                /* \"#utility.yul\":602:717   */\n            tag_57:\n                /* \"#utility.yul\":687:710   */\n              tag_59\n                /* \"#utility.yul\":704:709   */\n              dup2\n                /* \"#utility.yul\":687:710   */\n              tag_60\n              jump\t// in\n            tag_59:\n                /* \"#utility.yul\":682:685   */\n              dup3\n                /* \"#utility.yul\":675:711   */\n              mstore\n                /* \"#utility.yul\":602:717   */\n              pop\n              pop\n              jump\t// out\n                /* \"#utility.yul\":723:1089   */\n            tag_61:\n                /* \"#utility.yul\":865:868   */\n              0x00\n                /* \"#utility.yul\":886:953   */\n              tag_63\n                /* \"#utility.yul\":950:952   */\n              0x19\n                /* \"#utility.yul\":945:948   */\n              dup4\n                /* \"#utility.yul\":886:953   */\n              tag_64\n              jump\t// in\n            tag_63:\n                /* \"#utility.yul\":879:953   */\n              swap2\n              pop\n                /* \"#utility.yul\":962:1055   */\n              tag_65\n                /* \"#utility.yul\":1051:1054   */\n              dup3\n                /* \"#utility.yul\":962:1055   */\n              tag_66\n              jump\t// in\n            tag_65:\n                /* \"#utility.yul\":1080:1082   */\n              0x20\n                /* \"#utility.yul\":1075:1078   */\n              dup3\n                /* \"#utility.yul\":1071:1083   */\n              add\n                /* \"#utility.yul\":1064:1083   */\n              swap1\n              pop\n                /* \"#utility.yul\":723:1089   */\n              swap2\n              swap1\n              pop\n              jump\t// out\n                /* \"#utility.yul\":1095:1305   */\n            tag_14:\n                /* \"#utility.yul\":1182:1186   */\n              0x00\n                /* \"#utility.yul\":1220:1222   */\n              0x20\n                /* \"#utility.yul\":1209:1218   */\n              dup3\n                /* \"#utility.yul\":1205:1223   */\n              add\n                /* \"#utility.yul\":1197:1223   */\n              swap1\n              pop\n                /* \"#utility.yul\":1233:1298   */\n              tag_68\n                /* \"#utility.yul\":1295:1296   */\n              0x00\n                /* \"#utility.yul\":1284:1293   */\n              dup4\n                /* \"#utility.yul\":1280:1297   */\n              add\n                /* \"#utility.yul\":1271:1277   */\n              dup5\n                /* \"#utility.yul\":1233:1298   */\n              tag_53\n              jump\t// in\n            tag_68:\n                /* \"#utility.yul\":1095:1305   */\n              swap3\n              swap2\n              pop\n              pop\n              jump\t// out\n                /* \"#utility.yul\":1311:1529   */\n            tag_18:\n                /* \"#utility.yul\":1402:1406   */\n              0x00\n                /* \"#utility.yul\":1440:1442   */\n              0x20\n                /* \"#utility.yul\":1429:1438   */\n              dup3\n                /* \"#utility.yul\":1425:1443   */\n              add\n                /* \"#utility.yul\":1417:1443   */\n              swap1\n              pop\n                /* \"#utility.yul\":1453:1522   */\n              tag_70\n                /* \"#utility.yul\":1519:1520   */\n              0x00\n                /* \"#utility.yul\":1508:1517   */\n              dup4\n                /* \"#utility.yul\":1504:1521   */\n              add\n                /* \"#utility.yul\":1495:1501   */\n              dup5\n                /* \"#utility.yul\":1453:1522   */\n              tag_57\n              jump\t// in\n            tag_70:\n                /* \"#utility.yul\":1311:1529   */\n              swap3\n              swap2\n              pop\n              pop\n              jump\t// out\n                /* \"#utility.yul\":1535:1954   */\n            tag_34:\n                /* \"#utility.yul\":1701:1705   */\n              0x00\n                /* \"#utility.yul\":1739:1741   */\n              0x20\n                /* \"#utility.yul\":1728:1737   */\n              dup3\n                /* \"#utility.yul\":1724:1742   */\n              add\n                /* \"#utility.yul\":1716:1742   */\n              swap1\n              pop\n                /* \"#utility.yul\":1788:1797   */\n              dup2\n                /* \"#utility.yul\":1782:1786   */\n              dup2\n                /* \"#utility.yul\":1778:1798   */\n              sub\n                /* \"#utility.yul\":1774:1775   */\n              0x00\n                /* \"#utility.yul\":1763:1772   */\n              dup4\n                /* \"#utility.yul\":1759:1776   */\n              add\n                /* \"#utility.yul\":1752:1799   */\n              mstore\n                /* \"#utility.yul\":1816:1947   */\n              tag_72\n                /* \"#utility.yul\":1942:1946   */\n              dup2\n                /* \"#utility.yul\":1816:1947   */\n              tag_61\n              jump\t// in\n            tag_72:\n                /* \"#utility.yul\":1808:1947   */\n              swap1\n              pop\n                /* \"#utility.yul\":1535:1954   */\n              swap2\n              swap1\n              pop\n              jump\t// out\n                /* \"#utility.yul\":2041:2210   */\n            tag_64:\n                /* \"#utility.yul\":2125:2136   */\n              0x00\n                /* \"#utility.yul\":2159:2165   */\n              dup3\n                /* \"#utility.yul\":2154:2157   */\n              dup3\n                /* \"#utility.yul\":2147:2166   */\n              mstore\n                /* \"#utility.yul\":2199:2203   */\n              0x20\n                /* \"#utility.yul\":2194:2197   */\n              dup3\n                /* \"#utility.yul\":2190:2204   */\n              add\n                /* \"#utility.yul\":2175:2204   */\n              swap1\n              pop\n                /* \"#utility.yul\":2041:2210   */\n              swap3\n              swap2\n              pop\n              pop\n              jump\t// out\n                /* \"#utility.yul\":2216:2741   */\n            tag_37:\n                /* \"#utility.yul\":2255:2258   */\n              0x00\n                /* \"#utility.yul\":2274:2293   */\n              tag_77\n                /* \"#utility.yul\":2291:2292   */\n              dup3\n                /* \"#utility.yul\":2274:2293   */\n              tag_60\n              jump\t// in\n            tag_77:\n                /* \"#utility.yul\":2269:2293   */\n              swap2\n              pop\n                /* \"#utility.yul\":2307:2326   */\n              tag_78\n                /* \"#utility.yul\":2324:2325   */\n              dup4\n                /* \"#utility.yul\":2307:2326   */\n              tag_60\n              jump\t// in\n            tag_78:\n                /* \"#utility.yul\":2302:2326   */\n              swap3\n              pop\n                /* \"#utility.yul\":2495:2496   */\n              dup2\n                /* \"#utility.yul\":2427:2493   */\n              0x7fffffffffffffffffffffffffffffffffffffffffffffffffffffffffffffff\n                /* \"#utility.yul\":2423:2497   */\n              sub\n                /* \"#utility.yul\":2420:2421   */\n              dup4\n                /* \"#utility.yul\":2416:2498   */\n              sgt\n                /* \"#utility.yul\":2411:2412   */\n              0x00\n                /* \"#utility.yul\":2408:2409   */\n              dup4\n                /* \"#utility.yul\":2404:2413   */\n              slt\n                /* \"#utility.yul\":2397:2414   */\n              iszero\n                /* \"#utility.yul\":2393:2499   */\n              and\n                /* \"#utility.yul\":2390:2522   */\n              iszero\n              tag_79\n              jumpi\n                /* \"#utility.yul\":2502:2520   */\n              tag_80\n              tag_81\n              jump\t// in\n            tag_80:\n                /* \"#utility.yul\":2390:2522   */\n            tag_79:\n                /* \"#utility.yul\":2682:2683   */\n              dup2\n                /* \"#utility.yul\":2614:2680   */\n              0x8000000000000000000000000000000000000000000000000000000000000000\n                /* \"#utility.yul\":2610:2684   */\n              sub\n                /* \"#utility.yul\":2607:2608   */\n              dup4\n                /* \"#utility.yul\":2603:2685   */\n              slt\n                /* \"#utility.yul\":2599:2600   */\n              0x00\n                /* \"#utility.yul\":2596:2597   */\n              dup4\n                /* \"#utility.yul\":2592:2601   */\n              slt\n                /* \"#utility.yul\":2588:2686   */\n              and\n                /* \"#utility.yul\":2585:2709   */\n              iszero\n              tag_82\n              jumpi\n                /* \"#utility.yul\":2689:2707   */\n              tag_83\n              tag_81\n              jump\t// in\n            tag_83:\n                /* \"#utility.yul\":2585:2709   */\n            tag_82:\n                /* \"#utility.yul\":2733:2734   */\n              dup3\n                /* \"#utility.yul\":2730:2731   */\n              dup3\n                /* \"#utility.yul\":2726:2735   */\n              add\n                /* \"#utility.yul\":2719:2735   */\n              swap1\n              pop\n                /* \"#utility.yul\":2216:2741   */\n              swap3\n              swap2\n              pop\n              pop\n              jump\t// out\n                /* \"#utility.yul\":2747:2843   */\n            tag_84:\n                /* \"#utility.yul\":2784:2791   */\n              0x00\n                /* \"#utility.yul\":2813:2837   */\n              tag_86\n                /* \"#utility.yul\":2831:2836   */\n              dup3\n                /* \"#utility.yul\":2813:2837   */\n              tag_87\n              jump\t// in\n            tag_86:\n                /* \"#utility.yul\":2802:2837   */\n              swap1\n              pop\n                /* \"#utility.yul\":2747:2843   */\n              swap2\n              swap1\n              pop\n              jump\t// out\n                /* \"#utility.yul\":2849:2939   */\n            tag_56:\n                /* \"#utility.yul\":2883:2890   */\n              0x00\n                /* \"#utility.yul\":2926:2931   */\n              dup2\n                /* \"#utility.yul\":2919:2932   */\n              iszero\n                /* \"#utility.yul\":2912:2933   */\n              iszero\n                /* \"#utility.yul\":2901:2933   */\n              swap1\n              pop\n                /* \"#utility.yul\":2849:2939   */\n              swap2\n              swap1\n              pop\n              jump\t// out\n                /* \"#utility.yul\":2945:3021   */\n            tag_60:\n                /* \"#utility.yul\":2981:2988   */\n              0x00\n                /* \"#utility.yul\":3010:3015   */\n              dup2\n                /* \"#utility.yul\":2999:3015   */\n              swap1\n              pop\n                /* \"#utility.yul\":2945:3021   */\n              swap2\n              swap1\n              pop\n              jump\t// out\n                /* \"#utility.yul\":3027:3153   */\n            tag_87:\n                /* \"#utility.yul\":3064:3071   */\n              0x00\n                /* \"#utility.yul\":3104:3146   */\n              0xffffffffffffffffffffffffffffffffffffffff\n                /* \"#utility.yul\":3097:3102   */\n              dup3\n                /* \"#utility.yul\":3093:3147   */\n              and\n                /* \"#utility.yul\":3082:3147   */\n              swap1\n              pop\n                /* \"#utility.yul\":3027:3153   */\n              swap2\n              swap1\n              pop\n              jump\t// out\n                /* \"#utility.yul\":3159:3339   */\n            tag_81:\n                /* \"#utility.yul\":3207:3284   */\n              0x4e487b7100000000000000000000000000000000000000000000000000000000\n                /* \"#utility.yul\":3204:3205   */\n              0x00\n                /* \"#utility.yul\":3197:3285   */\n              mstore\n                /* \"#utility.yul\":3304:3308   */\n              0x11\n                /* \"#utility.yul\":3301:3302   */\n              0x04\n                /* \"#utility.yul\":3294:3309   */\n              mstore\n                /* \"#utility.yul\":3328:3332   */\n              0x24\n                /* \"#utility.yul\":3325:3326   */\n              0x00\n                /* \"#utility.yul\":3318:3333   */\n              revert\n                /* \"#utility.yul\":3468:3585   */\n            tag_51:\n                /* \"#utility.yul\":3577:3578   */\n              0x00\n                /* \"#utility.yul\":3574:3575   */\n              dup1\n                /* \"#utility.yul\":3567:3579   */\n              revert\n                /* \"#utility.yul\":3591:3766   */\n            tag_66:\n                /* \"#utility.yul\":3731:3758   */\n              0x416464726573732068617320616c726561647920766f74656400000000000000\n                /* \"#utility.yul\":3727:3728   */\n              0x00\n                /* \"#utility.yul\":3719:3725   */\n              dup3\n                /* \"#utility.yul\":3715:3729   */\n              add\n                /* \"#utility.yul\":3708:3759   */\n              mstore\n                /* \"#utility.yul\":3591:3766   */\n              pop\n              jump\t// out\n                /* \"#utility.yul\":3772:3894   */\n            tag_47:\n                /* \"#utility.yul\":3845:3869   */\n              tag_97\n                /* \"#utility.yul\":3863:3868   */\n              dup2\n                /* \"#utility.yul\":3845:3869   */\n              tag_84\n              jump\t// in\n            tag_97:\n                /* \"#utility.yul\":3838:3843   */\n              dup2\n                /* \"#utility.yul\":3835:3870   */\n              eq\n                /* \"#utility.yul\":3825:3888   */\n              tag_98\n              jumpi\n                /* \"#utility.yul\":3884:3885   */\n              0x00\n                /* \"#utility.yul\":3881:3882   */\n              dup1\n                /* \"#utility.yul\":3874:3886   */\n              revert\n                /* \"#utility.yul\":3825:3888   */\n            tag_98:\n                /* \"#utility.yul\":3772:3894   */\n              pop\n              jump\t// out\n\n            auxdata: 0xa2646970667358221220588bbc2d1855b0b3605409a7d2ee42eaac5d24cf37b15cab14ae9487aad6486e64736f6c63430008070033\n        }\n    }\n\n    auxdata: 0xa2646970667358221220f5a7180010b8c78c55ef94ad6dbb4ed58ffdcecc522bd6cf577dd101ebd4405c64736f6c63430008070033\n}\n",
				"bytecode": {
					"linkReferences": {},
					"object": "60806040523480156200001157600080fd5b50604051620025a6380380620025a68339818101604052810190620000379190620000f8565b6000806000806101000a81548173ffffffffffffffffffffffffffffffffffffffff021916908373ffffffffffffffffffffffffffffffffffffffff160217905550506001600460008373ffffffffffffffffffffffffffffffffffffffff1673ffffffffffffffffffffffffffffffffffffffff16815260200190815260200160002060006101000a81548160ff0219169083151502179055506001600381905550506200017d565b600081519050620000f28162000163565b92915050565b6000602082840312156200011157620001106200015e565b5b60006200012184828501620000e1565b91505092915050565b600062000137826200013e565b9050919050565b600073ffffffffffffffffffffffffffffffffffffffff82169050919050565b600080fd5b6200016e816200012a565b81146200017a57600080fd5b50565b612419806200018d6000396000f3fe608060405234801561001057600080fd5b50600436106100885760003560e01c80637727d3aa1161005b5780637727d3aa146101115780639000b3d61461012d578063b9209e3314610149578063ca2dfd0a1461017957610088565b8063331052181461008d5780634487b392146100bd5780635dc84e32146100d957806369596d70146100f5575b600080fd5b6100a760048036038101906100a291906115ee565b610195565b6040516100b491906117e9565b60405180910390f35b6100d760048036038101906100d291906115ee565b610203565b005b6100f360048036038101906100ee91906115ee565b610343565b005b61010f600480360381019061010a91906115ee565b61058e565b005b61012b600480360381019061012691906115ee565b610ba8565b005b610147600480360381019061014291906115ee565b6111c1565b005b610163600480360381019061015e91906115ee565b6113b3565b60405161017091906117e9565b60405180910390f35b610193600480360381019061018e91906115ee565b611421565b005b600060011515600260008473ffffffffffffffffffffffffffffffffffffffff1673ffffffffffffffffffffffffffffffffffffffff16815260200190815260200160002060009054906101000a900460ff16151514156101f957600190506101fe565b600090505b919050565b60011515600260003373ffffffffffffffffffffffffffffffffffffffff1673ffffffffffffffffffffffffffffffffffffffff16815260200190815260200160002060009054906101000a900460ff16151514610296576040517f08c379a000000000000000000000000000000000000000000000000000000000815260040161028d906118e4565b60405180910390fd5b60001515600160008373ffffffffffffffffffffffffffffffffffffffff1673ffffffffffffffffffffffffffffffffffffffff16815260200190815260200160002060009054906101000a905050503373ffffffffffffffffffffffffffffffffffffffff168173ffffffffffffffffffffffffffffffffffffffff167f2679e492f4112eee8e3f6dfd8463065d662332a578753f77ce4c3d76c98271fb60405160405180910390a350565b60011515600260003373ffffffffffffffffffffffffffffffffffffffff1673ffffffffffffffffffffffffffffffffffffffff16815260200190815260200160002060009054906101000a900460ff161515146103d6576040517f08c379a00000000000000000000000000000000000000000000000000000000081526004016103cd906118e4565b60405180910390fd5b600073ffffffffffffffffffffffffffffffffffffffff168173ffffffffffffffffffffffffffffffffffffffff161415610446576040517f08c379a000000000000000000000000000000000000000000000000000000000815260040161043d90611864565b60405180910390fd5b60011515600160008373ffffffffffffffffffffffffffffffffffffffff1673ffffffffffffffffffffffffffffffffffffffff16815260200190815260200160002060009054906101000a900460ff16151514156104da576040517f08c379a00000000000000000000000000000000000000000000000000000000081526004016104d1906118a4565b60405180910390fd5b60018060008373ffffffffffffffffffffffffffffffffffffffff1673ffffffffffffffffffffffffffffffffffffffff16815260200190815260200160002060006101000a81548160ff0219169083151502179055503373ffffffffffffffffffffffffffffffffffffffff168173ffffffffffffffffffffffffffffffffffffffff167f2679e492f4112eee8e3f6dfd8463065d662332a578753f77ce4c3d76c98271fb60405160405180910390a350565b60011515600460003373ffffffffffffffffffffffffffffffffffffffff1673ffffffffffffffffffffffffffffffffffffffff16815260200190815260200160002060009054906101000a900460ff16151514610621576040517f08c379a000000000000000000000000000000000000000000000000000000000815260040161061890611824565b60405180910390fd5b60011515600460008373ffffffffffffffffffffffffffffffffffffffff1673ffffffffffffffffffffffffffffffffffffffff16815260200190815260200160002060009054906101000a900460ff16151514156106b5576040517f08c379a00000000000000000000000000000000000000000000000000000000081526004016106ac90611844565b60405180910390fd5b60001515600560008373ffffffffffffffffffffffffffffffffffffffff1673ffffffffffffffffffffffffffffffffffffffff16815260200190815260200160002060009054906101000a900473ffffffffffffffffffffffffffffffffffffffff1673ffffffffffffffffffffffffffffffffffffffff1663957aa58c6040518163ffffffff1660e01b815260040160206040518083038186803b15801561075e57600080fd5b505afa158015610772573d6000803e3d6000fd5b505050506040513d601f19601f82011682018060405250810190610796919061161b565b15151415610913576040516107aa906115a2565b604051809103906000f0801580156107c6573d6000803e3d6000fd5b50600560008373ffffffffffffffffffffffffffffffffffffffff1673ffffffffffffffffffffffffffffffffffffffff16815260200190815260200160002060006101000a81548173ffffffffffffffffffffffffffffffffffffffff021916908373ffffffffffffffffffffffffffffffffffffffff160217905550600560008273ffffffffffffffffffffffffffffffffffffffff1673ffffffffffffffffffffffffffffffffffffffff16815260200190815260200160002060009054906101000a900473ffffffffffffffffffffffffffffffffffffffff1673ffffffffffffffffffffffffffffffffffffffff166369596d70336040518263ffffffff1660e01b81526004016108dc91906117ce565b600060405180830381600087803b1580156108f657600080fd5b505af115801561090a573d6000803e3d6000fd5b505050506109de565b600560008273ffffffffffffffffffffffffffffffffffffffff1673ffffffffffffffffffffffffffffffffffffffff16815260200190815260200160002060009054906101000a900473ffffffffffffffffffffffffffffffffffffffff1673ffffffffffffffffffffffffffffffffffffffff166369596d70336040518263ffffffff1660e01b81526004016109ab91906117ce565b600060405180830381600087803b1580156109c557600080fd5b505af11580156109d9573d6000803e3d6000fd5b505050505b60026003546109ed91906119c9565b600560008373ffffffffffffffffffffffffffffffffffffffff1673ffffffffffffffffffffffffffffffffffffffff16815260200190815260200160002060009054906101000a900473ffffffffffffffffffffffffffffffffffffffff1673ffffffffffffffffffffffffffffffffffffffff1663929155bf6040518163ffffffff1660e01b815260040160206040518083038186803b158015610a9257600080fd5b505afa158015610aa6573d6000803e3d6000fd5b505050506040513d601f19601f82011682018060405250810190610aca9190611648565b1315610ba5576001600460008373ffffffffffffffffffffffffffffffffffffffff1673ffffffffffffffffffffffffffffffffffffffff16815260200190815260200160002060006101000a81548160ff021916908315150217905550600160036000828254610b3b9190611935565b92505081905550600560008273ffffffffffffffffffffffffffffffffffffffff1673ffffffffffffffffffffffffffffffffffffffff16815260200190815260200160002060006101000a81549073ffffffffffffffffffffffffffffffffffffffff02191690555b50565b60011515600460003373ffffffffffffffffffffffffffffffffffffffff1673ffffffffffffffffffffffffffffffffffffffff16815260200190815260200160002060009054906101000a900460ff16151514610c3b576040517f08c379a0000000000000000000000000000000000000000000000000000000008152600401610c3290611824565b60405180910390fd5b60011515600460008373ffffffffffffffffffffffffffffffffffffffff1673ffffffffffffffffffffffffffffffffffffffff16815260200190815260200160002060009054906101000a900460ff16151514610cce576040517f08c379a0000000000000000000000000000000000000000000000000000000008152600401610cc590611904565b60405180910390fd5b60001515600560008373ffffffffffffffffffffffffffffffffffffffff1673ffffffffffffffffffffffffffffffffffffffff16815260200190815260200160002060009054906101000a900473ffffffffffffffffffffffffffffffffffffffff1673ffffffffffffffffffffffffffffffffffffffff1663957aa58c6040518163ffffffff1660e01b815260040160206040518083038186803b158015610d7757600080fd5b505afa158015610d8b573d6000803e3d6000fd5b505050506040513d601f19601f82011682018060405250810190610daf919061161b565b15151415610f2c57604051610dc3906115a2565b604051809103906000f080158015610ddf573d6000803e3d6000fd5b50600560008373ffffffffffffffffffffffffffffffffffffffff1673ffffffffffffffffffffffffffffffffffffffff16815260200190815260200160002060006101000a81548173ffffffffffffffffffffffffffffffffffffffff021916908373ffffffffffffffffffffffffffffffffffffffff160217905550600560008273ffffffffffffffffffffffffffffffffffffffff1673ffffffffffffffffffffffffffffffffffffffff16815260200190815260200160002060009054906101000a900473ffffffffffffffffffffffffffffffffffffffff1673ffffffffffffffffffffffffffffffffffffffff16637727d3aa336040518263ffffffff1660e01b8152600401610ef591906117ce565b600060405180830381600087803b158015610f0f57600080fd5b505af1158015610f23573d6000803e3d6000fd5b50505050610ff7565b600560008273ffffffffffffffffffffffffffffffffffffffff1673ffffffffffffffffffffffffffffffffffffffff16815260200190815260200160002060009054906101000a900473ffffffffffffffffffffffffffffffffffffffff1673ffffffffffffffffffffffffffffffffffffffff16637727d3aa336040518263ffffffff1660e01b8152600401610fc491906117ce565b600060405180830381600087803b158015610fde57600080fd5b505af1158015610ff2573d6000803e3d6000fd5b505050505b600260035461100691906119c9565b600560008373ffffffffffffffffffffffffffffffffffffffff1673ffffffffffffffffffffffffffffffffffffffff16815260200190815260200160002060009054906101000a900473ffffffffffffffffffffffffffffffffffffffff1673ffffffffffffffffffffffffffffffffffffffff16635cb7e8af6040518163ffffffff1660e01b815260040160206040518083038186803b1580156110ab57600080fd5b505afa1580156110bf573d6000803e3d6000fd5b505050506040513d601f19601f820116820180604052508101906110e39190611648565b13156111be576001600460008373ffffffffffffffffffffffffffffffffffffffff1673ffffffffffffffffffffffffffffffffffffffff16815260200190815260200160002060006101000a81548160ff0219169083151502179055506001600360008282546111549190611a33565b92505081905550600560008273ffffffffffffffffffffffffffffffffffffffff1673ffffffffffffffffffffffffffffffffffffffff16815260200190815260200160002060006101000a81549073ffffffffffffffffffffffffffffffffffffffff02191690555b50565b60011515600460003373ffffffffffffffffffffffffffffffffffffffff1673ffffffffffffffffffffffffffffffffffffffff16815260200190815260200160002060009054906101000a900460ff16151514611254576040517f08c379a000000000000000000000000000000000000000000000000000000000815260040161124b90611824565b60405180910390fd5b600073ffffffffffffffffffffffffffffffffffffffff168173ffffffffffffffffffffffffffffffffffffffff1614156112c4576040517f08c379a00000000000000000000000000000000000000000000000000000000081526004016112bb906118c4565b60405180910390fd5b60011515600260008373ffffffffffffffffffffffffffffffffffffffff1673ffffffffffffffffffffffffffffffffffffffff16815260200190815260200160002060009054906101000a900460ff1615151415611358576040517f08c379a000000000000000000000000000000000000000000000000000000000815260040161134f90611884565b60405180910390fd5b6001600260008373ffffffffffffffffffffffffffffffffffffffff1673ffffffffffffffffffffffffffffffffffffffff16815260200190815260200160002060006101000a81548160ff02191690831515021790555050565b600060011515600160008473ffffffffffffffffffffffffffffffffffffffff1673ffffffffffffffffffffffffffffffffffffffff16815260200190815260200160002060009054906101000a900460ff1615151415611417576001905061141c565b600090505b919050565b60011515600460003373ffffffffffffffffffffffffffffffffffffffff1673ffffffffffffffffffffffffffffffffffffffff16815260200190815260200160002060009054906101000a900460ff161515146114b4576040517f08c379a00000000000000000000000000000000000000000000000000000000081526004016114ab90611824565b60405180910390fd5b60011515600260008373ffffffffffffffffffffffffffffffffffffffff1673ffffffffffffffffffffffffffffffffffffffff16815260200190815260200160002060009054906101000a900460ff16151514611547576040517f08c379a000000000000000000000000000000000000000000000000000000000815260040161153e90611804565b60405180910390fd5b6000600260008373ffffffffffffffffffffffffffffffffffffffff1673ffffffffffffffffffffffffffffffffffffffff16815260200190815260200160002060006101000a81548160ff02191690831515021790555050565b61062380611dc183390190565b6000813590506115be81611d7b565b92915050565b6000815190506115d381611d92565b92915050565b6000815190506115e881611da9565b92915050565b60006020828403121561160457611603611b6d565b5b6000611612848285016115af565b91505092915050565b60006020828403121561163157611630611b6d565b5b600061163f848285016115c4565b91505092915050565b60006020828403121561165e5761165d611b6d565b5b600061166c848285016115d9565b91505092915050565b61167e81611ac7565b82525050565b61168d81611ad9565b82525050565b60006116a0603783611924565b91506116ab82611b72565b604082019050919050565b60006116c3601483611924565b91506116ce82611bc1565b602082019050919050565b60006116e6602183611924565b91506116f182611bea565b604082019050919050565b6000611709601e83611924565b915061171482611c39565b602082019050919050565b600061172c601e83611924565b915061173782611c62565b602082019050919050565b600061174f601b83611924565b915061175a82611c8b565b602082019050919050565b6000611772602183611924565b915061177d82611cb4565b604082019050919050565b6000611795601683611924565b91506117a082611d03565b602082019050919050565b60006117b8602d83611924565b91506117c382611d2c565b604082019050919050565b60006020820190506117e36000830184611675565b92915050565b60006020820190506117fe6000830184611684565b92915050565b6000602082019050818103600083015261181d81611693565b9050919050565b6000602082019050818103600083015261183d816116b6565b9050919050565b6000602082019050818103600083015261185d816116d9565b9050919050565b6000602082019050818103600083015261187d816116fc565b9050919050565b6000602082019050818103600083015261189d8161171f565b9050919050565b600060208201905081810360008301526118bd81611742565b9050919050565b600060208201905081810360008301526118dd81611765565b9050919050565b600060208201905081810360008301526118fd81611788565b9050919050565b6000602082019050818103600083015261191d816117ab565b9050919050565b600082825260208201905092915050565b600061194082611ae5565b915061194b83611ae5565b9250817f7fffffffffffffffffffffffffffffffffffffffffffffffffffffffffffffff0383136000831215161561198657611985611b0f565b5b817f80000000000000000000000000000000000000000000000000000000000000000383126000831216156119be576119bd611b0f565b5b828201905092915050565b60006119d482611ae5565b91506119df83611ae5565b9250826119ef576119ee611b3e565b5b600160000383147f800000000000000000000000000000000000000000000000000000000000000083141615611a2857611a27611b0f565b5b828205905092915050565b6000611a3e82611ae5565b9150611a4983611ae5565b9250827f800000000000000000000000000000000000000000000000000000000000000001821260008412151615611a8457611a83611b0f565b5b827f7fffffffffffffffffffffffffffffffffffffffffffffffffffffffffffffff018213600084121615611abc57611abb611b0f565b5b828203905092915050565b6000611ad282611aef565b9050919050565b60008115159050919050565b6000819050919050565b600073ffffffffffffffffffffffffffffffffffffffff82169050919050565b7f4e487b7100000000000000000000000000000000000000000000000000000000600052601160045260246000fd5b7f4e487b7100000000000000000000000000000000000000000000000000000000600052601260045260246000fd5b600080fd5b7f43616e6e6f742072656d6f766520616e2061646472657373207468617420697360008201527f206e6f7420616c72656164792061207665726966696572000000000000000000602082015250565b7f596f7520617265206e6f7420616e2061646d696e000000000000000000000000600082015250565b7f546869732061646d696e2068617320616c7265616479206265656e206164646560008201527f6400000000000000000000000000000000000000000000000000000000000000602082015250565b7f43616e6e6f742076657269667920746865207a65726f20616464726573730000600082015250565b7f4164647265737320697320616c72656164792061207665726966696665720000600082015250565b7f4164647265737320697320616c72656164792076657269666965640000000000600082015250565b7f5a65726f20616464726573732063616e6e6f742062652061207665726966696560008201527f7200000000000000000000000000000000000000000000000000000000000000602082015250565b7f596f7520617265206e6f74206120766572696669657200000000000000000000600082015250565b7f43616e27742072656d6f766520616e206164647265737320776869636820697360008201527f206e6f7420616e2061646d696e00000000000000000000000000000000000000602082015250565b611d8481611ac7565b8114611d8f57600080fd5b50565b611d9b81611ad9565b8114611da657600080fd5b50565b611db281611ae5565b8114611dbd57600080fd5b5056fe608060405234801561001057600080fd5b5060016000806101000a81548160ff0219169083151502179055506105e98061003a6000396000f3fe608060405234801561001057600080fd5b50600436106100625760003560e01c806309eef43e146100675780635cb7e8af1461009757806369596d70146100b55780637727d3aa146100d1578063929155bf146100ed578063957aa58c1461010b575b600080fd5b610081600480360381019061007c919061038e565b610129565b60405161008e91906103fc565b60405180910390f35b61009f610149565b6040516100ac9190610417565b60405180910390f35b6100cf60048036038101906100ca919061038e565b61014f565b005b6100eb60048036038101906100e6919061038e565b610258565b005b6100f5610362565b6040516101029190610417565b60405180910390f35b610113610368565b60405161012091906103fc565b60405180910390f35b60036020528060005260406000206000915054906101000a900460ff1681565b60025481565b8060001515600360008373ffffffffffffffffffffffffffffffffffffffff1673ffffffffffffffffffffffffffffffffffffffff16815260200190815260200160002060009054906101000a900460ff161515146101e3576040517f08c379a00000000000000000000000000000000000000000000000000000000081526004016101da90610432565b60405180910390fd5b60018060008282546101f59190610463565b925050819055506001600360008473ffffffffffffffffffffffffffffffffffffffff1673ffffffffffffffffffffffffffffffffffffffff16815260200190815260200160002060006101000a81548160ff0219169083151502179055505050565b8060001515600360008373ffffffffffffffffffffffffffffffffffffffff1673ffffffffffffffffffffffffffffffffffffffff16815260200190815260200160002060009054906101000a900460ff161515146102ec576040517f08c379a00000000000000000000000000000000000000000000000000000000081526004016102e390610432565b60405180910390fd5b6001600260008282546102ff9190610463565b925050819055506001600360008473ffffffffffffffffffffffffffffffffffffffff1673ffffffffffffffffffffffffffffffffffffffff16815260200190815260200160002060006101000a81548160ff0219169083151502179055505050565b60015481565b60008054906101000a900460ff1681565b6000813590506103888161059c565b92915050565b6000602082840312156103a4576103a361056e565b5b60006103b284828501610379565b91505092915050565b6103c481610509565b82525050565b6103d381610515565b82525050565b60006103e6601983610452565b91506103f182610573565b602082019050919050565b600060208201905061041160008301846103bb565b92915050565b600060208201905061042c60008301846103ca565b92915050565b6000602082019050818103600083015261044b816103d9565b9050919050565b600082825260208201905092915050565b600061046e82610515565b915061047983610515565b9250817f7fffffffffffffffffffffffffffffffffffffffffffffffffffffffffffffff038313600083121516156104b4576104b361053f565b5b817f80000000000000000000000000000000000000000000000000000000000000000383126000831216156104ec576104eb61053f565b5b828201905092915050565b60006105028261051f565b9050919050565b60008115159050919050565b6000819050919050565b600073ffffffffffffffffffffffffffffffffffffffff82169050919050565b7f4e487b7100000000000000000000000000000000000000000000000000000000600052601160045260246000fd5b600080fd5b7f416464726573732068617320616c726561647920766f74656400000000000000600082015250565b6105a5816104f7565b81146105b057600080fd5b5056fea2646970667358221220588bbc2d1855b0b3605409a7d2ee42eaac5d24cf37b15cab14ae9487aad6486e64736f6c63430008070033a2646970667358221220f5a7180010b8c78c55ef94ad6dbb4ed58ffdcecc522bd6cf577dd101ebd4405c64736f6c63430008070033",
					"opcodes": "PUSH1 0x80 PUSH1 0x40 MSTORE CALLVALUE DUP1 ISZERO PUSH3 0x11 JUMPI PUSH1 0x0 DUP1 REVERT JUMPDEST POP PUSH1 0x40 MLOAD PUSH3 0x25A6 CODESIZE SUB DUP1 PUSH3 0x25A6 DUP4 CODECOPY DUP2 DUP2 ADD PUSH1 0x40 MSTORE DUP2 ADD SWAP1 PUSH3 0x37 SWAP2 SWAP1 PUSH3 0xF8 JUMP JUMPDEST PUSH1 0x0 DUP1 PUSH1 0x0 DUP1 PUSH2 0x100 EXP DUP2 SLOAD DUP2 PUSH20 0xFFFFFFFFFFFFFFFFFFFFFFFFFFFFFFFFFFFFFFFF MUL NOT AND SWAP1 DUP4 PUSH20 0xFFFFFFFFFFFFFFFFFFFFFFFFFFFFFFFFFFFFFFFF AND MUL OR SWAP1 SSTORE POP POP PUSH1 0x1 PUSH1 0x4 PUSH1 0x0 DUP4 PUSH20 0xFFFFFFFFFFFFFFFFFFFFFFFFFFFFFFFFFFFFFFFF AND PUSH20 0xFFFFFFFFFFFFFFFFFFFFFFFFFFFFFFFFFFFFFFFF AND DUP2 MSTORE PUSH1 0x20 ADD SWAP1 DUP2 MSTORE PUSH1 0x20 ADD PUSH1 0x0 KECCAK256 PUSH1 0x0 PUSH2 0x100 EXP DUP2 SLOAD DUP2 PUSH1 0xFF MUL NOT AND SWAP1 DUP4 ISZERO ISZERO MUL OR SWAP1 SSTORE POP PUSH1 0x1 PUSH1 0x3 DUP2 SWAP1 SSTORE POP POP PUSH3 0x17D JUMP JUMPDEST PUSH1 0x0 DUP2 MLOAD SWAP1 POP PUSH3 0xF2 DUP2 PUSH3 0x163 JUMP JUMPDEST SWAP3 SWAP2 POP POP JUMP JUMPDEST PUSH1 0x0 PUSH1 0x20 DUP3 DUP5 SUB SLT ISZERO PUSH3 0x111 JUMPI PUSH3 0x110 PUSH3 0x15E JUMP JUMPDEST JUMPDEST PUSH1 0x0 PUSH3 0x121 DUP5 DUP3 DUP6 ADD PUSH3 0xE1 JUMP JUMPDEST SWAP2 POP POP SWAP3 SWAP2 POP POP JUMP JUMPDEST PUSH1 0x0 PUSH3 0x137 DUP3 PUSH3 0x13E JUMP JUMPDEST SWAP1 POP SWAP2 SWAP1 POP JUMP JUMPDEST PUSH1 0x0 PUSH20 0xFFFFFFFFFFFFFFFFFFFFFFFFFFFFFFFFFFFFFFFF DUP3 AND SWAP1 POP SWAP2 SWAP1 POP JUMP JUMPDEST PUSH1 0x0 DUP1 REVERT JUMPDEST PUSH3 0x16E DUP2 PUSH3 0x12A JUMP JUMPDEST DUP2 EQ PUSH3 0x17A JUMPI PUSH1 0x0 DUP1 REVERT JUMPDEST POP JUMP JUMPDEST PUSH2 0x2419 DUP1 PUSH3 0x18D PUSH1 0x0 CODECOPY PUSH1 0x0 RETURN INVALID PUSH1 0x80 PUSH1 0x40 MSTORE CALLVALUE DUP1 ISZERO PUSH2 0x10 JUMPI PUSH1 0x0 DUP1 REVERT JUMPDEST POP PUSH1 0x4 CALLDATASIZE LT PUSH2 0x88 JUMPI PUSH1 0x0 CALLDATALOAD PUSH1 0xE0 SHR DUP1 PUSH4 0x7727D3AA GT PUSH2 0x5B JUMPI DUP1 PUSH4 0x7727D3AA EQ PUSH2 0x111 JUMPI DUP1 PUSH4 0x9000B3D6 EQ PUSH2 0x12D JUMPI DUP1 PUSH4 0xB9209E33 EQ PUSH2 0x149 JUMPI DUP1 PUSH4 0xCA2DFD0A EQ PUSH2 0x179 JUMPI PUSH2 0x88 JUMP JUMPDEST DUP1 PUSH4 0x33105218 EQ PUSH2 0x8D JUMPI DUP1 PUSH4 0x4487B392 EQ PUSH2 0xBD JUMPI DUP1 PUSH4 0x5DC84E32 EQ PUSH2 0xD9 JUMPI DUP1 PUSH4 0x69596D70 EQ PUSH2 0xF5 JUMPI JUMPDEST PUSH1 0x0 DUP1 REVERT JUMPDEST PUSH2 0xA7 PUSH1 0x4 DUP1 CALLDATASIZE SUB DUP2 ADD SWAP1 PUSH2 0xA2 SWAP2 SWAP1 PUSH2 0x15EE JUMP JUMPDEST PUSH2 0x195 JUMP JUMPDEST PUSH1 0x40 MLOAD PUSH2 0xB4 SWAP2 SWAP1 PUSH2 0x17E9 JUMP JUMPDEST PUSH1 0x40 MLOAD DUP1 SWAP2 SUB SWAP1 RETURN JUMPDEST PUSH2 0xD7 PUSH1 0x4 DUP1 CALLDATASIZE SUB DUP2 ADD SWAP1 PUSH2 0xD2 SWAP2 SWAP1 PUSH2 0x15EE JUMP JUMPDEST PUSH2 0x203 JUMP JUMPDEST STOP JUMPDEST PUSH2 0xF3 PUSH1 0x4 DUP1 CALLDATASIZE SUB DUP2 ADD SWAP1 PUSH2 0xEE SWAP2 SWAP1 PUSH2 0x15EE JUMP JUMPDEST PUSH2 0x343 JUMP JUMPDEST STOP JUMPDEST PUSH2 0x10F PUSH1 0x4 DUP1 CALLDATASIZE SUB DUP2 ADD SWAP1 PUSH2 0x10A SWAP2 SWAP1 PUSH2 0x15EE JUMP JUMPDEST PUSH2 0x58E JUMP JUMPDEST STOP JUMPDEST PUSH2 0x12B PUSH1 0x4 DUP1 CALLDATASIZE SUB DUP2 ADD SWAP1 PUSH2 0x126 SWAP2 SWAP1 PUSH2 0x15EE JUMP JUMPDEST PUSH2 0xBA8 JUMP JUMPDEST STOP JUMPDEST PUSH2 0x147 PUSH1 0x4 DUP1 CALLDATASIZE SUB DUP2 ADD SWAP1 PUSH2 0x142 SWAP2 SWAP1 PUSH2 0x15EE JUMP JUMPDEST PUSH2 0x11C1 JUMP JUMPDEST STOP JUMPDEST PUSH2 0x163 PUSH1 0x4 DUP1 CALLDATASIZE SUB DUP2 ADD SWAP1 PUSH2 0x15E SWAP2 SWAP1 PUSH2 0x15EE JUMP JUMPDEST PUSH2 0x13B3 JUMP JUMPDEST PUSH1 0x40 MLOAD PUSH2 0x170 SWAP2 SWAP1 PUSH2 0x17E9 JUMP JUMPDEST PUSH1 0x40 MLOAD DUP1 SWAP2 SUB SWAP1 RETURN JUMPDEST PUSH2 0x193 PUSH1 0x4 DUP1 CALLDATASIZE SUB DUP2 ADD SWAP1 PUSH2 0x18E SWAP2 SWAP1 PUSH2 0x15EE JUMP JUMPDEST PUSH2 0x1421 JUMP JUMPDEST STOP JUMPDEST PUSH1 0x0 PUSH1 0x1 ISZERO ISZERO PUSH1 0x2 PUSH1 0x0 DUP5 PUSH20 0xFFFFFFFFFFFFFFFFFFFFFFFFFFFFFFFFFFFFFFFF AND PUSH20 0xFFFFFFFFFFFFFFFFFFFFFFFFFFFFFFFFFFFFFFFF AND DUP2 MSTORE PUSH1 0x20 ADD SWAP1 DUP2 MSTORE PUSH1 0x20 ADD PUSH1 0x0 KECCAK256 PUSH1 0x0 SWAP1 SLOAD SWAP1 PUSH2 0x100 EXP SWAP1 DIV PUSH1 0xFF AND ISZERO ISZERO EQ ISZERO PUSH2 0x1F9 JUMPI PUSH1 0x1 SWAP1 POP PUSH2 0x1FE JUMP JUMPDEST PUSH1 0x0 SWAP1 POP JUMPDEST SWAP2 SWAP1 POP JUMP JUMPDEST PUSH1 0x1 ISZERO ISZERO PUSH1 0x2 PUSH1 0x0 CALLER PUSH20 0xFFFFFFFFFFFFFFFFFFFFFFFFFFFFFFFFFFFFFFFF AND PUSH20 0xFFFFFFFFFFFFFFFFFFFFFFFFFFFFFFFFFFFFFFFF AND DUP2 MSTORE PUSH1 0x20 ADD SWAP1 DUP2 MSTORE PUSH1 0x20 ADD PUSH1 0x0 KECCAK256 PUSH1 0x0 SWAP1 SLOAD SWAP1 PUSH2 0x100 EXP SWAP1 DIV PUSH1 0xFF AND ISZERO ISZERO EQ PUSH2 0x296 JUMPI PUSH1 0x40 MLOAD PUSH32 0x8C379A000000000000000000000000000000000000000000000000000000000 DUP2 MSTORE PUSH1 0x4 ADD PUSH2 0x28D SWAP1 PUSH2 0x18E4 JUMP JUMPDEST PUSH1 0x40 MLOAD DUP1 SWAP2 SUB SWAP1 REVERT JUMPDEST PUSH1 0x0 ISZERO ISZERO PUSH1 0x1 PUSH1 0x0 DUP4 PUSH20 0xFFFFFFFFFFFFFFFFFFFFFFFFFFFFFFFFFFFFFFFF AND PUSH20 0xFFFFFFFFFFFFFFFFFFFFFFFFFFFFFFFFFFFFFFFF AND DUP2 MSTORE PUSH1 0x20 ADD SWAP1 DUP2 MSTORE PUSH1 0x20 ADD PUSH1 0x0 KECCAK256 PUSH1 0x0 SWAP1 SLOAD SWAP1 PUSH2 0x100 EXP SWAP1 POP POP POP CALLER PUSH20 0xFFFFFFFFFFFFFFFFFFFFFFFFFFFFFFFFFFFFFFFF AND DUP2 PUSH20 0xFFFFFFFFFFFFFFFFFFFFFFFFFFFFFFFFFFFFFFFF AND PUSH32 0x2679E492F4112EEE8E3F6DFD8463065D662332A578753F77CE4C3D76C98271FB PUSH1 0x40 MLOAD PUSH1 0x40 MLOAD DUP1 SWAP2 SUB SWAP1 LOG3 POP JUMP JUMPDEST PUSH1 0x1 ISZERO ISZERO PUSH1 0x2 PUSH1 0x0 CALLER PUSH20 0xFFFFFFFFFFFFFFFFFFFFFFFFFFFFFFFFFFFFFFFF AND PUSH20 0xFFFFFFFFFFFFFFFFFFFFFFFFFFFFFFFFFFFFFFFF AND DUP2 MSTORE PUSH1 0x20 ADD SWAP1 DUP2 MSTORE PUSH1 0x20 ADD PUSH1 0x0 KECCAK256 PUSH1 0x0 SWAP1 SLOAD SWAP1 PUSH2 0x100 EXP SWAP1 DIV PUSH1 0xFF AND ISZERO ISZERO EQ PUSH2 0x3D6 JUMPI PUSH1 0x40 MLOAD PUSH32 0x8C379A000000000000000000000000000000000000000000000000000000000 DUP2 MSTORE PUSH1 0x4 ADD PUSH2 0x3CD SWAP1 PUSH2 0x18E4 JUMP JUMPDEST PUSH1 0x40 MLOAD DUP1 SWAP2 SUB SWAP1 REVERT JUMPDEST PUSH1 0x0 PUSH20 0xFFFFFFFFFFFFFFFFFFFFFFFFFFFFFFFFFFFFFFFF AND DUP2 PUSH20 0xFFFFFFFFFFFFFFFFFFFFFFFFFFFFFFFFFFFFFFFF AND EQ ISZERO PUSH2 0x446 JUMPI PUSH1 0x40 MLOAD PUSH32 0x8C379A000000000000000000000000000000000000000000000000000000000 DUP2 MSTORE PUSH1 0x4 ADD PUSH2 0x43D SWAP1 PUSH2 0x1864 JUMP JUMPDEST PUSH1 0x40 MLOAD DUP1 SWAP2 SUB SWAP1 REVERT JUMPDEST PUSH1 0x1 ISZERO ISZERO PUSH1 0x1 PUSH1 0x0 DUP4 PUSH20 0xFFFFFFFFFFFFFFFFFFFFFFFFFFFFFFFFFFFFFFFF AND PUSH20 0xFFFFFFFFFFFFFFFFFFFFFFFFFFFFFFFFFFFFFFFF AND DUP2 MSTORE PUSH1 0x20 ADD SWAP1 DUP2 MSTORE PUSH1 0x20 ADD PUSH1 0x0 KECCAK256 PUSH1 0x0 SWAP1 SLOAD SWAP1 PUSH2 0x100 EXP SWAP1 DIV PUSH1 0xFF AND ISZERO ISZERO EQ ISZERO PUSH2 0x4DA JUMPI PUSH1 0x40 MLOAD PUSH32 0x8C379A000000000000000000000000000000000000000000000000000000000 DUP2 MSTORE PUSH1 0x4 ADD PUSH2 0x4D1 SWAP1 PUSH2 0x18A4 JUMP JUMPDEST PUSH1 0x40 MLOAD DUP1 SWAP2 SUB SWAP1 REVERT JUMPDEST PUSH1 0x1 DUP1 PUSH1 0x0 DUP4 PUSH20 0xFFFFFFFFFFFFFFFFFFFFFFFFFFFFFFFFFFFFFFFF AND PUSH20 0xFFFFFFFFFFFFFFFFFFFFFFFFFFFFFFFFFFFFFFFF AND DUP2 MSTORE PUSH1 0x20 ADD SWAP1 DUP2 MSTORE PUSH1 0x20 ADD PUSH1 0x0 KECCAK256 PUSH1 0x0 PUSH2 0x100 EXP DUP2 SLOAD DUP2 PUSH1 0xFF MUL NOT AND SWAP1 DUP4 ISZERO ISZERO MUL OR SWAP1 SSTORE POP CALLER PUSH20 0xFFFFFFFFFFFFFFFFFFFFFFFFFFFFFFFFFFFFFFFF AND DUP2 PUSH20 0xFFFFFFFFFFFFFFFFFFFFFFFFFFFFFFFFFFFFFFFF AND PUSH32 0x2679E492F4112EEE8E3F6DFD8463065D662332A578753F77CE4C3D76C98271FB PUSH1 0x40 MLOAD PUSH1 0x40 MLOAD DUP1 SWAP2 SUB SWAP1 LOG3 POP JUMP JUMPDEST PUSH1 0x1 ISZERO ISZERO PUSH1 0x4 PUSH1 0x0 CALLER PUSH20 0xFFFFFFFFFFFFFFFFFFFFFFFFFFFFFFFFFFFFFFFF AND PUSH20 0xFFFFFFFFFFFFFFFFFFFFFFFFFFFFFFFFFFFFFFFF AND DUP2 MSTORE PUSH1 0x20 ADD SWAP1 DUP2 MSTORE PUSH1 0x20 ADD PUSH1 0x0 KECCAK256 PUSH1 0x0 SWAP1 SLOAD SWAP1 PUSH2 0x100 EXP SWAP1 DIV PUSH1 0xFF AND ISZERO ISZERO EQ PUSH2 0x621 JUMPI PUSH1 0x40 MLOAD PUSH32 0x8C379A000000000000000000000000000000000000000000000000000000000 DUP2 MSTORE PUSH1 0x4 ADD PUSH2 0x618 SWAP1 PUSH2 0x1824 JUMP JUMPDEST PUSH1 0x40 MLOAD DUP1 SWAP2 SUB SWAP1 REVERT JUMPDEST PUSH1 0x1 ISZERO ISZERO PUSH1 0x4 PUSH1 0x0 DUP4 PUSH20 0xFFFFFFFFFFFFFFFFFFFFFFFFFFFFFFFFFFFFFFFF AND PUSH20 0xFFFFFFFFFFFFFFFFFFFFFFFFFFFFFFFFFFFFFFFF AND DUP2 MSTORE PUSH1 0x20 ADD SWAP1 DUP2 MSTORE PUSH1 0x20 ADD PUSH1 0x0 KECCAK256 PUSH1 0x0 SWAP1 SLOAD SWAP1 PUSH2 0x100 EXP SWAP1 DIV PUSH1 0xFF AND ISZERO ISZERO EQ ISZERO PUSH2 0x6B5 JUMPI PUSH1 0x40 MLOAD PUSH32 0x8C379A000000000000000000000000000000000000000000000000000000000 DUP2 MSTORE PUSH1 0x4 ADD PUSH2 0x6AC SWAP1 PUSH2 0x1844 JUMP JUMPDEST PUSH1 0x40 MLOAD DUP1 SWAP2 SUB SWAP1 REVERT JUMPDEST PUSH1 0x0 ISZERO ISZERO PUSH1 0x5 PUSH1 0x0 DUP4 PUSH20 0xFFFFFFFFFFFFFFFFFFFFFFFFFFFFFFFFFFFFFFFF AND PUSH20 0xFFFFFFFFFFFFFFFFFFFFFFFFFFFFFFFFFFFFFFFF AND DUP2 MSTORE PUSH1 0x20 ADD SWAP1 DUP2 MSTORE PUSH1 0x20 ADD PUSH1 0x0 KECCAK256 PUSH1 0x0 SWAP1 SLOAD SWAP1 PUSH2 0x100 EXP SWAP1 DIV PUSH20 0xFFFFFFFFFFFFFFFFFFFFFFFFFFFFFFFFFFFFFFFF AND PUSH20 0xFFFFFFFFFFFFFFFFFFFFFFFFFFFFFFFFFFFFFFFF AND PUSH4 0x957AA58C PUSH1 0x40 MLOAD DUP2 PUSH4 0xFFFFFFFF AND PUSH1 0xE0 SHL DUP2 MSTORE PUSH1 0x4 ADD PUSH1 0x20 PUSH1 0x40 MLOAD DUP1 DUP4 SUB DUP2 DUP7 DUP1 EXTCODESIZE ISZERO DUP1 ISZERO PUSH2 0x75E JUMPI PUSH1 0x0 DUP1 REVERT JUMPDEST POP GAS STATICCALL ISZERO DUP1 ISZERO PUSH2 0x772 JUMPI RETURNDATASIZE PUSH1 0x0 DUP1 RETURNDATACOPY RETURNDATASIZE PUSH1 0x0 REVERT JUMPDEST POP POP POP POP PUSH1 0x40 MLOAD RETURNDATASIZE PUSH1 0x1F NOT PUSH1 0x1F DUP3 ADD AND DUP3 ADD DUP1 PUSH1 0x40 MSTORE POP DUP2 ADD SWAP1 PUSH2 0x796 SWAP2 SWAP1 PUSH2 0x161B JUMP JUMPDEST ISZERO ISZERO EQ ISZERO PUSH2 0x913 JUMPI PUSH1 0x40 MLOAD PUSH2 0x7AA SWAP1 PUSH2 0x15A2 JUMP JUMPDEST PUSH1 0x40 MLOAD DUP1 SWAP2 SUB SWAP1 PUSH1 0x0 CREATE DUP1 ISZERO DUP1 ISZERO PUSH2 0x7C6 JUMPI RETURNDATASIZE PUSH1 0x0 DUP1 RETURNDATACOPY RETURNDATASIZE PUSH1 0x0 REVERT JUMPDEST POP PUSH1 0x5 PUSH1 0x0 DUP4 PUSH20 0xFFFFFFFFFFFFFFFFFFFFFFFFFFFFFFFFFFFFFFFF AND PUSH20 0xFFFFFFFFFFFFFFFFFFFFFFFFFFFFFFFFFFFFFFFF AND DUP2 MSTORE PUSH1 0x20 ADD SWAP1 DUP2 MSTORE PUSH1 0x20 ADD PUSH1 0x0 KECCAK256 PUSH1 0x0 PUSH2 0x100 EXP DUP2 SLOAD DUP2 PUSH20 0xFFFFFFFFFFFFFFFFFFFFFFFFFFFFFFFFFFFFFFFF MUL NOT AND SWAP1 DUP4 PUSH20 0xFFFFFFFFFFFFFFFFFFFFFFFFFFFFFFFFFFFFFFFF AND MUL OR SWAP1 SSTORE POP PUSH1 0x5 PUSH1 0x0 DUP3 PUSH20 0xFFFFFFFFFFFFFFFFFFFFFFFFFFFFFFFFFFFFFFFF AND PUSH20 0xFFFFFFFFFFFFFFFFFFFFFFFFFFFFFFFFFFFFFFFF AND DUP2 MSTORE PUSH1 0x20 ADD SWAP1 DUP2 MSTORE PUSH1 0x20 ADD PUSH1 0x0 KECCAK256 PUSH1 0x0 SWAP1 SLOAD SWAP1 PUSH2 0x100 EXP SWAP1 DIV PUSH20 0xFFFFFFFFFFFFFFFFFFFFFFFFFFFFFFFFFFFFFFFF AND PUSH20 0xFFFFFFFFFFFFFFFFFFFFFFFFFFFFFFFFFFFFFFFF AND PUSH4 0x69596D70 CALLER PUSH1 0x40 MLOAD DUP3 PUSH4 0xFFFFFFFF AND PUSH1 0xE0 SHL DUP2 MSTORE PUSH1 0x4 ADD PUSH2 0x8DC SWAP2 SWAP1 PUSH2 0x17CE JUMP JUMPDEST PUSH1 0x0 PUSH1 0x40 MLOAD DUP1 DUP4 SUB DUP2 PUSH1 0x0 DUP8 DUP1 EXTCODESIZE ISZERO DUP1 ISZERO PUSH2 0x8F6 JUMPI PUSH1 0x0 DUP1 REVERT JUMPDEST POP GAS CALL ISZERO DUP1 ISZERO PUSH2 0x90A JUMPI RETURNDATASIZE PUSH1 0x0 DUP1 RETURNDATACOPY RETURNDATASIZE PUSH1 0x0 REVERT JUMPDEST POP POP POP POP PUSH2 0x9DE JUMP JUMPDEST PUSH1 0x5 PUSH1 0x0 DUP3 PUSH20 0xFFFFFFFFFFFFFFFFFFFFFFFFFFFFFFFFFFFFFFFF AND PUSH20 0xFFFFFFFFFFFFFFFFFFFFFFFFFFFFFFFFFFFFFFFF AND DUP2 MSTORE PUSH1 0x20 ADD SWAP1 DUP2 MSTORE PUSH1 0x20 ADD PUSH1 0x0 KECCAK256 PUSH1 0x0 SWAP1 SLOAD SWAP1 PUSH2 0x100 EXP SWAP1 DIV PUSH20 0xFFFFFFFFFFFFFFFFFFFFFFFFFFFFFFFFFFFFFFFF AND PUSH20 0xFFFFFFFFFFFFFFFFFFFFFFFFFFFFFFFFFFFFFFFF AND PUSH4 0x69596D70 CALLER PUSH1 0x40 MLOAD DUP3 PUSH4 0xFFFFFFFF AND PUSH1 0xE0 SHL DUP2 MSTORE PUSH1 0x4 ADD PUSH2 0x9AB SWAP2 SWAP1 PUSH2 0x17CE JUMP JUMPDEST PUSH1 0x0 PUSH1 0x40 MLOAD DUP1 DUP4 SUB DUP2 PUSH1 0x0 DUP8 DUP1 EXTCODESIZE ISZERO DUP1 ISZERO PUSH2 0x9C5 JUMPI PUSH1 0x0 DUP1 REVERT JUMPDEST POP GAS CALL ISZERO DUP1 ISZERO PUSH2 0x9D9 JUMPI RETURNDATASIZE PUSH1 0x0 DUP1 RETURNDATACOPY RETURNDATASIZE PUSH1 0x0 REVERT JUMPDEST POP POP POP POP JUMPDEST PUSH1 0x2 PUSH1 0x3 SLOAD PUSH2 0x9ED SWAP2 SWAP1 PUSH2 0x19C9 JUMP JUMPDEST PUSH1 0x5 PUSH1 0x0 DUP4 PUSH20 0xFFFFFFFFFFFFFFFFFFFFFFFFFFFFFFFFFFFFFFFF AND PUSH20 0xFFFFFFFFFFFFFFFFFFFFFFFFFFFFFFFFFFFFFFFF AND DUP2 MSTORE PUSH1 0x20 ADD SWAP1 DUP2 MSTORE PUSH1 0x20 ADD PUSH1 0x0 KECCAK256 PUSH1 0x0 SWAP1 SLOAD SWAP1 PUSH2 0x100 EXP SWAP1 DIV PUSH20 0xFFFFFFFFFFFFFFFFFFFFFFFFFFFFFFFFFFFFFFFF AND PUSH20 0xFFFFFFFFFFFFFFFFFFFFFFFFFFFFFFFFFFFFFFFF AND PUSH4 0x929155BF PUSH1 0x40 MLOAD DUP2 PUSH4 0xFFFFFFFF AND PUSH1 0xE0 SHL DUP2 MSTORE PUSH1 0x4 ADD PUSH1 0x20 PUSH1 0x40 MLOAD DUP1 DUP4 SUB DUP2 DUP7 DUP1 EXTCODESIZE ISZERO DUP1 ISZERO PUSH2 0xA92 JUMPI PUSH1 0x0 DUP1 REVERT JUMPDEST POP GAS STATICCALL ISZERO DUP1 ISZERO PUSH2 0xAA6 JUMPI RETURNDATASIZE PUSH1 0x0 DUP1 RETURNDATACOPY RETURNDATASIZE PUSH1 0x0 REVERT JUMPDEST POP POP POP POP PUSH1 0x40 MLOAD RETURNDATASIZE PUSH1 0x1F NOT PUSH1 0x1F DUP3 ADD AND DUP3 ADD DUP1 PUSH1 0x40 MSTORE POP DUP2 ADD SWAP1 PUSH2 0xACA SWAP2 SWAP1 PUSH2 0x1648 JUMP JUMPDEST SGT ISZERO PUSH2 0xBA5 JUMPI PUSH1 0x1 PUSH1 0x4 PUSH1 0x0 DUP4 PUSH20 0xFFFFFFFFFFFFFFFFFFFFFFFFFFFFFFFFFFFFFFFF AND PUSH20 0xFFFFFFFFFFFFFFFFFFFFFFFFFFFFFFFFFFFFFFFF AND DUP2 MSTORE PUSH1 0x20 ADD SWAP1 DUP2 MSTORE PUSH1 0x20 ADD PUSH1 0x0 KECCAK256 PUSH1 0x0 PUSH2 0x100 EXP DUP2 SLOAD DUP2 PUSH1 0xFF MUL NOT AND SWAP1 DUP4 ISZERO ISZERO MUL OR SWAP1 SSTORE POP PUSH1 0x1 PUSH1 0x3 PUSH1 0x0 DUP3 DUP3 SLOAD PUSH2 0xB3B SWAP2 SWAP1 PUSH2 0x1935 JUMP JUMPDEST SWAP3 POP POP DUP2 SWAP1 SSTORE POP PUSH1 0x5 PUSH1 0x0 DUP3 PUSH20 0xFFFFFFFFFFFFFFFFFFFFFFFFFFFFFFFFFFFFFFFF AND PUSH20 0xFFFFFFFFFFFFFFFFFFFFFFFFFFFFFFFFFFFFFFFF AND DUP2 MSTORE PUSH1 0x20 ADD SWAP1 DUP2 MSTORE PUSH1 0x20 ADD PUSH1 0x0 KECCAK256 PUSH1 0x0 PUSH2 0x100 EXP DUP2 SLOAD SWAP1 PUSH20 0xFFFFFFFFFFFFFFFFFFFFFFFFFFFFFFFFFFFFFFFF MUL NOT AND SWAP1 SSTORE JUMPDEST POP JUMP JUMPDEST PUSH1 0x1 ISZERO ISZERO PUSH1 0x4 PUSH1 0x0 CALLER PUSH20 0xFFFFFFFFFFFFFFFFFFFFFFFFFFFFFFFFFFFFFFFF AND PUSH20 0xFFFFFFFFFFFFFFFFFFFFFFFFFFFFFFFFFFFFFFFF AND DUP2 MSTORE PUSH1 0x20 ADD SWAP1 DUP2 MSTORE PUSH1 0x20 ADD PUSH1 0x0 KECCAK256 PUSH1 0x0 SWAP1 SLOAD SWAP1 PUSH2 0x100 EXP SWAP1 DIV PUSH1 0xFF AND ISZERO ISZERO EQ PUSH2 0xC3B JUMPI PUSH1 0x40 MLOAD PUSH32 0x8C379A000000000000000000000000000000000000000000000000000000000 DUP2 MSTORE PUSH1 0x4 ADD PUSH2 0xC32 SWAP1 PUSH2 0x1824 JUMP JUMPDEST PUSH1 0x40 MLOAD DUP1 SWAP2 SUB SWAP1 REVERT JUMPDEST PUSH1 0x1 ISZERO ISZERO PUSH1 0x4 PUSH1 0x0 DUP4 PUSH20 0xFFFFFFFFFFFFFFFFFFFFFFFFFFFFFFFFFFFFFFFF AND PUSH20 0xFFFFFFFFFFFFFFFFFFFFFFFFFFFFFFFFFFFFFFFF AND DUP2 MSTORE PUSH1 0x20 ADD SWAP1 DUP2 MSTORE PUSH1 0x20 ADD PUSH1 0x0 KECCAK256 PUSH1 0x0 SWAP1 SLOAD SWAP1 PUSH2 0x100 EXP SWAP1 DIV PUSH1 0xFF AND ISZERO ISZERO EQ PUSH2 0xCCE JUMPI PUSH1 0x40 MLOAD PUSH32 0x8C379A000000000000000000000000000000000000000000000000000000000 DUP2 MSTORE PUSH1 0x4 ADD PUSH2 0xCC5 SWAP1 PUSH2 0x1904 JUMP JUMPDEST PUSH1 0x40 MLOAD DUP1 SWAP2 SUB SWAP1 REVERT JUMPDEST PUSH1 0x0 ISZERO ISZERO PUSH1 0x5 PUSH1 0x0 DUP4 PUSH20 0xFFFFFFFFFFFFFFFFFFFFFFFFFFFFFFFFFFFFFFFF AND PUSH20 0xFFFFFFFFFFFFFFFFFFFFFFFFFFFFFFFFFFFFFFFF AND DUP2 MSTORE PUSH1 0x20 ADD SWAP1 DUP2 MSTORE PUSH1 0x20 ADD PUSH1 0x0 KECCAK256 PUSH1 0x0 SWAP1 SLOAD SWAP1 PUSH2 0x100 EXP SWAP1 DIV PUSH20 0xFFFFFFFFFFFFFFFFFFFFFFFFFFFFFFFFFFFFFFFF AND PUSH20 0xFFFFFFFFFFFFFFFFFFFFFFFFFFFFFFFFFFFFFFFF AND PUSH4 0x957AA58C PUSH1 0x40 MLOAD DUP2 PUSH4 0xFFFFFFFF AND PUSH1 0xE0 SHL DUP2 MSTORE PUSH1 0x4 ADD PUSH1 0x20 PUSH1 0x40 MLOAD DUP1 DUP4 SUB DUP2 DUP7 DUP1 EXTCODESIZE ISZERO DUP1 ISZERO PUSH2 0xD77 JUMPI PUSH1 0x0 DUP1 REVERT JUMPDEST POP GAS STATICCALL ISZERO DUP1 ISZERO PUSH2 0xD8B JUMPI RETURNDATASIZE PUSH1 0x0 DUP1 RETURNDATACOPY RETURNDATASIZE PUSH1 0x0 REVERT JUMPDEST POP POP POP POP PUSH1 0x40 MLOAD RETURNDATASIZE PUSH1 0x1F NOT PUSH1 0x1F DUP3 ADD AND DUP3 ADD DUP1 PUSH1 0x40 MSTORE POP DUP2 ADD SWAP1 PUSH2 0xDAF SWAP2 SWAP1 PUSH2 0x161B JUMP JUMPDEST ISZERO ISZERO EQ ISZERO PUSH2 0xF2C JUMPI PUSH1 0x40 MLOAD PUSH2 0xDC3 SWAP1 PUSH2 0x15A2 JUMP JUMPDEST PUSH1 0x40 MLOAD DUP1 SWAP2 SUB SWAP1 PUSH1 0x0 CREATE DUP1 ISZERO DUP1 ISZERO PUSH2 0xDDF JUMPI RETURNDATASIZE PUSH1 0x0 DUP1 RETURNDATACOPY RETURNDATASIZE PUSH1 0x0 REVERT JUMPDEST POP PUSH1 0x5 PUSH1 0x0 DUP4 PUSH20 0xFFFFFFFFFFFFFFFFFFFFFFFFFFFFFFFFFFFFFFFF AND PUSH20 0xFFFFFFFFFFFFFFFFFFFFFFFFFFFFFFFFFFFFFFFF AND DUP2 MSTORE PUSH1 0x20 ADD SWAP1 DUP2 MSTORE PUSH1 0x20 ADD PUSH1 0x0 KECCAK256 PUSH1 0x0 PUSH2 0x100 EXP DUP2 SLOAD DUP2 PUSH20 0xFFFFFFFFFFFFFFFFFFFFFFFFFFFFFFFFFFFFFFFF MUL NOT AND SWAP1 DUP4 PUSH20 0xFFFFFFFFFFFFFFFFFFFFFFFFFFFFFFFFFFFFFFFF AND MUL OR SWAP1 SSTORE POP PUSH1 0x5 PUSH1 0x0 DUP3 PUSH20 0xFFFFFFFFFFFFFFFFFFFFFFFFFFFFFFFFFFFFFFFF AND PUSH20 0xFFFFFFFFFFFFFFFFFFFFFFFFFFFFFFFFFFFFFFFF AND DUP2 MSTORE PUSH1 0x20 ADD SWAP1 DUP2 MSTORE PUSH1 0x20 ADD PUSH1 0x0 KECCAK256 PUSH1 0x0 SWAP1 SLOAD SWAP1 PUSH2 0x100 EXP SWAP1 DIV PUSH20 0xFFFFFFFFFFFFFFFFFFFFFFFFFFFFFFFFFFFFFFFF AND PUSH20 0xFFFFFFFFFFFFFFFFFFFFFFFFFFFFFFFFFFFFFFFF AND PUSH4 0x7727D3AA CALLER PUSH1 0x40 MLOAD DUP3 PUSH4 0xFFFFFFFF AND PUSH1 0xE0 SHL DUP2 MSTORE PUSH1 0x4 ADD PUSH2 0xEF5 SWAP2 SWAP1 PUSH2 0x17CE JUMP JUMPDEST PUSH1 0x0 PUSH1 0x40 MLOAD DUP1 DUP4 SUB DUP2 PUSH1 0x0 DUP8 DUP1 EXTCODESIZE ISZERO DUP1 ISZERO PUSH2 0xF0F JUMPI PUSH1 0x0 DUP1 REVERT JUMPDEST POP GAS CALL ISZERO DUP1 ISZERO PUSH2 0xF23 JUMPI RETURNDATASIZE PUSH1 0x0 DUP1 RETURNDATACOPY RETURNDATASIZE PUSH1 0x0 REVERT JUMPDEST POP POP POP POP PUSH2 0xFF7 JUMP JUMPDEST PUSH1 0x5 PUSH1 0x0 DUP3 PUSH20 0xFFFFFFFFFFFFFFFFFFFFFFFFFFFFFFFFFFFFFFFF AND PUSH20 0xFFFFFFFFFFFFFFFFFFFFFFFFFFFFFFFFFFFFFFFF AND DUP2 MSTORE PUSH1 0x20 ADD SWAP1 DUP2 MSTORE PUSH1 0x20 ADD PUSH1 0x0 KECCAK256 PUSH1 0x0 SWAP1 SLOAD SWAP1 PUSH2 0x100 EXP SWAP1 DIV PUSH20 0xFFFFFFFFFFFFFFFFFFFFFFFFFFFFFFFFFFFFFFFF AND PUSH20 0xFFFFFFFFFFFFFFFFFFFFFFFFFFFFFFFFFFFFFFFF AND PUSH4 0x7727D3AA CALLER PUSH1 0x40 MLOAD DUP3 PUSH4 0xFFFFFFFF AND PUSH1 0xE0 SHL DUP2 MSTORE PUSH1 0x4 ADD PUSH2 0xFC4 SWAP2 SWAP1 PUSH2 0x17CE JUMP JUMPDEST PUSH1 0x0 PUSH1 0x40 MLOAD DUP1 DUP4 SUB DUP2 PUSH1 0x0 DUP8 DUP1 EXTCODESIZE ISZERO DUP1 ISZERO PUSH2 0xFDE JUMPI PUSH1 0x0 DUP1 REVERT JUMPDEST POP GAS CALL ISZERO DUP1 ISZERO PUSH2 0xFF2 JUMPI RETURNDATASIZE PUSH1 0x0 DUP1 RETURNDATACOPY RETURNDATASIZE PUSH1 0x0 REVERT JUMPDEST POP POP POP POP JUMPDEST PUSH1 0x2 PUSH1 0x3 SLOAD PUSH2 0x1006 SWAP2 SWAP1 PUSH2 0x19C9 JUMP JUMPDEST PUSH1 0x5 PUSH1 0x0 DUP4 PUSH20 0xFFFFFFFFFFFFFFFFFFFFFFFFFFFFFFFFFFFFFFFF AND PUSH20 0xFFFFFFFFFFFFFFFFFFFFFFFFFFFFFFFFFFFFFFFF AND DUP2 MSTORE PUSH1 0x20 ADD SWAP1 DUP2 MSTORE PUSH1 0x20 ADD PUSH1 0x0 KECCAK256 PUSH1 0x0 SWAP1 SLOAD SWAP1 PUSH2 0x100 EXP SWAP1 DIV PUSH20 0xFFFFFFFFFFFFFFFFFFFFFFFFFFFFFFFFFFFFFFFF AND PUSH20 0xFFFFFFFFFFFFFFFFFFFFFFFFFFFFFFFFFFFFFFFF AND PUSH4 0x5CB7E8AF PUSH1 0x40 MLOAD DUP2 PUSH4 0xFFFFFFFF AND PUSH1 0xE0 SHL DUP2 MSTORE PUSH1 0x4 ADD PUSH1 0x20 PUSH1 0x40 MLOAD DUP1 DUP4 SUB DUP2 DUP7 DUP1 EXTCODESIZE ISZERO DUP1 ISZERO PUSH2 0x10AB JUMPI PUSH1 0x0 DUP1 REVERT JUMPDEST POP GAS STATICCALL ISZERO DUP1 ISZERO PUSH2 0x10BF JUMPI RETURNDATASIZE PUSH1 0x0 DUP1 RETURNDATACOPY RETURNDATASIZE PUSH1 0x0 REVERT JUMPDEST POP POP POP POP PUSH1 0x40 MLOAD RETURNDATASIZE PUSH1 0x1F NOT PUSH1 0x1F DUP3 ADD AND DUP3 ADD DUP1 PUSH1 0x40 MSTORE POP DUP2 ADD SWAP1 PUSH2 0x10E3 SWAP2 SWAP1 PUSH2 0x1648 JUMP JUMPDEST SGT ISZERO PUSH2 0x11BE JUMPI PUSH1 0x1 PUSH1 0x4 PUSH1 0x0 DUP4 PUSH20 0xFFFFFFFFFFFFFFFFFFFFFFFFFFFFFFFFFFFFFFFF AND PUSH20 0xFFFFFFFFFFFFFFFFFFFFFFFFFFFFFFFFFFFFFFFF AND DUP2 MSTORE PUSH1 0x20 ADD SWAP1 DUP2 MSTORE PUSH1 0x20 ADD PUSH1 0x0 KECCAK256 PUSH1 0x0 PUSH2 0x100 EXP DUP2 SLOAD DUP2 PUSH1 0xFF MUL NOT AND SWAP1 DUP4 ISZERO ISZERO MUL OR SWAP1 SSTORE POP PUSH1 0x1 PUSH1 0x3 PUSH1 0x0 DUP3 DUP3 SLOAD PUSH2 0x1154 SWAP2 SWAP1 PUSH2 0x1A33 JUMP JUMPDEST SWAP3 POP POP DUP2 SWAP1 SSTORE POP PUSH1 0x5 PUSH1 0x0 DUP3 PUSH20 0xFFFFFFFFFFFFFFFFFFFFFFFFFFFFFFFFFFFFFFFF AND PUSH20 0xFFFFFFFFFFFFFFFFFFFFFFFFFFFFFFFFFFFFFFFF AND DUP2 MSTORE PUSH1 0x20 ADD SWAP1 DUP2 MSTORE PUSH1 0x20 ADD PUSH1 0x0 KECCAK256 PUSH1 0x0 PUSH2 0x100 EXP DUP2 SLOAD SWAP1 PUSH20 0xFFFFFFFFFFFFFFFFFFFFFFFFFFFFFFFFFFFFFFFF MUL NOT AND SWAP1 SSTORE JUMPDEST POP JUMP JUMPDEST PUSH1 0x1 ISZERO ISZERO PUSH1 0x4 PUSH1 0x0 CALLER PUSH20 0xFFFFFFFFFFFFFFFFFFFFFFFFFFFFFFFFFFFFFFFF AND PUSH20 0xFFFFFFFFFFFFFFFFFFFFFFFFFFFFFFFFFFFFFFFF AND DUP2 MSTORE PUSH1 0x20 ADD SWAP1 DUP2 MSTORE PUSH1 0x20 ADD PUSH1 0x0 KECCAK256 PUSH1 0x0 SWAP1 SLOAD SWAP1 PUSH2 0x100 EXP SWAP1 DIV PUSH1 0xFF AND ISZERO ISZERO EQ PUSH2 0x1254 JUMPI PUSH1 0x40 MLOAD PUSH32 0x8C379A000000000000000000000000000000000000000000000000000000000 DUP2 MSTORE PUSH1 0x4 ADD PUSH2 0x124B SWAP1 PUSH2 0x1824 JUMP JUMPDEST PUSH1 0x40 MLOAD DUP1 SWAP2 SUB SWAP1 REVERT JUMPDEST PUSH1 0x0 PUSH20 0xFFFFFFFFFFFFFFFFFFFFFFFFFFFFFFFFFFFFFFFF AND DUP2 PUSH20 0xFFFFFFFFFFFFFFFFFFFFFFFFFFFFFFFFFFFFFFFF AND EQ ISZERO PUSH2 0x12C4 JUMPI PUSH1 0x40 MLOAD PUSH32 0x8C379A000000000000000000000000000000000000000000000000000000000 DUP2 MSTORE PUSH1 0x4 ADD PUSH2 0x12BB SWAP1 PUSH2 0x18C4 JUMP JUMPDEST PUSH1 0x40 MLOAD DUP1 SWAP2 SUB SWAP1 REVERT JUMPDEST PUSH1 0x1 ISZERO ISZERO PUSH1 0x2 PUSH1 0x0 DUP4 PUSH20 0xFFFFFFFFFFFFFFFFFFFFFFFFFFFFFFFFFFFFFFFF AND PUSH20 0xFFFFFFFFFFFFFFFFFFFFFFFFFFFFFFFFFFFFFFFF AND DUP2 MSTORE PUSH1 0x20 ADD SWAP1 DUP2 MSTORE PUSH1 0x20 ADD PUSH1 0x0 KECCAK256 PUSH1 0x0 SWAP1 SLOAD SWAP1 PUSH2 0x100 EXP SWAP1 DIV PUSH1 0xFF AND ISZERO ISZERO EQ ISZERO PUSH2 0x1358 JUMPI PUSH1 0x40 MLOAD PUSH32 0x8C379A000000000000000000000000000000000000000000000000000000000 DUP2 MSTORE PUSH1 0x4 ADD PUSH2 0x134F SWAP1 PUSH2 0x1884 JUMP JUMPDEST PUSH1 0x40 MLOAD DUP1 SWAP2 SUB SWAP1 REVERT JUMPDEST PUSH1 0x1 PUSH1 0x2 PUSH1 0x0 DUP4 PUSH20 0xFFFFFFFFFFFFFFFFFFFFFFFFFFFFFFFFFFFFFFFF AND PUSH20 0xFFFFFFFFFFFFFFFFFFFFFFFFFFFFFFFFFFFFFFFF AND DUP2 MSTORE PUSH1 0x20 ADD SWAP1 DUP2 MSTORE PUSH1 0x20 ADD PUSH1 0x0 KECCAK256 PUSH1 0x0 PUSH2 0x100 EXP DUP2 SLOAD DUP2 PUSH1 0xFF MUL NOT AND SWAP1 DUP4 ISZERO ISZERO MUL OR SWAP1 SSTORE POP POP JUMP JUMPDEST PUSH1 0x0 PUSH1 0x1 ISZERO ISZERO PUSH1 0x1 PUSH1 0x0 DUP5 PUSH20 0xFFFFFFFFFFFFFFFFFFFFFFFFFFFFFFFFFFFFFFFF AND PUSH20 0xFFFFFFFFFFFFFFFFFFFFFFFFFFFFFFFFFFFFFFFF AND DUP2 MSTORE PUSH1 0x20 ADD SWAP1 DUP2 MSTORE PUSH1 0x20 ADD PUSH1 0x0 KECCAK256 PUSH1 0x0 SWAP1 SLOAD SWAP1 PUSH2 0x100 EXP SWAP1 DIV PUSH1 0xFF AND ISZERO ISZERO EQ ISZERO PUSH2 0x1417 JUMPI PUSH1 0x1 SWAP1 POP PUSH2 0x141C JUMP JUMPDEST PUSH1 0x0 SWAP1 POP JUMPDEST SWAP2 SWAP1 POP JUMP JUMPDEST PUSH1 0x1 ISZERO ISZERO PUSH1 0x4 PUSH1 0x0 CALLER PUSH20 0xFFFFFFFFFFFFFFFFFFFFFFFFFFFFFFFFFFFFFFFF AND PUSH20 0xFFFFFFFFFFFFFFFFFFFFFFFFFFFFFFFFFFFFFFFF AND DUP2 MSTORE PUSH1 0x20 ADD SWAP1 DUP2 MSTORE PUSH1 0x20 ADD PUSH1 0x0 KECCAK256 PUSH1 0x0 SWAP1 SLOAD SWAP1 PUSH2 0x100 EXP SWAP1 DIV PUSH1 0xFF AND ISZERO ISZERO EQ PUSH2 0x14B4 JUMPI PUSH1 0x40 MLOAD PUSH32 0x8C379A000000000000000000000000000000000000000000000000000000000 DUP2 MSTORE PUSH1 0x4 ADD PUSH2 0x14AB SWAP1 PUSH2 0x1824 JUMP JUMPDEST PUSH1 0x40 MLOAD DUP1 SWAP2 SUB SWAP1 REVERT JUMPDEST PUSH1 0x1 ISZERO ISZERO PUSH1 0x2 PUSH1 0x0 DUP4 PUSH20 0xFFFFFFFFFFFFFFFFFFFFFFFFFFFFFFFFFFFFFFFF AND PUSH20 0xFFFFFFFFFFFFFFFFFFFFFFFFFFFFFFFFFFFFFFFF AND DUP2 MSTORE PUSH1 0x20 ADD SWAP1 DUP2 MSTORE PUSH1 0x20 ADD PUSH1 0x0 KECCAK256 PUSH1 0x0 SWAP1 SLOAD SWAP1 PUSH2 0x100 EXP SWAP1 DIV PUSH1 0xFF AND ISZERO ISZERO EQ PUSH2 0x1547 JUMPI PUSH1 0x40 MLOAD PUSH32 0x8C379A000000000000000000000000000000000000000000000000000000000 DUP2 MSTORE PUSH1 0x4 ADD PUSH2 0x153E SWAP1 PUSH2 0x1804 JUMP JUMPDEST PUSH1 0x40 MLOAD DUP1 SWAP2 SUB SWAP1 REVERT JUMPDEST PUSH1 0x0 PUSH1 0x2 PUSH1 0x0 DUP4 PUSH20 0xFFFFFFFFFFFFFFFFFFFFFFFFFFFFFFFFFFFFFFFF AND PUSH20 0xFFFFFFFFFFFFFFFFFFFFFFFFFFFFFFFFFFFFFFFF AND DUP2 MSTORE PUSH1 0x20 ADD SWAP1 DUP2 MSTORE PUSH1 0x20 ADD PUSH1 0x0 KECCAK256 PUSH1 0x0 PUSH2 0x100 EXP DUP2 SLOAD DUP2 PUSH1 0xFF MUL NOT AND SWAP1 DUP4 ISZERO ISZERO MUL OR SWAP1 SSTORE POP POP JUMP JUMPDEST PUSH2 0x623 DUP1 PUSH2 0x1DC1 DUP4 CODECOPY ADD SWAP1 JUMP JUMPDEST PUSH1 0x0 DUP2 CALLDATALOAD SWAP1 POP PUSH2 0x15BE DUP2 PUSH2 0x1D7B JUMP JUMPDEST SWAP3 SWAP2 POP POP JUMP JUMPDEST PUSH1 0x0 DUP2 MLOAD SWAP1 POP PUSH2 0x15D3 DUP2 PUSH2 0x1D92 JUMP JUMPDEST SWAP3 SWAP2 POP POP JUMP JUMPDEST PUSH1 0x0 DUP2 MLOAD SWAP1 POP PUSH2 0x15E8 DUP2 PUSH2 0x1DA9 JUMP JUMPDEST SWAP3 SWAP2 POP POP JUMP JUMPDEST PUSH1 0x0 PUSH1 0x20 DUP3 DUP5 SUB SLT ISZERO PUSH2 0x1604 JUMPI PUSH2 0x1603 PUSH2 0x1B6D JUMP JUMPDEST JUMPDEST PUSH1 0x0 PUSH2 0x1612 DUP5 DUP3 DUP6 ADD PUSH2 0x15AF JUMP JUMPDEST SWAP2 POP POP SWAP3 SWAP2 POP POP JUMP JUMPDEST PUSH1 0x0 PUSH1 0x20 DUP3 DUP5 SUB SLT ISZERO PUSH2 0x1631 JUMPI PUSH2 0x1630 PUSH2 0x1B6D JUMP JUMPDEST JUMPDEST PUSH1 0x0 PUSH2 0x163F DUP5 DUP3 DUP6 ADD PUSH2 0x15C4 JUMP JUMPDEST SWAP2 POP POP SWAP3 SWAP2 POP POP JUMP JUMPDEST PUSH1 0x0 PUSH1 0x20 DUP3 DUP5 SUB SLT ISZERO PUSH2 0x165E JUMPI PUSH2 0x165D PUSH2 0x1B6D JUMP JUMPDEST JUMPDEST PUSH1 0x0 PUSH2 0x166C DUP5 DUP3 DUP6 ADD PUSH2 0x15D9 JUMP JUMPDEST SWAP2 POP POP SWAP3 SWAP2 POP POP JUMP JUMPDEST PUSH2 0x167E DUP2 PUSH2 0x1AC7 JUMP JUMPDEST DUP3 MSTORE POP POP JUMP JUMPDEST PUSH2 0x168D DUP2 PUSH2 0x1AD9 JUMP JUMPDEST DUP3 MSTORE POP POP JUMP JUMPDEST PUSH1 0x0 PUSH2 0x16A0 PUSH1 0x37 DUP4 PUSH2 0x1924 JUMP JUMPDEST SWAP2 POP PUSH2 0x16AB DUP3 PUSH2 0x1B72 JUMP JUMPDEST PUSH1 0x40 DUP3 ADD SWAP1 POP SWAP2 SWAP1 POP JUMP JUMPDEST PUSH1 0x0 PUSH2 0x16C3 PUSH1 0x14 DUP4 PUSH2 0x1924 JUMP JUMPDEST SWAP2 POP PUSH2 0x16CE DUP3 PUSH2 0x1BC1 JUMP JUMPDEST PUSH1 0x20 DUP3 ADD SWAP1 POP SWAP2 SWAP1 POP JUMP JUMPDEST PUSH1 0x0 PUSH2 0x16E6 PUSH1 0x21 DUP4 PUSH2 0x1924 JUMP JUMPDEST SWAP2 POP PUSH2 0x16F1 DUP3 PUSH2 0x1BEA JUMP JUMPDEST PUSH1 0x40 DUP3 ADD SWAP1 POP SWAP2 SWAP1 POP JUMP JUMPDEST PUSH1 0x0 PUSH2 0x1709 PUSH1 0x1E DUP4 PUSH2 0x1924 JUMP JUMPDEST SWAP2 POP PUSH2 0x1714 DUP3 PUSH2 0x1C39 JUMP JUMPDEST PUSH1 0x20 DUP3 ADD SWAP1 POP SWAP2 SWAP1 POP JUMP JUMPDEST PUSH1 0x0 PUSH2 0x172C PUSH1 0x1E DUP4 PUSH2 0x1924 JUMP JUMPDEST SWAP2 POP PUSH2 0x1737 DUP3 PUSH2 0x1C62 JUMP JUMPDEST PUSH1 0x20 DUP3 ADD SWAP1 POP SWAP2 SWAP1 POP JUMP JUMPDEST PUSH1 0x0 PUSH2 0x174F PUSH1 0x1B DUP4 PUSH2 0x1924 JUMP JUMPDEST SWAP2 POP PUSH2 0x175A DUP3 PUSH2 0x1C8B JUMP JUMPDEST PUSH1 0x20 DUP3 ADD SWAP1 POP SWAP2 SWAP1 POP JUMP JUMPDEST PUSH1 0x0 PUSH2 0x1772 PUSH1 0x21 DUP4 PUSH2 0x1924 JUMP JUMPDEST SWAP2 POP PUSH2 0x177D DUP3 PUSH2 0x1CB4 JUMP JUMPDEST PUSH1 0x40 DUP3 ADD SWAP1 POP SWAP2 SWAP1 POP JUMP JUMPDEST PUSH1 0x0 PUSH2 0x1795 PUSH1 0x16 DUP4 PUSH2 0x1924 JUMP JUMPDEST SWAP2 POP PUSH2 0x17A0 DUP3 PUSH2 0x1D03 JUMP JUMPDEST PUSH1 0x20 DUP3 ADD SWAP1 POP SWAP2 SWAP1 POP JUMP JUMPDEST PUSH1 0x0 PUSH2 0x17B8 PUSH1 0x2D DUP4 PUSH2 0x1924 JUMP JUMPDEST SWAP2 POP PUSH2 0x17C3 DUP3 PUSH2 0x1D2C JUMP JUMPDEST PUSH1 0x40 DUP3 ADD SWAP1 POP SWAP2 SWAP1 POP JUMP JUMPDEST PUSH1 0x0 PUSH1 0x20 DUP3 ADD SWAP1 POP PUSH2 0x17E3 PUSH1 0x0 DUP4 ADD DUP5 PUSH2 0x1675 JUMP JUMPDEST SWAP3 SWAP2 POP POP JUMP JUMPDEST PUSH1 0x0 PUSH1 0x20 DUP3 ADD SWAP1 POP PUSH2 0x17FE PUSH1 0x0 DUP4 ADD DUP5 PUSH2 0x1684 JUMP JUMPDEST SWAP3 SWAP2 POP POP JUMP JUMPDEST PUSH1 0x0 PUSH1 0x20 DUP3 ADD SWAP1 POP DUP2 DUP2 SUB PUSH1 0x0 DUP4 ADD MSTORE PUSH2 0x181D DUP2 PUSH2 0x1693 JUMP JUMPDEST SWAP1 POP SWAP2 SWAP1 POP JUMP JUMPDEST PUSH1 0x0 PUSH1 0x20 DUP3 ADD SWAP1 POP DUP2 DUP2 SUB PUSH1 0x0 DUP4 ADD MSTORE PUSH2 0x183D DUP2 PUSH2 0x16B6 JUMP JUMPDEST SWAP1 POP SWAP2 SWAP1 POP JUMP JUMPDEST PUSH1 0x0 PUSH1 0x20 DUP3 ADD SWAP1 POP DUP2 DUP2 SUB PUSH1 0x0 DUP4 ADD MSTORE PUSH2 0x185D DUP2 PUSH2 0x16D9 JUMP JUMPDEST SWAP1 POP SWAP2 SWAP1 POP JUMP JUMPDEST PUSH1 0x0 PUSH1 0x20 DUP3 ADD SWAP1 POP DUP2 DUP2 SUB PUSH1 0x0 DUP4 ADD MSTORE PUSH2 0x187D DUP2 PUSH2 0x16FC JUMP JUMPDEST SWAP1 POP SWAP2 SWAP1 POP JUMP JUMPDEST PUSH1 0x0 PUSH1 0x20 DUP3 ADD SWAP1 POP DUP2 DUP2 SUB PUSH1 0x0 DUP4 ADD MSTORE PUSH2 0x189D DUP2 PUSH2 0x171F JUMP JUMPDEST SWAP1 POP SWAP2 SWAP1 POP JUMP JUMPDEST PUSH1 0x0 PUSH1 0x20 DUP3 ADD SWAP1 POP DUP2 DUP2 SUB PUSH1 0x0 DUP4 ADD MSTORE PUSH2 0x18BD DUP2 PUSH2 0x1742 JUMP JUMPDEST SWAP1 POP SWAP2 SWAP1 POP JUMP JUMPDEST PUSH1 0x0 PUSH1 0x20 DUP3 ADD SWAP1 POP DUP2 DUP2 SUB PUSH1 0x0 DUP4 ADD MSTORE PUSH2 0x18DD DUP2 PUSH2 0x1765 JUMP JUMPDEST SWAP1 POP SWAP2 SWAP1 POP JUMP JUMPDEST PUSH1 0x0 PUSH1 0x20 DUP3 ADD SWAP1 POP DUP2 DUP2 SUB PUSH1 0x0 DUP4 ADD MSTORE PUSH2 0x18FD DUP2 PUSH2 0x1788 JUMP JUMPDEST SWAP1 POP SWAP2 SWAP1 POP JUMP JUMPDEST PUSH1 0x0 PUSH1 0x20 DUP3 ADD SWAP1 POP DUP2 DUP2 SUB PUSH1 0x0 DUP4 ADD MSTORE PUSH2 0x191D DUP2 PUSH2 0x17AB JUMP JUMPDEST SWAP1 POP SWAP2 SWAP1 POP JUMP JUMPDEST PUSH1 0x0 DUP3 DUP3 MSTORE PUSH1 0x20 DUP3 ADD SWAP1 POP SWAP3 SWAP2 POP POP JUMP JUMPDEST PUSH1 0x0 PUSH2 0x1940 DUP3 PUSH2 0x1AE5 JUMP JUMPDEST SWAP2 POP PUSH2 0x194B DUP4 PUSH2 0x1AE5 JUMP JUMPDEST SWAP3 POP DUP2 PUSH32 0x7FFFFFFFFFFFFFFFFFFFFFFFFFFFFFFFFFFFFFFFFFFFFFFFFFFFFFFFFFFFFFFF SUB DUP4 SGT PUSH1 0x0 DUP4 SLT ISZERO AND ISZERO PUSH2 0x1986 JUMPI PUSH2 0x1985 PUSH2 0x1B0F JUMP JUMPDEST JUMPDEST DUP2 PUSH32 0x8000000000000000000000000000000000000000000000000000000000000000 SUB DUP4 SLT PUSH1 0x0 DUP4 SLT AND ISZERO PUSH2 0x19BE JUMPI PUSH2 0x19BD PUSH2 0x1B0F JUMP JUMPDEST JUMPDEST DUP3 DUP3 ADD SWAP1 POP SWAP3 SWAP2 POP POP JUMP JUMPDEST PUSH1 0x0 PUSH2 0x19D4 DUP3 PUSH2 0x1AE5 JUMP JUMPDEST SWAP2 POP PUSH2 0x19DF DUP4 PUSH2 0x1AE5 JUMP JUMPDEST SWAP3 POP DUP3 PUSH2 0x19EF JUMPI PUSH2 0x19EE PUSH2 0x1B3E JUMP JUMPDEST JUMPDEST PUSH1 0x1 PUSH1 0x0 SUB DUP4 EQ PUSH32 0x8000000000000000000000000000000000000000000000000000000000000000 DUP4 EQ AND ISZERO PUSH2 0x1A28 JUMPI PUSH2 0x1A27 PUSH2 0x1B0F JUMP JUMPDEST JUMPDEST DUP3 DUP3 SDIV SWAP1 POP SWAP3 SWAP2 POP POP JUMP JUMPDEST PUSH1 0x0 PUSH2 0x1A3E DUP3 PUSH2 0x1AE5 JUMP JUMPDEST SWAP2 POP PUSH2 0x1A49 DUP4 PUSH2 0x1AE5 JUMP JUMPDEST SWAP3 POP DUP3 PUSH32 0x8000000000000000000000000000000000000000000000000000000000000000 ADD DUP3 SLT PUSH1 0x0 DUP5 SLT ISZERO AND ISZERO PUSH2 0x1A84 JUMPI PUSH2 0x1A83 PUSH2 0x1B0F JUMP JUMPDEST JUMPDEST DUP3 PUSH32 0x7FFFFFFFFFFFFFFFFFFFFFFFFFFFFFFFFFFFFFFFFFFFFFFFFFFFFFFFFFFFFFFF ADD DUP3 SGT PUSH1 0x0 DUP5 SLT AND ISZERO PUSH2 0x1ABC JUMPI PUSH2 0x1ABB PUSH2 0x1B0F JUMP JUMPDEST JUMPDEST DUP3 DUP3 SUB SWAP1 POP SWAP3 SWAP2 POP POP JUMP JUMPDEST PUSH1 0x0 PUSH2 0x1AD2 DUP3 PUSH2 0x1AEF JUMP JUMPDEST SWAP1 POP SWAP2 SWAP1 POP JUMP JUMPDEST PUSH1 0x0 DUP2 ISZERO ISZERO SWAP1 POP SWAP2 SWAP1 POP JUMP JUMPDEST PUSH1 0x0 DUP2 SWAP1 POP SWAP2 SWAP1 POP JUMP JUMPDEST PUSH1 0x0 PUSH20 0xFFFFFFFFFFFFFFFFFFFFFFFFFFFFFFFFFFFFFFFF DUP3 AND SWAP1 POP SWAP2 SWAP1 POP JUMP JUMPDEST PUSH32 0x4E487B7100000000000000000000000000000000000000000000000000000000 PUSH1 0x0 MSTORE PUSH1 0x11 PUSH1 0x4 MSTORE PUSH1 0x24 PUSH1 0x0 REVERT JUMPDEST PUSH32 0x4E487B7100000000000000000000000000000000000000000000000000000000 PUSH1 0x0 MSTORE PUSH1 0x12 PUSH1 0x4 MSTORE PUSH1 0x24 PUSH1 0x0 REVERT JUMPDEST PUSH1 0x0 DUP1 REVERT JUMPDEST PUSH32 0x43616E6E6F742072656D6F766520616E20616464726573732074686174206973 PUSH1 0x0 DUP3 ADD MSTORE PUSH32 0x206E6F7420616C72656164792061207665726966696572000000000000000000 PUSH1 0x20 DUP3 ADD MSTORE POP JUMP JUMPDEST PUSH32 0x596F7520617265206E6F7420616E2061646D696E000000000000000000000000 PUSH1 0x0 DUP3 ADD MSTORE POP JUMP JUMPDEST PUSH32 0x546869732061646D696E2068617320616C7265616479206265656E2061646465 PUSH1 0x0 DUP3 ADD MSTORE PUSH32 0x6400000000000000000000000000000000000000000000000000000000000000 PUSH1 0x20 DUP3 ADD MSTORE POP JUMP JUMPDEST PUSH32 0x43616E6E6F742076657269667920746865207A65726F20616464726573730000 PUSH1 0x0 DUP3 ADD MSTORE POP JUMP JUMPDEST PUSH32 0x4164647265737320697320616C72656164792061207665726966696665720000 PUSH1 0x0 DUP3 ADD MSTORE POP JUMP JUMPDEST PUSH32 0x4164647265737320697320616C72656164792076657269666965640000000000 PUSH1 0x0 DUP3 ADD MSTORE POP JUMP JUMPDEST PUSH32 0x5A65726F20616464726573732063616E6E6F7420626520612076657269666965 PUSH1 0x0 DUP3 ADD MSTORE PUSH32 0x7200000000000000000000000000000000000000000000000000000000000000 PUSH1 0x20 DUP3 ADD MSTORE POP JUMP JUMPDEST PUSH32 0x596F7520617265206E6F74206120766572696669657200000000000000000000 PUSH1 0x0 DUP3 ADD MSTORE POP JUMP JUMPDEST PUSH32 0x43616E27742072656D6F766520616E2061646472657373207768696368206973 PUSH1 0x0 DUP3 ADD MSTORE PUSH32 0x206E6F7420616E2061646D696E00000000000000000000000000000000000000 PUSH1 0x20 DUP3 ADD MSTORE POP JUMP JUMPDEST PUSH2 0x1D84 DUP2 PUSH2 0x1AC7 JUMP JUMPDEST DUP2 EQ PUSH2 0x1D8F JUMPI PUSH1 0x0 DUP1 REVERT JUMPDEST POP JUMP JUMPDEST PUSH2 0x1D9B DUP2 PUSH2 0x1AD9 JUMP JUMPDEST DUP2 EQ PUSH2 0x1DA6 JUMPI PUSH1 0x0 DUP1 REVERT JUMPDEST POP JUMP JUMPDEST PUSH2 0x1DB2 DUP2 PUSH2 0x1AE5 JUMP JUMPDEST DUP2 EQ PUSH2 0x1DBD JUMPI PUSH1 0x0 DUP1 REVERT JUMPDEST POP JUMP INVALID PUSH1 0x80 PUSH1 0x40 MSTORE CALLVALUE DUP1 ISZERO PUSH2 0x10 JUMPI PUSH1 0x0 DUP1 REVERT JUMPDEST POP PUSH1 0x1 PUSH1 0x0 DUP1 PUSH2 0x100 EXP DUP2 SLOAD DUP2 PUSH1 0xFF MUL NOT AND SWAP1 DUP4 ISZERO ISZERO MUL OR SWAP1 SSTORE POP PUSH2 0x5E9 DUP1 PUSH2 0x3A PUSH1 0x0 CODECOPY PUSH1 0x0 RETURN INVALID PUSH1 0x80 PUSH1 0x40 MSTORE CALLVALUE DUP1 ISZERO PUSH2 0x10 JUMPI PUSH1 0x0 DUP1 REVERT JUMPDEST POP PUSH1 0x4 CALLDATASIZE LT PUSH2 0x62 JUMPI PUSH1 0x0 CALLDATALOAD PUSH1 0xE0 SHR DUP1 PUSH4 0x9EEF43E EQ PUSH2 0x67 JUMPI DUP1 PUSH4 0x5CB7E8AF EQ PUSH2 0x97 JUMPI DUP1 PUSH4 0x69596D70 EQ PUSH2 0xB5 JUMPI DUP1 PUSH4 0x7727D3AA EQ PUSH2 0xD1 JUMPI DUP1 PUSH4 0x929155BF EQ PUSH2 0xED JUMPI DUP1 PUSH4 0x957AA58C EQ PUSH2 0x10B JUMPI JUMPDEST PUSH1 0x0 DUP1 REVERT JUMPDEST PUSH2 0x81 PUSH1 0x4 DUP1 CALLDATASIZE SUB DUP2 ADD SWAP1 PUSH2 0x7C SWAP2 SWAP1 PUSH2 0x38E JUMP JUMPDEST PUSH2 0x129 JUMP JUMPDEST PUSH1 0x40 MLOAD PUSH2 0x8E SWAP2 SWAP1 PUSH2 0x3FC JUMP JUMPDEST PUSH1 0x40 MLOAD DUP1 SWAP2 SUB SWAP1 RETURN JUMPDEST PUSH2 0x9F PUSH2 0x149 JUMP JUMPDEST PUSH1 0x40 MLOAD PUSH2 0xAC SWAP2 SWAP1 PUSH2 0x417 JUMP JUMPDEST PUSH1 0x40 MLOAD DUP1 SWAP2 SUB SWAP1 RETURN JUMPDEST PUSH2 0xCF PUSH1 0x4 DUP1 CALLDATASIZE SUB DUP2 ADD SWAP1 PUSH2 0xCA SWAP2 SWAP1 PUSH2 0x38E JUMP JUMPDEST PUSH2 0x14F JUMP JUMPDEST STOP JUMPDEST PUSH2 0xEB PUSH1 0x4 DUP1 CALLDATASIZE SUB DUP2 ADD SWAP1 PUSH2 0xE6 SWAP2 SWAP1 PUSH2 0x38E JUMP JUMPDEST PUSH2 0x258 JUMP JUMPDEST STOP JUMPDEST PUSH2 0xF5 PUSH2 0x362 JUMP JUMPDEST PUSH1 0x40 MLOAD PUSH2 0x102 SWAP2 SWAP1 PUSH2 0x417 JUMP JUMPDEST PUSH1 0x40 MLOAD DUP1 SWAP2 SUB SWAP1 RETURN JUMPDEST PUSH2 0x113 PUSH2 0x368 JUMP JUMPDEST PUSH1 0x40 MLOAD PUSH2 0x120 SWAP2 SWAP1 PUSH2 0x3FC JUMP JUMPDEST PUSH1 0x40 MLOAD DUP1 SWAP2 SUB SWAP1 RETURN JUMPDEST PUSH1 0x3 PUSH1 0x20 MSTORE DUP1 PUSH1 0x0 MSTORE PUSH1 0x40 PUSH1 0x0 KECCAK256 PUSH1 0x0 SWAP2 POP SLOAD SWAP1 PUSH2 0x100 EXP SWAP1 DIV PUSH1 0xFF AND DUP2 JUMP JUMPDEST PUSH1 0x2 SLOAD DUP2 JUMP JUMPDEST DUP1 PUSH1 0x0 ISZERO ISZERO PUSH1 0x3 PUSH1 0x0 DUP4 PUSH20 0xFFFFFFFFFFFFFFFFFFFFFFFFFFFFFFFFFFFFFFFF AND PUSH20 0xFFFFFFFFFFFFFFFFFFFFFFFFFFFFFFFFFFFFFFFF AND DUP2 MSTORE PUSH1 0x20 ADD SWAP1 DUP2 MSTORE PUSH1 0x20 ADD PUSH1 0x0 KECCAK256 PUSH1 0x0 SWAP1 SLOAD SWAP1 PUSH2 0x100 EXP SWAP1 DIV PUSH1 0xFF AND ISZERO ISZERO EQ PUSH2 0x1E3 JUMPI PUSH1 0x40 MLOAD PUSH32 0x8C379A000000000000000000000000000000000000000000000000000000000 DUP2 MSTORE PUSH1 0x4 ADD PUSH2 0x1DA SWAP1 PUSH2 0x432 JUMP JUMPDEST PUSH1 0x40 MLOAD DUP1 SWAP2 SUB SWAP1 REVERT JUMPDEST PUSH1 0x1 DUP1 PUSH1 0x0 DUP3 DUP3 SLOAD PUSH2 0x1F5 SWAP2 SWAP1 PUSH2 0x463 JUMP JUMPDEST SWAP3 POP POP DUP2 SWAP1 SSTORE POP PUSH1 0x1 PUSH1 0x3 PUSH1 0x0 DUP5 PUSH20 0xFFFFFFFFFFFFFFFFFFFFFFFFFFFFFFFFFFFFFFFF AND PUSH20 0xFFFFFFFFFFFFFFFFFFFFFFFFFFFFFFFFFFFFFFFF AND DUP2 MSTORE PUSH1 0x20 ADD SWAP1 DUP2 MSTORE PUSH1 0x20 ADD PUSH1 0x0 KECCAK256 PUSH1 0x0 PUSH2 0x100 EXP DUP2 SLOAD DUP2 PUSH1 0xFF MUL NOT AND SWAP1 DUP4 ISZERO ISZERO MUL OR SWAP1 SSTORE POP POP POP JUMP JUMPDEST DUP1 PUSH1 0x0 ISZERO ISZERO PUSH1 0x3 PUSH1 0x0 DUP4 PUSH20 0xFFFFFFFFFFFFFFFFFFFFFFFFFFFFFFFFFFFFFFFF AND PUSH20 0xFFFFFFFFFFFFFFFFFFFFFFFFFFFFFFFFFFFFFFFF AND DUP2 MSTORE PUSH1 0x20 ADD SWAP1 DUP2 MSTORE PUSH1 0x20 ADD PUSH1 0x0 KECCAK256 PUSH1 0x0 SWAP1 SLOAD SWAP1 PUSH2 0x100 EXP SWAP1 DIV PUSH1 0xFF AND ISZERO ISZERO EQ PUSH2 0x2EC JUMPI PUSH1 0x40 MLOAD PUSH32 0x8C379A000000000000000000000000000000000000000000000000000000000 DUP2 MSTORE PUSH1 0x4 ADD PUSH2 0x2E3 SWAP1 PUSH2 0x432 JUMP JUMPDEST PUSH1 0x40 MLOAD DUP1 SWAP2 SUB SWAP1 REVERT JUMPDEST PUSH1 0x1 PUSH1 0x2 PUSH1 0x0 DUP3 DUP3 SLOAD PUSH2 0x2FF SWAP2 SWAP1 PUSH2 0x463 JUMP JUMPDEST SWAP3 POP POP DUP2 SWAP1 SSTORE POP PUSH1 0x1 PUSH1 0x3 PUSH1 0x0 DUP5 PUSH20 0xFFFFFFFFFFFFFFFFFFFFFFFFFFFFFFFFFFFFFFFF AND PUSH20 0xFFFFFFFFFFFFFFFFFFFFFFFFFFFFFFFFFFFFFFFF AND DUP2 MSTORE PUSH1 0x20 ADD SWAP1 DUP2 MSTORE PUSH1 0x20 ADD PUSH1 0x0 KECCAK256 PUSH1 0x0 PUSH2 0x100 EXP DUP2 SLOAD DUP2 PUSH1 0xFF MUL NOT AND SWAP1 DUP4 ISZERO ISZERO MUL OR SWAP1 SSTORE POP POP POP JUMP JUMPDEST PUSH1 0x1 SLOAD DUP2 JUMP JUMPDEST PUSH1 0x0 DUP1 SLOAD SWAP1 PUSH2 0x100 EXP SWAP1 DIV PUSH1 0xFF AND DUP2 JUMP JUMPDEST PUSH1 0x0 DUP2 CALLDATALOAD SWAP1 POP PUSH2 0x388 DUP2 PUSH2 0x59C JUMP JUMPDEST SWAP3 SWAP2 POP POP JUMP JUMPDEST PUSH1 0x0 PUSH1 0x20 DUP3 DUP5 SUB SLT ISZERO PUSH2 0x3A4 JUMPI PUSH2 0x3A3 PUSH2 0x56E JUMP JUMPDEST JUMPDEST PUSH1 0x0 PUSH2 0x3B2 DUP5 DUP3 DUP6 ADD PUSH2 0x379 JUMP JUMPDEST SWAP2 POP POP SWAP3 SWAP2 POP POP JUMP JUMPDEST PUSH2 0x3C4 DUP2 PUSH2 0x509 JUMP JUMPDEST DUP3 MSTORE POP POP JUMP JUMPDEST PUSH2 0x3D3 DUP2 PUSH2 0x515 JUMP JUMPDEST DUP3 MSTORE POP POP JUMP JUMPDEST PUSH1 0x0 PUSH2 0x3E6 PUSH1 0x19 DUP4 PUSH2 0x452 JUMP JUMPDEST SWAP2 POP PUSH2 0x3F1 DUP3 PUSH2 0x573 JUMP JUMPDEST PUSH1 0x20 DUP3 ADD SWAP1 POP SWAP2 SWAP1 POP JUMP JUMPDEST PUSH1 0x0 PUSH1 0x20 DUP3 ADD SWAP1 POP PUSH2 0x411 PUSH1 0x0 DUP4 ADD DUP5 PUSH2 0x3BB JUMP JUMPDEST SWAP3 SWAP2 POP POP JUMP JUMPDEST PUSH1 0x0 PUSH1 0x20 DUP3 ADD SWAP1 POP PUSH2 0x42C PUSH1 0x0 DUP4 ADD DUP5 PUSH2 0x3CA JUMP JUMPDEST SWAP3 SWAP2 POP POP JUMP JUMPDEST PUSH1 0x0 PUSH1 0x20 DUP3 ADD SWAP1 POP DUP2 DUP2 SUB PUSH1 0x0 DUP4 ADD MSTORE PUSH2 0x44B DUP2 PUSH2 0x3D9 JUMP JUMPDEST SWAP1 POP SWAP2 SWAP1 POP JUMP JUMPDEST PUSH1 0x0 DUP3 DUP3 MSTORE PUSH1 0x20 DUP3 ADD SWAP1 POP SWAP3 SWAP2 POP POP JUMP JUMPDEST PUSH1 0x0 PUSH2 0x46E DUP3 PUSH2 0x515 JUMP JUMPDEST SWAP2 POP PUSH2 0x479 DUP4 PUSH2 0x515 JUMP JUMPDEST SWAP3 POP DUP2 PUSH32 0x7FFFFFFFFFFFFFFFFFFFFFFFFFFFFFFFFFFFFFFFFFFFFFFFFFFFFFFFFFFFFFFF SUB DUP4 SGT PUSH1 0x0 DUP4 SLT ISZERO AND ISZERO PUSH2 0x4B4 JUMPI PUSH2 0x4B3 PUSH2 0x53F JUMP JUMPDEST JUMPDEST DUP2 PUSH32 0x8000000000000000000000000000000000000000000000000000000000000000 SUB DUP4 SLT PUSH1 0x0 DUP4 SLT AND ISZERO PUSH2 0x4EC JUMPI PUSH2 0x4EB PUSH2 0x53F JUMP JUMPDEST JUMPDEST DUP3 DUP3 ADD SWAP1 POP SWAP3 SWAP2 POP POP JUMP JUMPDEST PUSH1 0x0 PUSH2 0x502 DUP3 PUSH2 0x51F JUMP JUMPDEST SWAP1 POP SWAP2 SWAP1 POP JUMP JUMPDEST PUSH1 0x0 DUP2 ISZERO ISZERO SWAP1 POP SWAP2 SWAP1 POP JUMP JUMPDEST PUSH1 0x0 DUP2 SWAP1 POP SWAP2 SWAP1 POP JUMP JUMPDEST PUSH1 0x0 PUSH20 0xFFFFFFFFFFFFFFFFFFFFFFFFFFFFFFFFFFFFFFFF DUP3 AND SWAP1 POP SWAP2 SWAP1 POP JUMP JUMPDEST PUSH32 0x4E487B7100000000000000000000000000000000000000000000000000000000 PUSH1 0x0 MSTORE PUSH1 0x11 PUSH1 0x4 MSTORE PUSH1 0x24 PUSH1 0x0 REVERT JUMPDEST PUSH1 0x0 DUP1 REVERT JUMPDEST PUSH32 0x416464726573732068617320616C726561647920766F74656400000000000000 PUSH1 0x0 DUP3 ADD MSTORE POP JUMP JUMPDEST PUSH2 0x5A5 DUP2 PUSH2 0x4F7 JUMP JUMPDEST DUP2 EQ PUSH2 0x5B0 JUMPI PUSH1 0x0 DUP1 REVERT JUMPDEST POP JUMP INVALID LOG2 PUSH5 0x6970667358 0x22 SLT KECCAK256 PC DUP12 0xBC 0x2D XOR SSTORE 0xB0 0xB3 PUSH1 0x54 MULMOD 0xA7 0xD2 0xEE TIMESTAMP 0xEA 0xAC 0x5D 0x24 0xCF CALLDATACOPY 0xB1 0x5C 0xAB EQ 0xAE SWAP5 DUP8 0xAA 0xD6 BASEFEE PUSH15 0x64736F6C63430008070033A2646970 PUSH7 0x7358221220F5A7 XOR STOP LT 0xB8 0xC7 DUP13 SSTORE 0xEF SWAP5 0xAD PUSH14 0xBB4ED58FFDCECC522BD6CF577DD1 ADD 0xEB 0xD4 BLOCKHASH 0x5C PUSH5 0x736F6C6343 STOP ADDMOD SMOD STOP CALLER "
				},
				"gasEstimates": {
					"creation": {
						"codeDepositCost": "1848200",
						"executionCost": "infinite",
						"totalCost": "infinite"
					},
					"external": {
						"addVerified(address)": "30963",
						"addVerifier(address)": "29396",
						"isVerified(address)": "2976",
						"isVerifier(address)": "2933",
						"removeVerified(address)": "6515",
						"removeVerifier(address)": "29399",
						"voteToAdd(address)": "infinite",
						"voteToRemove(address)": "infinite"
					}
				},
				"methodIdentifiers": {
					"addVerified(address)": "5dc84e32",
					"addVerifier(address)": "9000b3d6",
					"isVerified(address)": "b9209e33",
					"isVerifier(address)": "33105218",
					"removeVerified(address)": "4487b392",
					"removeVerifier(address)": "ca2dfd0a",
					"voteToAdd(address)": "69596d70",
					"voteToRemove(address)": "7727d3aa"
				}
			},
			"storageLayout": {
				"storage": [
					{
						"astId": 285,
						"contract": "contracts/complex_verify.sol:ComplexVerifty",
						"label": "admin",
						"offset": 0,
						"slot": "0",
						"type": "t_address"
					},
					{
						"astId": 289,
						"contract": "contracts/complex_verify.sol:ComplexVerifty",
						"label": "verifiedAddresses",
						"offset": 0,
						"slot": "1",
						"type": "t_mapping(t_address,t_bool)"
					},
					{
						"astId": 293,
						"contract": "contracts/complex_verify.sol:ComplexVerifty",
						"label": "verifiers",
						"offset": 0,
						"slot": "2",
						"type": "t_mapping(t_address,t_bool)"
					},
					{
						"astId": 82,
						"contract": "contracts/complex_verify.sol:ComplexVerifty",
						"label": "totalAdmins",
						"offset": 0,
						"slot": "3",
						"type": "t_int256"
					},
					{
						"astId": 86,
						"contract": "contracts/complex_verify.sol:ComplexVerifty",
						"label": "admins",
						"offset": 0,
						"slot": "4",
						"type": "t_mapping(t_address,t_bool)"
					},
					{
						"astId": 91,
						"contract": "contracts/complex_verify.sol:ComplexVerifty",
						"label": "elections",
						"offset": 0,
						"slot": "5",
						"type": "t_mapping(t_address,t_contract(Election)74)"
					}
				],
				"types": {
					"t_address": {
						"encoding": "inplace",
						"label": "address",
						"numberOfBytes": "20"
					},
					"t_bool": {
						"encoding": "inplace",
						"label": "bool",
						"numberOfBytes": "1"
					},
					"t_contract(Election)74": {
						"encoding": "inplace",
						"label": "contract Election",
						"numberOfBytes": "20"
					},
					"t_int256": {
						"encoding": "inplace",
						"label": "int256",
						"numberOfBytes": "32"
					},
					"t_mapping(t_address,t_bool)": {
						"encoding": "mapping",
						"key": "t_address",
						"label": "mapping(address => bool)",
						"numberOfBytes": "32",
						"value": "t_bool"
					},
					"t_mapping(t_address,t_contract(Election)74)": {
						"encoding": "mapping",
						"key": "t_address",
						"label": "mapping(address => contract Election)",
						"numberOfBytes": "32",
						"value": "t_contract(Election)74"
					}
				}
			},
			"userdoc": {
				"kind": "user",
				"methods": {},
				"version": 1
			}
		}
	}
}