{
	"contracts/complex_verify.sol": {
		"Election": {
			"abi": [
				{
					"inputs": [],
					"stateMutability": "nonpayable",
					"type": "constructor"
				},
				{
					"inputs": [
						{
							"internalType": "address",
							"name": "",
							"type": "address"
						}
					],
					"name": "hasVoted",
					"outputs": [
						{
							"internalType": "bool",
							"name": "",
							"type": "bool"
						}
					],
					"stateMutability": "view",
					"type": "function"
				},
				{
					"inputs": [],
					"name": "live",
					"outputs": [
						{
							"internalType": "bool",
							"name": "",
							"type": "bool"
						}
					],
					"stateMutability": "view",
					"type": "function"
				},
				{
					"inputs": [
						{
							"internalType": "address",
							"name": "adminAddr",
							"type": "address"
						}
					],
					"name": "voteToAdd",
					"outputs": [],
					"stateMutability": "nonpayable",
					"type": "function"
				},
				{
					"inputs": [
						{
							"internalType": "address",
							"name": "adminAddr",
							"type": "address"
						}
					],
					"name": "voteToRemove",
					"outputs": [],
					"stateMutability": "nonpayable",
					"type": "function"
				},
				{
					"inputs": [],
					"name": "votesToAdd",
					"outputs": [
						{
							"internalType": "int256",
							"name": "",
							"type": "int256"
						}
					],
					"stateMutability": "view",
					"type": "function"
				},
				{
					"inputs": [],
					"name": "votesToRemove",
					"outputs": [
						{
							"internalType": "int256",
							"name": "",
							"type": "int256"
						}
					],
					"stateMutability": "view",
					"type": "function"
				}
			],
			"devdoc": {
				"kind": "dev",
				"methods": {},
				"version": 1
			},
			"evm": {
				"assembly": "    /* \"contracts/complex_verify.sol\":109:749  contract Election {... */\n  mstore(0x40, 0x80)\n    /* \"contracts/complex_verify.sol\":259:301  constructor() {... */\n  callvalue\n  dup1\n  iszero\n  tag_1\n  jumpi\n  0x00\n  dup1\n  revert\ntag_1:\n  pop\n    /* \"contracts/complex_verify.sol\":290:294  true */\n  0x01\n    /* \"contracts/complex_verify.sol\":283:287  live */\n  0x00\n  dup1\n    /* \"contracts/complex_verify.sol\":283:294  live = true */\n  0x0100\n  exp\n  dup2\n  sload\n  dup2\n  0xff\n  mul\n  not\n  and\n  swap1\n  dup4\n  iszero\n  iszero\n  mul\n  or\n  swap1\n  sstore\n  pop\n    /* \"contracts/complex_verify.sol\":109:749  contract Election {... */\n  dataSize(sub_0)\n  dup1\n  dataOffset(sub_0)\n  0x00\n  codecopy\n  0x00\n  return\nstop\n\nsub_0: assembly {\n        /* \"contracts/complex_verify.sol\":109:749  contract Election {... */\n      mstore(0x40, 0x80)\n      callvalue\n      dup1\n      iszero\n      tag_1\n      jumpi\n      0x00\n      dup1\n      revert\n    tag_1:\n      pop\n      jumpi(tag_2, lt(calldatasize, 0x04))\n      shr(0xe0, calldataload(0x00))\n      dup1\n      0x09eef43e\n      eq\n      tag_3\n      jumpi\n      dup1\n      0x5cb7e8af\n      eq\n      tag_4\n      jumpi\n      dup1\n      0x69596d70\n      eq\n      tag_5\n      jumpi\n      dup1\n      0x7727d3aa\n      eq\n      tag_6\n      jumpi\n      dup1\n      0x929155bf\n      eq\n      tag_7\n      jumpi\n      dup1\n      0x957aa58c\n      eq\n      tag_8\n      jumpi\n    tag_2:\n      0x00\n      dup1\n      revert\n        /* \"contracts/complex_verify.sol\":212:252  mapping(address => bool) public hasVoted */\n    tag_3:\n      tag_9\n      0x04\n      dup1\n      calldatasize\n      sub\n      dup2\n      add\n      swap1\n      tag_10\n      swap2\n      swap1\n      tag_11\n      jump\t// in\n    tag_10:\n      tag_12\n      jump\t// in\n    tag_9:\n      mload(0x40)\n      tag_13\n      swap2\n      swap1\n      tag_14\n      jump\t// in\n    tag_13:\n      mload(0x40)\n      dup1\n      swap2\n      sub\n      swap1\n      return\n        /* \"contracts/complex_verify.sol\":182:206  int public votesToRemove */\n    tag_4:\n      tag_15\n      tag_16\n      jump\t// in\n    tag_15:\n      mload(0x40)\n      tag_17\n      swap2\n      swap1\n      tag_18\n      jump\t// in\n    tag_17:\n      mload(0x40)\n      dup1\n      swap2\n      sub\n      swap1\n      return\n        /* \"contracts/complex_verify.sol\":468:601  function voteToAdd(address adminAddr) notVoted(adminAddr) public {... */\n    tag_5:\n      tag_19\n      0x04\n      dup1\n      calldatasize\n      sub\n      dup2\n      add\n      swap1\n      tag_20\n      swap2\n      swap1\n      tag_11\n      jump\t// in\n    tag_20:\n      tag_21\n      jump\t// in\n    tag_19:\n      stop\n        /* \"contracts/complex_verify.sol\":607:746  function voteToRemove(address adminAddr) notVoted(adminAddr) public {... */\n    tag_6:\n      tag_22\n      0x04\n      dup1\n      calldatasize\n      sub\n      dup2\n      add\n      swap1\n      tag_23\n      swap2\n      swap1\n      tag_11\n      jump\t// in\n    tag_23:\n      tag_24\n      jump\t// in\n    tag_22:\n      stop\n        /* \"contracts/complex_verify.sol\":155:176  int public votesToAdd */\n    tag_7:\n      tag_25\n      tag_26\n      jump\t// in\n    tag_25:\n      mload(0x40)\n      tag_27\n      swap2\n      swap1\n      tag_18\n      jump\t// in\n    tag_27:\n      mload(0x40)\n      dup1\n      swap2\n      sub\n      swap1\n      return\n        /* \"contracts/complex_verify.sol\":133:149  bool public live */\n    tag_8:\n      tag_28\n      tag_29\n      jump\t// in\n    tag_28:\n      mload(0x40)\n      tag_30\n      swap2\n      swap1\n      tag_14\n      jump\t// in\n    tag_30:\n      mload(0x40)\n      dup1\n      swap2\n      sub\n      swap1\n      return\n        /* \"contracts/complex_verify.sol\":212:252  mapping(address => bool) public hasVoted */\n    tag_12:\n      mstore(0x20, 0x03)\n      dup1\n      0x00\n      mstore\n      keccak256(0x00, 0x40)\n      0x00\n      swap2\n      pop\n      sload\n      swap1\n      0x0100\n      exp\n      swap1\n      div\n      0xff\n      and\n      dup2\n      jump\t// out\n        /* \"contracts/complex_verify.sol\":182:206  int public votesToRemove */\n    tag_16:\n      sload(0x02)\n      dup2\n      jump\t// out\n        /* \"contracts/complex_verify.sol\":468:601  function voteToAdd(address adminAddr) notVoted(adminAddr) public {... */\n    tag_21:\n        /* \"contracts/complex_verify.sol\":515:524  adminAddr */\n      dup1\n        /* \"contracts/complex_verify.sol\":388:393  false */\n      0x00\n        /* \"contracts/complex_verify.sol\":370:393  hasVoted[addr] == false */\n      iszero\n      iszero\n        /* \"contracts/complex_verify.sol\":370:378  hasVoted */\n      0x03\n        /* \"contracts/complex_verify.sol\":370:384  hasVoted[addr] */\n      0x00\n        /* \"contracts/complex_verify.sol\":379:383  addr */\n      dup4\n        /* \"contracts/complex_verify.sol\":370:384  hasVoted[addr] */\n      0xffffffffffffffffffffffffffffffffffffffff\n      and\n      0xffffffffffffffffffffffffffffffffffffffff\n      and\n      dup2\n      mstore\n      0x20\n      add\n      swap1\n      dup2\n      mstore\n      0x20\n      add\n      0x00\n      keccak256\n      0x00\n      swap1\n      sload\n      swap1\n      0x0100\n      exp\n      swap1\n      div\n      0xff\n      and\n        /* \"contracts/complex_verify.sol\":370:393  hasVoted[addr] == false */\n      iszero\n      iszero\n      eq\n        /* \"contracts/complex_verify.sol\":349:444  require(... */\n      tag_32\n      jumpi\n      mload(0x40)\n      0x08c379a000000000000000000000000000000000000000000000000000000000\n      dup2\n      mstore\n      0x04\n      add\n      tag_33\n      swap1\n      tag_34\n      jump\t// in\n    tag_33:\n      mload(0x40)\n      dup1\n      swap2\n      sub\n      swap1\n      revert\n    tag_32:\n        /* \"contracts/complex_verify.sol\":557:558  1 */\n      0x01\n        /* \"contracts/complex_verify.sol\":543:553  votesToAdd */\n      dup1\n      0x00\n        /* \"contracts/complex_verify.sol\":543:558  votesToAdd += 1 */\n      dup3\n      dup3\n      sload\n      tag_36\n      swap2\n      swap1\n      tag_37\n      jump\t// in\n    tag_36:\n      swap3\n      pop\n      pop\n      dup2\n      swap1\n      sstore\n      pop\n        /* \"contracts/complex_verify.sol\":590:594  true */\n      0x01\n        /* \"contracts/complex_verify.sol\":568:576  hasVoted */\n      0x03\n        /* \"contracts/complex_verify.sol\":568:587  hasVoted[adminAddr] */\n      0x00\n        /* \"contracts/complex_verify.sol\":577:586  adminAddr */\n      dup5\n        /* \"contracts/complex_verify.sol\":568:587  hasVoted[adminAddr] */\n      0xffffffffffffffffffffffffffffffffffffffff\n      and\n      0xffffffffffffffffffffffffffffffffffffffff\n      and\n      dup2\n      mstore\n      0x20\n      add\n      swap1\n      dup2\n      mstore\n      0x20\n      add\n      0x00\n      keccak256\n      0x00\n        /* \"contracts/complex_verify.sol\":568:594  hasVoted[adminAddr] = true */\n      0x0100\n      exp\n      dup2\n      sload\n      dup2\n      0xff\n      mul\n      not\n      and\n      swap1\n      dup4\n      iszero\n      iszero\n      mul\n      or\n      swap1\n      sstore\n      pop\n        /* \"contracts/complex_verify.sol\":468:601  function voteToAdd(address adminAddr) notVoted(adminAddr) public {... */\n      pop\n      pop\n      jump\t// out\n        /* \"contracts/complex_verify.sol\":607:746  function voteToRemove(address adminAddr) notVoted(adminAddr) public {... */\n    tag_24:\n        /* \"contracts/complex_verify.sol\":657:666  adminAddr */\n      dup1\n        /* \"contracts/complex_verify.sol\":388:393  false */\n      0x00\n        /* \"contracts/complex_verify.sol\":370:393  hasVoted[addr] == false */\n      iszero\n      iszero\n        /* \"contracts/complex_verify.sol\":370:378  hasVoted */\n      0x03\n        /* \"contracts/complex_verify.sol\":370:384  hasVoted[addr] */\n      0x00\n        /* \"contracts/complex_verify.sol\":379:383  addr */\n      dup4\n        /* \"contracts/complex_verify.sol\":370:384  hasVoted[addr] */\n      0xffffffffffffffffffffffffffffffffffffffff\n      and\n      0xffffffffffffffffffffffffffffffffffffffff\n      and\n      dup2\n      mstore\n      0x20\n      add\n      swap1\n      dup2\n      mstore\n      0x20\n      add\n      0x00\n      keccak256\n      0x00\n      swap1\n      sload\n      swap1\n      0x0100\n      exp\n      swap1\n      div\n      0xff\n      and\n        /* \"contracts/complex_verify.sol\":370:393  hasVoted[addr] == false */\n      iszero\n      iszero\n      eq\n        /* \"contracts/complex_verify.sol\":349:444  require(... */\n      tag_39\n      jumpi\n      mload(0x40)\n      0x08c379a000000000000000000000000000000000000000000000000000000000\n      dup2\n      mstore\n      0x04\n      add\n      tag_40\n      swap1\n      tag_34\n      jump\t// in\n    tag_40:\n      mload(0x40)\n      dup1\n      swap2\n      sub\n      swap1\n      revert\n    tag_39:\n        /* \"contracts/complex_verify.sol\":702:703  1 */\n      0x01\n        /* \"contracts/complex_verify.sol\":685:698  votesToRemove */\n      0x02\n      0x00\n        /* \"contracts/complex_verify.sol\":685:703  votesToRemove += 1 */\n      dup3\n      dup3\n      sload\n      tag_42\n      swap2\n      swap1\n      tag_37\n      jump\t// in\n    tag_42:\n      swap3\n      pop\n      pop\n      dup2\n      swap1\n      sstore\n      pop\n        /* \"contracts/complex_verify.sol\":735:739  true */\n      0x01\n        /* \"contracts/complex_verify.sol\":713:721  hasVoted */\n      0x03\n        /* \"contracts/complex_verify.sol\":713:732  hasVoted[adminAddr] */\n      0x00\n        /* \"contracts/complex_verify.sol\":722:731  adminAddr */\n      dup5\n        /* \"contracts/complex_verify.sol\":713:732  hasVoted[adminAddr] */\n      0xffffffffffffffffffffffffffffffffffffffff\n      and\n      0xffffffffffffffffffffffffffffffffffffffff\n      and\n      dup2\n      mstore\n      0x20\n      add\n      swap1\n      dup2\n      mstore\n      0x20\n      add\n      0x00\n      keccak256\n      0x00\n        /* \"contracts/complex_verify.sol\":713:739  hasVoted[adminAddr] = true */\n      0x0100\n      exp\n      dup2\n      sload\n      dup2\n      0xff\n      mul\n      not\n      and\n      swap1\n      dup4\n      iszero\n      iszero\n      mul\n      or\n      swap1\n      sstore\n      pop\n        /* \"contracts/complex_verify.sol\":607:746  function voteToRemove(address adminAddr) notVoted(adminAddr) public {... */\n      pop\n      pop\n      jump\t// out\n        /* \"contracts/complex_verify.sol\":155:176  int public votesToAdd */\n    tag_26:\n      sload(0x01)\n      dup2\n      jump\t// out\n        /* \"contracts/complex_verify.sol\":133:149  bool public live */\n    tag_29:\n      0x00\n      dup1\n      sload\n      swap1\n      0x0100\n      exp\n      swap1\n      div\n      0xff\n      and\n      dup2\n      jump\t// out\n        /* \"#utility.yul\":7:146   */\n    tag_44:\n        /* \"#utility.yul\":53:58   */\n      0x00\n        /* \"#utility.yul\":91:97   */\n      dup2\n        /* \"#utility.yul\":78:98   */\n      calldataload\n        /* \"#utility.yul\":69:98   */\n      swap1\n      pop\n        /* \"#utility.yul\":107:140   */\n      tag_46\n        /* \"#utility.yul\":134:139   */\n      dup2\n        /* \"#utility.yul\":107:140   */\n      tag_47\n      jump\t// in\n    tag_46:\n        /* \"#utility.yul\":7:146   */\n      swap3\n      swap2\n      pop\n      pop\n      jump\t// out\n        /* \"#utility.yul\":152:481   */\n    tag_11:\n        /* \"#utility.yul\":211:217   */\n      0x00\n        /* \"#utility.yul\":260:262   */\n      0x20\n        /* \"#utility.yul\":248:257   */\n      dup3\n        /* \"#utility.yul\":239:246   */\n      dup5\n        /* \"#utility.yul\":235:258   */\n      sub\n        /* \"#utility.yul\":231:263   */\n      slt\n        /* \"#utility.yul\":228:347   */\n      iszero\n      tag_49\n      jumpi\n        /* \"#utility.yul\":266:345   */\n      tag_50\n      tag_51\n      jump\t// in\n    tag_50:\n        /* \"#utility.yul\":228:347   */\n    tag_49:\n        /* \"#utility.yul\":386:387   */\n      0x00\n        /* \"#utility.yul\":411:464   */\n      tag_52\n        /* \"#utility.yul\":456:463   */\n      dup5\n        /* \"#utility.yul\":447:453   */\n      dup3\n        /* \"#utility.yul\":436:445   */\n      dup6\n        /* \"#utility.yul\":432:454   */\n      add\n        /* \"#utility.yul\":411:464   */\n      tag_44\n      jump\t// in\n    tag_52:\n        /* \"#utility.yul\":401:464   */\n      swap2\n      pop\n        /* \"#utility.yul\":357:474   */\n      pop\n        /* \"#utility.yul\":152:481   */\n      swap3\n      swap2\n      pop\n      pop\n      jump\t// out\n        /* \"#utility.yul\":487:596   */\n    tag_53:\n        /* \"#utility.yul\":568:589   */\n      tag_55\n        /* \"#utility.yul\":583:588   */\n      dup2\n        /* \"#utility.yul\":568:589   */\n      tag_56\n      jump\t// in\n    tag_55:\n        /* \"#utility.yul\":563:566   */\n      dup3\n        /* \"#utility.yul\":556:590   */\n      mstore\n        /* \"#utility.yul\":487:596   */\n      pop\n      pop\n      jump\t// out\n        /* \"#utility.yul\":602:717   */\n    tag_57:\n        /* \"#utility.yul\":687:710   */\n      tag_59\n        /* \"#utility.yul\":704:709   */\n      dup2\n        /* \"#utility.yul\":687:710   */\n      tag_60\n      jump\t// in\n    tag_59:\n        /* \"#utility.yul\":682:685   */\n      dup3\n        /* \"#utility.yul\":675:711   */\n      mstore\n        /* \"#utility.yul\":602:717   */\n      pop\n      pop\n      jump\t// out\n        /* \"#utility.yul\":723:1089   */\n    tag_61:\n        /* \"#utility.yul\":865:868   */\n      0x00\n        /* \"#utility.yul\":886:953   */\n      tag_63\n        /* \"#utility.yul\":950:952   */\n      0x19\n        /* \"#utility.yul\":945:948   */\n      dup4\n        /* \"#utility.yul\":886:953   */\n      tag_64\n      jump\t// in\n    tag_63:\n        /* \"#utility.yul\":879:953   */\n      swap2\n      pop\n        /* \"#utility.yul\":962:1055   */\n      tag_65\n        /* \"#utility.yul\":1051:1054   */\n      dup3\n        /* \"#utility.yul\":962:1055   */\n      tag_66\n      jump\t// in\n    tag_65:\n        /* \"#utility.yul\":1080:1082   */\n      0x20\n        /* \"#utility.yul\":1075:1078   */\n      dup3\n        /* \"#utility.yul\":1071:1083   */\n      add\n        /* \"#utility.yul\":1064:1083   */\n      swap1\n      pop\n        /* \"#utility.yul\":723:1089   */\n      swap2\n      swap1\n      pop\n      jump\t// out\n        /* \"#utility.yul\":1095:1305   */\n    tag_14:\n        /* \"#utility.yul\":1182:1186   */\n      0x00\n        /* \"#utility.yul\":1220:1222   */\n      0x20\n        /* \"#utility.yul\":1209:1218   */\n      dup3\n        /* \"#utility.yul\":1205:1223   */\n      add\n        /* \"#utility.yul\":1197:1223   */\n      swap1\n      pop\n        /* \"#utility.yul\":1233:1298   */\n      tag_68\n        /* \"#utility.yul\":1295:1296   */\n      0x00\n        /* \"#utility.yul\":1284:1293   */\n      dup4\n        /* \"#utility.yul\":1280:1297   */\n      add\n        /* \"#utility.yul\":1271:1277   */\n      dup5\n        /* \"#utility.yul\":1233:1298   */\n      tag_53\n      jump\t// in\n    tag_68:\n        /* \"#utility.yul\":1095:1305   */\n      swap3\n      swap2\n      pop\n      pop\n      jump\t// out\n        /* \"#utility.yul\":1311:1529   */\n    tag_18:\n        /* \"#utility.yul\":1402:1406   */\n      0x00\n        /* \"#utility.yul\":1440:1442   */\n      0x20\n        /* \"#utility.yul\":1429:1438   */\n      dup3\n        /* \"#utility.yul\":1425:1443   */\n      add\n        /* \"#utility.yul\":1417:1443   */\n      swap1\n      pop\n        /* \"#utility.yul\":1453:1522   */\n      tag_70\n        /* \"#utility.yul\":1519:1520   */\n      0x00\n        /* \"#utility.yul\":1508:1517   */\n      dup4\n        /* \"#utility.yul\":1504:1521   */\n      add\n        /* \"#utility.yul\":1495:1501   */\n      dup5\n        /* \"#utility.yul\":1453:1522   */\n      tag_57\n      jump\t// in\n    tag_70:\n        /* \"#utility.yul\":1311:1529   */\n      swap3\n      swap2\n      pop\n      pop\n      jump\t// out\n        /* \"#utility.yul\":1535:1954   */\n    tag_34:\n        /* \"#utility.yul\":1701:1705   */\n      0x00\n        /* \"#utility.yul\":1739:1741   */\n      0x20\n        /* \"#utility.yul\":1728:1737   */\n      dup3\n        /* \"#utility.yul\":1724:1742   */\n      add\n        /* \"#utility.yul\":1716:1742   */\n      swap1\n      pop\n        /* \"#utility.yul\":1788:1797   */\n      dup2\n        /* \"#utility.yul\":1782:1786   */\n      dup2\n        /* \"#utility.yul\":1778:1798   */\n      sub\n        /* \"#utility.yul\":1774:1775   */\n      0x00\n        /* \"#utility.yul\":1763:1772   */\n      dup4\n        /* \"#utility.yul\":1759:1776   */\n      add\n        /* \"#utility.yul\":1752:1799   */\n      mstore\n        /* \"#utility.yul\":1816:1947   */\n      tag_72\n        /* \"#utility.yul\":1942:1946   */\n      dup2\n        /* \"#utility.yul\":1816:1947   */\n      tag_61\n      jump\t// in\n    tag_72:\n        /* \"#utility.yul\":1808:1947   */\n      swap1\n      pop\n        /* \"#utility.yul\":1535:1954   */\n      swap2\n      swap1\n      pop\n      jump\t// out\n        /* \"#utility.yul\":2041:2210   */\n    tag_64:\n        /* \"#utility.yul\":2125:2136   */\n      0x00\n        /* \"#utility.yul\":2159:2165   */\n      dup3\n        /* \"#utility.yul\":2154:2157   */\n      dup3\n        /* \"#utility.yul\":2147:2166   */\n      mstore\n        /* \"#utility.yul\":2199:2203   */\n      0x20\n        /* \"#utility.yul\":2194:2197   */\n      dup3\n        /* \"#utility.yul\":2190:2204   */\n      add\n        /* \"#utility.yul\":2175:2204   */\n      swap1\n      pop\n        /* \"#utility.yul\":2041:2210   */\n      swap3\n      swap2\n      pop\n      pop\n      jump\t// out\n        /* \"#utility.yul\":2216:2741   */\n    tag_37:\n        /* \"#utility.yul\":2255:2258   */\n      0x00\n        /* \"#utility.yul\":2274:2293   */\n      tag_77\n        /* \"#utility.yul\":2291:2292   */\n      dup3\n        /* \"#utility.yul\":2274:2293   */\n      tag_60\n      jump\t// in\n    tag_77:\n        /* \"#utility.yul\":2269:2293   */\n      swap2\n      pop\n        /* \"#utility.yul\":2307:2326   */\n      tag_78\n        /* \"#utility.yul\":2324:2325   */\n      dup4\n        /* \"#utility.yul\":2307:2326   */\n      tag_60\n      jump\t// in\n    tag_78:\n        /* \"#utility.yul\":2302:2326   */\n      swap3\n      pop\n        /* \"#utility.yul\":2495:2496   */\n      dup2\n        /* \"#utility.yul\":2427:2493   */\n      0x7fffffffffffffffffffffffffffffffffffffffffffffffffffffffffffffff\n        /* \"#utility.yul\":2423:2497   */\n      sub\n        /* \"#utility.yul\":2420:2421   */\n      dup4\n        /* \"#utility.yul\":2416:2498   */\n      sgt\n        /* \"#utility.yul\":2411:2412   */\n      0x00\n        /* \"#utility.yul\":2408:2409   */\n      dup4\n        /* \"#utility.yul\":2404:2413   */\n      slt\n        /* \"#utility.yul\":2397:2414   */\n      iszero\n        /* \"#utility.yul\":2393:2499   */\n      and\n        /* \"#utility.yul\":2390:2522   */\n      iszero\n      tag_79\n      jumpi\n        /* \"#utility.yul\":2502:2520   */\n      tag_80\n      tag_81\n      jump\t// in\n    tag_80:\n        /* \"#utility.yul\":2390:2522   */\n    tag_79:\n        /* \"#utility.yul\":2682:2683   */\n      dup2\n        /* \"#utility.yul\":2614:2680   */\n      0x8000000000000000000000000000000000000000000000000000000000000000\n        /* \"#utility.yul\":2610:2684   */\n      sub\n        /* \"#utility.yul\":2607:2608   */\n      dup4\n        /* \"#utility.yul\":2603:2685   */\n      slt\n        /* \"#utility.yul\":2599:2600   */\n      0x00\n        /* \"#utility.yul\":2596:2597   */\n      dup4\n        /* \"#utility.yul\":2592:2601   */\n      slt\n        /* \"#utility.yul\":2588:2686   */\n      and\n        /* \"#utility.yul\":2585:2709   */\n      iszero\n      tag_82\n      jumpi\n        /* \"#utility.yul\":2689:2707   */\n      tag_83\n      tag_81\n      jump\t// in\n    tag_83:\n        /* \"#utility.yul\":2585:2709   */\n    tag_82:\n        /* \"#utility.yul\":2733:2734   */\n      dup3\n        /* \"#utility.yul\":2730:2731   */\n      dup3\n        /* \"#utility.yul\":2726:2735   */\n      add\n        /* \"#utility.yul\":2719:2735   */\n      swap1\n      pop\n        /* \"#utility.yul\":2216:2741   */\n      swap3\n      swap2\n      pop\n      pop\n      jump\t// out\n        /* \"#utility.yul\":2747:2843   */\n    tag_84:\n        /* \"#utility.yul\":2784:2791   */\n      0x00\n        /* \"#utility.yul\":2813:2837   */\n      tag_86\n        /* \"#utility.yul\":2831:2836   */\n      dup3\n        /* \"#utility.yul\":2813:2837   */\n      tag_87\n      jump\t// in\n    tag_86:\n        /* \"#utility.yul\":2802:2837   */\n      swap1\n      pop\n        /* \"#utility.yul\":2747:2843   */\n      swap2\n      swap1\n      pop\n      jump\t// out\n        /* \"#utility.yul\":2849:2939   */\n    tag_56:\n        /* \"#utility.yul\":2883:2890   */\n      0x00\n        /* \"#utility.yul\":2926:2931   */\n      dup2\n        /* \"#utility.yul\":2919:2932   */\n      iszero\n        /* \"#utility.yul\":2912:2933   */\n      iszero\n        /* \"#utility.yul\":2901:2933   */\n      swap1\n      pop\n        /* \"#utility.yul\":2849:2939   */\n      swap2\n      swap1\n      pop\n      jump\t// out\n        /* \"#utility.yul\":2945:3021   */\n    tag_60:\n        /* \"#utility.yul\":2981:2988   */\n      0x00\n        /* \"#utility.yul\":3010:3015   */\n      dup2\n        /* \"#utility.yul\":2999:3015   */\n      swap1\n      pop\n        /* \"#utility.yul\":2945:3021   */\n      swap2\n      swap1\n      pop\n      jump\t// out\n        /* \"#utility.yul\":3027:3153   */\n    tag_87:\n        /* \"#utility.yul\":3064:3071   */\n      0x00\n        /* \"#utility.yul\":3104:3146   */\n      0xffffffffffffffffffffffffffffffffffffffff\n        /* \"#utility.yul\":3097:3102   */\n      dup3\n        /* \"#utility.yul\":3093:3147   */\n      and\n        /* \"#utility.yul\":3082:3147   */\n      swap1\n      pop\n        /* \"#utility.yul\":3027:3153   */\n      swap2\n      swap1\n      pop\n      jump\t// out\n        /* \"#utility.yul\":3159:3339   */\n    tag_81:\n        /* \"#utility.yul\":3207:3284   */\n      0x4e487b7100000000000000000000000000000000000000000000000000000000\n        /* \"#utility.yul\":3204:3205   */\n      0x00\n        /* \"#utility.yul\":3197:3285   */\n      mstore\n        /* \"#utility.yul\":3304:3308   */\n      0x11\n        /* \"#utility.yul\":3301:3302   */\n      0x04\n        /* \"#utility.yul\":3294:3309   */\n      mstore\n        /* \"#utility.yul\":3328:3332   */\n      0x24\n        /* \"#utility.yul\":3325:3326   */\n      0x00\n        /* \"#utility.yul\":3318:3333   */\n      revert\n        /* \"#utility.yul\":3468:3585   */\n    tag_51:\n        /* \"#utility.yul\":3577:3578   */\n      0x00\n        /* \"#utility.yul\":3574:3575   */\n      dup1\n        /* \"#utility.yul\":3567:3579   */\n      revert\n        /* \"#utility.yul\":3591:3766   */\n    tag_66:\n        /* \"#utility.yul\":3731:3758   */\n      0x416464726573732068617320616c726561647920766f74656400000000000000\n        /* \"#utility.yul\":3727:3728   */\n      0x00\n        /* \"#utility.yul\":3719:3725   */\n      dup3\n        /* \"#utility.yul\":3715:3729   */\n      add\n        /* \"#utility.yul\":3708:3759   */\n      mstore\n        /* \"#utility.yul\":3591:3766   */\n      pop\n      jump\t// out\n        /* \"#utility.yul\":3772:3894   */\n    tag_47:\n        /* \"#utility.yul\":3845:3869   */\n      tag_97\n        /* \"#utility.yul\":3863:3868   */\n      dup2\n        /* \"#utility.yul\":3845:3869   */\n      tag_84\n      jump\t// in\n    tag_97:\n        /* \"#utility.yul\":3838:3843   */\n      dup2\n        /* \"#utility.yul\":3835:3870   */\n      eq\n        /* \"#utility.yul\":3825:3888   */\n      tag_98\n      jumpi\n        /* \"#utility.yul\":3884:3885   */\n      0x00\n        /* \"#utility.yul\":3881:3882   */\n      dup1\n        /* \"#utility.yul\":3874:3886   */\n      revert\n        /* \"#utility.yul\":3825:3888   */\n    tag_98:\n        /* \"#utility.yul\":3772:3894   */\n      pop\n      jump\t// out\n\n    auxdata: 0xa2646970667358221220588bbc2d1855b0b3605409a7d2ee42eaac5d24cf37b15cab14ae9487aad6486e64736f6c63430008070033\n}\n",
				"bytecode": {
					"linkReferences": {},
					"object": "608060405234801561001057600080fd5b5060016000806101000a81548160ff0219169083151502179055506105e98061003a6000396000f3fe608060405234801561001057600080fd5b50600436106100625760003560e01c806309eef43e146100675780635cb7e8af1461009757806369596d70146100b55780637727d3aa146100d1578063929155bf146100ed578063957aa58c1461010b575b600080fd5b610081600480360381019061007c919061038e565b610129565b60405161008e91906103fc565b60405180910390f35b61009f610149565b6040516100ac9190610417565b60405180910390f35b6100cf60048036038101906100ca919061038e565b61014f565b005b6100eb60048036038101906100e6919061038e565b610258565b005b6100f5610362565b6040516101029190610417565b60405180910390f35b610113610368565b60405161012091906103fc565b60405180910390f35b60036020528060005260406000206000915054906101000a900460ff1681565b60025481565b8060001515600360008373ffffffffffffffffffffffffffffffffffffffff1673ffffffffffffffffffffffffffffffffffffffff16815260200190815260200160002060009054906101000a900460ff161515146101e3576040517f08c379a00000000000000000000000000000000000000000000000000000000081526004016101da90610432565b60405180910390fd5b60018060008282546101f59190610463565b925050819055506001600360008473ffffffffffffffffffffffffffffffffffffffff1673ffffffffffffffffffffffffffffffffffffffff16815260200190815260200160002060006101000a81548160ff0219169083151502179055505050565b8060001515600360008373ffffffffffffffffffffffffffffffffffffffff1673ffffffffffffffffffffffffffffffffffffffff16815260200190815260200160002060009054906101000a900460ff161515146102ec576040517f08c379a00000000000000000000000000000000000000000000000000000000081526004016102e390610432565b60405180910390fd5b6001600260008282546102ff9190610463565b925050819055506001600360008473ffffffffffffffffffffffffffffffffffffffff1673ffffffffffffffffffffffffffffffffffffffff16815260200190815260200160002060006101000a81548160ff0219169083151502179055505050565b60015481565b60008054906101000a900460ff1681565b6000813590506103888161059c565b92915050565b6000602082840312156103a4576103a361056e565b5b60006103b284828501610379565b91505092915050565b6103c481610509565b82525050565b6103d381610515565b82525050565b60006103e6601983610452565b91506103f182610573565b602082019050919050565b600060208201905061041160008301846103bb565b92915050565b600060208201905061042c60008301846103ca565b92915050565b6000602082019050818103600083015261044b816103d9565b9050919050565b600082825260208201905092915050565b600061046e82610515565b915061047983610515565b9250817f7fffffffffffffffffffffffffffffffffffffffffffffffffffffffffffffff038313600083121516156104b4576104b361053f565b5b817f80000000000000000000000000000000000000000000000000000000000000000383126000831216156104ec576104eb61053f565b5b828201905092915050565b60006105028261051f565b9050919050565b60008115159050919050565b6000819050919050565b600073ffffffffffffffffffffffffffffffffffffffff82169050919050565b7f4e487b7100000000000000000000000000000000000000000000000000000000600052601160045260246000fd5b600080fd5b7f416464726573732068617320616c726561647920766f74656400000000000000600082015250565b6105a5816104f7565b81146105b057600080fd5b5056fea2646970667358221220588bbc2d1855b0b3605409a7d2ee42eaac5d24cf37b15cab14ae9487aad6486e64736f6c63430008070033",
					"opcodes": "PUSH1 0x80 PUSH1 0x40 MSTORE CALLVALUE DUP1 ISZERO PUSH2 0x10 JUMPI PUSH1 0x0 DUP1 REVERT JUMPDEST POP PUSH1 0x1 PUSH1 0x0 DUP1 PUSH2 0x100 EXP DUP2 SLOAD DUP2 PUSH1 0xFF MUL NOT AND SWAP1 DUP4 ISZERO ISZERO MUL OR SWAP1 SSTORE POP PUSH2 0x5E9 DUP1 PUSH2 0x3A PUSH1 0x0 CODECOPY PUSH1 0x0 RETURN INVALID PUSH1 0x80 PUSH1 0x40 MSTORE CALLVALUE DUP1 ISZERO PUSH2 0x10 JUMPI PUSH1 0x0 DUP1 REVERT JUMPDEST POP PUSH1 0x4 CALLDATASIZE LT PUSH2 0x62 JUMPI PUSH1 0x0 CALLDATALOAD PUSH1 0xE0 SHR DUP1 PUSH4 0x9EEF43E EQ PUSH2 0x67 JUMPI DUP1 PUSH4 0x5CB7E8AF EQ PUSH2 0x97 JUMPI DUP1 PUSH4 0x69596D70 EQ PUSH2 0xB5 JUMPI DUP1 PUSH4 0x7727D3AA EQ PUSH2 0xD1 JUMPI DUP1 PUSH4 0x929155BF EQ PUSH2 0xED JUMPI DUP1 PUSH4 0x957AA58C EQ PUSH2 0x10B JUMPI JUMPDEST PUSH1 0x0 DUP1 REVERT JUMPDEST PUSH2 0x81 PUSH1 0x4 DUP1 CALLDATASIZE SUB DUP2 ADD SWAP1 PUSH2 0x7C SWAP2 SWAP1 PUSH2 0x38E JUMP JUMPDEST PUSH2 0x129 JUMP JUMPDEST PUSH1 0x40 MLOAD PUSH2 0x8E SWAP2 SWAP1 PUSH2 0x3FC JUMP JUMPDEST PUSH1 0x40 MLOAD DUP1 SWAP2 SUB SWAP1 RETURN JUMPDEST PUSH2 0x9F PUSH2 0x149 JUMP JUMPDEST PUSH1 0x40 MLOAD PUSH2 0xAC SWAP2 SWAP1 PUSH2 0x417 JUMP JUMPDEST PUSH1 0x40 MLOAD DUP1 SWAP2 SUB SWAP1 RETURN JUMPDEST PUSH2 0xCF PUSH1 0x4 DUP1 CALLDATASIZE SUB DUP2 ADD SWAP1 PUSH2 0xCA SWAP2 SWAP1 PUSH2 0x38E JUMP JUMPDEST PUSH2 0x14F JUMP JUMPDEST STOP JUMPDEST PUSH2 0xEB PUSH1 0x4 DUP1 CALLDATASIZE SUB DUP2 ADD SWAP1 PUSH2 0xE6 SWAP2 SWAP1 PUSH2 0x38E JUMP JUMPDEST PUSH2 0x258 JUMP JUMPDEST STOP JUMPDEST PUSH2 0xF5 PUSH2 0x362 JUMP JUMPDEST PUSH1 0x40 MLOAD PUSH2 0x102 SWAP2 SWAP1 PUSH2 0x417 JUMP JUMPDEST PUSH1 0x40 MLOAD DUP1 SWAP2 SUB SWAP1 RETURN JUMPDEST PUSH2 0x113 PUSH2 0x368 JUMP JUMPDEST PUSH1 0x40 MLOAD PUSH2 0x120 SWAP2 SWAP1 PUSH2 0x3FC JUMP JUMPDEST PUSH1 0x40 MLOAD DUP1 SWAP2 SUB SWAP1 RETURN JUMPDEST PUSH1 0x3 PUSH1 0x20 MSTORE DUP1 PUSH1 0x0 MSTORE PUSH1 0x40 PUSH1 0x0 KECCAK256 PUSH1 0x0 SWAP2 POP SLOAD SWAP1 PUSH2 0x100 EXP SWAP1 DIV PUSH1 0xFF AND DUP2 JUMP JUMPDEST PUSH1 0x2 SLOAD DUP2 JUMP JUMPDEST DUP1 PUSH1 0x0 ISZERO ISZERO PUSH1 0x3 PUSH1 0x0 DUP4 PUSH20 0xFFFFFFFFFFFFFFFFFFFFFFFFFFFFFFFFFFFFFFFF AND PUSH20 0xFFFFFFFFFFFFFFFFFFFFFFFFFFFFFFFFFFFFFFFF AND DUP2 MSTORE PUSH1 0x20 ADD SWAP1 DUP2 MSTORE PUSH1 0x20 ADD PUSH1 0x0 KECCAK256 PUSH1 0x0 SWAP1 SLOAD SWAP1 PUSH2 0x100 EXP SWAP1 DIV PUSH1 0xFF AND ISZERO ISZERO EQ PUSH2 0x1E3 JUMPI PUSH1 0x40 MLOAD PUSH32 0x8C379A000000000000000000000000000000000000000000000000000000000 DUP2 MSTORE PUSH1 0x4 ADD PUSH2 0x1DA SWAP1 PUSH2 0x432 JUMP JUMPDEST PUSH1 0x40 MLOAD DUP1 SWAP2 SUB SWAP1 REVERT JUMPDEST PUSH1 0x1 DUP1 PUSH1 0x0 DUP3 DUP3 SLOAD PUSH2 0x1F5 SWAP2 SWAP1 PUSH2 0x463 JUMP JUMPDEST SWAP3 POP POP DUP2 SWAP1 SSTORE POP PUSH1 0x1 PUSH1 0x3 PUSH1 0x0 DUP5 PUSH20 0xFFFFFFFFFFFFFFFFFFFFFFFFFFFFFFFFFFFFFFFF AND PUSH20 0xFFFFFFFFFFFFFFFFFFFFFFFFFFFFFFFFFFFFFFFF AND DUP2 MSTORE PUSH1 0x20 ADD SWAP1 DUP2 MSTORE PUSH1 0x20 ADD PUSH1 0x0 KECCAK256 PUSH1 0x0 PUSH2 0x100 EXP DUP2 SLOAD DUP2 PUSH1 0xFF MUL NOT AND SWAP1 DUP4 ISZERO ISZERO MUL OR SWAP1 SSTORE POP POP POP JUMP JUMPDEST DUP1 PUSH1 0x0 ISZERO ISZERO PUSH1 0x3 PUSH1 0x0 DUP4 PUSH20 0xFFFFFFFFFFFFFFFFFFFFFFFFFFFFFFFFFFFFFFFF AND PUSH20 0xFFFFFFFFFFFFFFFFFFFFFFFFFFFFFFFFFFFFFFFF AND DUP2 MSTORE PUSH1 0x20 ADD SWAP1 DUP2 MSTORE PUSH1 0x20 ADD PUSH1 0x0 KECCAK256 PUSH1 0x0 SWAP1 SLOAD SWAP1 PUSH2 0x100 EXP SWAP1 DIV PUSH1 0xFF AND ISZERO ISZERO EQ PUSH2 0x2EC JUMPI PUSH1 0x40 MLOAD PUSH32 0x8C379A000000000000000000000000000000000000000000000000000000000 DUP2 MSTORE PUSH1 0x4 ADD PUSH2 0x2E3 SWAP1 PUSH2 0x432 JUMP JUMPDEST PUSH1 0x40 MLOAD DUP1 SWAP2 SUB SWAP1 REVERT JUMPDEST PUSH1 0x1 PUSH1 0x2 PUSH1 0x0 DUP3 DUP3 SLOAD PUSH2 0x2FF SWAP2 SWAP1 PUSH2 0x463 JUMP JUMPDEST SWAP3 POP POP DUP2 SWAP1 SSTORE POP PUSH1 0x1 PUSH1 0x3 PUSH1 0x0 DUP5 PUSH20 0xFFFFFFFFFFFFFFFFFFFFFFFFFFFFFFFFFFFFFFFF AND PUSH20 0xFFFFFFFFFFFFFFFFFFFFFFFFFFFFFFFFFFFFFFFF AND DUP2 MSTORE PUSH1 0x20 ADD SWAP1 DUP2 MSTORE PUSH1 0x20 ADD PUSH1 0x0 KECCAK256 PUSH1 0x0 PUSH2 0x100 EXP DUP2 SLOAD DUP2 PUSH1 0xFF MUL NOT AND SWAP1 DUP4 ISZERO ISZERO MUL OR SWAP1 SSTORE POP POP POP JUMP JUMPDEST PUSH1 0x1 SLOAD DUP2 JUMP JUMPDEST PUSH1 0x0 DUP1 SLOAD SWAP1 PUSH2 0x100 EXP SWAP1 DIV PUSH1 0xFF AND DUP2 JUMP JUMPDEST PUSH1 0x0 DUP2 CALLDATALOAD SWAP1 POP PUSH2 0x388 DUP2 PUSH2 0x59C JUMP JUMPDEST SWAP3 SWAP2 POP POP JUMP JUMPDEST PUSH1 0x0 PUSH1 0x20 DUP3 DUP5 SUB SLT ISZERO PUSH2 0x3A4 JUMPI PUSH2 0x3A3 PUSH2 0x56E JUMP JUMPDEST JUMPDEST PUSH1 0x0 PUSH2 0x3B2 DUP5 DUP3 DUP6 ADD PUSH2 0x379 JUMP JUMPDEST SWAP2 POP POP SWAP3 SWAP2 POP POP JUMP JUMPDEST PUSH2 0x3C4 DUP2 PUSH2 0x509 JUMP JUMPDEST DUP3 MSTORE POP POP JUMP JUMPDEST PUSH2 0x3D3 DUP2 PUSH2 0x515 JUMP JUMPDEST DUP3 MSTORE POP POP JUMP JUMPDEST PUSH1 0x0 PUSH2 0x3E6 PUSH1 0x19 DUP4 PUSH2 0x452 JUMP JUMPDEST SWAP2 POP PUSH2 0x3F1 DUP3 PUSH2 0x573 JUMP JUMPDEST PUSH1 0x20 DUP3 ADD SWAP1 POP SWAP2 SWAP1 POP JUMP JUMPDEST PUSH1 0x0 PUSH1 0x20 DUP3 ADD SWAP1 POP PUSH2 0x411 PUSH1 0x0 DUP4 ADD DUP5 PUSH2 0x3BB JUMP JUMPDEST SWAP3 SWAP2 POP POP JUMP JUMPDEST PUSH1 0x0 PUSH1 0x20 DUP3 ADD SWAP1 POP PUSH2 0x42C PUSH1 0x0 DUP4 ADD DUP5 PUSH2 0x3CA JUMP JUMPDEST SWAP3 SWAP2 POP POP JUMP JUMPDEST PUSH1 0x0 PUSH1 0x20 DUP3 ADD SWAP1 POP DUP2 DUP2 SUB PUSH1 0x0 DUP4 ADD MSTORE PUSH2 0x44B DUP2 PUSH2 0x3D9 JUMP JUMPDEST SWAP1 POP SWAP2 SWAP1 POP JUMP JUMPDEST PUSH1 0x0 DUP3 DUP3 MSTORE PUSH1 0x20 DUP3 ADD SWAP1 POP SWAP3 SWAP2 POP POP JUMP JUMPDEST PUSH1 0x0 PUSH2 0x46E DUP3 PUSH2 0x515 JUMP JUMPDEST SWAP2 POP PUSH2 0x479 DUP4 PUSH2 0x515 JUMP JUMPDEST SWAP3 POP DUP2 PUSH32 0x7FFFFFFFFFFFFFFFFFFFFFFFFFFFFFFFFFFFFFFFFFFFFFFFFFFFFFFFFFFFFFFF SUB DUP4 SGT PUSH1 0x0 DUP4 SLT ISZERO AND ISZERO PUSH2 0x4B4 JUMPI PUSH2 0x4B3 PUSH2 0x53F JUMP JUMPDEST JUMPDEST DUP2 PUSH32 0x8000000000000000000000000000000000000000000000000000000000000000 SUB DUP4 SLT PUSH1 0x0 DUP4 SLT AND ISZERO PUSH2 0x4EC JUMPI PUSH2 0x4EB PUSH2 0x53F JUMP JUMPDEST JUMPDEST DUP3 DUP3 ADD SWAP1 POP SWAP3 SWAP2 POP POP JUMP JUMPDEST PUSH1 0x0 PUSH2 0x502 DUP3 PUSH2 0x51F JUMP JUMPDEST SWAP1 POP SWAP2 SWAP1 POP JUMP JUMPDEST PUSH1 0x0 DUP2 ISZERO ISZERO SWAP1 POP SWAP2 SWAP1 POP JUMP JUMPDEST PUSH1 0x0 DUP2 SWAP1 POP SWAP2 SWAP1 POP JUMP JUMPDEST PUSH1 0x0 PUSH20 0xFFFFFFFFFFFFFFFFFFFFFFFFFFFFFFFFFFFFFFFF DUP3 AND SWAP1 POP SWAP2 SWAP1 POP JUMP JUMPDEST PUSH32 0x4E487B7100000000000000000000000000000000000000000000000000000000 PUSH1 0x0 MSTORE PUSH1 0x11 PUSH1 0x4 MSTORE PUSH1 0x24 PUSH1 0x0 REVERT JUMPDEST PUSH1 0x0 DUP1 REVERT JUMPDEST PUSH32 0x416464726573732068617320616C726561647920766F74656400000000000000 PUSH1 0x0 DUP3 ADD MSTORE POP JUMP JUMPDEST PUSH2 0x5A5 DUP2 PUSH2 0x4F7 JUMP JUMPDEST DUP2 EQ PUSH2 0x5B0 JUMPI PUSH1 0x0 DUP1 REVERT JUMPDEST POP JUMP INVALID LOG2 PUSH5 0x6970667358 0x22 SLT KECCAK256 PC DUP12 0xBC 0x2D XOR SSTORE 0xB0 0xB3 PUSH1 0x54 MULMOD 0xA7 0xD2 0xEE TIMESTAMP 0xEA 0xAC 0x5D 0x24 0xCF CALLDATACOPY 0xB1 0x5C 0xAB EQ 0xAE SWAP5 DUP8 0xAA 0xD6 BASEFEE PUSH15 0x64736F6C6343000807003300000000 "
				},
				"gasEstimates": {
					"creation": {
						"codeDepositCost": "302600",
						"executionCost": "24610",
						"totalCost": "327210"
					},
					"external": {
						"hasVoted(address)": "2823",
						"live()": "2556",
						"voteToAdd(address)": "infinite",
						"voteToRemove(address)": "infinite",
						"votesToAdd()": "2495",
						"votesToRemove()": "2429"
					}
				},
				"methodIdentifiers": {
					"hasVoted(address)": "09eef43e",
					"live()": "957aa58c",
					"voteToAdd(address)": "69596d70",
					"voteToRemove(address)": "7727d3aa",
					"votesToAdd()": "929155bf",
					"votesToRemove()": "5cb7e8af"
				}
			},
			"storageLayout": {
				"storage": [
					{
						"astId": 4,
						"contract": "contracts/complex_verify.sol:Election",
						"label": "live",
						"offset": 0,
						"slot": "0",
						"type": "t_bool"
					},
					{
						"astId": 6,
						"contract": "contracts/complex_verify.sol:Election",
						"label": "votesToAdd",
						"offset": 0,
						"slot": "1",
						"type": "t_int256"
					},
					{
						"astId": 8,
						"contract": "contracts/complex_verify.sol:Election",
						"label": "votesToRemove",
						"offset": 0,
						"slot": "2",
						"type": "t_int256"
					},
					{
						"astId": 12,
						"contract": "contracts/complex_verify.sol:Election",
						"label": "hasVoted",
						"offset": 0,
						"slot": "3",
						"type": "t_mapping(t_address,t_bool)"
					}
				],
				"types": {
					"t_address": {
						"encoding": "inplace",
						"label": "address",
						"numberOfBytes": "20"
					},
					"t_bool": {
						"encoding": "inplace",
						"label": "bool",
						"numberOfBytes": "1"
					},
					"t_int256": {
						"encoding": "inplace",
						"label": "int256",
						"numberOfBytes": "32"
					},
					"t_mapping(t_address,t_bool)": {
						"encoding": "mapping",
						"key": "t_address",
						"label": "mapping(address => bool)",
						"numberOfBytes": "32",
						"value": "t_bool"
					}
				}
			},
			"userdoc": {
				"kind": "user",
				"methods": {},
				"version": 1
			}
		}
	}
}