{
	"contracts/Election.sol": {
		"Election": {
			"abi": [
				{
					"inputs": [
						{
							"internalType": "address",
							"name": "",
							"type": "address"
						}
					],
					"name": "hasVoted",
					"outputs": [
						{
							"internalType": "bool",
							"name": "",
							"type": "bool"
						}
					],
					"stateMutability": "view",
					"type": "function"
				},
				{
					"inputs": [
						{
							"internalType": "address",
							"name": "voterAddr",
							"type": "address"
						}
					],
					"name": "voteToAdd",
					"outputs": [],
					"stateMutability": "nonpayable",
					"type": "function"
				},
				{
					"inputs": [
						{
							"internalType": "address",
							"name": "voterAddr",
							"type": "address"
						}
					],
					"name": "voteToRemove",
					"outputs": [],
					"stateMutability": "nonpayable",
					"type": "function"
				},
				{
					"inputs": [],
					"name": "votesToAdd",
					"outputs": [
						{
							"internalType": "uint256",
							"name": "",
							"type": "uint256"
						}
					],
					"stateMutability": "view",
					"type": "function"
				},
				{
					"inputs": [],
					"name": "votesToRemove",
					"outputs": [
						{
							"internalType": "uint256",
							"name": "",
							"type": "uint256"
						}
					],
					"stateMutability": "view",
					"type": "function"
				}
			],
			"devdoc": {
				"kind": "dev",
				"methods": {},
				"version": 1
			},
			"evm": {
				"assembly": "    /* \"contracts/Election.sol\":69:649  contract Election {... */\n  mstore(0x40, 0x80)\n  callvalue\n  dup1\n  iszero\n  tag_1\n  jumpi\n  0x00\n  dup1\n  revert\ntag_1:\n  pop\n  dataSize(sub_0)\n  dup1\n  dataOffset(sub_0)\n  0x00\n  codecopy\n  0x00\n  return\nstop\n\nsub_0: assembly {\n        /* \"contracts/Election.sol\":69:649  contract Election {... */\n      mstore(0x40, 0x80)\n      callvalue\n      dup1\n      iszero\n      tag_1\n      jumpi\n      0x00\n      dup1\n      revert\n    tag_1:\n      pop\n      jumpi(tag_2, lt(calldatasize, 0x04))\n      shr(0xe0, calldataload(0x00))\n      dup1\n      0x09eef43e\n      eq\n      tag_3\n      jumpi\n      dup1\n      0x5cb7e8af\n      eq\n      tag_4\n      jumpi\n      dup1\n      0x69596d70\n      eq\n      tag_5\n      jumpi\n      dup1\n      0x7727d3aa\n      eq\n      tag_6\n      jumpi\n      dup1\n      0x929155bf\n      eq\n      tag_7\n      jumpi\n    tag_2:\n      0x00\n      dup1\n      revert\n        /* \"contracts/Election.sol\":152:192  mapping(address => bool) public hasVoted */\n    tag_3:\n      tag_8\n      0x04\n      dup1\n      calldatasize\n      sub\n      dup2\n      add\n      swap1\n      tag_9\n      swap2\n      swap1\n      tag_10\n      jump\t// in\n    tag_9:\n      tag_11\n      jump\t// in\n    tag_8:\n      mload(0x40)\n      tag_12\n      swap2\n      swap1\n      tag_13\n      jump\t// in\n    tag_12:\n      mload(0x40)\n      dup1\n      swap2\n      sub\n      swap1\n      return\n        /* \"contracts/Election.sol\":121:146  uint public votesToRemove */\n    tag_4:\n      tag_14\n      tag_15\n      jump\t// in\n    tag_14:\n      mload(0x40)\n      tag_16\n      swap2\n      swap1\n      tag_17\n      jump\t// in\n    tag_16:\n      mload(0x40)\n      dup1\n      swap2\n      sub\n      swap1\n      return\n        /* \"contracts/Election.sol\":368:501  function voteToAdd(address voterAddr) notVoted(voterAddr) public {... */\n    tag_5:\n      tag_18\n      0x04\n      dup1\n      calldatasize\n      sub\n      dup2\n      add\n      swap1\n      tag_19\n      swap2\n      swap1\n      tag_10\n      jump\t// in\n    tag_19:\n      tag_20\n      jump\t// in\n    tag_18:\n      stop\n        /* \"contracts/Election.sol\":507:646  function voteToRemove(address voterAddr) notVoted(voterAddr) public {... */\n    tag_6:\n      tag_21\n      0x04\n      dup1\n      calldatasize\n      sub\n      dup2\n      add\n      swap1\n      tag_22\n      swap2\n      swap1\n      tag_10\n      jump\t// in\n    tag_22:\n      tag_23\n      jump\t// in\n    tag_21:\n      stop\n        /* \"contracts/Election.sol\":93:115  uint public votesToAdd */\n    tag_7:\n      tag_24\n      tag_25\n      jump\t// in\n    tag_24:\n      mload(0x40)\n      tag_26\n      swap2\n      swap1\n      tag_17\n      jump\t// in\n    tag_26:\n      mload(0x40)\n      dup1\n      swap2\n      sub\n      swap1\n      return\n        /* \"contracts/Election.sol\":152:192  mapping(address => bool) public hasVoted */\n    tag_11:\n      mstore(0x20, 0x02)\n      dup1\n      0x00\n      mstore\n      keccak256(0x00, 0x40)\n      0x00\n      swap2\n      pop\n      sload\n      swap1\n      0x0100\n      exp\n      swap1\n      div\n      0xff\n      and\n      dup2\n      jump\t// out\n        /* \"contracts/Election.sol\":121:146  uint public votesToRemove */\n    tag_15:\n      sload(0x01)\n      dup2\n      jump\t// out\n        /* \"contracts/Election.sol\":368:501  function voteToAdd(address voterAddr) notVoted(voterAddr) public {... */\n    tag_20:\n        /* \"contracts/Election.sol\":415:424  voterAddr */\n      dup1\n        /* \"contracts/Election.sol\":290:295  false */\n      0x00\n        /* \"contracts/Election.sol\":267:295  hasVoted[voterAddr] == false */\n      iszero\n      iszero\n        /* \"contracts/Election.sol\":267:275  hasVoted */\n      0x02\n        /* \"contracts/Election.sol\":267:286  hasVoted[voterAddr] */\n      0x00\n        /* \"contracts/Election.sol\":276:285  voterAddr */\n      dup4\n        /* \"contracts/Election.sol\":267:286  hasVoted[voterAddr] */\n      0xffffffffffffffffffffffffffffffffffffffff\n      and\n      0xffffffffffffffffffffffffffffffffffffffff\n      and\n      dup2\n      mstore\n      0x20\n      add\n      swap1\n      dup2\n      mstore\n      0x20\n      add\n      0x00\n      keccak256\n      0x00\n      swap1\n      sload\n      swap1\n      0x0100\n      exp\n      swap1\n      div\n      0xff\n      and\n        /* \"contracts/Election.sol\":267:295  hasVoted[voterAddr] == false */\n      iszero\n      iszero\n      eq\n        /* \"contracts/Election.sol\":246:344  require(... */\n      tag_28\n      jumpi\n      mload(0x40)\n      0x08c379a000000000000000000000000000000000000000000000000000000000\n      dup2\n      mstore\n      0x04\n      add\n      tag_29\n      swap1\n      tag_30\n      jump\t// in\n    tag_29:\n      mload(0x40)\n      dup1\n      swap2\n      sub\n      swap1\n      revert\n    tag_28:\n        /* \"contracts/Election.sol\":457:458  1 */\n      0x01\n        /* \"contracts/Election.sol\":443:453  votesToAdd */\n      0x00\n      dup1\n        /* \"contracts/Election.sol\":443:458  votesToAdd += 1 */\n      dup3\n      dup3\n      sload\n      tag_32\n      swap2\n      swap1\n      tag_33\n      jump\t// in\n    tag_32:\n      swap3\n      pop\n      pop\n      dup2\n      swap1\n      sstore\n      pop\n        /* \"contracts/Election.sol\":490:494  true */\n      0x01\n        /* \"contracts/Election.sol\":468:476  hasVoted */\n      0x02\n        /* \"contracts/Election.sol\":468:487  hasVoted[voterAddr] */\n      0x00\n        /* \"contracts/Election.sol\":477:486  voterAddr */\n      dup5\n        /* \"contracts/Election.sol\":468:487  hasVoted[voterAddr] */\n      0xffffffffffffffffffffffffffffffffffffffff\n      and\n      0xffffffffffffffffffffffffffffffffffffffff\n      and\n      dup2\n      mstore\n      0x20\n      add\n      swap1\n      dup2\n      mstore\n      0x20\n      add\n      0x00\n      keccak256\n      0x00\n        /* \"contracts/Election.sol\":468:494  hasVoted[voterAddr] = true */\n      0x0100\n      exp\n      dup2\n      sload\n      dup2\n      0xff\n      mul\n      not\n      and\n      swap1\n      dup4\n      iszero\n      iszero\n      mul\n      or\n      swap1\n      sstore\n      pop\n        /* \"contracts/Election.sol\":368:501  function voteToAdd(address voterAddr) notVoted(voterAddr) public {... */\n      pop\n      pop\n      jump\t// out\n        /* \"contracts/Election.sol\":507:646  function voteToRemove(address voterAddr) notVoted(voterAddr) public {... */\n    tag_23:\n        /* \"contracts/Election.sol\":557:566  voterAddr */\n      dup1\n        /* \"contracts/Election.sol\":290:295  false */\n      0x00\n        /* \"contracts/Election.sol\":267:295  hasVoted[voterAddr] == false */\n      iszero\n      iszero\n        /* \"contracts/Election.sol\":267:275  hasVoted */\n      0x02\n        /* \"contracts/Election.sol\":267:286  hasVoted[voterAddr] */\n      0x00\n        /* \"contracts/Election.sol\":276:285  voterAddr */\n      dup4\n        /* \"contracts/Election.sol\":267:286  hasVoted[voterAddr] */\n      0xffffffffffffffffffffffffffffffffffffffff\n      and\n      0xffffffffffffffffffffffffffffffffffffffff\n      and\n      dup2\n      mstore\n      0x20\n      add\n      swap1\n      dup2\n      mstore\n      0x20\n      add\n      0x00\n      keccak256\n      0x00\n      swap1\n      sload\n      swap1\n      0x0100\n      exp\n      swap1\n      div\n      0xff\n      and\n        /* \"contracts/Election.sol\":267:295  hasVoted[voterAddr] == false */\n      iszero\n      iszero\n      eq\n        /* \"contracts/Election.sol\":246:344  require(... */\n      tag_35\n      jumpi\n      mload(0x40)\n      0x08c379a000000000000000000000000000000000000000000000000000000000\n      dup2\n      mstore\n      0x04\n      add\n      tag_36\n      swap1\n      tag_30\n      jump\t// in\n    tag_36:\n      mload(0x40)\n      dup1\n      swap2\n      sub\n      swap1\n      revert\n    tag_35:\n        /* \"contracts/Election.sol\":602:603  1 */\n      0x01\n        /* \"contracts/Election.sol\":585:598  votesToRemove */\n      dup1\n      0x00\n        /* \"contracts/Election.sol\":585:603  votesToRemove += 1 */\n      dup3\n      dup3\n      sload\n      tag_38\n      swap2\n      swap1\n      tag_33\n      jump\t// in\n    tag_38:\n      swap3\n      pop\n      pop\n      dup2\n      swap1\n      sstore\n      pop\n        /* \"contracts/Election.sol\":635:639  true */\n      0x01\n        /* \"contracts/Election.sol\":613:621  hasVoted */\n      0x02\n        /* \"contracts/Election.sol\":613:632  hasVoted[voterAddr] */\n      0x00\n        /* \"contracts/Election.sol\":622:631  voterAddr */\n      dup5\n        /* \"contracts/Election.sol\":613:632  hasVoted[voterAddr] */\n      0xffffffffffffffffffffffffffffffffffffffff\n      and\n      0xffffffffffffffffffffffffffffffffffffffff\n      and\n      dup2\n      mstore\n      0x20\n      add\n      swap1\n      dup2\n      mstore\n      0x20\n      add\n      0x00\n      keccak256\n      0x00\n        /* \"contracts/Election.sol\":613:639  hasVoted[voterAddr] = true */\n      0x0100\n      exp\n      dup2\n      sload\n      dup2\n      0xff\n      mul\n      not\n      and\n      swap1\n      dup4\n      iszero\n      iszero\n      mul\n      or\n      swap1\n      sstore\n      pop\n        /* \"contracts/Election.sol\":507:646  function voteToRemove(address voterAddr) notVoted(voterAddr) public {... */\n      pop\n      pop\n      jump\t// out\n        /* \"contracts/Election.sol\":93:115  uint public votesToAdd */\n    tag_25:\n      sload(0x00)\n      dup2\n      jump\t// out\n        /* \"#utility.yul\":7:146   */\n    tag_40:\n        /* \"#utility.yul\":53:58   */\n      0x00\n        /* \"#utility.yul\":91:97   */\n      dup2\n        /* \"#utility.yul\":78:98   */\n      calldataload\n        /* \"#utility.yul\":69:98   */\n      swap1\n      pop\n        /* \"#utility.yul\":107:140   */\n      tag_42\n        /* \"#utility.yul\":134:139   */\n      dup2\n        /* \"#utility.yul\":107:140   */\n      tag_43\n      jump\t// in\n    tag_42:\n        /* \"#utility.yul\":7:146   */\n      swap3\n      swap2\n      pop\n      pop\n      jump\t// out\n        /* \"#utility.yul\":152:481   */\n    tag_10:\n        /* \"#utility.yul\":211:217   */\n      0x00\n        /* \"#utility.yul\":260:262   */\n      0x20\n        /* \"#utility.yul\":248:257   */\n      dup3\n        /* \"#utility.yul\":239:246   */\n      dup5\n        /* \"#utility.yul\":235:258   */\n      sub\n        /* \"#utility.yul\":231:263   */\n      slt\n        /* \"#utility.yul\":228:347   */\n      iszero\n      tag_45\n      jumpi\n        /* \"#utility.yul\":266:345   */\n      tag_46\n      tag_47\n      jump\t// in\n    tag_46:\n        /* \"#utility.yul\":228:347   */\n    tag_45:\n        /* \"#utility.yul\":386:387   */\n      0x00\n        /* \"#utility.yul\":411:464   */\n      tag_48\n        /* \"#utility.yul\":456:463   */\n      dup5\n        /* \"#utility.yul\":447:453   */\n      dup3\n        /* \"#utility.yul\":436:445   */\n      dup6\n        /* \"#utility.yul\":432:454   */\n      add\n        /* \"#utility.yul\":411:464   */\n      tag_40\n      jump\t// in\n    tag_48:\n        /* \"#utility.yul\":401:464   */\n      swap2\n      pop\n        /* \"#utility.yul\":357:474   */\n      pop\n        /* \"#utility.yul\":152:481   */\n      swap3\n      swap2\n      pop\n      pop\n      jump\t// out\n        /* \"#utility.yul\":487:596   */\n    tag_49:\n        /* \"#utility.yul\":568:589   */\n      tag_51\n        /* \"#utility.yul\":583:588   */\n      dup2\n        /* \"#utility.yul\":568:589   */\n      tag_52\n      jump\t// in\n    tag_51:\n        /* \"#utility.yul\":563:566   */\n      dup3\n        /* \"#utility.yul\":556:590   */\n      mstore\n        /* \"#utility.yul\":487:596   */\n      pop\n      pop\n      jump\t// out\n        /* \"#utility.yul\":602:968   */\n    tag_53:\n        /* \"#utility.yul\":744:747   */\n      0x00\n        /* \"#utility.yul\":765:832   */\n      tag_55\n        /* \"#utility.yul\":829:831   */\n      0x17\n        /* \"#utility.yul\":824:827   */\n      dup4\n        /* \"#utility.yul\":765:832   */\n      tag_56\n      jump\t// in\n    tag_55:\n        /* \"#utility.yul\":758:832   */\n      swap2\n      pop\n        /* \"#utility.yul\":841:934   */\n      tag_57\n        /* \"#utility.yul\":930:933   */\n      dup3\n        /* \"#utility.yul\":841:934   */\n      tag_58\n      jump\t// in\n    tag_57:\n        /* \"#utility.yul\":959:961   */\n      0x20\n        /* \"#utility.yul\":954:957   */\n      dup3\n        /* \"#utility.yul\":950:962   */\n      add\n        /* \"#utility.yul\":943:962   */\n      swap1\n      pop\n        /* \"#utility.yul\":602:968   */\n      swap2\n      swap1\n      pop\n      jump\t// out\n        /* \"#utility.yul\":974:1092   */\n    tag_59:\n        /* \"#utility.yul\":1061:1085   */\n      tag_61\n        /* \"#utility.yul\":1079:1084   */\n      dup2\n        /* \"#utility.yul\":1061:1085   */\n      tag_62\n      jump\t// in\n    tag_61:\n        /* \"#utility.yul\":1056:1059   */\n      dup3\n        /* \"#utility.yul\":1049:1086   */\n      mstore\n        /* \"#utility.yul\":974:1092   */\n      pop\n      pop\n      jump\t// out\n        /* \"#utility.yul\":1098:1308   */\n    tag_13:\n        /* \"#utility.yul\":1185:1189   */\n      0x00\n        /* \"#utility.yul\":1223:1225   */\n      0x20\n        /* \"#utility.yul\":1212:1221   */\n      dup3\n        /* \"#utility.yul\":1208:1226   */\n      add\n        /* \"#utility.yul\":1200:1226   */\n      swap1\n      pop\n        /* \"#utility.yul\":1236:1301   */\n      tag_64\n        /* \"#utility.yul\":1298:1299   */\n      0x00\n        /* \"#utility.yul\":1287:1296   */\n      dup4\n        /* \"#utility.yul\":1283:1300   */\n      add\n        /* \"#utility.yul\":1274:1280   */\n      dup5\n        /* \"#utility.yul\":1236:1301   */\n      tag_49\n      jump\t// in\n    tag_64:\n        /* \"#utility.yul\":1098:1308   */\n      swap3\n      swap2\n      pop\n      pop\n      jump\t// out\n        /* \"#utility.yul\":1314:1733   */\n    tag_30:\n        /* \"#utility.yul\":1480:1484   */\n      0x00\n        /* \"#utility.yul\":1518:1520   */\n      0x20\n        /* \"#utility.yul\":1507:1516   */\n      dup3\n        /* \"#utility.yul\":1503:1521   */\n      add\n        /* \"#utility.yul\":1495:1521   */\n      swap1\n      pop\n        /* \"#utility.yul\":1567:1576   */\n      dup2\n        /* \"#utility.yul\":1561:1565   */\n      dup2\n        /* \"#utility.yul\":1557:1577   */\n      sub\n        /* \"#utility.yul\":1553:1554   */\n      0x00\n        /* \"#utility.yul\":1542:1551   */\n      dup4\n        /* \"#utility.yul\":1538:1555   */\n      add\n        /* \"#utility.yul\":1531:1578   */\n      mstore\n        /* \"#utility.yul\":1595:1726   */\n      tag_66\n        /* \"#utility.yul\":1721:1725   */\n      dup2\n        /* \"#utility.yul\":1595:1726   */\n      tag_53\n      jump\t// in\n    tag_66:\n        /* \"#utility.yul\":1587:1726   */\n      swap1\n      pop\n        /* \"#utility.yul\":1314:1733   */\n      swap2\n      swap1\n      pop\n      jump\t// out\n        /* \"#utility.yul\":1739:1961   */\n    tag_17:\n        /* \"#utility.yul\":1832:1836   */\n      0x00\n        /* \"#utility.yul\":1870:1872   */\n      0x20\n        /* \"#utility.yul\":1859:1868   */\n      dup3\n        /* \"#utility.yul\":1855:1873   */\n      add\n        /* \"#utility.yul\":1847:1873   */\n      swap1\n      pop\n        /* \"#utility.yul\":1883:1954   */\n      tag_68\n        /* \"#utility.yul\":1951:1952   */\n      0x00\n        /* \"#utility.yul\":1940:1949   */\n      dup4\n        /* \"#utility.yul\":1936:1953   */\n      add\n        /* \"#utility.yul\":1927:1933   */\n      dup5\n        /* \"#utility.yul\":1883:1954   */\n      tag_59\n      jump\t// in\n    tag_68:\n        /* \"#utility.yul\":1739:1961   */\n      swap3\n      swap2\n      pop\n      pop\n      jump\t// out\n        /* \"#utility.yul\":2048:2217   */\n    tag_56:\n        /* \"#utility.yul\":2132:2143   */\n      0x00\n        /* \"#utility.yul\":2166:2172   */\n      dup3\n        /* \"#utility.yul\":2161:2164   */\n      dup3\n        /* \"#utility.yul\":2154:2173   */\n      mstore\n        /* \"#utility.yul\":2206:2210   */\n      0x20\n        /* \"#utility.yul\":2201:2204   */\n      dup3\n        /* \"#utility.yul\":2197:2211   */\n      add\n        /* \"#utility.yul\":2182:2211   */\n      swap1\n      pop\n        /* \"#utility.yul\":2048:2217   */\n      swap3\n      swap2\n      pop\n      pop\n      jump\t// out\n        /* \"#utility.yul\":2223:2528   */\n    tag_33:\n        /* \"#utility.yul\":2263:2266   */\n      0x00\n        /* \"#utility.yul\":2282:2302   */\n      tag_73\n        /* \"#utility.yul\":2300:2301   */\n      dup3\n        /* \"#utility.yul\":2282:2302   */\n      tag_62\n      jump\t// in\n    tag_73:\n        /* \"#utility.yul\":2277:2302   */\n      swap2\n      pop\n        /* \"#utility.yul\":2316:2336   */\n      tag_74\n        /* \"#utility.yul\":2334:2335   */\n      dup4\n        /* \"#utility.yul\":2316:2336   */\n      tag_62\n      jump\t// in\n    tag_74:\n        /* \"#utility.yul\":2311:2336   */\n      swap3\n      pop\n        /* \"#utility.yul\":2470:2471   */\n      dup3\n        /* \"#utility.yul\":2402:2468   */\n      0xffffffffffffffffffffffffffffffffffffffffffffffffffffffffffffffff\n        /* \"#utility.yul\":2398:2472   */\n      sub\n        /* \"#utility.yul\":2395:2396   */\n      dup3\n        /* \"#utility.yul\":2392:2473   */\n      gt\n        /* \"#utility.yul\":2389:2496   */\n      iszero\n      tag_75\n      jumpi\n        /* \"#utility.yul\":2476:2494   */\n      tag_76\n      tag_77\n      jump\t// in\n    tag_76:\n        /* \"#utility.yul\":2389:2496   */\n    tag_75:\n        /* \"#utility.yul\":2520:2521   */\n      dup3\n        /* \"#utility.yul\":2517:2518   */\n      dup3\n        /* \"#utility.yul\":2513:2522   */\n      add\n        /* \"#utility.yul\":2506:2522   */\n      swap1\n      pop\n        /* \"#utility.yul\":2223:2528   */\n      swap3\n      swap2\n      pop\n      pop\n      jump\t// out\n        /* \"#utility.yul\":2534:2630   */\n    tag_78:\n        /* \"#utility.yul\":2571:2578   */\n      0x00\n        /* \"#utility.yul\":2600:2624   */\n      tag_80\n        /* \"#utility.yul\":2618:2623   */\n      dup3\n        /* \"#utility.yul\":2600:2624   */\n      tag_81\n      jump\t// in\n    tag_80:\n        /* \"#utility.yul\":2589:2624   */\n      swap1\n      pop\n        /* \"#utility.yul\":2534:2630   */\n      swap2\n      swap1\n      pop\n      jump\t// out\n        /* \"#utility.yul\":2636:2726   */\n    tag_52:\n        /* \"#utility.yul\":2670:2677   */\n      0x00\n        /* \"#utility.yul\":2713:2718   */\n      dup2\n        /* \"#utility.yul\":2706:2719   */\n      iszero\n        /* \"#utility.yul\":2699:2720   */\n      iszero\n        /* \"#utility.yul\":2688:2720   */\n      swap1\n      pop\n        /* \"#utility.yul\":2636:2726   */\n      swap2\n      swap1\n      pop\n      jump\t// out\n        /* \"#utility.yul\":2732:2858   */\n    tag_81:\n        /* \"#utility.yul\":2769:2776   */\n      0x00\n        /* \"#utility.yul\":2809:2851   */\n      0xffffffffffffffffffffffffffffffffffffffff\n        /* \"#utility.yul\":2802:2807   */\n      dup3\n        /* \"#utility.yul\":2798:2852   */\n      and\n        /* \"#utility.yul\":2787:2852   */\n      swap1\n      pop\n        /* \"#utility.yul\":2732:2858   */\n      swap2\n      swap1\n      pop\n      jump\t// out\n        /* \"#utility.yul\":2864:2941   */\n    tag_62:\n        /* \"#utility.yul\":2901:2908   */\n      0x00\n        /* \"#utility.yul\":2930:2935   */\n      dup2\n        /* \"#utility.yul\":2919:2935   */\n      swap1\n      pop\n        /* \"#utility.yul\":2864:2941   */\n      swap2\n      swap1\n      pop\n      jump\t// out\n        /* \"#utility.yul\":2947:3127   */\n    tag_77:\n        /* \"#utility.yul\":2995:3072   */\n      0x4e487b7100000000000000000000000000000000000000000000000000000000\n        /* \"#utility.yul\":2992:2993   */\n      0x00\n        /* \"#utility.yul\":2985:3073   */\n      mstore\n        /* \"#utility.yul\":3092:3096   */\n      0x11\n        /* \"#utility.yul\":3089:3090   */\n      0x04\n        /* \"#utility.yul\":3082:3097   */\n      mstore\n        /* \"#utility.yul\":3116:3120   */\n      0x24\n        /* \"#utility.yul\":3113:3114   */\n      0x00\n        /* \"#utility.yul\":3106:3121   */\n      revert\n        /* \"#utility.yul\":3256:3373   */\n    tag_47:\n        /* \"#utility.yul\":3365:3366   */\n      0x00\n        /* \"#utility.yul\":3362:3363   */\n      dup1\n        /* \"#utility.yul\":3355:3367   */\n      revert\n        /* \"#utility.yul\":3379:3552   */\n    tag_58:\n        /* \"#utility.yul\":3519:3544   */\n      0x41646d696e2068617320616c726561647920766f746564000000000000000000\n        /* \"#utility.yul\":3515:3516   */\n      0x00\n        /* \"#utility.yul\":3507:3513   */\n      dup3\n        /* \"#utility.yul\":3503:3517   */\n      add\n        /* \"#utility.yul\":3496:3545   */\n      mstore\n        /* \"#utility.yul\":3379:3552   */\n      pop\n      jump\t// out\n        /* \"#utility.yul\":3558:3680   */\n    tag_43:\n        /* \"#utility.yul\":3631:3655   */\n      tag_91\n        /* \"#utility.yul\":3649:3654   */\n      dup2\n        /* \"#utility.yul\":3631:3655   */\n      tag_78\n      jump\t// in\n    tag_91:\n        /* \"#utility.yul\":3624:3629   */\n      dup2\n        /* \"#utility.yul\":3621:3656   */\n      eq\n        /* \"#utility.yul\":3611:3674   */\n      tag_92\n      jumpi\n        /* \"#utility.yul\":3670:3671   */\n      0x00\n        /* \"#utility.yul\":3667:3668   */\n      dup1\n        /* \"#utility.yul\":3660:3672   */\n      revert\n        /* \"#utility.yul\":3611:3674   */\n    tag_92:\n        /* \"#utility.yul\":3558:3680   */\n      pop\n      jump\t// out\n\n    auxdata: 0xa264697066735822122029d56764cc4a574dfe5ea5a0e9310886a2fa19e6a513c85ac56e400b16cabde364736f6c63430008070033\n}\n",
				"bytecode": {
					"linkReferences": {},
					"object": "608060405234801561001057600080fd5b50610570806100206000396000f3fe608060405234801561001057600080fd5b50600436106100575760003560e01c806309eef43e1461005c5780635cb7e8af1461008c57806369596d70146100aa5780637727d3aa146100c6578063929155bf146100e2575b600080fd5b61007660048036038101906100719190610353565b610100565b60405161008391906103c1565b60405180910390f35b610094610120565b6040516100a191906103fc565b60405180910390f35b6100c460048036038101906100bf9190610353565b610126565b005b6100e060048036038101906100db9190610353565b61022f565b005b6100ea610338565b6040516100f791906103fc565b60405180910390f35b60026020528060005260406000206000915054906101000a900460ff1681565b60015481565b8060001515600260008373ffffffffffffffffffffffffffffffffffffffff1673ffffffffffffffffffffffffffffffffffffffff16815260200190815260200160002060009054906101000a900460ff161515146101ba576040517f08c379a00000000000000000000000000000000000000000000000000000000081526004016101b1906103dc565b60405180910390fd5b60016000808282546101cc9190610428565b925050819055506001600260008473ffffffffffffffffffffffffffffffffffffffff1673ffffffffffffffffffffffffffffffffffffffff16815260200190815260200160002060006101000a81548160ff0219169083151502179055505050565b8060001515600260008373ffffffffffffffffffffffffffffffffffffffff1673ffffffffffffffffffffffffffffffffffffffff16815260200190815260200160002060009054906101000a900460ff161515146102c3576040517f08c379a00000000000000000000000000000000000000000000000000000000081526004016102ba906103dc565b60405180910390fd5b60018060008282546102d59190610428565b925050819055506001600260008473ffffffffffffffffffffffffffffffffffffffff1673ffffffffffffffffffffffffffffffffffffffff16815260200190815260200160002060006101000a81548160ff0219169083151502179055505050565b60005481565b60008135905061034d81610523565b92915050565b600060208284031215610369576103686104f5565b5b60006103778482850161033e565b91505092915050565b61038981610490565b82525050565b600061039c601783610417565b91506103a7826104fa565b602082019050919050565b6103bb816104bc565b82525050565b60006020820190506103d66000830184610380565b92915050565b600060208201905081810360008301526103f58161038f565b9050919050565b600060208201905061041160008301846103b2565b92915050565b600082825260208201905092915050565b6000610433826104bc565b915061043e836104bc565b9250827fffffffffffffffffffffffffffffffffffffffffffffffffffffffffffffffff03821115610473576104726104c6565b5b828201905092915050565b60006104898261049c565b9050919050565b60008115159050919050565b600073ffffffffffffffffffffffffffffffffffffffff82169050919050565b6000819050919050565b7f4e487b7100000000000000000000000000000000000000000000000000000000600052601160045260246000fd5b600080fd5b7f41646d696e2068617320616c726561647920766f746564000000000000000000600082015250565b61052c8161047e565b811461053757600080fd5b5056fea264697066735822122029d56764cc4a574dfe5ea5a0e9310886a2fa19e6a513c85ac56e400b16cabde364736f6c63430008070033",
					"opcodes": "PUSH1 0x80 PUSH1 0x40 MSTORE CALLVALUE DUP1 ISZERO PUSH2 0x10 JUMPI PUSH1 0x0 DUP1 REVERT JUMPDEST POP PUSH2 0x570 DUP1 PUSH2 0x20 PUSH1 0x0 CODECOPY PUSH1 0x0 RETURN INVALID PUSH1 0x80 PUSH1 0x40 MSTORE CALLVALUE DUP1 ISZERO PUSH2 0x10 JUMPI PUSH1 0x0 DUP1 REVERT JUMPDEST POP PUSH1 0x4 CALLDATASIZE LT PUSH2 0x57 JUMPI PUSH1 0x0 CALLDATALOAD PUSH1 0xE0 SHR DUP1 PUSH4 0x9EEF43E EQ PUSH2 0x5C JUMPI DUP1 PUSH4 0x5CB7E8AF EQ PUSH2 0x8C JUMPI DUP1 PUSH4 0x69596D70 EQ PUSH2 0xAA JUMPI DUP1 PUSH4 0x7727D3AA EQ PUSH2 0xC6 JUMPI DUP1 PUSH4 0x929155BF EQ PUSH2 0xE2 JUMPI JUMPDEST PUSH1 0x0 DUP1 REVERT JUMPDEST PUSH2 0x76 PUSH1 0x4 DUP1 CALLDATASIZE SUB DUP2 ADD SWAP1 PUSH2 0x71 SWAP2 SWAP1 PUSH2 0x353 JUMP JUMPDEST PUSH2 0x100 JUMP JUMPDEST PUSH1 0x40 MLOAD PUSH2 0x83 SWAP2 SWAP1 PUSH2 0x3C1 JUMP JUMPDEST PUSH1 0x40 MLOAD DUP1 SWAP2 SUB SWAP1 RETURN JUMPDEST PUSH2 0x94 PUSH2 0x120 JUMP JUMPDEST PUSH1 0x40 MLOAD PUSH2 0xA1 SWAP2 SWAP1 PUSH2 0x3FC JUMP JUMPDEST PUSH1 0x40 MLOAD DUP1 SWAP2 SUB SWAP1 RETURN JUMPDEST PUSH2 0xC4 PUSH1 0x4 DUP1 CALLDATASIZE SUB DUP2 ADD SWAP1 PUSH2 0xBF SWAP2 SWAP1 PUSH2 0x353 JUMP JUMPDEST PUSH2 0x126 JUMP JUMPDEST STOP JUMPDEST PUSH2 0xE0 PUSH1 0x4 DUP1 CALLDATASIZE SUB DUP2 ADD SWAP1 PUSH2 0xDB SWAP2 SWAP1 PUSH2 0x353 JUMP JUMPDEST PUSH2 0x22F JUMP JUMPDEST STOP JUMPDEST PUSH2 0xEA PUSH2 0x338 JUMP JUMPDEST PUSH1 0x40 MLOAD PUSH2 0xF7 SWAP2 SWAP1 PUSH2 0x3FC JUMP JUMPDEST PUSH1 0x40 MLOAD DUP1 SWAP2 SUB SWAP1 RETURN JUMPDEST PUSH1 0x2 PUSH1 0x20 MSTORE DUP1 PUSH1 0x0 MSTORE PUSH1 0x40 PUSH1 0x0 KECCAK256 PUSH1 0x0 SWAP2 POP SLOAD SWAP1 PUSH2 0x100 EXP SWAP1 DIV PUSH1 0xFF AND DUP2 JUMP JUMPDEST PUSH1 0x1 SLOAD DUP2 JUMP JUMPDEST DUP1 PUSH1 0x0 ISZERO ISZERO PUSH1 0x2 PUSH1 0x0 DUP4 PUSH20 0xFFFFFFFFFFFFFFFFFFFFFFFFFFFFFFFFFFFFFFFF AND PUSH20 0xFFFFFFFFFFFFFFFFFFFFFFFFFFFFFFFFFFFFFFFF AND DUP2 MSTORE PUSH1 0x20 ADD SWAP1 DUP2 MSTORE PUSH1 0x20 ADD PUSH1 0x0 KECCAK256 PUSH1 0x0 SWAP1 SLOAD SWAP1 PUSH2 0x100 EXP SWAP1 DIV PUSH1 0xFF AND ISZERO ISZERO EQ PUSH2 0x1BA JUMPI PUSH1 0x40 MLOAD PUSH32 0x8C379A000000000000000000000000000000000000000000000000000000000 DUP2 MSTORE PUSH1 0x4 ADD PUSH2 0x1B1 SWAP1 PUSH2 0x3DC JUMP JUMPDEST PUSH1 0x40 MLOAD DUP1 SWAP2 SUB SWAP1 REVERT JUMPDEST PUSH1 0x1 PUSH1 0x0 DUP1 DUP3 DUP3 SLOAD PUSH2 0x1CC SWAP2 SWAP1 PUSH2 0x428 JUMP JUMPDEST SWAP3 POP POP DUP2 SWAP1 SSTORE POP PUSH1 0x1 PUSH1 0x2 PUSH1 0x0 DUP5 PUSH20 0xFFFFFFFFFFFFFFFFFFFFFFFFFFFFFFFFFFFFFFFF AND PUSH20 0xFFFFFFFFFFFFFFFFFFFFFFFFFFFFFFFFFFFFFFFF AND DUP2 MSTORE PUSH1 0x20 ADD SWAP1 DUP2 MSTORE PUSH1 0x20 ADD PUSH1 0x0 KECCAK256 PUSH1 0x0 PUSH2 0x100 EXP DUP2 SLOAD DUP2 PUSH1 0xFF MUL NOT AND SWAP1 DUP4 ISZERO ISZERO MUL OR SWAP1 SSTORE POP POP POP JUMP JUMPDEST DUP1 PUSH1 0x0 ISZERO ISZERO PUSH1 0x2 PUSH1 0x0 DUP4 PUSH20 0xFFFFFFFFFFFFFFFFFFFFFFFFFFFFFFFFFFFFFFFF AND PUSH20 0xFFFFFFFFFFFFFFFFFFFFFFFFFFFFFFFFFFFFFFFF AND DUP2 MSTORE PUSH1 0x20 ADD SWAP1 DUP2 MSTORE PUSH1 0x20 ADD PUSH1 0x0 KECCAK256 PUSH1 0x0 SWAP1 SLOAD SWAP1 PUSH2 0x100 EXP SWAP1 DIV PUSH1 0xFF AND ISZERO ISZERO EQ PUSH2 0x2C3 JUMPI PUSH1 0x40 MLOAD PUSH32 0x8C379A000000000000000000000000000000000000000000000000000000000 DUP2 MSTORE PUSH1 0x4 ADD PUSH2 0x2BA SWAP1 PUSH2 0x3DC JUMP JUMPDEST PUSH1 0x40 MLOAD DUP1 SWAP2 SUB SWAP1 REVERT JUMPDEST PUSH1 0x1 DUP1 PUSH1 0x0 DUP3 DUP3 SLOAD PUSH2 0x2D5 SWAP2 SWAP1 PUSH2 0x428 JUMP JUMPDEST SWAP3 POP POP DUP2 SWAP1 SSTORE POP PUSH1 0x1 PUSH1 0x2 PUSH1 0x0 DUP5 PUSH20 0xFFFFFFFFFFFFFFFFFFFFFFFFFFFFFFFFFFFFFFFF AND PUSH20 0xFFFFFFFFFFFFFFFFFFFFFFFFFFFFFFFFFFFFFFFF AND DUP2 MSTORE PUSH1 0x20 ADD SWAP1 DUP2 MSTORE PUSH1 0x20 ADD PUSH1 0x0 KECCAK256 PUSH1 0x0 PUSH2 0x100 EXP DUP2 SLOAD DUP2 PUSH1 0xFF MUL NOT AND SWAP1 DUP4 ISZERO ISZERO MUL OR SWAP1 SSTORE POP POP POP JUMP JUMPDEST PUSH1 0x0 SLOAD DUP2 JUMP JUMPDEST PUSH1 0x0 DUP2 CALLDATALOAD SWAP1 POP PUSH2 0x34D DUP2 PUSH2 0x523 JUMP JUMPDEST SWAP3 SWAP2 POP POP JUMP JUMPDEST PUSH1 0x0 PUSH1 0x20 DUP3 DUP5 SUB SLT ISZERO PUSH2 0x369 JUMPI PUSH2 0x368 PUSH2 0x4F5 JUMP JUMPDEST JUMPDEST PUSH1 0x0 PUSH2 0x377 DUP5 DUP3 DUP6 ADD PUSH2 0x33E JUMP JUMPDEST SWAP2 POP POP SWAP3 SWAP2 POP POP JUMP JUMPDEST PUSH2 0x389 DUP2 PUSH2 0x490 JUMP JUMPDEST DUP3 MSTORE POP POP JUMP JUMPDEST PUSH1 0x0 PUSH2 0x39C PUSH1 0x17 DUP4 PUSH2 0x417 JUMP JUMPDEST SWAP2 POP PUSH2 0x3A7 DUP3 PUSH2 0x4FA JUMP JUMPDEST PUSH1 0x20 DUP3 ADD SWAP1 POP SWAP2 SWAP1 POP JUMP JUMPDEST PUSH2 0x3BB DUP2 PUSH2 0x4BC JUMP JUMPDEST DUP3 MSTORE POP POP JUMP JUMPDEST PUSH1 0x0 PUSH1 0x20 DUP3 ADD SWAP1 POP PUSH2 0x3D6 PUSH1 0x0 DUP4 ADD DUP5 PUSH2 0x380 JUMP JUMPDEST SWAP3 SWAP2 POP POP JUMP JUMPDEST PUSH1 0x0 PUSH1 0x20 DUP3 ADD SWAP1 POP DUP2 DUP2 SUB PUSH1 0x0 DUP4 ADD MSTORE PUSH2 0x3F5 DUP2 PUSH2 0x38F JUMP JUMPDEST SWAP1 POP SWAP2 SWAP1 POP JUMP JUMPDEST PUSH1 0x0 PUSH1 0x20 DUP3 ADD SWAP1 POP PUSH2 0x411 PUSH1 0x0 DUP4 ADD DUP5 PUSH2 0x3B2 JUMP JUMPDEST SWAP3 SWAP2 POP POP JUMP JUMPDEST PUSH1 0x0 DUP3 DUP3 MSTORE PUSH1 0x20 DUP3 ADD SWAP1 POP SWAP3 SWAP2 POP POP JUMP JUMPDEST PUSH1 0x0 PUSH2 0x433 DUP3 PUSH2 0x4BC JUMP JUMPDEST SWAP2 POP PUSH2 0x43E DUP4 PUSH2 0x4BC JUMP JUMPDEST SWAP3 POP DUP3 PUSH32 0xFFFFFFFFFFFFFFFFFFFFFFFFFFFFFFFFFFFFFFFFFFFFFFFFFFFFFFFFFFFFFFFF SUB DUP3 GT ISZERO PUSH2 0x473 JUMPI PUSH2 0x472 PUSH2 0x4C6 JUMP JUMPDEST JUMPDEST DUP3 DUP3 ADD SWAP1 POP SWAP3 SWAP2 POP POP JUMP JUMPDEST PUSH1 0x0 PUSH2 0x489 DUP3 PUSH2 0x49C JUMP JUMPDEST SWAP1 POP SWAP2 SWAP1 POP JUMP JUMPDEST PUSH1 0x0 DUP2 ISZERO ISZERO SWAP1 POP SWAP2 SWAP1 POP JUMP JUMPDEST PUSH1 0x0 PUSH20 0xFFFFFFFFFFFFFFFFFFFFFFFFFFFFFFFFFFFFFFFF DUP3 AND SWAP1 POP SWAP2 SWAP1 POP JUMP JUMPDEST PUSH1 0x0 DUP2 SWAP1 POP SWAP2 SWAP1 POP JUMP JUMPDEST PUSH32 0x4E487B7100000000000000000000000000000000000000000000000000000000 PUSH1 0x0 MSTORE PUSH1 0x11 PUSH1 0x4 MSTORE PUSH1 0x24 PUSH1 0x0 REVERT JUMPDEST PUSH1 0x0 DUP1 REVERT JUMPDEST PUSH32 0x41646D696E2068617320616C726561647920766F746564000000000000000000 PUSH1 0x0 DUP3 ADD MSTORE POP JUMP JUMPDEST PUSH2 0x52C DUP2 PUSH2 0x47E JUMP JUMPDEST DUP2 EQ PUSH2 0x537 JUMPI PUSH1 0x0 DUP1 REVERT JUMPDEST POP JUMP INVALID LOG2 PUSH5 0x6970667358 0x22 SLT KECCAK256 0x29 0xD5 PUSH8 0x64CC4A574DFE5EA5 LOG0 0xE9 BALANCE ADDMOD DUP7 LOG2 STATICCALL NOT 0xE6 0xA5 SGT 0xC8 GAS 0xC5 PUSH15 0x400B16CABDE364736F6C6343000807 STOP CALLER "
				},
				"gasEstimates": {
					"creation": {
						"codeDepositCost": "278400",
						"executionCost": "318",
						"totalCost": "278718"
					},
					"external": {
						"hasVoted(address)": "2823",
						"voteToAdd(address)": "infinite",
						"voteToRemove(address)": "infinite",
						"votesToAdd()": "2495",
						"votesToRemove()": "2429"
					}
				},
				"methodIdentifiers": {
					"hasVoted(address)": "09eef43e",
					"voteToAdd(address)": "69596d70",
					"voteToRemove(address)": "7727d3aa",
					"votesToAdd()": "929155bf",
					"votesToRemove()": "5cb7e8af"
				}
			},
			"storageLayout": {
				"storage": [
					{
						"astId": 3,
						"contract": "contracts/Election.sol:Election",
						"label": "votesToAdd",
						"offset": 0,
						"slot": "0",
						"type": "t_uint256"
					},
					{
						"astId": 5,
						"contract": "contracts/Election.sol:Election",
						"label": "votesToRemove",
						"offset": 0,
						"slot": "1",
						"type": "t_uint256"
					},
					{
						"astId": 9,
						"contract": "contracts/Election.sol:Election",
						"label": "hasVoted",
						"offset": 0,
						"slot": "2",
						"type": "t_mapping(t_address,t_bool)"
					}
				],
				"types": {
					"t_address": {
						"encoding": "inplace",
						"label": "address",
						"numberOfBytes": "20"
					},
					"t_bool": {
						"encoding": "inplace",
						"label": "bool",
						"numberOfBytes": "1"
					},
					"t_mapping(t_address,t_bool)": {
						"encoding": "mapping",
						"key": "t_address",
						"label": "mapping(address => bool)",
						"numberOfBytes": "32",
						"value": "t_bool"
					},
					"t_uint256": {
						"encoding": "inplace",
						"label": "uint256",
						"numberOfBytes": "32"
					}
				}
			},
			"userdoc": {
				"kind": "user",
				"methods": {},
				"version": 1
			}
		}
	}
}