{
	"contracts/complex_verify.sol": {
		"ComplexVerifty": {
			"abi": [
				{
					"inputs": [
						{
							"internalType": "address",
							"name": "first_admin",
							"type": "address"
						}
					],
					"stateMutability": "nonpayable",
					"type": "constructor"
				},
				{
					"anonymous": false,
					"inputs": [
						{
							"indexed": true,
							"internalType": "address",
							"name": "addr",
							"type": "address"
						},
						{
							"indexed": true,
							"internalType": "address",
							"name": "sender",
							"type": "address"
						}
					],
					"name": "VerifiedAddressAdded",
					"type": "event"
				},
				{
					"anonymous": false,
					"inputs": [
						{
							"indexed": true,
							"internalType": "address",
							"name": "addr",
							"type": "address"
						},
						{
							"indexed": true,
							"internalType": "address",
							"name": "sender",
							"type": "address"
						}
					],
					"name": "VerifiedAddressRemoved",
					"type": "event"
				},
				{
					"anonymous": false,
					"inputs": [
						{
							"indexed": true,
							"internalType": "address",
							"name": "original",
							"type": "address"
						},
						{
							"indexed": true,
							"internalType": "address",
							"name": "replacement",
							"type": "address"
						},
						{
							"indexed": true,
							"internalType": "address",
							"name": "sender",
							"type": "address"
						}
					],
					"name": "VerifiedAddressSuperseded",
					"type": "event"
				},
				{
					"inputs": [
						{
							"internalType": "address",
							"name": "addr",
							"type": "address"
						}
					],
					"name": "addVerified",
					"outputs": [],
					"stateMutability": "nonpayable",
					"type": "function"
				},
				{
					"inputs": [
						{
							"internalType": "address",
							"name": "addr",
							"type": "address"
						}
					],
					"name": "addVerifier",
					"outputs": [],
					"stateMutability": "nonpayable",
					"type": "function"
				},
				{
					"inputs": [
						{
							"internalType": "address",
							"name": "addr",
							"type": "address"
						}
					],
					"name": "executeAdd",
					"outputs": [],
					"stateMutability": "nonpayable",
					"type": "function"
				},
				{
					"inputs": [
						{
							"internalType": "address",
							"name": "addr",
							"type": "address"
						}
					],
					"name": "isVerified",
					"outputs": [
						{
							"internalType": "bool",
							"name": "",
							"type": "bool"
						}
					],
					"stateMutability": "view",
					"type": "function"
				},
				{
					"inputs": [
						{
							"internalType": "address",
							"name": "addr",
							"type": "address"
						}
					],
					"name": "isVerifier",
					"outputs": [
						{
							"internalType": "bool",
							"name": "",
							"type": "bool"
						}
					],
					"stateMutability": "view",
					"type": "function"
				},
				{
					"inputs": [
						{
							"internalType": "address",
							"name": "addr",
							"type": "address"
						}
					],
					"name": "removeVerified",
					"outputs": [],
					"stateMutability": "nonpayable",
					"type": "function"
				},
				{
					"inputs": [
						{
							"internalType": "address",
							"name": "addr",
							"type": "address"
						}
					],
					"name": "removeVerifier",
					"outputs": [],
					"stateMutability": "nonpayable",
					"type": "function"
				},
				{
					"inputs": [
						{
							"internalType": "address",
							"name": "addr",
							"type": "address"
						}
					],
					"name": "voteToAdd",
					"outputs": [],
					"stateMutability": "nonpayable",
					"type": "function"
				}
			],
			"devdoc": {
				"kind": "dev",
				"methods": {
					"addVerified(address)": {
						"details": "Adds verified address to the contract."
					},
					"addVerifier(address)": {
						"details": "Add verifier to the contract."
					},
					"isVerified(address)": {
						"details": "Checks if a address is verified"
					},
					"isVerifier(address)": {
						"details": "Checks if an address is a verifier"
					},
					"removeVerified(address)": {
						"details": "Removes verified address from the contract."
					},
					"removeVerifier(address)": {
						"details": "Remove verifier from the contract."
					}
				},
				"version": 1
			},
			"evm": {
				"assembly": "    /* \"contracts/complex_verify.sol\":109:1292  contract ComplexVerifty is Verify(address(0)) {... */\n  mstore(0x40, 0x80)\n    /* \"contracts/complex_verify.sol\":419:520  constructor(address first_admin) {... */\n  callvalue\n  dup1\n  iszero\n  tag_1\n  jumpi\n  0x00\n  dup1\n  revert\ntag_1:\n  pop\n  mload(0x40)\n  sub(codesize, bytecodeSize)\n  dup1\n  bytecodeSize\n  dup4\n  codecopy\n  dup2\n  dup2\n  add\n  0x40\n  mstore\n  dup2\n  add\n  swap1\n  tag_2\n  swap2\n  swap1\n  tag_3\n  jump\t// in\ntag_2:\n    /* \"contracts/complex_verify.sol\":151:152  0 */\n  0x00\n    /* \"contracts/simple_verify.sol\":275:286  first_admin */\n  dup1\n    /* \"contracts/simple_verify.sol\":267:272  admin */\n  0x00\n  dup1\n    /* \"contracts/simple_verify.sol\":267:286  admin = first_admin */\n  0x0100\n  exp\n  dup2\n  sload\n  dup2\n  0xffffffffffffffffffffffffffffffffffffffff\n  mul\n  not\n  and\n  swap1\n  dup4\n  0xffffffffffffffffffffffffffffffffffffffff\n  and\n  mul\n  or\n  swap1\n  sstore\n  pop\n    /* \"contracts/simple_verify.sol\":224:293  constructor(address first_admin) {... */\n  pop\n    /* \"contracts/complex_verify.sol\":484:488  true */\n  0x01\n    /* \"contracts/complex_verify.sol\":462:468  admins */\n  0x04\n    /* \"contracts/complex_verify.sol\":462:481  admins[first_admin] */\n  0x00\n    /* \"contracts/complex_verify.sol\":469:480  first_admin */\n  dup4\n    /* \"contracts/complex_verify.sol\":462:481  admins[first_admin] */\n  0xffffffffffffffffffffffffffffffffffffffff\n  and\n  0xffffffffffffffffffffffffffffffffffffffff\n  and\n  dup2\n  mstore\n  0x20\n  add\n  swap1\n  dup2\n  mstore\n  0x20\n  add\n  0x00\n  keccak256\n  0x00\n    /* \"contracts/complex_verify.sol\":462:488  admins[first_admin] = true */\n  0x0100\n  exp\n  dup2\n  sload\n  dup2\n  0xff\n  mul\n  not\n  and\n  swap1\n  dup4\n  iszero\n  iszero\n  mul\n  or\n  swap1\n  sstore\n  pop\n    /* \"contracts/complex_verify.sol\":512:513  1 */\n  0x01\n    /* \"contracts/complex_verify.sol\":498:509  totalAdmins */\n  0x03\n    /* \"contracts/complex_verify.sol\":498:513  totalAdmins = 1 */\n  dup2\n  swap1\n  sstore\n  pop\n    /* \"contracts/complex_verify.sol\":419:520  constructor(address first_admin) {... */\n  pop\n    /* \"contracts/complex_verify.sol\":109:1292  contract ComplexVerifty is Verify(address(0)) {... */\n  jump(tag_8)\n    /* \"#utility.yul\":7:150   */\ntag_10:\n    /* \"#utility.yul\":64:69   */\n  0x00\n    /* \"#utility.yul\":95:101   */\n  dup2\n    /* \"#utility.yul\":89:102   */\n  mload\n    /* \"#utility.yul\":80:102   */\n  swap1\n  pop\n    /* \"#utility.yul\":111:144   */\n  tag_12\n    /* \"#utility.yul\":138:143   */\n  dup2\n    /* \"#utility.yul\":111:144   */\n  tag_13\n  jump\t// in\ntag_12:\n    /* \"#utility.yul\":7:150   */\n  swap3\n  swap2\n  pop\n  pop\n  jump\t// out\n    /* \"#utility.yul\":156:507   */\ntag_3:\n    /* \"#utility.yul\":226:232   */\n  0x00\n    /* \"#utility.yul\":275:277   */\n  0x20\n    /* \"#utility.yul\":263:272   */\n  dup3\n    /* \"#utility.yul\":254:261   */\n  dup5\n    /* \"#utility.yul\":250:273   */\n  sub\n    /* \"#utility.yul\":246:278   */\n  slt\n    /* \"#utility.yul\":243:362   */\n  iszero\n  tag_15\n  jumpi\n    /* \"#utility.yul\":281:360   */\n  tag_16\n  tag_17\n  jump\t// in\ntag_16:\n    /* \"#utility.yul\":243:362   */\ntag_15:\n    /* \"#utility.yul\":401:402   */\n  0x00\n    /* \"#utility.yul\":426:490   */\n  tag_18\n    /* \"#utility.yul\":482:489   */\n  dup5\n    /* \"#utility.yul\":473:479   */\n  dup3\n    /* \"#utility.yul\":462:471   */\n  dup6\n    /* \"#utility.yul\":458:480   */\n  add\n    /* \"#utility.yul\":426:490   */\n  tag_10\n  jump\t// in\ntag_18:\n    /* \"#utility.yul\":416:490   */\n  swap2\n  pop\n    /* \"#utility.yul\":372:500   */\n  pop\n    /* \"#utility.yul\":156:507   */\n  swap3\n  swap2\n  pop\n  pop\n  jump\t// out\n    /* \"#utility.yul\":594:690   */\ntag_21:\n    /* \"#utility.yul\":631:638   */\n  0x00\n    /* \"#utility.yul\":660:684   */\n  tag_23\n    /* \"#utility.yul\":678:683   */\n  dup3\n    /* \"#utility.yul\":660:684   */\n  tag_24\n  jump\t// in\ntag_23:\n    /* \"#utility.yul\":649:684   */\n  swap1\n  pop\n    /* \"#utility.yul\":594:690   */\n  swap2\n  swap1\n  pop\n  jump\t// out\n    /* \"#utility.yul\":696:822   */\ntag_24:\n    /* \"#utility.yul\":733:740   */\n  0x00\n    /* \"#utility.yul\":773:815   */\n  0xffffffffffffffffffffffffffffffffffffffff\n    /* \"#utility.yul\":766:771   */\n  dup3\n    /* \"#utility.yul\":762:816   */\n  and\n    /* \"#utility.yul\":751:816   */\n  swap1\n  pop\n    /* \"#utility.yul\":696:822   */\n  swap2\n  swap1\n  pop\n  jump\t// out\n    /* \"#utility.yul\":951:1068   */\ntag_17:\n    /* \"#utility.yul\":1060:1061   */\n  0x00\n    /* \"#utility.yul\":1057:1058   */\n  dup1\n    /* \"#utility.yul\":1050:1062   */\n  revert\n    /* \"#utility.yul\":1074:1196   */\ntag_13:\n    /* \"#utility.yul\":1147:1171   */\n  tag_30\n    /* \"#utility.yul\":1165:1170   */\n  dup2\n    /* \"#utility.yul\":1147:1171   */\n  tag_21\n  jump\t// in\ntag_30:\n    /* \"#utility.yul\":1140:1145   */\n  dup2\n    /* \"#utility.yul\":1137:1172   */\n  eq\n    /* \"#utility.yul\":1127:1190   */\n  tag_31\n  jumpi\n    /* \"#utility.yul\":1186:1187   */\n  0x00\n    /* \"#utility.yul\":1183:1184   */\n  dup1\n    /* \"#utility.yul\":1176:1188   */\n  revert\n    /* \"#utility.yul\":1127:1190   */\ntag_31:\n    /* \"#utility.yul\":1074:1196   */\n  pop\n  jump\t// out\n    /* \"contracts/complex_verify.sol\":109:1292  contract ComplexVerifty is Verify(address(0)) {... */\ntag_8:\n  dataSize(sub_0)\n  dup1\n  dataOffset(sub_0)\n  0x00\n  codecopy\n  0x00\n  return\nstop\n\nsub_0: assembly {\n        /* \"contracts/complex_verify.sol\":109:1292  contract ComplexVerifty is Verify(address(0)) {... */\n      mstore(0x40, 0x80)\n      callvalue\n      dup1\n      iszero\n      tag_1\n      jumpi\n      0x00\n      dup1\n      revert\n    tag_1:\n      pop\n      jumpi(tag_2, lt(calldatasize, 0x04))\n      shr(0xe0, calldataload(0x00))\n      dup1\n      0x69596d70\n      gt\n      tag_11\n      jumpi\n      dup1\n      0x69596d70\n      eq\n      tag_7\n      jumpi\n      dup1\n      0x9000b3d6\n      eq\n      tag_8\n      jumpi\n      dup1\n      0xb9209e33\n      eq\n      tag_9\n      jumpi\n      dup1\n      0xca2dfd0a\n      eq\n      tag_10\n      jumpi\n      jump(tag_2)\n    tag_11:\n      dup1\n      0x33105218\n      eq\n      tag_3\n      jumpi\n      dup1\n      0x4487b392\n      eq\n      tag_4\n      jumpi\n      dup1\n      0x47053b59\n      eq\n      tag_5\n      jumpi\n      dup1\n      0x5dc84e32\n      eq\n      tag_6\n      jumpi\n    tag_2:\n      0x00\n      dup1\n      revert\n        /* \"contracts/simple_verify.sol\":2731:2896  function isVerifier(address addr) public view returns (bool) {... */\n    tag_3:\n      tag_12\n      0x04\n      dup1\n      calldatasize\n      sub\n      dup2\n      add\n      swap1\n      tag_13\n      swap2\n      swap1\n      tag_14\n      jump\t// in\n    tag_13:\n      tag_15\n      jump\t// in\n    tag_12:\n      mload(0x40)\n      tag_16\n      swap2\n      swap1\n      tag_17\n      jump\t// in\n    tag_16:\n      mload(0x40)\n      dup1\n      swap2\n      sub\n      swap1\n      return\n        /* \"contracts/simple_verify.sol\":2249:2419  function removeVerified(address addr) senderIsVerifier public {      ... */\n    tag_4:\n      tag_18\n      0x04\n      dup1\n      calldatasize\n      sub\n      dup2\n      add\n      swap1\n      tag_19\n      swap2\n      swap1\n      tag_14\n      jump\t// in\n    tag_19:\n      tag_20\n      jump\t// in\n    tag_18:\n      stop\n        /* \"contracts/complex_verify.sol\":1066:1290  function executeAdd(address addr) senderIsAdmin public {... */\n    tag_5:\n      tag_21\n      0x04\n      dup1\n      calldatasize\n      sub\n      dup2\n      add\n      swap1\n      tag_22\n      swap2\n      swap1\n      tag_14\n      jump\t// in\n    tag_22:\n      tag_23\n      jump\t// in\n    tag_21:\n      stop\n        /* \"contracts/simple_verify.sol\":1778:2171  function addVerified(address addr) senderIsVerifier public {... */\n    tag_6:\n      tag_24\n      0x04\n      dup1\n      calldatasize\n      sub\n      dup2\n      add\n      swap1\n      tag_25\n      swap2\n      swap1\n      tag_14\n      jump\t// in\n    tag_25:\n      tag_26\n      jump\t// in\n    tag_24:\n      stop\n        /* \"contracts/complex_verify.sol\":689:1060  function voteToAdd(address addr) senderIsAdmin public {... */\n    tag_7:\n      tag_27\n      0x04\n      dup1\n      calldatasize\n      sub\n      dup2\n      add\n      swap1\n      tag_28\n      swap2\n      swap1\n      tag_14\n      jump\t// in\n    tag_28:\n      tag_29\n      jump\t// in\n    tag_27:\n      stop\n        /* \"contracts/simple_verify.sol\":1071:1401  function addVerifier(address addr) senderIsAdmin public {       ... */\n    tag_8:\n      tag_30\n      0x04\n      dup1\n      calldatasize\n      sub\n      dup2\n      add\n      swap1\n      tag_31\n      swap2\n      swap1\n      tag_14\n      jump\t// in\n    tag_31:\n      tag_32\n      jump\t// in\n    tag_30:\n      stop\n        /* \"contracts/simple_verify.sol\":2489:2662  function isVerified(address addr) public view returns (bool) {... */\n    tag_9:\n      tag_33\n      0x04\n      dup1\n      calldatasize\n      sub\n      dup2\n      add\n      swap1\n      tag_34\n      swap2\n      swap1\n      tag_14\n      jump\t// in\n    tag_34:\n      tag_35\n      jump\t// in\n    tag_33:\n      mload(0x40)\n      tag_36\n      swap2\n      swap1\n      tag_17\n      jump\t// in\n    tag_36:\n      mload(0x40)\n      dup1\n      swap2\n      sub\n      swap1\n      return\n        /* \"contracts/simple_verify.sol\":1470:1705  function removeVerifier(address addr) senderIsAdmin public {... */\n    tag_10:\n      tag_37\n      0x04\n      dup1\n      calldatasize\n      sub\n      dup2\n      add\n      swap1\n      tag_38\n      swap2\n      swap1\n      tag_14\n      jump\t// in\n    tag_38:\n      tag_39\n      jump\t// in\n    tag_37:\n      stop\n        /* \"contracts/simple_verify.sol\":2731:2896  function isVerifier(address addr) public view returns (bool) {... */\n    tag_15:\n        /* \"contracts/simple_verify.sol\":2786:2790  bool */\n      0x00\n        /* \"contracts/simple_verify.sol\":2825:2829  true */\n      0x01\n        /* \"contracts/simple_verify.sol\":2806:2829  verifiers[addr] == true */\n      iszero\n      iszero\n        /* \"contracts/simple_verify.sol\":2806:2815  verifiers */\n      0x02\n        /* \"contracts/simple_verify.sol\":2806:2821  verifiers[addr] */\n      0x00\n        /* \"contracts/simple_verify.sol\":2816:2820  addr */\n      dup5\n        /* \"contracts/simple_verify.sol\":2806:2821  verifiers[addr] */\n      0xffffffffffffffffffffffffffffffffffffffff\n      and\n      0xffffffffffffffffffffffffffffffffffffffff\n      and\n      dup2\n      mstore\n      0x20\n      add\n      swap1\n      dup2\n      mstore\n      0x20\n      add\n      0x00\n      keccak256\n      0x00\n      swap1\n      sload\n      swap1\n      0x0100\n      exp\n      swap1\n      div\n      0xff\n      and\n        /* \"contracts/simple_verify.sol\":2806:2829  verifiers[addr] == true */\n      iszero\n      iszero\n      eq\n        /* \"contracts/simple_verify.sol\":2802:2867  if (verifiers[addr] == true) {... */\n      iszero\n      tag_41\n      jumpi\n        /* \"contracts/simple_verify.sol\":2852:2856  true */\n      0x01\n        /* \"contracts/simple_verify.sol\":2845:2856  return true */\n      swap1\n      pop\n      jump(tag_40)\n        /* \"contracts/simple_verify.sol\":2802:2867  if (verifiers[addr] == true) {... */\n    tag_41:\n        /* \"contracts/simple_verify.sol\":2884:2889  false */\n      0x00\n        /* \"contracts/simple_verify.sol\":2877:2889  return false */\n      swap1\n      pop\n        /* \"contracts/simple_verify.sol\":2731:2896  function isVerifier(address addr) public view returns (bool) {... */\n    tag_40:\n      swap2\n      swap1\n      pop\n      jump\t// out\n        /* \"contracts/simple_verify.sol\":2249:2419  function removeVerified(address addr) senderIsVerifier public {      ... */\n    tag_20:\n        /* \"contracts/simple_verify.sol\":786:790  true */\n      0x01\n        /* \"contracts/simple_verify.sol\":761:790  verifiers[msg.sender] == true */\n      iszero\n      iszero\n        /* \"contracts/simple_verify.sol\":761:770  verifiers */\n      0x02\n        /* \"contracts/simple_verify.sol\":761:782  verifiers[msg.sender] */\n      0x00\n        /* \"contracts/simple_verify.sol\":771:781  msg.sender */\n      caller\n        /* \"contracts/simple_verify.sol\":761:782  verifiers[msg.sender] */\n      0xffffffffffffffffffffffffffffffffffffffff\n      and\n      0xffffffffffffffffffffffffffffffffffffffff\n      and\n      dup2\n      mstore\n      0x20\n      add\n      swap1\n      dup2\n      mstore\n      0x20\n      add\n      0x00\n      keccak256\n      0x00\n      swap1\n      sload\n      swap1\n      0x0100\n      exp\n      swap1\n      div\n      0xff\n      and\n        /* \"contracts/simple_verify.sol\":761:790  verifiers[msg.sender] == true */\n      iszero\n      iszero\n      eq\n        /* \"contracts/simple_verify.sol\":740:838  require(... */\n      tag_43\n      jumpi\n      mload(0x40)\n      0x08c379a000000000000000000000000000000000000000000000000000000000\n      dup2\n      mstore\n      0x04\n      add\n      tag_44\n      swap1\n      tag_45\n      jump\t// in\n    tag_44:\n      mload(0x40)\n      dup1\n      swap2\n      sub\n      swap1\n      revert\n    tag_43:\n        /* \"contracts/simple_verify.sol\":2354:2359  false */\n      0x00\n        /* \"contracts/simple_verify.sol\":2327:2359  verifiedAddresses[addr] == false */\n      iszero\n      iszero\n        /* \"contracts/simple_verify.sol\":2327:2344  verifiedAddresses */\n      0x01\n        /* \"contracts/simple_verify.sol\":2327:2350  verifiedAddresses[addr] */\n      0x00\n        /* \"contracts/simple_verify.sol\":2345:2349  addr */\n      dup4\n        /* \"contracts/simple_verify.sol\":2327:2350  verifiedAddresses[addr] */\n      0xffffffffffffffffffffffffffffffffffffffff\n      and\n      0xffffffffffffffffffffffffffffffffffffffff\n      and\n      dup2\n      mstore\n      0x20\n      add\n      swap1\n      dup2\n      mstore\n      0x20\n      add\n      0x00\n      keccak256\n      0x00\n      swap1\n      sload\n      swap1\n      0x0100\n      exp\n      swap1\n      pop\n      pop\n        /* \"contracts/simple_verify.sol\":2327:2359  verifiedAddresses[addr] == false */\n      pop\n        /* \"contracts/simple_verify.sol\":2401:2411  msg.sender */\n      caller\n        /* \"contracts/simple_verify.sol\":2374:2412  VerifiedAddressAdded(addr, msg.sender) */\n      0xffffffffffffffffffffffffffffffffffffffff\n      and\n        /* \"contracts/simple_verify.sol\":2395:2399  addr */\n      dup2\n        /* \"contracts/simple_verify.sol\":2374:2412  VerifiedAddressAdded(addr, msg.sender) */\n      0xffffffffffffffffffffffffffffffffffffffff\n      and\n      0x2679e492f4112eee8e3f6dfd8463065d662332a578753f77ce4c3d76c98271fb\n      mload(0x40)\n      mload(0x40)\n      dup1\n      swap2\n      sub\n      swap1\n      log3\n        /* \"contracts/simple_verify.sol\":2249:2419  function removeVerified(address addr) senderIsVerifier public {      ... */\n      pop\n      jump\t// out\n        /* \"contracts/complex_verify.sol\":1066:1290  function executeAdd(address addr) senderIsAdmin public {... */\n    tag_23:\n        /* \"contracts/complex_verify.sol\":615:619  true */\n      0x01\n        /* \"contracts/complex_verify.sol\":593:619  admins[msg.sender] == true */\n      iszero\n      iszero\n        /* \"contracts/complex_verify.sol\":593:599  admins */\n      0x04\n        /* \"contracts/complex_verify.sol\":593:611  admins[msg.sender] */\n      0x00\n        /* \"contracts/complex_verify.sol\":600:610  msg.sender */\n      caller\n        /* \"contracts/complex_verify.sol\":593:611  admins[msg.sender] */\n      0xffffffffffffffffffffffffffffffffffffffff\n      and\n      0xffffffffffffffffffffffffffffffffffffffff\n      and\n      dup2\n      mstore\n      0x20\n      add\n      swap1\n      dup2\n      mstore\n      0x20\n      add\n      0x00\n      keccak256\n      0x00\n      swap1\n      sload\n      swap1\n      0x0100\n      exp\n      swap1\n      div\n      0xff\n      and\n        /* \"contracts/complex_verify.sol\":593:619  admins[msg.sender] == true */\n      iszero\n      iszero\n      eq\n        /* \"contracts/complex_verify.sol\":572:665  require(... */\n      tag_48\n      jumpi\n      mload(0x40)\n      0x08c379a000000000000000000000000000000000000000000000000000000000\n      dup2\n      mstore\n      0x04\n      add\n      tag_49\n      swap1\n      tag_50\n      jump\t// in\n    tag_49:\n      mload(0x40)\n      dup1\n      swap2\n      sub\n      swap1\n      revert\n    tag_48:\n        /* \"contracts/complex_verify.sol\":1189:1190  2 */\n      0x02\n        /* \"contracts/complex_verify.sol\":1175:1186  totalAdmins */\n      sload(0x03)\n        /* \"contracts/complex_verify.sol\":1175:1190  totalAdmins / 2 */\n      tag_52\n      swap2\n      swap1\n      tag_53\n      jump\t// in\n    tag_52:\n        /* \"contracts/complex_verify.sol\":1152:1161  voteCount */\n      0x06\n        /* \"contracts/complex_verify.sol\":1152:1167  voteCount[addr] */\n      0x00\n        /* \"contracts/complex_verify.sol\":1162:1166  addr */\n      dup4\n        /* \"contracts/complex_verify.sol\":1152:1167  voteCount[addr] */\n      0xffffffffffffffffffffffffffffffffffffffff\n      and\n      0xffffffffffffffffffffffffffffffffffffffff\n      and\n      dup2\n      mstore\n      0x20\n      add\n      swap1\n      dup2\n      mstore\n      0x20\n      add\n      0x00\n      keccak256\n        /* \"contracts/complex_verify.sol\":1152:1171  voteCount[addr].add */\n      0x00\n      add\n      sload\n        /* \"contracts/complex_verify.sol\":1152:1191  voteCount[addr].add > (totalAdmins / 2) */\n      sgt\n        /* \"contracts/complex_verify.sol\":1131:1253  require(... */\n      tag_54\n      jumpi\n      mload(0x40)\n      0x08c379a000000000000000000000000000000000000000000000000000000000\n      dup2\n      mstore\n      0x04\n      add\n      tag_55\n      swap1\n      tag_56\n      jump\t// in\n    tag_55:\n      mload(0x40)\n      dup1\n      swap2\n      sub\n      swap1\n      revert\n    tag_54:\n        /* \"contracts/complex_verify.sol\":1279:1283  true */\n      0x01\n        /* \"contracts/complex_verify.sol\":1264:1270  admins */\n      0x04\n        /* \"contracts/complex_verify.sol\":1264:1276  admins[addr] */\n      0x00\n        /* \"contracts/complex_verify.sol\":1271:1275  addr */\n      dup4\n        /* \"contracts/complex_verify.sol\":1264:1276  admins[addr] */\n      0xffffffffffffffffffffffffffffffffffffffff\n      and\n      0xffffffffffffffffffffffffffffffffffffffff\n      and\n      dup2\n      mstore\n      0x20\n      add\n      swap1\n      dup2\n      mstore\n      0x20\n      add\n      0x00\n      keccak256\n      0x00\n        /* \"contracts/complex_verify.sol\":1264:1283  admins[addr] = true */\n      0x0100\n      exp\n      dup2\n      sload\n      dup2\n      0xff\n      mul\n      not\n      and\n      swap1\n      dup4\n      iszero\n      iszero\n      mul\n      or\n      swap1\n      sstore\n      pop\n        /* \"contracts/complex_verify.sol\":1066:1290  function executeAdd(address addr) senderIsAdmin public {... */\n      pop\n      jump\t// out\n        /* \"contracts/simple_verify.sol\":1778:2171  function addVerified(address addr) senderIsVerifier public {... */\n    tag_26:\n        /* \"contracts/simple_verify.sol\":786:790  true */\n      0x01\n        /* \"contracts/simple_verify.sol\":761:790  verifiers[msg.sender] == true */\n      iszero\n      iszero\n        /* \"contracts/simple_verify.sol\":761:770  verifiers */\n      0x02\n        /* \"contracts/simple_verify.sol\":761:782  verifiers[msg.sender] */\n      0x00\n        /* \"contracts/simple_verify.sol\":771:781  msg.sender */\n      caller\n        /* \"contracts/simple_verify.sol\":761:782  verifiers[msg.sender] */\n      0xffffffffffffffffffffffffffffffffffffffff\n      and\n      0xffffffffffffffffffffffffffffffffffffffff\n      and\n      dup2\n      mstore\n      0x20\n      add\n      swap1\n      dup2\n      mstore\n      0x20\n      add\n      0x00\n      keccak256\n      0x00\n      swap1\n      sload\n      swap1\n      0x0100\n      exp\n      swap1\n      div\n      0xff\n      and\n        /* \"contracts/simple_verify.sol\":761:790  verifiers[msg.sender] == true */\n      iszero\n      iszero\n      eq\n        /* \"contracts/simple_verify.sol\":740:838  require(... */\n      tag_58\n      jumpi\n      mload(0x40)\n      0x08c379a000000000000000000000000000000000000000000000000000000000\n      dup2\n      mstore\n      0x04\n      add\n      tag_59\n      swap1\n      tag_45\n      jump\t// in\n    tag_59:\n      mload(0x40)\n      dup1\n      swap2\n      sub\n      swap1\n      revert\n    tag_58:\n        /* \"contracts/simple_verify.sol\":1884:1885  0 */\n      0x00\n        /* \"contracts/simple_verify.sol\":1868:1886  addr != address(0) */\n      0xffffffffffffffffffffffffffffffffffffffff\n      and\n        /* \"contracts/simple_verify.sol\":1868:1872  addr */\n      dup2\n        /* \"contracts/simple_verify.sol\":1868:1886  addr != address(0) */\n      0xffffffffffffffffffffffffffffffffffffffff\n      and\n      eq\n      iszero\n        /* \"contracts/simple_verify.sol\":1847:1942  require(... */\n      tag_61\n      jumpi\n      mload(0x40)\n      0x08c379a000000000000000000000000000000000000000000000000000000000\n      dup2\n      mstore\n      0x04\n      add\n      tag_62\n      swap1\n      tag_63\n      jump\t// in\n    tag_62:\n      mload(0x40)\n      dup1\n      swap2\n      sub\n      swap1\n      revert\n    tag_61:\n        /* \"contracts/simple_verify.sol\":2001:2005  true */\n      0x01\n        /* \"contracts/simple_verify.sol\":1974:2005  verifiedAddresses[addr] != true */\n      iszero\n      iszero\n        /* \"contracts/simple_verify.sol\":1974:1991  verifiedAddresses */\n      0x01\n        /* \"contracts/simple_verify.sol\":1974:1997  verifiedAddresses[addr] */\n      0x00\n        /* \"contracts/simple_verify.sol\":1992:1996  addr */\n      dup4\n        /* \"contracts/simple_verify.sol\":1974:1997  verifiedAddresses[addr] */\n      0xffffffffffffffffffffffffffffffffffffffff\n      and\n      0xffffffffffffffffffffffffffffffffffffffff\n      and\n      dup2\n      mstore\n      0x20\n      add\n      swap1\n      dup2\n      mstore\n      0x20\n      add\n      0x00\n      keccak256\n      0x00\n      swap1\n      sload\n      swap1\n      0x0100\n      exp\n      swap1\n      div\n      0xff\n      and\n        /* \"contracts/simple_verify.sol\":1974:2005  verifiedAddresses[addr] != true */\n      iszero\n      iszero\n      eq\n      iszero\n        /* \"contracts/simple_verify.sol\":1953:2058  require(... */\n      tag_64\n      jumpi\n      mload(0x40)\n      0x08c379a000000000000000000000000000000000000000000000000000000000\n      dup2\n      mstore\n      0x04\n      add\n      tag_65\n      swap1\n      tag_66\n      jump\t// in\n    tag_65:\n      mload(0x40)\n      dup1\n      swap2\n      sub\n      swap1\n      revert\n    tag_64:\n        /* \"contracts/simple_verify.sol\":2107:2111  true */\n      0x01\n        /* \"contracts/simple_verify.sol\":2081:2098  verifiedAddresses */\n      dup1\n        /* \"contracts/simple_verify.sol\":2081:2104  verifiedAddresses[addr] */\n      0x00\n        /* \"contracts/simple_verify.sol\":2099:2103  addr */\n      dup4\n        /* \"contracts/simple_verify.sol\":2081:2104  verifiedAddresses[addr] */\n      0xffffffffffffffffffffffffffffffffffffffff\n      and\n      0xffffffffffffffffffffffffffffffffffffffff\n      and\n      dup2\n      mstore\n      0x20\n      add\n      swap1\n      dup2\n      mstore\n      0x20\n      add\n      0x00\n      keccak256\n      0x00\n        /* \"contracts/simple_verify.sol\":2081:2111  verifiedAddresses[addr] = true */\n      0x0100\n      exp\n      dup2\n      sload\n      dup2\n      0xff\n      mul\n      not\n      and\n      swap1\n      dup4\n      iszero\n      iszero\n      mul\n      or\n      swap1\n      sstore\n      pop\n        /* \"contracts/simple_verify.sol\":2153:2163  msg.sender */\n      caller\n        /* \"contracts/simple_verify.sol\":2126:2164  VerifiedAddressAdded(addr, msg.sender) */\n      0xffffffffffffffffffffffffffffffffffffffff\n      and\n        /* \"contracts/simple_verify.sol\":2147:2151  addr */\n      dup2\n        /* \"contracts/simple_verify.sol\":2126:2164  VerifiedAddressAdded(addr, msg.sender) */\n      0xffffffffffffffffffffffffffffffffffffffff\n      and\n      0x2679e492f4112eee8e3f6dfd8463065d662332a578753f77ce4c3d76c98271fb\n      mload(0x40)\n      mload(0x40)\n      dup1\n      swap2\n      sub\n      swap1\n      log3\n        /* \"contracts/simple_verify.sol\":1778:2171  function addVerified(address addr) senderIsVerifier public {... */\n      pop\n      jump\t// out\n        /* \"contracts/complex_verify.sol\":689:1060  function voteToAdd(address addr) senderIsAdmin public {... */\n    tag_29:\n        /* \"contracts/complex_verify.sol\":615:619  true */\n      0x01\n        /* \"contracts/complex_verify.sol\":593:619  admins[msg.sender] == true */\n      iszero\n      iszero\n        /* \"contracts/complex_verify.sol\":593:599  admins */\n      0x04\n        /* \"contracts/complex_verify.sol\":593:611  admins[msg.sender] */\n      0x00\n        /* \"contracts/complex_verify.sol\":600:610  msg.sender */\n      caller\n        /* \"contracts/complex_verify.sol\":593:611  admins[msg.sender] */\n      0xffffffffffffffffffffffffffffffffffffffff\n      and\n      0xffffffffffffffffffffffffffffffffffffffff\n      and\n      dup2\n      mstore\n      0x20\n      add\n      swap1\n      dup2\n      mstore\n      0x20\n      add\n      0x00\n      keccak256\n      0x00\n      swap1\n      sload\n      swap1\n      0x0100\n      exp\n      swap1\n      div\n      0xff\n      and\n        /* \"contracts/complex_verify.sol\":593:619  admins[msg.sender] == true */\n      iszero\n      iszero\n      eq\n        /* \"contracts/complex_verify.sol\":572:665  require(... */\n      tag_68\n      jumpi\n      mload(0x40)\n      0x08c379a000000000000000000000000000000000000000000000000000000000\n      dup2\n      mstore\n      0x04\n      add\n      tag_69\n      swap1\n      tag_50\n      jump\t// in\n    tag_69:\n      mload(0x40)\n      dup1\n      swap2\n      sub\n      swap1\n      revert\n    tag_68:\n        /* \"contracts/complex_verify.sol\":790:795  false */\n      0x00\n        /* \"contracts/complex_verify.sol\":774:795  admins[addr] == false */\n      iszero\n      iszero\n        /* \"contracts/complex_verify.sol\":774:780  admins */\n      0x04\n        /* \"contracts/complex_verify.sol\":774:786  admins[addr] */\n      0x00\n        /* \"contracts/complex_verify.sol\":781:785  addr */\n      dup4\n        /* \"contracts/complex_verify.sol\":774:786  admins[addr] */\n      0xffffffffffffffffffffffffffffffffffffffff\n      and\n      0xffffffffffffffffffffffffffffffffffffffff\n      and\n      dup2\n      mstore\n      0x20\n      add\n      swap1\n      dup2\n      mstore\n      0x20\n      add\n      0x00\n      keccak256\n      0x00\n      swap1\n      sload\n      swap1\n      0x0100\n      exp\n      swap1\n      div\n      0xff\n      and\n        /* \"contracts/complex_verify.sol\":774:795  admins[addr] == false */\n      iszero\n      iszero\n      eq\n        /* \"contracts/complex_verify.sol\":753:854  require(... */\n      tag_71\n      jumpi\n      mload(0x40)\n      0x08c379a000000000000000000000000000000000000000000000000000000000\n      dup2\n      mstore\n      0x04\n      add\n      tag_72\n      swap1\n      tag_73\n      jump\t// in\n    tag_72:\n      mload(0x40)\n      dup1\n      swap2\n      sub\n      swap1\n      revert\n    tag_71:\n        /* \"contracts/complex_verify.sol\":924:929  false */\n      0x00\n        /* \"contracts/complex_verify.sol\":894:929  hasVoted[addr][msg.sender] == false */\n      iszero\n      iszero\n        /* \"contracts/complex_verify.sol\":894:902  hasVoted */\n      0x05\n        /* \"contracts/complex_verify.sol\":894:908  hasVoted[addr] */\n      0x00\n        /* \"contracts/complex_verify.sol\":903:907  addr */\n      dup4\n        /* \"contracts/complex_verify.sol\":894:908  hasVoted[addr] */\n      0xffffffffffffffffffffffffffffffffffffffff\n      and\n      0xffffffffffffffffffffffffffffffffffffffff\n      and\n      dup2\n      mstore\n      0x20\n      add\n      swap1\n      dup2\n      mstore\n      0x20\n      add\n      0x00\n      keccak256\n        /* \"contracts/complex_verify.sol\":894:920  hasVoted[addr][msg.sender] */\n      0x00\n        /* \"contracts/complex_verify.sol\":909:919  msg.sender */\n      caller\n        /* \"contracts/complex_verify.sol\":894:920  hasVoted[addr][msg.sender] */\n      0xffffffffffffffffffffffffffffffffffffffff\n      and\n      0xffffffffffffffffffffffffffffffffffffffff\n      and\n      dup2\n      mstore\n      0x20\n      add\n      swap1\n      dup2\n      mstore\n      0x20\n      add\n      0x00\n      keccak256\n      0x00\n      swap1\n      sload\n      swap1\n      0x0100\n      exp\n      swap1\n      div\n      0xff\n      and\n        /* \"contracts/complex_verify.sol\":894:929  hasVoted[addr][msg.sender] == false */\n      iszero\n      iszero\n      eq\n        /* \"contracts/complex_verify.sol\":873:975  require(... */\n      tag_74\n      jumpi\n      mload(0x40)\n      0x08c379a000000000000000000000000000000000000000000000000000000000\n      dup2\n      mstore\n      0x04\n      add\n      tag_75\n      swap1\n      tag_76\n      jump\t// in\n    tag_75:\n      mload(0x40)\n      dup1\n      swap2\n      sub\n      swap1\n      revert\n    tag_74:\n        /* \"contracts/complex_verify.sol\":1009:1010  1 */\n      0x01\n        /* \"contracts/complex_verify.sol\":986:995  voteCount */\n      0x06\n        /* \"contracts/complex_verify.sol\":986:1001  voteCount[addr] */\n      0x00\n        /* \"contracts/complex_verify.sol\":996:1000  addr */\n      dup4\n        /* \"contracts/complex_verify.sol\":986:1001  voteCount[addr] */\n      0xffffffffffffffffffffffffffffffffffffffff\n      and\n      0xffffffffffffffffffffffffffffffffffffffff\n      and\n      dup2\n      mstore\n      0x20\n      add\n      swap1\n      dup2\n      mstore\n      0x20\n      add\n      0x00\n      keccak256\n        /* \"contracts/complex_verify.sol\":986:1005  voteCount[addr].add */\n      0x00\n      add\n      0x00\n        /* \"contracts/complex_verify.sol\":986:1010  voteCount[addr].add += 1 */\n      dup3\n      dup3\n      sload\n      tag_77\n      swap2\n      swap1\n      tag_78\n      jump\t// in\n    tag_77:\n      swap3\n      pop\n      pop\n      dup2\n      swap1\n      sstore\n      pop\n        /* \"contracts/complex_verify.sol\":1049:1053  true */\n      0x01\n        /* \"contracts/complex_verify.sol\":1020:1028  hasVoted */\n      0x05\n        /* \"contracts/complex_verify.sol\":1020:1034  hasVoted[addr] */\n      0x00\n        /* \"contracts/complex_verify.sol\":1029:1033  addr */\n      dup4\n        /* \"contracts/complex_verify.sol\":1020:1034  hasVoted[addr] */\n      0xffffffffffffffffffffffffffffffffffffffff\n      and\n      0xffffffffffffffffffffffffffffffffffffffff\n      and\n      dup2\n      mstore\n      0x20\n      add\n      swap1\n      dup2\n      mstore\n      0x20\n      add\n      0x00\n      keccak256\n        /* \"contracts/complex_verify.sol\":1020:1046  hasVoted[addr][msg.sender] */\n      0x00\n        /* \"contracts/complex_verify.sol\":1035:1045  msg.sender */\n      caller\n        /* \"contracts/complex_verify.sol\":1020:1046  hasVoted[addr][msg.sender] */\n      0xffffffffffffffffffffffffffffffffffffffff\n      and\n      0xffffffffffffffffffffffffffffffffffffffff\n      and\n      dup2\n      mstore\n      0x20\n      add\n      swap1\n      dup2\n      mstore\n      0x20\n      add\n      0x00\n      keccak256\n      0x00\n        /* \"contracts/complex_verify.sol\":1020:1053  hasVoted[addr][msg.sender] = true */\n      0x0100\n      exp\n      dup2\n      sload\n      dup2\n      0xff\n      mul\n      not\n      and\n      swap1\n      dup4\n      iszero\n      iszero\n      mul\n      or\n      swap1\n      sstore\n      pop\n        /* \"contracts/complex_verify.sol\":689:1060  function voteToAdd(address addr) senderIsAdmin public {... */\n      pop\n      jump\t// out\n        /* \"contracts/simple_verify.sol\":1071:1401  function addVerifier(address addr) senderIsAdmin public {       ... */\n    tag_32:\n        /* \"contracts/complex_verify.sol\":615:619  true */\n      0x01\n        /* \"contracts/complex_verify.sol\":593:619  admins[msg.sender] == true */\n      iszero\n      iszero\n        /* \"contracts/complex_verify.sol\":593:599  admins */\n      0x04\n        /* \"contracts/complex_verify.sol\":593:611  admins[msg.sender] */\n      0x00\n        /* \"contracts/complex_verify.sol\":600:610  msg.sender */\n      caller\n        /* \"contracts/complex_verify.sol\":593:611  admins[msg.sender] */\n      0xffffffffffffffffffffffffffffffffffffffff\n      and\n      0xffffffffffffffffffffffffffffffffffffffff\n      and\n      dup2\n      mstore\n      0x20\n      add\n      swap1\n      dup2\n      mstore\n      0x20\n      add\n      0x00\n      keccak256\n      0x00\n      swap1\n      sload\n      swap1\n      0x0100\n      exp\n      swap1\n      div\n      0xff\n      and\n        /* \"contracts/complex_verify.sol\":593:619  admins[msg.sender] == true */\n      iszero\n      iszero\n      eq\n        /* \"contracts/complex_verify.sol\":572:665  require(... */\n      tag_80\n      jumpi\n      mload(0x40)\n      0x08c379a000000000000000000000000000000000000000000000000000000000\n      dup2\n      mstore\n      0x04\n      add\n      tag_81\n      swap1\n      tag_50\n      jump\t// in\n    tag_81:\n      mload(0x40)\n      dup1\n      swap2\n      sub\n      swap1\n      revert\n    tag_80:\n        /* \"contracts/simple_verify.sol\":1181:1182  0 */\n      0x00\n        /* \"contracts/simple_verify.sol\":1165:1183  addr != address(0) */\n      0xffffffffffffffffffffffffffffffffffffffff\n      and\n        /* \"contracts/simple_verify.sol\":1165:1169  addr */\n      dup2\n        /* \"contracts/simple_verify.sol\":1165:1183  addr != address(0) */\n      0xffffffffffffffffffffffffffffffffffffffff\n      and\n      eq\n      iszero\n        /* \"contracts/simple_verify.sol\":1144:1242  require(... */\n      tag_83\n      jumpi\n      mload(0x40)\n      0x08c379a000000000000000000000000000000000000000000000000000000000\n      dup2\n      mstore\n      0x04\n      add\n      tag_84\n      swap1\n      tag_85\n      jump\t// in\n    tag_84:\n      mload(0x40)\n      dup1\n      swap2\n      sub\n      swap1\n      revert\n    tag_83:\n        /* \"contracts/simple_verify.sol\":1301:1305  true */\n      0x01\n        /* \"contracts/simple_verify.sol\":1282:1305  verifiers[addr] != true */\n      iszero\n      iszero\n        /* \"contracts/simple_verify.sol\":1282:1291  verifiers */\n      0x02\n        /* \"contracts/simple_verify.sol\":1282:1297  verifiers[addr] */\n      0x00\n        /* \"contracts/simple_verify.sol\":1292:1296  addr */\n      dup4\n        /* \"contracts/simple_verify.sol\":1282:1297  verifiers[addr] */\n      0xffffffffffffffffffffffffffffffffffffffff\n      and\n      0xffffffffffffffffffffffffffffffffffffffff\n      and\n      dup2\n      mstore\n      0x20\n      add\n      swap1\n      dup2\n      mstore\n      0x20\n      add\n      0x00\n      keccak256\n      0x00\n      swap1\n      sload\n      swap1\n      0x0100\n      exp\n      swap1\n      div\n      0xff\n      and\n        /* \"contracts/simple_verify.sol\":1282:1305  verifiers[addr] != true */\n      iszero\n      iszero\n      eq\n      iszero\n        /* \"contracts/simple_verify.sol\":1261:1361  require(... */\n      tag_86\n      jumpi\n      mload(0x40)\n      0x08c379a000000000000000000000000000000000000000000000000000000000\n      dup2\n      mstore\n      0x04\n      add\n      tag_87\n      swap1\n      tag_88\n      jump\t// in\n    tag_87:\n      mload(0x40)\n      dup1\n      swap2\n      sub\n      swap1\n      revert\n    tag_86:\n        /* \"contracts/simple_verify.sol\":1390:1394  true */\n      0x01\n        /* \"contracts/simple_verify.sol\":1372:1381  verifiers */\n      0x02\n        /* \"contracts/simple_verify.sol\":1372:1387  verifiers[addr] */\n      0x00\n        /* \"contracts/simple_verify.sol\":1382:1386  addr */\n      dup4\n        /* \"contracts/simple_verify.sol\":1372:1387  verifiers[addr] */\n      0xffffffffffffffffffffffffffffffffffffffff\n      and\n      0xffffffffffffffffffffffffffffffffffffffff\n      and\n      dup2\n      mstore\n      0x20\n      add\n      swap1\n      dup2\n      mstore\n      0x20\n      add\n      0x00\n      keccak256\n      0x00\n        /* \"contracts/simple_verify.sol\":1372:1394  verifiers[addr] = true */\n      0x0100\n      exp\n      dup2\n      sload\n      dup2\n      0xff\n      mul\n      not\n      and\n      swap1\n      dup4\n      iszero\n      iszero\n      mul\n      or\n      swap1\n      sstore\n      pop\n        /* \"contracts/simple_verify.sol\":1071:1401  function addVerifier(address addr) senderIsAdmin public {       ... */\n      pop\n      jump\t// out\n        /* \"contracts/simple_verify.sol\":2489:2662  function isVerified(address addr) public view returns (bool) {... */\n    tag_35:\n        /* \"contracts/simple_verify.sol\":2544:2548  bool */\n      0x00\n        /* \"contracts/simple_verify.sol\":2591:2595  true */\n      0x01\n        /* \"contracts/simple_verify.sol\":2564:2595  verifiedAddresses[addr] == true */\n      iszero\n      iszero\n        /* \"contracts/simple_verify.sol\":2564:2581  verifiedAddresses */\n      0x01\n        /* \"contracts/simple_verify.sol\":2564:2587  verifiedAddresses[addr] */\n      0x00\n        /* \"contracts/simple_verify.sol\":2582:2586  addr */\n      dup5\n        /* \"contracts/simple_verify.sol\":2564:2587  verifiedAddresses[addr] */\n      0xffffffffffffffffffffffffffffffffffffffff\n      and\n      0xffffffffffffffffffffffffffffffffffffffff\n      and\n      dup2\n      mstore\n      0x20\n      add\n      swap1\n      dup2\n      mstore\n      0x20\n      add\n      0x00\n      keccak256\n      0x00\n      swap1\n      sload\n      swap1\n      0x0100\n      exp\n      swap1\n      div\n      0xff\n      and\n        /* \"contracts/simple_verify.sol\":2564:2595  verifiedAddresses[addr] == true */\n      iszero\n      iszero\n      eq\n        /* \"contracts/simple_verify.sol\":2560:2633  if (verifiedAddresses[addr] == true) {... */\n      iszero\n      tag_90\n      jumpi\n        /* \"contracts/simple_verify.sol\":2618:2622  true */\n      0x01\n        /* \"contracts/simple_verify.sol\":2611:2622  return true */\n      swap1\n      pop\n      jump(tag_89)\n        /* \"contracts/simple_verify.sol\":2560:2633  if (verifiedAddresses[addr] == true) {... */\n    tag_90:\n        /* \"contracts/simple_verify.sol\":2650:2655  false */\n      0x00\n        /* \"contracts/simple_verify.sol\":2643:2655  return false */\n      swap1\n      pop\n        /* \"contracts/simple_verify.sol\":2489:2662  function isVerified(address addr) public view returns (bool) {... */\n    tag_89:\n      swap2\n      swap1\n      pop\n      jump\t// out\n        /* \"contracts/simple_verify.sol\":1470:1705  function removeVerifier(address addr) senderIsAdmin public {... */\n    tag_39:\n        /* \"contracts/complex_verify.sol\":615:619  true */\n      0x01\n        /* \"contracts/complex_verify.sol\":593:619  admins[msg.sender] == true */\n      iszero\n      iszero\n        /* \"contracts/complex_verify.sol\":593:599  admins */\n      0x04\n        /* \"contracts/complex_verify.sol\":593:611  admins[msg.sender] */\n      0x00\n        /* \"contracts/complex_verify.sol\":600:610  msg.sender */\n      caller\n        /* \"contracts/complex_verify.sol\":593:611  admins[msg.sender] */\n      0xffffffffffffffffffffffffffffffffffffffff\n      and\n      0xffffffffffffffffffffffffffffffffffffffff\n      and\n      dup2\n      mstore\n      0x20\n      add\n      swap1\n      dup2\n      mstore\n      0x20\n      add\n      0x00\n      keccak256\n      0x00\n      swap1\n      sload\n      swap1\n      0x0100\n      exp\n      swap1\n      div\n      0xff\n      and\n        /* \"contracts/complex_verify.sol\":593:619  admins[msg.sender] == true */\n      iszero\n      iszero\n      eq\n        /* \"contracts/complex_verify.sol\":572:665  require(... */\n      tag_92\n      jumpi\n      mload(0x40)\n      0x08c379a000000000000000000000000000000000000000000000000000000000\n      dup2\n      mstore\n      0x04\n      add\n      tag_93\n      swap1\n      tag_50\n      jump\t// in\n    tag_93:\n      mload(0x40)\n      dup1\n      swap2\n      sub\n      swap1\n      revert\n    tag_92:\n        /* \"contracts/simple_verify.sol\":1579:1583  true */\n      0x01\n        /* \"contracts/simple_verify.sol\":1560:1583  verifiers[addr] == true */\n      iszero\n      iszero\n        /* \"contracts/simple_verify.sol\":1560:1569  verifiers */\n      0x02\n        /* \"contracts/simple_verify.sol\":1560:1575  verifiers[addr] */\n      0x00\n        /* \"contracts/simple_verify.sol\":1570:1574  addr */\n      dup4\n        /* \"contracts/simple_verify.sol\":1560:1575  verifiers[addr] */\n      0xffffffffffffffffffffffffffffffffffffffff\n      and\n      0xffffffffffffffffffffffffffffffffffffffff\n      and\n      dup2\n      mstore\n      0x20\n      add\n      swap1\n      dup2\n      mstore\n      0x20\n      add\n      0x00\n      keccak256\n      0x00\n      swap1\n      sload\n      swap1\n      0x0100\n      exp\n      swap1\n      div\n      0xff\n      and\n        /* \"contracts/simple_verify.sol\":1560:1583  verifiers[addr] == true */\n      iszero\n      iszero\n      eq\n        /* \"contracts/simple_verify.sol\":1539:1664  require(... */\n      tag_95\n      jumpi\n      mload(0x40)\n      0x08c379a000000000000000000000000000000000000000000000000000000000\n      dup2\n      mstore\n      0x04\n      add\n      tag_96\n      swap1\n      tag_97\n      jump\t// in\n    tag_96:\n      mload(0x40)\n      dup1\n      swap2\n      sub\n      swap1\n      revert\n    tag_95:\n        /* \"contracts/simple_verify.sol\":1693:1698  false */\n      0x00\n        /* \"contracts/simple_verify.sol\":1675:1684  verifiers */\n      0x02\n        /* \"contracts/simple_verify.sol\":1675:1690  verifiers[addr] */\n      0x00\n        /* \"contracts/simple_verify.sol\":1685:1689  addr */\n      dup4\n        /* \"contracts/simple_verify.sol\":1675:1690  verifiers[addr] */\n      0xffffffffffffffffffffffffffffffffffffffff\n      and\n      0xffffffffffffffffffffffffffffffffffffffff\n      and\n      dup2\n      mstore\n      0x20\n      add\n      swap1\n      dup2\n      mstore\n      0x20\n      add\n      0x00\n      keccak256\n      0x00\n        /* \"contracts/simple_verify.sol\":1675:1698  verifiers[addr] = false */\n      0x0100\n      exp\n      dup2\n      sload\n      dup2\n      0xff\n      mul\n      not\n      and\n      swap1\n      dup4\n      iszero\n      iszero\n      mul\n      or\n      swap1\n      sstore\n      pop\n        /* \"contracts/simple_verify.sol\":1470:1705  function removeVerifier(address addr) senderIsAdmin public {... */\n      pop\n      jump\t// out\n        /* \"#utility.yul\":7:146   */\n    tag_99:\n        /* \"#utility.yul\":53:58   */\n      0x00\n        /* \"#utility.yul\":91:97   */\n      dup2\n        /* \"#utility.yul\":78:98   */\n      calldataload\n        /* \"#utility.yul\":69:98   */\n      swap1\n      pop\n        /* \"#utility.yul\":107:140   */\n      tag_101\n        /* \"#utility.yul\":134:139   */\n      dup2\n        /* \"#utility.yul\":107:140   */\n      tag_102\n      jump\t// in\n    tag_101:\n        /* \"#utility.yul\":7:146   */\n      swap3\n      swap2\n      pop\n      pop\n      jump\t// out\n        /* \"#utility.yul\":152:481   */\n    tag_14:\n        /* \"#utility.yul\":211:217   */\n      0x00\n        /* \"#utility.yul\":260:262   */\n      0x20\n        /* \"#utility.yul\":248:257   */\n      dup3\n        /* \"#utility.yul\":239:246   */\n      dup5\n        /* \"#utility.yul\":235:258   */\n      sub\n        /* \"#utility.yul\":231:263   */\n      slt\n        /* \"#utility.yul\":228:347   */\n      iszero\n      tag_104\n      jumpi\n        /* \"#utility.yul\":266:345   */\n      tag_105\n      tag_106\n      jump\t// in\n    tag_105:\n        /* \"#utility.yul\":228:347   */\n    tag_104:\n        /* \"#utility.yul\":386:387   */\n      0x00\n        /* \"#utility.yul\":411:464   */\n      tag_107\n        /* \"#utility.yul\":456:463   */\n      dup5\n        /* \"#utility.yul\":447:453   */\n      dup3\n        /* \"#utility.yul\":436:445   */\n      dup6\n        /* \"#utility.yul\":432:454   */\n      add\n        /* \"#utility.yul\":411:464   */\n      tag_99\n      jump\t// in\n    tag_107:\n        /* \"#utility.yul\":401:464   */\n      swap2\n      pop\n        /* \"#utility.yul\":357:474   */\n      pop\n        /* \"#utility.yul\":152:481   */\n      swap3\n      swap2\n      pop\n      pop\n      jump\t// out\n        /* \"#utility.yul\":487:596   */\n    tag_108:\n        /* \"#utility.yul\":568:589   */\n      tag_110\n        /* \"#utility.yul\":583:588   */\n      dup2\n        /* \"#utility.yul\":568:589   */\n      tag_111\n      jump\t// in\n    tag_110:\n        /* \"#utility.yul\":563:566   */\n      dup3\n        /* \"#utility.yul\":556:590   */\n      mstore\n        /* \"#utility.yul\":487:596   */\n      pop\n      pop\n      jump\t// out\n        /* \"#utility.yul\":602:968   */\n    tag_112:\n        /* \"#utility.yul\":744:747   */\n      0x00\n        /* \"#utility.yul\":765:832   */\n      tag_114\n        /* \"#utility.yul\":829:831   */\n      0x24\n        /* \"#utility.yul\":824:827   */\n      dup4\n        /* \"#utility.yul\":765:832   */\n      tag_115\n      jump\t// in\n    tag_114:\n        /* \"#utility.yul\":758:832   */\n      swap2\n      pop\n        /* \"#utility.yul\":841:934   */\n      tag_116\n        /* \"#utility.yul\":930:933   */\n      dup3\n        /* \"#utility.yul\":841:934   */\n      tag_117\n      jump\t// in\n    tag_116:\n        /* \"#utility.yul\":959:961   */\n      0x40\n        /* \"#utility.yul\":954:957   */\n      dup3\n        /* \"#utility.yul\":950:962   */\n      add\n        /* \"#utility.yul\":943:962   */\n      swap1\n      pop\n        /* \"#utility.yul\":602:968   */\n      swap2\n      swap1\n      pop\n      jump\t// out\n        /* \"#utility.yul\":974:1340   */\n    tag_118:\n        /* \"#utility.yul\":1116:1119   */\n      0x00\n        /* \"#utility.yul\":1137:1204   */\n      tag_120\n        /* \"#utility.yul\":1201:1203   */\n      0x37\n        /* \"#utility.yul\":1196:1199   */\n      dup4\n        /* \"#utility.yul\":1137:1204   */\n      tag_115\n      jump\t// in\n    tag_120:\n        /* \"#utility.yul\":1130:1204   */\n      swap2\n      pop\n        /* \"#utility.yul\":1213:1306   */\n      tag_121\n        /* \"#utility.yul\":1302:1305   */\n      dup3\n        /* \"#utility.yul\":1213:1306   */\n      tag_122\n      jump\t// in\n    tag_121:\n        /* \"#utility.yul\":1331:1333   */\n      0x40\n        /* \"#utility.yul\":1326:1329   */\n      dup3\n        /* \"#utility.yul\":1322:1334   */\n      add\n        /* \"#utility.yul\":1315:1334   */\n      swap1\n      pop\n        /* \"#utility.yul\":974:1340   */\n      swap2\n      swap1\n      pop\n      jump\t// out\n        /* \"#utility.yul\":1346:1712   */\n    tag_123:\n        /* \"#utility.yul\":1488:1491   */\n      0x00\n        /* \"#utility.yul\":1509:1576   */\n      tag_125\n        /* \"#utility.yul\":1573:1575   */\n      0x14\n        /* \"#utility.yul\":1568:1571   */\n      dup4\n        /* \"#utility.yul\":1509:1576   */\n      tag_115\n      jump\t// in\n    tag_125:\n        /* \"#utility.yul\":1502:1576   */\n      swap2\n      pop\n        /* \"#utility.yul\":1585:1678   */\n      tag_126\n        /* \"#utility.yul\":1674:1677   */\n      dup3\n        /* \"#utility.yul\":1585:1678   */\n      tag_127\n      jump\t// in\n    tag_126:\n        /* \"#utility.yul\":1703:1705   */\n      0x20\n        /* \"#utility.yul\":1698:1701   */\n      dup3\n        /* \"#utility.yul\":1694:1706   */\n      add\n        /* \"#utility.yul\":1687:1706   */\n      swap1\n      pop\n        /* \"#utility.yul\":1346:1712   */\n      swap2\n      swap1\n      pop\n      jump\t// out\n        /* \"#utility.yul\":1718:2084   */\n    tag_128:\n        /* \"#utility.yul\":1860:1863   */\n      0x00\n        /* \"#utility.yul\":1881:1948   */\n      tag_130\n        /* \"#utility.yul\":1945:1947   */\n      0x21\n        /* \"#utility.yul\":1940:1943   */\n      dup4\n        /* \"#utility.yul\":1881:1948   */\n      tag_115\n      jump\t// in\n    tag_130:\n        /* \"#utility.yul\":1874:1948   */\n      swap2\n      pop\n        /* \"#utility.yul\":1957:2050   */\n      tag_131\n        /* \"#utility.yul\":2046:2049   */\n      dup3\n        /* \"#utility.yul\":1957:2050   */\n      tag_132\n      jump\t// in\n    tag_131:\n        /* \"#utility.yul\":2075:2077   */\n      0x40\n        /* \"#utility.yul\":2070:2073   */\n      dup3\n        /* \"#utility.yul\":2066:2078   */\n      add\n        /* \"#utility.yul\":2059:2078   */\n      swap1\n      pop\n        /* \"#utility.yul\":1718:2084   */\n      swap2\n      swap1\n      pop\n      jump\t// out\n        /* \"#utility.yul\":2090:2456   */\n    tag_133:\n        /* \"#utility.yul\":2232:2235   */\n      0x00\n        /* \"#utility.yul\":2253:2320   */\n      tag_135\n        /* \"#utility.yul\":2317:2319   */\n      0x1e\n        /* \"#utility.yul\":2312:2315   */\n      dup4\n        /* \"#utility.yul\":2253:2320   */\n      tag_115\n      jump\t// in\n    tag_135:\n        /* \"#utility.yul\":2246:2320   */\n      swap2\n      pop\n        /* \"#utility.yul\":2329:2422   */\n      tag_136\n        /* \"#utility.yul\":2418:2421   */\n      dup3\n        /* \"#utility.yul\":2329:2422   */\n      tag_137\n      jump\t// in\n    tag_136:\n        /* \"#utility.yul\":2447:2449   */\n      0x20\n        /* \"#utility.yul\":2442:2445   */\n      dup3\n        /* \"#utility.yul\":2438:2450   */\n      add\n        /* \"#utility.yul\":2431:2450   */\n      swap1\n      pop\n        /* \"#utility.yul\":2090:2456   */\n      swap2\n      swap1\n      pop\n      jump\t// out\n        /* \"#utility.yul\":2462:2828   */\n    tag_138:\n        /* \"#utility.yul\":2604:2607   */\n      0x00\n        /* \"#utility.yul\":2625:2692   */\n      tag_140\n        /* \"#utility.yul\":2689:2691   */\n      0x1e\n        /* \"#utility.yul\":2684:2687   */\n      dup4\n        /* \"#utility.yul\":2625:2692   */\n      tag_115\n      jump\t// in\n    tag_140:\n        /* \"#utility.yul\":2618:2692   */\n      swap2\n      pop\n        /* \"#utility.yul\":2701:2794   */\n      tag_141\n        /* \"#utility.yul\":2790:2793   */\n      dup3\n        /* \"#utility.yul\":2701:2794   */\n      tag_142\n      jump\t// in\n    tag_141:\n        /* \"#utility.yul\":2819:2821   */\n      0x20\n        /* \"#utility.yul\":2814:2817   */\n      dup3\n        /* \"#utility.yul\":2810:2822   */\n      add\n        /* \"#utility.yul\":2803:2822   */\n      swap1\n      pop\n        /* \"#utility.yul\":2462:2828   */\n      swap2\n      swap1\n      pop\n      jump\t// out\n        /* \"#utility.yul\":2834:3200   */\n    tag_143:\n        /* \"#utility.yul\":2976:2979   */\n      0x00\n        /* \"#utility.yul\":2997:3064   */\n      tag_145\n        /* \"#utility.yul\":3061:3063   */\n      0x14\n        /* \"#utility.yul\":3056:3059   */\n      dup4\n        /* \"#utility.yul\":2997:3064   */\n      tag_115\n      jump\t// in\n    tag_145:\n        /* \"#utility.yul\":2990:3064   */\n      swap2\n      pop\n        /* \"#utility.yul\":3073:3166   */\n      tag_146\n        /* \"#utility.yul\":3162:3165   */\n      dup3\n        /* \"#utility.yul\":3073:3166   */\n      tag_147\n      jump\t// in\n    tag_146:\n        /* \"#utility.yul\":3191:3193   */\n      0x20\n        /* \"#utility.yul\":3186:3189   */\n      dup3\n        /* \"#utility.yul\":3182:3194   */\n      add\n        /* \"#utility.yul\":3175:3194   */\n      swap1\n      pop\n        /* \"#utility.yul\":2834:3200   */\n      swap2\n      swap1\n      pop\n      jump\t// out\n        /* \"#utility.yul\":3206:3572   */\n    tag_148:\n        /* \"#utility.yul\":3348:3351   */\n      0x00\n        /* \"#utility.yul\":3369:3436   */\n      tag_150\n        /* \"#utility.yul\":3433:3435   */\n      0x1b\n        /* \"#utility.yul\":3428:3431   */\n      dup4\n        /* \"#utility.yul\":3369:3436   */\n      tag_115\n      jump\t// in\n    tag_150:\n        /* \"#utility.yul\":3362:3436   */\n      swap2\n      pop\n        /* \"#utility.yul\":3445:3538   */\n      tag_151\n        /* \"#utility.yul\":3534:3537   */\n      dup3\n        /* \"#utility.yul\":3445:3538   */\n      tag_152\n      jump\t// in\n    tag_151:\n        /* \"#utility.yul\":3563:3565   */\n      0x20\n        /* \"#utility.yul\":3558:3561   */\n      dup3\n        /* \"#utility.yul\":3554:3566   */\n      add\n        /* \"#utility.yul\":3547:3566   */\n      swap1\n      pop\n        /* \"#utility.yul\":3206:3572   */\n      swap2\n      swap1\n      pop\n      jump\t// out\n        /* \"#utility.yul\":3578:3944   */\n    tag_153:\n        /* \"#utility.yul\":3720:3723   */\n      0x00\n        /* \"#utility.yul\":3741:3808   */\n      tag_155\n        /* \"#utility.yul\":3805:3807   */\n      0x21\n        /* \"#utility.yul\":3800:3803   */\n      dup4\n        /* \"#utility.yul\":3741:3808   */\n      tag_115\n      jump\t// in\n    tag_155:\n        /* \"#utility.yul\":3734:3808   */\n      swap2\n      pop\n        /* \"#utility.yul\":3817:3910   */\n      tag_156\n        /* \"#utility.yul\":3906:3909   */\n      dup3\n        /* \"#utility.yul\":3817:3910   */\n      tag_157\n      jump\t// in\n    tag_156:\n        /* \"#utility.yul\":3935:3937   */\n      0x40\n        /* \"#utility.yul\":3930:3933   */\n      dup3\n        /* \"#utility.yul\":3926:3938   */\n      add\n        /* \"#utility.yul\":3919:3938   */\n      swap1\n      pop\n        /* \"#utility.yul\":3578:3944   */\n      swap2\n      swap1\n      pop\n      jump\t// out\n        /* \"#utility.yul\":3950:4316   */\n    tag_158:\n        /* \"#utility.yul\":4092:4095   */\n      0x00\n        /* \"#utility.yul\":4113:4180   */\n      tag_160\n        /* \"#utility.yul\":4177:4179   */\n      0x16\n        /* \"#utility.yul\":4172:4175   */\n      dup4\n        /* \"#utility.yul\":4113:4180   */\n      tag_115\n      jump\t// in\n    tag_160:\n        /* \"#utility.yul\":4106:4180   */\n      swap2\n      pop\n        /* \"#utility.yul\":4189:4282   */\n      tag_161\n        /* \"#utility.yul\":4278:4281   */\n      dup3\n        /* \"#utility.yul\":4189:4282   */\n      tag_162\n      jump\t// in\n    tag_161:\n        /* \"#utility.yul\":4307:4309   */\n      0x20\n        /* \"#utility.yul\":4302:4305   */\n      dup3\n        /* \"#utility.yul\":4298:4310   */\n      add\n        /* \"#utility.yul\":4291:4310   */\n      swap1\n      pop\n        /* \"#utility.yul\":3950:4316   */\n      swap2\n      swap1\n      pop\n      jump\t// out\n        /* \"#utility.yul\":4322:4532   */\n    tag_17:\n        /* \"#utility.yul\":4409:4413   */\n      0x00\n        /* \"#utility.yul\":4447:4449   */\n      0x20\n        /* \"#utility.yul\":4436:4445   */\n      dup3\n        /* \"#utility.yul\":4432:4450   */\n      add\n        /* \"#utility.yul\":4424:4450   */\n      swap1\n      pop\n        /* \"#utility.yul\":4460:4525   */\n      tag_164\n        /* \"#utility.yul\":4522:4523   */\n      0x00\n        /* \"#utility.yul\":4511:4520   */\n      dup4\n        /* \"#utility.yul\":4507:4524   */\n      add\n        /* \"#utility.yul\":4498:4504   */\n      dup5\n        /* \"#utility.yul\":4460:4525   */\n      tag_108\n      jump\t// in\n    tag_164:\n        /* \"#utility.yul\":4322:4532   */\n      swap3\n      swap2\n      pop\n      pop\n      jump\t// out\n        /* \"#utility.yul\":4538:4957   */\n    tag_56:\n        /* \"#utility.yul\":4704:4708   */\n      0x00\n        /* \"#utility.yul\":4742:4744   */\n      0x20\n        /* \"#utility.yul\":4731:4740   */\n      dup3\n        /* \"#utility.yul\":4727:4745   */\n      add\n        /* \"#utility.yul\":4719:4745   */\n      swap1\n      pop\n        /* \"#utility.yul\":4791:4800   */\n      dup2\n        /* \"#utility.yul\":4785:4789   */\n      dup2\n        /* \"#utility.yul\":4781:4801   */\n      sub\n        /* \"#utility.yul\":4777:4778   */\n      0x00\n        /* \"#utility.yul\":4766:4775   */\n      dup4\n        /* \"#utility.yul\":4762:4779   */\n      add\n        /* \"#utility.yul\":4755:4802   */\n      mstore\n        /* \"#utility.yul\":4819:4950   */\n      tag_166\n        /* \"#utility.yul\":4945:4949   */\n      dup2\n        /* \"#utility.yul\":4819:4950   */\n      tag_112\n      jump\t// in\n    tag_166:\n        /* \"#utility.yul\":4811:4950   */\n      swap1\n      pop\n        /* \"#utility.yul\":4538:4957   */\n      swap2\n      swap1\n      pop\n      jump\t// out\n        /* \"#utility.yul\":4963:5382   */\n    tag_97:\n        /* \"#utility.yul\":5129:5133   */\n      0x00\n        /* \"#utility.yul\":5167:5169   */\n      0x20\n        /* \"#utility.yul\":5156:5165   */\n      dup3\n        /* \"#utility.yul\":5152:5170   */\n      add\n        /* \"#utility.yul\":5144:5170   */\n      swap1\n      pop\n        /* \"#utility.yul\":5216:5225   */\n      dup2\n        /* \"#utility.yul\":5210:5214   */\n      dup2\n        /* \"#utility.yul\":5206:5226   */\n      sub\n        /* \"#utility.yul\":5202:5203   */\n      0x00\n        /* \"#utility.yul\":5191:5200   */\n      dup4\n        /* \"#utility.yul\":5187:5204   */\n      add\n        /* \"#utility.yul\":5180:5227   */\n      mstore\n        /* \"#utility.yul\":5244:5375   */\n      tag_168\n        /* \"#utility.yul\":5370:5374   */\n      dup2\n        /* \"#utility.yul\":5244:5375   */\n      tag_118\n      jump\t// in\n    tag_168:\n        /* \"#utility.yul\":5236:5375   */\n      swap1\n      pop\n        /* \"#utility.yul\":4963:5382   */\n      swap2\n      swap1\n      pop\n      jump\t// out\n        /* \"#utility.yul\":5388:5807   */\n    tag_50:\n        /* \"#utility.yul\":5554:5558   */\n      0x00\n        /* \"#utility.yul\":5592:5594   */\n      0x20\n        /* \"#utility.yul\":5581:5590   */\n      dup3\n        /* \"#utility.yul\":5577:5595   */\n      add\n        /* \"#utility.yul\":5569:5595   */\n      swap1\n      pop\n        /* \"#utility.yul\":5641:5650   */\n      dup2\n        /* \"#utility.yul\":5635:5639   */\n      dup2\n        /* \"#utility.yul\":5631:5651   */\n      sub\n        /* \"#utility.yul\":5627:5628   */\n      0x00\n        /* \"#utility.yul\":5616:5625   */\n      dup4\n        /* \"#utility.yul\":5612:5629   */\n      add\n        /* \"#utility.yul\":5605:5652   */\n      mstore\n        /* \"#utility.yul\":5669:5800   */\n      tag_170\n        /* \"#utility.yul\":5795:5799   */\n      dup2\n        /* \"#utility.yul\":5669:5800   */\n      tag_123\n      jump\t// in\n    tag_170:\n        /* \"#utility.yul\":5661:5800   */\n      swap1\n      pop\n        /* \"#utility.yul\":5388:5807   */\n      swap2\n      swap1\n      pop\n      jump\t// out\n        /* \"#utility.yul\":5813:6232   */\n    tag_73:\n        /* \"#utility.yul\":5979:5983   */\n      0x00\n        /* \"#utility.yul\":6017:6019   */\n      0x20\n        /* \"#utility.yul\":6006:6015   */\n      dup3\n        /* \"#utility.yul\":6002:6020   */\n      add\n        /* \"#utility.yul\":5994:6020   */\n      swap1\n      pop\n        /* \"#utility.yul\":6066:6075   */\n      dup2\n        /* \"#utility.yul\":6060:6064   */\n      dup2\n        /* \"#utility.yul\":6056:6076   */\n      sub\n        /* \"#utility.yul\":6052:6053   */\n      0x00\n        /* \"#utility.yul\":6041:6050   */\n      dup4\n        /* \"#utility.yul\":6037:6054   */\n      add\n        /* \"#utility.yul\":6030:6077   */\n      mstore\n        /* \"#utility.yul\":6094:6225   */\n      tag_172\n        /* \"#utility.yul\":6220:6224   */\n      dup2\n        /* \"#utility.yul\":6094:6225   */\n      tag_128\n      jump\t// in\n    tag_172:\n        /* \"#utility.yul\":6086:6225   */\n      swap1\n      pop\n        /* \"#utility.yul\":5813:6232   */\n      swap2\n      swap1\n      pop\n      jump\t// out\n        /* \"#utility.yul\":6238:6657   */\n    tag_63:\n        /* \"#utility.yul\":6404:6408   */\n      0x00\n        /* \"#utility.yul\":6442:6444   */\n      0x20\n        /* \"#utility.yul\":6431:6440   */\n      dup3\n        /* \"#utility.yul\":6427:6445   */\n      add\n        /* \"#utility.yul\":6419:6445   */\n      swap1\n      pop\n        /* \"#utility.yul\":6491:6500   */\n      dup2\n        /* \"#utility.yul\":6485:6489   */\n      dup2\n        /* \"#utility.yul\":6481:6501   */\n      sub\n        /* \"#utility.yul\":6477:6478   */\n      0x00\n        /* \"#utility.yul\":6466:6475   */\n      dup4\n        /* \"#utility.yul\":6462:6479   */\n      add\n        /* \"#utility.yul\":6455:6502   */\n      mstore\n        /* \"#utility.yul\":6519:6650   */\n      tag_174\n        /* \"#utility.yul\":6645:6649   */\n      dup2\n        /* \"#utility.yul\":6519:6650   */\n      tag_133\n      jump\t// in\n    tag_174:\n        /* \"#utility.yul\":6511:6650   */\n      swap1\n      pop\n        /* \"#utility.yul\":6238:6657   */\n      swap2\n      swap1\n      pop\n      jump\t// out\n        /* \"#utility.yul\":6663:7082   */\n    tag_88:\n        /* \"#utility.yul\":6829:6833   */\n      0x00\n        /* \"#utility.yul\":6867:6869   */\n      0x20\n        /* \"#utility.yul\":6856:6865   */\n      dup3\n        /* \"#utility.yul\":6852:6870   */\n      add\n        /* \"#utility.yul\":6844:6870   */\n      swap1\n      pop\n        /* \"#utility.yul\":6916:6925   */\n      dup2\n        /* \"#utility.yul\":6910:6914   */\n      dup2\n        /* \"#utility.yul\":6906:6926   */\n      sub\n        /* \"#utility.yul\":6902:6903   */\n      0x00\n        /* \"#utility.yul\":6891:6900   */\n      dup4\n        /* \"#utility.yul\":6887:6904   */\n      add\n        /* \"#utility.yul\":6880:6927   */\n      mstore\n        /* \"#utility.yul\":6944:7075   */\n      tag_176\n        /* \"#utility.yul\":7070:7074   */\n      dup2\n        /* \"#utility.yul\":6944:7075   */\n      tag_138\n      jump\t// in\n    tag_176:\n        /* \"#utility.yul\":6936:7075   */\n      swap1\n      pop\n        /* \"#utility.yul\":6663:7082   */\n      swap2\n      swap1\n      pop\n      jump\t// out\n        /* \"#utility.yul\":7088:7507   */\n    tag_76:\n        /* \"#utility.yul\":7254:7258   */\n      0x00\n        /* \"#utility.yul\":7292:7294   */\n      0x20\n        /* \"#utility.yul\":7281:7290   */\n      dup3\n        /* \"#utility.yul\":7277:7295   */\n      add\n        /* \"#utility.yul\":7269:7295   */\n      swap1\n      pop\n        /* \"#utility.yul\":7341:7350   */\n      dup2\n        /* \"#utility.yul\":7335:7339   */\n      dup2\n        /* \"#utility.yul\":7331:7351   */\n      sub\n        /* \"#utility.yul\":7327:7328   */\n      0x00\n        /* \"#utility.yul\":7316:7325   */\n      dup4\n        /* \"#utility.yul\":7312:7329   */\n      add\n        /* \"#utility.yul\":7305:7352   */\n      mstore\n        /* \"#utility.yul\":7369:7500   */\n      tag_178\n        /* \"#utility.yul\":7495:7499   */\n      dup2\n        /* \"#utility.yul\":7369:7500   */\n      tag_143\n      jump\t// in\n    tag_178:\n        /* \"#utility.yul\":7361:7500   */\n      swap1\n      pop\n        /* \"#utility.yul\":7088:7507   */\n      swap2\n      swap1\n      pop\n      jump\t// out\n        /* \"#utility.yul\":7513:7932   */\n    tag_66:\n        /* \"#utility.yul\":7679:7683   */\n      0x00\n        /* \"#utility.yul\":7717:7719   */\n      0x20\n        /* \"#utility.yul\":7706:7715   */\n      dup3\n        /* \"#utility.yul\":7702:7720   */\n      add\n        /* \"#utility.yul\":7694:7720   */\n      swap1\n      pop\n        /* \"#utility.yul\":7766:7775   */\n      dup2\n        /* \"#utility.yul\":7760:7764   */\n      dup2\n        /* \"#utility.yul\":7756:7776   */\n      sub\n        /* \"#utility.yul\":7752:7753   */\n      0x00\n        /* \"#utility.yul\":7741:7750   */\n      dup4\n        /* \"#utility.yul\":7737:7754   */\n      add\n        /* \"#utility.yul\":7730:7777   */\n      mstore\n        /* \"#utility.yul\":7794:7925   */\n      tag_180\n        /* \"#utility.yul\":7920:7924   */\n      dup2\n        /* \"#utility.yul\":7794:7925   */\n      tag_148\n      jump\t// in\n    tag_180:\n        /* \"#utility.yul\":7786:7925   */\n      swap1\n      pop\n        /* \"#utility.yul\":7513:7932   */\n      swap2\n      swap1\n      pop\n      jump\t// out\n        /* \"#utility.yul\":7938:8357   */\n    tag_85:\n        /* \"#utility.yul\":8104:8108   */\n      0x00\n        /* \"#utility.yul\":8142:8144   */\n      0x20\n        /* \"#utility.yul\":8131:8140   */\n      dup3\n        /* \"#utility.yul\":8127:8145   */\n      add\n        /* \"#utility.yul\":8119:8145   */\n      swap1\n      pop\n        /* \"#utility.yul\":8191:8200   */\n      dup2\n        /* \"#utility.yul\":8185:8189   */\n      dup2\n        /* \"#utility.yul\":8181:8201   */\n      sub\n        /* \"#utility.yul\":8177:8178   */\n      0x00\n        /* \"#utility.yul\":8166:8175   */\n      dup4\n        /* \"#utility.yul\":8162:8179   */\n      add\n        /* \"#utility.yul\":8155:8202   */\n      mstore\n        /* \"#utility.yul\":8219:8350   */\n      tag_182\n        /* \"#utility.yul\":8345:8349   */\n      dup2\n        /* \"#utility.yul\":8219:8350   */\n      tag_153\n      jump\t// in\n    tag_182:\n        /* \"#utility.yul\":8211:8350   */\n      swap1\n      pop\n        /* \"#utility.yul\":7938:8357   */\n      swap2\n      swap1\n      pop\n      jump\t// out\n        /* \"#utility.yul\":8363:8782   */\n    tag_45:\n        /* \"#utility.yul\":8529:8533   */\n      0x00\n        /* \"#utility.yul\":8567:8569   */\n      0x20\n        /* \"#utility.yul\":8556:8565   */\n      dup3\n        /* \"#utility.yul\":8552:8570   */\n      add\n        /* \"#utility.yul\":8544:8570   */\n      swap1\n      pop\n        /* \"#utility.yul\":8616:8625   */\n      dup2\n        /* \"#utility.yul\":8610:8614   */\n      dup2\n        /* \"#utility.yul\":8606:8626   */\n      sub\n        /* \"#utility.yul\":8602:8603   */\n      0x00\n        /* \"#utility.yul\":8591:8600   */\n      dup4\n        /* \"#utility.yul\":8587:8604   */\n      add\n        /* \"#utility.yul\":8580:8627   */\n      mstore\n        /* \"#utility.yul\":8644:8775   */\n      tag_184\n        /* \"#utility.yul\":8770:8774   */\n      dup2\n        /* \"#utility.yul\":8644:8775   */\n      tag_158\n      jump\t// in\n    tag_184:\n        /* \"#utility.yul\":8636:8775   */\n      swap1\n      pop\n        /* \"#utility.yul\":8363:8782   */\n      swap2\n      swap1\n      pop\n      jump\t// out\n        /* \"#utility.yul\":8869:9038   */\n    tag_115:\n        /* \"#utility.yul\":8953:8964   */\n      0x00\n        /* \"#utility.yul\":8987:8993   */\n      dup3\n        /* \"#utility.yul\":8982:8985   */\n      dup3\n        /* \"#utility.yul\":8975:8994   */\n      mstore\n        /* \"#utility.yul\":9027:9031   */\n      0x20\n        /* \"#utility.yul\":9022:9025   */\n      dup3\n        /* \"#utility.yul\":9018:9032   */\n      add\n        /* \"#utility.yul\":9003:9032   */\n      swap1\n      pop\n        /* \"#utility.yul\":8869:9038   */\n      swap3\n      swap2\n      pop\n      pop\n      jump\t// out\n        /* \"#utility.yul\":9044:9569   */\n    tag_78:\n        /* \"#utility.yul\":9083:9086   */\n      0x00\n        /* \"#utility.yul\":9102:9121   */\n      tag_189\n        /* \"#utility.yul\":9119:9120   */\n      dup3\n        /* \"#utility.yul\":9102:9121   */\n      tag_190\n      jump\t// in\n    tag_189:\n        /* \"#utility.yul\":9097:9121   */\n      swap2\n      pop\n        /* \"#utility.yul\":9135:9154   */\n      tag_191\n        /* \"#utility.yul\":9152:9153   */\n      dup4\n        /* \"#utility.yul\":9135:9154   */\n      tag_190\n      jump\t// in\n    tag_191:\n        /* \"#utility.yul\":9130:9154   */\n      swap3\n      pop\n        /* \"#utility.yul\":9323:9324   */\n      dup2\n        /* \"#utility.yul\":9255:9321   */\n      0x7fffffffffffffffffffffffffffffffffffffffffffffffffffffffffffffff\n        /* \"#utility.yul\":9251:9325   */\n      sub\n        /* \"#utility.yul\":9248:9249   */\n      dup4\n        /* \"#utility.yul\":9244:9326   */\n      sgt\n        /* \"#utility.yul\":9239:9240   */\n      0x00\n        /* \"#utility.yul\":9236:9237   */\n      dup4\n        /* \"#utility.yul\":9232:9241   */\n      slt\n        /* \"#utility.yul\":9225:9242   */\n      iszero\n        /* \"#utility.yul\":9221:9327   */\n      and\n        /* \"#utility.yul\":9218:9350   */\n      iszero\n      tag_192\n      jumpi\n        /* \"#utility.yul\":9330:9348   */\n      tag_193\n      tag_194\n      jump\t// in\n    tag_193:\n        /* \"#utility.yul\":9218:9350   */\n    tag_192:\n        /* \"#utility.yul\":9510:9511   */\n      dup2\n        /* \"#utility.yul\":9442:9508   */\n      0x8000000000000000000000000000000000000000000000000000000000000000\n        /* \"#utility.yul\":9438:9512   */\n      sub\n        /* \"#utility.yul\":9435:9436   */\n      dup4\n        /* \"#utility.yul\":9431:9513   */\n      slt\n        /* \"#utility.yul\":9427:9428   */\n      0x00\n        /* \"#utility.yul\":9424:9425   */\n      dup4\n        /* \"#utility.yul\":9420:9429   */\n      slt\n        /* \"#utility.yul\":9416:9514   */\n      and\n        /* \"#utility.yul\":9413:9537   */\n      iszero\n      tag_195\n      jumpi\n        /* \"#utility.yul\":9517:9535   */\n      tag_196\n      tag_194\n      jump\t// in\n    tag_196:\n        /* \"#utility.yul\":9413:9537   */\n    tag_195:\n        /* \"#utility.yul\":9561:9562   */\n      dup3\n        /* \"#utility.yul\":9558:9559   */\n      dup3\n        /* \"#utility.yul\":9554:9563   */\n      add\n        /* \"#utility.yul\":9547:9563   */\n      swap1\n      pop\n        /* \"#utility.yul\":9044:9569   */\n      swap3\n      swap2\n      pop\n      pop\n      jump\t// out\n        /* \"#utility.yul\":9575:9960   */\n    tag_53:\n        /* \"#utility.yul\":9614:9615   */\n      0x00\n        /* \"#utility.yul\":9631:9650   */\n      tag_198\n        /* \"#utility.yul\":9648:9649   */\n      dup3\n        /* \"#utility.yul\":9631:9650   */\n      tag_190\n      jump\t// in\n    tag_198:\n        /* \"#utility.yul\":9626:9650   */\n      swap2\n      pop\n        /* \"#utility.yul\":9664:9683   */\n      tag_199\n        /* \"#utility.yul\":9681:9682   */\n      dup4\n        /* \"#utility.yul\":9664:9683   */\n      tag_190\n      jump\t// in\n    tag_199:\n        /* \"#utility.yul\":9659:9683   */\n      swap3\n      pop\n        /* \"#utility.yul\":9702:9703   */\n      dup3\n        /* \"#utility.yul\":9692:9727   */\n      tag_200\n      jumpi\n        /* \"#utility.yul\":9707:9725   */\n      tag_201\n      tag_202\n      jump\t// in\n    tag_201:\n        /* \"#utility.yul\":9692:9727   */\n    tag_200:\n        /* \"#utility.yul\":9893:9894   */\n      0x01\n        /* \"#utility.yul\":9890:9891   */\n      0x00\n        /* \"#utility.yul\":9886:9895   */\n      sub\n        /* \"#utility.yul\":9883:9884   */\n      dup4\n        /* \"#utility.yul\":9880:9896   */\n      eq\n        /* \"#utility.yul\":9799:9865   */\n      0x8000000000000000000000000000000000000000000000000000000000000000\n        /* \"#utility.yul\":9796:9797   */\n      dup4\n        /* \"#utility.yul\":9793:9866   */\n      eq\n        /* \"#utility.yul\":9776:9906   */\n      and\n        /* \"#utility.yul\":9773:9929   */\n      iszero\n      tag_203\n      jumpi\n        /* \"#utility.yul\":9909:9927   */\n      tag_204\n      tag_194\n      jump\t// in\n    tag_204:\n        /* \"#utility.yul\":9773:9929   */\n    tag_203:\n        /* \"#utility.yul\":9952:9953   */\n      dup3\n        /* \"#utility.yul\":9949:9950   */\n      dup3\n        /* \"#utility.yul\":9944:9954   */\n      sdiv\n        /* \"#utility.yul\":9939:9954   */\n      swap1\n      pop\n        /* \"#utility.yul\":9575:9960   */\n      swap3\n      swap2\n      pop\n      pop\n      jump\t// out\n        /* \"#utility.yul\":9966:10062   */\n    tag_205:\n        /* \"#utility.yul\":10003:10010   */\n      0x00\n        /* \"#utility.yul\":10032:10056   */\n      tag_207\n        /* \"#utility.yul\":10050:10055   */\n      dup3\n        /* \"#utility.yul\":10032:10056   */\n      tag_208\n      jump\t// in\n    tag_207:\n        /* \"#utility.yul\":10021:10056   */\n      swap1\n      pop\n        /* \"#utility.yul\":9966:10062   */\n      swap2\n      swap1\n      pop\n      jump\t// out\n        /* \"#utility.yul\":10068:10158   */\n    tag_111:\n        /* \"#utility.yul\":10102:10109   */\n      0x00\n        /* \"#utility.yul\":10145:10150   */\n      dup2\n        /* \"#utility.yul\":10138:10151   */\n      iszero\n        /* \"#utility.yul\":10131:10152   */\n      iszero\n        /* \"#utility.yul\":10120:10152   */\n      swap1\n      pop\n        /* \"#utility.yul\":10068:10158   */\n      swap2\n      swap1\n      pop\n      jump\t// out\n        /* \"#utility.yul\":10164:10240   */\n    tag_190:\n        /* \"#utility.yul\":10200:10207   */\n      0x00\n        /* \"#utility.yul\":10229:10234   */\n      dup2\n        /* \"#utility.yul\":10218:10234   */\n      swap1\n      pop\n        /* \"#utility.yul\":10164:10240   */\n      swap2\n      swap1\n      pop\n      jump\t// out\n        /* \"#utility.yul\":10246:10372   */\n    tag_208:\n        /* \"#utility.yul\":10283:10290   */\n      0x00\n        /* \"#utility.yul\":10323:10365   */\n      0xffffffffffffffffffffffffffffffffffffffff\n        /* \"#utility.yul\":10316:10321   */\n      dup3\n        /* \"#utility.yul\":10312:10366   */\n      and\n        /* \"#utility.yul\":10301:10366   */\n      swap1\n      pop\n        /* \"#utility.yul\":10246:10372   */\n      swap2\n      swap1\n      pop\n      jump\t// out\n        /* \"#utility.yul\":10378:10558   */\n    tag_194:\n        /* \"#utility.yul\":10426:10503   */\n      0x4e487b7100000000000000000000000000000000000000000000000000000000\n        /* \"#utility.yul\":10423:10424   */\n      0x00\n        /* \"#utility.yul\":10416:10504   */\n      mstore\n        /* \"#utility.yul\":10523:10527   */\n      0x11\n        /* \"#utility.yul\":10520:10521   */\n      0x04\n        /* \"#utility.yul\":10513:10528   */\n      mstore\n        /* \"#utility.yul\":10547:10551   */\n      0x24\n        /* \"#utility.yul\":10544:10545   */\n      0x00\n        /* \"#utility.yul\":10537:10552   */\n      revert\n        /* \"#utility.yul\":10564:10744   */\n    tag_202:\n        /* \"#utility.yul\":10612:10689   */\n      0x4e487b7100000000000000000000000000000000000000000000000000000000\n        /* \"#utility.yul\":10609:10610   */\n      0x00\n        /* \"#utility.yul\":10602:10690   */\n      mstore\n        /* \"#utility.yul\":10709:10713   */\n      0x12\n        /* \"#utility.yul\":10706:10707   */\n      0x04\n        /* \"#utility.yul\":10699:10714   */\n      mstore\n        /* \"#utility.yul\":10733:10737   */\n      0x24\n        /* \"#utility.yul\":10730:10731   */\n      0x00\n        /* \"#utility.yul\":10723:10738   */\n      revert\n        /* \"#utility.yul\":10873:10990   */\n    tag_106:\n        /* \"#utility.yul\":10982:10983   */\n      0x00\n        /* \"#utility.yul\":10979:10980   */\n      dup1\n        /* \"#utility.yul\":10972:10984   */\n      revert\n        /* \"#utility.yul\":10996:11219   */\n    tag_117:\n        /* \"#utility.yul\":11136:11170   */\n      0x4d616a6f72697479206e6f7420616368696576656420746f2061646420616464\n        /* \"#utility.yul\":11132:11133   */\n      0x00\n        /* \"#utility.yul\":11124:11130   */\n      dup3\n        /* \"#utility.yul\":11120:11134   */\n      add\n        /* \"#utility.yul\":11113:11171   */\n      mstore\n        /* \"#utility.yul\":11205:11211   */\n      0x7265737300000000000000000000000000000000000000000000000000000000\n        /* \"#utility.yul\":11200:11202   */\n      0x20\n        /* \"#utility.yul\":11192:11198   */\n      dup3\n        /* \"#utility.yul\":11188:11203   */\n      add\n        /* \"#utility.yul\":11181:11212   */\n      mstore\n        /* \"#utility.yul\":10996:11219   */\n      pop\n      jump\t// out\n        /* \"#utility.yul\":11225:11467   */\n    tag_122:\n        /* \"#utility.yul\":11365:11399   */\n      0x43616e6e6f742072656d6f766520616e20616464726573732074686174206973\n        /* \"#utility.yul\":11361:11362   */\n      0x00\n        /* \"#utility.yul\":11353:11359   */\n      dup3\n        /* \"#utility.yul\":11349:11363   */\n      add\n        /* \"#utility.yul\":11342:11400   */\n      mstore\n        /* \"#utility.yul\":11434:11459   */\n      0x206e6f7420616c72656164792061207665726966696572000000000000000000\n        /* \"#utility.yul\":11429:11431   */\n      0x20\n        /* \"#utility.yul\":11421:11427   */\n      dup3\n        /* \"#utility.yul\":11417:11432   */\n      add\n        /* \"#utility.yul\":11410:11460   */\n      mstore\n        /* \"#utility.yul\":11225:11467   */\n      pop\n      jump\t// out\n        /* \"#utility.yul\":11473:11643   */\n    tag_127:\n        /* \"#utility.yul\":11613:11635   */\n      0x596f7520617265206e6f7420616e2061646d696e000000000000000000000000\n        /* \"#utility.yul\":11609:11610   */\n      0x00\n        /* \"#utility.yul\":11601:11607   */\n      dup3\n        /* \"#utility.yul\":11597:11611   */\n      add\n        /* \"#utility.yul\":11590:11636   */\n      mstore\n        /* \"#utility.yul\":11473:11643   */\n      pop\n      jump\t// out\n        /* \"#utility.yul\":11649:11869   */\n    tag_132:\n        /* \"#utility.yul\":11789:11823   */\n      0x546869732061646d696e2068617320616c7265616479206265656e2061646465\n        /* \"#utility.yul\":11785:11786   */\n      0x00\n        /* \"#utility.yul\":11777:11783   */\n      dup3\n        /* \"#utility.yul\":11773:11787   */\n      add\n        /* \"#utility.yul\":11766:11824   */\n      mstore\n        /* \"#utility.yul\":11858:11861   */\n      0x6400000000000000000000000000000000000000000000000000000000000000\n        /* \"#utility.yul\":11853:11855   */\n      0x20\n        /* \"#utility.yul\":11845:11851   */\n      dup3\n        /* \"#utility.yul\":11841:11856   */\n      add\n        /* \"#utility.yul\":11834:11862   */\n      mstore\n        /* \"#utility.yul\":11649:11869   */\n      pop\n      jump\t// out\n        /* \"#utility.yul\":11875:12055   */\n    tag_137:\n        /* \"#utility.yul\":12015:12047   */\n      0x43616e6e6f742076657269667920746865207a65726f20616464726573730000\n        /* \"#utility.yul\":12011:12012   */\n      0x00\n        /* \"#utility.yul\":12003:12009   */\n      dup3\n        /* \"#utility.yul\":11999:12013   */\n      add\n        /* \"#utility.yul\":11992:12048   */\n      mstore\n        /* \"#utility.yul\":11875:12055   */\n      pop\n      jump\t// out\n        /* \"#utility.yul\":12061:12241   */\n    tag_142:\n        /* \"#utility.yul\":12201:12233   */\n      0x4164647265737320697320616c72656164792061207665726966696665720000\n        /* \"#utility.yul\":12197:12198   */\n      0x00\n        /* \"#utility.yul\":12189:12195   */\n      dup3\n        /* \"#utility.yul\":12185:12199   */\n      add\n        /* \"#utility.yul\":12178:12234   */\n      mstore\n        /* \"#utility.yul\":12061:12241   */\n      pop\n      jump\t// out\n        /* \"#utility.yul\":12247:12417   */\n    tag_147:\n        /* \"#utility.yul\":12387:12409   */\n      0x596f7527766520616c726561647920766f746564000000000000000000000000\n        /* \"#utility.yul\":12383:12384   */\n      0x00\n        /* \"#utility.yul\":12375:12381   */\n      dup3\n        /* \"#utility.yul\":12371:12385   */\n      add\n        /* \"#utility.yul\":12364:12410   */\n      mstore\n        /* \"#utility.yul\":12247:12417   */\n      pop\n      jump\t// out\n        /* \"#utility.yul\":12423:12600   */\n    tag_152:\n        /* \"#utility.yul\":12563:12592   */\n      0x4164647265737320697320616c72656164792076657269666965640000000000\n        /* \"#utility.yul\":12559:12560   */\n      0x00\n        /* \"#utility.yul\":12551:12557   */\n      dup3\n        /* \"#utility.yul\":12547:12561   */\n      add\n        /* \"#utility.yul\":12540:12593   */\n      mstore\n        /* \"#utility.yul\":12423:12600   */\n      pop\n      jump\t// out\n        /* \"#utility.yul\":12606:12826   */\n    tag_157:\n        /* \"#utility.yul\":12746:12780   */\n      0x5a65726f20616464726573732063616e6e6f7420626520612076657269666965\n        /* \"#utility.yul\":12742:12743   */\n      0x00\n        /* \"#utility.yul\":12734:12740   */\n      dup3\n        /* \"#utility.yul\":12730:12744   */\n      add\n        /* \"#utility.yul\":12723:12781   */\n      mstore\n        /* \"#utility.yul\":12815:12818   */\n      0x7200000000000000000000000000000000000000000000000000000000000000\n        /* \"#utility.yul\":12810:12812   */\n      0x20\n        /* \"#utility.yul\":12802:12808   */\n      dup3\n        /* \"#utility.yul\":12798:12813   */\n      add\n        /* \"#utility.yul\":12791:12819   */\n      mstore\n        /* \"#utility.yul\":12606:12826   */\n      pop\n      jump\t// out\n        /* \"#utility.yul\":12832:13004   */\n    tag_162:\n        /* \"#utility.yul\":12972:12996   */\n      0x596f7520617265206e6f74206120766572696669657200000000000000000000\n        /* \"#utility.yul\":12968:12969   */\n      0x00\n        /* \"#utility.yul\":12960:12966   */\n      dup3\n        /* \"#utility.yul\":12956:12970   */\n      add\n        /* \"#utility.yul\":12949:12997   */\n      mstore\n        /* \"#utility.yul\":12832:13004   */\n      pop\n      jump\t// out\n        /* \"#utility.yul\":13010:13132   */\n    tag_102:\n        /* \"#utility.yul\":13083:13107   */\n      tag_228\n        /* \"#utility.yul\":13101:13106   */\n      dup2\n        /* \"#utility.yul\":13083:13107   */\n      tag_205\n      jump\t// in\n    tag_228:\n        /* \"#utility.yul\":13076:13081   */\n      dup2\n        /* \"#utility.yul\":13073:13108   */\n      eq\n        /* \"#utility.yul\":13063:13126   */\n      tag_229\n      jumpi\n        /* \"#utility.yul\":13122:13123   */\n      0x00\n        /* \"#utility.yul\":13119:13120   */\n      dup1\n        /* \"#utility.yul\":13112:13124   */\n      revert\n        /* \"#utility.yul\":13063:13126   */\n    tag_229:\n        /* \"#utility.yul\":13010:13132   */\n      pop\n      jump\t// out\n\n    auxdata: 0xa2646970667358221220763c76dd8dfd8a94b6f7d80ec843849992456169ddd540fd87113b7f64cd2d6c64736f6c63430008070033\n}\n",
				"bytecode": {
					"linkReferences": {},
					"object": "60806040523480156200001157600080fd5b50604051620016a7380380620016a78339818101604052810190620000379190620000f8565b6000806000806101000a81548173ffffffffffffffffffffffffffffffffffffffff021916908373ffffffffffffffffffffffffffffffffffffffff160217905550506001600460008373ffffffffffffffffffffffffffffffffffffffff1673ffffffffffffffffffffffffffffffffffffffff16815260200190815260200160002060006101000a81548160ff0219169083151502179055506001600381905550506200017d565b600081519050620000f28162000163565b92915050565b6000602082840312156200011157620001106200015e565b5b60006200012184828501620000e1565b91505092915050565b600062000137826200013e565b9050919050565b600073ffffffffffffffffffffffffffffffffffffffff82169050919050565b600080fd5b6200016e816200012a565b81146200017a57600080fd5b50565b61151a806200018d6000396000f3fe608060405234801561001057600080fd5b50600436106100885760003560e01c806369596d701161005b57806369596d70146101115780639000b3d61461012d578063b9209e3314610149578063ca2dfd0a1461017957610088565b8063331052181461008d5780634487b392146100bd57806347053b59146100d95780635dc84e32146100f5575b600080fd5b6100a760048036038101906100a29190610dec565b610195565b6040516100b49190610f86565b60405180910390f35b6100d760048036038101906100d29190610dec565b610203565b005b6100f360048036038101906100ee9190610dec565b610343565b005b61010f600480360381019061010a9190610dec565b6104c3565b005b61012b60048036038101906101269190610dec565b61070e565b005b61014760048036038101906101429190610dec565b6109f6565b005b610163600480360381019061015e9190610dec565b610be8565b6040516101709190610f86565b60405180910390f35b610193600480360381019061018e9190610dec565b610c56565b005b600060011515600260008473ffffffffffffffffffffffffffffffffffffffff1673ffffffffffffffffffffffffffffffffffffffff16815260200190815260200160002060009054906101000a900460ff16151514156101f957600190506101fe565b600090505b919050565b60011515600260003373ffffffffffffffffffffffffffffffffffffffff1673ffffffffffffffffffffffffffffffffffffffff16815260200190815260200160002060009054906101000a900460ff16151514610296576040517f08c379a000000000000000000000000000000000000000000000000000000000815260040161028d906110c1565b60405180910390fd5b60001515600160008373ffffffffffffffffffffffffffffffffffffffff1673ffffffffffffffffffffffffffffffffffffffff16815260200190815260200160002060009054906101000a905050503373ffffffffffffffffffffffffffffffffffffffff168173ffffffffffffffffffffffffffffffffffffffff167f2679e492f4112eee8e3f6dfd8463065d662332a578753f77ce4c3d76c98271fb60405160405180910390a350565b60011515600460003373ffffffffffffffffffffffffffffffffffffffff1673ffffffffffffffffffffffffffffffffffffffff16815260200190815260200160002060009054906101000a900460ff161515146103d6576040517f08c379a00000000000000000000000000000000000000000000000000000000081526004016103cd90610fe1565b60405180910390fd5b60026003546103e59190611186565b600660008373ffffffffffffffffffffffffffffffffffffffff1673ffffffffffffffffffffffffffffffffffffffff1681526020019081526020016000206000015413610468576040517f08c379a000000000000000000000000000000000000000000000000000000000815260040161045f90610fa1565b60405180910390fd5b6001600460008373ffffffffffffffffffffffffffffffffffffffff1673ffffffffffffffffffffffffffffffffffffffff16815260200190815260200160002060006101000a81548160ff02191690831515021790555050565b60011515600260003373ffffffffffffffffffffffffffffffffffffffff1673ffffffffffffffffffffffffffffffffffffffff16815260200190815260200160002060009054906101000a900460ff16151514610556576040517f08c379a000000000000000000000000000000000000000000000000000000000815260040161054d906110c1565b60405180910390fd5b600073ffffffffffffffffffffffffffffffffffffffff168173ffffffffffffffffffffffffffffffffffffffff1614156105c6576040517f08c379a00000000000000000000000000000000000000000000000000000000081526004016105bd90611021565b60405180910390fd5b60011515600160008373ffffffffffffffffffffffffffffffffffffffff1673ffffffffffffffffffffffffffffffffffffffff16815260200190815260200160002060009054906101000a900460ff161515141561065a576040517f08c379a000000000000000000000000000000000000000000000000000000000815260040161065190611081565b60405180910390fd5b60018060008373ffffffffffffffffffffffffffffffffffffffff1673ffffffffffffffffffffffffffffffffffffffff16815260200190815260200160002060006101000a81548160ff0219169083151502179055503373ffffffffffffffffffffffffffffffffffffffff168173ffffffffffffffffffffffffffffffffffffffff167f2679e492f4112eee8e3f6dfd8463065d662332a578753f77ce4c3d76c98271fb60405160405180910390a350565b60011515600460003373ffffffffffffffffffffffffffffffffffffffff1673ffffffffffffffffffffffffffffffffffffffff16815260200190815260200160002060009054906101000a900460ff161515146107a1576040517f08c379a000000000000000000000000000000000000000000000000000000000815260040161079890610fe1565b60405180910390fd5b60001515600460008373ffffffffffffffffffffffffffffffffffffffff1673ffffffffffffffffffffffffffffffffffffffff16815260200190815260200160002060009054906101000a900460ff16151514610834576040517f08c379a000000000000000000000000000000000000000000000000000000000815260040161082b90611001565b60405180910390fd5b60001515600560008373ffffffffffffffffffffffffffffffffffffffff1673ffffffffffffffffffffffffffffffffffffffff16815260200190815260200160002060003373ffffffffffffffffffffffffffffffffffffffff1673ffffffffffffffffffffffffffffffffffffffff16815260200190815260200160002060009054906101000a900460ff16151514610904576040517f08c379a00000000000000000000000000000000000000000000000000000000081526004016108fb90611061565b60405180910390fd5b6001600660008373ffffffffffffffffffffffffffffffffffffffff1673ffffffffffffffffffffffffffffffffffffffff168152602001908152602001600020600001600082825461095791906110f2565b925050819055506001600560008373ffffffffffffffffffffffffffffffffffffffff1673ffffffffffffffffffffffffffffffffffffffff16815260200190815260200160002060003373ffffffffffffffffffffffffffffffffffffffff1673ffffffffffffffffffffffffffffffffffffffff16815260200190815260200160002060006101000a81548160ff02191690831515021790555050565b60011515600460003373ffffffffffffffffffffffffffffffffffffffff1673ffffffffffffffffffffffffffffffffffffffff16815260200190815260200160002060009054906101000a900460ff16151514610a89576040517f08c379a0000000000000000000000000000000000000000000000000000000008152600401610a8090610fe1565b60405180910390fd5b600073ffffffffffffffffffffffffffffffffffffffff168173ffffffffffffffffffffffffffffffffffffffff161415610af9576040517f08c379a0000000000000000000000000000000000000000000000000000000008152600401610af0906110a1565b60405180910390fd5b60011515600260008373ffffffffffffffffffffffffffffffffffffffff1673ffffffffffffffffffffffffffffffffffffffff16815260200190815260200160002060009054906101000a900460ff1615151415610b8d576040517f08c379a0000000000000000000000000000000000000000000000000000000008152600401610b8490611041565b60405180910390fd5b6001600260008373ffffffffffffffffffffffffffffffffffffffff1673ffffffffffffffffffffffffffffffffffffffff16815260200190815260200160002060006101000a81548160ff02191690831515021790555050565b600060011515600160008473ffffffffffffffffffffffffffffffffffffffff1673ffffffffffffffffffffffffffffffffffffffff16815260200190815260200160002060009054906101000a900460ff1615151415610c4c5760019050610c51565b600090505b919050565b60011515600460003373ffffffffffffffffffffffffffffffffffffffff1673ffffffffffffffffffffffffffffffffffffffff16815260200190815260200160002060009054906101000a900460ff16151514610ce9576040517f08c379a0000000000000000000000000000000000000000000000000000000008152600401610ce090610fe1565b60405180910390fd5b60011515600260008373ffffffffffffffffffffffffffffffffffffffff1673ffffffffffffffffffffffffffffffffffffffff16815260200190815260200160002060009054906101000a900460ff16151514610d7c576040517f08c379a0000000000000000000000000000000000000000000000000000000008152600401610d7390610fc1565b60405180910390fd5b6000600260008373ffffffffffffffffffffffffffffffffffffffff1673ffffffffffffffffffffffffffffffffffffffff16815260200190815260200160002060006101000a81548160ff02191690831515021790555050565b600081359050610de6816114cd565b92915050565b600060208284031215610e0257610e01611296565b5b6000610e1084828501610dd7565b91505092915050565b610e2281611202565b82525050565b6000610e356024836110e1565b9150610e408261129b565b604082019050919050565b6000610e586037836110e1565b9150610e63826112ea565b604082019050919050565b6000610e7b6014836110e1565b9150610e8682611339565b602082019050919050565b6000610e9e6021836110e1565b9150610ea982611362565b604082019050919050565b6000610ec1601e836110e1565b9150610ecc826113b1565b602082019050919050565b6000610ee4601e836110e1565b9150610eef826113da565b602082019050919050565b6000610f076014836110e1565b9150610f1282611403565b602082019050919050565b6000610f2a601b836110e1565b9150610f358261142c565b602082019050919050565b6000610f4d6021836110e1565b9150610f5882611455565b604082019050919050565b6000610f706016836110e1565b9150610f7b826114a4565b602082019050919050565b6000602082019050610f9b6000830184610e19565b92915050565b60006020820190508181036000830152610fba81610e28565b9050919050565b60006020820190508181036000830152610fda81610e4b565b9050919050565b60006020820190508181036000830152610ffa81610e6e565b9050919050565b6000602082019050818103600083015261101a81610e91565b9050919050565b6000602082019050818103600083015261103a81610eb4565b9050919050565b6000602082019050818103600083015261105a81610ed7565b9050919050565b6000602082019050818103600083015261107a81610efa565b9050919050565b6000602082019050818103600083015261109a81610f1d565b9050919050565b600060208201905081810360008301526110ba81610f40565b9050919050565b600060208201905081810360008301526110da81610f63565b9050919050565b600082825260208201905092915050565b60006110fd8261120e565b91506111088361120e565b9250817f7fffffffffffffffffffffffffffffffffffffffffffffffffffffffffffffff0383136000831215161561114357611142611238565b5b817f800000000000000000000000000000000000000000000000000000000000000003831260008312161561117b5761117a611238565b5b828201905092915050565b60006111918261120e565b915061119c8361120e565b9250826111ac576111ab611267565b5b600160000383147f8000000000000000000000000000000000000000000000000000000000000000831416156111e5576111e4611238565b5b828205905092915050565b60006111fb82611218565b9050919050565b60008115159050919050565b6000819050919050565b600073ffffffffffffffffffffffffffffffffffffffff82169050919050565b7f4e487b7100000000000000000000000000000000000000000000000000000000600052601160045260246000fd5b7f4e487b7100000000000000000000000000000000000000000000000000000000600052601260045260246000fd5b600080fd5b7f4d616a6f72697479206e6f7420616368696576656420746f206164642061646460008201527f7265737300000000000000000000000000000000000000000000000000000000602082015250565b7f43616e6e6f742072656d6f766520616e2061646472657373207468617420697360008201527f206e6f7420616c72656164792061207665726966696572000000000000000000602082015250565b7f596f7520617265206e6f7420616e2061646d696e000000000000000000000000600082015250565b7f546869732061646d696e2068617320616c7265616479206265656e206164646560008201527f6400000000000000000000000000000000000000000000000000000000000000602082015250565b7f43616e6e6f742076657269667920746865207a65726f20616464726573730000600082015250565b7f4164647265737320697320616c72656164792061207665726966696665720000600082015250565b7f596f7527766520616c726561647920766f746564000000000000000000000000600082015250565b7f4164647265737320697320616c72656164792076657269666965640000000000600082015250565b7f5a65726f20616464726573732063616e6e6f742062652061207665726966696560008201527f7200000000000000000000000000000000000000000000000000000000000000602082015250565b7f596f7520617265206e6f74206120766572696669657200000000000000000000600082015250565b6114d6816111f0565b81146114e157600080fd5b5056fea2646970667358221220763c76dd8dfd8a94b6f7d80ec843849992456169ddd540fd87113b7f64cd2d6c64736f6c63430008070033",
					"opcodes": "PUSH1 0x80 PUSH1 0x40 MSTORE CALLVALUE DUP1 ISZERO PUSH3 0x11 JUMPI PUSH1 0x0 DUP1 REVERT JUMPDEST POP PUSH1 0x40 MLOAD PUSH3 0x16A7 CODESIZE SUB DUP1 PUSH3 0x16A7 DUP4 CODECOPY DUP2 DUP2 ADD PUSH1 0x40 MSTORE DUP2 ADD SWAP1 PUSH3 0x37 SWAP2 SWAP1 PUSH3 0xF8 JUMP JUMPDEST PUSH1 0x0 DUP1 PUSH1 0x0 DUP1 PUSH2 0x100 EXP DUP2 SLOAD DUP2 PUSH20 0xFFFFFFFFFFFFFFFFFFFFFFFFFFFFFFFFFFFFFFFF MUL NOT AND SWAP1 DUP4 PUSH20 0xFFFFFFFFFFFFFFFFFFFFFFFFFFFFFFFFFFFFFFFF AND MUL OR SWAP1 SSTORE POP POP PUSH1 0x1 PUSH1 0x4 PUSH1 0x0 DUP4 PUSH20 0xFFFFFFFFFFFFFFFFFFFFFFFFFFFFFFFFFFFFFFFF AND PUSH20 0xFFFFFFFFFFFFFFFFFFFFFFFFFFFFFFFFFFFFFFFF AND DUP2 MSTORE PUSH1 0x20 ADD SWAP1 DUP2 MSTORE PUSH1 0x20 ADD PUSH1 0x0 KECCAK256 PUSH1 0x0 PUSH2 0x100 EXP DUP2 SLOAD DUP2 PUSH1 0xFF MUL NOT AND SWAP1 DUP4 ISZERO ISZERO MUL OR SWAP1 SSTORE POP PUSH1 0x1 PUSH1 0x3 DUP2 SWAP1 SSTORE POP POP PUSH3 0x17D JUMP JUMPDEST PUSH1 0x0 DUP2 MLOAD SWAP1 POP PUSH3 0xF2 DUP2 PUSH3 0x163 JUMP JUMPDEST SWAP3 SWAP2 POP POP JUMP JUMPDEST PUSH1 0x0 PUSH1 0x20 DUP3 DUP5 SUB SLT ISZERO PUSH3 0x111 JUMPI PUSH3 0x110 PUSH3 0x15E JUMP JUMPDEST JUMPDEST PUSH1 0x0 PUSH3 0x121 DUP5 DUP3 DUP6 ADD PUSH3 0xE1 JUMP JUMPDEST SWAP2 POP POP SWAP3 SWAP2 POP POP JUMP JUMPDEST PUSH1 0x0 PUSH3 0x137 DUP3 PUSH3 0x13E JUMP JUMPDEST SWAP1 POP SWAP2 SWAP1 POP JUMP JUMPDEST PUSH1 0x0 PUSH20 0xFFFFFFFFFFFFFFFFFFFFFFFFFFFFFFFFFFFFFFFF DUP3 AND SWAP1 POP SWAP2 SWAP1 POP JUMP JUMPDEST PUSH1 0x0 DUP1 REVERT JUMPDEST PUSH3 0x16E DUP2 PUSH3 0x12A JUMP JUMPDEST DUP2 EQ PUSH3 0x17A JUMPI PUSH1 0x0 DUP1 REVERT JUMPDEST POP JUMP JUMPDEST PUSH2 0x151A DUP1 PUSH3 0x18D PUSH1 0x0 CODECOPY PUSH1 0x0 RETURN INVALID PUSH1 0x80 PUSH1 0x40 MSTORE CALLVALUE DUP1 ISZERO PUSH2 0x10 JUMPI PUSH1 0x0 DUP1 REVERT JUMPDEST POP PUSH1 0x4 CALLDATASIZE LT PUSH2 0x88 JUMPI PUSH1 0x0 CALLDATALOAD PUSH1 0xE0 SHR DUP1 PUSH4 0x69596D70 GT PUSH2 0x5B JUMPI DUP1 PUSH4 0x69596D70 EQ PUSH2 0x111 JUMPI DUP1 PUSH4 0x9000B3D6 EQ PUSH2 0x12D JUMPI DUP1 PUSH4 0xB9209E33 EQ PUSH2 0x149 JUMPI DUP1 PUSH4 0xCA2DFD0A EQ PUSH2 0x179 JUMPI PUSH2 0x88 JUMP JUMPDEST DUP1 PUSH4 0x33105218 EQ PUSH2 0x8D JUMPI DUP1 PUSH4 0x4487B392 EQ PUSH2 0xBD JUMPI DUP1 PUSH4 0x47053B59 EQ PUSH2 0xD9 JUMPI DUP1 PUSH4 0x5DC84E32 EQ PUSH2 0xF5 JUMPI JUMPDEST PUSH1 0x0 DUP1 REVERT JUMPDEST PUSH2 0xA7 PUSH1 0x4 DUP1 CALLDATASIZE SUB DUP2 ADD SWAP1 PUSH2 0xA2 SWAP2 SWAP1 PUSH2 0xDEC JUMP JUMPDEST PUSH2 0x195 JUMP JUMPDEST PUSH1 0x40 MLOAD PUSH2 0xB4 SWAP2 SWAP1 PUSH2 0xF86 JUMP JUMPDEST PUSH1 0x40 MLOAD DUP1 SWAP2 SUB SWAP1 RETURN JUMPDEST PUSH2 0xD7 PUSH1 0x4 DUP1 CALLDATASIZE SUB DUP2 ADD SWAP1 PUSH2 0xD2 SWAP2 SWAP1 PUSH2 0xDEC JUMP JUMPDEST PUSH2 0x203 JUMP JUMPDEST STOP JUMPDEST PUSH2 0xF3 PUSH1 0x4 DUP1 CALLDATASIZE SUB DUP2 ADD SWAP1 PUSH2 0xEE SWAP2 SWAP1 PUSH2 0xDEC JUMP JUMPDEST PUSH2 0x343 JUMP JUMPDEST STOP JUMPDEST PUSH2 0x10F PUSH1 0x4 DUP1 CALLDATASIZE SUB DUP2 ADD SWAP1 PUSH2 0x10A SWAP2 SWAP1 PUSH2 0xDEC JUMP JUMPDEST PUSH2 0x4C3 JUMP JUMPDEST STOP JUMPDEST PUSH2 0x12B PUSH1 0x4 DUP1 CALLDATASIZE SUB DUP2 ADD SWAP1 PUSH2 0x126 SWAP2 SWAP1 PUSH2 0xDEC JUMP JUMPDEST PUSH2 0x70E JUMP JUMPDEST STOP JUMPDEST PUSH2 0x147 PUSH1 0x4 DUP1 CALLDATASIZE SUB DUP2 ADD SWAP1 PUSH2 0x142 SWAP2 SWAP1 PUSH2 0xDEC JUMP JUMPDEST PUSH2 0x9F6 JUMP JUMPDEST STOP JUMPDEST PUSH2 0x163 PUSH1 0x4 DUP1 CALLDATASIZE SUB DUP2 ADD SWAP1 PUSH2 0x15E SWAP2 SWAP1 PUSH2 0xDEC JUMP JUMPDEST PUSH2 0xBE8 JUMP JUMPDEST PUSH1 0x40 MLOAD PUSH2 0x170 SWAP2 SWAP1 PUSH2 0xF86 JUMP JUMPDEST PUSH1 0x40 MLOAD DUP1 SWAP2 SUB SWAP1 RETURN JUMPDEST PUSH2 0x193 PUSH1 0x4 DUP1 CALLDATASIZE SUB DUP2 ADD SWAP1 PUSH2 0x18E SWAP2 SWAP1 PUSH2 0xDEC JUMP JUMPDEST PUSH2 0xC56 JUMP JUMPDEST STOP JUMPDEST PUSH1 0x0 PUSH1 0x1 ISZERO ISZERO PUSH1 0x2 PUSH1 0x0 DUP5 PUSH20 0xFFFFFFFFFFFFFFFFFFFFFFFFFFFFFFFFFFFFFFFF AND PUSH20 0xFFFFFFFFFFFFFFFFFFFFFFFFFFFFFFFFFFFFFFFF AND DUP2 MSTORE PUSH1 0x20 ADD SWAP1 DUP2 MSTORE PUSH1 0x20 ADD PUSH1 0x0 KECCAK256 PUSH1 0x0 SWAP1 SLOAD SWAP1 PUSH2 0x100 EXP SWAP1 DIV PUSH1 0xFF AND ISZERO ISZERO EQ ISZERO PUSH2 0x1F9 JUMPI PUSH1 0x1 SWAP1 POP PUSH2 0x1FE JUMP JUMPDEST PUSH1 0x0 SWAP1 POP JUMPDEST SWAP2 SWAP1 POP JUMP JUMPDEST PUSH1 0x1 ISZERO ISZERO PUSH1 0x2 PUSH1 0x0 CALLER PUSH20 0xFFFFFFFFFFFFFFFFFFFFFFFFFFFFFFFFFFFFFFFF AND PUSH20 0xFFFFFFFFFFFFFFFFFFFFFFFFFFFFFFFFFFFFFFFF AND DUP2 MSTORE PUSH1 0x20 ADD SWAP1 DUP2 MSTORE PUSH1 0x20 ADD PUSH1 0x0 KECCAK256 PUSH1 0x0 SWAP1 SLOAD SWAP1 PUSH2 0x100 EXP SWAP1 DIV PUSH1 0xFF AND ISZERO ISZERO EQ PUSH2 0x296 JUMPI PUSH1 0x40 MLOAD PUSH32 0x8C379A000000000000000000000000000000000000000000000000000000000 DUP2 MSTORE PUSH1 0x4 ADD PUSH2 0x28D SWAP1 PUSH2 0x10C1 JUMP JUMPDEST PUSH1 0x40 MLOAD DUP1 SWAP2 SUB SWAP1 REVERT JUMPDEST PUSH1 0x0 ISZERO ISZERO PUSH1 0x1 PUSH1 0x0 DUP4 PUSH20 0xFFFFFFFFFFFFFFFFFFFFFFFFFFFFFFFFFFFFFFFF AND PUSH20 0xFFFFFFFFFFFFFFFFFFFFFFFFFFFFFFFFFFFFFFFF AND DUP2 MSTORE PUSH1 0x20 ADD SWAP1 DUP2 MSTORE PUSH1 0x20 ADD PUSH1 0x0 KECCAK256 PUSH1 0x0 SWAP1 SLOAD SWAP1 PUSH2 0x100 EXP SWAP1 POP POP POP CALLER PUSH20 0xFFFFFFFFFFFFFFFFFFFFFFFFFFFFFFFFFFFFFFFF AND DUP2 PUSH20 0xFFFFFFFFFFFFFFFFFFFFFFFFFFFFFFFFFFFFFFFF AND PUSH32 0x2679E492F4112EEE8E3F6DFD8463065D662332A578753F77CE4C3D76C98271FB PUSH1 0x40 MLOAD PUSH1 0x40 MLOAD DUP1 SWAP2 SUB SWAP1 LOG3 POP JUMP JUMPDEST PUSH1 0x1 ISZERO ISZERO PUSH1 0x4 PUSH1 0x0 CALLER PUSH20 0xFFFFFFFFFFFFFFFFFFFFFFFFFFFFFFFFFFFFFFFF AND PUSH20 0xFFFFFFFFFFFFFFFFFFFFFFFFFFFFFFFFFFFFFFFF AND DUP2 MSTORE PUSH1 0x20 ADD SWAP1 DUP2 MSTORE PUSH1 0x20 ADD PUSH1 0x0 KECCAK256 PUSH1 0x0 SWAP1 SLOAD SWAP1 PUSH2 0x100 EXP SWAP1 DIV PUSH1 0xFF AND ISZERO ISZERO EQ PUSH2 0x3D6 JUMPI PUSH1 0x40 MLOAD PUSH32 0x8C379A000000000000000000000000000000000000000000000000000000000 DUP2 MSTORE PUSH1 0x4 ADD PUSH2 0x3CD SWAP1 PUSH2 0xFE1 JUMP JUMPDEST PUSH1 0x40 MLOAD DUP1 SWAP2 SUB SWAP1 REVERT JUMPDEST PUSH1 0x2 PUSH1 0x3 SLOAD PUSH2 0x3E5 SWAP2 SWAP1 PUSH2 0x1186 JUMP JUMPDEST PUSH1 0x6 PUSH1 0x0 DUP4 PUSH20 0xFFFFFFFFFFFFFFFFFFFFFFFFFFFFFFFFFFFFFFFF AND PUSH20 0xFFFFFFFFFFFFFFFFFFFFFFFFFFFFFFFFFFFFFFFF AND DUP2 MSTORE PUSH1 0x20 ADD SWAP1 DUP2 MSTORE PUSH1 0x20 ADD PUSH1 0x0 KECCAK256 PUSH1 0x0 ADD SLOAD SGT PUSH2 0x468 JUMPI PUSH1 0x40 MLOAD PUSH32 0x8C379A000000000000000000000000000000000000000000000000000000000 DUP2 MSTORE PUSH1 0x4 ADD PUSH2 0x45F SWAP1 PUSH2 0xFA1 JUMP JUMPDEST PUSH1 0x40 MLOAD DUP1 SWAP2 SUB SWAP1 REVERT JUMPDEST PUSH1 0x1 PUSH1 0x4 PUSH1 0x0 DUP4 PUSH20 0xFFFFFFFFFFFFFFFFFFFFFFFFFFFFFFFFFFFFFFFF AND PUSH20 0xFFFFFFFFFFFFFFFFFFFFFFFFFFFFFFFFFFFFFFFF AND DUP2 MSTORE PUSH1 0x20 ADD SWAP1 DUP2 MSTORE PUSH1 0x20 ADD PUSH1 0x0 KECCAK256 PUSH1 0x0 PUSH2 0x100 EXP DUP2 SLOAD DUP2 PUSH1 0xFF MUL NOT AND SWAP1 DUP4 ISZERO ISZERO MUL OR SWAP1 SSTORE POP POP JUMP JUMPDEST PUSH1 0x1 ISZERO ISZERO PUSH1 0x2 PUSH1 0x0 CALLER PUSH20 0xFFFFFFFFFFFFFFFFFFFFFFFFFFFFFFFFFFFFFFFF AND PUSH20 0xFFFFFFFFFFFFFFFFFFFFFFFFFFFFFFFFFFFFFFFF AND DUP2 MSTORE PUSH1 0x20 ADD SWAP1 DUP2 MSTORE PUSH1 0x20 ADD PUSH1 0x0 KECCAK256 PUSH1 0x0 SWAP1 SLOAD SWAP1 PUSH2 0x100 EXP SWAP1 DIV PUSH1 0xFF AND ISZERO ISZERO EQ PUSH2 0x556 JUMPI PUSH1 0x40 MLOAD PUSH32 0x8C379A000000000000000000000000000000000000000000000000000000000 DUP2 MSTORE PUSH1 0x4 ADD PUSH2 0x54D SWAP1 PUSH2 0x10C1 JUMP JUMPDEST PUSH1 0x40 MLOAD DUP1 SWAP2 SUB SWAP1 REVERT JUMPDEST PUSH1 0x0 PUSH20 0xFFFFFFFFFFFFFFFFFFFFFFFFFFFFFFFFFFFFFFFF AND DUP2 PUSH20 0xFFFFFFFFFFFFFFFFFFFFFFFFFFFFFFFFFFFFFFFF AND EQ ISZERO PUSH2 0x5C6 JUMPI PUSH1 0x40 MLOAD PUSH32 0x8C379A000000000000000000000000000000000000000000000000000000000 DUP2 MSTORE PUSH1 0x4 ADD PUSH2 0x5BD SWAP1 PUSH2 0x1021 JUMP JUMPDEST PUSH1 0x40 MLOAD DUP1 SWAP2 SUB SWAP1 REVERT JUMPDEST PUSH1 0x1 ISZERO ISZERO PUSH1 0x1 PUSH1 0x0 DUP4 PUSH20 0xFFFFFFFFFFFFFFFFFFFFFFFFFFFFFFFFFFFFFFFF AND PUSH20 0xFFFFFFFFFFFFFFFFFFFFFFFFFFFFFFFFFFFFFFFF AND DUP2 MSTORE PUSH1 0x20 ADD SWAP1 DUP2 MSTORE PUSH1 0x20 ADD PUSH1 0x0 KECCAK256 PUSH1 0x0 SWAP1 SLOAD SWAP1 PUSH2 0x100 EXP SWAP1 DIV PUSH1 0xFF AND ISZERO ISZERO EQ ISZERO PUSH2 0x65A JUMPI PUSH1 0x40 MLOAD PUSH32 0x8C379A000000000000000000000000000000000000000000000000000000000 DUP2 MSTORE PUSH1 0x4 ADD PUSH2 0x651 SWAP1 PUSH2 0x1081 JUMP JUMPDEST PUSH1 0x40 MLOAD DUP1 SWAP2 SUB SWAP1 REVERT JUMPDEST PUSH1 0x1 DUP1 PUSH1 0x0 DUP4 PUSH20 0xFFFFFFFFFFFFFFFFFFFFFFFFFFFFFFFFFFFFFFFF AND PUSH20 0xFFFFFFFFFFFFFFFFFFFFFFFFFFFFFFFFFFFFFFFF AND DUP2 MSTORE PUSH1 0x20 ADD SWAP1 DUP2 MSTORE PUSH1 0x20 ADD PUSH1 0x0 KECCAK256 PUSH1 0x0 PUSH2 0x100 EXP DUP2 SLOAD DUP2 PUSH1 0xFF MUL NOT AND SWAP1 DUP4 ISZERO ISZERO MUL OR SWAP1 SSTORE POP CALLER PUSH20 0xFFFFFFFFFFFFFFFFFFFFFFFFFFFFFFFFFFFFFFFF AND DUP2 PUSH20 0xFFFFFFFFFFFFFFFFFFFFFFFFFFFFFFFFFFFFFFFF AND PUSH32 0x2679E492F4112EEE8E3F6DFD8463065D662332A578753F77CE4C3D76C98271FB PUSH1 0x40 MLOAD PUSH1 0x40 MLOAD DUP1 SWAP2 SUB SWAP1 LOG3 POP JUMP JUMPDEST PUSH1 0x1 ISZERO ISZERO PUSH1 0x4 PUSH1 0x0 CALLER PUSH20 0xFFFFFFFFFFFFFFFFFFFFFFFFFFFFFFFFFFFFFFFF AND PUSH20 0xFFFFFFFFFFFFFFFFFFFFFFFFFFFFFFFFFFFFFFFF AND DUP2 MSTORE PUSH1 0x20 ADD SWAP1 DUP2 MSTORE PUSH1 0x20 ADD PUSH1 0x0 KECCAK256 PUSH1 0x0 SWAP1 SLOAD SWAP1 PUSH2 0x100 EXP SWAP1 DIV PUSH1 0xFF AND ISZERO ISZERO EQ PUSH2 0x7A1 JUMPI PUSH1 0x40 MLOAD PUSH32 0x8C379A000000000000000000000000000000000000000000000000000000000 DUP2 MSTORE PUSH1 0x4 ADD PUSH2 0x798 SWAP1 PUSH2 0xFE1 JUMP JUMPDEST PUSH1 0x40 MLOAD DUP1 SWAP2 SUB SWAP1 REVERT JUMPDEST PUSH1 0x0 ISZERO ISZERO PUSH1 0x4 PUSH1 0x0 DUP4 PUSH20 0xFFFFFFFFFFFFFFFFFFFFFFFFFFFFFFFFFFFFFFFF AND PUSH20 0xFFFFFFFFFFFFFFFFFFFFFFFFFFFFFFFFFFFFFFFF AND DUP2 MSTORE PUSH1 0x20 ADD SWAP1 DUP2 MSTORE PUSH1 0x20 ADD PUSH1 0x0 KECCAK256 PUSH1 0x0 SWAP1 SLOAD SWAP1 PUSH2 0x100 EXP SWAP1 DIV PUSH1 0xFF AND ISZERO ISZERO EQ PUSH2 0x834 JUMPI PUSH1 0x40 MLOAD PUSH32 0x8C379A000000000000000000000000000000000000000000000000000000000 DUP2 MSTORE PUSH1 0x4 ADD PUSH2 0x82B SWAP1 PUSH2 0x1001 JUMP JUMPDEST PUSH1 0x40 MLOAD DUP1 SWAP2 SUB SWAP1 REVERT JUMPDEST PUSH1 0x0 ISZERO ISZERO PUSH1 0x5 PUSH1 0x0 DUP4 PUSH20 0xFFFFFFFFFFFFFFFFFFFFFFFFFFFFFFFFFFFFFFFF AND PUSH20 0xFFFFFFFFFFFFFFFFFFFFFFFFFFFFFFFFFFFFFFFF AND DUP2 MSTORE PUSH1 0x20 ADD SWAP1 DUP2 MSTORE PUSH1 0x20 ADD PUSH1 0x0 KECCAK256 PUSH1 0x0 CALLER PUSH20 0xFFFFFFFFFFFFFFFFFFFFFFFFFFFFFFFFFFFFFFFF AND PUSH20 0xFFFFFFFFFFFFFFFFFFFFFFFFFFFFFFFFFFFFFFFF AND DUP2 MSTORE PUSH1 0x20 ADD SWAP1 DUP2 MSTORE PUSH1 0x20 ADD PUSH1 0x0 KECCAK256 PUSH1 0x0 SWAP1 SLOAD SWAP1 PUSH2 0x100 EXP SWAP1 DIV PUSH1 0xFF AND ISZERO ISZERO EQ PUSH2 0x904 JUMPI PUSH1 0x40 MLOAD PUSH32 0x8C379A000000000000000000000000000000000000000000000000000000000 DUP2 MSTORE PUSH1 0x4 ADD PUSH2 0x8FB SWAP1 PUSH2 0x1061 JUMP JUMPDEST PUSH1 0x40 MLOAD DUP1 SWAP2 SUB SWAP1 REVERT JUMPDEST PUSH1 0x1 PUSH1 0x6 PUSH1 0x0 DUP4 PUSH20 0xFFFFFFFFFFFFFFFFFFFFFFFFFFFFFFFFFFFFFFFF AND PUSH20 0xFFFFFFFFFFFFFFFFFFFFFFFFFFFFFFFFFFFFFFFF AND DUP2 MSTORE PUSH1 0x20 ADD SWAP1 DUP2 MSTORE PUSH1 0x20 ADD PUSH1 0x0 KECCAK256 PUSH1 0x0 ADD PUSH1 0x0 DUP3 DUP3 SLOAD PUSH2 0x957 SWAP2 SWAP1 PUSH2 0x10F2 JUMP JUMPDEST SWAP3 POP POP DUP2 SWAP1 SSTORE POP PUSH1 0x1 PUSH1 0x5 PUSH1 0x0 DUP4 PUSH20 0xFFFFFFFFFFFFFFFFFFFFFFFFFFFFFFFFFFFFFFFF AND PUSH20 0xFFFFFFFFFFFFFFFFFFFFFFFFFFFFFFFFFFFFFFFF AND DUP2 MSTORE PUSH1 0x20 ADD SWAP1 DUP2 MSTORE PUSH1 0x20 ADD PUSH1 0x0 KECCAK256 PUSH1 0x0 CALLER PUSH20 0xFFFFFFFFFFFFFFFFFFFFFFFFFFFFFFFFFFFFFFFF AND PUSH20 0xFFFFFFFFFFFFFFFFFFFFFFFFFFFFFFFFFFFFFFFF AND DUP2 MSTORE PUSH1 0x20 ADD SWAP1 DUP2 MSTORE PUSH1 0x20 ADD PUSH1 0x0 KECCAK256 PUSH1 0x0 PUSH2 0x100 EXP DUP2 SLOAD DUP2 PUSH1 0xFF MUL NOT AND SWAP1 DUP4 ISZERO ISZERO MUL OR SWAP1 SSTORE POP POP JUMP JUMPDEST PUSH1 0x1 ISZERO ISZERO PUSH1 0x4 PUSH1 0x0 CALLER PUSH20 0xFFFFFFFFFFFFFFFFFFFFFFFFFFFFFFFFFFFFFFFF AND PUSH20 0xFFFFFFFFFFFFFFFFFFFFFFFFFFFFFFFFFFFFFFFF AND DUP2 MSTORE PUSH1 0x20 ADD SWAP1 DUP2 MSTORE PUSH1 0x20 ADD PUSH1 0x0 KECCAK256 PUSH1 0x0 SWAP1 SLOAD SWAP1 PUSH2 0x100 EXP SWAP1 DIV PUSH1 0xFF AND ISZERO ISZERO EQ PUSH2 0xA89 JUMPI PUSH1 0x40 MLOAD PUSH32 0x8C379A000000000000000000000000000000000000000000000000000000000 DUP2 MSTORE PUSH1 0x4 ADD PUSH2 0xA80 SWAP1 PUSH2 0xFE1 JUMP JUMPDEST PUSH1 0x40 MLOAD DUP1 SWAP2 SUB SWAP1 REVERT JUMPDEST PUSH1 0x0 PUSH20 0xFFFFFFFFFFFFFFFFFFFFFFFFFFFFFFFFFFFFFFFF AND DUP2 PUSH20 0xFFFFFFFFFFFFFFFFFFFFFFFFFFFFFFFFFFFFFFFF AND EQ ISZERO PUSH2 0xAF9 JUMPI PUSH1 0x40 MLOAD PUSH32 0x8C379A000000000000000000000000000000000000000000000000000000000 DUP2 MSTORE PUSH1 0x4 ADD PUSH2 0xAF0 SWAP1 PUSH2 0x10A1 JUMP JUMPDEST PUSH1 0x40 MLOAD DUP1 SWAP2 SUB SWAP1 REVERT JUMPDEST PUSH1 0x1 ISZERO ISZERO PUSH1 0x2 PUSH1 0x0 DUP4 PUSH20 0xFFFFFFFFFFFFFFFFFFFFFFFFFFFFFFFFFFFFFFFF AND PUSH20 0xFFFFFFFFFFFFFFFFFFFFFFFFFFFFFFFFFFFFFFFF AND DUP2 MSTORE PUSH1 0x20 ADD SWAP1 DUP2 MSTORE PUSH1 0x20 ADD PUSH1 0x0 KECCAK256 PUSH1 0x0 SWAP1 SLOAD SWAP1 PUSH2 0x100 EXP SWAP1 DIV PUSH1 0xFF AND ISZERO ISZERO EQ ISZERO PUSH2 0xB8D JUMPI PUSH1 0x40 MLOAD PUSH32 0x8C379A000000000000000000000000000000000000000000000000000000000 DUP2 MSTORE PUSH1 0x4 ADD PUSH2 0xB84 SWAP1 PUSH2 0x1041 JUMP JUMPDEST PUSH1 0x40 MLOAD DUP1 SWAP2 SUB SWAP1 REVERT JUMPDEST PUSH1 0x1 PUSH1 0x2 PUSH1 0x0 DUP4 PUSH20 0xFFFFFFFFFFFFFFFFFFFFFFFFFFFFFFFFFFFFFFFF AND PUSH20 0xFFFFFFFFFFFFFFFFFFFFFFFFFFFFFFFFFFFFFFFF AND DUP2 MSTORE PUSH1 0x20 ADD SWAP1 DUP2 MSTORE PUSH1 0x20 ADD PUSH1 0x0 KECCAK256 PUSH1 0x0 PUSH2 0x100 EXP DUP2 SLOAD DUP2 PUSH1 0xFF MUL NOT AND SWAP1 DUP4 ISZERO ISZERO MUL OR SWAP1 SSTORE POP POP JUMP JUMPDEST PUSH1 0x0 PUSH1 0x1 ISZERO ISZERO PUSH1 0x1 PUSH1 0x0 DUP5 PUSH20 0xFFFFFFFFFFFFFFFFFFFFFFFFFFFFFFFFFFFFFFFF AND PUSH20 0xFFFFFFFFFFFFFFFFFFFFFFFFFFFFFFFFFFFFFFFF AND DUP2 MSTORE PUSH1 0x20 ADD SWAP1 DUP2 MSTORE PUSH1 0x20 ADD PUSH1 0x0 KECCAK256 PUSH1 0x0 SWAP1 SLOAD SWAP1 PUSH2 0x100 EXP SWAP1 DIV PUSH1 0xFF AND ISZERO ISZERO EQ ISZERO PUSH2 0xC4C JUMPI PUSH1 0x1 SWAP1 POP PUSH2 0xC51 JUMP JUMPDEST PUSH1 0x0 SWAP1 POP JUMPDEST SWAP2 SWAP1 POP JUMP JUMPDEST PUSH1 0x1 ISZERO ISZERO PUSH1 0x4 PUSH1 0x0 CALLER PUSH20 0xFFFFFFFFFFFFFFFFFFFFFFFFFFFFFFFFFFFFFFFF AND PUSH20 0xFFFFFFFFFFFFFFFFFFFFFFFFFFFFFFFFFFFFFFFF AND DUP2 MSTORE PUSH1 0x20 ADD SWAP1 DUP2 MSTORE PUSH1 0x20 ADD PUSH1 0x0 KECCAK256 PUSH1 0x0 SWAP1 SLOAD SWAP1 PUSH2 0x100 EXP SWAP1 DIV PUSH1 0xFF AND ISZERO ISZERO EQ PUSH2 0xCE9 JUMPI PUSH1 0x40 MLOAD PUSH32 0x8C379A000000000000000000000000000000000000000000000000000000000 DUP2 MSTORE PUSH1 0x4 ADD PUSH2 0xCE0 SWAP1 PUSH2 0xFE1 JUMP JUMPDEST PUSH1 0x40 MLOAD DUP1 SWAP2 SUB SWAP1 REVERT JUMPDEST PUSH1 0x1 ISZERO ISZERO PUSH1 0x2 PUSH1 0x0 DUP4 PUSH20 0xFFFFFFFFFFFFFFFFFFFFFFFFFFFFFFFFFFFFFFFF AND PUSH20 0xFFFFFFFFFFFFFFFFFFFFFFFFFFFFFFFFFFFFFFFF AND DUP2 MSTORE PUSH1 0x20 ADD SWAP1 DUP2 MSTORE PUSH1 0x20 ADD PUSH1 0x0 KECCAK256 PUSH1 0x0 SWAP1 SLOAD SWAP1 PUSH2 0x100 EXP SWAP1 DIV PUSH1 0xFF AND ISZERO ISZERO EQ PUSH2 0xD7C JUMPI PUSH1 0x40 MLOAD PUSH32 0x8C379A000000000000000000000000000000000000000000000000000000000 DUP2 MSTORE PUSH1 0x4 ADD PUSH2 0xD73 SWAP1 PUSH2 0xFC1 JUMP JUMPDEST PUSH1 0x40 MLOAD DUP1 SWAP2 SUB SWAP1 REVERT JUMPDEST PUSH1 0x0 PUSH1 0x2 PUSH1 0x0 DUP4 PUSH20 0xFFFFFFFFFFFFFFFFFFFFFFFFFFFFFFFFFFFFFFFF AND PUSH20 0xFFFFFFFFFFFFFFFFFFFFFFFFFFFFFFFFFFFFFFFF AND DUP2 MSTORE PUSH1 0x20 ADD SWAP1 DUP2 MSTORE PUSH1 0x20 ADD PUSH1 0x0 KECCAK256 PUSH1 0x0 PUSH2 0x100 EXP DUP2 SLOAD DUP2 PUSH1 0xFF MUL NOT AND SWAP1 DUP4 ISZERO ISZERO MUL OR SWAP1 SSTORE POP POP JUMP JUMPDEST PUSH1 0x0 DUP2 CALLDATALOAD SWAP1 POP PUSH2 0xDE6 DUP2 PUSH2 0x14CD JUMP JUMPDEST SWAP3 SWAP2 POP POP JUMP JUMPDEST PUSH1 0x0 PUSH1 0x20 DUP3 DUP5 SUB SLT ISZERO PUSH2 0xE02 JUMPI PUSH2 0xE01 PUSH2 0x1296 JUMP JUMPDEST JUMPDEST PUSH1 0x0 PUSH2 0xE10 DUP5 DUP3 DUP6 ADD PUSH2 0xDD7 JUMP JUMPDEST SWAP2 POP POP SWAP3 SWAP2 POP POP JUMP JUMPDEST PUSH2 0xE22 DUP2 PUSH2 0x1202 JUMP JUMPDEST DUP3 MSTORE POP POP JUMP JUMPDEST PUSH1 0x0 PUSH2 0xE35 PUSH1 0x24 DUP4 PUSH2 0x10E1 JUMP JUMPDEST SWAP2 POP PUSH2 0xE40 DUP3 PUSH2 0x129B JUMP JUMPDEST PUSH1 0x40 DUP3 ADD SWAP1 POP SWAP2 SWAP1 POP JUMP JUMPDEST PUSH1 0x0 PUSH2 0xE58 PUSH1 0x37 DUP4 PUSH2 0x10E1 JUMP JUMPDEST SWAP2 POP PUSH2 0xE63 DUP3 PUSH2 0x12EA JUMP JUMPDEST PUSH1 0x40 DUP3 ADD SWAP1 POP SWAP2 SWAP1 POP JUMP JUMPDEST PUSH1 0x0 PUSH2 0xE7B PUSH1 0x14 DUP4 PUSH2 0x10E1 JUMP JUMPDEST SWAP2 POP PUSH2 0xE86 DUP3 PUSH2 0x1339 JUMP JUMPDEST PUSH1 0x20 DUP3 ADD SWAP1 POP SWAP2 SWAP1 POP JUMP JUMPDEST PUSH1 0x0 PUSH2 0xE9E PUSH1 0x21 DUP4 PUSH2 0x10E1 JUMP JUMPDEST SWAP2 POP PUSH2 0xEA9 DUP3 PUSH2 0x1362 JUMP JUMPDEST PUSH1 0x40 DUP3 ADD SWAP1 POP SWAP2 SWAP1 POP JUMP JUMPDEST PUSH1 0x0 PUSH2 0xEC1 PUSH1 0x1E DUP4 PUSH2 0x10E1 JUMP JUMPDEST SWAP2 POP PUSH2 0xECC DUP3 PUSH2 0x13B1 JUMP JUMPDEST PUSH1 0x20 DUP3 ADD SWAP1 POP SWAP2 SWAP1 POP JUMP JUMPDEST PUSH1 0x0 PUSH2 0xEE4 PUSH1 0x1E DUP4 PUSH2 0x10E1 JUMP JUMPDEST SWAP2 POP PUSH2 0xEEF DUP3 PUSH2 0x13DA JUMP JUMPDEST PUSH1 0x20 DUP3 ADD SWAP1 POP SWAP2 SWAP1 POP JUMP JUMPDEST PUSH1 0x0 PUSH2 0xF07 PUSH1 0x14 DUP4 PUSH2 0x10E1 JUMP JUMPDEST SWAP2 POP PUSH2 0xF12 DUP3 PUSH2 0x1403 JUMP JUMPDEST PUSH1 0x20 DUP3 ADD SWAP1 POP SWAP2 SWAP1 POP JUMP JUMPDEST PUSH1 0x0 PUSH2 0xF2A PUSH1 0x1B DUP4 PUSH2 0x10E1 JUMP JUMPDEST SWAP2 POP PUSH2 0xF35 DUP3 PUSH2 0x142C JUMP JUMPDEST PUSH1 0x20 DUP3 ADD SWAP1 POP SWAP2 SWAP1 POP JUMP JUMPDEST PUSH1 0x0 PUSH2 0xF4D PUSH1 0x21 DUP4 PUSH2 0x10E1 JUMP JUMPDEST SWAP2 POP PUSH2 0xF58 DUP3 PUSH2 0x1455 JUMP JUMPDEST PUSH1 0x40 DUP3 ADD SWAP1 POP SWAP2 SWAP1 POP JUMP JUMPDEST PUSH1 0x0 PUSH2 0xF70 PUSH1 0x16 DUP4 PUSH2 0x10E1 JUMP JUMPDEST SWAP2 POP PUSH2 0xF7B DUP3 PUSH2 0x14A4 JUMP JUMPDEST PUSH1 0x20 DUP3 ADD SWAP1 POP SWAP2 SWAP1 POP JUMP JUMPDEST PUSH1 0x0 PUSH1 0x20 DUP3 ADD SWAP1 POP PUSH2 0xF9B PUSH1 0x0 DUP4 ADD DUP5 PUSH2 0xE19 JUMP JUMPDEST SWAP3 SWAP2 POP POP JUMP JUMPDEST PUSH1 0x0 PUSH1 0x20 DUP3 ADD SWAP1 POP DUP2 DUP2 SUB PUSH1 0x0 DUP4 ADD MSTORE PUSH2 0xFBA DUP2 PUSH2 0xE28 JUMP JUMPDEST SWAP1 POP SWAP2 SWAP1 POP JUMP JUMPDEST PUSH1 0x0 PUSH1 0x20 DUP3 ADD SWAP1 POP DUP2 DUP2 SUB PUSH1 0x0 DUP4 ADD MSTORE PUSH2 0xFDA DUP2 PUSH2 0xE4B JUMP JUMPDEST SWAP1 POP SWAP2 SWAP1 POP JUMP JUMPDEST PUSH1 0x0 PUSH1 0x20 DUP3 ADD SWAP1 POP DUP2 DUP2 SUB PUSH1 0x0 DUP4 ADD MSTORE PUSH2 0xFFA DUP2 PUSH2 0xE6E JUMP JUMPDEST SWAP1 POP SWAP2 SWAP1 POP JUMP JUMPDEST PUSH1 0x0 PUSH1 0x20 DUP3 ADD SWAP1 POP DUP2 DUP2 SUB PUSH1 0x0 DUP4 ADD MSTORE PUSH2 0x101A DUP2 PUSH2 0xE91 JUMP JUMPDEST SWAP1 POP SWAP2 SWAP1 POP JUMP JUMPDEST PUSH1 0x0 PUSH1 0x20 DUP3 ADD SWAP1 POP DUP2 DUP2 SUB PUSH1 0x0 DUP4 ADD MSTORE PUSH2 0x103A DUP2 PUSH2 0xEB4 JUMP JUMPDEST SWAP1 POP SWAP2 SWAP1 POP JUMP JUMPDEST PUSH1 0x0 PUSH1 0x20 DUP3 ADD SWAP1 POP DUP2 DUP2 SUB PUSH1 0x0 DUP4 ADD MSTORE PUSH2 0x105A DUP2 PUSH2 0xED7 JUMP JUMPDEST SWAP1 POP SWAP2 SWAP1 POP JUMP JUMPDEST PUSH1 0x0 PUSH1 0x20 DUP3 ADD SWAP1 POP DUP2 DUP2 SUB PUSH1 0x0 DUP4 ADD MSTORE PUSH2 0x107A DUP2 PUSH2 0xEFA JUMP JUMPDEST SWAP1 POP SWAP2 SWAP1 POP JUMP JUMPDEST PUSH1 0x0 PUSH1 0x20 DUP3 ADD SWAP1 POP DUP2 DUP2 SUB PUSH1 0x0 DUP4 ADD MSTORE PUSH2 0x109A DUP2 PUSH2 0xF1D JUMP JUMPDEST SWAP1 POP SWAP2 SWAP1 POP JUMP JUMPDEST PUSH1 0x0 PUSH1 0x20 DUP3 ADD SWAP1 POP DUP2 DUP2 SUB PUSH1 0x0 DUP4 ADD MSTORE PUSH2 0x10BA DUP2 PUSH2 0xF40 JUMP JUMPDEST SWAP1 POP SWAP2 SWAP1 POP JUMP JUMPDEST PUSH1 0x0 PUSH1 0x20 DUP3 ADD SWAP1 POP DUP2 DUP2 SUB PUSH1 0x0 DUP4 ADD MSTORE PUSH2 0x10DA DUP2 PUSH2 0xF63 JUMP JUMPDEST SWAP1 POP SWAP2 SWAP1 POP JUMP JUMPDEST PUSH1 0x0 DUP3 DUP3 MSTORE PUSH1 0x20 DUP3 ADD SWAP1 POP SWAP3 SWAP2 POP POP JUMP JUMPDEST PUSH1 0x0 PUSH2 0x10FD DUP3 PUSH2 0x120E JUMP JUMPDEST SWAP2 POP PUSH2 0x1108 DUP4 PUSH2 0x120E JUMP JUMPDEST SWAP3 POP DUP2 PUSH32 0x7FFFFFFFFFFFFFFFFFFFFFFFFFFFFFFFFFFFFFFFFFFFFFFFFFFFFFFFFFFFFFFF SUB DUP4 SGT PUSH1 0x0 DUP4 SLT ISZERO AND ISZERO PUSH2 0x1143 JUMPI PUSH2 0x1142 PUSH2 0x1238 JUMP JUMPDEST JUMPDEST DUP2 PUSH32 0x8000000000000000000000000000000000000000000000000000000000000000 SUB DUP4 SLT PUSH1 0x0 DUP4 SLT AND ISZERO PUSH2 0x117B JUMPI PUSH2 0x117A PUSH2 0x1238 JUMP JUMPDEST JUMPDEST DUP3 DUP3 ADD SWAP1 POP SWAP3 SWAP2 POP POP JUMP JUMPDEST PUSH1 0x0 PUSH2 0x1191 DUP3 PUSH2 0x120E JUMP JUMPDEST SWAP2 POP PUSH2 0x119C DUP4 PUSH2 0x120E JUMP JUMPDEST SWAP3 POP DUP3 PUSH2 0x11AC JUMPI PUSH2 0x11AB PUSH2 0x1267 JUMP JUMPDEST JUMPDEST PUSH1 0x1 PUSH1 0x0 SUB DUP4 EQ PUSH32 0x8000000000000000000000000000000000000000000000000000000000000000 DUP4 EQ AND ISZERO PUSH2 0x11E5 JUMPI PUSH2 0x11E4 PUSH2 0x1238 JUMP JUMPDEST JUMPDEST DUP3 DUP3 SDIV SWAP1 POP SWAP3 SWAP2 POP POP JUMP JUMPDEST PUSH1 0x0 PUSH2 0x11FB DUP3 PUSH2 0x1218 JUMP JUMPDEST SWAP1 POP SWAP2 SWAP1 POP JUMP JUMPDEST PUSH1 0x0 DUP2 ISZERO ISZERO SWAP1 POP SWAP2 SWAP1 POP JUMP JUMPDEST PUSH1 0x0 DUP2 SWAP1 POP SWAP2 SWAP1 POP JUMP JUMPDEST PUSH1 0x0 PUSH20 0xFFFFFFFFFFFFFFFFFFFFFFFFFFFFFFFFFFFFFFFF DUP3 AND SWAP1 POP SWAP2 SWAP1 POP JUMP JUMPDEST PUSH32 0x4E487B7100000000000000000000000000000000000000000000000000000000 PUSH1 0x0 MSTORE PUSH1 0x11 PUSH1 0x4 MSTORE PUSH1 0x24 PUSH1 0x0 REVERT JUMPDEST PUSH32 0x4E487B7100000000000000000000000000000000000000000000000000000000 PUSH1 0x0 MSTORE PUSH1 0x12 PUSH1 0x4 MSTORE PUSH1 0x24 PUSH1 0x0 REVERT JUMPDEST PUSH1 0x0 DUP1 REVERT JUMPDEST PUSH32 0x4D616A6F72697479206E6F7420616368696576656420746F2061646420616464 PUSH1 0x0 DUP3 ADD MSTORE PUSH32 0x7265737300000000000000000000000000000000000000000000000000000000 PUSH1 0x20 DUP3 ADD MSTORE POP JUMP JUMPDEST PUSH32 0x43616E6E6F742072656D6F766520616E20616464726573732074686174206973 PUSH1 0x0 DUP3 ADD MSTORE PUSH32 0x206E6F7420616C72656164792061207665726966696572000000000000000000 PUSH1 0x20 DUP3 ADD MSTORE POP JUMP JUMPDEST PUSH32 0x596F7520617265206E6F7420616E2061646D696E000000000000000000000000 PUSH1 0x0 DUP3 ADD MSTORE POP JUMP JUMPDEST PUSH32 0x546869732061646D696E2068617320616C7265616479206265656E2061646465 PUSH1 0x0 DUP3 ADD MSTORE PUSH32 0x6400000000000000000000000000000000000000000000000000000000000000 PUSH1 0x20 DUP3 ADD MSTORE POP JUMP JUMPDEST PUSH32 0x43616E6E6F742076657269667920746865207A65726F20616464726573730000 PUSH1 0x0 DUP3 ADD MSTORE POP JUMP JUMPDEST PUSH32 0x4164647265737320697320616C72656164792061207665726966696665720000 PUSH1 0x0 DUP3 ADD MSTORE POP JUMP JUMPDEST PUSH32 0x596F7527766520616C726561647920766F746564000000000000000000000000 PUSH1 0x0 DUP3 ADD MSTORE POP JUMP JUMPDEST PUSH32 0x4164647265737320697320616C72656164792076657269666965640000000000 PUSH1 0x0 DUP3 ADD MSTORE POP JUMP JUMPDEST PUSH32 0x5A65726F20616464726573732063616E6E6F7420626520612076657269666965 PUSH1 0x0 DUP3 ADD MSTORE PUSH32 0x7200000000000000000000000000000000000000000000000000000000000000 PUSH1 0x20 DUP3 ADD MSTORE POP JUMP JUMPDEST PUSH32 0x596F7520617265206E6F74206120766572696669657200000000000000000000 PUSH1 0x0 DUP3 ADD MSTORE POP JUMP JUMPDEST PUSH2 0x14D6 DUP2 PUSH2 0x11F0 JUMP JUMPDEST DUP2 EQ PUSH2 0x14E1 JUMPI PUSH1 0x0 DUP1 REVERT JUMPDEST POP JUMP INVALID LOG2 PUSH5 0x6970667358 0x22 SLT KECCAK256 PUSH23 0x3C76DD8DFD8A94B6F7D80EC843849992456169DDD540FD DUP8 GT EXTCODESIZE PUSH32 0x64CD2D6C64736F6C634300080700330000000000000000000000000000000000 "
				},
				"gasEstimates": {
					"creation": {
						"codeDepositCost": "1080400",
						"executionCost": "infinite",
						"totalCost": "infinite"
					},
					"external": {
						"addVerified(address)": "30985",
						"addVerifier(address)": "29396",
						"executeAdd(address)": "infinite",
						"isVerified(address)": "2976",
						"isVerifier(address)": "2933",
						"removeVerified(address)": "6515",
						"removeVerifier(address)": "29399",
						"voteToAdd(address)": "infinite"
					}
				},
				"methodIdentifiers": {
					"addVerified(address)": "5dc84e32",
					"addVerifier(address)": "9000b3d6",
					"executeAdd(address)": "47053b59",
					"isVerified(address)": "b9209e33",
					"isVerifier(address)": "33105218",
					"removeVerified(address)": "4487b392",
					"removeVerifier(address)": "ca2dfd0a",
					"voteToAdd(address)": "69596d70"
				}
			},
			"storageLayout": {
				"storage": [
					{
						"astId": 138,
						"contract": "contracts/complex_verify.sol:ComplexVerifty",
						"label": "admin",
						"offset": 0,
						"slot": "0",
						"type": "t_address"
					},
					{
						"astId": 142,
						"contract": "contracts/complex_verify.sol:ComplexVerifty",
						"label": "verifiedAddresses",
						"offset": 0,
						"slot": "1",
						"type": "t_mapping(t_address,t_bool)"
					},
					{
						"astId": 146,
						"contract": "contracts/complex_verify.sol:ComplexVerifty",
						"label": "verifiers",
						"offset": 0,
						"slot": "2",
						"type": "t_mapping(t_address,t_bool)"
					},
					{
						"astId": 15,
						"contract": "contracts/complex_verify.sol:ComplexVerifty",
						"label": "totalAdmins",
						"offset": 0,
						"slot": "3",
						"type": "t_int256"
					},
					{
						"astId": 19,
						"contract": "contracts/complex_verify.sol:ComplexVerifty",
						"label": "admins",
						"offset": 0,
						"slot": "4",
						"type": "t_mapping(t_address,t_bool)"
					},
					{
						"astId": 25,
						"contract": "contracts/complex_verify.sol:ComplexVerifty",
						"label": "hasVoted",
						"offset": 0,
						"slot": "5",
						"type": "t_mapping(t_address,t_mapping(t_address,t_bool))"
					},
					{
						"astId": 30,
						"contract": "contracts/complex_verify.sol:ComplexVerifty",
						"label": "voteCount",
						"offset": 0,
						"slot": "6",
						"type": "t_mapping(t_address,t_struct(Votes)13_storage)"
					}
				],
				"types": {
					"t_address": {
						"encoding": "inplace",
						"label": "address",
						"numberOfBytes": "20"
					},
					"t_bool": {
						"encoding": "inplace",
						"label": "bool",
						"numberOfBytes": "1"
					},
					"t_int256": {
						"encoding": "inplace",
						"label": "int256",
						"numberOfBytes": "32"
					},
					"t_mapping(t_address,t_bool)": {
						"encoding": "mapping",
						"key": "t_address",
						"label": "mapping(address => bool)",
						"numberOfBytes": "32",
						"value": "t_bool"
					},
					"t_mapping(t_address,t_mapping(t_address,t_bool))": {
						"encoding": "mapping",
						"key": "t_address",
						"label": "mapping(address => mapping(address => bool))",
						"numberOfBytes": "32",
						"value": "t_mapping(t_address,t_bool)"
					},
					"t_mapping(t_address,t_struct(Votes)13_storage)": {
						"encoding": "mapping",
						"key": "t_address",
						"label": "mapping(address => struct ComplexVerifty.Votes)",
						"numberOfBytes": "32",
						"value": "t_struct(Votes)13_storage"
					},
					"t_struct(Votes)13_storage": {
						"encoding": "inplace",
						"label": "struct ComplexVerifty.Votes",
						"members": [
							{
								"astId": 10,
								"contract": "contracts/complex_verify.sol:ComplexVerifty",
								"label": "add",
								"offset": 0,
								"slot": "0",
								"type": "t_int256"
							},
							{
								"astId": 12,
								"contract": "contracts/complex_verify.sol:ComplexVerifty",
								"label": "remove",
								"offset": 0,
								"slot": "1",
								"type": "t_int256"
							}
						],
						"numberOfBytes": "64"
					}
				}
			},
			"userdoc": {
				"kind": "user",
				"methods": {},
				"version": 1
			}
		}
	}
}