{
	"contracts/simple_verify.sol": {
		"Verify": {
			"abi": [
				{
					"inputs": [
						{
							"internalType": "address",
							"name": "first_admin",
							"type": "address"
						}
					],
					"stateMutability": "nonpayable",
					"type": "constructor"
				},
				{
					"anonymous": false,
					"inputs": [
						{
							"indexed": true,
							"internalType": "address",
							"name": "addr",
							"type": "address"
						},
						{
							"indexed": true,
							"internalType": "address",
							"name": "sender",
							"type": "address"
						}
					],
					"name": "VerifiedAddressAdded",
					"type": "event"
				},
				{
					"anonymous": false,
					"inputs": [
						{
							"indexed": true,
							"internalType": "address",
							"name": "addr",
							"type": "address"
						},
						{
							"indexed": true,
							"internalType": "address",
							"name": "sender",
							"type": "address"
						}
					],
					"name": "VerifiedAddressRemoved",
					"type": "event"
				},
				{
					"anonymous": false,
					"inputs": [
						{
							"indexed": true,
							"internalType": "address",
							"name": "original",
							"type": "address"
						},
						{
							"indexed": true,
							"internalType": "address",
							"name": "replacement",
							"type": "address"
						},
						{
							"indexed": true,
							"internalType": "address",
							"name": "sender",
							"type": "address"
						}
					],
					"name": "VerifiedAddressSuperseded",
					"type": "event"
				},
				{
					"inputs": [
						{
							"internalType": "address",
							"name": "addr",
							"type": "address"
						}
					],
					"name": "addVerified",
					"outputs": [],
					"stateMutability": "nonpayable",
					"type": "function"
				},
				{
					"inputs": [
						{
							"internalType": "address",
							"name": "addr",
							"type": "address"
						}
					],
					"name": "addVerifier",
					"outputs": [],
					"stateMutability": "nonpayable",
					"type": "function"
				},
				{
					"inputs": [
						{
							"internalType": "address",
							"name": "addr",
							"type": "address"
						}
					],
					"name": "isVerified",
					"outputs": [
						{
							"internalType": "bool",
							"name": "",
							"type": "bool"
						}
					],
					"stateMutability": "view",
					"type": "function"
				},
				{
					"inputs": [
						{
							"internalType": "address",
							"name": "addr",
							"type": "address"
						}
					],
					"name": "isVerifier",
					"outputs": [
						{
							"internalType": "bool",
							"name": "",
							"type": "bool"
						}
					],
					"stateMutability": "view",
					"type": "function"
				},
				{
					"inputs": [
						{
							"internalType": "address",
							"name": "addr",
							"type": "address"
						}
					],
					"name": "removeVerified",
					"outputs": [],
					"stateMutability": "nonpayable",
					"type": "function"
				},
				{
					"inputs": [
						{
							"internalType": "address",
							"name": "addr",
							"type": "address"
						}
					],
					"name": "removeVerifier",
					"outputs": [],
					"stateMutability": "nonpayable",
					"type": "function"
				}
			],
			"devdoc": {
				"kind": "dev",
				"methods": {
					"addVerified(address)": {
						"details": "Adds verified address to the contract."
					},
					"addVerifier(address)": {
						"details": "Add verifier to the contract."
					},
					"isVerified(address)": {
						"details": "Checks if a address is verified"
					},
					"isVerifier(address)": {
						"details": "Checks if an address is a verifier"
					},
					"removeVerified(address)": {
						"details": "Removes verified address from the contract."
					},
					"removeVerifier(address)": {
						"details": "Remove verifier from the contract."
					}
				},
				"version": 1
			},
			"evm": {
				"assembly": "    /* \"contracts/simple_verify.sol\":70:2898  contract Verify {... */\n  mstore(0x40, 0x80)\n    /* \"contracts/simple_verify.sol\":224:293  constructor(address first_admin) {... */\n  callvalue\n  dup1\n  iszero\n  tag_1\n  jumpi\n  0x00\n  dup1\n  revert\ntag_1:\n  pop\n  mload(0x40)\n  sub(codesize, bytecodeSize)\n  dup1\n  bytecodeSize\n  dup4\n  codecopy\n  dup2\n  dup2\n  add\n  0x40\n  mstore\n  dup2\n  add\n  swap1\n  tag_2\n  swap2\n  swap1\n  tag_3\n  jump\t// in\ntag_2:\n    /* \"contracts/simple_verify.sol\":275:286  first_admin */\n  dup1\n    /* \"contracts/simple_verify.sol\":267:272  admin */\n  0x00\n  dup1\n    /* \"contracts/simple_verify.sol\":267:286  admin = first_admin */\n  0x0100\n  exp\n  dup2\n  sload\n  dup2\n  0xffffffffffffffffffffffffffffffffffffffff\n  mul\n  not\n  and\n  swap1\n  dup4\n  0xffffffffffffffffffffffffffffffffffffffff\n  and\n  mul\n  or\n  swap1\n  sstore\n  pop\n    /* \"contracts/simple_verify.sol\":224:293  constructor(address first_admin) {... */\n  pop\n    /* \"contracts/simple_verify.sol\":70:2898  contract Verify {... */\n  jump(tag_6)\n    /* \"#utility.yul\":7:150   */\ntag_8:\n    /* \"#utility.yul\":64:69   */\n  0x00\n    /* \"#utility.yul\":95:101   */\n  dup2\n    /* \"#utility.yul\":89:102   */\n  mload\n    /* \"#utility.yul\":80:102   */\n  swap1\n  pop\n    /* \"#utility.yul\":111:144   */\n  tag_10\n    /* \"#utility.yul\":138:143   */\n  dup2\n    /* \"#utility.yul\":111:144   */\n  tag_11\n  jump\t// in\ntag_10:\n    /* \"#utility.yul\":7:150   */\n  swap3\n  swap2\n  pop\n  pop\n  jump\t// out\n    /* \"#utility.yul\":156:507   */\ntag_3:\n    /* \"#utility.yul\":226:232   */\n  0x00\n    /* \"#utility.yul\":275:277   */\n  0x20\n    /* \"#utility.yul\":263:272   */\n  dup3\n    /* \"#utility.yul\":254:261   */\n  dup5\n    /* \"#utility.yul\":250:273   */\n  sub\n    /* \"#utility.yul\":246:278   */\n  slt\n    /* \"#utility.yul\":243:362   */\n  iszero\n  tag_13\n  jumpi\n    /* \"#utility.yul\":281:360   */\n  tag_14\n  tag_15\n  jump\t// in\ntag_14:\n    /* \"#utility.yul\":243:362   */\ntag_13:\n    /* \"#utility.yul\":401:402   */\n  0x00\n    /* \"#utility.yul\":426:490   */\n  tag_16\n    /* \"#utility.yul\":482:489   */\n  dup5\n    /* \"#utility.yul\":473:479   */\n  dup3\n    /* \"#utility.yul\":462:471   */\n  dup6\n    /* \"#utility.yul\":458:480   */\n  add\n    /* \"#utility.yul\":426:490   */\n  tag_8\n  jump\t// in\ntag_16:\n    /* \"#utility.yul\":416:490   */\n  swap2\n  pop\n    /* \"#utility.yul\":372:500   */\n  pop\n    /* \"#utility.yul\":156:507   */\n  swap3\n  swap2\n  pop\n  pop\n  jump\t// out\n    /* \"#utility.yul\":594:690   */\ntag_19:\n    /* \"#utility.yul\":631:638   */\n  0x00\n    /* \"#utility.yul\":660:684   */\n  tag_21\n    /* \"#utility.yul\":678:683   */\n  dup3\n    /* \"#utility.yul\":660:684   */\n  tag_22\n  jump\t// in\ntag_21:\n    /* \"#utility.yul\":649:684   */\n  swap1\n  pop\n    /* \"#utility.yul\":594:690   */\n  swap2\n  swap1\n  pop\n  jump\t// out\n    /* \"#utility.yul\":696:822   */\ntag_22:\n    /* \"#utility.yul\":733:740   */\n  0x00\n    /* \"#utility.yul\":773:815   */\n  0xffffffffffffffffffffffffffffffffffffffff\n    /* \"#utility.yul\":766:771   */\n  dup3\n    /* \"#utility.yul\":762:816   */\n  and\n    /* \"#utility.yul\":751:816   */\n  swap1\n  pop\n    /* \"#utility.yul\":696:822   */\n  swap2\n  swap1\n  pop\n  jump\t// out\n    /* \"#utility.yul\":951:1068   */\ntag_15:\n    /* \"#utility.yul\":1060:1061   */\n  0x00\n    /* \"#utility.yul\":1057:1058   */\n  dup1\n    /* \"#utility.yul\":1050:1062   */\n  revert\n    /* \"#utility.yul\":1074:1196   */\ntag_11:\n    /* \"#utility.yul\":1147:1171   */\n  tag_28\n    /* \"#utility.yul\":1165:1170   */\n  dup2\n    /* \"#utility.yul\":1147:1171   */\n  tag_19\n  jump\t// in\ntag_28:\n    /* \"#utility.yul\":1140:1145   */\n  dup2\n    /* \"#utility.yul\":1137:1172   */\n  eq\n    /* \"#utility.yul\":1127:1190   */\n  tag_29\n  jumpi\n    /* \"#utility.yul\":1186:1187   */\n  0x00\n    /* \"#utility.yul\":1183:1184   */\n  dup1\n    /* \"#utility.yul\":1176:1188   */\n  revert\n    /* \"#utility.yul\":1127:1190   */\ntag_29:\n    /* \"#utility.yul\":1074:1196   */\n  pop\n  jump\t// out\n    /* \"contracts/simple_verify.sol\":70:2898  contract Verify {... */\ntag_6:\n  dataSize(sub_0)\n  dup1\n  dataOffset(sub_0)\n  0x00\n  codecopy\n  0x00\n  return\nstop\n\nsub_0: assembly {\n        /* \"contracts/simple_verify.sol\":70:2898  contract Verify {... */\n      mstore(0x40, 0x80)\n      callvalue\n      dup1\n      iszero\n      tag_1\n      jumpi\n      0x00\n      dup1\n      revert\n    tag_1:\n      pop\n      jumpi(tag_2, lt(calldatasize, 0x04))\n      shr(0xe0, calldataload(0x00))\n      dup1\n      0x33105218\n      eq\n      tag_3\n      jumpi\n      dup1\n      0x4487b392\n      eq\n      tag_4\n      jumpi\n      dup1\n      0x5dc84e32\n      eq\n      tag_5\n      jumpi\n      dup1\n      0x9000b3d6\n      eq\n      tag_6\n      jumpi\n      dup1\n      0xb9209e33\n      eq\n      tag_7\n      jumpi\n      dup1\n      0xca2dfd0a\n      eq\n      tag_8\n      jumpi\n    tag_2:\n      0x00\n      dup1\n      revert\n        /* \"contracts/simple_verify.sol\":2731:2896  function isVerifier(address addr) public view returns (bool) {... */\n    tag_3:\n      tag_9\n      0x04\n      dup1\n      calldatasize\n      sub\n      dup2\n      add\n      swap1\n      tag_10\n      swap2\n      swap1\n      tag_11\n      jump\t// in\n    tag_10:\n      tag_12\n      jump\t// in\n    tag_9:\n      mload(0x40)\n      tag_13\n      swap2\n      swap1\n      tag_14\n      jump\t// in\n    tag_13:\n      mload(0x40)\n      dup1\n      swap2\n      sub\n      swap1\n      return\n        /* \"contracts/simple_verify.sol\":2249:2419  function removeVerified(address addr) senderIsVerifier public {      ... */\n    tag_4:\n      tag_15\n      0x04\n      dup1\n      calldatasize\n      sub\n      dup2\n      add\n      swap1\n      tag_16\n      swap2\n      swap1\n      tag_11\n      jump\t// in\n    tag_16:\n      tag_17\n      jump\t// in\n    tag_15:\n      stop\n        /* \"contracts/simple_verify.sol\":1778:2171  function addVerified(address addr) senderIsVerifier public {... */\n    tag_5:\n      tag_18\n      0x04\n      dup1\n      calldatasize\n      sub\n      dup2\n      add\n      swap1\n      tag_19\n      swap2\n      swap1\n      tag_11\n      jump\t// in\n    tag_19:\n      tag_20\n      jump\t// in\n    tag_18:\n      stop\n        /* \"contracts/simple_verify.sol\":1071:1401  function addVerifier(address addr) senderIsAdmin public {       ... */\n    tag_6:\n      tag_21\n      0x04\n      dup1\n      calldatasize\n      sub\n      dup2\n      add\n      swap1\n      tag_22\n      swap2\n      swap1\n      tag_11\n      jump\t// in\n    tag_22:\n      tag_23\n      jump\t// in\n    tag_21:\n      stop\n        /* \"contracts/simple_verify.sol\":2489:2662  function isVerified(address addr) public view returns (bool) {... */\n    tag_7:\n      tag_24\n      0x04\n      dup1\n      calldatasize\n      sub\n      dup2\n      add\n      swap1\n      tag_25\n      swap2\n      swap1\n      tag_11\n      jump\t// in\n    tag_25:\n      tag_26\n      jump\t// in\n    tag_24:\n      mload(0x40)\n      tag_27\n      swap2\n      swap1\n      tag_14\n      jump\t// in\n    tag_27:\n      mload(0x40)\n      dup1\n      swap2\n      sub\n      swap1\n      return\n        /* \"contracts/simple_verify.sol\":1470:1705  function removeVerifier(address addr) senderIsAdmin public {... */\n    tag_8:\n      tag_28\n      0x04\n      dup1\n      calldatasize\n      sub\n      dup2\n      add\n      swap1\n      tag_29\n      swap2\n      swap1\n      tag_11\n      jump\t// in\n    tag_29:\n      tag_30\n      jump\t// in\n    tag_28:\n      stop\n        /* \"contracts/simple_verify.sol\":2731:2896  function isVerifier(address addr) public view returns (bool) {... */\n    tag_12:\n        /* \"contracts/simple_verify.sol\":2786:2790  bool */\n      0x00\n        /* \"contracts/simple_verify.sol\":2825:2829  true */\n      0x01\n        /* \"contracts/simple_verify.sol\":2806:2829  verifiers[addr] == true */\n      iszero\n      iszero\n        /* \"contracts/simple_verify.sol\":2806:2815  verifiers */\n      0x02\n        /* \"contracts/simple_verify.sol\":2806:2821  verifiers[addr] */\n      0x00\n        /* \"contracts/simple_verify.sol\":2816:2820  addr */\n      dup5\n        /* \"contracts/simple_verify.sol\":2806:2821  verifiers[addr] */\n      0xffffffffffffffffffffffffffffffffffffffff\n      and\n      0xffffffffffffffffffffffffffffffffffffffff\n      and\n      dup2\n      mstore\n      0x20\n      add\n      swap1\n      dup2\n      mstore\n      0x20\n      add\n      0x00\n      keccak256\n      0x00\n      swap1\n      sload\n      swap1\n      0x0100\n      exp\n      swap1\n      div\n      0xff\n      and\n        /* \"contracts/simple_verify.sol\":2806:2829  verifiers[addr] == true */\n      iszero\n      iszero\n      eq\n        /* \"contracts/simple_verify.sol\":2802:2867  if (verifiers[addr] == true) {... */\n      iszero\n      tag_32\n      jumpi\n        /* \"contracts/simple_verify.sol\":2852:2856  true */\n      0x01\n        /* \"contracts/simple_verify.sol\":2845:2856  return true */\n      swap1\n      pop\n      jump(tag_31)\n        /* \"contracts/simple_verify.sol\":2802:2867  if (verifiers[addr] == true) {... */\n    tag_32:\n        /* \"contracts/simple_verify.sol\":2884:2889  false */\n      0x00\n        /* \"contracts/simple_verify.sol\":2877:2889  return false */\n      swap1\n      pop\n        /* \"contracts/simple_verify.sol\":2731:2896  function isVerifier(address addr) public view returns (bool) {... */\n    tag_31:\n      swap2\n      swap1\n      pop\n      jump\t// out\n        /* \"contracts/simple_verify.sol\":2249:2419  function removeVerified(address addr) senderIsVerifier public {      ... */\n    tag_17:\n        /* \"contracts/simple_verify.sol\":786:790  true */\n      0x01\n        /* \"contracts/simple_verify.sol\":761:790  verifiers[msg.sender] == true */\n      iszero\n      iszero\n        /* \"contracts/simple_verify.sol\":761:770  verifiers */\n      0x02\n        /* \"contracts/simple_verify.sol\":761:782  verifiers[msg.sender] */\n      0x00\n        /* \"contracts/simple_verify.sol\":771:781  msg.sender */\n      caller\n        /* \"contracts/simple_verify.sol\":761:782  verifiers[msg.sender] */\n      0xffffffffffffffffffffffffffffffffffffffff\n      and\n      0xffffffffffffffffffffffffffffffffffffffff\n      and\n      dup2\n      mstore\n      0x20\n      add\n      swap1\n      dup2\n      mstore\n      0x20\n      add\n      0x00\n      keccak256\n      0x00\n      swap1\n      sload\n      swap1\n      0x0100\n      exp\n      swap1\n      div\n      0xff\n      and\n        /* \"contracts/simple_verify.sol\":761:790  verifiers[msg.sender] == true */\n      iszero\n      iszero\n      eq\n        /* \"contracts/simple_verify.sol\":740:838  require(... */\n      tag_34\n      jumpi\n      mload(0x40)\n      0x08c379a000000000000000000000000000000000000000000000000000000000\n      dup2\n      mstore\n      0x04\n      add\n      tag_35\n      swap1\n      tag_36\n      jump\t// in\n    tag_35:\n      mload(0x40)\n      dup1\n      swap2\n      sub\n      swap1\n      revert\n    tag_34:\n        /* \"contracts/simple_verify.sol\":2354:2359  false */\n      0x00\n        /* \"contracts/simple_verify.sol\":2327:2359  verifiedAddresses[addr] == false */\n      iszero\n      iszero\n        /* \"contracts/simple_verify.sol\":2327:2344  verifiedAddresses */\n      0x01\n        /* \"contracts/simple_verify.sol\":2327:2350  verifiedAddresses[addr] */\n      0x00\n        /* \"contracts/simple_verify.sol\":2345:2349  addr */\n      dup4\n        /* \"contracts/simple_verify.sol\":2327:2350  verifiedAddresses[addr] */\n      0xffffffffffffffffffffffffffffffffffffffff\n      and\n      0xffffffffffffffffffffffffffffffffffffffff\n      and\n      dup2\n      mstore\n      0x20\n      add\n      swap1\n      dup2\n      mstore\n      0x20\n      add\n      0x00\n      keccak256\n      0x00\n      swap1\n      sload\n      swap1\n      0x0100\n      exp\n      swap1\n      pop\n      pop\n        /* \"contracts/simple_verify.sol\":2327:2359  verifiedAddresses[addr] == false */\n      pop\n        /* \"contracts/simple_verify.sol\":2401:2411  msg.sender */\n      caller\n        /* \"contracts/simple_verify.sol\":2374:2412  VerifiedAddressAdded(addr, msg.sender) */\n      0xffffffffffffffffffffffffffffffffffffffff\n      and\n        /* \"contracts/simple_verify.sol\":2395:2399  addr */\n      dup2\n        /* \"contracts/simple_verify.sol\":2374:2412  VerifiedAddressAdded(addr, msg.sender) */\n      0xffffffffffffffffffffffffffffffffffffffff\n      and\n      0x2679e492f4112eee8e3f6dfd8463065d662332a578753f77ce4c3d76c98271fb\n      mload(0x40)\n      mload(0x40)\n      dup1\n      swap2\n      sub\n      swap1\n      log3\n        /* \"contracts/simple_verify.sol\":2249:2419  function removeVerified(address addr) senderIsVerifier public {      ... */\n      pop\n      jump\t// out\n        /* \"contracts/simple_verify.sol\":1778:2171  function addVerified(address addr) senderIsVerifier public {... */\n    tag_20:\n        /* \"contracts/simple_verify.sol\":786:790  true */\n      0x01\n        /* \"contracts/simple_verify.sol\":761:790  verifiers[msg.sender] == true */\n      iszero\n      iszero\n        /* \"contracts/simple_verify.sol\":761:770  verifiers */\n      0x02\n        /* \"contracts/simple_verify.sol\":761:782  verifiers[msg.sender] */\n      0x00\n        /* \"contracts/simple_verify.sol\":771:781  msg.sender */\n      caller\n        /* \"contracts/simple_verify.sol\":761:782  verifiers[msg.sender] */\n      0xffffffffffffffffffffffffffffffffffffffff\n      and\n      0xffffffffffffffffffffffffffffffffffffffff\n      and\n      dup2\n      mstore\n      0x20\n      add\n      swap1\n      dup2\n      mstore\n      0x20\n      add\n      0x00\n      keccak256\n      0x00\n      swap1\n      sload\n      swap1\n      0x0100\n      exp\n      swap1\n      div\n      0xff\n      and\n        /* \"contracts/simple_verify.sol\":761:790  verifiers[msg.sender] == true */\n      iszero\n      iszero\n      eq\n        /* \"contracts/simple_verify.sol\":740:838  require(... */\n      tag_39\n      jumpi\n      mload(0x40)\n      0x08c379a000000000000000000000000000000000000000000000000000000000\n      dup2\n      mstore\n      0x04\n      add\n      tag_40\n      swap1\n      tag_36\n      jump\t// in\n    tag_40:\n      mload(0x40)\n      dup1\n      swap2\n      sub\n      swap1\n      revert\n    tag_39:\n        /* \"contracts/simple_verify.sol\":1884:1885  0 */\n      0x00\n        /* \"contracts/simple_verify.sol\":1868:1886  addr != address(0) */\n      0xffffffffffffffffffffffffffffffffffffffff\n      and\n        /* \"contracts/simple_verify.sol\":1868:1872  addr */\n      dup2\n        /* \"contracts/simple_verify.sol\":1868:1886  addr != address(0) */\n      0xffffffffffffffffffffffffffffffffffffffff\n      and\n      eq\n      iszero\n        /* \"contracts/simple_verify.sol\":1847:1942  require(... */\n      tag_42\n      jumpi\n      mload(0x40)\n      0x08c379a000000000000000000000000000000000000000000000000000000000\n      dup2\n      mstore\n      0x04\n      add\n      tag_43\n      swap1\n      tag_44\n      jump\t// in\n    tag_43:\n      mload(0x40)\n      dup1\n      swap2\n      sub\n      swap1\n      revert\n    tag_42:\n        /* \"contracts/simple_verify.sol\":2001:2005  true */\n      0x01\n        /* \"contracts/simple_verify.sol\":1974:2005  verifiedAddresses[addr] != true */\n      iszero\n      iszero\n        /* \"contracts/simple_verify.sol\":1974:1991  verifiedAddresses */\n      0x01\n        /* \"contracts/simple_verify.sol\":1974:1997  verifiedAddresses[addr] */\n      0x00\n        /* \"contracts/simple_verify.sol\":1992:1996  addr */\n      dup4\n        /* \"contracts/simple_verify.sol\":1974:1997  verifiedAddresses[addr] */\n      0xffffffffffffffffffffffffffffffffffffffff\n      and\n      0xffffffffffffffffffffffffffffffffffffffff\n      and\n      dup2\n      mstore\n      0x20\n      add\n      swap1\n      dup2\n      mstore\n      0x20\n      add\n      0x00\n      keccak256\n      0x00\n      swap1\n      sload\n      swap1\n      0x0100\n      exp\n      swap1\n      div\n      0xff\n      and\n        /* \"contracts/simple_verify.sol\":1974:2005  verifiedAddresses[addr] != true */\n      iszero\n      iszero\n      eq\n      iszero\n        /* \"contracts/simple_verify.sol\":1953:2058  require(... */\n      tag_45\n      jumpi\n      mload(0x40)\n      0x08c379a000000000000000000000000000000000000000000000000000000000\n      dup2\n      mstore\n      0x04\n      add\n      tag_46\n      swap1\n      tag_47\n      jump\t// in\n    tag_46:\n      mload(0x40)\n      dup1\n      swap2\n      sub\n      swap1\n      revert\n    tag_45:\n        /* \"contracts/simple_verify.sol\":2107:2111  true */\n      0x01\n        /* \"contracts/simple_verify.sol\":2081:2098  verifiedAddresses */\n      dup1\n        /* \"contracts/simple_verify.sol\":2081:2104  verifiedAddresses[addr] */\n      0x00\n        /* \"contracts/simple_verify.sol\":2099:2103  addr */\n      dup4\n        /* \"contracts/simple_verify.sol\":2081:2104  verifiedAddresses[addr] */\n      0xffffffffffffffffffffffffffffffffffffffff\n      and\n      0xffffffffffffffffffffffffffffffffffffffff\n      and\n      dup2\n      mstore\n      0x20\n      add\n      swap1\n      dup2\n      mstore\n      0x20\n      add\n      0x00\n      keccak256\n      0x00\n        /* \"contracts/simple_verify.sol\":2081:2111  verifiedAddresses[addr] = true */\n      0x0100\n      exp\n      dup2\n      sload\n      dup2\n      0xff\n      mul\n      not\n      and\n      swap1\n      dup4\n      iszero\n      iszero\n      mul\n      or\n      swap1\n      sstore\n      pop\n        /* \"contracts/simple_verify.sol\":2153:2163  msg.sender */\n      caller\n        /* \"contracts/simple_verify.sol\":2126:2164  VerifiedAddressAdded(addr, msg.sender) */\n      0xffffffffffffffffffffffffffffffffffffffff\n      and\n        /* \"contracts/simple_verify.sol\":2147:2151  addr */\n      dup2\n        /* \"contracts/simple_verify.sol\":2126:2164  VerifiedAddressAdded(addr, msg.sender) */\n      0xffffffffffffffffffffffffffffffffffffffff\n      and\n      0x2679e492f4112eee8e3f6dfd8463065d662332a578753f77ce4c3d76c98271fb\n      mload(0x40)\n      mload(0x40)\n      dup1\n      swap2\n      sub\n      swap1\n      log3\n        /* \"contracts/simple_verify.sol\":1778:2171  function addVerified(address addr) senderIsVerifier public {... */\n      pop\n      jump\t// out\n        /* \"contracts/simple_verify.sol\":1071:1401  function addVerifier(address addr) senderIsAdmin public {       ... */\n    tag_23:\n        /* \"contracts/simple_verify.sol\":933:943  msg.sender */\n      caller\n        /* \"contracts/simple_verify.sol\":924:943  admin == msg.sender */\n      0xffffffffffffffffffffffffffffffffffffffff\n      and\n        /* \"contracts/simple_verify.sol\":924:929  admin */\n      0x00\n      dup1\n      sload\n      swap1\n      0x0100\n      exp\n      swap1\n      div\n      0xffffffffffffffffffffffffffffffffffffffff\n      and\n        /* \"contracts/simple_verify.sol\":924:943  admin == msg.sender */\n      0xffffffffffffffffffffffffffffffffffffffff\n      and\n      eq\n        /* \"contracts/simple_verify.sol\":903:989  require(... */\n      tag_49\n      jumpi\n      mload(0x40)\n      0x08c379a000000000000000000000000000000000000000000000000000000000\n      dup2\n      mstore\n      0x04\n      add\n      tag_50\n      swap1\n      tag_51\n      jump\t// in\n    tag_50:\n      mload(0x40)\n      dup1\n      swap2\n      sub\n      swap1\n      revert\n    tag_49:\n        /* \"contracts/simple_verify.sol\":1181:1182  0 */\n      0x00\n        /* \"contracts/simple_verify.sol\":1165:1183  addr != address(0) */\n      0xffffffffffffffffffffffffffffffffffffffff\n      and\n        /* \"contracts/simple_verify.sol\":1165:1169  addr */\n      dup2\n        /* \"contracts/simple_verify.sol\":1165:1183  addr != address(0) */\n      0xffffffffffffffffffffffffffffffffffffffff\n      and\n      eq\n      iszero\n        /* \"contracts/simple_verify.sol\":1144:1242  require(... */\n      tag_53\n      jumpi\n      mload(0x40)\n      0x08c379a000000000000000000000000000000000000000000000000000000000\n      dup2\n      mstore\n      0x04\n      add\n      tag_54\n      swap1\n      tag_55\n      jump\t// in\n    tag_54:\n      mload(0x40)\n      dup1\n      swap2\n      sub\n      swap1\n      revert\n    tag_53:\n        /* \"contracts/simple_verify.sol\":1301:1305  true */\n      0x01\n        /* \"contracts/simple_verify.sol\":1282:1305  verifiers[addr] != true */\n      iszero\n      iszero\n        /* \"contracts/simple_verify.sol\":1282:1291  verifiers */\n      0x02\n        /* \"contracts/simple_verify.sol\":1282:1297  verifiers[addr] */\n      0x00\n        /* \"contracts/simple_verify.sol\":1292:1296  addr */\n      dup4\n        /* \"contracts/simple_verify.sol\":1282:1297  verifiers[addr] */\n      0xffffffffffffffffffffffffffffffffffffffff\n      and\n      0xffffffffffffffffffffffffffffffffffffffff\n      and\n      dup2\n      mstore\n      0x20\n      add\n      swap1\n      dup2\n      mstore\n      0x20\n      add\n      0x00\n      keccak256\n      0x00\n      swap1\n      sload\n      swap1\n      0x0100\n      exp\n      swap1\n      div\n      0xff\n      and\n        /* \"contracts/simple_verify.sol\":1282:1305  verifiers[addr] != true */\n      iszero\n      iszero\n      eq\n      iszero\n        /* \"contracts/simple_verify.sol\":1261:1361  require(... */\n      tag_56\n      jumpi\n      mload(0x40)\n      0x08c379a000000000000000000000000000000000000000000000000000000000\n      dup2\n      mstore\n      0x04\n      add\n      tag_57\n      swap1\n      tag_58\n      jump\t// in\n    tag_57:\n      mload(0x40)\n      dup1\n      swap2\n      sub\n      swap1\n      revert\n    tag_56:\n        /* \"contracts/simple_verify.sol\":1390:1394  true */\n      0x01\n        /* \"contracts/simple_verify.sol\":1372:1381  verifiers */\n      0x02\n        /* \"contracts/simple_verify.sol\":1372:1387  verifiers[addr] */\n      0x00\n        /* \"contracts/simple_verify.sol\":1382:1386  addr */\n      dup4\n        /* \"contracts/simple_verify.sol\":1372:1387  verifiers[addr] */\n      0xffffffffffffffffffffffffffffffffffffffff\n      and\n      0xffffffffffffffffffffffffffffffffffffffff\n      and\n      dup2\n      mstore\n      0x20\n      add\n      swap1\n      dup2\n      mstore\n      0x20\n      add\n      0x00\n      keccak256\n      0x00\n        /* \"contracts/simple_verify.sol\":1372:1394  verifiers[addr] = true */\n      0x0100\n      exp\n      dup2\n      sload\n      dup2\n      0xff\n      mul\n      not\n      and\n      swap1\n      dup4\n      iszero\n      iszero\n      mul\n      or\n      swap1\n      sstore\n      pop\n        /* \"contracts/simple_verify.sol\":1071:1401  function addVerifier(address addr) senderIsAdmin public {       ... */\n      pop\n      jump\t// out\n        /* \"contracts/simple_verify.sol\":2489:2662  function isVerified(address addr) public view returns (bool) {... */\n    tag_26:\n        /* \"contracts/simple_verify.sol\":2544:2548  bool */\n      0x00\n        /* \"contracts/simple_verify.sol\":2591:2595  true */\n      0x01\n        /* \"contracts/simple_verify.sol\":2564:2595  verifiedAddresses[addr] == true */\n      iszero\n      iszero\n        /* \"contracts/simple_verify.sol\":2564:2581  verifiedAddresses */\n      0x01\n        /* \"contracts/simple_verify.sol\":2564:2587  verifiedAddresses[addr] */\n      0x00\n        /* \"contracts/simple_verify.sol\":2582:2586  addr */\n      dup5\n        /* \"contracts/simple_verify.sol\":2564:2587  verifiedAddresses[addr] */\n      0xffffffffffffffffffffffffffffffffffffffff\n      and\n      0xffffffffffffffffffffffffffffffffffffffff\n      and\n      dup2\n      mstore\n      0x20\n      add\n      swap1\n      dup2\n      mstore\n      0x20\n      add\n      0x00\n      keccak256\n      0x00\n      swap1\n      sload\n      swap1\n      0x0100\n      exp\n      swap1\n      div\n      0xff\n      and\n        /* \"contracts/simple_verify.sol\":2564:2595  verifiedAddresses[addr] == true */\n      iszero\n      iszero\n      eq\n        /* \"contracts/simple_verify.sol\":2560:2633  if (verifiedAddresses[addr] == true) {... */\n      iszero\n      tag_60\n      jumpi\n        /* \"contracts/simple_verify.sol\":2618:2622  true */\n      0x01\n        /* \"contracts/simple_verify.sol\":2611:2622  return true */\n      swap1\n      pop\n      jump(tag_59)\n        /* \"contracts/simple_verify.sol\":2560:2633  if (verifiedAddresses[addr] == true) {... */\n    tag_60:\n        /* \"contracts/simple_verify.sol\":2650:2655  false */\n      0x00\n        /* \"contracts/simple_verify.sol\":2643:2655  return false */\n      swap1\n      pop\n        /* \"contracts/simple_verify.sol\":2489:2662  function isVerified(address addr) public view returns (bool) {... */\n    tag_59:\n      swap2\n      swap1\n      pop\n      jump\t// out\n        /* \"contracts/simple_verify.sol\":1470:1705  function removeVerifier(address addr) senderIsAdmin public {... */\n    tag_30:\n        /* \"contracts/simple_verify.sol\":933:943  msg.sender */\n      caller\n        /* \"contracts/simple_verify.sol\":924:943  admin == msg.sender */\n      0xffffffffffffffffffffffffffffffffffffffff\n      and\n        /* \"contracts/simple_verify.sol\":924:929  admin */\n      0x00\n      dup1\n      sload\n      swap1\n      0x0100\n      exp\n      swap1\n      div\n      0xffffffffffffffffffffffffffffffffffffffff\n      and\n        /* \"contracts/simple_verify.sol\":924:943  admin == msg.sender */\n      0xffffffffffffffffffffffffffffffffffffffff\n      and\n      eq\n        /* \"contracts/simple_verify.sol\":903:989  require(... */\n      tag_62\n      jumpi\n      mload(0x40)\n      0x08c379a000000000000000000000000000000000000000000000000000000000\n      dup2\n      mstore\n      0x04\n      add\n      tag_63\n      swap1\n      tag_51\n      jump\t// in\n    tag_63:\n      mload(0x40)\n      dup1\n      swap2\n      sub\n      swap1\n      revert\n    tag_62:\n        /* \"contracts/simple_verify.sol\":1579:1583  true */\n      0x01\n        /* \"contracts/simple_verify.sol\":1560:1583  verifiers[addr] == true */\n      iszero\n      iszero\n        /* \"contracts/simple_verify.sol\":1560:1569  verifiers */\n      0x02\n        /* \"contracts/simple_verify.sol\":1560:1575  verifiers[addr] */\n      0x00\n        /* \"contracts/simple_verify.sol\":1570:1574  addr */\n      dup4\n        /* \"contracts/simple_verify.sol\":1560:1575  verifiers[addr] */\n      0xffffffffffffffffffffffffffffffffffffffff\n      and\n      0xffffffffffffffffffffffffffffffffffffffff\n      and\n      dup2\n      mstore\n      0x20\n      add\n      swap1\n      dup2\n      mstore\n      0x20\n      add\n      0x00\n      keccak256\n      0x00\n      swap1\n      sload\n      swap1\n      0x0100\n      exp\n      swap1\n      div\n      0xff\n      and\n        /* \"contracts/simple_verify.sol\":1560:1583  verifiers[addr] == true */\n      iszero\n      iszero\n      eq\n        /* \"contracts/simple_verify.sol\":1539:1664  require(... */\n      tag_65\n      jumpi\n      mload(0x40)\n      0x08c379a000000000000000000000000000000000000000000000000000000000\n      dup2\n      mstore\n      0x04\n      add\n      tag_66\n      swap1\n      tag_67\n      jump\t// in\n    tag_66:\n      mload(0x40)\n      dup1\n      swap2\n      sub\n      swap1\n      revert\n    tag_65:\n        /* \"contracts/simple_verify.sol\":1693:1698  false */\n      0x00\n        /* \"contracts/simple_verify.sol\":1675:1684  verifiers */\n      0x02\n        /* \"contracts/simple_verify.sol\":1675:1690  verifiers[addr] */\n      0x00\n        /* \"contracts/simple_verify.sol\":1685:1689  addr */\n      dup4\n        /* \"contracts/simple_verify.sol\":1675:1690  verifiers[addr] */\n      0xffffffffffffffffffffffffffffffffffffffff\n      and\n      0xffffffffffffffffffffffffffffffffffffffff\n      and\n      dup2\n      mstore\n      0x20\n      add\n      swap1\n      dup2\n      mstore\n      0x20\n      add\n      0x00\n      keccak256\n      0x00\n        /* \"contracts/simple_verify.sol\":1675:1698  verifiers[addr] = false */\n      0x0100\n      exp\n      dup2\n      sload\n      dup2\n      0xff\n      mul\n      not\n      and\n      swap1\n      dup4\n      iszero\n      iszero\n      mul\n      or\n      swap1\n      sstore\n      pop\n        /* \"contracts/simple_verify.sol\":1470:1705  function removeVerifier(address addr) senderIsAdmin public {... */\n      pop\n      jump\t// out\n        /* \"#utility.yul\":7:146   */\n    tag_69:\n        /* \"#utility.yul\":53:58   */\n      0x00\n        /* \"#utility.yul\":91:97   */\n      dup2\n        /* \"#utility.yul\":78:98   */\n      calldataload\n        /* \"#utility.yul\":69:98   */\n      swap1\n      pop\n        /* \"#utility.yul\":107:140   */\n      tag_71\n        /* \"#utility.yul\":134:139   */\n      dup2\n        /* \"#utility.yul\":107:140   */\n      tag_72\n      jump\t// in\n    tag_71:\n        /* \"#utility.yul\":7:146   */\n      swap3\n      swap2\n      pop\n      pop\n      jump\t// out\n        /* \"#utility.yul\":152:481   */\n    tag_11:\n        /* \"#utility.yul\":211:217   */\n      0x00\n        /* \"#utility.yul\":260:262   */\n      0x20\n        /* \"#utility.yul\":248:257   */\n      dup3\n        /* \"#utility.yul\":239:246   */\n      dup5\n        /* \"#utility.yul\":235:258   */\n      sub\n        /* \"#utility.yul\":231:263   */\n      slt\n        /* \"#utility.yul\":228:347   */\n      iszero\n      tag_74\n      jumpi\n        /* \"#utility.yul\":266:345   */\n      tag_75\n      tag_76\n      jump\t// in\n    tag_75:\n        /* \"#utility.yul\":228:347   */\n    tag_74:\n        /* \"#utility.yul\":386:387   */\n      0x00\n        /* \"#utility.yul\":411:464   */\n      tag_77\n        /* \"#utility.yul\":456:463   */\n      dup5\n        /* \"#utility.yul\":447:453   */\n      dup3\n        /* \"#utility.yul\":436:445   */\n      dup6\n        /* \"#utility.yul\":432:454   */\n      add\n        /* \"#utility.yul\":411:464   */\n      tag_69\n      jump\t// in\n    tag_77:\n        /* \"#utility.yul\":401:464   */\n      swap2\n      pop\n        /* \"#utility.yul\":357:474   */\n      pop\n        /* \"#utility.yul\":152:481   */\n      swap3\n      swap2\n      pop\n      pop\n      jump\t// out\n        /* \"#utility.yul\":487:596   */\n    tag_78:\n        /* \"#utility.yul\":568:589   */\n      tag_80\n        /* \"#utility.yul\":583:588   */\n      dup2\n        /* \"#utility.yul\":568:589   */\n      tag_81\n      jump\t// in\n    tag_80:\n        /* \"#utility.yul\":563:566   */\n      dup3\n        /* \"#utility.yul\":556:590   */\n      mstore\n        /* \"#utility.yul\":487:596   */\n      pop\n      pop\n      jump\t// out\n        /* \"#utility.yul\":602:968   */\n    tag_82:\n        /* \"#utility.yul\":744:747   */\n      0x00\n        /* \"#utility.yul\":765:832   */\n      tag_84\n        /* \"#utility.yul\":829:831   */\n      0x37\n        /* \"#utility.yul\":824:827   */\n      dup4\n        /* \"#utility.yul\":765:832   */\n      tag_85\n      jump\t// in\n    tag_84:\n        /* \"#utility.yul\":758:832   */\n      swap2\n      pop\n        /* \"#utility.yul\":841:934   */\n      tag_86\n        /* \"#utility.yul\":930:933   */\n      dup3\n        /* \"#utility.yul\":841:934   */\n      tag_87\n      jump\t// in\n    tag_86:\n        /* \"#utility.yul\":959:961   */\n      0x40\n        /* \"#utility.yul\":954:957   */\n      dup3\n        /* \"#utility.yul\":950:962   */\n      add\n        /* \"#utility.yul\":943:962   */\n      swap1\n      pop\n        /* \"#utility.yul\":602:968   */\n      swap2\n      swap1\n      pop\n      jump\t// out\n        /* \"#utility.yul\":974:1340   */\n    tag_88:\n        /* \"#utility.yul\":1116:1119   */\n      0x00\n        /* \"#utility.yul\":1137:1204   */\n      tag_90\n        /* \"#utility.yul\":1201:1203   */\n      0x14\n        /* \"#utility.yul\":1196:1199   */\n      dup4\n        /* \"#utility.yul\":1137:1204   */\n      tag_85\n      jump\t// in\n    tag_90:\n        /* \"#utility.yul\":1130:1204   */\n      swap2\n      pop\n        /* \"#utility.yul\":1213:1306   */\n      tag_91\n        /* \"#utility.yul\":1302:1305   */\n      dup3\n        /* \"#utility.yul\":1213:1306   */\n      tag_92\n      jump\t// in\n    tag_91:\n        /* \"#utility.yul\":1331:1333   */\n      0x20\n        /* \"#utility.yul\":1326:1329   */\n      dup3\n        /* \"#utility.yul\":1322:1334   */\n      add\n        /* \"#utility.yul\":1315:1334   */\n      swap1\n      pop\n        /* \"#utility.yul\":974:1340   */\n      swap2\n      swap1\n      pop\n      jump\t// out\n        /* \"#utility.yul\":1346:1712   */\n    tag_93:\n        /* \"#utility.yul\":1488:1491   */\n      0x00\n        /* \"#utility.yul\":1509:1576   */\n      tag_95\n        /* \"#utility.yul\":1573:1575   */\n      0x1e\n        /* \"#utility.yul\":1568:1571   */\n      dup4\n        /* \"#utility.yul\":1509:1576   */\n      tag_85\n      jump\t// in\n    tag_95:\n        /* \"#utility.yul\":1502:1576   */\n      swap2\n      pop\n        /* \"#utility.yul\":1585:1678   */\n      tag_96\n        /* \"#utility.yul\":1674:1677   */\n      dup3\n        /* \"#utility.yul\":1585:1678   */\n      tag_97\n      jump\t// in\n    tag_96:\n        /* \"#utility.yul\":1703:1705   */\n      0x20\n        /* \"#utility.yul\":1698:1701   */\n      dup3\n        /* \"#utility.yul\":1694:1706   */\n      add\n        /* \"#utility.yul\":1687:1706   */\n      swap1\n      pop\n        /* \"#utility.yul\":1346:1712   */\n      swap2\n      swap1\n      pop\n      jump\t// out\n        /* \"#utility.yul\":1718:2084   */\n    tag_98:\n        /* \"#utility.yul\":1860:1863   */\n      0x00\n        /* \"#utility.yul\":1881:1948   */\n      tag_100\n        /* \"#utility.yul\":1945:1947   */\n      0x1e\n        /* \"#utility.yul\":1940:1943   */\n      dup4\n        /* \"#utility.yul\":1881:1948   */\n      tag_85\n      jump\t// in\n    tag_100:\n        /* \"#utility.yul\":1874:1948   */\n      swap2\n      pop\n        /* \"#utility.yul\":1957:2050   */\n      tag_101\n        /* \"#utility.yul\":2046:2049   */\n      dup3\n        /* \"#utility.yul\":1957:2050   */\n      tag_102\n      jump\t// in\n    tag_101:\n        /* \"#utility.yul\":2075:2077   */\n      0x20\n        /* \"#utility.yul\":2070:2073   */\n      dup3\n        /* \"#utility.yul\":2066:2078   */\n      add\n        /* \"#utility.yul\":2059:2078   */\n      swap1\n      pop\n        /* \"#utility.yul\":1718:2084   */\n      swap2\n      swap1\n      pop\n      jump\t// out\n        /* \"#utility.yul\":2090:2456   */\n    tag_103:\n        /* \"#utility.yul\":2232:2235   */\n      0x00\n        /* \"#utility.yul\":2253:2320   */\n      tag_105\n        /* \"#utility.yul\":2317:2319   */\n      0x1b\n        /* \"#utility.yul\":2312:2315   */\n      dup4\n        /* \"#utility.yul\":2253:2320   */\n      tag_85\n      jump\t// in\n    tag_105:\n        /* \"#utility.yul\":2246:2320   */\n      swap2\n      pop\n        /* \"#utility.yul\":2329:2422   */\n      tag_106\n        /* \"#utility.yul\":2418:2421   */\n      dup3\n        /* \"#utility.yul\":2329:2422   */\n      tag_107\n      jump\t// in\n    tag_106:\n        /* \"#utility.yul\":2447:2449   */\n      0x20\n        /* \"#utility.yul\":2442:2445   */\n      dup3\n        /* \"#utility.yul\":2438:2450   */\n      add\n        /* \"#utility.yul\":2431:2450   */\n      swap1\n      pop\n        /* \"#utility.yul\":2090:2456   */\n      swap2\n      swap1\n      pop\n      jump\t// out\n        /* \"#utility.yul\":2462:2828   */\n    tag_108:\n        /* \"#utility.yul\":2604:2607   */\n      0x00\n        /* \"#utility.yul\":2625:2692   */\n      tag_110\n        /* \"#utility.yul\":2689:2691   */\n      0x21\n        /* \"#utility.yul\":2684:2687   */\n      dup4\n        /* \"#utility.yul\":2625:2692   */\n      tag_85\n      jump\t// in\n    tag_110:\n        /* \"#utility.yul\":2618:2692   */\n      swap2\n      pop\n        /* \"#utility.yul\":2701:2794   */\n      tag_111\n        /* \"#utility.yul\":2790:2793   */\n      dup3\n        /* \"#utility.yul\":2701:2794   */\n      tag_112\n      jump\t// in\n    tag_111:\n        /* \"#utility.yul\":2819:2821   */\n      0x40\n        /* \"#utility.yul\":2814:2817   */\n      dup3\n        /* \"#utility.yul\":2810:2822   */\n      add\n        /* \"#utility.yul\":2803:2822   */\n      swap1\n      pop\n        /* \"#utility.yul\":2462:2828   */\n      swap2\n      swap1\n      pop\n      jump\t// out\n        /* \"#utility.yul\":2834:3200   */\n    tag_113:\n        /* \"#utility.yul\":2976:2979   */\n      0x00\n        /* \"#utility.yul\":2997:3064   */\n      tag_115\n        /* \"#utility.yul\":3061:3063   */\n      0x16\n        /* \"#utility.yul\":3056:3059   */\n      dup4\n        /* \"#utility.yul\":2997:3064   */\n      tag_85\n      jump\t// in\n    tag_115:\n        /* \"#utility.yul\":2990:3064   */\n      swap2\n      pop\n        /* \"#utility.yul\":3073:3166   */\n      tag_116\n        /* \"#utility.yul\":3162:3165   */\n      dup3\n        /* \"#utility.yul\":3073:3166   */\n      tag_117\n      jump\t// in\n    tag_116:\n        /* \"#utility.yul\":3191:3193   */\n      0x20\n        /* \"#utility.yul\":3186:3189   */\n      dup3\n        /* \"#utility.yul\":3182:3194   */\n      add\n        /* \"#utility.yul\":3175:3194   */\n      swap1\n      pop\n        /* \"#utility.yul\":2834:3200   */\n      swap2\n      swap1\n      pop\n      jump\t// out\n        /* \"#utility.yul\":3206:3416   */\n    tag_14:\n        /* \"#utility.yul\":3293:3297   */\n      0x00\n        /* \"#utility.yul\":3331:3333   */\n      0x20\n        /* \"#utility.yul\":3320:3329   */\n      dup3\n        /* \"#utility.yul\":3316:3334   */\n      add\n        /* \"#utility.yul\":3308:3334   */\n      swap1\n      pop\n        /* \"#utility.yul\":3344:3409   */\n      tag_119\n        /* \"#utility.yul\":3406:3407   */\n      0x00\n        /* \"#utility.yul\":3395:3404   */\n      dup4\n        /* \"#utility.yul\":3391:3408   */\n      add\n        /* \"#utility.yul\":3382:3388   */\n      dup5\n        /* \"#utility.yul\":3344:3409   */\n      tag_78\n      jump\t// in\n    tag_119:\n        /* \"#utility.yul\":3206:3416   */\n      swap3\n      swap2\n      pop\n      pop\n      jump\t// out\n        /* \"#utility.yul\":3422:3841   */\n    tag_67:\n        /* \"#utility.yul\":3588:3592   */\n      0x00\n        /* \"#utility.yul\":3626:3628   */\n      0x20\n        /* \"#utility.yul\":3615:3624   */\n      dup3\n        /* \"#utility.yul\":3611:3629   */\n      add\n        /* \"#utility.yul\":3603:3629   */\n      swap1\n      pop\n        /* \"#utility.yul\":3675:3684   */\n      dup2\n        /* \"#utility.yul\":3669:3673   */\n      dup2\n        /* \"#utility.yul\":3665:3685   */\n      sub\n        /* \"#utility.yul\":3661:3662   */\n      0x00\n        /* \"#utility.yul\":3650:3659   */\n      dup4\n        /* \"#utility.yul\":3646:3663   */\n      add\n        /* \"#utility.yul\":3639:3686   */\n      mstore\n        /* \"#utility.yul\":3703:3834   */\n      tag_121\n        /* \"#utility.yul\":3829:3833   */\n      dup2\n        /* \"#utility.yul\":3703:3834   */\n      tag_82\n      jump\t// in\n    tag_121:\n        /* \"#utility.yul\":3695:3834   */\n      swap1\n      pop\n        /* \"#utility.yul\":3422:3841   */\n      swap2\n      swap1\n      pop\n      jump\t// out\n        /* \"#utility.yul\":3847:4266   */\n    tag_51:\n        /* \"#utility.yul\":4013:4017   */\n      0x00\n        /* \"#utility.yul\":4051:4053   */\n      0x20\n        /* \"#utility.yul\":4040:4049   */\n      dup3\n        /* \"#utility.yul\":4036:4054   */\n      add\n        /* \"#utility.yul\":4028:4054   */\n      swap1\n      pop\n        /* \"#utility.yul\":4100:4109   */\n      dup2\n        /* \"#utility.yul\":4094:4098   */\n      dup2\n        /* \"#utility.yul\":4090:4110   */\n      sub\n        /* \"#utility.yul\":4086:4087   */\n      0x00\n        /* \"#utility.yul\":4075:4084   */\n      dup4\n        /* \"#utility.yul\":4071:4088   */\n      add\n        /* \"#utility.yul\":4064:4111   */\n      mstore\n        /* \"#utility.yul\":4128:4259   */\n      tag_123\n        /* \"#utility.yul\":4254:4258   */\n      dup2\n        /* \"#utility.yul\":4128:4259   */\n      tag_88\n      jump\t// in\n    tag_123:\n        /* \"#utility.yul\":4120:4259   */\n      swap1\n      pop\n        /* \"#utility.yul\":3847:4266   */\n      swap2\n      swap1\n      pop\n      jump\t// out\n        /* \"#utility.yul\":4272:4691   */\n    tag_44:\n        /* \"#utility.yul\":4438:4442   */\n      0x00\n        /* \"#utility.yul\":4476:4478   */\n      0x20\n        /* \"#utility.yul\":4465:4474   */\n      dup3\n        /* \"#utility.yul\":4461:4479   */\n      add\n        /* \"#utility.yul\":4453:4479   */\n      swap1\n      pop\n        /* \"#utility.yul\":4525:4534   */\n      dup2\n        /* \"#utility.yul\":4519:4523   */\n      dup2\n        /* \"#utility.yul\":4515:4535   */\n      sub\n        /* \"#utility.yul\":4511:4512   */\n      0x00\n        /* \"#utility.yul\":4500:4509   */\n      dup4\n        /* \"#utility.yul\":4496:4513   */\n      add\n        /* \"#utility.yul\":4489:4536   */\n      mstore\n        /* \"#utility.yul\":4553:4684   */\n      tag_125\n        /* \"#utility.yul\":4679:4683   */\n      dup2\n        /* \"#utility.yul\":4553:4684   */\n      tag_93\n      jump\t// in\n    tag_125:\n        /* \"#utility.yul\":4545:4684   */\n      swap1\n      pop\n        /* \"#utility.yul\":4272:4691   */\n      swap2\n      swap1\n      pop\n      jump\t// out\n        /* \"#utility.yul\":4697:5116   */\n    tag_58:\n        /* \"#utility.yul\":4863:4867   */\n      0x00\n        /* \"#utility.yul\":4901:4903   */\n      0x20\n        /* \"#utility.yul\":4890:4899   */\n      dup3\n        /* \"#utility.yul\":4886:4904   */\n      add\n        /* \"#utility.yul\":4878:4904   */\n      swap1\n      pop\n        /* \"#utility.yul\":4950:4959   */\n      dup2\n        /* \"#utility.yul\":4944:4948   */\n      dup2\n        /* \"#utility.yul\":4940:4960   */\n      sub\n        /* \"#utility.yul\":4936:4937   */\n      0x00\n        /* \"#utility.yul\":4925:4934   */\n      dup4\n        /* \"#utility.yul\":4921:4938   */\n      add\n        /* \"#utility.yul\":4914:4961   */\n      mstore\n        /* \"#utility.yul\":4978:5109   */\n      tag_127\n        /* \"#utility.yul\":5104:5108   */\n      dup2\n        /* \"#utility.yul\":4978:5109   */\n      tag_98\n      jump\t// in\n    tag_127:\n        /* \"#utility.yul\":4970:5109   */\n      swap1\n      pop\n        /* \"#utility.yul\":4697:5116   */\n      swap2\n      swap1\n      pop\n      jump\t// out\n        /* \"#utility.yul\":5122:5541   */\n    tag_47:\n        /* \"#utility.yul\":5288:5292   */\n      0x00\n        /* \"#utility.yul\":5326:5328   */\n      0x20\n        /* \"#utility.yul\":5315:5324   */\n      dup3\n        /* \"#utility.yul\":5311:5329   */\n      add\n        /* \"#utility.yul\":5303:5329   */\n      swap1\n      pop\n        /* \"#utility.yul\":5375:5384   */\n      dup2\n        /* \"#utility.yul\":5369:5373   */\n      dup2\n        /* \"#utility.yul\":5365:5385   */\n      sub\n        /* \"#utility.yul\":5361:5362   */\n      0x00\n        /* \"#utility.yul\":5350:5359   */\n      dup4\n        /* \"#utility.yul\":5346:5363   */\n      add\n        /* \"#utility.yul\":5339:5386   */\n      mstore\n        /* \"#utility.yul\":5403:5534   */\n      tag_129\n        /* \"#utility.yul\":5529:5533   */\n      dup2\n        /* \"#utility.yul\":5403:5534   */\n      tag_103\n      jump\t// in\n    tag_129:\n        /* \"#utility.yul\":5395:5534   */\n      swap1\n      pop\n        /* \"#utility.yul\":5122:5541   */\n      swap2\n      swap1\n      pop\n      jump\t// out\n        /* \"#utility.yul\":5547:5966   */\n    tag_55:\n        /* \"#utility.yul\":5713:5717   */\n      0x00\n        /* \"#utility.yul\":5751:5753   */\n      0x20\n        /* \"#utility.yul\":5740:5749   */\n      dup3\n        /* \"#utility.yul\":5736:5754   */\n      add\n        /* \"#utility.yul\":5728:5754   */\n      swap1\n      pop\n        /* \"#utility.yul\":5800:5809   */\n      dup2\n        /* \"#utility.yul\":5794:5798   */\n      dup2\n        /* \"#utility.yul\":5790:5810   */\n      sub\n        /* \"#utility.yul\":5786:5787   */\n      0x00\n        /* \"#utility.yul\":5775:5784   */\n      dup4\n        /* \"#utility.yul\":5771:5788   */\n      add\n        /* \"#utility.yul\":5764:5811   */\n      mstore\n        /* \"#utility.yul\":5828:5959   */\n      tag_131\n        /* \"#utility.yul\":5954:5958   */\n      dup2\n        /* \"#utility.yul\":5828:5959   */\n      tag_108\n      jump\t// in\n    tag_131:\n        /* \"#utility.yul\":5820:5959   */\n      swap1\n      pop\n        /* \"#utility.yul\":5547:5966   */\n      swap2\n      swap1\n      pop\n      jump\t// out\n        /* \"#utility.yul\":5972:6391   */\n    tag_36:\n        /* \"#utility.yul\":6138:6142   */\n      0x00\n        /* \"#utility.yul\":6176:6178   */\n      0x20\n        /* \"#utility.yul\":6165:6174   */\n      dup3\n        /* \"#utility.yul\":6161:6179   */\n      add\n        /* \"#utility.yul\":6153:6179   */\n      swap1\n      pop\n        /* \"#utility.yul\":6225:6234   */\n      dup2\n        /* \"#utility.yul\":6219:6223   */\n      dup2\n        /* \"#utility.yul\":6215:6235   */\n      sub\n        /* \"#utility.yul\":6211:6212   */\n      0x00\n        /* \"#utility.yul\":6200:6209   */\n      dup4\n        /* \"#utility.yul\":6196:6213   */\n      add\n        /* \"#utility.yul\":6189:6236   */\n      mstore\n        /* \"#utility.yul\":6253:6384   */\n      tag_133\n        /* \"#utility.yul\":6379:6383   */\n      dup2\n        /* \"#utility.yul\":6253:6384   */\n      tag_113\n      jump\t// in\n    tag_133:\n        /* \"#utility.yul\":6245:6384   */\n      swap1\n      pop\n        /* \"#utility.yul\":5972:6391   */\n      swap2\n      swap1\n      pop\n      jump\t// out\n        /* \"#utility.yul\":6478:6647   */\n    tag_85:\n        /* \"#utility.yul\":6562:6573   */\n      0x00\n        /* \"#utility.yul\":6596:6602   */\n      dup3\n        /* \"#utility.yul\":6591:6594   */\n      dup3\n        /* \"#utility.yul\":6584:6603   */\n      mstore\n        /* \"#utility.yul\":6636:6640   */\n      0x20\n        /* \"#utility.yul\":6631:6634   */\n      dup3\n        /* \"#utility.yul\":6627:6641   */\n      add\n        /* \"#utility.yul\":6612:6641   */\n      swap1\n      pop\n        /* \"#utility.yul\":6478:6647   */\n      swap3\n      swap2\n      pop\n      pop\n      jump\t// out\n        /* \"#utility.yul\":6653:6749   */\n    tag_137:\n        /* \"#utility.yul\":6690:6697   */\n      0x00\n        /* \"#utility.yul\":6719:6743   */\n      tag_139\n        /* \"#utility.yul\":6737:6742   */\n      dup3\n        /* \"#utility.yul\":6719:6743   */\n      tag_140\n      jump\t// in\n    tag_139:\n        /* \"#utility.yul\":6708:6743   */\n      swap1\n      pop\n        /* \"#utility.yul\":6653:6749   */\n      swap2\n      swap1\n      pop\n      jump\t// out\n        /* \"#utility.yul\":6755:6845   */\n    tag_81:\n        /* \"#utility.yul\":6789:6796   */\n      0x00\n        /* \"#utility.yul\":6832:6837   */\n      dup2\n        /* \"#utility.yul\":6825:6838   */\n      iszero\n        /* \"#utility.yul\":6818:6839   */\n      iszero\n        /* \"#utility.yul\":6807:6839   */\n      swap1\n      pop\n        /* \"#utility.yul\":6755:6845   */\n      swap2\n      swap1\n      pop\n      jump\t// out\n        /* \"#utility.yul\":6851:6977   */\n    tag_140:\n        /* \"#utility.yul\":6888:6895   */\n      0x00\n        /* \"#utility.yul\":6928:6970   */\n      0xffffffffffffffffffffffffffffffffffffffff\n        /* \"#utility.yul\":6921:6926   */\n      dup3\n        /* \"#utility.yul\":6917:6971   */\n      and\n        /* \"#utility.yul\":6906:6971   */\n      swap1\n      pop\n        /* \"#utility.yul\":6851:6977   */\n      swap2\n      swap1\n      pop\n      jump\t// out\n        /* \"#utility.yul\":7106:7223   */\n    tag_76:\n        /* \"#utility.yul\":7215:7216   */\n      0x00\n        /* \"#utility.yul\":7212:7213   */\n      dup1\n        /* \"#utility.yul\":7205:7217   */\n      revert\n        /* \"#utility.yul\":7229:7471   */\n    tag_87:\n        /* \"#utility.yul\":7369:7403   */\n      0x43616e6e6f742072656d6f766520616e20616464726573732074686174206973\n        /* \"#utility.yul\":7365:7366   */\n      0x00\n        /* \"#utility.yul\":7357:7363   */\n      dup3\n        /* \"#utility.yul\":7353:7367   */\n      add\n        /* \"#utility.yul\":7346:7404   */\n      mstore\n        /* \"#utility.yul\":7438:7463   */\n      0x206e6f7420616c72656164792061207665726966696572000000000000000000\n        /* \"#utility.yul\":7433:7435   */\n      0x20\n        /* \"#utility.yul\":7425:7431   */\n      dup3\n        /* \"#utility.yul\":7421:7436   */\n      add\n        /* \"#utility.yul\":7414:7464   */\n      mstore\n        /* \"#utility.yul\":7229:7471   */\n      pop\n      jump\t// out\n        /* \"#utility.yul\":7477:7647   */\n    tag_92:\n        /* \"#utility.yul\":7617:7639   */\n      0x596f7520617265206e6f7420616e2061646d696e000000000000000000000000\n        /* \"#utility.yul\":7613:7614   */\n      0x00\n        /* \"#utility.yul\":7605:7611   */\n      dup3\n        /* \"#utility.yul\":7601:7615   */\n      add\n        /* \"#utility.yul\":7594:7640   */\n      mstore\n        /* \"#utility.yul\":7477:7647   */\n      pop\n      jump\t// out\n        /* \"#utility.yul\":7653:7833   */\n    tag_97:\n        /* \"#utility.yul\":7793:7825   */\n      0x43616e6e6f742076657269667920746865207a65726f20616464726573730000\n        /* \"#utility.yul\":7789:7790   */\n      0x00\n        /* \"#utility.yul\":7781:7787   */\n      dup3\n        /* \"#utility.yul\":7777:7791   */\n      add\n        /* \"#utility.yul\":7770:7826   */\n      mstore\n        /* \"#utility.yul\":7653:7833   */\n      pop\n      jump\t// out\n        /* \"#utility.yul\":7839:8019   */\n    tag_102:\n        /* \"#utility.yul\":7979:8011   */\n      0x4164647265737320697320616c72656164792061207665726966696665720000\n        /* \"#utility.yul\":7975:7976   */\n      0x00\n        /* \"#utility.yul\":7967:7973   */\n      dup3\n        /* \"#utility.yul\":7963:7977   */\n      add\n        /* \"#utility.yul\":7956:8012   */\n      mstore\n        /* \"#utility.yul\":7839:8019   */\n      pop\n      jump\t// out\n        /* \"#utility.yul\":8025:8202   */\n    tag_107:\n        /* \"#utility.yul\":8165:8194   */\n      0x4164647265737320697320616c72656164792076657269666965640000000000\n        /* \"#utility.yul\":8161:8162   */\n      0x00\n        /* \"#utility.yul\":8153:8159   */\n      dup3\n        /* \"#utility.yul\":8149:8163   */\n      add\n        /* \"#utility.yul\":8142:8195   */\n      mstore\n        /* \"#utility.yul\":8025:8202   */\n      pop\n      jump\t// out\n        /* \"#utility.yul\":8208:8428   */\n    tag_112:\n        /* \"#utility.yul\":8348:8382   */\n      0x5a65726f20616464726573732063616e6e6f7420626520612076657269666965\n        /* \"#utility.yul\":8344:8345   */\n      0x00\n        /* \"#utility.yul\":8336:8342   */\n      dup3\n        /* \"#utility.yul\":8332:8346   */\n      add\n        /* \"#utility.yul\":8325:8383   */\n      mstore\n        /* \"#utility.yul\":8417:8420   */\n      0x7200000000000000000000000000000000000000000000000000000000000000\n        /* \"#utility.yul\":8412:8414   */\n      0x20\n        /* \"#utility.yul\":8404:8410   */\n      dup3\n        /* \"#utility.yul\":8400:8415   */\n      add\n        /* \"#utility.yul\":8393:8421   */\n      mstore\n        /* \"#utility.yul\":8208:8428   */\n      pop\n      jump\t// out\n        /* \"#utility.yul\":8434:8606   */\n    tag_117:\n        /* \"#utility.yul\":8574:8598   */\n      0x596f7520617265206e6f74206120766572696669657200000000000000000000\n        /* \"#utility.yul\":8570:8571   */\n      0x00\n        /* \"#utility.yul\":8562:8568   */\n      dup3\n        /* \"#utility.yul\":8558:8572   */\n      add\n        /* \"#utility.yul\":8551:8599   */\n      mstore\n        /* \"#utility.yul\":8434:8606   */\n      pop\n      jump\t// out\n        /* \"#utility.yul\":8612:8734   */\n    tag_72:\n        /* \"#utility.yul\":8685:8709   */\n      tag_154\n        /* \"#utility.yul\":8703:8708   */\n      dup2\n        /* \"#utility.yul\":8685:8709   */\n      tag_137\n      jump\t// in\n    tag_154:\n        /* \"#utility.yul\":8678:8683   */\n      dup2\n        /* \"#utility.yul\":8675:8710   */\n      eq\n        /* \"#utility.yul\":8665:8728   */\n      tag_155\n      jumpi\n        /* \"#utility.yul\":8724:8725   */\n      0x00\n        /* \"#utility.yul\":8721:8722   */\n      dup1\n        /* \"#utility.yul\":8714:8726   */\n      revert\n        /* \"#utility.yul\":8665:8728   */\n    tag_155:\n        /* \"#utility.yul\":8612:8734   */\n      pop\n      jump\t// out\n\n    auxdata: 0xa2646970667358221220cfc2500e78644f51c0c6119b0c7e74a52fc533a7274c14d8b4345c50374771c464736f6c63430008070033\n}\n",
				"bytecode": {
					"linkReferences": {},
					"object": "608060405234801561001057600080fd5b50604051610e6b380380610e6b8339818101604052810190610032919061008d565b806000806101000a81548173ffffffffffffffffffffffffffffffffffffffff021916908373ffffffffffffffffffffffffffffffffffffffff16021790555050610108565b600081519050610087816100f1565b92915050565b6000602082840312156100a3576100a26100ec565b5b60006100b184828501610078565b91505092915050565b60006100c5826100cc565b9050919050565b600073ffffffffffffffffffffffffffffffffffffffff82169050919050565b600080fd5b6100fa816100ba565b811461010557600080fd5b50565b610d54806101176000396000f3fe608060405234801561001057600080fd5b50600436106100625760003560e01c806333105218146100675780634487b392146100975780635dc84e32146100b35780639000b3d6146100cf578063b9209e33146100eb578063ca2dfd0a1461011b575b600080fd5b610081600480360381019061007c919061091c565b610137565b60405161008e9190610a4d565b60405180910390f35b6100b160048036038101906100ac919061091c565b6101a5565b005b6100cd60048036038101906100c8919061091c565b6102e5565b005b6100e960048036038101906100e4919061091c565b610530565b005b6101056004803603810190610100919061091c565b61071d565b6040516101129190610a4d565b60405180910390f35b6101356004803603810190610130919061091c565b61078b565b005b600060011515600260008473ffffffffffffffffffffffffffffffffffffffff1673ffffffffffffffffffffffffffffffffffffffff16815260200190815260200160002060009054906101000a900460ff161515141561019b57600190506101a0565b600090505b919050565b60011515600260003373ffffffffffffffffffffffffffffffffffffffff1673ffffffffffffffffffffffffffffffffffffffff16815260200190815260200160002060009054906101000a900460ff16151514610238576040517f08c379a000000000000000000000000000000000000000000000000000000000815260040161022f90610b28565b60405180910390fd5b60001515600160008373ffffffffffffffffffffffffffffffffffffffff1673ffffffffffffffffffffffffffffffffffffffff16815260200190815260200160002060009054906101000a905050503373ffffffffffffffffffffffffffffffffffffffff168173ffffffffffffffffffffffffffffffffffffffff167f2679e492f4112eee8e3f6dfd8463065d662332a578753f77ce4c3d76c98271fb60405160405180910390a350565b60011515600260003373ffffffffffffffffffffffffffffffffffffffff1673ffffffffffffffffffffffffffffffffffffffff16815260200190815260200160002060009054906101000a900460ff16151514610378576040517f08c379a000000000000000000000000000000000000000000000000000000000815260040161036f90610b28565b60405180910390fd5b600073ffffffffffffffffffffffffffffffffffffffff168173ffffffffffffffffffffffffffffffffffffffff1614156103e8576040517f08c379a00000000000000000000000000000000000000000000000000000000081526004016103df90610aa8565b60405180910390fd5b60011515600160008373ffffffffffffffffffffffffffffffffffffffff1673ffffffffffffffffffffffffffffffffffffffff16815260200190815260200160002060009054906101000a900460ff161515141561047c576040517f08c379a000000000000000000000000000000000000000000000000000000000815260040161047390610ae8565b60405180910390fd5b60018060008373ffffffffffffffffffffffffffffffffffffffff1673ffffffffffffffffffffffffffffffffffffffff16815260200190815260200160002060006101000a81548160ff0219169083151502179055503373ffffffffffffffffffffffffffffffffffffffff168173ffffffffffffffffffffffffffffffffffffffff167f2679e492f4112eee8e3f6dfd8463065d662332a578753f77ce4c3d76c98271fb60405160405180910390a350565b3373ffffffffffffffffffffffffffffffffffffffff1660008054906101000a900473ffffffffffffffffffffffffffffffffffffffff1673ffffffffffffffffffffffffffffffffffffffff16146105be576040517f08c379a00000000000000000000000000000000000000000000000000000000081526004016105b590610a88565b60405180910390fd5b600073ffffffffffffffffffffffffffffffffffffffff168173ffffffffffffffffffffffffffffffffffffffff16141561062e576040517f08c379a000000000000000000000000000000000000000000000000000000000815260040161062590610b08565b60405180910390fd5b60011515600260008373ffffffffffffffffffffffffffffffffffffffff1673ffffffffffffffffffffffffffffffffffffffff16815260200190815260200160002060009054906101000a900460ff16151514156106c2576040517f08c379a00000000000000000000000000000000000000000000000000000000081526004016106b990610ac8565b60405180910390fd5b6001600260008373ffffffffffffffffffffffffffffffffffffffff1673ffffffffffffffffffffffffffffffffffffffff16815260200190815260200160002060006101000a81548160ff02191690831515021790555050565b600060011515600160008473ffffffffffffffffffffffffffffffffffffffff1673ffffffffffffffffffffffffffffffffffffffff16815260200190815260200160002060009054906101000a900460ff16151514156107815760019050610786565b600090505b919050565b3373ffffffffffffffffffffffffffffffffffffffff1660008054906101000a900473ffffffffffffffffffffffffffffffffffffffff1673ffffffffffffffffffffffffffffffffffffffff1614610819576040517f08c379a000000000000000000000000000000000000000000000000000000000815260040161081090610a88565b60405180910390fd5b60011515600260008373ffffffffffffffffffffffffffffffffffffffff1673ffffffffffffffffffffffffffffffffffffffff16815260200190815260200160002060009054906101000a900460ff161515146108ac576040517f08c379a00000000000000000000000000000000000000000000000000000000081526004016108a390610a68565b60405180910390fd5b6000600260008373ffffffffffffffffffffffffffffffffffffffff1673ffffffffffffffffffffffffffffffffffffffff16815260200190815260200160002060006101000a81548160ff02191690831515021790555050565b60008135905061091681610d07565b92915050565b60006020828403121561093257610931610b97565b5b600061094084828501610907565b91505092915050565b61095281610b6b565b82525050565b6000610965603783610b48565b915061097082610b9c565b604082019050919050565b6000610988601483610b48565b915061099382610beb565b602082019050919050565b60006109ab601e83610b48565b91506109b682610c14565b602082019050919050565b60006109ce601e83610b48565b91506109d982610c3d565b602082019050919050565b60006109f1601b83610b48565b91506109fc82610c66565b602082019050919050565b6000610a14602183610b48565b9150610a1f82610c8f565b604082019050919050565b6000610a37601683610b48565b9150610a4282610cde565b602082019050919050565b6000602082019050610a626000830184610949565b92915050565b60006020820190508181036000830152610a8181610958565b9050919050565b60006020820190508181036000830152610aa18161097b565b9050919050565b60006020820190508181036000830152610ac18161099e565b9050919050565b60006020820190508181036000830152610ae1816109c1565b9050919050565b60006020820190508181036000830152610b01816109e4565b9050919050565b60006020820190508181036000830152610b2181610a07565b9050919050565b60006020820190508181036000830152610b4181610a2a565b9050919050565b600082825260208201905092915050565b6000610b6482610b77565b9050919050565b60008115159050919050565b600073ffffffffffffffffffffffffffffffffffffffff82169050919050565b600080fd5b7f43616e6e6f742072656d6f766520616e2061646472657373207468617420697360008201527f206e6f7420616c72656164792061207665726966696572000000000000000000602082015250565b7f596f7520617265206e6f7420616e2061646d696e000000000000000000000000600082015250565b7f43616e6e6f742076657269667920746865207a65726f20616464726573730000600082015250565b7f4164647265737320697320616c72656164792061207665726966696665720000600082015250565b7f4164647265737320697320616c72656164792076657269666965640000000000600082015250565b7f5a65726f20616464726573732063616e6e6f742062652061207665726966696560008201527f7200000000000000000000000000000000000000000000000000000000000000602082015250565b7f596f7520617265206e6f74206120766572696669657200000000000000000000600082015250565b610d1081610b59565b8114610d1b57600080fd5b5056fea2646970667358221220cfc2500e78644f51c0c6119b0c7e74a52fc533a7274c14d8b4345c50374771c464736f6c63430008070033",
					"opcodes": "PUSH1 0x80 PUSH1 0x40 MSTORE CALLVALUE DUP1 ISZERO PUSH2 0x10 JUMPI PUSH1 0x0 DUP1 REVERT JUMPDEST POP PUSH1 0x40 MLOAD PUSH2 0xE6B CODESIZE SUB DUP1 PUSH2 0xE6B DUP4 CODECOPY DUP2 DUP2 ADD PUSH1 0x40 MSTORE DUP2 ADD SWAP1 PUSH2 0x32 SWAP2 SWAP1 PUSH2 0x8D JUMP JUMPDEST DUP1 PUSH1 0x0 DUP1 PUSH2 0x100 EXP DUP2 SLOAD DUP2 PUSH20 0xFFFFFFFFFFFFFFFFFFFFFFFFFFFFFFFFFFFFFFFF MUL NOT AND SWAP1 DUP4 PUSH20 0xFFFFFFFFFFFFFFFFFFFFFFFFFFFFFFFFFFFFFFFF AND MUL OR SWAP1 SSTORE POP POP PUSH2 0x108 JUMP JUMPDEST PUSH1 0x0 DUP2 MLOAD SWAP1 POP PUSH2 0x87 DUP2 PUSH2 0xF1 JUMP JUMPDEST SWAP3 SWAP2 POP POP JUMP JUMPDEST PUSH1 0x0 PUSH1 0x20 DUP3 DUP5 SUB SLT ISZERO PUSH2 0xA3 JUMPI PUSH2 0xA2 PUSH2 0xEC JUMP JUMPDEST JUMPDEST PUSH1 0x0 PUSH2 0xB1 DUP5 DUP3 DUP6 ADD PUSH2 0x78 JUMP JUMPDEST SWAP2 POP POP SWAP3 SWAP2 POP POP JUMP JUMPDEST PUSH1 0x0 PUSH2 0xC5 DUP3 PUSH2 0xCC JUMP JUMPDEST SWAP1 POP SWAP2 SWAP1 POP JUMP JUMPDEST PUSH1 0x0 PUSH20 0xFFFFFFFFFFFFFFFFFFFFFFFFFFFFFFFFFFFFFFFF DUP3 AND SWAP1 POP SWAP2 SWAP1 POP JUMP JUMPDEST PUSH1 0x0 DUP1 REVERT JUMPDEST PUSH2 0xFA DUP2 PUSH2 0xBA JUMP JUMPDEST DUP2 EQ PUSH2 0x105 JUMPI PUSH1 0x0 DUP1 REVERT JUMPDEST POP JUMP JUMPDEST PUSH2 0xD54 DUP1 PUSH2 0x117 PUSH1 0x0 CODECOPY PUSH1 0x0 RETURN INVALID PUSH1 0x80 PUSH1 0x40 MSTORE CALLVALUE DUP1 ISZERO PUSH2 0x10 JUMPI PUSH1 0x0 DUP1 REVERT JUMPDEST POP PUSH1 0x4 CALLDATASIZE LT PUSH2 0x62 JUMPI PUSH1 0x0 CALLDATALOAD PUSH1 0xE0 SHR DUP1 PUSH4 0x33105218 EQ PUSH2 0x67 JUMPI DUP1 PUSH4 0x4487B392 EQ PUSH2 0x97 JUMPI DUP1 PUSH4 0x5DC84E32 EQ PUSH2 0xB3 JUMPI DUP1 PUSH4 0x9000B3D6 EQ PUSH2 0xCF JUMPI DUP1 PUSH4 0xB9209E33 EQ PUSH2 0xEB JUMPI DUP1 PUSH4 0xCA2DFD0A EQ PUSH2 0x11B JUMPI JUMPDEST PUSH1 0x0 DUP1 REVERT JUMPDEST PUSH2 0x81 PUSH1 0x4 DUP1 CALLDATASIZE SUB DUP2 ADD SWAP1 PUSH2 0x7C SWAP2 SWAP1 PUSH2 0x91C JUMP JUMPDEST PUSH2 0x137 JUMP JUMPDEST PUSH1 0x40 MLOAD PUSH2 0x8E SWAP2 SWAP1 PUSH2 0xA4D JUMP JUMPDEST PUSH1 0x40 MLOAD DUP1 SWAP2 SUB SWAP1 RETURN JUMPDEST PUSH2 0xB1 PUSH1 0x4 DUP1 CALLDATASIZE SUB DUP2 ADD SWAP1 PUSH2 0xAC SWAP2 SWAP1 PUSH2 0x91C JUMP JUMPDEST PUSH2 0x1A5 JUMP JUMPDEST STOP JUMPDEST PUSH2 0xCD PUSH1 0x4 DUP1 CALLDATASIZE SUB DUP2 ADD SWAP1 PUSH2 0xC8 SWAP2 SWAP1 PUSH2 0x91C JUMP JUMPDEST PUSH2 0x2E5 JUMP JUMPDEST STOP JUMPDEST PUSH2 0xE9 PUSH1 0x4 DUP1 CALLDATASIZE SUB DUP2 ADD SWAP1 PUSH2 0xE4 SWAP2 SWAP1 PUSH2 0x91C JUMP JUMPDEST PUSH2 0x530 JUMP JUMPDEST STOP JUMPDEST PUSH2 0x105 PUSH1 0x4 DUP1 CALLDATASIZE SUB DUP2 ADD SWAP1 PUSH2 0x100 SWAP2 SWAP1 PUSH2 0x91C JUMP JUMPDEST PUSH2 0x71D JUMP JUMPDEST PUSH1 0x40 MLOAD PUSH2 0x112 SWAP2 SWAP1 PUSH2 0xA4D JUMP JUMPDEST PUSH1 0x40 MLOAD DUP1 SWAP2 SUB SWAP1 RETURN JUMPDEST PUSH2 0x135 PUSH1 0x4 DUP1 CALLDATASIZE SUB DUP2 ADD SWAP1 PUSH2 0x130 SWAP2 SWAP1 PUSH2 0x91C JUMP JUMPDEST PUSH2 0x78B JUMP JUMPDEST STOP JUMPDEST PUSH1 0x0 PUSH1 0x1 ISZERO ISZERO PUSH1 0x2 PUSH1 0x0 DUP5 PUSH20 0xFFFFFFFFFFFFFFFFFFFFFFFFFFFFFFFFFFFFFFFF AND PUSH20 0xFFFFFFFFFFFFFFFFFFFFFFFFFFFFFFFFFFFFFFFF AND DUP2 MSTORE PUSH1 0x20 ADD SWAP1 DUP2 MSTORE PUSH1 0x20 ADD PUSH1 0x0 KECCAK256 PUSH1 0x0 SWAP1 SLOAD SWAP1 PUSH2 0x100 EXP SWAP1 DIV PUSH1 0xFF AND ISZERO ISZERO EQ ISZERO PUSH2 0x19B JUMPI PUSH1 0x1 SWAP1 POP PUSH2 0x1A0 JUMP JUMPDEST PUSH1 0x0 SWAP1 POP JUMPDEST SWAP2 SWAP1 POP JUMP JUMPDEST PUSH1 0x1 ISZERO ISZERO PUSH1 0x2 PUSH1 0x0 CALLER PUSH20 0xFFFFFFFFFFFFFFFFFFFFFFFFFFFFFFFFFFFFFFFF AND PUSH20 0xFFFFFFFFFFFFFFFFFFFFFFFFFFFFFFFFFFFFFFFF AND DUP2 MSTORE PUSH1 0x20 ADD SWAP1 DUP2 MSTORE PUSH1 0x20 ADD PUSH1 0x0 KECCAK256 PUSH1 0x0 SWAP1 SLOAD SWAP1 PUSH2 0x100 EXP SWAP1 DIV PUSH1 0xFF AND ISZERO ISZERO EQ PUSH2 0x238 JUMPI PUSH1 0x40 MLOAD PUSH32 0x8C379A000000000000000000000000000000000000000000000000000000000 DUP2 MSTORE PUSH1 0x4 ADD PUSH2 0x22F SWAP1 PUSH2 0xB28 JUMP JUMPDEST PUSH1 0x40 MLOAD DUP1 SWAP2 SUB SWAP1 REVERT JUMPDEST PUSH1 0x0 ISZERO ISZERO PUSH1 0x1 PUSH1 0x0 DUP4 PUSH20 0xFFFFFFFFFFFFFFFFFFFFFFFFFFFFFFFFFFFFFFFF AND PUSH20 0xFFFFFFFFFFFFFFFFFFFFFFFFFFFFFFFFFFFFFFFF AND DUP2 MSTORE PUSH1 0x20 ADD SWAP1 DUP2 MSTORE PUSH1 0x20 ADD PUSH1 0x0 KECCAK256 PUSH1 0x0 SWAP1 SLOAD SWAP1 PUSH2 0x100 EXP SWAP1 POP POP POP CALLER PUSH20 0xFFFFFFFFFFFFFFFFFFFFFFFFFFFFFFFFFFFFFFFF AND DUP2 PUSH20 0xFFFFFFFFFFFFFFFFFFFFFFFFFFFFFFFFFFFFFFFF AND PUSH32 0x2679E492F4112EEE8E3F6DFD8463065D662332A578753F77CE4C3D76C98271FB PUSH1 0x40 MLOAD PUSH1 0x40 MLOAD DUP1 SWAP2 SUB SWAP1 LOG3 POP JUMP JUMPDEST PUSH1 0x1 ISZERO ISZERO PUSH1 0x2 PUSH1 0x0 CALLER PUSH20 0xFFFFFFFFFFFFFFFFFFFFFFFFFFFFFFFFFFFFFFFF AND PUSH20 0xFFFFFFFFFFFFFFFFFFFFFFFFFFFFFFFFFFFFFFFF AND DUP2 MSTORE PUSH1 0x20 ADD SWAP1 DUP2 MSTORE PUSH1 0x20 ADD PUSH1 0x0 KECCAK256 PUSH1 0x0 SWAP1 SLOAD SWAP1 PUSH2 0x100 EXP SWAP1 DIV PUSH1 0xFF AND ISZERO ISZERO EQ PUSH2 0x378 JUMPI PUSH1 0x40 MLOAD PUSH32 0x8C379A000000000000000000000000000000000000000000000000000000000 DUP2 MSTORE PUSH1 0x4 ADD PUSH2 0x36F SWAP1 PUSH2 0xB28 JUMP JUMPDEST PUSH1 0x40 MLOAD DUP1 SWAP2 SUB SWAP1 REVERT JUMPDEST PUSH1 0x0 PUSH20 0xFFFFFFFFFFFFFFFFFFFFFFFFFFFFFFFFFFFFFFFF AND DUP2 PUSH20 0xFFFFFFFFFFFFFFFFFFFFFFFFFFFFFFFFFFFFFFFF AND EQ ISZERO PUSH2 0x3E8 JUMPI PUSH1 0x40 MLOAD PUSH32 0x8C379A000000000000000000000000000000000000000000000000000000000 DUP2 MSTORE PUSH1 0x4 ADD PUSH2 0x3DF SWAP1 PUSH2 0xAA8 JUMP JUMPDEST PUSH1 0x40 MLOAD DUP1 SWAP2 SUB SWAP1 REVERT JUMPDEST PUSH1 0x1 ISZERO ISZERO PUSH1 0x1 PUSH1 0x0 DUP4 PUSH20 0xFFFFFFFFFFFFFFFFFFFFFFFFFFFFFFFFFFFFFFFF AND PUSH20 0xFFFFFFFFFFFFFFFFFFFFFFFFFFFFFFFFFFFFFFFF AND DUP2 MSTORE PUSH1 0x20 ADD SWAP1 DUP2 MSTORE PUSH1 0x20 ADD PUSH1 0x0 KECCAK256 PUSH1 0x0 SWAP1 SLOAD SWAP1 PUSH2 0x100 EXP SWAP1 DIV PUSH1 0xFF AND ISZERO ISZERO EQ ISZERO PUSH2 0x47C JUMPI PUSH1 0x40 MLOAD PUSH32 0x8C379A000000000000000000000000000000000000000000000000000000000 DUP2 MSTORE PUSH1 0x4 ADD PUSH2 0x473 SWAP1 PUSH2 0xAE8 JUMP JUMPDEST PUSH1 0x40 MLOAD DUP1 SWAP2 SUB SWAP1 REVERT JUMPDEST PUSH1 0x1 DUP1 PUSH1 0x0 DUP4 PUSH20 0xFFFFFFFFFFFFFFFFFFFFFFFFFFFFFFFFFFFFFFFF AND PUSH20 0xFFFFFFFFFFFFFFFFFFFFFFFFFFFFFFFFFFFFFFFF AND DUP2 MSTORE PUSH1 0x20 ADD SWAP1 DUP2 MSTORE PUSH1 0x20 ADD PUSH1 0x0 KECCAK256 PUSH1 0x0 PUSH2 0x100 EXP DUP2 SLOAD DUP2 PUSH1 0xFF MUL NOT AND SWAP1 DUP4 ISZERO ISZERO MUL OR SWAP1 SSTORE POP CALLER PUSH20 0xFFFFFFFFFFFFFFFFFFFFFFFFFFFFFFFFFFFFFFFF AND DUP2 PUSH20 0xFFFFFFFFFFFFFFFFFFFFFFFFFFFFFFFFFFFFFFFF AND PUSH32 0x2679E492F4112EEE8E3F6DFD8463065D662332A578753F77CE4C3D76C98271FB PUSH1 0x40 MLOAD PUSH1 0x40 MLOAD DUP1 SWAP2 SUB SWAP1 LOG3 POP JUMP JUMPDEST CALLER PUSH20 0xFFFFFFFFFFFFFFFFFFFFFFFFFFFFFFFFFFFFFFFF AND PUSH1 0x0 DUP1 SLOAD SWAP1 PUSH2 0x100 EXP SWAP1 DIV PUSH20 0xFFFFFFFFFFFFFFFFFFFFFFFFFFFFFFFFFFFFFFFF AND PUSH20 0xFFFFFFFFFFFFFFFFFFFFFFFFFFFFFFFFFFFFFFFF AND EQ PUSH2 0x5BE JUMPI PUSH1 0x40 MLOAD PUSH32 0x8C379A000000000000000000000000000000000000000000000000000000000 DUP2 MSTORE PUSH1 0x4 ADD PUSH2 0x5B5 SWAP1 PUSH2 0xA88 JUMP JUMPDEST PUSH1 0x40 MLOAD DUP1 SWAP2 SUB SWAP1 REVERT JUMPDEST PUSH1 0x0 PUSH20 0xFFFFFFFFFFFFFFFFFFFFFFFFFFFFFFFFFFFFFFFF AND DUP2 PUSH20 0xFFFFFFFFFFFFFFFFFFFFFFFFFFFFFFFFFFFFFFFF AND EQ ISZERO PUSH2 0x62E JUMPI PUSH1 0x40 MLOAD PUSH32 0x8C379A000000000000000000000000000000000000000000000000000000000 DUP2 MSTORE PUSH1 0x4 ADD PUSH2 0x625 SWAP1 PUSH2 0xB08 JUMP JUMPDEST PUSH1 0x40 MLOAD DUP1 SWAP2 SUB SWAP1 REVERT JUMPDEST PUSH1 0x1 ISZERO ISZERO PUSH1 0x2 PUSH1 0x0 DUP4 PUSH20 0xFFFFFFFFFFFFFFFFFFFFFFFFFFFFFFFFFFFFFFFF AND PUSH20 0xFFFFFFFFFFFFFFFFFFFFFFFFFFFFFFFFFFFFFFFF AND DUP2 MSTORE PUSH1 0x20 ADD SWAP1 DUP2 MSTORE PUSH1 0x20 ADD PUSH1 0x0 KECCAK256 PUSH1 0x0 SWAP1 SLOAD SWAP1 PUSH2 0x100 EXP SWAP1 DIV PUSH1 0xFF AND ISZERO ISZERO EQ ISZERO PUSH2 0x6C2 JUMPI PUSH1 0x40 MLOAD PUSH32 0x8C379A000000000000000000000000000000000000000000000000000000000 DUP2 MSTORE PUSH1 0x4 ADD PUSH2 0x6B9 SWAP1 PUSH2 0xAC8 JUMP JUMPDEST PUSH1 0x40 MLOAD DUP1 SWAP2 SUB SWAP1 REVERT JUMPDEST PUSH1 0x1 PUSH1 0x2 PUSH1 0x0 DUP4 PUSH20 0xFFFFFFFFFFFFFFFFFFFFFFFFFFFFFFFFFFFFFFFF AND PUSH20 0xFFFFFFFFFFFFFFFFFFFFFFFFFFFFFFFFFFFFFFFF AND DUP2 MSTORE PUSH1 0x20 ADD SWAP1 DUP2 MSTORE PUSH1 0x20 ADD PUSH1 0x0 KECCAK256 PUSH1 0x0 PUSH2 0x100 EXP DUP2 SLOAD DUP2 PUSH1 0xFF MUL NOT AND SWAP1 DUP4 ISZERO ISZERO MUL OR SWAP1 SSTORE POP POP JUMP JUMPDEST PUSH1 0x0 PUSH1 0x1 ISZERO ISZERO PUSH1 0x1 PUSH1 0x0 DUP5 PUSH20 0xFFFFFFFFFFFFFFFFFFFFFFFFFFFFFFFFFFFFFFFF AND PUSH20 0xFFFFFFFFFFFFFFFFFFFFFFFFFFFFFFFFFFFFFFFF AND DUP2 MSTORE PUSH1 0x20 ADD SWAP1 DUP2 MSTORE PUSH1 0x20 ADD PUSH1 0x0 KECCAK256 PUSH1 0x0 SWAP1 SLOAD SWAP1 PUSH2 0x100 EXP SWAP1 DIV PUSH1 0xFF AND ISZERO ISZERO EQ ISZERO PUSH2 0x781 JUMPI PUSH1 0x1 SWAP1 POP PUSH2 0x786 JUMP JUMPDEST PUSH1 0x0 SWAP1 POP JUMPDEST SWAP2 SWAP1 POP JUMP JUMPDEST CALLER PUSH20 0xFFFFFFFFFFFFFFFFFFFFFFFFFFFFFFFFFFFFFFFF AND PUSH1 0x0 DUP1 SLOAD SWAP1 PUSH2 0x100 EXP SWAP1 DIV PUSH20 0xFFFFFFFFFFFFFFFFFFFFFFFFFFFFFFFFFFFFFFFF AND PUSH20 0xFFFFFFFFFFFFFFFFFFFFFFFFFFFFFFFFFFFFFFFF AND EQ PUSH2 0x819 JUMPI PUSH1 0x40 MLOAD PUSH32 0x8C379A000000000000000000000000000000000000000000000000000000000 DUP2 MSTORE PUSH1 0x4 ADD PUSH2 0x810 SWAP1 PUSH2 0xA88 JUMP JUMPDEST PUSH1 0x40 MLOAD DUP1 SWAP2 SUB SWAP1 REVERT JUMPDEST PUSH1 0x1 ISZERO ISZERO PUSH1 0x2 PUSH1 0x0 DUP4 PUSH20 0xFFFFFFFFFFFFFFFFFFFFFFFFFFFFFFFFFFFFFFFF AND PUSH20 0xFFFFFFFFFFFFFFFFFFFFFFFFFFFFFFFFFFFFFFFF AND DUP2 MSTORE PUSH1 0x20 ADD SWAP1 DUP2 MSTORE PUSH1 0x20 ADD PUSH1 0x0 KECCAK256 PUSH1 0x0 SWAP1 SLOAD SWAP1 PUSH2 0x100 EXP SWAP1 DIV PUSH1 0xFF AND ISZERO ISZERO EQ PUSH2 0x8AC JUMPI PUSH1 0x40 MLOAD PUSH32 0x8C379A000000000000000000000000000000000000000000000000000000000 DUP2 MSTORE PUSH1 0x4 ADD PUSH2 0x8A3 SWAP1 PUSH2 0xA68 JUMP JUMPDEST PUSH1 0x40 MLOAD DUP1 SWAP2 SUB SWAP1 REVERT JUMPDEST PUSH1 0x0 PUSH1 0x2 PUSH1 0x0 DUP4 PUSH20 0xFFFFFFFFFFFFFFFFFFFFFFFFFFFFFFFFFFFFFFFF AND PUSH20 0xFFFFFFFFFFFFFFFFFFFFFFFFFFFFFFFFFFFFFFFF AND DUP2 MSTORE PUSH1 0x20 ADD SWAP1 DUP2 MSTORE PUSH1 0x20 ADD PUSH1 0x0 KECCAK256 PUSH1 0x0 PUSH2 0x100 EXP DUP2 SLOAD DUP2 PUSH1 0xFF MUL NOT AND SWAP1 DUP4 ISZERO ISZERO MUL OR SWAP1 SSTORE POP POP JUMP JUMPDEST PUSH1 0x0 DUP2 CALLDATALOAD SWAP1 POP PUSH2 0x916 DUP2 PUSH2 0xD07 JUMP JUMPDEST SWAP3 SWAP2 POP POP JUMP JUMPDEST PUSH1 0x0 PUSH1 0x20 DUP3 DUP5 SUB SLT ISZERO PUSH2 0x932 JUMPI PUSH2 0x931 PUSH2 0xB97 JUMP JUMPDEST JUMPDEST PUSH1 0x0 PUSH2 0x940 DUP5 DUP3 DUP6 ADD PUSH2 0x907 JUMP JUMPDEST SWAP2 POP POP SWAP3 SWAP2 POP POP JUMP JUMPDEST PUSH2 0x952 DUP2 PUSH2 0xB6B JUMP JUMPDEST DUP3 MSTORE POP POP JUMP JUMPDEST PUSH1 0x0 PUSH2 0x965 PUSH1 0x37 DUP4 PUSH2 0xB48 JUMP JUMPDEST SWAP2 POP PUSH2 0x970 DUP3 PUSH2 0xB9C JUMP JUMPDEST PUSH1 0x40 DUP3 ADD SWAP1 POP SWAP2 SWAP1 POP JUMP JUMPDEST PUSH1 0x0 PUSH2 0x988 PUSH1 0x14 DUP4 PUSH2 0xB48 JUMP JUMPDEST SWAP2 POP PUSH2 0x993 DUP3 PUSH2 0xBEB JUMP JUMPDEST PUSH1 0x20 DUP3 ADD SWAP1 POP SWAP2 SWAP1 POP JUMP JUMPDEST PUSH1 0x0 PUSH2 0x9AB PUSH1 0x1E DUP4 PUSH2 0xB48 JUMP JUMPDEST SWAP2 POP PUSH2 0x9B6 DUP3 PUSH2 0xC14 JUMP JUMPDEST PUSH1 0x20 DUP3 ADD SWAP1 POP SWAP2 SWAP1 POP JUMP JUMPDEST PUSH1 0x0 PUSH2 0x9CE PUSH1 0x1E DUP4 PUSH2 0xB48 JUMP JUMPDEST SWAP2 POP PUSH2 0x9D9 DUP3 PUSH2 0xC3D JUMP JUMPDEST PUSH1 0x20 DUP3 ADD SWAP1 POP SWAP2 SWAP1 POP JUMP JUMPDEST PUSH1 0x0 PUSH2 0x9F1 PUSH1 0x1B DUP4 PUSH2 0xB48 JUMP JUMPDEST SWAP2 POP PUSH2 0x9FC DUP3 PUSH2 0xC66 JUMP JUMPDEST PUSH1 0x20 DUP3 ADD SWAP1 POP SWAP2 SWAP1 POP JUMP JUMPDEST PUSH1 0x0 PUSH2 0xA14 PUSH1 0x21 DUP4 PUSH2 0xB48 JUMP JUMPDEST SWAP2 POP PUSH2 0xA1F DUP3 PUSH2 0xC8F JUMP JUMPDEST PUSH1 0x40 DUP3 ADD SWAP1 POP SWAP2 SWAP1 POP JUMP JUMPDEST PUSH1 0x0 PUSH2 0xA37 PUSH1 0x16 DUP4 PUSH2 0xB48 JUMP JUMPDEST SWAP2 POP PUSH2 0xA42 DUP3 PUSH2 0xCDE JUMP JUMPDEST PUSH1 0x20 DUP3 ADD SWAP1 POP SWAP2 SWAP1 POP JUMP JUMPDEST PUSH1 0x0 PUSH1 0x20 DUP3 ADD SWAP1 POP PUSH2 0xA62 PUSH1 0x0 DUP4 ADD DUP5 PUSH2 0x949 JUMP JUMPDEST SWAP3 SWAP2 POP POP JUMP JUMPDEST PUSH1 0x0 PUSH1 0x20 DUP3 ADD SWAP1 POP DUP2 DUP2 SUB PUSH1 0x0 DUP4 ADD MSTORE PUSH2 0xA81 DUP2 PUSH2 0x958 JUMP JUMPDEST SWAP1 POP SWAP2 SWAP1 POP JUMP JUMPDEST PUSH1 0x0 PUSH1 0x20 DUP3 ADD SWAP1 POP DUP2 DUP2 SUB PUSH1 0x0 DUP4 ADD MSTORE PUSH2 0xAA1 DUP2 PUSH2 0x97B JUMP JUMPDEST SWAP1 POP SWAP2 SWAP1 POP JUMP JUMPDEST PUSH1 0x0 PUSH1 0x20 DUP3 ADD SWAP1 POP DUP2 DUP2 SUB PUSH1 0x0 DUP4 ADD MSTORE PUSH2 0xAC1 DUP2 PUSH2 0x99E JUMP JUMPDEST SWAP1 POP SWAP2 SWAP1 POP JUMP JUMPDEST PUSH1 0x0 PUSH1 0x20 DUP3 ADD SWAP1 POP DUP2 DUP2 SUB PUSH1 0x0 DUP4 ADD MSTORE PUSH2 0xAE1 DUP2 PUSH2 0x9C1 JUMP JUMPDEST SWAP1 POP SWAP2 SWAP1 POP JUMP JUMPDEST PUSH1 0x0 PUSH1 0x20 DUP3 ADD SWAP1 POP DUP2 DUP2 SUB PUSH1 0x0 DUP4 ADD MSTORE PUSH2 0xB01 DUP2 PUSH2 0x9E4 JUMP JUMPDEST SWAP1 POP SWAP2 SWAP1 POP JUMP JUMPDEST PUSH1 0x0 PUSH1 0x20 DUP3 ADD SWAP1 POP DUP2 DUP2 SUB PUSH1 0x0 DUP4 ADD MSTORE PUSH2 0xB21 DUP2 PUSH2 0xA07 JUMP JUMPDEST SWAP1 POP SWAP2 SWAP1 POP JUMP JUMPDEST PUSH1 0x0 PUSH1 0x20 DUP3 ADD SWAP1 POP DUP2 DUP2 SUB PUSH1 0x0 DUP4 ADD MSTORE PUSH2 0xB41 DUP2 PUSH2 0xA2A JUMP JUMPDEST SWAP1 POP SWAP2 SWAP1 POP JUMP JUMPDEST PUSH1 0x0 DUP3 DUP3 MSTORE PUSH1 0x20 DUP3 ADD SWAP1 POP SWAP3 SWAP2 POP POP JUMP JUMPDEST PUSH1 0x0 PUSH2 0xB64 DUP3 PUSH2 0xB77 JUMP JUMPDEST SWAP1 POP SWAP2 SWAP1 POP JUMP JUMPDEST PUSH1 0x0 DUP2 ISZERO ISZERO SWAP1 POP SWAP2 SWAP1 POP JUMP JUMPDEST PUSH1 0x0 PUSH20 0xFFFFFFFFFFFFFFFFFFFFFFFFFFFFFFFFFFFFFFFF DUP3 AND SWAP1 POP SWAP2 SWAP1 POP JUMP JUMPDEST PUSH1 0x0 DUP1 REVERT JUMPDEST PUSH32 0x43616E6E6F742072656D6F766520616E20616464726573732074686174206973 PUSH1 0x0 DUP3 ADD MSTORE PUSH32 0x206E6F7420616C72656164792061207665726966696572000000000000000000 PUSH1 0x20 DUP3 ADD MSTORE POP JUMP JUMPDEST PUSH32 0x596F7520617265206E6F7420616E2061646D696E000000000000000000000000 PUSH1 0x0 DUP3 ADD MSTORE POP JUMP JUMPDEST PUSH32 0x43616E6E6F742076657269667920746865207A65726F20616464726573730000 PUSH1 0x0 DUP3 ADD MSTORE POP JUMP JUMPDEST PUSH32 0x4164647265737320697320616C72656164792061207665726966696665720000 PUSH1 0x0 DUP3 ADD MSTORE POP JUMP JUMPDEST PUSH32 0x4164647265737320697320616C72656164792076657269666965640000000000 PUSH1 0x0 DUP3 ADD MSTORE POP JUMP JUMPDEST PUSH32 0x5A65726F20616464726573732063616E6E6F7420626520612076657269666965 PUSH1 0x0 DUP3 ADD MSTORE PUSH32 0x7200000000000000000000000000000000000000000000000000000000000000 PUSH1 0x20 DUP3 ADD MSTORE POP JUMP JUMPDEST PUSH32 0x596F7520617265206E6F74206120766572696669657200000000000000000000 PUSH1 0x0 DUP3 ADD MSTORE POP JUMP JUMPDEST PUSH2 0xD10 DUP2 PUSH2 0xB59 JUMP JUMPDEST DUP2 EQ PUSH2 0xD1B JUMPI PUSH1 0x0 DUP1 REVERT JUMPDEST POP JUMP INVALID LOG2 PUSH5 0x6970667358 0x22 SLT KECCAK256 0xCF 0xC2 POP 0xE PUSH25 0x644F51C0C6119B0C7E74A52FC533A7274C14D8B4345C503747 PUSH18 0xC464736F6C63430008070033000000000000 "
				},
				"gasEstimates": {
					"creation": {
						"codeDepositCost": "682400",
						"executionCost": "infinite",
						"totalCost": "infinite"
					},
					"external": {
						"addVerified(address)": "30940",
						"addVerifier(address)": "29325",
						"isVerified(address)": "2998",
						"isVerifier(address)": "2910",
						"removeVerified(address)": "6492",
						"removeVerifier(address)": "29328"
					}
				},
				"methodIdentifiers": {
					"addVerified(address)": "5dc84e32",
					"addVerifier(address)": "9000b3d6",
					"isVerified(address)": "b9209e33",
					"isVerifier(address)": "33105218",
					"removeVerified(address)": "4487b392",
					"removeVerifier(address)": "ca2dfd0a"
				}
			},
			"storageLayout": {
				"storage": [
					{
						"astId": 138,
						"contract": "contracts/simple_verify.sol:Verify",
						"label": "admin",
						"offset": 0,
						"slot": "0",
						"type": "t_address"
					},
					{
						"astId": 142,
						"contract": "contracts/simple_verify.sol:Verify",
						"label": "verifiedAddresses",
						"offset": 0,
						"slot": "1",
						"type": "t_mapping(t_address,t_bool)"
					},
					{
						"astId": 146,
						"contract": "contracts/simple_verify.sol:Verify",
						"label": "verifiers",
						"offset": 0,
						"slot": "2",
						"type": "t_mapping(t_address,t_bool)"
					}
				],
				"types": {
					"t_address": {
						"encoding": "inplace",
						"label": "address",
						"numberOfBytes": "20"
					},
					"t_bool": {
						"encoding": "inplace",
						"label": "bool",
						"numberOfBytes": "1"
					},
					"t_mapping(t_address,t_bool)": {
						"encoding": "mapping",
						"key": "t_address",
						"label": "mapping(address => bool)",
						"numberOfBytes": "32",
						"value": "t_bool"
					}
				}
			},
			"userdoc": {
				"kind": "user",
				"methods": {},
				"version": 1
			}
		}
	}
}